:020000040800F2
:100000000000022061090008550900084D4E000853
:1000100055090008550900085509000800000000AE
:10002000000000000000000000000000550900086A
:10003000550900080000000055090008D14D0008CE
:100040005509000855090008550900085509000818
:100050005509000855090008550900085509000808
:10006000550900085509000855090008B949000854
:10007000C549000855090008D1490008DD490008B4
:100080002D000108B53E0008550900085509000873
:1000900055090008550900085509000855090008C8
:1000A00055090008550900085509000855090008B8
:1000B000ADF10008B9F10008C5F10008E93E0008FB
:1000C00055090008F53E000855090008F5E9000843
:1000D00001EA000861FE00088DFE0008C1FE00086C
:1000E00055090008550900080000000055090008DE
:1000F0005509000855090008550900085509000868
:100100005509000855090008D1F100080DEA00085A
:10011000F5FE000829FF00085509000855090008E8
:10012000550900085509000831EA000865EA000889
:100130006100010855090008550900085509000823
:1001400000000000000000000000000000000000AF
:100150005509000855090008550900085DFF000809
:10016000013F000855090008E14D0008054E000850
:1001700055090008294E00085509000855090008CE
:10018000550900085509000891FF0008C5FF00083F
:1001900019EA000825EA0008550900085509000871
:1001A00055090008550900085509000855090008B7
:1001B000B946000855090008550900085509000806
:1001C0005509000855090008550900085509000897
:1001D0005509000855090008550900085509000887
:1001E0005509000855090008550900085509000877
:1001F0005509000855090008550900085509000867
:100200005509000855090008550900085509000856
:100210005509000855090008550900085509000846
:10022000550900085509000855090008000000009C
:10023000550900085509000800000000550900088C
:100240005509000855090008550900085509000816
:100250005509000855090008550900085509000806
:1002600055090008550900085509000855090008F6
:100270005509000855090008F9FF000800000000B2
:10028000550900085509000855090008000000003C
:08029000000000005509000800
:1002980010B5054C237833B9044B13B10448AFF3B8
:1002A80000800123237010BDE80300240000000033
:1002B8007040010808B5034B1BB103490348AFF36D
:1002C800008008BD00000000EC0300247040010815
:1002D80081F0004102E000BF83F0004330B54FEAEF
:1002E80041044FEA430594EA050F08BF90EA020F5C
:1002F8001FBF54EA000C55EA020C7FEA645C7FEAEF
:10030800655C00F0E2804FEA5454D4EB5555B8BF11
:100318006D420CDD2C4480EA020281EA030382EA82
:10032800000083EA010180EA020281EA0303362D14
:1003380088BF30BD11F0004F4FEA01314FF4801CE7
:100348004CEA113102D0404261EB410113F0004FF9
:100358004FEA03334CEA133302D0524263EB4303B0
:1003680094EA050F00F0A780A4F10104D5F1200E4E
:100378000DDB02FA0EFC22FA05F2801841F10001A9
:1003880003FA0EF2801843FA05F359410EE0A5F17D
:1003980020050EF1200E012A03FA0EFC28BF4CF0AE
:1003A800020C43FA05F3C01851EBE37101F0004564
:1003B80007D54FF0000EDCF1000C7EEB00006EEB71
:1003C8000101B1F5801F1BD3B1F5001F0CD34908FB
:1003D8005FEA30004FEA3C0C04F101044FEA445252
:1003E80012F5800F80F09A80BCF1004F08BF5FEAD9
:1003F800500C50F1000041EB045141EA050130BDB9
:100408005FEA4C0C404141EB0101013C28BFB1F5CA
:10041800801FE9D291F0000F04BF01460020B1FA15
:1004280081F308BF2033A3F10B03B3F120020CDAE8
:100438000C3208DD02F1140CC2F10C0201FA0CF0C6
:1004480021FA02F10CE002F11402D8BFC2F1200C2B
:1004580001FA02F120FA0CFCDCBF41EA0C019040E1
:10046800E41AA2BF01EB0451294330BD6FEA04042A
:100478001F3C1CDA0C340EDC04F11404C4F1200215
:1004880020FA04F001FA02F340EA030021FA04F327
:1004980045EA030130BDC4F10C04C4F1200220FA7E
:1004A80002F001FA04F340EA0300294630BD21FABC
:1004B80004F0294630BD94F0000F83F4801306BF82
:1004C80081F480110134013D4EE77FEA645C18BF76
:1004D8007FEA655C29D094EA050F08BF90EA020F0D
:1004E80005D054EA000C04BF1946104630BD91EA05
:1004F800030F1EBF0021002030BD5FEA545C05D108
:100508004000494128BF41F0004130BD14F5800446
:100518003CBF01F5801130BD01F0004545F0FE41BA
:1005280041F470014FF0000030BD7FEA645C1ABFEF
:10053800194610467FEA655C1CBF0B46024650EA26
:10054800013406BF52EA033591EA030F41F4002152
:1005580030BD00BF90F0000F04BF0021704730B5D8
:100568004FF4806404F132044FF000054FF00001AD
:1005780050E700BF90F0000F04BF0021704730B56E
:100588004FF4806404F1320410F0004548BF404243
:100598004FF000013EE700BF42004FEAE2014FEA98
:1005A80031014FEA02701FBF12F07F4393F07F4F73
:1005B80081F06051704732F07F4208BF704793F076
:1005C8007F4F04BF41F40021704730B54FF4607489
:1005D80001F0004521F000411CE700BF50EA01028C
:1005E80008BF704730B54FF000050AE050EA010235
:1005F80008BF704730B511F0004502D5404261EBA5
:1006080041014FF4806404F132045FEA915C3FF4E5
:10061800D8AE4FF003025FEADC0C18BF03325FEA82
:10062800DC0C18BF033202EBDC02C2F1200300FA33
:1006380003FC20FA02F001FA03FE40EA0E0021FA58
:1006480002F11444BDE600BF53B94AB9002908BFF6
:1006580000281CBF4FF0FF314FF0FF3000F074B995
:10066800ADF1080C6DE904CE00F006F8DDF804E001
:10067800DDE9022304B070472DE9F047089D0446E0
:100688008E46002B4DD18A42944669D9B2FA82F23D
:1006980052B101FA02F3C2F1200120FA01F10CFA79
:1006A80002FC41EA030E94404FEA1C48210CBEFBB1
:1006B800F8F61FFA8CF708FB16E341EA034306FB3A
:1006C80007F199420AD91CEB030306F1FF3080F0C9
:1006D8001F81994240F21C81023E63445B1AA4B216
:1006E800B3FBF8F008FB103344EA034400FB07F7B8
:1006F800A7420AD91CEB040400F1FF3380F00A81F9
:10070800A74240F207816444023840EA0640E41BED
:1007180000261DB1D4400023C5E900433146BDE899
:10072800F0878B4209D9002D00F0EF800026C5E93B
:10073800000130463146BDE8F087B3FA83F6002E53
:100748004AD18B4202D3824200F2F980841A61EBCB
:10075800030301209E46002DE0D0C5E9004EDDE7E9
:1007680002B9FFDEB2FA82F2002A40F09280A1EBD1
:100778000C014FEA1C471FFA8CFE0126200CB1FB26
:10078800F7F307FB131140EA01410EFB03F088421F
:1007980008D91CEB010103F1FF3802D2884200F2AC
:1007A800CB804346091AA4B2B1FBF7F007FB10113E
:1007B80044EA01440EFB00FEA64508D91CEB0404DC
:1007C80000F1FF3102D2A64500F2BB800846A4EB37
:1007D8000E0440EA03409CE7C6F12007B34022FA22
:1007E80007FC4CEA030C20FA07F401FA06F31C4351
:1007F800F9404FEA1C4900FA06F3B1FBF9F8200C5E
:100808001FFA8CFE09FB181140EA014108FB0EF0A3
:10081800884202FA06F20BD91CEB010108F1FF3AF3
:1008280080F08880884240F28580A8F102086144FF
:10083800091AA4B2B1FBF9F009FB101144EA01410D
:1008480000FB0EFE8E4508D91CEB010100F1FF34B8
:100858006CD28E456AD90238614440EA0840A0FB50
:100868000294A1EB0E01A142C846A64656D353D026
:100878005DB1B3EB080261EB0E0101FA07F722FA4A
:1008880006F3F1401F43C5E9007100263146BDE873
:10089800F087C2F12003D8400CFA02FC21FA03F3D6
:1008A800914001434FEA1C471FFA8CFEB3FBF7F057
:1008B80007FB10360B0C43EA064300FB0EF69E427C
:1008C80004FA02F408D91CEB030300F1FF382FD215
:1008D8009E422DD9023863449B1B89B2B3FBF7F6BD
:1008E80007FB163341EA034106FB0EF38B4208D996
:1008F8001CEB010106F1FF3816D28B4214D9023ED7
:100908006144C91A46EA004638E72E46284605E7F4
:100918000646E3E61846F8E64B45A9D2B9EB0208C5
:1009280064EB0C0E0138A3E74646EAE7204694E755
:100938004046D1E7D0467BE7023B614432E7304688
:1009480009E76444023842E7704700BF684620F070
:1009580007018D46FEE700BF0B480C4A904208B5D8
:1009680003D0121A0A4912F0C5FA0A480A4A9042F4
:1009780003D0121A002112F0CBFA04F0C9FC12F0CD
:100988008DFA01F055FAFEE700000024E803002480
:10099800A4400108E80300249C3D0024704700BFE0
:1009A800704700BF704700BF4020704780207047E5
:1009B80049424FF480621030C9B212F0A9BA00BFA0
:1009C800CAB1013A70B50C46002556080A4811F01C
:1009D80089FE0A4801F03CFB074811F083FE2246D5
:1009E800AE4284ED010A05F1010504F1080482ED27
:1009F800000AEBD170BD70470404002440080024AD
:100A080010B504464FF4826112F02DF8204610BD4F
:100A18002DE9F04F4FF0B00885B0054600F1080702
:100A280000F18F0600F28F494FF47A7B4FF0000AED
:100A3800297B022303AA3846CDF800B0A6F180042A
:100A48008DF80CA08DF80D8003F0F4FA297B0223B1
:100A580003AA3846CDF800B08DF80CA08DF80DA08B
:100A680003F0E8FA4FF0100C297B022303AA38465A
:100A7800CDF800B08DF80CA08DF80DC003F0DAFAAF
:100A88004FF47A7014F801CF4FF0400E297B0223FF
:100A9800009003AA38468DF80CE08DF80DC003F0DD
:100AA800C9FAB442ECD104F1800608F101084E45B8
:100AB8005FFA88F8B8D105B0BDE8F08F2DE9F04F9E
:100AC80089B008AC9DF84870019104E90C000B78D6
:100AD800002B00F0AB801A469DF818809DF819305D
:100AE8000646454690460393079B0593A8F12004C4
:100AF800E3B25E2B00F29E8033685E4ADB68934265
:100B080040F09B808020B3882B44834200F392807E
:100B18003368594A9B68934240F092804020F1889C
:100B2800039A02918B18834200F38480002A00F014
:100B3800918002FB04F46FF00049059BA144144422
:100B4800B6F804B003EB4909023BCDF8108003EB7B
:100B580044030C469A4639F802CFA5B304F00703BC
:100B68004FF0010EE20859460EFA03FE0BF110038E
:100B78004FFA8EFE03EBC21200236FEA0E083244CE
:100B88000DE07F2906D83F2C04D8107897B14EEA9B
:100B980000001070013301320131AB4213D00CFA5E
:100BA80003F00004EDD47F29F4D83F2CF2D8107854
:100BB800002FECD0013308EA000001320131AB42CA
:100BC80002F8010CEBD1D14504F10104C3D1DDF8E1
:100BD800108032680BEB05042649D368A4B28B4217
:100BE80034D18020844204D3D36822498B423AD13D
:100BF8007F249368204AB480934224D14020029BEA
:100C0800834206D333681C4A9B68934225D13F230D
:100C18000293029BF380019B1878404507D113F893
:100C2800018F0193B8F1000F7FF460AF002009B085
:100C3800BDE8F08F4FF00008EDE73046984762E7CF
:100C4800304698476BE730469847D8E7304698478C
:100C58003268C7E7B6F804B0BBE7304698470138B2
:100C680083B20293D5E7304698470138326884B298
:100C7800BFE700BFB5090008B10900082DE9F04F2A
:100C880085B0A1F1200504AC9DF83870009104E905
:100C98000C00EBB25E2B00F29580036880465D4A3B
:100CA800DB689DF8084093429DF8096040F0948005
:100CB8008020B8F804302344834200F38380D8F8B6
:100CC8000030554A9B68934240F088804020B8F82D
:100CD800062093190192834274DC002E00F089806B
:100CE80006FB05F56FF00040039B964628442E440A
:100CF800B8F804A003EB4000023B03EB460B30F8C6
:100D0800026FBCB30EF007034FF0010C4FEADE028E
:100D180051460CFA03FC0AF110034FFA8CFC03EB62
:100D2800C21200236FEA0C0942440EE07F2907D85B
:100D3800BEF13F0F04D815789FB14CEA0505157030
:100D48000133013201319C4214D006FA03F52D0417
:100D5800ECD47F29F4D8BEF13F0FF1D81578002FD5
:100D6800EBD0013309EA0505013201319C4202F852
:100D7800015CEAD158450EF1010EC0D1D8F8003017
:100D880054442449DA68A4B28A422DD1802084428E
:100D98001CD29B68204AA8F80440934221D14020E5
:100DA800019B834207D3D8F800301B4A9B689342C3
:100DB80029D13F230193DDE90003A8F8063005B0E7
:100DC800BDE8F08F002005B0BDE8F08FDA68114962
:100DD8008A4211D17F24DCE798476AE74046984762
:100DE80075E740469847DBE740469047D8F800301B
:100DF800CDE7B8F804A0C1E7404690470138D8F8D5
:100E0800003084B2C5E740469847013883B2019361
:100E1800D1E700BFB5090008B10900082DE9F04F76
:100E280089B01D46884606901046129C10F8013B72
:100E380013999DF85060009233B1002210F8013BDD
:100E48000132002BFAD193B22A78687812FB03F3A7
:100E580002B21BB223EAE373082900F2A981DFE892
:100E680011F002011401200134014201500167010F
:100E780071010900A18827880F44B4F90610FF1AE8
:100E88000029BFB2C0F2FF80B4F802C006980CEB8C
:100E98006104C280A4EB52028380078094B244802C
:100EA800A64AD8F8003011460192DA688A4240F022
:100EB8008D818020B84205D8DA6801998A4240F0CD
:100EC8009A817F279E4A9B68A8F8047093420392F0
:100ED80040F089814020A04207D8D8F80030039A12
:100EE8009B68934240F082813F24009BA8F806400B
:100EF80093F800B06B782C7804936B680793BBF178
:100F0800000F00F0AC80ABF12005EBB25E2B00F2D5
:100F18002E81D8F80030019ADB68934240F02A818C
:100F28008020B8F8043023449842C0F22081D8F8D1
:100F38000030039A9B68934240F01F814020B8F824
:100F48000610049A02918B189842C0F21081002A68
:100F580000F01E8102FB05F56FF0004E079BAE44C2
:100F68001544CDF814B003EB4E0E023BB8F804A0BC
:100F780003EB45030D469B463EF8027FA4B305F0FC
:100F880007034FF0010CEA0851460CFA03FC0AF17A
:100F980010034FFA8CFC03EBC21200236FEA0C0912
:100FA80042440DE07F2906D83F2D04D8107896B129
:100FB8004CEA000010700133013201319C4213D019
:100FC80007FA03F00004EDD47F29F4D83F2DF2D8B6
:100FD8001078002EECD0013309EA0000013201310B
:100FE8009C4202F8010CEBD1F34505F10105C3D190
:100FF800DDF814B0D8F800200AEB04050199D3688D
:10100800ADB28B4240F0BF808020854205D3D368C3
:1010180001998B4240F0C5807F259368039AA8F810
:101028000450934240F0AC804020029B834208D396
:10103800D8F80030039A9B68934240F0AC803F2375
:101048000293029BA8F80630009A13785B4506D1F4
:1010580012F801BF0092BBF1000F7FF454AF06985D
:1010680009B0BDE8F08FB4F9041027880029B8BF8B
:10107800013107EB6107B4F90610A7EB63070029F4
:10108800BFB2BFF601AF0131FEE6B4F900700699B0
:10109800B4F902400F80BFB24C80A4B28B80CA80E2
:1010A800FEE6B4F9041027880029B4F90240B8BF55
:1010B800013107EB610706998B80A7EB63034C802E
:1010C800A4B29FB2CA800F80EAE6A1882788B4F943
:1010D80002400F4406998B80FB1A4C80A4B29FB241
:1010E800CA800F80DCE6E78861883944B4F900706B
:1010F800081A069984B20F808B80BFB2CA804C80D0
:10110800CEE6B4F9041027880029B8BF013107EBEF
:101118006107A7EB6307B4F802C0BFB2E488069979
:1011280064448B80201ACA800F8084B24C80B7E652
:101138002788A1880F44FF1AEDE700BFB50900080A
:10114800B1090008B4F90610B4F802C00029B4F9CE
:1011580000700698B8BF0131C2800CEB61040780AB
:101168008380BFB2A4EB520294B2448098E64FF059
:10117800000B69E740469847D3E640469847DEE6C5
:101188004046984751E740469847D8F800203CE742
:10119800B8F804A02EE740469847013883B2029376
:1011A8004FE7404698470138D8F8002085B234E721
:1011B800D8F800300024069A12491480548094808C
:1011C800D480DA6801918A4205D027464046904784
:1011D800D8F800306EE69B680B4AA8F804409342A2
:1011E80003923FF482AE4046984774E640469847DB
:1011F800013884B279E6404690470138D8F8003083
:1012080087B25FE6B5090008B10900087F291ED832
:101218003F2A1CD86BB1D3084FF0010C02F007022B
:1012280001EBC3130CFA02F2C1180B7C1A430A74BF
:101238007047D3084FF0010C02F0070201EBC3130B
:101248000CFA02FCC1180A7C22EA0C020A747047E4
:101258002DE9F04F83B05C1A0C9E002C9DF8349059
:10126800A6EB0208B8BF6442B8F1000FB8BFC8F1D6
:1012780000088B428CBF4FF0010A4FF0FF3A9642AC
:10128800A4EB080C51D84FF0FF357F2B019512D8ED
:101298003F2E10D8F50806F0070E012703EBC515F9
:1012A8000544B9F1000F47D007FA0EF795F810E09A
:1012B80047EA0E072F74964201D18B4229D0C8F114
:1012C80000077F2914D83F2A12D8D50802F0070B47
:1012D8004FF0010E01EBC5150544B9F1000F1BD005
:1012E8000EFA0BFE95F810B04EEA0B0E85F810E0DA
:1012F800B7EB4C0F4FEA4C0502DAACEB080C514443
:10130800AC4202DD019DA4442A449942D9D19642B7
:10131800D7D103B0BDE8F08F0EFA0BFB95F810E0BB
:101328002EEA0B0E85F810E0E2E701257F2B0195E8
:10133800C5D83F2EAED9C2E707FA0EFE2F7C9642DB
:1013480027EA0E072F74B8D0B9E700BF00000000E5
:101358002DE9F04F2DED068B83B01F4680460D46D4
:101368009DF8503016460193139B002BC0F2218242
:10137800129A134406EE103ADDED127AB8EEC66BF7
:101388009FEDCD4BB8EEE77B9FEDCD5B27EE047B61
:1013980026EE046B87EE050B86EE05ABF7EEC08BE9
:1013A800B0EE680A11F064FB07EE907AB7EECAABAC
:1013B800F8EE679AB0EE408AB0EE680A11F054FC75
:1013C80060EE698AB0EE4A0A11F052FBB0EE409A1C
:1013D800B0EE4A0A11F048FC20EE690A29EE888A24
:1013E80029EE899A70EE687AF0EE006A39EE487A4A
:1013F80067EEA77AE7EE077AF4EEE67AF1EE10FAEE
:1014080006D5139BB42B40F396804FF0010901E0F9
:101418004FF00009012478424FF0000C0095E31BBF
:10142800214627462246A340B9F1000F6AD142421D
:1014380006EE90CACCF1000107EE102AB8EEE66A73
:1014480007EE901A06EE900AB8EEC77A139A66EE7F
:10145800084AF8EEE77AB42A27EE284AF8EEE66A50
:1014680067EE885A74EEC43A26EEA85A26EE096A40
:1014780066EE806A67EE897A27EE007AF5EEC03A62
:1014880040F3F280F1EE10FA00F17F8176EE473AF0
:1014980074EEC54AF5EEC03AF1EE10FAF5EEC04A20
:1014A800CCBF01220022F1EE10FA00F1778136EE6E
:1014B800666A35EEC55AB5EEC06AF1EE10FAB5EEB9
:1014C800C05ACCBF01210021F1EE10FA00F16F8162
:1014D80077EEE66AF5EEC06AF1EE10FACCBF0127A6
:1014E800002775EEC45AF5EEC05AF1EE10FA00F175
:1014F800478177EEC77AF5EEC07AF1EE10FACCBFE5
:1015080001240024002A40F08A80002964D1BFB950
:10151800C4BB9C4558DB0CF1010C03EB4C0E1CEBD7
:10152800000F0EF1010E00F0C08098424FDB7346A9
:1015380000287FF779AF03B0BDEC068BBDE8F08FCC
:10154800009DA6EB0C0E00EB050ABAF17F0FDFD861
:10155800BEF13F0FDCD84FEADE0B019D0AEBCB1A38
:10156800002D00F0B1800EF0070BC2444FF0010EC1
:101578000EFA0BFE9AF810B04EEA0B0E8AF810E03D
:10158800002CC6D0009DA6EB0C0EA5EB000ABAF104
:101598007F0FBED8BEF13F0FBBD84FEADE0B019DCF
:1015A8000AEBCB1A002D00F0AE800EF0070BC244F8
:1015B8004FF0010E9C450EFA0BFE9AF810B04EEA59
:1015C8000B0E8AF810E0A6DA98429E46AFDA013090
:1015D8000EEB40030133ABE7009D0CEB060E00EB6E
:1015E800050ABAF17F0F92D8BEF13F0F8FD84FEAA4
:1015F800DE0B019D0AEBCB1A002D73D00EF0070B02
:10160800C2444FF0010E0EFA0BFE9AF810B04EEAE3
:101618000B0E8AF810E0002F3FF47AAF90E7009D98
:101628000CEB060EA5EB000ABAF17F0F3FF66DAF83
:10163800BEF13F0F3FF669AF4FEADE0B019D0AEBA3
:10164800CB1A002D6DD00EF0070BC2444FF0010EDF
:101658000EFA0BFE9AF810B04EEA0B0E8AF810E05C
:1016680000293FF454AFB7E7F1EE10FA7ED44A46AA
:1016780074EEC54AF5EEC04AF1EE10FA6CD40021BA
:1016880035EEC55AB5EEC05AF1EE10FA5AD4002715
:1016980075EEC45AF5EEC05AF1EE10FA3FF529AFCF
:1016A8000024002A3FF431AFB9E798428FDB0023CA
:1016B8003BE700BFAFF300807A008BFCFA210940BA
:1016C8000000000000806640C2444FF0010B0EF09D
:1016D800070E0BFA0EFE9AF810B02BEA0E0E8AF8D7
:1016E80010E015E7C2444FF0010B0EF0070E0BFA9D
:1016F8000EFE9AF810B02BEA0E0E8AF810E0002FB2
:101708003FF406AF1CE7C2444FF0010B0EF0070E82
:101718000BFA0EFE9AF810B02BEA0E0E8AF810E0BB
:10172800F7E6C2444FF0010B0EF0070E0BFA0EFE5F
:101738009AF810B02BEA0E0E8AF810E000293FF450
:10174800E6AE49E777EEE66AF5EEC06AF1EE10FA22
:10175800CCBF012700279BE736EE666AB5EEC06A64
:10176800F1EE10FACCBF0121002189E776EE473A65
:10177800F5EEC03AF1EE10FACCBF0122002277E76D
:101788000124002A3FF4C1AE49E774EEC54A01229C
:10179800F5EEC04AF1EE10FA7FF589AE35EEC55A7E
:1017A8000121B5EEC05AF1EE10FA7FF591AE01278E
:1017B80097E6DDE91223134406EE102A1293139BD1
:1017C8005B421393D8E500BF2DE9F04F87B09DF831
:1017D8004850109C2E4601959DF844509EB399425E
:1017E8002ED89946A24228D87F29164694BF0023AE
:1017F800012308E09CF810804EEA080E8CF810E0EF
:101808000136B44219D33F2EFAD8002BF8D14FEA4B
:10181800D60C06F0070E4FF0010801EBCC1C08FAB5
:101828000EFE8444002DE5D19CF810B001362BEA59
:101838000E0AB4428CF810A0E5D201318945D1D204
:1018480007B0BDE8F08FA3EB0108B8F1000FB8BFEF
:10185800C8F100089942C0F04E817F2B4FF0FF3A43
:1018680094BF002601263F2A009694BF002701272F
:101878000297A6B99FB9D60802F0070C012703EB17
:10188800C6160644002D00F0948107FA0CF796F866
:1018980010C047EA0C073774002602960096994252
:1018A80000F09781464694468E46BEF17F0F16D8C3
:1018B800BCF13F0F13D84FEADC070CF0070B4FF0D1
:1018C80001090EEBC7170744002D00F0398109FA0A
:1018D8000BF997F810B049EA0B0987F810907700D0
:1018E80018BFD644B84502DD46440CF1FF3C7345A9
:1018F800DBD16245D9D100260496A4EB0209009FEA
:10190800B9F1000FB8BFC9F100093F2C94BF0026F8
:101918000126A242C9F100080396C0F02381002FD6
:1019280040F05081002E40F04D814FF0FF36009678
:10193800E60803EBC6160644002D00F01E814FF0A2
:10194800010C04F007070CFA07F796F810C047EAED
:101958000C07377400260396A24200F03D81C44666
:1019680016461F4605927F2F15D83F2E13D84FEAEB
:10197800D60E06F0070B4FF0010A07EBCE1E864481
:10198800002D00F0E6800AFA0BFA9EF810B04AEA39
:101998000B0A8EF810A0B8EB4C0F4FEA4C0E02DA87
:1019A800ACEB090C013FBEF1000F01D0009A1644C0
:1019B800BB42D8D1B442D6D1059AA1EB030EBEF1F1
:1019C800000FB8BFCEF1000E7F2994BF4FF0000A78
:1019D8004FF0010A99428CBF4FF001094FF0FF39CF
:1019E800BAF1000F13D1039E8EB9E60801EBC616B3
:1019F8000644002D00F0D3804FF0010C04F00707D7
:101A08000CFA07F796F810C047EA0C073774049EDB
:101A180026BB774626467F2B14D83F2E12D84FEA8E
:101A2800D60C06F0070B4FF0010803EBCC1C8444DE
:101A3800002D73D008FA0BF89CF810B048EA0B0890
:101A48008CF810805FEA470C18BF4B44E64501DD6F
:101A58007744013E9942DED1B442DCD1A2EB040EB8
:101A6800BEF1000FB8BFCEF1000EA2428CBF4FF0FE
:101A780001084FF0FF38CEF1000CBAF1000F0ED17B
:101A8800029B63B9D30802F00707012601EBC313D1
:101A98000344002D7CD0BE401F7C3E431E74019B36
:101AA800002B7FF4CDAE66460B467F2B12D83F2C19
:101AB80010D8E70804F0070A4FF0010903EBC7172D
:101AC8000744A5B309FA0AF997F810A049EA0A09E0
:101AD80087F81090BCEB460F4FEA460702DAA6EBF0
:101AE8000E06013B07B144449942DED1A242DCD143
:101AF80007B0BDE8F08F3F2A4FF0010A94BF0026D7
:101B080001267F2B029694BF002701270097002EFD
:101B18007FF4C8AE002F3FF4AEAEC3E608FA0BFB65
:101B28009CF8108028EA0B088CF810808AE709FADC
:101B38000AFA97F8109029EA0A0987F81090C9E775
:101B480009FA0BFB97F8109029EA0B0987F810900F
:101B5800C5E60AFA0BFB9EF810A02AEA0B0A8EF8D3
:101B680010A018E797BB8EBB01260096E60803EB8A
:101B7800C6160644002D7FF4E2AE012704F0070CD8
:101B8800039507FA0CFC377C27EA0C073774E3E661
:101B980006FA07F71E7C26EA07061E747FE7012768
:101BA80004F0070C07FA0CFC377C27EA0C0737749B
:101BB8002DE707FA0CFC377C029527EA0C070095FD
:101BC80037746CE64FF0FF360096C5E6012600969E
:101BD800C5E60126049690E601260196EDE600BFCB
:101BE80084B070B584B004464FF47A7609AD85E8C0
:101BF8000E009DF8383029460025037102F082F95D
:101C0800AE2303AA00968DF80D30204621790223D1
:101C18008DF80C5002F00EFAD52303AA0096204640
:101C280021798DF80D3002238DF80C5002F002FA5C
:101C3800802303AA0096204621798DF80D300223CF
:101C48008DF80C5002F0F6F9A82303AA0096204656
:101C580021798DF80D3002238DF80C5002F0EAF945
:101C68003F2303AA0096204621798DF80D300223E0
:101C78008DF80C5002F0DEF9DA2303AA009620460C
:101C880021798DF80D3002238DF80C5002F0D2F92D
:101C9800122303AA0096204621798DF80D300223DD
:101CA8008DF80C5002F0C6F9D32303AA00962046FB
:101CB80021798DF80D3002238DF80C5002F0BAF915
:101CC80003AA00960223217920468DF80C508DF83E
:101CD8000D5002F0AFF9402303AA0096204621795F
:101CE8008DF80D3002238DF80C5002F0A3F9A623CD
:101CF80003AA0096204621798DF80D3002238DF82D
:101D08000C5002F097F9A42303AA009620462179E3
:101D18008DF80D3002238DF80C5002F08BF98D23CD
:101D280003AA0096204621798DF80D3002238DF8FC
:101D38000C5002F07FF9142303AA0096204621795B
:101D48008DF80D3002238DF80C5002F073F9A123A1
:101D580003AA0096204621798DF80D3002238DF8CC
:101D68000C5002F067F9C82303AA0096204621798F
:101D78008DF80D3002238DF80C5002F05BF98123A9
:101D880003AA0096204621798DF80D3002238DF89C
:101D98000C5002F04FF98F2303AA009620462179B0
:101DA8008DF80D3002238DF80C5002F043F9D92339
:101DB80003AA0096204621798DF80D3002238DF86C
:101DC8000C5002F037F9252303AA00962046217902
:101DD8008DF80D3002238DF80C5002F02BF9DB231F
:101DE80003AA0096204621798DF80D3002238DF83C
:101DF8000C5002F01FF9342303AA009620462179DB
:101E08008DF80D3002238DF80C5002F013F9AF2134
:101E1800009603AA02238DF80D10204621798DF82B
:101E28000C5002F007F904B0BDE8704004B07047E8
:101E380030B500218BB03648002400F0B5FB1021E6
:101E48003348344D00F0D6FA33484FF07C533349C9
:101E580000229FED330A286128466961AA616B60F8
:101E6800EB6085ED020A10F0F3FDF0EE407A40F2E7
:101E780001139FED2C0A28462C70C5ED077A2B8597
:101E880085ED020A10F0E4FD3C23102226498DF866
:101E98002430264B8DF8202002226B600AAB079471
:101EA8000591069204944FF4DC7485ED070A13E952
:101EB800070004AB8DE807001D480ECBFFF790FE26
:101EC8004FF496711B4800F0F7F90121194800F00A
:101ED800A7F819490E4800F089FA631C174A4FF40D
:101EE800DC710C4882FB0342DC17C4EB221401FBB3
:101EF8001434631800EE103AB8EEC00A85ED020AF1
:101F080010F0A6FD0B4885ED070A00F007FAE4E794
:101F1800601000240404002400803B473EC3AE3711
:101F28000000C8420000DC4301080109CDCC4C3D4B
:101F38003804002440080024C909000895204F09E6
:101F480038B5194800244FF60B736FF0F411174A8F
:101F580083654461046244660467154DC0E90A3428
:101F6800C0E90F34C0E90041C0E90211C0E90C44DE
:101F78001049C0E91144C0E9174410F06FFD0B4A3D
:101F88000D490E4810F06AFD0D4B084A28460D49C8
:101F9800AC602B6010F062FD294601220A48BDE8BA
:101FA800384000F013B800BF60100024000000247F
:101FB80030040024A5090008A90900080404002425
:101FC80028300108AD0900084008002480232DE9C5
:101FD800F0414FF000080125C0F8083804460F4BBF
:101FE8000E4617464146C0F814384FF48062C0F8D0
:101FF8000C880830C0F81058C0F8145810F088FF42
:102008004FF48062414604F5816010F081FF20465C
:1020180084F8107826602571BDE8F0815C300108ED
:1020280038B504460068094A0D4603681B6993429F
:1020380007D14FF480620021103010F069FF25713C
:1020480038BD00219847257138BD00BFB90900087F
:10205800D0F80C28531C00EB8202594282ED020A88
:10206800DBB2CAB258BF5342C0F80C38704700BF41
:1020780090F8103813B91F4B18687047D0F80C380F
:10208800D0F80828013300B503EB020E73452DDAAA
:102098005942DAB2C9B258BF4A4200EB8202D2EDC5
:1020A800027A01E0734521D09C460133B0EE677A8D
:1020B8005942DAB2B5EEC07AC9B258BF4A42F1EE17
:1020C80010FA00EB8202D2ED027AEBD5F5EEC07A77
:1020D800F1EE10FAE6DBDCF100035FFA8CF0054A5A
:1020E800DBB258BF584210605DF804FB014B18681A
:1020F8005DF804FBD41000242DE9F04F046887B084
:10210800064623682046DB689847002840F0CB80C5
:1021180023682046DB689847013883B22268204646
:10212800A38093689847202800F2BB802368204644
:102138009B689847013883B23068E38003685C4A3B
:102148001B69934240F0B1804FF480620021103047
:1021580010F0DEFE3046FFF78BFFD6F80838059002
:10216800002B7CDDC3B282460127B0460493DAF126
:1021780000040AF1010A049A07F1FF31E4B2D8F821
:102188001838D8F800005FFA8AF658BF6242DAF1C8
:10219800000407EE903A0368E4B204969D6908EBE0
:1021A8008202334658BF6342F8EEE77A92ED027A2C
:1021B80008EB830327EE877AD3ED026A3D4B67EE7F
:1021C800A67ABDEEC77A9D42FDEEE77A17EE102A91
:1021D80017EE906AC2F12002C6F1200682F30602C9
:1021E80086F30606144656D1A6EB0209B9F1000F8C
:1021F800B8BFC9F10009B242C9F1010536D20123BD
:102208007F2F039337D9C9F1000E4FF0010CE30873
:1022180004F007027F2901EBC31305FA0CFB0CFA43
:1022280002F207D83F2C034404D893F810C042EABE
:102238000C021A74BEEB450F14DABBF1000FA5EBC4
:10224800090501F101010DDDB942DED1A642DCD15B
:10225800D8F808380137059A1344534587DC07B086
:10226800BDE8F08F039B01351C44EDE74FF0FF33C9
:102278007F2F0393C7D8F3084FF0010C06F007022D
:1022880007EBC3130CFA02F2034493F810C042EAB6
:102298000C021A74B7E70123009601933B46A8473E
:1022A800D6E7202348E7002338E70021984751E77D
:1022B800B909000859120008C0F81818704700BF7B
:1022C80030B5046883B0054623682046DB68984724
:1022D800F0B923682046DB689847013883B2226842
:1022E8002046A38093689847A0B9236820469B6836
:1022F8009847013883B22868074AE38001230468B5
:10230800D5F814180093A46A0CCAA04703B030BDCE
:102318000023E4E70023EEE75400002403792DE9C5
:10232800F047044684B0002B55D0012B01D1FFF7AC
:10233800E3FE26682C4A33681B6B93424ED106F1A4
:10234800080806F18F0706F28F4A4FF0B0090024FB
:102358004FF47A75022303AA8DF80C4040468DF895
:102368000D90317B009501F065FE8DF80C408DF8DD
:102378000D400223317B03AA4046009501F05AFE26
:1023880010238DF80C4003AA8DF80D304046317BA0
:1023980002230095A7F1800401F04CFE40214FF480
:1023A8007A75022303AA8DF80C10404614F8011F11
:1023B8008DF80D10317B009501F03CFEBC42EDD14B
:1023C80004F1800709F10109BA455FFA89F9BED11C
:1023D80004B0BDE8F087FFF773FFAAE7304604B002
:1023E800BDE8F047184700BF190A0008143001F08B
:1023F80005BA00BF38B500F1140504462DED028B6F
:10240800284601F0E9F9284601F0F4F92846B0EE2B
:10241800408A01F0DDF9D0ED007AF8EE677A88EEAF
:10242800277ABDEC028B84ED1B7A38BD10B540F2DB
:1024380003338EB000244FF60B7240F20341ADF81F
:10244800083009A80123ADF81020ADF82420224651
:10245800ADF80C100094029907940C94CDE905444A
:10246800CDE90A4401F0D8FA04A8012322460399C9
:10247800009401F0D1FA09A801F0B4FB10B90120C9
:102488000EB010BD04A801F0ADFBA0420CBF0220A5
:1024980020460EB010BD00BF2DE9F04103239AB0CD
:1024A8004FF0010800254FF60B740746CDE91438A4
:1024B800394BADF84C40CDE91053A3F19F63A3F518
:1024C8007D43CDE916581293FFF7B0FF4045064605
:1024D80023D0022842D040F60132304B07F1580091
:1024E8000BACADF82C200B991895CDF86480CDF87D
:1024F8004A3000F0DBF810A907F1700002F0E4FAA6
:10250800274B0FCB84E80F003A6F214607F11400E0
:1025180001F026F91AB0BDE8F08110231F4A06A978
:1025280006908DF828300BAC1E4BCDF84A20079347
:102538000295CDE91805CDE9080502A801F0E2FCED
:102548000823029A03A92046ADF80C608DF80E50B6
:10255800049605930B9500F0E9F8CCE740F60133B3
:10256800ADF82C4000200BACADF8183001210B4B16
:1025780042460095CDF84A302B460E95CDE9180114
:1025880006992046CDE90C5501F046FA2946204621
:1025980001F034FBAFE700BF04020404040604039F
:1025A800DC2F01080704010B2DE9F04704462DED47
:1025B800028B82B0002949D0012140F20112002388
:1025C8000091ADF804208DF80630354A0127354BC7
:1025D80004F10409344904F13C08626040F20272D3
:1025E800A36040F60663E16004F1280A2285A38708
:1025F8002782E762276402F041FE054602F094FC58
:102608006946064650BB4DB304F150008DF806707C
:1026180002F0B6FD072D3ED104F114052046FFF760
:102628003BFF284601F0E6F82846B0EE408A01F064
:10263800CFF8D0ED007AF8EE677A88EE277A84ED45
:102648001B7A02B0BDEC028BBDE8F08740F20113A3
:1026580000918DF80610ADF80430B6E704F150008B
:1026680002F08EFD072D13D04946204601F0A0FE4A
:102678000EB9002DD0D15146504601F0E7F840463A
:10268800414601F0E3F804F1120000F079F9C3E7DC
:10269800002EF0D1C0E74946204601F089FEBBE78D
:1026A8000508050905070506050A060630B585B0BB
:1026B800002504460122ADF80C102B46039900951D
:1026C80001F0AAF90121204601F098FA012002F050
:1026D80029FC2946204601F091FA012002F022FC4B
:1026E8000121204605B0BDE8304001F087BA00BF9F
:1026F80010B5C2F3002384B00C46017C8DF80D2080
:1027080043EA4402FA2402238DF80C2003AA009419
:1027180001F090FC18B10124204604B010BD044615
:102728000A2002F0FFFB204604B010BD034670B536
:1027380043F8042B044684B007C983E80700A3794B
:1027480083B91A210B461E22FA2523742046ADF8B8
:102758000C20022303AA009501F06CFC28B101208B
:1027680004B070BD1B210B46EDE70A2002F0DAFB2E
:102778004FF4B85200950223ADF80C20204603AA66
:10278800217C01F057FC0028E9D10A2002F0CAFB9D
:1027980041F2027200950223ADF80C20204603AAEC
:1027A800217C01F047FC0028D9D10A2002F0BAFBAD
:1027B800042200950223ADF80C20204603AA217CB0
:1027C80001F038FC0028CAD10A2002F0ABFB06222F
:1027D80000950223ADF80C20204603AA217C01F0C5
:1027E80029FC0028BBD10A2002F09CFB41F20822F8
:1027F80000950223ADF80C20204603AA217C01F0A5
:1028080019FC0028ABD10A20064602F08BFB009584
:10281800022303AA217C2046ADF80C6001F00AFCD3
:1028280000289CD1304602F07DFB009522790C23CC
:102838002046002A8DF80C3003AA4FF0020314BF7B
:10284800622142218DF80D10217C01F0F3FB002854
:1028580085D1304602F066FB2279D4E902310B4378
:10286800DBB20AB943F0400362790AB143F02003AE
:102878000E22FA258DF80D302046009502238DF89A
:102888000C2003AA217C01F0D5FB00287FF467AF58
:102898000A2002F047FB102200950223ADF80C2015
:1028A800204603AA217C01F0C5FB00287FF457AF1E
:1028B8000A2002F037FB122100950223ADF80C1014
:1028C80003AA217C204601F0B5FB00287FF447AF1E
:1028D8000A2002F027FB012209212046FFF708FF02
:1028E800003818BF01203BE7F0B5102387B0234C10
:1028F800012200250126002702A920460195CDE9DD
:1029080002234FF48052CDE9046709F0DBFE64200E
:1029180002F0A2FE02A94FF480522046CDE90467D6
:1029280002261027CDE9026709F0CCFE0322102306
:1029380002A92046CDE9022300230422CDE904237D
:102948004FF4805209F0BEFE40F23223042202A95D
:10295800019310232046CDE90223019A0123059211
:102968004FF48052049309F0ADFE40F6060120466C
:1029780009F0C8FE284607B0F0BD00BFE0100024EB
:102988001C4B00221C494FF0400C30B5054689B05D
:102998000220596007219A601A620124DA620A2229
:1029A8004FF4006EDC6006922022CDE9000104207D
:1029B8000821CDE9020103201021CDE904010820F6
:1029C8006946C3E904024FF4C072181DC3E906C280
:1029D8004FF48052C3E909E209F04AFE38B92846A3
:1029E800FFF782FF003818BF012009B030BD20462C
:1029F80009B030BDDC10002440410052614A00217A
:102A0800D0B513688EB00A91002B40F0B9805E4BA8
:102A180001214FF683700C2411600221D3F8D420D1
:102A28000026032742F48052C3F8D420D3F8D420D8
:102A380002F480520092009AD3F8E02042F010028B
:102A4800C3F8E020D3F8E02002F010020192019AC6
:102A5800D3F8E02042F04002C3F8E020D3F8E020A9
:102A680002F040020292029AD3F8E02042F00802F3
:102A7800C3F8E020D3F8E02002F008020392039A9A
:102A8800D3F8E02042F48072C3F8E020D3F8E020C5
:102A980002F480720492049AD3F8E02042F0800293
:102AA800C3F8E020D3F8E02002F080020592059AEE
:102AB800D3F8E02042F02002C3F8E020D3F8E02069
:102AC80002F020020692069AD3F8E02042F00402AF
:102AD800C3F8E020D3F8E0300C9403F00403079324
:102AE8000323079A0B93CDE9080108A9274804F0A6
:102AF80033F948F23712022308A925480C94CDE986
:102B08000823CDE90A6704F027F94CF2037202237F
:102B180008A920480C94CDE90823CDE90A6704F0F8
:102B28001BF940F2FF62022308A91B480C94CDE967
:102B38000823CDE90A6704F00FF94FF60C72022357
:102B480008A916480C94CDE90823CDE90A6704F0D2
:102B580003F94FF63F02022308A911480C94CDE966
:102B68000823CDE90A6704F0F7F82022022308A910
:102B78000A480C94CDE90A67CDE9082304F0ECF87B
:102B88000EB0D0BDD81000240044025800100258DE
:102B980000180258000C025800200258001C025865
:102BA800001402582DE9F04FDFF8108406460D4650
:102BB800144608F118002DED028B89B000AF02F021
:102BC8007BF8D8F8183073B3D8F81C30D8F80490CC
:102BD800002B43690BBF4FF0080A4FF0100A4FF063
:102BE800020B4FF0040BB9F1000F2AD0A200EA46FD
:102BF800012B02F1070222F00702ADEB020D684635
:102C0800ADEB020D694600F03F81022B00F0D68043
:102C1800002B6FD02246C847D5462437BD46BDECA9
:102C2800028BBDE8F08FD8F81C30002BF5D0D8F80F
:102C380004904FF0080A4FF0020B4369B9F1000FF6
:102C4800D4D1FB61D8F80030BB61002BE5D0D54862
:102C580002F0A4F86B46BBF1020F786108EE103A57
:102C6800FB6900F083816A465146A2EBC40295468F
:102C78006200EA46B2FBFBF2AAEBC40085460AEB07
:102C88008200EE46F861ADEB010DF8690EEB820C9F
:102C9800C7F810C0EC46ADEB010D00EB8201CCF893
:102CA8000400CCF8081001EB82013869E946CCF839
:102CB8000C1000EB8201CCF800A001EB8202C9E9FC
:102CC80000E0C9E90212012B00F06483022B00F036
:102CD8006C82002B00F08081620849466046BB691F
:102CE800984718EE103A24379D46BD46BDEC028B36
:102CF800BDE8F08F002C8DD01A46D8ED0C6A9FEDF8
:102D0800B27A8446331D36F922E00CF1080C07EE3E
:102D180090EA33F922E00232F8EEE77A944267EE5D
:102D2800877A67EEA67A4CED027A07EE90EAF8EE1B
:102D3800E77A67EE877A67EEA67A4CED017AE2D8F1
:102D4800F9612246C847984ED8ED0D6A0020F96906
:102D58002B1D9FED9E7A9FED9E6ADFED9E5A22E025
:102D6800F4EEC67AF1EE10FAC0F2C88447F6FE72A5
:102D7800D1ED017A45F8202066EEA77AF4EEC77AFD
:102D8800F1EE10FA40F2F080F4EEC67AF1EE10FAA5
:102D9800C0F2D58447F6FE7243F82020023008318D
:102DA80084427FF639AFD1ED007A66EEA77AF4EE69
:102DB800C77AF1EE10FAD3D83246D9E7002C3FF49F
:102DC80029AFD8ED0C6A84469FED787A0022331D2E
:102DD8008E4656F822100CF1080C07EE901A53F89C
:102DE80022100232F8EEE77A944267EE877A67EEAD
:102DF800A67A4CED027A07EE901AF8EEE77A67EEBB
:102E0800877A67EEA67A4CED017AE2D871462246B7
:102E1800C7F81CE0C847664ED8ED0D6A0020F9696E
:102E28002B1D9FED6A7A9FED6A6ADFF894C120E056
:102E3800F4EEC67AF1EE10FAC0F279843246D1ED9A
:102E4800017A45F8202066EEA77AF4EEC77AF1EE0B
:102E580010FA40F28780F4EEC67AF1EE10FAC0F26A
:102E68005E84324643F820200230083184427FF6DF
:102E7800D3AED1ED007A66EEA77AF4EEC77AF1EE1A
:102E880010FAD5D86246DAE7002C3FF4C3AED8ED85
:102E98000C6A86469FED477A4FF0000C331D56F8B2
:102EA8002C200EF1080E82F40002A2F5000207EEB3
:102EB800902A53F82C200CF1020CF8EEE77A82F4F1
:102EC80000026445A2F5000267EE877A67EEA67AEB
:102ED8004EED027A07EE902AF8EEE77A67EE877AE7
:102EE80067EEA67A4EED017AD9D8F9612246C8472D
:102EF800314ED8ED0D6A0020F9692B1D9FED337A0C
:102F08009FED336ADFF8BCC01FE0F4EEC67AF1EE3D
:102F180010FAC0F2FC833246D1ED017A45F8202040
:102F280066EEA77AF4EEC77AF1EE10FA18D9F4EE45
:102F3800C67AF1EE10FAC0F2DA83324643F820205E
:102F48000230083184427FF667AED1ED007A66EE32
:102F5800A77AF4EEC77AF1EE10FAD6D86246DBE724
:102F68006246EBE762467DE7324615E7A100D646A2
:102F78006208073121F00701ADEB010DEA46ADEB20
:102F8800010D6946ADEB0E0D0AEB8200EC46ADEB88
:102F98000E0D01EB8202F861E946CCE900A0C9E90F
:102FA800001290E6301100240280FFFF000000307C
:102FB8000082FF7F0000003482FF7F00141100248C
:102FC800007E00807E0080FF0000003804FF7FBF85
:102FD80004FF7F3F00FEFF46002C00F0C982BBF1D2
:102FE800020FD8F8242000F0FA827969C7F8049013
:102FF80002EB810E5FED0C5A8A00DCF808100EF126
:1030080004007A611A46DCF80C303B61331DD7F8AE
:1030180010903D61FD69C7E902CB8C46834636F9BD
:103028002210D8ED0C7A06EE101A33F9221006EEAB
:10303800901A3EF92210B8EEC66A07EE101AF8EE9A
:10304800E66A3BF92210B8EEC77A26EE256A66EEE4
:10305800A56A27EE257A26EE276A66EEA76A27EE86
:10306800277A07EE901A51080232F8EEE77A0AEB4F
:103078008100944280ED006A05EB810067EEA57A35
:10308800C0ED006A0CEB810009EB810180ED007A4C
:1030980098ED0C7A67EE877AC1ED007ABFD8D7F839
:1030A80004903D69D7E902CB60466208BB6949468E
:1030B8009847D8F82C307A69D8ED0D6A1A441FED74
:1030C8003D7A1FED3D6A2B1D904602F1040A5FED23
:1030D8003F5A0022A84ED9E900EC51E0F4EEC67A36
:1030E800F1EE10FAC0F2C78247F6FE7045F82200EA
:1030F8000CEB0100D0ED007A66EEA77AF4EEC77A01
:10310800F1EE10FA4BD9F4EEC67AF1EE10FAC0F2ED
:10311800BA8247F6FE70BBF1020F43F822002BD0AB
:10312800D9F808000844D0ED007A66EEA77AF4EEE4
:10313800C77AF1EE10FA36D9F4EEC67AF1EE10FA43
:10314800C0F2CD8247F6FE7048F82200D9F80C008C
:103158000144D1ED007A66EEA77AF4EEC77AF1EE73
:1031680010FA1ED9F4EEC67AF1EE10FAC0F2AF8268
:1031780047F6FE714AF82210023294427FF6B1AD4A
:1031880051080EEB81008900D0ED007A66EEA77A2F
:10319800F4EEC77AF1EE10FAA0D83046A6E730462A
:1031A800B9E73146E6E73046CEE7002C00F0E0818B
:1031B800BBF1020FD8F8243000F0E1817A69DCF81D
:1031C800081003EB820EC7F804909300DFED6B5AEA
:1031D8000EF1040000227B61DCF80C303B61331DEA
:1031E800D7F810903D61FD69C7E902CB8C4683464C
:1031F80056F82210D8ED0C7A07EE101A53F8221060
:10320800B8EEC76A07EE101A5EF82210F8EEC76A21
:1032180007EE101A26EE256A5BF82210B8EEC77A78
:1032280066EEA56A26EE276A27EE257A66EEA76A75
:1032380027EE277A07EE901A51080232F8EEE77A5D
:103248000AEB8100944280ED006A05EB810067EE8D
:10325800A57AC0ED006A0CEB810009EB810180EDD5
:10326800007A98ED0C7A67EE877AC1ED007ABFD8BC
:10327800D7F804903D69D7E902CB60466208BB697C
:1032880049469847D8F82C307A69D8ED0D6A1A441F
:103298009FED3E7A9FED3E6A131D9246DFF8E4C02B
:1032A8000022FB612B1D364ED9E9008E4EE0F4EE6C
:1032B800C67AF1EE10FAC0F2FC81304645F82200D9
:1032C8000EEB0100D0ED007A66EEA77AF4EEC77A2D
:1032D800F1EE10FA49D9F4EEC67AF1EE10FAC0F21E
:1032E800EF813046BBF1020F43F822002AD0D9F80B
:1032F80008000844D0ED007A66EEA77AF4EEC77AA3
:10330800F1EE10FA35D9F4EEC67AF1EE10FAC0F201
:10331800C98130464AF82200D9F80C000144D1EDA1
:10332800007A66EEA77AF4EEC77AF1EE10FA1ED9A3
:10333800F4EEC67AF1EE10FAC0F2AD813146F869C2
:1033480040F82210023294427FF6CBAC510808EBC9
:1033580081008900D0ED007A66EEA77AF4EEC77A8C
:10336800F1EE10FAA3D86046A8E76046BAE76146CE
:10337800E5E76046CEE700BF0280FFFF00000030AF
:103388000082FF7F007E00800000003404FF7FBFC2
:1033980004FF7F3F002C00F0EB807A690021D8F809
:1033A8002430C7F8109003EB820ED7F81C909300D6
:1033B800FD610EF104021FED0C6A7B61331D154699
:1033C80056F821204808D8ED0C6ABBF1020F82F4A8
:1033D8000002A2F5000207EE902A53F8212082F499
:1033E8000002B8EEE77AA2F5000227EE067A07EEA9
:1033F800902A0AEB8002F8EEE77A27EE267A67EE43
:10340800867A82ED007A09EB80024FEA800067EE47
:10341800A67AC2ED007A27D05EF8212082F4000255
:10342800A2F5000207EE902A55F8212082F4000246
:10343800B8EEE77AA2F5000227EE067A07EE902AA0
:10344800DCF80820F8EEE77A024427EE267A67EEE1
:10345800867A82ED007A98ED0C7ADCF80C2067EE1B
:10346800877A0244C2ED007A02318C42A8D8D7F894
:10347800109060466208BB694946FD699847D8F8CC
:103488002C307A69D8ED0D6A1A441FED407A1FED89
:10349800406A131D9246DFF8C4C20022FB612B1D4F
:1034A800AB4ED9E9008E4EE0F4EEC67AF1EE10FA92
:1034B800C0F2C580304645F822000EEB0100D0ED81
:1034C800007A66EEA77AF4EEC77AF1EE10FA49D9D7
:1034D800F4EEC67AF1EE10FAC0F2BF803046BBF1C6
:1034E800020F43F822002AD0D9F808000844D0ED8A
:1034F800007A66EEA77AF4EEC77AF1EE10FA35D9BB
:10350800F4EEC67AF1EE10FAC0F2AE8030464AF810
:103518002200D9F80C000144D1ED007A66EEA77AB2
:10352800F4EEC77AF1EE10FA1ED9F4EEC67AF1EE8F
:1035380010FAC0F28B803146F86940F82210023246
:1035480094427FF6CEAB510808EB81008900D0ED9C
:10355800007A66EEA77AF4EEC77AF1EE10FAA3D8ED
:103568006046A8E76046BAE76146E5E76046CEE709
:10357800224649466046BB699847FFF7B2BBC7F881
:1035880010B0002298ED0C6A331DDFED726AD7F88F
:103598001CB0786956F8221007EE901A53F82210DA
:1035A800B8EEE77A07EE901A51080232F8EEE77A99
:1035B80027EE267A0AEB810E94420BEB810167EE27
:1035C800A67A27EE067A67EE867A8EED007AC1ED46
:1035D800007ADFD88300D7F810B07B614DE61A4631
:1035E800C7F810B098ED0C6A331DDFED5B6AD7F8A9
:1035F8001CB0786936F9221007EE101A33F9221038
:1036080007EE901AB8EEC77A51080232F8EEE77A58
:1036180027EE267A0AEB810E94420BEB810167EEC6
:10362800A67A27EE067A67EE867A8EED007AC1EDE5
:10363800007ADFD88300D7F810B07B6134E5F0EE6C
:10364800675AFEEEE45A15EE900A34E7F0EE675A30
:10365800FEEEE45A15EE901A6EE7F0EE675AFEEEAB
:10366800E45A15EE900A3AE7F0EE675AFEEEE45A8D
:1036780015EE900A4BE767EEA57AFDEEE77A17EEAE
:10368800900A00B232E567EEA57AFDEEE77A17EE0A
:10369800900A00B23FE5F0EE675AFEEEE05A15EEEA
:1036A800901A4CE6F0EE675AFEEEE05A15EE900AD4
:1036B80030E6F0EE675AFEEEE05A15EE900AFDE5A8
:1036C800F0EE675AFEEEE05A15EE900A0AE667EE4B
:1036D800A57AFDEEE77A17EE901A09B24AE567EE89
:1036E800A57AFDEEE77A17EE900A00B22CE5F0EE27
:1036F800675AFEEEE45A15EE902A1FE467EEA57AA3
:10370800FDEEE77A17EE902A12B2FFF731BBF0EE22
:10371800675AFEEEE45A15EE902AFFF7FDBBF0EE6D
:10372800675AFEEEE05A15EE902AFFF79BBBF0EEC3
:10373800675AFEEEE05A15EE902AFFF780BB67EE57
:10374800A57AFDEEE77A17EE902A12B2FFF724BBAE
:1037580082FF7F0000000030000000387E0080FFFC
:1037680030B5184C154685B0046004F1080EEC46D7
:103778000FC98EE80F00D4ED047AF5EEC07A8CE814
:103788000F00F1EE10FA1ADDB7EE006A94ED057A33
:1037980027EE277AC6EE276A84ED0D7AC4ED0C6A07
:1037A8006DB1204640F8185F01F086FA06490369B2
:1037B8000020064A2162A262E36005B030BD012004
:1037C80005B030BD14110024002000300000003086
:1037D80000680830704700BFB1F5807F03680A466B
:1037E80028BF4FF48072B1F5807F9A6094BF0020A3
:1037F800012070470068183001F0BEBA30B504687F
:1038080083B008480D46A368A26A216A9B0000900D
:1038180004F1180001F052FA0020C4E9000503B0D1
:1038280030BD00BFAD2B000810B4074B4FF07E51E0
:1038380030240022032019619C60D8605DF8044B95
:103848005961C3E9062270471411002484460FC940
:103858008CE80F009CF800300B2B30D09CF801202E
:103868000F2A2CD8022900B591B041D0032902D0E3
:10387800012900D000210C91DCF80810012902D0A0
:10388800022918BF00210D91DCF80C10022904D080
:10389800032902D0012918BF00210A2B0E910FD845
:1038A8005B4800EB8320CCF810000A2B17D8DFE820
:1038B80003F0A0928476685A4C3E30220900704783
:1038C8000020F0E7534BD3F8E01041F48061C3F8CF
:1038D800E010D3F8E03003F480630A930A9B0123D5
:1038E8000BA993400B9303F037FA11B05DF804FB72
:1038F80011210C91C0E7474BD3F8E01041F4007157
:10390800C3F8E010D3F8E03003F400730993099B7F
:10391800E5E7404BD3F8E01041F48071C3F8E010BC
:10392800D3F8E03003F480730893089BD7E7394B4A
:10393800D3F8E01041F08001C3F8E010D3F8E0308C
:1039480003F080030793079BC9E7324BD3F8E010D5
:1039580041F04001C3F8E010D3F8E03003F0400331
:103968000693069BBBE72B4BD3F8E01041F02001F0
:10397800C3F8E010D3F8E03003F020030593059B6B
:10398800ADE7244BD3F8E01041F01001C3F8E01084
:10399800D3F8E03003F010030493049B9FE71D4B1A
:1039A800D3F8E01041F00801C3F8E010D3F8E03094
:1039B80003F008030393039B91E7164BD3F8E01039
:1039C80041F00401C3F8E010D3F8E03003F0040339
:1039D8000293029B83E70F4BD3F8E01041F00201FA
:1039E800C3F8E010D3F8E03003F002030193019B21
:1039F80075E7084BD3F8E01041F00101C3F8E01077
:103A0800D3F8E03003F001030093009B67E700BFA1
:103A1800000002580044025810B592B0ADF80410E6
:103A28000180C9B2149C0B29C460C0E901233FD0AE
:103A380090F801C0BCF10F0F3AD8022A3FD0032AF0
:103A480002D0012A00D000220E92012B02D0022BB4
:103A580018BF0023022C0F932CD0032C2AD0012C42
:103A680028D000230A29109327D85C4A02EB812228
:103A780002610A2914D8DFE801F0A39587796B5D04
:103A88004F4133250600564BD3F8E01041F48061CE
:103A9800C3F8E010D3F8E03003F480630C930C9B78
:103AA80001230DA9104603FA0CF30D9303F054F902
:103AB80012B010BD0A291094D7D90022D8E71122D4
:103AC8000E92C2E7464BD3F8E01041F40071C3F8F8
:103AD800E010D3F8E03003F400730B930B9BDFE79F
:103AE8003F4BD3F8E01041F48071C3F8E010D3F8ED
:103AF800E03003F480730A930A9BD1E7384BD3F87C
:103B0800E01041F08001C3F8E010D3F8E03003F092
:103B180080030993099BC3E7314BD3F8E01041F0C8
:103B28004001C3F8E010D3F8E03003F040030893F5
:103B3800089BB5E72A4BD3F8E01041F02001C3F801
:103B4800E010D3F8E03003F020030793079BA7E7C2
:103B5800234BD3F8E01041F01001C3F8E010D3F87C
:103B6800E03003F010030693069B99E71C4BD3F84B
:103B7800E01041F00801C3F8E010D3F8E03003F09A
:103B880008030593059B8BE7154BD3F8E01041F02C
:103B98000401C3F8E010D3F8E03003F00403049301
:103BA800049B7DE70E4BD3F8E01041F00201C3F807
:103BB800E010D3F8E03003F002030393039B6FE7B0
:103BC800074BD3F8E01041F00101C3F8E010D3F837
:103BD800E03003F001030293029B61E70000025802
:103BE8000044025808B5012143780069994089B218
:103BF80003F0B4FA003818BF012008BD01230A46B3
:103C08004178006903FA01F189B203F0ADBA00BF47
:103C180010B5002386B0122204460493CDE902238E
:103C28000368022B1FDC002B01DB04230593237997
:103C38000A2B1FD8114800EB83206279012301A9C0
:103C48009340019303F088F8A3790A2B14D80B4802
:103C580000EB8320E279012301A99340019303F04B
:103C68007BF806B010BD032BE1D106230593237919
:103C78000A2BDFD90020E0E70020EBE7000002581C
:103C8800634A0368934210B58CB028D0614A9342C6
:103C980058D0614A934200F09480604A934201D020
:103CA8000CB010BD5E4C5F48D4F8E03043F002031E
:103CB800C4F8E030D4F8E03003F002030A930A9B1A
:103CC800FFF7A6FFD4F8F43043F08003C4F8F430CB
:103CD800D4F8F43003F080030B930B9BE0E7504CCF
:103CE8005148D4F8E03043F00203C4F8E030D4F887
:103CF800E03003F002030193019BFFF789FFD4F83A
:103D0800E83000221F2043F400131146C4F8E830BD
:103D1800D4F8E83003F400130293029BD4F8D830A7
:103D280043F00103C4F8D830D4F8D83003F00103C5
:103D38000393039B01F0BAFC1F200CB0BDE81040B0
:103D480001F0F2BC364C3948D4F8E03043F0800337
:103D5800C4F8E030D4F8E03003F080030493049B07
:103D6800D4F8E03043F00203C4F8E030D4F8E0308F
:103D780003F002030593059BFFF74AFFD4F8E830E8
:103D88000022212043F480031146C4F8E830D4F817
:103D9800E83003F480030693069BD4F8D83043F048
:103DA8000103C4F8D830D4F8D83003F001030793DE
:103DB800079B01F07BFC21200CB0BDE8104001F00E
:103DC800B3BC1B48FFF724FF154B00224820D3F84B
:103DD800E840114644F40004C3F8E840D3F8E8404A
:103DE80004F400040894089CD3F8D84044F0010473
:103DF800C3F8D840D3F8D83003F001030993099BDE
:103E080001F054FC48200CB0BDE8104001F08CBC17
:103E18000054004000580040005C0040001C00585E
:103E280000440258F01300245011002430120024DA
:103E3800101300242DE9F0431A4B87B000254FF0EA
:103E480010099E46EC46184BFF22E04667461A705A
:103E58000EF118060EF13004CDE90055CDE90255F2
:103E6800ADF80090BCE80F00CDE90455AEE80F00AE
:103E78009CE803000095ADF800908EE80300B8E8D0
:103E88000F000FC69CE803000095ADF8009086E887
:103E980003000FCF0FC49CE8030084E8030007B0B9
:103EA800BDE8F083040000244C11002410B5EFF3A2
:103EB800108472B6084B1A78120602D504B962B695
:103EC80010BD1878054B40B2C0EBC00003EB4010A2
:103ED800143002F0EFFBF1E74C11002450110024DC
:103EE800014804F07BBA00BFDC110024014804F04B
:103EF80075BA00BFBC120024014804F06FBA00BFB5
:103F08009C1300242DE9F0430D6885B0404EC5EBA5
:103F1800C503032D4FEA431706EB4313036041DC47
:103F2800CA680C46012A3DD84FEAC5084CD020681B
:103F38009C466168A8EB0509A2680DF1100EE368BC
:103F480006EB4919ACE80F00324B227C8CF80020B4
:103F5800D9F808C00FCB0EE90F000EEB8503BCF1B2
:103F6800010F53F8103CC9F88C3032D0BCF1020F65
:103F780043D0BCF1000F36D0227C8C37A8EB050566
:103F880000233744520006EB451601213846C6F88F
:103F9800AC30C6E92521C6E92733C6E9293303F041
:103FA800DFFE18B1012005B0BDE8F08301463846B0
:103FB80004F020FA0028F5D10146384604F044FA06
:103FC800003818BF0120EEE70A7C103A672AAED9FC
:103FD800E8E701F051F9104B98420CBF0F4B104B1A
:103FE800C9F89030C8E701F047F90B4B98420CBF6D
:103FF8000C4B0D4BC9F89030BEE701F03DF9064B6C
:1040080098420CBF094B0A4BC9F89030B4E700BF7F
:1040180050110024EC2F0108000E27072D0FB03097
:104028003211D0205F4390608A62E030200BA010EC
:104038001A0980102DE9F041D0F8008082B00D46B1
:1040480017461E4608F18C04204604F0CFF92028B4
:10405800FAD1D8F80C3073B96D002046089C334665
:104068003A46A9B2009403F0D1FE003818BF0120E7
:1040780002B0BDE8F081089B32463946204604F07C
:1040880083F8F2E7094B6FF0F41110225960C3F876
:10409800E4101A7483F8F020C3F8C41183F8D0210F
:1040A800C3F8A41283F8B022704700BF501100244F
:1040B80030B5002395B04FF48071062204460B9367
:1040C80006921393CDE90C13CDE90E33CDE91133E4
:1040D80001F0D4F807282BD004F1100541F28832FA
:1040E80006A9284605F0EEF928B10123184684F8F8
:1040F8005C3015B030BD0222022306A92846CDE95E
:10410800002310220123CDE9022300224FF480036B
:10411800CDE9042305224FF0807306926A460F9377
:1041280041F2883305F03AFB0028DED115B030BDE6
:104138000323012084F85C3015B030BD0000000076
:1041480070B50023A4B04FF080724FF48075044618
:10415800ADF806300D93CDE910320122CDE90E53AA
:10416800CDE91223CDE91433002943D0F02300F11F
:10417800100508AEADF80630C02341F2883231464A
:104188002846089305F09EF928B10123184684F8BB
:104198005C3024B070BD41F288320DF1060128462A
:1041A80005F0FAF903460028EFD105224FF4807193
:1041B8001E93284616924FF080721B9321931F92EC
:1041C80002AA9FED1F7BCDE91C13CDE922338DEDAB
:1041D800027B9FED1D7B41F2883316A98DED047B90
:1041E8009FED1B7B8DED067B05F0D8FA0028CCD11E
:1041F80024B070BD00F1100508AE612341F2883289
:1042080031462846089305F05DF90028BDD141F2F2
:1042180088320DF10601284605F03CFA0028B4D191
:10422800BDF80630204623F0780343F04003ADF88C
:104238000630FFF73DFF00289ED0A6E7AFF30080C9
:104248000000000001000000100000000100000054
:1042580000000000000040002DE9F04F00234FF45B
:10426800807501264FF0807804462DED028BABB0A7
:104278008DF8073013932193299314950E96CDF852
:104288005C80CDE91533CDE91863CDE91A33CDE962
:104298002253CDE92433CDE9273306231C9300F0BC
:1042A800EDFF072808D004F1100741F288321CA955
:1042B800384605F007F940B10123184684F85C3008
:1042C8002BB0BDEC028BBDE8F08F4FF0020A4FF027
:1042D800020B4FF0050941F2883308AA1CA9384699
:1042E800CDF89480CDF870909FED2D8BCDE908AB7B
:1042F8004FF0000A4FF4800B8DED0A8BCDE90CAB23
:1043080005F04CFA0028D7D141F2883238460EA978
:1043180005F0D8F80028CFD1402341F288320DF1BA
:10432800070138468DF8073005F036F90028C3D163
:1043380041F288330EA902AA3846CDF83890CDF854
:104348005C809FED197B8DED048BCDE906AB8DED7F
:10435800027B05F023FA03460028ADD1CDF8709012
:104368004FF00109CDF894804FF00008219308AA76
:1043780029931CA938462295CDE92333CDE9273363
:1043880041F288338DED0A8BCDE90CABCDE9088974
:1043980005F004FA002893D0304684F85C608FE773
:1043A8001000000001000000400000004000000074
:1043B800F0B55F4CA3B00D46046000F05FFF07281E
:1043C80044D028682346AA68696807C3AA8918469A
:1043D80020F8042B257B667B05F062F880BB554AE4
:1043E800012DE06122614FF0010214BF4FF48013E8
:1043F8004FF4000393FAA3F3C4E90522002B00F05D
:104408008880B3FA83F3013B00224FF480774A484F
:10441800C4E90837C4E90B2204F0E6FF80B9662333
:104428000B90139041F2883206A90693CDE90C70DF
:10443800CDE90E00CDE911003F4805F043F858B129
:104448000123184684F85C3023B0F0BD0323012013
:1044580084F85C3023B0F0BD992341F2883206A974
:104468003548069305F02EF80028E9D105231C905D
:1044780019906A4614934FF08073219014A91D93E4
:1044880041F288339FED247BCDE91A70CDE91F00F6
:104498008DED007B9FED227B27488DED027B9FED04
:1044A800227B8DED047B05F079F90028C8D12946D7
:1044B8001F48FFF745FE0028C2D11D48FFF7CCFE74
:1044C8000028BDD1002EBFD11890EB2300261A97E3
:1044D80014934FF44063002706AA1B934FF44043FC
:1044E80014A91C930623CDE91F004FF0805019939F
:1044F80021904FF040701D904FF400501790A0206D
:1045080016900D48CDE9066705F0C0F900289BD044
:1045180096E71F2378E700BF0000000001000000B5
:104528001000000001000000000000000000400032
:10453800D014002400500052E01400243F4B0268BD
:104548002DE9F0439A428DB04FF00004CDE90744BD
:10455800CDE909440B9402D00DB0BDE8F083384B87
:1045680005AD38490DF11A07D3F8D4200126DFF834
:10457800D89042F48042DFF8D480C3F8D420D3F82E
:10458800D42002F480420092009AD3F8E02042F04E
:104598004002C3F8E020D3F8E02002F04002019284
:1045A800019AD3F8E02042F02002C3F8E020D3F8C3
:1045B800E02002F020020292029AD3F8E02042F0B2
:1045C8001002C3F8E020D3F8E02002F010020392B2
:1045D800039AD3F8E02042F00202C3F8E020D3F8AF
:1045E800E03003F002030493049B03C90590ADF87F
:1045F800181059F8043F002007A91A785B780A2A8E
:10460800099406FA03F398BF08EB822015F8012BEA
:10461800079302230B92089303230A9302F09CFB4F
:10462800AF42E6D100225C20114601F03FF85C2041
:1046380001F07AF80DB0BDE8F08300BF00500052D9
:1046480000440258683001082C1500240000025864
:104658000268F8B5124B9A4200D0F8BD114A0126FB
:10466800114CD2F8D430114F04F1180523F48043CB
:10467800C2F8D43054F8043F00201A7859780A2A2E
:1046880006FA01F198BF07EB822089B202F09EFC7E
:10469800A542EFD15C20BDE8F84001F053B800BF57
:1046A80000500052004402582C1500240000025803
:1046B800014805F077B900BFE01400240B4B6FF0F8
:1046C800F412991C981D10B41C1D9A60C3E90022AD
:1046D800C3E9183103F10A0203F10801C3E91A40DA
:1046E800C3E91C125DF8044B704700BFD0140024C6
:1046F80038B5036871B9026A00F1280500F5AC7491
:10470800012A0CBF002140218BBB1D4B5722C0F84A
:1047180058310DE0426A00F1C00500F5E874012A3D
:104728000CBF00214021EBB1164B5A22C0F8D03102
:1047380000232046C4E901214FF480524FF48061E0
:10474800636262614FF48042C4E903314FF48073BD
:10475800C4E906234FF40033236201F059F958B134
:10476800FFBEFEE7084B5822C0F8D031E0E7074B00
:104778005922C0F85831DBE7C5E92044A56338BDA4
:104788001000024070000240280002405800024019
:104798002DE9F043C28889B081468388ADF80020AE
:1047A8000089B9F80A10B9F80C20ADF80230D9F828
:1047B8001830ADF80400ADF80610ADF80820002B4D
:1047C8003FD0D9F81C70B7FA87F77F090125022373
:1047D8006C460DF10A06DFF870800695CDE90435C0
:1047E80099F8042020788242627818D0D9F800100D
:1047F800F9B1012902D1F8B10A2107910A2805FA6D
:1048080002F203A994BF08EB80200020039202F073
:10481800A3FA0234A642E3D109B0BDE8F08399F8BF
:1048280005109142E2D1002FF3D0D9F800100029E9
:10483800DFD106210791E1E7022A0CBF08210A21EE
:10484800DBE70127C2E700BF00000258534A0368AC
:10485800934230B505468BB055D02032934252D0A2
:104868004F4A934204D02032934201D00BB030BD5E
:104878004C4C4D48D4F8E03043F00103C4F8E03024
:10488800D4F8E03003F001030593059BD4F8E03039
:1048980043F00803C4F8E030D4F8E03003F008032C
:1048A8000693069BD4F8E03043F04003C4F8E030A8
:1048B800D4F8E03003F040030793079BD4F8F030B6
:1048C80043F40003C4F8F030D4F8F03003F40003E4
:1048D8000893089BFFF75CFFD4F8D830296843F0A9
:1048E80001032F4A3048C4F8D830891AD4F8D83090
:1048F80018BF012103F001030993099B0BB0BDE820
:104908003040FFF7F5BE274C2848D4F8E03043F094
:104918000103C4F8E030D4F8E03003F00103009359
:10492800009BD4F8E03043F01003C4F8E030D4F82A
:10493800E03003F010030193019BD4F8E03043F01A
:104948004003C4F8E030D4F8E03003F040030293A9
:10495800029BD4F8F03043F48003C4F8F030D4F864
:10496800F03003F480030393039BFFF711FFD4F89F
:10497800D830296843F00103084A0C48C4F8D830F5
:10498800891AD4F8D83018BF012103F00103049321
:10499800049B0BB0BDE83040FFF7AABE04580140A5
:1049A800045C014000440258A41700244815002460
:1049B800014801F07FBE00BFA0160024014801F0A5
:1049C80079BE00BF18170024014801F073BE00BF6C
:1049D800FC180024014801F06DBE00BF74190024C2
:1049E8001A4A0368934210B40BD02032934208D07D
:1049F800174A934216D02032934213D05DF8044BE5
:104A08007047144B0022D3F85442C3F85822002CA4
:104A1800F4D0D3F84802D3E9931223465DF8044B47
:104A2800520818470B4B0022D3F8B044C3F8B424FB
:104A3800002CE3D0D3F8AC24D3F8A814D3F8A404FA
:104A4800520823465DF8044B184700BF045801403C
:104A5800045C014048150024184A0368934210B4C6
:104A68000BD02032934208D0154A934217D02032F7
:104A7800934214D05DF8044B7047124BD3E9942449
:104A88005208C3F85822002CF4D0D3E992012346E7
:104A980001EB820100EB82005DF8044B1847094BDB
:104AA800D3F8AC24D3F8B0445208C3F8B424002C8B
:104AB800E0D0D3F8A814D3F8A404E8E704580140D8
:104AC800045C0140481500242DE9F0470C684FF4B8
:104AD8001776774F86B004FB06F6012C07EB06081D
:104AE800C0F8008000F39F8000230D468E46C44620
:104AF800C8F85032C8E9923369A3D3E900236AA100
:104B0800D1E90001CDE9022306AB03EB8403CDE92B
:104B1800040153F810AC53F8089CBEE80F00ACE849
:104B28000F00BEE80F00ACE80F009EE80300C8F8CD
:104B380028A0C8F8C0908CE803002B69042B0CD877
:104B4800DFE803F078828C9603004FF41773594A14
:104B580003FB04739A64C3F8E020AA692B6A002A4D
:104B680042D0002B4FF4177308BF022203FB0473D3
:104B780018BF0322DA6201221A63EA696B6A002A03
:104B88003FD1191E4FF4177318BF012103FB04739B
:104B9800C3E931126969012943D0022947D10325A4
:104BA80000214FF4177306F128002A46019103FBF0
:104BB8000473002438445C645C63DC65C3F8DC403F
:104BC800C3F8CC40C3F8F440C3E90F44C3E9154423
:104BD800C3E93544C3E93B44022307F0E9FA0199E4
:104BE80000284FD0FFBEFEE7191E4FF4177318BFF9
:104BF800012103FB0473C3E90B12EA696B6A002AFB
:104C0800BFD0002B4FF417730CBF0222032203FB03
:104C18000473C3F8C4200122C3F8C82069690129B4
:104C2800BBD10225BDE7012006B0BDE8F08700250D
:104C38002946B6E74FF417734FF4FA5203FB04738F
:104C48009A64C3F8E02088E74FF417734FF47A5258
:104C580003FB04739A64C3F8E0207EE74FF41773EC
:104C68004FF4FA4203FB04739A64C3F8E02074E734
:104C78004FF417734BF6803203FB04739A64C3F83E
:104C8800E0206AE706F1C00002232A46384407F00C
:104C98008FFA0028C8D0FFBEFEE700BFAFF3008040
:104CA80004580140045C014024580140245C014040
:104CB80048150024007701000068704770B5046843
:104CC80082B015460E46C4F85032C4E99212069ACC
:104CD800C4F85422A269012A26D0626A012A9AB22B
:104CE80011D0294604F1C000019207F01BFB236A8A
:104CF800019A012B10D0294604F1280007F012FB75
:104D0800002002B070BD04F1C000019207F09CFBC6
:104D1800236A019A012BEED1314604F1280007F0ED
:104D280093FB002002B070BD226A012A9AB211D00A
:104D3800294604F12800019207F0F4FA636A019AFF
:104D4800012B10D0294604F1C00007F0EBFA00202F
:104D580002B070BD04F12800019207F075FB636A88
:104D6800019A012BEED1314604F1C00007F06CFB2B
:104D7800002002B070BD00BF03681B69042B05D872
:104D8800044A02EB830393ED000A70479FED020A81
:104D9800704700BF7030010800803B470368D3F8B4
:104DA80058027047064B6FF0F4124FF60B71C3E9C7
:104DB80001229981A3F86812C3E99822704700BFBD
:104DC80048150024704700BF08B500F033FCBDE863
:104DD800084000F033BD00BF064808B503680BB1B2
:104DE80002F0C6F9044803681BB1BDE8084003F0A7
:104DF80057BB08BD181F0024081A0024064808B528
:104E080003680BB102F0B4F9044803681BB1BDE8AC
:104E1800084003F045BB08BD181F0024081A0024E9
:104E2800064808B503680BB102F0A2F90448036804
:104E38001BB1BDE8084003F033BB08BD181F0024B0
:104E4800081A0024364BDA6A520062D59A6A9A6ABE
:104E58009A6A9B6A180600D500BE314B9B6A990670
:104E680000D500BE2E4B9B6ADA0600D500BE2C4B3F
:104E78009B6A1B0700D500BE294B9B6A980700D583
:104E880000BE274B9B6AD90700D500BE244B9B6AFE
:104E98001A0400D500BE224B9B6A9B0400D500BEB5
:104EA8001F4B9B6AD80400D500BE1D4B9B6A190591
:104EB80000D500BE1A4B9B6A5A0500D500BE184B98
:104EC8009B6A9B0500D500BE154B9B6AD80500D58B
:104ED80000BE134B9B6A990100D500BE104B9B6A1C
:104EE800DA0100D500BE0E4B9B6A1B0300D500BE3D
:104EF8000B4B9B6A580300D500BE094B9B6A99036C
:104F080000D500BE064B9B6ADA0306D400BE00BE7D
:104F1800FEE7DB6A9B07FAD5F8E700BEF6E700BFB5
:104F280000ED00E000F098BB0A4B9B6803F1784362
:104F3800B3F5003F0BD3084B986848B1986801282F
:104F480006D09868022803D09B6803207047012088
:104F5800704700BF00ED00E000008038000000004E
:104F68002DE9F041CEB004464C2200210AA80DF0EC
:104F7800CFFF2022002102A80DF0CAFFC022002185
:104F88001EA80DF0C5FF022004F048F92368012B84
:104F98004FF0000354D0584A02250193C820D16A23
:104FA800564B21F00101D162D26A02F0010201924E
:104FB8009A6942F440429A619B6903F44043019321
:104FC800019B4E4A93699B04FCD54D49022400225B
:104FD80001268B6A04274FF0080823F003032343B4
:104FE8008B62052316900AA818934FF48033109605
:104FF800179419941597CDF86880CDE91B222122C2
:10500800CDE91344CDE90A2304F06CFE00B1FEE7B4
:105018003F220323294602A8CDE9022300220823C0
:10502800CDE9042340224023CDE9062340234FF451
:105038008062CDE9082305F0EFF90346B8B1FEE731
:105048002E4A04250093F02091692B4B41F44041EE
:105058009161926902F440420092DA6A42F00102D8
:10506800DA62DB6A03F001030093009BA9E72022C0
:1050780026932E9380212C924FF48052319306254B
:105088003F931EA8279236924FF4803225914FF411
:105098004011329247920022289580254091102194
:1050A800CDF888802B9720962A91CDE92F3440F2AD
:1050B800271329934FF480632D930023CDE92346CA
:1050C800CDE93C234FF480740C23449402242193AB
:1050D80007A3D3E90023CDE93445CDE91E2305F024
:1050E80087FC00B1FEE704F0BDF84EB0BDE8F081E2
:1050F8000F130F0300000000000400580048025876
:105108000044025870B584B0012400F045FB4FF408
:1051180080764FF04052194B68460025ADF80040A4
:105128000396CDE9012300F055FB19224FF04043C7
:1051380068468DF8082001938DF80F40ADF80D6092
:105148008DF801408DF80A5000F044FB02230B2231
:1051580068468DF80F508DF801304FF062538DF886
:1051680008200193ADF80D408DF80A4000F032FB9D
:10517800042000F01FFB04B070BD00BF0E00010347
:1051880030B50D46044685B0D1E9000184E8030036
:1051980000F020FAAB79002B63D00BF031F9FEF761
:1051A80049FE09F0E3FB0AF0CFFD2B795BB3304CE5
:1051B800636913F4803326D1C4F88430BFF34F8F6A
:1051C800D4F8801043F6E07EC1F34E3CC1F3C90128
:1051D8004FEA4C1C0CEA0E000B4640EA8372013B76
:1051E800C4F860225A1CF8D1ACF1200C1CF1200F35
:1051F800F0D1BFF34F8F636943F480336361BFF32A
:105208004F8FBFF36F8F6B79B3B1194A536913F49A
:10521800003311D1BFF34F8FBFF36F8FC2F85032F5
:10522800BFF34F8FBFF36F8F536943F4003353615C
:10523800BFF34F8FBFF36F8F4FF0FF32002300246F
:10524800002569460B4802928DF80C30CDE90045DF
:1052580009F0C0FF07480AF025F808F023FD05B05B
:1052680030BD2046FFF77CFE2046FFF74BFF94E752
:1052780000ED00E0001A002405F036BA1C4B9B68CC
:1052880003F17842B2F5003F25D3B3F5803F20D330
:1052980003F16042B2F5003F1FD303F15C42B2F55F
:1052A800002F1CD303F17042B2F5902F19D303F1EC
:1052B8004842B2F5803F16D303F18042B2F1806FC5
:1052C80013D303F1E043B3F5000F2CBF08200720E8
:1052D8007047012070470020704702207047032064
:1052E800704704207047052070470620704700BFAC
:1052F80000ED00E003480023034A044903600DF071
:10530800ADBB00BF001A002400000024CD4D0008EA
:1053180010B4204C0022204B83B0D4F888101F48CA
:1053280041F47001C4F8881019681D4C41F001015E
:1053380019601A61196808401A4918609A61DA6197
:105348001A629A62DA621A635A639A63DA631A64AF
:105358005A64186820F4802018601A66D3F8DC2094
:1053680042F06042C3F8DC20D3F8DC300193019BA3
:1053780023681940B1F1005F03D20B4B0122C3F837
:105388000821044B4FF000629A6003B05DF8044BAB
:10539800704700BF00ED00E0004402587FEDF6EAD8
:1053A8000010005C0000FFFF0080005100F2C441C3
:1053B800D0F8080507F0DCBF01EBC10300EB83035D
:1053C800D0F80805D3F8882208F002B801EBC10329
:1053D80000EB8303D0F808059A6C08F033B800BFD7
:1053E800D0F8080508F0DCB8016910B5044619B111
:1053F800022900D0FEE70121D4F8080508F0B0F82A
:10540800D4F80805BDE8104008F07CB810B504468B
:10541800D0F8080508F0A8F82268D2F8003E43F052
:105428000103C2F8003E236A23B1034A136943F01B
:105438000603136110BD00BF00ED00E0D0F80805B9
:1054480008F0A2B8D0F8080508F0D0B8D0F80805D8
:1054580008F0B6B8D0F8080508F0DEB8D0F80805A6
:1054680008F0DCB89446D0F8C8021A4608B5634676
:1054780003F0D0FD032802D8024B185C08BD0320B6
:1054880008BD00BF94300108D0F8C80208B503F081
:1054980043FE032802D8024B185C08BD032008BD50
:1054A80094300108D0F8C80208B503F079FE032843
:1054B80002D8024B185C08BD032008BD94300108CF
:1054C8000A06D0F8C83206D401EBC10103EB81010A
:1054D80091F87E02704701F07F0101EBC10103EBF7
:1054E800810191F83E007047D0F8C80208B503F072
:1054F8007BFD032802D8024B185C08BD032008BDB9
:1055080094300108D0F8C80208B503F0E3FD032879
:1055180002D8024B185C08BD032008BD943001086E
:10552800D0F8C80208B503F0B3FD032802D8024B2F
:10553800185C08BD032008BD94300108D0F80003AA
:1055480008F06ABBD0F8000308F07EBBD0F800036F
:1055580008F086BB704700BFD0F8000308F06CBBAA
:10556800D0F8000308F06CBBD0F8D40308B502F0FB
:1055780079FA032802D8024B185C08BD022008BD3E
:1055880098300108704700BF0F4B1B780BB90120FA
:10559800704710B504464FF47A700C4AB0FBF3F329
:1055A8001068B0FBF3F000F0E1F80F2C00D808B158
:1055B800012010BD002221464FF0FF3000F076F8A0
:1055C800034B00201C6010BD5C0000244C0000242C
:1055D8006000002410B50320124C00F055F804F0C8
:1055E8007BFE114B11499A699B69C2F3032203F0B0
:1055F8000F038A5CCB5C02F01F020D4903F01F0306
:10560800D04020FA03F308600E202360FFF7BCFFA8
:1056180010B10124204610BD0446FFF7B3FF204611
:1056280010BD00BF50000024004402588430010817
:105638004C000024034A044B11681B780B44136088
:10564800704700BF1C2200245C000024014B18682E
:10565800704700BF1C22002438B50446FFF7F6FF48
:105668000546631C02D0044B1B781C44FFF7EEFF71
:10567800431BA342FAD338BD5C000024014B1868D1
:10568800000C70470010005C06494FF6FF0C000242
:10569800054BCA6800F4E06002EA0C0210430343B9
:1056A800CB60704700ED00E00000FA051B4BDB689B
:1056B800C3F3022300B5C3F1070E03F1040CBEF1D6
:1056C800040F28BF4FF0040EBCF1060F1AD9033B94
:1056D8004FF0FF3C0CFA03FC22EA0C024FF0FF3CAF
:1056E80000280CFA0EFC21EA0C0101FA03F141EA48
:1056F80002010ADB09010A4BC9B2034483F800130B
:105708005DF804FB00221346E8E700F00F000901EA
:10571800044BC9B2034419765DF804FB00ED00E0C0
:1057280000E100E0FCEC00E0002807DB012300F0CA
:105738001F01034A40098B4042F82030704700BFE0
:1057480000E100E000280DDB4309012200F01F0002
:105758000549203302FA00F041F82300BFF34F8FC8
:10576800BFF36F8F704700BF00E100E0431EB3F145
:10577800807F0CD24FF0E022002006494FF0F00C59
:105788005361072381F823C090611361704701209A
:10579800704700BF00ED00E0BFF35F8F044B0021AE
:1057A8005A6A22F480325A62C3F89410704700BFD4
:1057B80000ED00E0064B40F00100C3F894005A6A7F
:1057C80042F480325A62BFF34F8FBFF36F8F704736
:1057D80000ED00E0174A4378C2F89830017821B309
:1057E800436800B5C2F89C30C37A90F80CC01B0619
:1057F80090F80FE043EA0C7390F80AC00B43817BE2
:1058080043EACC4390F80DC043EA8C4390F809C0B2
:1058180043EA4143017A43EA0E4343EA0C2343EA4D
:105828004103C2F8A0305DF804FBC2F89C10C2F82E
:10583800A010704700ED00E0704700BF08B5FFF703
:10584800FBFF08BD0268344B344930B4344D354C45
:10585800AA4218BF9A420CBF012300238A4208BFFC
:1058680043F001033031A24208BF43F00103303452
:105878008A4208BF43F001033031A24208BF43F017
:10588800010330348A4208BF43F0010301F55C711B
:10589800A24208BF43F0010304F55C748A4208BFC2
:1058A80043F001033031A24208BF43F00103303412
:1058B8008A4208BF43F001033031A24208BF43F0D7
:1058C800010330348A4208BF43F001033031A24259
:1058D80008BF43F001038A4208BF43F0010313B92C
:1058E800114B9A4213D1D3B21049114C103BA1FB72
:1058F80003515F2B0F4BC1F3021103EA0203615CF2
:1059080088BF0433C1658365184630BC704722F0F0
:10591800FF038365F8E700BF100002404000024023
:105928002800024058000240B8040240ABAAAAAAC4
:10593800F83D010800FCFFFF0368294A294930B4F3
:10594800294D2A4CAB4218BF93420CBF01220022BA
:105958008B4208BF42F001022831A34208BF42F03F
:10596800010228348B4208BF42F001022831A342C9
:1059780008BF42F001028B4208BF42F0010212B98F
:105988001B4A934213D1DBB21A4C1B4A0121083B34
:105998001A4DA4FB0343456602EB1312C3F3041329
:1059A800920001FA03F30266836630BC7047DAB2EC
:1059B8001349144C1944103AA829A4FB02234FEAAE
:1059C800131300D80833104A03F01F0501210F4CA8
:1059D8001A44A9404466920081660266E5E700BF62
:1059E80008540258305402581C540258445402585F
:1059F80094540258CDCCCCCC00960016805802584E
:105A0800F0FBFDBFABAAAAAA0082001080080240E2
:105A1800F8B50446FFF71AFE002C00F077812368DA
:105A28000546924A934248D01832934245D03032C4
:105A38008F498B4218BF934201F130010CBF0122FC
:105A480000228B4208BF42F0010218318B4208BF86
:105A580042F0010218318B4208BF42F001021831AE
:105A68008B4208BF42F0010201F556718B4208BF14
:105A780042F0010218318B4208BF42F0010218318E
:105A88008B4208BF42F0010218318B4208BF42F036
:105A9800010218318B4208BF42F0010218318B42D3
:105AA80008BF42F0010218318B4208BF42F00102E0
:105AB8001AB9704A934240F098810022022184F872
:105AC800342084F835101A6822F001021A6006E0C2
