:020000040800F2
:100000000000022061090008550900085542000857
:1000100055090008550900085509000800000000AE
:10002000000000000000000000000000550900086A
:10003000550900080000000055090008D9410008D2
:100040005509000855090008550900085509000818
:100050005509000855090008550900085509000808
:10006000550900085509000855090008C13D000858
:10007000CD3D000801290008D93D0008E53D0008F4
:100080005D000108C1320008550900085509000843
:1000900055090008550900085509000855090008C8
:1000A00055090008550900085509000855090008B8
:1000B000DDF10008E9F10008F5F10008F53200086B
:1000C00055090008013300085509000825EA000811
:1000D00031EA000891FE0008BDFE0008F1FE0008AC
:1000E00055090008550900080000000055090008DE
:1000F0005509000855090008550900085509000868
:10010000550900085509000801F200083DEA0008F9
:1001100025FF000859FF0008550900085509000887
:10012000550900085509000861EA000895EA000829
:1001300091000108550900085509000855090008F3
:1001400000000000000000000000000000000000AF
:100150005509000855090008550900088DFF0008D9
:100160000D33000855090008E94100080D42000858
:1001700055090008314200085509000855090008D2
:100180005509000855090008C1FF0008F5FF0008DF
:1001900049EA000855EA0008550900085509000811
:1001A00055090008550900085509000855090008B7
:1001B000C13A00085509000855090008550900080A
:1001C0005509000855090008550900085509000897
:1001D0005509000855090008550900085509000887
:1001E0005509000855090008550900085509000877
:1001F0005509000855090008550900085509000867
:100200005509000855090008550900085509000856
:100210005509000855090008550900085509000846
:10022000550900085509000855090008000000009C
:10023000550900085509000800000000550900088C
:100240005509000855090008550900085509000816
:100250005509000855090008550900085509000806
:1002600055090008550900085509000855090008F6
:100270005509000855090008290001080000000080
:10028000550900085509000855090008000000003C
:08029000000000005509000800
:1002980010B5054C237833B9044B13B10448AFF3B8
:1002A80000800123237010BDF80300240000000023
:1002B800F82C010808B5034B1BB103490348AFF3F9
:1002C800008008BD00000000FC030024F82C010891
:1002D80081F0004102E000BF83F0004330B54FEAEF
:1002E80041044FEA430594EA050F08BF90EA020F5C
:1002F8001FBF54EA000C55EA020C7FEA645C7FEAEF
:10030800655C00F0E2804FEA5454D4EB5555B8BF11
:100318006D420CDD2C4480EA020281EA030382EA82
:10032800000083EA010180EA020281EA0303362D14
:1003380088BF30BD11F0004F4FEA01314FF4801CE7
:100348004CEA113102D0404261EB410113F0004FF9
:100358004FEA03334CEA133302D0524263EB4303B0
:1003680094EA050F00F0A780A4F10104D5F1200E4E
:100378000DDB02FA0EFC22FA05F2801841F10001A9
:1003880003FA0EF2801843FA05F359410EE0A5F17D
:1003980020050EF1200E012A03FA0EFC28BF4CF0AE
:1003A800020C43FA05F3C01851EBE37101F0004564
:1003B80007D54FF0000EDCF1000C7EEB00006EEB71
:1003C8000101B1F5801F1BD3B1F5001F0CD34908FB
:1003D8005FEA30004FEA3C0C04F101044FEA445252
:1003E80012F5800F80F09A80BCF1004F08BF5FEAD9
:1003F800500C50F1000041EB045141EA050130BDB9
:100408005FEA4C0C404141EB0101013C28BFB1F5CA
:10041800801FE9D291F0000F04BF01460020B1FA15
:1004280081F308BF2033A3F10B03B3F120020CDAE8
:100438000C3208DD02F1140CC2F10C0201FA0CF0C6
:1004480021FA02F10CE002F11402D8BFC2F1200C2B
:1004580001FA02F120FA0CFCDCBF41EA0C019040E1
:10046800E41AA2BF01EB0451294330BD6FEA04042A
:100478001F3C1CDA0C340EDC04F11404C4F1200215
:1004880020FA04F001FA02F340EA030021FA04F327
:1004980045EA030130BDC4F10C04C4F1200220FA7E
:1004A80002F001FA04F340EA0300294630BD21FABC
:1004B80004F0294630BD94F0000F83F4801306BF82
:1004C80081F480110134013D4EE77FEA645C18BF76
:1004D8007FEA655C29D094EA050F08BF90EA020F0D
:1004E80005D054EA000C04BF1946104630BD91EA05
:1004F800030F1EBF0021002030BD5FEA545C05D108
:100508004000494128BF41F0004130BD14F5800446
:100518003CBF01F5801130BD01F0004545F0FE41BA
:1005280041F470014FF0000030BD7FEA645C1ABFEF
:10053800194610467FEA655C1CBF0B46024650EA26
:10054800013406BF52EA033591EA030F41F4002152
:1005580030BD00BF90F0000F04BF0021704730B5D8
:100568004FF4806404F132044FF000054FF00001AD
:1005780050E700BF90F0000F04BF0021704730B56E
:100588004FF4806404F1320410F0004548BF404243
:100598004FF000013EE700BF42004FEAE2014FEA98
:1005A80031014FEA02701FBF12F07F4393F07F4F73
:1005B80081F06051704732F07F4208BF704793F076
:1005C8007F4F04BF41F40021704730B54FF4607489
:1005D80001F0004521F000411CE700BF50EA01028C
:1005E80008BF704730B54FF000050AE050EA010235
:1005F80008BF704730B511F0004502D5404261EBA5
:1006080041014FF4806404F132045FEA915C3FF4E5
:10061800D8AE4FF003025FEADC0C18BF03325FEA82
:10062800DC0C18BF033202EBDC02C2F1200300FA33
:1006380003FC20FA02F001FA03FE40EA0E0021FA58
:1006480002F11444BDE600BF53B94AB9002908BFF6
:1006580000281CBF4FF0FF314FF0FF3000F074B995
:10066800ADF1080C6DE904CE00F006F8DDF804E001
:10067800DDE9022304B070472DE9F047089D0446E0
:100688008E46002B4DD18A42944669D9B2FA82F23D
:1006980052B101FA02F3C2F1200120FA01F10CFA79
:1006A80002FC41EA030E94404FEA1C48210CBEFBB1
:1006B800F8F61FFA8CF708FB16E341EA034306FB3A
:1006C80007F199420AD91CEB030306F1FF3080F0C9
:1006D8001F81994240F21C81023E63445B1AA4B216
:1006E800B3FBF8F008FB103344EA034400FB07F7B8
:1006F800A7420AD91CEB040400F1FF3380F00A81F9
:10070800A74240F207816444023840EA0640E41BED
:1007180000261DB1D4400023C5E900433146BDE899
:10072800F0878B4209D9002D00F0EF800026C5E93B
:10073800000130463146BDE8F087B3FA83F6002E53
:100748004AD18B4202D3824200F2F980841A61EBCB
:10075800030301209E46002DE0D0C5E9004EDDE7E9
:1007680002B9FFDEB2FA82F2002A40F09280A1EBD1
:100778000C014FEA1C471FFA8CFE0126200CB1FB26
:10078800F7F307FB131140EA01410EFB03F088421F
:1007980008D91CEB010103F1FF3802D2884200F2AC
:1007A800CB804346091AA4B2B1FBF7F007FB10113E
:1007B80044EA01440EFB00FEA64508D91CEB0404DC
:1007C80000F1FF3102D2A64500F2BB800846A4EB37
:1007D8000E0440EA03409CE7C6F12007B34022FA22
:1007E80007FC4CEA030C20FA07F401FA06F31C4351
:1007F800F9404FEA1C4900FA06F3B1FBF9F8200C5E
:100808001FFA8CFE09FB181140EA014108FB0EF0A3
:10081800884202FA06F20BD91CEB010108F1FF3AF3
:1008280080F08880884240F28580A8F102086144FF
:10083800091AA4B2B1FBF9F009FB101144EA01410D
:1008480000FB0EFE8E4508D91CEB010100F1FF34B8
:100858006CD28E456AD90238614440EA0840A0FB50
:100868000294A1EB0E01A142C846A64656D353D026
:100878005DB1B3EB080261EB0E0101FA07F722FA4A
:1008880006F3F1401F43C5E9007100263146BDE873
:10089800F087C2F12003D8400CFA02FC21FA03F3D6
:1008A800914001434FEA1C471FFA8CFEB3FBF7F057
:1008B80007FB10360B0C43EA064300FB0EF69E427C
:1008C80004FA02F408D91CEB030300F1FF382FD215
:1008D8009E422DD9023863449B1B89B2B3FBF7F6BD
:1008E80007FB163341EA034106FB0EF38B4208D996
:1008F8001CEB010106F1FF3816D28B4214D9023ED7
:100908006144C91A46EA004638E72E46284605E7F4
:100918000646E3E61846F8E64B45A9D2B9EB0208C5
:1009280064EB0C0E0138A3E74646EAE7204694E755
:100938004046D1E7D0467BE7023B614432E7304688
:1009480009E76444023842E7704700BF684620F070
:1009580007018D46FEE700BF0B480C4A904208B5D8
:1009680003D0121A0A4911F0F1FF0A480A4A9042C4
:1009780003D0121A002111F0F7FF03F0CDFE11F099
:10098800C1FF00F0ADF9FEE700000024F4030024E5
:10099800302D0108F8030024A4380024704700BF54
:1009A800704700BFF7EE006ADFED117A4FF07C5315
:1009B8000022C0ED037A4FF0000C86EE807A4FF0EB
:1009C800013180ED080A036142618361C0ED076A65
:1009D800436082628360C262A0F800C0016467EE6F
:1009E800277A80ED097AC0ED0C7AC0ED0D7A704750
:1009F8000000C8422DE9F0412DED028B82B0064679
:100A0800451E00F128046F46A84615F8013F032B40
:100A180000F2A880DFE803F0955E4C02B0EE007AA1
:100A280094ED008AFFEE007AE8EE077AF1EE677A35
:100A3800C7ED007A94ED027AF7EE006A77EE087A4D
:100A4800F4EEE67AC4ED007AF1EE10FA40F386800F
:100A580077EEE67A0123C4ED007A85F8423037EE66
:100A6800C77AF6EE006AB4EEE67AF1EE10FA73D5BC
:100A7800F4EEE67AF1EE10FAACBF01230023B0459C
:100A880004F1040407F1040785F84030BCD19DED5A
:100A9800010AD8ED026A9DED007A20EE260AD8ED0B
:100AA800017AA7EE270A02B0BDEC028BBDE8F081FF
:100AB80094ED008AF7EE007AD6ED046ABFEE007A6C
:100AC800B4EEE68AF1EE10FA58BFF0EE477AC7EDB9
:100AD800007AAFE794ED008AB6EE004B96ED065A21
:100AE800B0EE007AB7EEC86AFFEE007AB7EEC55AE4
:100AF80036EE446BE8EE077AB0EEC66BB4EEC65B32
:100B0800F0EEE77AF1EE10FA03D5B1EE007AE7EEEF
:100B1800C77A96ED055AB7EEC55AB4EEC65BF1EE44
:100B280010FA03DDB1EE007AE7EE877AF6EE006A96
:100B380096ED077A77EEE67A67EE277AC7ED007AC0
:100B480078E794ED008A9FED0A0A28EE000A11F072
:100B5800A3FD87ED000A6DE7002390E7002385F8E1
:100B680042307CE7002394ED008A3B6062E700BFD7
:100B7800DB0FC9400B78042B28BF002303704B7888
:100B8800042B28BF00234370704700BFD0ED097ABB
:100B980080ED030A20EE270A80ED0C0A80ED0D0A8D
:100BA800704700BFD0ED037AD0ED096A91ED007A65
:100BB80067EEA67A27EE277A80ED0C7A91ED017A16
:100BC80067EE277AC0ED0D7A704700BF0B68436067
:100BD8004B688360704700BFB7EEC00AB1EE004AA9
:100BE800F7EE005AB6EE005AF0EE004AB6EE083BB1
:100BF8009FED0D7B9FED0E6B20EE077BA0EE036B48
:100C0800B7EEC77BE7EE445A80ED057A75EE477A72
:100C1800B7EEC66BC0ED067AC4EEA57A80ED046A1D
:100C2800C0ED077A704700BF9A9999999999C93F79
:100C38009A9999999999A93F704700BF104B114803
:100C480093ED000A70B516460D46FFF79FFF0E4B51
:100C58000C4893ED000AFFF7BFFF86B1002409484E
:100C6800FFF7C8FED5E9000300EB840003EB84031B
:100C7800013480ED000AA64283ED000AEFD170BD71
:100C880074050024880400247805002430B50F205A
:100C980083B000F0DBF803460F4C0222ADF80430B5
:100CA8000199204601F098FB102000F0CFF80B4D79
:100CB800ADF804000222019904F1540001F08CFB04
:100CC800284604230222214601F096FB284603B059
:100CD800BDE8304001F098BDCC0400242C04002469
:100CE80008B5234800F0B0F80021214800F0C2F907
:100CF80004211F4800F0E4F803211D4800F0C0F863
:100D08001B4800F0D9F81B48FFF74CFE1A49194850
:100D1800FFF730FF9FED190A1648FFF737FF18490C
:100D28001448FFF73FFF17491248FFF74FFF1148D4
:100D3800B6EE000A144DFFF74FFF144CFFF7A6FF5D
:100D480013490B4800F098F80021124801F072FD91
:100D5800DFED117A01210F48E0EE277AC5ED007A20
:100D680001F068FD012084ED000A03F0DFFAEBE7EB
:100D78001404002488040024140000240000DC4328
:100D8800040000240C0000247405002478050024C5
:100D9800450C00082C04002400005C4310B52448CE
:100DA80000234FF60B716FF0F414224A436103627B
:100DB800436603678165C0E90A13C0E90F13C0E9F8
:100DC80000341D49C0E90C33C0E91133C0E91733B9
:100DD800C0E9024411F058FC1848FFF7DFFD154A36
:100DE8001749164811F050FC164A02F1A80E0021C6
:100DF8000B24FF20A2F13C0302F8504C42F84C1C93
:100E080002F84F0C42E91211143300214FF00B0C79
:100E1800FF209A4243F8101C03F814CC03F8130C73
:100E280043E90311F0D154327245E0D110BD00BF3F
:100E38001404002400000024410C00088804002445
:100E4800A90900081C050024704700BF202882B0AB
:100E580009D8084B03EB400213F81030507843EAE6
:100E6800002002B0704701230C2043EA002002B0A2
:100E7800704700BFC4290108143001F079BA00BFD7
:100E880038B500F1140504462DED028B284601F013
:100E98001BFA284601F014FA2846B0EE408A01F001
:100EA800FDF9D0ED007AF8EE677A88EE277ABDEC86
:100EB800028B84ED1B7A38BD143001F001BA00BFF3
:100EC80038B500F1140504462DED028B284601F0D3
:100ED800E9F9284601F0F4F92846B0EE408A01F015
:100EE800DDF9D0ED007AF8EE677A88EE277ABDEC66
:100EF800028B84ED1B7A38BD10B540F203338EB0F7
:100F080000244FF60B7240F20341ADF8083009A8EF
:100F18000123ADF81020ADF824202246ADF80C10BE
:100F28000094029907940C94CDE90544CDE90A444C
:100F380001F078FF04A8012322460399009401F0E8
:100F480071FF09A802F054F810B901200EB010BDC5
:100F580004A802F04DF8A0420CBF022020460EB0B3
:100F680010BD00BF2DE9F04103239AB04FF00108EE
:100F780000254FF60B740746CDE91438394BADF808
:100F88004C40CDE91053A3F19F63A3F57D43CDE910
:100F980016581293FFF7B0FF4045064623D00228A3
:100FA80042D040F60132304B07F158000BACADF897
:100FB8002C200B991895CDF86480CDF84A3000F0B4
:100FC800DBF810A907F1700002F082FF274B0FCB66
:100FD80084E80F003A6F214607F1140001F026F962
:100FE8001AB0BDE8F08110231F4A06A906908DF8B3
:100FF80028300BAC1E4BCDF84A2007930295CDE95B
:101008001805CDE9080502A802F082F90823029A1A
:1010180003A92046ADF80C608DF80E500496059390
:101028000B9500F0E9F8CCE740F60133ADF82C4019
:1010380000200BACADF8183001210B4B424600954F
:10104800CDF84A302B460E95CDE918010699204671
:10105800CDE90C5501F0E6FE2946204601F0D4FF03
:10106800AFE700BF04020404040604038029010852
:101078000704010B2DE9F04704462DED028B82B0E1
:10108800002949D0012140F2011200230091ADF856
:1010980004208DF80630354A0127354B04F1040940
:1010A800344904F13C08626040F20272A36040F6E1
:1010B8000663E16004F1280A2285A3872782E76294
:1010C800276403F0DFFA054603F032F9694606465D
:1010D80050BB4DB304F150008DF8067003F054FA7C
:1010E800072D3ED104F114052046FFF73BFF2846A3
:1010F80001F0E6F82846B0EE408A01F0CFF8D0EDCE
:10110800007AF8EE677A88EE277A84ED1B7A02B0C7
:10111800BDEC028BBDE8F08740F2011300918DF819
:101128000610ADF80430B6E704F1500003F02CFACD
:10113800072D13D04946204602F03EFB0EB9002D7C
:10114800D0D15146504601F0A9FC4046414601F035
:10115800A5FC04F1120000F079F9C3E7002EF0D1E4
:10116800C0E74946204602F027FBBBE7050805090A
:1011780005070506050A060630B585B000250446AC
:101188000122ADF80C102B460399009501F04AFE98
:101198000121204601F038FF012003F0C7F8294655
:1011A800204601F031FF012003F0C0F8012120465C
:1011B80005B0BDE8304001F027BF00BF10B5C2F34D
:1011C800002384B00C46017C8DF80D2043EA4402CC
:1011D800FA2402238DF80C2003AA009402F030F9B7
:1011E80018B10124204604B010BD04460A2003F0BB
:1011F8009DF8204604B010BD034670B543F8042B93
:10120800044684B007C983E80700A37983B91A2183
:101218000B461E22FA2523742046ADF80C20022323
:1012280003AA009502F00CF928B1012004B070BDA2
:101238001B210B46EDE70A2003F078F84FF4B8526B
:1012480000950223ADF80C20204603AA217C02F069
:10125800F7F80028E9D10A2003F068F841F2027291
:1012680000950223ADF80C20204603AA217C02F049
:10127800E7F80028D9D10A2003F058F8042200958D
:101288000223ADF80C20204603AA217C02F0D8F8EE
:101298000028CAD10A2003F049F806220095022343
:1012A800ADF80C20204603AA217C02F0C9F80028DA
:1012B800BBD10A2003F03AF841F208220095022334
:1012C800ADF80C20204603AA217C02F0B9F80028CA
:1012D800ABD10A20064603F029F80095022303AA99
:1012E800217C2046ADF80C6002F0AAF800289CD1B9
:1012F800304603F01BF8009522790C232046002A7B
:101308008DF80C3003AA4FF0020314BF622142216A
:101318008DF80D10217C02F093F8002885D1304615
:1013280003F004F82279D4E902310B43DBB20AB99D
:1013380043F0400362790AB143F020030E22FA25F4
:101348008DF80D302046009502238DF80C2003AA55
:10135800217C02F075F800287FF467AF0A2002F0BC
:10136800E5FF102200950223ADF80C20204603AAC1
:10137800217C02F065F800287FF457AF0A2002F0BC
:10138800D5FF122100950223ADF80C1003AA217C89
:10139800204602F055F800287FF447AF0A2002F0F3
:1013A800C5FF012209212046FFF708FF003818BFB2
:1013B80001203BE7F0B5102387B0234C012200251C
:1013C8000126002702A920460195CDE902234FF402
:1013D8008052CDE904670BF08DF9642003F040FBDF
:1013E80002A94FF480522046CDE90467022610274F
:1013F800CDE902670BF07EF90322102302A92046EB
:10140800CDE9022300230422CDE904234FF48052BE
:101418000BF070F940F23223042202A90193102341
:101428002046CDE90223019A012305924FF4805208
:1014380004930BF05FF940F6060120460BF07AF9A9
:10144800284607B0F0BD00BF840500241C4B0022CD
:101458001C494FF0400C30B5054689B00220596050
:1014680007219A601A620124DA620A224FF4006E98
:10147800DC6006922022CDE9000104200821CDE994
:10148800020103201021CDE9040108206946C3E9BF
:1014980004024FF4C072181DC3E906C24FF480520B
:1014A800C3E909E20BF0FCF838B92846FFF782FFD8
:1014B800003818BF012009B030BD204609B030BD42
:1014C8008005002440410052614A0021D0B51368CC
:1014D8008EB00A91002B40F0B9805E4B01214FF687
:1014E80083700C2411600221D3F8D420002603272E
:1014F80042F48052C3F8D420D3F8D42002F48052A6
:101508000092009AD3F8E02042F01002C3F8E020DD
:10151800D3F8E02002F010020192019AD3F8E020FB
:1015280042F04002C3F8E020D3F8E02002F0400285
:101538000292029AD3F8E02042F00802C3F8E020B1
:10154800D3F8E02002F008020392039AD3F8E020CF
:1015580042F48072C3F8E020D3F8E02002F48072ED
:101568000492049AD3F8E02042F08002C3F8E02005
:10157800D3F8E02002F080020592059AD3F8E02023
:1015880042F02002C3F8E020D3F8E02002F0200265
:101598000692069AD3F8E02042F00402C3F8E0204D
:1015A800D3F8E0300C9403F0040307930323079A5D
:1015B8000B93CDE9080108A9274805F0E5FB48F297
:1015C8003712022308A925480C94CDE90823CDE950
:1015D8000A6705F0D9FB4CF20372022308A92048D8
:1015E8000C94CDE90823CDE90A6705F0CDFB40F25C
:1015F800FF62022308A91B480C94CDE90823CDE912
:101608000A6705F0C1FB4FF60C72022308A91648B9
:101618000C94CDE90823CDE90A6705F0B5FB4FF630
:101628003F02022308A911480C94CDE90823CDE90B
:101638000A6705F0A9FB2022022308A90A480C948E
:10164800CDE90A67CDE9082305F09EFB0EB0D0BDB1
:101658007C05002400440258001002580018025863
:10166800000C025800200258001C025800140258AE
:101678002DE9F04FDFF8108406460D46144608F1B0
:1016880018002DED028B89B000AF02F019FDD8F8D3
:10169800183073B3D8F81C30D8F80490002B43697D
:1016A8000BBF4FF0080A4FF0100A4FF0020B4FF033
:1016B800040BB9F1000F2AD0A200EA46012B02F16F
:1016C800070222F00702ADEB020D6846ADEB020DF2
:1016D800694600F03F81022B00F0D680002B6FD0C6
:1016E8002246C847D5462437BD46BDEC028BBDE827
:1016F800F08FD8F81C30002BF5D0D8F804904FF0B4
:10170800080A4FF0020B4369B9F1000FD4D1FB610D
:10171800D8F80030BB61002BE5D0D54802F042FD77
:101728006B46BBF1020F786108EE103AFB6900F0D6
:1017380083816A465146A2EBC40295466200EA4696
:10174800B2FBFBF2AAEBC40085460AEB8200EE4628
:10175800F861ADEB010DF8690EEB820CC7F810C00B
:10176800EC46ADEB010D00EB8201CCF80400CCF89F
:10177800081001EB82013869E946CCF80C1000EB3F
:101788008201CCF800A001EB8202C9E900E0C9E9B6
:101798000212012B00F06483022B00F06C82002BF4
:1017A80000F08081620849466046BB69984718EE98
:1017B800103A24379D46BD46BDEC028BBDE8F08F3C
:1017C800002C8DD01A46D8ED0C6A9FEDB27A84466B
:1017D800331D36F922E00CF1080C07EE90EA33F9D4
:1017E80022E00232F8EEE77A944267EE877A67EEF3
:1017F800A67A4CED027A07EE90EAF8EEE77A67EE01
:10180800877A67EEA67A4CED017AE2D8F96122462A
:10181800C847984ED8ED0D6A0020F9692B1D9FED39
:101828009E7A9FED9E6ADFED9E5A22E0F4EEC67A1C
:10183800F1EE10FAC0F2C88447F6FE72D1ED017AD3
:1018480045F8202066EEA77AF4EEC77AF1EE10FA92
:1018580040F2F080F4EEC67AF1EE10FAC0F2D584C8
:1018680047F6FE7243F820200230083184427FF6A2
:1018780039AFD1ED007A66EEA77AF4EEC77AF1EEC9
:1018880010FAD3D83246D9E7002C3FF429AFD8ED67
:101898000C6A84469FED787A0022331D8E4656F8EE
:1018A80022100CF1080C07EE901A53F8221002329D
:1018B800F8EEE77A944267EE877A67EEA67A4CEDFF
:1018C800027A07EE901AF8EEE77A67EE877A67EE03
:1018D800A67A4CED017AE2D871462246C7F81CE098
:1018E800C847664ED8ED0D6A0020F9692B1D9FED9B
:1018F8006A7A9FED6A6ADFF894C120E0F4EEC67A4E
:10190800F1EE10FAC0F279843246D1ED017A45F849
:10191800202066EEA77AF4EEC77AF1EE10FA40F2CC
:101928008780F4EEC67AF1EE10FAC0F25E84324691
:1019380043F820200230083184427FF6D3AED1ED3F
:10194800007A66EEA77AF4EEC77AF1EE10FAD5D8E7
:101958006246DAE7002C3FF4C3AED8ED0C6A86463F
:101968009FED477A4FF0000C331D56F82C200EF1EE
:10197800080E82F40002A2F5000207EE902A53F83E
:101988002C200CF1020CF8EEE77A82F40002644590
:10199800A2F5000267EE877A67EEA67A4EED027A24
:1019A80007EE902AF8EEE77A67EE877A67EEA67A6E
:1019B8004EED017AD9D8F9612246C847314ED8EDA3
:1019C8000D6A0020F9692B1D9FED337A9FED336A6C
:1019D800DFF8BCC01FE0F4EEC67AF1EE10FAC0F2F0
:1019E800FC833246D1ED017A45F8202066EEA77ACD
:1019F800F4EEC77AF1EE10FA18D9F4EEC67AF1EEE1
:101A080010FAC0F2DA83324643F820200230083157
:101A180084427FF667AED1ED007A66EEA77AF4EEDF
:101A2800C77AF1EE10FAD6D86246DBE76246EBE7F2
:101A380062467DE7324615E7A100D64662080731BF
:101A480021F00701ADEB010DEA46ADEB010D69464A
:101A5800ADEB0E0D0AEB8200EC46ADEB0E0D01EB83
:101A68008202F861E946CCE900A0C9E9001290E6D3
:101A7800D40500240280FFFF000000300082FF7FB1
:101A88000000003482FF7F00B8050024007E00803B
:101A98007E0080FF0000003804FF7FBF04FF7F3F07
:101AA80000FEFF46002C00F0C982BBF1020FD8F8F7
:101AB800242000F0FA827969C7F8049002EB810EBD
:101AC8005FED0C5A8A00DCF808100EF104007A6108
:101AD8001A46DCF80C303B61331DD7F810903D6195
:101AE800FD69C7E902CB8C46834636F92210D8ED4A
:101AF8000C7A06EE101A33F9221006EE901A3EF907
:101B08002210B8EEC66A07EE101AF8EEE66A3BF93C
:101B18002210B8EEC77A26EE256A66EEA56A27EE89
:101B2800257A26EE276A66EEA76A27EE277A07EE59
:101B3800901A51080232F8EEE77A0AEB81009442D3
:101B480080ED006A05EB810067EEA57AC0ED006ABA
:101B58000CEB810009EB810180ED007A98ED0C7A9D
:101B680067EE877AC1ED007ABFD8D7F804903D694F
:101B7800D7E902CB60466208BB6949469847D8F85E
:101B88002C307A69D8ED0D6A1A441FED3D7A1FEDA5
:101B98003D6A2B1D904602F1040A5FED3F5A002270
:101BA800A84ED9E900EC51E0F4EEC67AF1EE10FA4D
:101BB800C0F2C78247F6FE7045F822000CEB010020
:101BC800D0ED007A66EEA77AF4EEC77AF1EE10FA55
:101BD8004BD9F4EEC67AF1EE10FAC0F2BA8247F6A3
:101BE800FE70BBF1020F43F822002BD0D9F8080091
:101BF8000844D0ED007A66EEA77AF4EEC77AF1EEE3
:101C080010FA36D9F4EEC67AF1EE10FAC0F2CD82A7
:101C180047F6FE7048F82200D9F80C000144D1EDCF
:101C2800007A66EEA77AF4EEC77AF1EE10FA1ED9BA
:101C3800F4EEC67AF1EE10FAC0F2AF8247F6FE7102
:101C48004AF82210023294427FF6B1AD51080EEBE9
:101C580081008900D0ED007A66EEA77AF4EEC77AA3
:101C6800F1EE10FAA0D83046A6E73046B9E731467B
:101C7800E6E73046CEE7002C00F0E081BBF1020F2A
:101C8800D8F8243000F0E1817A69DCF8081003EB19
:101C9800820EC7F804909300DFED6B5A0EF1040032
:101CA80000227B61DCF80C303B61331DD7F81090C3
:101CB8003D61FD69C7E902CB8C46834656F8221080
:101CC800D8ED0C7A07EE101A53F82210B8EEC76A4E
:101CD80007EE101A5EF82210F8EEC76A07EE101A1F
:101CE80026EE256A5BF82210B8EEC77A66EEA56A7A
:101CF80026EE276A27EE257A66EEA76A27EE277A68
:101D080007EE901A51080232F8EEE77A0AEB8100E2
:101D1800944280ED006A05EB810067EEA57AC0ED7C
:101D2800006A0CEB810009EB810180ED007A98EDE7
:101D38000C7A67EE877AC1ED007ABFD8D7F804909D
:101D48003D69D7E902CB60466208BB6949469847B6
:101D5800D8F82C307A69D8ED0D6A1A449FED3E7A8E
:101D68009FED3E6A131D9246DFF8E4C00022FB6136
:101D78002B1D364ED9E9008E4EE0F4EEC67AF1EE10
:101D880010FAC0F2FC81304645F822000EEB010043
:101D9800D0ED007A66EEA77AF4EEC77AF1EE10FA83
:101DA80049D9F4EEC67AF1EE10FAC0F2EF81304666
:101DB800BBF1020F43F822002AD0D9F808000844E2
:101DC800D0ED007A66EEA77AF4EEC77AF1EE10FA53
:101DD80035D9F4EEC67AF1EE10FAC0F2C981304670
:101DE8004AF82200D9F80C000144D1ED007A66EED9
:101DF800A77AF4EEC77AF1EE10FA1ED9F4EEC67A95
:101E0800F1EE10FAC0F2AD813146F86940F82210BF
:101E1800023294427FF6CBAC510808EB810089006E
:101E2800D0ED007A66EEA77AF4EEC77AF1EE10FAF2
:101E3800A3D86046A8E76046BAE76146E5E760468A
:101E4800CEE700BF0280FFFF000000300082FF7F66
:101E5800007E00800000003404FF7FBF04FF7F3F46
:101E6800002C00F0EB807A690021D8F82430C7F8FC
:101E7800109003EB820ED7F81C909300FD610EF1D1
:101E880004021FED0C6A7B61331D154656F82120AC
:101E98004808D8ED0C6ABBF1020F82F40002A2F5E3
:101EA800000207EE902A53F8212082F40002B8EECF
:101EB800E77AA2F5000227EE067A07EE902A0AEBE7
:101EC8008002F8EEE77A27EE267A67EE867A82EDC8
:101ED800007A09EB80024FEA800067EEA67AC2ED2D
:101EE800007A27D05EF8212082F40002A2F50002D1
:101EF80007EE902A55F8212082F40002B8EEE77A1E
:101F0800A2F5000227EE067A07EE902ADCF80820F0
:101F1800F8EEE77A024427EE267A67EE867A82EDB3
:101F2800007A98ED0C7ADCF80C2067EE877A024488
:101F3800C2ED007A02318C42A8D8D7F810906046DA
:101F48006208BB694946FD699847D8F82C307A6918
:101F5800D8ED0D6A1A441FED407A1FED406A131D33
:101F68009246DFF8C4C20022FB612B1DAB4ED9E9B3
:101F7800008E4EE0F4EEC67AF1EE10FAC0F2C5809B
:101F8800304645F822000EEB0100D0ED007A66EEEF
:101F9800A77AF4EEC77AF1EE10FA49D9F4EEC67AC8
:101FA800F1EE10FAC0F2BF803046BBF1020F43F8E1
:101FB80022002AD0D9F808000844D0ED007A66EE4D
:101FC800A77AF4EEC77AF1EE10FA35D9F4EEC67AAC
:101FD800F1EE10FAC0F2AE8030464AF82200D9F885
:101FE8000C000144D1ED007A66EEA77AF4EEC77AC8
:101FF800F1EE10FA1ED9F4EEC67AF1EE10FAC0F23C
:102008008B803146F86940F82210023294427FF6FC
:10201800CEAB510808EB81008900D0ED007A66EE5E
:10202800A77AF4EEC77AF1EE10FAA3D86046A8E7CB
:102038006046BAE76146E5E76046CEE7224649468C
:102048006046BB699847FFF7B2BBC7F810B00022DB
:1020580098ED0C6A331DDFED726AD7F81CB0786909
:1020680056F8221007EE901A53F82210B8EEE77AC5
:1020780007EE901A51080232F8EEE77A27EE267A30
:102088000AEB810E94420BEB810167EEA67A27EEEC
:10209800067A67EE867A8EED007AC1ED007ADFD88F
:1020A8008300D7F810B07B614DE61A46C7F810B028
:1020B80098ED0C6A331DDFED5B6AD7F81CB07869C0
:1020C80036F9221007EE101A33F9221007EE901A8B
:1020D800B8EEC77A51080232F8EEE77A27EE267A88
:1020E8000AEB810E94420BEB810167EEA67A27EE8C
:1020F800067A67EE867A8EED007AC1ED007ADFD82F
:102108008300D7F810B07B6134E5F0EE675AFEEE35
:10211800E45A15EE900A34E7F0EE675AFEEEE45AF8
:1021280015EE901A6EE7F0EE675AFEEEE45A15EED9
:10213800900A3AE7F0EE675AFEEEE45A15EE900A76
:102148004BE767EEA57AFDEEE77A17EE900A00B244
:1021580032E567EEA57AFDEEE77A17EE900A00B24F
:102168003FE5F0EE675AFEEEE05A15EE901A4CE69F
:10217800F0EE675AFEEEE05A15EE900A30E6F0EE01
:10218800675AFEEEE05A15EE900AFDE5F0EE675A42
:10219800FEEEE05A15EE900A0AE667EEA57AFDEE25
:1021A800E77A17EE901A09B24AE567EEA57AFDEECE
:1021B800E77A17EE900A00B22CE5F0EE675AFEEEC9
:1021C800E45A15EE902A1FE467EEA57AFDEEE77A49
:1021D80017EE902A12B2FFF731BBF0EE675AFEEE07
:1021E800E45A15EE902AFFF7FDBBF0EE675AFEEEB3
:1021F800E05A15EE902AFFF79BBBF0EE675AFEEE09
:10220800E05A15EE902AFFF780BB67EEA57AFDEE3F
:10221800E77A17EE902A12B2FFF724BB82FF7F00FD
:1022280000000030000000387E0080FF30B5184CF8
:10223800154685B0046004F1080EEC460FC98EE817
:102248000F00D4ED047AF5EEC07A8CE80F00F1EEB9
:1022580010FA1ADDB7EE006A94ED057A27EE277AB0
:10226800C6EE276A84ED0D7AC4ED0C6A6DB120467E
:1022780040F8185F01F024FF064903690020064A68
:102288002162A262E36005B030BD012005B030BD17
:10229800B805002400200030000000300068083035
:1022A800704700BFB1F5807F03680A4628BF4FF426
:1022B8008072B1F5807F9A6094BF0020012070473A
:1022C8000068183001F05CBF70B504688AB0A36973
:1022D800E1600BB304F118056FF0F4134FF60B72BD
:1022E8002846ADF80C20CDE9013301F0E9FE84461B
:1022F800EE46E668BCE80F00AEE80F00BCE80F0049
:10230800AEE80F009CE803008EE803006946284603
:10231800049601F0DDFD38BBE06918B304F11C0533
:102328006FF0F4134FF60B722846ADF80C20CDE988
:10233800013301F0C5FE8446EE46E468BCE80F00B0
:10234800AEE80F00BCE80F00AEE80F009CE8030001
:102358008EE8030069462846049401F0B9FD003868
:1023680018BF01200AB070BD01200AB070BD00BFBF
:1023780030B5046883B00D46E3694BB1A36800200B
:10238800E26A616A9B00009004F11C0001F09AFE69
:10239800A3680748A26A9B00216A009004F118000C
:1023A80001F090FE0020C4E9005003B030BD00BF2A
:1023B8007916000810B4074B4FF07E5130240022E4
:1023C800032019619C60D8605DF8044B5961C3E92A
:1023D80006227047B805002410B4002383B00324F4
:1023E800018080F8503080F85120C0E9014303B0E3
:1023F8005DF8044B704700BF2DE9F04FBE4F002435
:10240800BE4D8DB0037007F140034260804616460A
:102418008946202221463846C5F88835C5F884758E
:10242800CDE90244CDE90444CDE90644CDE90844A8
:10243800CDE90A4410F098FA2022214605F26250AC
:10244800C5F85145C5F85545C5F85945C5F85D4520
:1024580010F08AFA85F85065D8F8043085F868468F
:10246800002B62D005F5AA6A09F1500B264609EB44
:10247800040128195222013610F068FA4FF00003BF
:1024880027F8023B1BF804300AF8013F002B70D0F4
:10249800D8F804304FF0010254349E4285F868267B
:1024A800E5D3974A082195F850350026C5F88C25BC
:1024B8004FF4802293480027C5F8A4350023C5F8B7
:1024C80090250122C5F89C1595F86816C5F894352D
:1024D80085F8A035C5F89825C0E9006700293ED0E1
:1024E800C5F8B82585F8A13585F8A835002298F8EB
:1024F8000030C5F8BC25C5F8C025002B40D0012206
:1025080000200121013B85F8C4257F4AC2E900016A
:10251800082B37D8DFE813F0BD00C200C700CC0095
:10252800D100D600DB00E100E800C5F89435F6B22A
:1025380085F8A0350020724B0021C5F8A465C5F8C0
:102548008C354FF48023C5F890350123C5F89835AC
:102558000823C5F89C3505F5B663C3E900010123D6
:1025680085F8A135002385F8A8350323C5F8B835C3
:10257800BCE7D8F804305434B3423FF678AF90E75C
:1025880085F8C435614802F0CFFE034608B1FFBEA6
:10259800FEE702A95D48029303F026F804460028E6
:1025A80075D1042340F2FF720A90CDE9082395F80B
:1025B8005035002B00F0F58006234FF054090193A5
:1025C80009FB045393F85130072B07D8DFE803F0D1
:1025D800595C5653504D4A040723079326B206EB1D
:1025E8004606C6EBC60605EB8608B700404600F06F
:1025F8003BFB09FB045393F85030042B00F3AD80E8
:10260800022B00F3C08000F0BC802B19002283F855
:10261800402515F8262098F80130002A7CD0022A97
:1026280000F08D80012A40F0B480012B00F0B380C7
:10263800002B374B18BF0023059305A9019B33488E
:10264800069302F071FA002840F0AE80013495F844
:102658005035E4B2A34240F2A4802E4B53F8243004
:102668000193ADE706230793B8E705230793B5E77A
:1026780004230793B2E703230793AFE702230793E3
:10268800ACE700230793A9E701230793A6E7FFBE5A
:10269800FEE70320402142E9020173E70720602199
:1026A80042E902016EE70F20802142E9020169E751
:1026B8001F20A02142E9020164E73F20C02142E92E
:1026C80002015FE77F20E02142E902015AE7FF208B
:1026D8004FF4807142E9020154E740F2FF104FF4D1
:1026E800907142E902014DE740F2FF304FF4A071CA
:1026F80042E9020146E700BF00400030F00500242F
:1027080000200240A00B0024C00B00247C0B0024F6
:102718000002B025082A0108062B36D0072B3CD02A
:10272800022B49D0032B49D0002B4BD0012B47D08B
:10273800042B49D0052B254B18BF00237CE7042B1D
:1027480025D0052B2BD08BB3012B31D0022B31D0C8
:10275800032B1F4B18BF00236EE70323143705EB29
:10276800040B4FF0000A2F448BF8403538460AF125
:10277800010A00F079FA9BF8403514375345F5DC27
:1027880047E70123EAE70223E8E7124B54E7124B35
:1027980052E7002350E7114B4EE7114B4CE7114B22
:1027A8004AE70DB0BDE8F08FFFBEFEE70E4B43E7EA
:1027B8000E4B41E70E4B3FE70E4B3DE70E4B3BE719
:1027C8000E4B39E70E4B37E70E4B35E70000B84F95
:1027D800002090360800900C1000C0102000F01463
:1027E8008000501D000180210004002A0008302EBE
:1027F800001060320040C03A0080F03E00005247AE
:10280800000021430000844B38B5094C40F2FF72A8
:102818004FF0011104F28C55284602F093FE94F80B
:102828005025D4F884152846BDE8384002F0F2BB9C
:10283800F0050024064B0F29D3F8843598BF03EB25
:1028480041031B8800EE103ABBEEC80A704700BF70
:10285800F0050024244B02689A4200D07047234AAE
:1028680000232348D2F8D81030B5224C41F020017B
:1028780083B0C4F8F0050920C4F8F83504F5BE653E
:10288800C4F8F4054FF48060C2F8D8104FF4006122
:10289800D2F8D820C4F8000694F8680602F020029E
:1028A800C4F8FC3598420192C4F804164FF400515C
:1028B800C4F810362846C4F81436019B14BF002308
:1028C8004FF48073C4F80816C4F80C3603F0B8F84F
:1028D80008B1FFBEFEE704F28C53C4F8D855C4F81B
:1028E800283603B030BD00BF002002400044025823
:1028F80040000240F0050024014803F0F3BE00BF89
:10290800E00B002402682DE9F84F504B9A4201D0A1
:10291800BDE8F88F4E4D95F86836002BF8D095F83D
:102928005035002B7BD0002405F13C0905F2625696
:1029380005F5AA67A04613E003F0010117F811BCDA
:10294800A9F1280000F060FBBBF1010F25D895F82C
:102958005035013409F154090236A2B293422BD9F9
:1029680017F8012F002AF4D0D5F8843500213278E1
:1029780033F81400D5F8883503EB041323F8120054
:10298800338801339BB233805FFA83FA3A789A42EC
:10299800D2D88A46A6F80080D0E7CAF34001A9F148
:1029A800140000F031FBBBF1020FCAF38001CED056
:1029B800484600F029FBCAE7002395F86806254930
:1029C80009229842C5F8F8354FF48060C5F8F0152B
:1029D800C5F8F4254FF400614FF40052C5F8FC35F2
:1029E80008BF4FF48073C5F80006C5F80416C5F88B
:1029F800082600221848C5F80C36C5F81026C5F870
:102A0800142603F01DF808B1FFBEFEE795F850251F
:102A1800D5F884151148BDE8F84F02F0FBBA0D4906
:102A280009224FF48060C5F8F835C5F8F0154FF461
:102A38000061C5F8F4254FF40052C5F8FC35C5F817
:102A48000006C5F80416C5F80826D2E7002002409B
:102A5800F005002440000240E00B00247C0B002419
:102A6800704700BF0C4B4FF60B71002203F5A860AE
:102A78001980DA6099821A6219855A6399879A646B
:102A8800C3E90122C3E90622C3E90B22C3E91022E4
:102A980054339842ECD17047F005002484460FC99E
:102AA8008CE80F009CF800300B2B30D09CF80120EC
:102AB8000F2A2CD8022900B591B041D0032902D0A1
:102AC800012900D000210C91DCF80810012902D05E
:102AD800022918BF00210D91DCF80C10022904D03E
:102AE800032902D0012918BF00210A2B0E910FD803
:102AF8005B4800EB8320CCF810000A2B17D8DFE8DE
:102B080003F0A0928476685A4C3E30220900704740
:102B18000020F0E7534BD3F8E01041F48061C3F88C
:102B2800E010D3F8E03003F480630A930A9B012392
:102B38000BA993400B9304F027F911B05DF804FB3F
:102B480011210C91C0E7474BD3F8E01041F4007114
:102B5800C3F8E010D3F8E03003F400730993099B3D
:102B6800E5E7404BD3F8E01041F48071C3F8E0107A
:102B7800D3F8E03003F480730893089BD7E7394B08
:102B8800D3F8E01041F08001C3F8E010D3F8E0304A
:102B980003F080030793079BC9E7324BD3F8E01093
:102BA80041F04001C3F8E010D3F8E03003F04003EF
:102BB8000693069BBBE72B4BD3F8E01041F02001AE
:102BC800C3F8E010D3F8E03003F020030593059B29
:102BD800ADE7244BD3F8E01041F01001C3F8E01042
:102BE800D3F8E03003F010030493049B9FE71D4BD8
:102BF800D3F8E01041F00801C3F8E010D3F8E03052
:102C080003F008030393039B91E7164BD3F8E010F6
:102C180041F00401C3F8E010D3F8E03003F00403F6
:102C28000293029B83E70F4BD3F8E01041F00201B7
:102C3800C3F8E010D3F8E03003F002030193019BDE
:102C480075E7084BD3F8E01041F00101C3F8E01034
:102C5800D3F8E03003F001030093009B67E700BF5F
:102C6800000002580044025803780B2B2DD04278FC
:102C78000F2A2AD84168022910B590B03ED00329FE
:102C880002D0012900D000210C918168012902D0CD
:102C9800022918BF00210D91C168022904D0032917
:102CA80002D0012918BF00210A2B0E910ED85B4CC7
:102CB80004EB832404610A2B17D8DFE803F009A08A
:102CC800928476685A4C3E30220070470024F1E71F
:102CD800534BD3F8E01041F00101C3F8E010D3F8EA
:102CE800E03003F001030093009B01230BA9204669
:102CF80093400B9304F048F810B010BD11210C91CB
:102D0800C3E7474BD3F8E01041F48061C3F8E01003
:102D1800D3F8E03003F480630A930A9BE5E7404B5D
:102D2800D3F8E01041F40071C3F8E010D3F8E030B4
:102D380003F400730993099BD7E7394BD3F8E010E4
:102D480041F48071C3F8E010D3F8E03003F48073E5
:102D58000893089BC9E7324BD3F8E01041F0800193
:102D6800C3F8E010D3F8E03003F080030793079B23
:102D7800BBE72B4BD3F8E01041F04001C3F8E0105B
:102D8800D3F8E03003F040030693069BADE7244BED
:102D9800D3F8E01041F02001C3F8E010D3F8E03098
:102DA80003F020030593059B9FE71D4BD3F8E01024
:102DB80041F01001C3F8E010D3F8E03003F010033D
:102DC8000493049B91E7164BD3F8E01041F00801F7
:102DD800C3F8E010D3F8E03003F008030393039B33
:102DE80083E70F4BD3F8E01041F00401C3F8E0107B
:102DF800D3F8E03003F004030293029B75E7084B15
:102E0800D3F8E01041F00201C3F8E010D3F8E03045
:102E180003F002030193019B67E700BF000002581B
:102E28000044025810B592B0ADF804100180C9B240
:102E3800149C0B29C460C0E901233FD090F801C05D
:102E4800BCF10F0F3AD8022A3FD0032A02D0012A38
:102E580000D000220E92012B02D0022B18BF0023B3
:102E6800022C0F932CD0032C2AD0012C28D000231D
:102E78000A29109327D85C4A02EB812202610A29A9
:102E880014D8DFE801F0A39587796B5D4F413325AE
:102E98000600564BD3F8E01041F48061C3F8E01007
:102EA800D3F8E03003F480630C930C9B01230DA945
:102EB800104603FA0CF30D9303F066FF12B010BD31
:102EC8000A291094D7D90022D8E711220E92C2E716
:102ED800464BD3F8E01041F40071C3F8E010D3F882
:102EE800E03003F400730B930B9BDFE73F4BD3F801
:102EF800E01041F48071C3F8E010D3F8E03003F437
:102F080080730A930A9BD1E7384BD3F8E01041F05D
:102F18008001C3F8E010D3F8E03003F08003099390
:102F2800099BC3E7314BD3F8E01041F04001C3F8E7
:102F3800E010D3F8E03003F040030893089BB5E7AE
:102F48002A4BD3F8E01041F02001C3F8E010D3F881
:102F5800E03003F020030793079BA7E7234BD3F840
:102F6800E01041F01001C3F8E010D3F8E03003F0AE
:102F780010030693069B99E71C4BD3F8E01041F029
:102F88000801C3F8E010D3F8E03003F00803059314
:102F9800059B8BE7154BD3F8E01041F00401C3F80B
:102FA800E010D3F8E03003F004030493049B7DE7BA
:102FB8000E4BD3F8E01041F00201C3F8E010D3F84B
:102FC800E03003F002030393039B6FE7074BD3F84A
:102FD800E01041F00101C3F8E010D3F8E03003F04D
:102FE80001030293029B61E7000002580044025863
:102FF80008B5012143780069994089B204F0C6F800
:10300800003818BF012008BD01230A46417800692D
:1030180003FA01F189B204F0BFB800BF10B500236C
:1030280086B0122204460493CDE902230368022BDA
:103038001FDC002B01DB0423059323790A2B1FD8FF
:10304800114800EB83206279012301A99340019381
:1030580003F09AFEA3790A2B14D80B4800EB8320BF
:10306800E279012301A99340019303F08DFE06B094
:1030780010BD032BE1D10623059323790A2BDFD951
:103088000020E0E70020EBE700000258634A0368ED
:10309800934210B58CB028D0614A934258D0614A07
:1030A800934200F09480604A934201D00CB010BD66
:1030B8005E4C5F48D4F8E03043F00203C4F8E030D7
:1030C800D4F8E03003F002030A930A9BFFF7A6FF47
:1030D800D4F8F43043F08003C4F8F430D4F8F43072
:1030E80003F080030B930B9BE0E7504C5148D4F856
:1030F800E03043F00203C4F8E030D4F8E03003F0E5
:1031080002030193019BFFF789FFD4F8E8300022FE
:103118001F2043F400131146C4F8E830D4F8E8300F
:1031280003F400130293029BD4F8D83043F0010350
:10313800C4F8D830D4F8D83003F001030393039BC4
:1031480002F0CCFA1F200CB0BDE8104002F004BB1E
:10315800364C3948D4F8E03043F08003C4F8E03006
:10316800D4F8E03003F080030493049BD4F8E030F3
:1031780043F00203C4F8E030D4F8E03003F002036F
:103188000593059BFFF74AFFD4F8E8300022212079
:1031980043F480031146C4F8E830D4F8E83003F467
:1031A80080030693069BD4F8D83043F00103C4F893
:1031B800D830D4F8D83003F001030793079B02F006
:1031C8008DFA21200CB0BDE8104002F0C5BA1B48AA
:1031D800FFF724FF154B00224820D3F8E84011469A
:1031E80044F40004C3F8E840D3F8E84004F40004C9
:1031F8000894089CD3F8D84044F00104C3F8D84098
:10320800D3F8D83003F001030993099B02F066FA5A
:1032180048200CB0BDE8104002F09EBA00540040AF
:1032280000580040005C0040001C00580044025850
:10323800000F0024600C0024400D0024200E002400
:103248002DE9F0431A4B87B000254FF010099E4630
:10325800EC46184BFF22E04667461A700EF1180636
:103268000EF13004CDE90055CDE90255ADF80090D6
:10327800BCE80F00CDE90455AEE80F009CE8030058
:103288000095ADF800908EE80300B8E80F000FC66F
:103298009CE803000095ADF8009086E803000FCF86
:1032A8000FC49CE8030084E8030007B0BDE8F0837E
:1032B800180000245C0C002410B5EFF3108472B6DB
:1032C800084B1A78120602D504B962B610BD1878F0
:1032D800054B40B2C0EBC00003EB4010143003F0C4
:1032E80001FAF1E75C0C0024600C0024014805F0A9
:1032F8008DB800BFEC0C0024014805F087B800BF6A
:10330800CC0D0024014805F081B800BFAC0E0024A4
:103318002DE9F0430D6885B0404EC5EBC503032D7C
:103328004FEA431706EB4313036041DCCA680C46B7
:10333800012A3DD84FEAC5084CD020689C466168F0
:10334800A8EB0509A2680DF1100EE36806EB491910
:10335800ACE80F00324B227C8CF80020D9F808C06A
:103368000FCB0EE90F000EEB8503BCF1010F53F8EC
:10337800103CC9F88C3032D0BCF1020F43D0BCF1FC
:10338800000F36D0227C8C37A8EB05050023374484
:10339800520006EB451601213846C6F8AC30C6E99E
:1033A8002521C6E92733C6E9293304F0F1FC18B111
:1033B800012005B0BDE8F0830146384605F032F833
:1033C8000028F5D10146384605F056F8003818BFF0
:1033D8000120EEE70A7C103A672AAED9E8E701F047
:1033E8004FF9104B98420CBF0F4B104BC9F8903057
:1033F800C8E701F045F90B4B98420CBF0C4B0D4B3D
:10340800C9F89030BEE701F03BF9064B98420CBF73
:10341800094B0A4BC9F89030B4E700BF600C002490
:1034280090290108000E27072D0FB0303211D02047
:103438005F4390608A62E030200BA0101A09801068
:103448002DE9F041D0F8008082B00D4617461E469F
:1034580008F18C04204604F0E1FF2028FAD1D8F8BE
:103468000C3073B96D002046089C33463A46A9B221
:10347800009404F0E3FC003818BF012002B0BDE856
:10348800F081089B32463946204604F095FEF2E763
:10349800094B6FF0F41110225960C3F8E4101A7444
:1034A80083F8F020C3F8C41183F8D021C3F8A4121C
:1034B80083F8B022704700BF600C002430B50023A9
:1034C80095B04FF48071062204460B93069213932D
:1034D800CDE90C13CDE90E33CDE9113301F0D2F863
:1034E80007282BD004F1100541F2883206A9284696
:1034F80006F000F828B10123184684F85C3015B0AE
:1035080030BD0222022306A92846CDE90023102255
:103518000123CDE9022300224FF48003CDE90423DF
:1035280005224FF0807306926A460F9341F2883362
:1035380006F04CF90028DED115B030BD0323012078
:1035480084F85C3015B030BD70B50023A4B04FF0DE
:1035580080724FF480750446ADF806300D93CDE9BE
:1035680010320122CDE90E53CDE91223CDE91433EF
:10357800002943D0F02300F1100508AEADF806305D
:10358800C02341F2883231462846089305F0B2FF3D
:1035980028B10123184684F85C3024B070BD41F28C
:1035A80088320DF10601284606F00EF80346002879
:1035B800EFD105224FF480711E93284616924FF0E2
:1035C80080721B9321931F9202AA9FED1F7BCDE966
:1035D8001C13CDE922338DED027B9FED1D7B41F25B
:1035E800883316A98DED047B9FED1B7B8DED067B43
:1035F80006F0ECF80028CCD124B070BD00F110051D
:1036080008AE612341F2883231462846089305F016
:1036180071FF0028BDD141F288320DF1060128461C
:1036280006F050F80028B4D1BDF80630204623F043
:10363800780343F04003ADF80630FFF73FFF00285A
:103648009ED0A6E7AFF30080000000000100000054
:103658001000000001000000000000000000400011
:103668002DE9F04F00234FF4807501264FF0807844
:1036780004462DED028BABB08DF8073013932193E0
:10368800299314950E96CDF85C80CDE91533CDE9D4
:103698001863CDE91A33CDE92253CDE92433CDE9B6
:1036A800273306231C9300F0EDFF072808D004F108
:1036B800100741F288321CA9384605F01BFF40B1BB
:1036C8000123184684F85C302BB0BDEC028BBDE8B2
:1036D800F08F4FF0020A4FF0020B4FF0050941F24C
:1036E800883308AA1CA93846CDF89480CDF8709084
:1036F8009FED2D8BCDE908AB4FF0000A4FF4800BFE
:103708008DED0A8BCDE90CAB06F060F80028D7D117
:1037180041F2883238460EA905F0ECFE0028CFD1D8
:10372800402341F288320DF1070138468DF8073001
:1037380005F04AFF0028C3D141F288330EA902AA36
:103748003846CDF83890CDF85C809FED197B8DED2B
:10375800048BCDE906AB8DED027B06F037F8034606
:103768000028ADD1CDF870904FF00109CDF89480C4
:103778004FF00008219308AA29931CA938462295DE
:10378800CDE92333CDE9273341F288338DED0A8B18
:10379800CDE90CABCDE9088906F018F8002893D0DC
:1037A800304684F85C608FE71000000001000000DC
:1037B8004000000040000000F0B55F4CA3B00D468B
:1037C800046000F05FFF072844D028682346AA68F1
:1037D800696807C3AA89184620F8042B257B667BED
:1037E80005F076FE80BB554A012DE06122614FF05D
:1037F800010214BF4FF480134FF4000393FAA3F3AC
:10380800C4E90522002B00F08880B3FA83F3013B5A
:1038180000224FF480774A48C4E90837C4E90B22EC
:1038280005F0FAFD80B966230B90139041F28832B7
:1038380006A90693CDE90C70CDE90E00CDE911007B
:103848003F4805F057FE58B10123184684F85C300C
:1038580023B0F0BD0323012084F85C3023B0F0BD11
:10386800992341F2883206A93548069305F042FEAD
:103878000028E9D105231C9019906A4614934FF04B
:103888008073219014A91D9341F288339FED247B06
:10389800CDE91A70CDE91F008DED007B9FED227BED
:1038A80027488DED027B9FED227B8DED047B05F093
:1038B8008DFF0028C8D129461F48FFF745FE00287C
:1038C800C2D11D48FFF7CCFE0028BDD1002EBFD1C4
:1038D8001890EB2300261A9714934FF4406300279F
:1038E80006AA1B934FF4404314A91C930623CDE961
:1038F8001F004FF08050199321904FF040701D9099
:103908004FF400501790A02016900D48CDE9066797
:1039180005F0D4FF00289BD096E71F2378E700BF67
:10392800000000000100000010000000010000007D
:103938000000000000004000E00F0024005000528A
:10394800F00F00243F4B02682DE9F0439A428DB0F6
:103958004FF00004CDE90744CDE909440B9402D0A7
:103968000DB0BDE8F083384B05AD38490DF11A07A5
:10397800D3F8D4200126DFF8D89042F48042DFF84B
:10398800D480C3F8D420D3F8D42002F48042009223
:10399800009AD3F8E02042F04002C3F8E020D3F8C0
:1039A800E02002F040020192019AD3F8E02042F0B0
:1039B8002002C3F8E020D3F8E02002F020020292AF
:1039C800029AD3F8E02042F01002C3F8E020D3F8BE
:1039D800E02002F010020392039AD3F8E02042F0AC
:1039E8000202C3F8E020D3F8E03003F002030493A6
:1039F800049B03C90590ADF8181059F8043F00203E
:103A080007A91A785B780A2A099406FA03F398BF7B
:103A180008EB822015F8012B079302230B920893D9
:103A280003230A9303F0B0F9AF42E6D100225C20E9
:103A3800114601F053FE5C2001F08EFE0DB0BDE88A
:103A4800F08300BF0050005200440258482A010881
:103A58003C100024000002580268F8B5124B9A4244
:103A680000D0F8BD114A0126114CD2F8D430114FBC
:103A780004F1180523F48043C2F8D43054F8043F05
:103A880000201A7859780A2A06FA01F198BF07EB3C
:103A9800822089B203F0B2FAA542EFD15C20BDE8DA
:103AA800F84001F067BE00BF0050005200440258C1
:103AB8003C10002400000258014805F08BBF00BFED
:103AC800F00F00240B4B6FF0F412991C981D10B4E2
:103AD8001C1D9A60C3E90022C3E9183103F10A02E8
:103AE80003F10801C3E91A40C3E91C125DF8044B4D
:103AF800704700BFE00F002438B5036871B9026A47
:103B080000F1280500F5AC74012A0CBF0021402102
:103B18008BBB1D4B5722C0F858310DE0426A00F1AB
:103B2800C00500F5E874012A0CBF00214021EBB163
:103B3800164B5A22C0F8D03100232046C4E901218F
:103B48004FF480524FF48061636262614FF48042A7
:103B5800C4E903314FF48073C4E906234FF40033FA
:103B6800236201F06DFF58B1FFBEFEE7084B5822F3
:103B7800C0F8D031E0E7074B5922C0F85831DBE7ED
:103B8800C5E92044A56338BD10000240700002401A
:103B980028000240580002402DE9F043C28889B04D
:103BA80081468388ADF800200089B9F80A10B9F871
:103BB8000C20ADF80230D9F81830ADF80400ADF893
:103BC8000610ADF80820002B3FD0D9F81C70B7FAC2
:103BD80087F77F09012502236C460DF10A06DFF8F5
:103BE80070800695CDE9043599F804202078824242
:103BF800627818D0D9F80010F9B1012902D1F8B1CA
:103C08000A2107910A2805FA02F203A994BF08EBD2
:103C180080200020039203F0B7F80234A642E3D1D3
:103C280009B0BDE8F08399F805109142E2D1002F60
:103C3800F3D0D9F800100029DFD106210791E1E778
:103C4800022A0CBF08210A21DBE70127C2E700BFCF
:103C580000000258534A0368934230B505468BB0BA
:103C680055D02032934252D04F4A934204D020324A
:103C7800934201D00BB030BD4C4C4D48D4F8E030E5
:103C880043F00103C4F8E030D4F8E03003F0010356
:103C98000593059BD4F8E03043F00803C4F8E030FE
:103CA800D4F8E03003F008030693069BD4F8E0301C
:103CB80043F04003C4F8E030D4F8E03003F04003A8
:103CC8000793079BD4F8F03043F40003C4F8F030AE
:103CD800D4F8F03003F400030893089BFFF75CFF67
:103CE800D4F8D830296843F001032F4A3048C4F883
:103CF800D830891AD4F8D83018BF012103F001034D
:103D08000993099B0BB0BDE83040FFF7F5BE274C7F
:103D18002848D4F8E03043F00103C4F8E030D4F880
:103D2800E03003F001030093009BD4F8E03043F047
:103D38001003C4F8E030D4F8E03003F01003019326
:103D4800019BD4F8E03043F04003C4F8E030D4F8E5
:103D5800E03003F040030293029BD4F8F03043F4C0
:103D68008003C4F8F030D4F8F03003F480030393F0
:103D7800039BFFF711FFD4F8D830296843F00103FB
:103D8800084A0C48C4F8D830891AD4F8D83018BF73
:103D9800012103F001030493049B0BB0BDE83040FC
:103DA800FFF7AABE04580140045C014000440258D1
:103DB800B412002458100024014802F093BC00BF3C
:103DC800B0110024014802F08DBC00BF2812002465
:103DD800014802F087BC00BF0C140024014802F01F
:103DE80081BC00BF841400241A4A0368934210B4AB
:103DF8000BD02032934208D0174A934216D0203273
:103E0800934213D05DF8044B7047144B0022D3F84B
:103E18005442C3F85822002CF4D0D3F84802D3E90E
:103E2800931223465DF8044B520818470B4B0022A7
:103E3800D3F8B044C3F8B424002CE3D0D3F8AC24AE
:103E4800D3F8A814D3F8A404520823465DF8044B09
:103E5800184700BF04580140045C01405810002472
:103E6800184A0368934210B40BD02032934208D00A
:103E7800154A934217D02032934214D05DF8044B70
:103E88007047124BD3E994245208C3F85822002CE7
:103E9800F4D0D3E99201234601EB820100EB8200C2
:103EA8005DF8044B1847094BD3F8AC24D3F8B04459
:103EB8005208C3F8B424002CE0D0D3F8A814D3F8DF
:103EC800A404E8E704580140045C014058100024A9
:103ED8002DE9F0470C684FF41776774F86B004FB4E
:103EE80006F6012C07EB0608C0F8008000F39F8057
:103EF80000230D468E46C446C8F85032C8E99233AE
:103F080069A3D3E900236AA1D1E90001CDE902231D
:103F180006AB03EB8403CDE9040153F810AC53F866
:103F2800089CBEE80F00ACE80F00BEE80F00ACE844
:103F38000F009EE80300C8F828A0C8F8C0908CE8D5
:103F480003002B69042B0CD8DFE803F078828C96E9
:103F580003004FF41773594A03FB04739A64C3F8B8
:103F6800E020AA692B6A002A42D0002B4FF417736D
:103F780008BF022203FB047318BF0322DA6201227E
:103F88001A63EA696B6A002A3FD1191E4FF4177346
:103F980018BF012103FB0473C3E9311269690129C0
:103FA80043D0022947D1032500214FF4177306F1A6
:103FB80028002A46019103FB0473002438445C64FA
:103FC8005C63DC65C3F8DC40C3F8CC40C3F8F4405C
:103FD800C3E90F44C3E91544C3E93544C3E93B4485
:103FE800022308F0FDF8019900284FD0FFBEFEE734
:103FF800191E4FF4177318BF012103FB0473C3E99B
:104008000B12EA696B6A002ABFD0002B4FF41773B2
:104018000CBF0222032203FB0473C3F8C42001224D
:10402800C3F8C82069690129BBD10225BDE7012071
:1040380006B0BDE8F08700252946B6E74FF41773A8
:104048004FF4FA5203FB04739A64C3F8E02088E73C
:104058004FF417734FF47A5203FB04739A64C3F84E
:10406800E0207EE74FF417734FF4FA4203FB047322
:104078009A64C3F8E02074E74FF417734BF6803264
:1040880003FB04739A64C3F8E0206AE706F1C000F2
:1040980002232A46384408F0A3F80028C8D0FFBEF7
:1040A800FEE700BFAFF3008004580140045C014004
:1040B80024580140245C0140581000240077010076
:1040C8000068704770B5046882B015460E46C4F89B
:1040D8005032C4E99212069AC4F85422A269012AFD
:1040E80026D0626A012A9AB211D0294604F1C0008A
:1040F800019208F02FF9236A019A012B10D0294662
:1041080004F1280008F026F9002002B070BD04F17F
:10411800C000019208F0B0F9236A019A012BEED190
:10412800314604F1280008F0A7F9002002B070BD5C
:10413800226A012A9AB211D0294604F12800019274
:1041480008F008F9636A019A012B10D0294604F196
:10415800C00008F0FFF8002002B070BD04F128008C
:10416800019208F089F9636A019A012BEED1314670
:1041780004F1C00008F080F9002002B070BD00BF53
:1041880003681B69042B05D8044A02EB830393EDEB
:10419800000A70479FED020A704700BF502A0108C5
:1041A80000803B470368D3F858027047064B6FF00E
:1041B800F4124FF60B71C3E901229981A3F8681232
:1041C800C3E99822704700BF58100024704700BF09
:1041D80008B500F033FCBDE8084001F047BB00BF5C
:1041E800064808B503680BB102F0DAFF0448036813
:1041F8001BB1BDE8084004F06BB908BD281A0024BB
:1042080018150024064808B503680BB102F0C8FF6A
:10421800044803681BB1BDE8084004F059B908BD5B
:10422800281A002418150024064808B503680BB19D
:1042380002F0B6FF044803681BB1BDE8084004F06B
:1042480047B908BD281A002418150024364BDA6A25
:10425800520062D59A6A9A6A9A6A9B6A180600D5C9
:1042680000BE314B9B6A990600D500BE2E4B9B6A57
:10427800DA0600D500BE2C4B9B6A1B0700D500BE92
:10428800294B9B6A980700D500BE274B9B6AD90724
:1042980000D500BE244B9B6A1A0400D500BE224BF1
:1042A8009B6A9B0400D500BE1F4B9B6AD80400D5AF
:1042B80000BE1D4B9B6A190500D500BE1A4B9B6AB0
:1042C8005A0500D500BE184B9B6A9B0500D500BE59
:1042D800154B9B6AD80500D500BE134B9B6A990104
:1042E80000D500BE104B9B6ADA0100D500BE0E4B0C
:1042F8009B6A1B0300D500BE0B4B9B6A580300D575
:1043080000BE094B9B6A990300D500BE064B9B6A09
:10431800DA0306D400BE00BEFEE7DB6A9B07FAD5C7
:10432800F8E700BEF6E700BF00ED00E000F098BB3C
:104338000A4B9B6803F17843B3F5003F0BD3084B56
:10434800986848B19868012806D09868022803D070
:104358009B68032070470120704700BF00ED00E014
:1043680000008038000000002DE9F041CEB004467E
:104378004C2200210AA80EF0F7FA2022002102A8F8
:104388000EF0F2FAC02200211EA80EF0EDFA02206B
:1043980004F05CFF2368012B4FF0000354D0584A07
:1043A80002250193C820D16A564B21F00101D16240
:1043B800D26A02F0010201929A6942F440429A617B
:1043C8009B6903F440430193019B4E4A93699B0404
:1043D800FCD54D490224002201268B6A04274FF0A0
:1043E800080823F0030323438B62052316900AA8C9
:1043F80018934FF480331096179419941597CDF8A5
:104408006880CDE91B222122CDE91344CDE90A2396
:1044180005F080FC00B1FEE73F220323294602A8ED
:10442800CDE9022300220823CDE9042340224023BA
:10443800CDE9062340234FF48062CDE9082306F036
:1044480003F80346B8B1FEE72E4A04250093F0208E
:1044580091692B4B41F440419161926902F44042C9
:104468000092DA6A42F00102DA62DB6A03F00103C1
:104478000093009BA9E7202226932E9380212C925B
:104488004FF48052319306253F931EA82792369207
:104498004FF4803225914FF4401132924792002216
:1044A8002895802540911021CDF888802B9720965B
:1044B8002A91CDE92F3440F2271329934FF48063D2
:1044C8002D930023CDE92346CDE93C234FF4807496
:1044D8000C2344940224219307A3D3E90023CDE9B4
:1044E8003445CDE91E2306F09BFA00B1FEE704F03F
:1044F800D1FE4EB0BDE8F0810F130F03000000009D
:1045080000040058004802580044025870B584B0AE
:10451800012401F059F94FF480764FF04052194BBD
:1045280068460025ADF800400396CDE9012301F067
:1045380069F919224FF0404368468DF80820019325
:104548008DF80F40ADF80D608DF801408DF80A50D8
:1045580001F058F902230B2268468DF80F508DF8A8
:1045680001304FF062538DF808200193ADF80D40EB
:104578008DF80A4001F046F9042001F033F904B03F
:1045880070BD00BF0E00010330B50D46044685B06E
:10459800D1E9000184E8030000F020FAAB79002B90
:1045A80063D00BF0FFFEFEF74BFE0AF0F7F90BF0B5
:1045B800E3FB2B795BB3304C636913F4803326D16A
:1045C800C4F88430BFF34F8FD4F8801043F6E07EF0
:1045D800C1F34E3CC1F3C9014FEA4C1C0CEA0E0072
:1045E8000B4640EA8372013BC4F860225A1CF8D19A
:1045F800ACF1200C1CF1200FF0D1BFF34F8F636991
:1046080043F480336361BFF34F8FBFF36F8F6B79D0
:10461800B3B1194A536913F4003311D1BFF34F8F63
:10462800BFF36F8FC2F85032BFF34F8FBFF36F8F56
:10463800536943F400335361BFF34F8FBFF36F8F58
:104648004FF0FF3200230024002569460B480292F0
:104658008DF80C30CDE900450AF0D4FD07480AF082
:1046680039FE09F037FB05B030BD2046FFF77CFE68
:104678002046FFF74BFF94E700ED00E010150024FB
:1046880006F04AB81C4B9B6803F17842B2F5003F2C
:1046980025D3B3F5803F20D303F16042B2F5003F44
:1046A8001FD303F15C42B2F5002F1CD303F1704213
:1046B800B2F5902F19D303F14842B2F5803F16D3D3
:1046C80003F18042B2F1806F13D303F1E043B3F5F5
:1046D800000F2CBF082007207047012070470020DA
:1046E8007047022070470320704704207047052058
:1046F80070470620704700BF00ED00E00348002324
:10470800034A044903600DF0BFBF00BF1015002421
:1047180000000024D541000810B4204C0022204B92
:1047280083B0D4F888101F4841F47001C4F8881089
:1047380019681D4C41F0010119601A611968084097
:104748001A4918609A61DA611A629A62DA621A631F
:104758005A639A63DA631A645A64186820F48020EA
:1047680018601A66D3F8DC2042F06042C3F8DC20F7
:10477800D3F8DC300193019B23681940B1F1005F45
:1047880003D20B4B0122C3F80821044B4FF00062FF
:104798009A6003B05DF8044B704700BF00ED00E07D
:1047A800004402587FEDF6EA0010005C0000FFFFAD
:1047B8000080005100F2C441D0F8080508F0F0BDAF
:1047C80001EBC10300EB8303D0F80805D3F8882276
:1047D80008F016BE01EBC10300EB8303D0F808050F
:1047E8009A6C08F047BE00BFD0F8080508F0F0BE84
:1047F800016910B5044619B1022900D0FEE701216C
:10480800D4F8080508F0C4FED4F80805BDE810403F
:1048180008F090BE10B50446D0F8080508F0BCFEB4
:104828002268D2F8003E43F00103C2F8003E236A32
:1048380023B1034A136943F00603136110BD00BF97
:1048480000ED00E0D0F8080508F0B6BED0F808057D
:1048580008F0E4BED0F8080508F0CABED0F808058C
:1048680008F0F2BED0F8080508F0F0BE9446D0F87B
:10487800C8021A4608B5634604F0E4FB032802D8C8
:10488800024B185C08BD032008BD00BF742A01084C
:10489800D0F8C80208B504F057FC032802D8024B28
:1048A800185C08BD032008BD742A0108D0F8C802A6
:1048B80008B504F08DFC032802D8024B185C08BD2B
:1048C800032008BD742A01080A06D0F8C83206D4A5
:1048D80001EBC10103EB810191F87E02704701F001
:1048E8007F0101EBC10103EB810191F83E007047A4
:1048F800D0F8C80208B504F08FFB032802D8024B91
:10490800185C08BD032008BD742A0108D0F8C80245
:1049180008B504F0F7FB032802D8024B185C08BD61
:10492800032008BD742A0108D0F8C80208B504F0AD
:10493800C7FB032802D8024B185C08BD032008BD3A
:10494800742A0108D0F8000309F07EB9D0F80003F2
:1049580009F092B9D0F8000309F09AB9704700BF7E
:10496800D0F8000309F080B9D0F8000309F080B945
:10497800D0F8D40308B503F08DF8032802D8024B09
:10498800185C08BD022008BD782A0108704700BFDE
:104998000F4B1B780BB90120704710B504464FF434
:1049A8007A700C4AB0FBF3F31068B0FBF3F000F038
:1049B800F5FE0F2C00D808B1012010BD00222146B9
:1049C8004FF0FF3000F08AFE034B00201C6010BD42
:1049D80068000024600000246C00002410B5032047
:1049E800124C00F069FE05F08FFC114B11499A69D1
:1049F8009B69C2F3032203F00F038A5CCB5C02F0CD
:104A08001F020D4903F01F03D04020FA03F308608A
:104A18000E202360FFF7BCFF10B10124204610BD13
:104A28000446FFF7B3FF204610BD00BF6400002412
:104A380000440258642A010860000024034A044B19
:104A480011681B780B441360704700BF2C1D0024AD
:104A580068000024014B1868704700BF2C1D002413
:104A680038B50446FFF7F6FF0546631C02D0044B31
:104A78001B781C44FFF7EEFF431BA342FAD338BD53
:104A880068000024014B1868000C70470010005C97
:104A9800704700BF806B08B5FFF7FAFF08BD00BF7D
:104AA800836B5A6D12F0500F5A6D10B51DD11968ED
:104AB80042F400725A650A6812F0080FCA681BD0DF
:104AC80012F4406F0DD1CA6894040AD45A6D22F4C6
:104AD80080725A655A6DD10403D45A6D42F00102AE
:104AE8005A651846FDF70EFF10BDD2060AD4DB6CD6
:104AF800BDE81040DB6C18479007E7D01846FDF773
:104B080001FFF1E71846FDF7ABFF10BD806B08B554
:104B1800436D43F040034365836D43F004038365AD
:104B2800FDF79EFF08BD00BFF0B5002283B00192DB
:104B380090F85020012A00F0B880034601201A6836
:104B480083F850009468640708D55A6D42F0200233
:104B58005A65002283F8502003B0F0BD0C68002C81
:104B6800C0F2A180C4F31305002D00F0978094FAD9
:104B7800A4F515B1B5FA85F5A840A40ED569284362
:104B8800D0614D681F2002F1300E04F01F04AE09F9
:104B980005EA000C06F00C0600FA0CF704FA0CF40F
:104BA80056F80E0020EA0700044346F80E409068C5
:104BB800400776D4956815F0080555D10C6802F1C0
:104BC800140607208F684FEAD45CC4F304540CF031
:104BD800040C00FA04FE07FA04F4B64F5CF8060069
:104BE80020EA0E0020434CF80600386800F07040B8
:104BF800B0F1805F00F0E880D068D668C70600F1A1
:104C0800EB80C6F382064869760000FA06F60F695B
:104C1800042F7BD002F16004086854F827C000F024
:104C2800F8400CF0004C40EA0C00304344F82700F0
:104C3800487E0E69012854F826000CBF4FF0004743
:104C4800002720F00040384344F826000C7E08690D
:104C5800012C04D100F01F004FF400658540106955
:104C680020F4F040054315619068C40714D4CE6859
:104C78000C6806F018079048D2F8C050F840C4F302
:104C88001307204025EA07052843C2F8C0008B48CF
:104C9800864257D0002C0BDB00205AE7A40EA04018
:104CA8006CE79068E0E7A40E6BE7022003B0F0BD64
:104CB80083498A4200F0B68001F580718A4200F08B
:104CC800B180804D8048A968806801F0E076C043D3
:104CD80000F00100002800F0B4807C48844200F015
:104CE800FD807B48844200F01C817A488442D3D1FD
:104CF8004902D1D474498A42CED1AA68002022F050
:104D0800E072324342F48002AA6022E7106E0C6817
:104D180000F0F840A506B0EB846F79D0506E00F033
:104D2800F84085426FD0906E00F0F840854274D00C
:104D3800D06E00F0F840854296D1D06E20F0004049
:104D4800D06691E7002F4ED094FAA4F5002D00F01C
:104D58008C80B5FA85F0013000F01F06092E40F26C
:104D68008480B5FA85F580060126013500F0F84003
:104D780094FAA4F405F01F0506FA05F50543002C7E
:104D880000F0DF80B4FA84F4A0196FF01D0600F07B
:104D98001F04032010FB0460000540F00070284346
:104DA800072402F11405C60DC0F3045006F00406EA
:104DB80004FA00F7745924EA07048F6807FA00F028
:104DC800204370510C6865E7D6684869C6F38206C7
:104DD800760000FA06F61AE77608486906F008062B
:104DE80000FA06F613E7A40E013404F01F06092E94
:104DF8002DD8A506012005F0F845B040054306EB7F
:104E080046000005CBE7506E20F0004050668AE768
:104E1800106E20F00040106680E7906E20F0004091
:104E2800906685E726482C4D00F58070A96850F8F3
:104E3800F86C8068304301F0E076C04300F0010070
:104E480048E75A6D012042F020025A6581E606EBD8
:104E58004600A50601241E3805F0F84504FA06F6B2
:104E68000005354340F0007099E794FAA4F0002853
:104E78006ED0B0FA80F00130800600F0F84094FA65
:104E8800A4F5002D62D0B5FA85F50126013505F0A7
:104E98001F0506FA05F5054394FAA4F4002C52D030
:104EA800B4FA84F4013404F01F0404EB440420052C
:104EB80075E700BF0010005CFFFF0F000000FF4710
:104EC800002002400063025800600258000084CBB2
:104ED800000052C70000B8CF0023024008023FF587
:104EE800DBAE1D498A427FF4D7AE1C4A1C481268C3
:104EF800A968920921F0E071A0FB020231439209EE
:104F080041F400010132A96052000192019A002A7D
:104F18003FF4C2AE019A013A0192019A002AF9D1EE
:104F2800BAE611F080707FF4B7AE0B498A427FF47D
:104F3800B3AEAA6822F0E072324342F08072AA60EF
:104F480007E608482BE74FF4401028E70225A2E7B8
:104F58004FF0806093E700BF0060025860000024B3
:104F6800632D3E05000050FE03689A68D10701D5FD
:104F7800002070479968214A114270B504462CD127
:104F880099681F4A0A4042F001029A60FFF762FDE1
:104F980023681C4A0546934228D002F58072934242
:104FA80024D0194A92681A68D60714D4144E9A68FD
:104FB800D00704D49A68324042F001029A60FFF7A1
:104FC80049FD431B022B236802D91A68D10704D56F
:104FD8001A68D207EBD5002070BD636D012043F03D
:104FE80010036365A36D0343A36570BD074A926808
:104FF800D206D8D0064A9342D5D1ECE73F000080CC
:10500800C0FFFF7F002002400063025800230240D7
:10501800002102402DE9F0413E4D044600680F464C
:105028001646A84219D03C4B984216D03B4DAB6867
:105038008068420716D494F85020012A12D003F051
:105048001F080122B8F1090F84F850200DD9002358
:10505800012084F85030BDE8F081314DAB6880689C
:105068004207E8D50220BDE8F08140F2212323FA67
:1050780008F3DB4313EA0205E9D12046FFF774FF82
:10508800002841D1626D274B2168134043F4807397
:105098006365B8F1000F02D01F4B994203D0636DCE
:1050A80023F480136365636D13F4805330D0A36DCC
:1050B80023F00603A365E06C33461B4D3A46E66AC7
:1050C8004031C563194D0564194DC5641C2541F867
:1050D800405C002584F8505051F83C5C45F01005C0
:1050E80041F83C5C51F8345C25F00305354341F840
:1050F800345C00F013FF22680E4B91680B4043F0BC
:1051080004039360BDE8F08184F85050BDE8F08155
:10511800A365D0E700200240002102400063025846
:1051280000230240FEF0FFFFA94A00089D4A00083C
:10513800154B0008C0FFFF7F38B503689A689507CC
:1051480002D59B68002038BD9A68D40729D59A688B
:10515800044602F00D02012A08D0636D012043F0D5
:1051680010036365A36D0343A36538BD98680321E5
:105178000D4A024042F002029A601960FFF76AFC89
:10518800236805469B68D9070BD5FFF763FC401BCE
:105198002368022802D99A68D207DED49B68DB0705
:1051A800F3D4002038BD00BFC0FFFF7F38B5574A91
:1051B80004460368934226D002F58072934222D0B7
:1051C800534B9B6813F4403F22D005F065FA63689F
:1051D8000546B3F5003F00F08880B3F5403F6CD03A
:1051E800B3F5803F00F08180FFF74CFC41F20303E8
:1051F80098424BD8474B9D422AD92268936843F47A
:105208008073936038BD444B9B6813F4403FDCD1F6
:105218004FF40020002106F053FC63680546B3F5FF
:10522800101F6CD008D8B3F5E01F50D016D9B3F5CD
:10523800001FD9D14509D7E7B3F5201F45D0B3F5ED
:10524800301FD1D1FFF71EFC41F20303984240D82A
:105258002268936823F48073936038BDB3F5801F88
:1052680006D00AD9B3F5A01F02D0B3F5C01FBBD131
:105278009B0C5B00B5FBF3F5B6E7B3F5002FF7D051
:1052880023F40022B2F5802FF2D0ADE7234B9D42E4
:1052980005D82268936823F44073936038BD204B87
:1052A8009D421AD91F4B22689D42936829D823F43E
:1052B800407343F40073936038BD8508FFF7E2FB41
:1052C80041F203039842E1D894E7C5098CE7050940
:1052D8008AE7124BB3EB152FDBD22268936823F4CD
:1052E800407343F48073936038BD1B0CB5FBF3F532
:1052F800FFF7C8FB41F203039842C7D87AE785094C
:1053080072E743F44073936038BD00BF0020024049
:1053180000630258002D31010023024021BCBE0069
:1053280041787D0181F0FA0270B5002382B00193C3
:10533800002800F0D180456D0446002D00F0BB80A8
:10534800226893689D0003D59168724B0B40936067
:105358009368D80016D4704B70491B6890689B09F5
:10536800A1FB03136E499B090140013341F08051B1
:1053780091600193019B2BB1019B013B0193019B20
:10538800002BF9D19368D90024D4636D012543F02B
:1053980010036365A36D2B43A365936813F0040F93
:1053A800636D1DD1DB061BD4636D23F4817343F059
:1053B800020363659368DE0728D45A4B9A4217D0D4
:1053C80003F580739A4213D0574B9B68D9071DD4B5
:1053D800564A15E09368002513F0040F636DE1D079
:1053E800636D012543F010032846636502B070BD64
:1053F8004C4A4F4B92689B681343D80706D44D4AD2
:105408009368616823F47C130B439360FFF73AFBBE
:1054180041F20303A1689842237F52D894F815C03B
:105428001A04206B42EA4C3202430A43012B03D18F
:10543800236A013B42EA4342636A23B103F4787367
:10544800A16A0B431A4323683B49D86801400A43C1
:10545800DA609A6812F0040F9A681CD112071AD4FD
:10546800D868364A217D024042EA8132E16A0A431D
:10547800DA6094F83820012A3AD01A6922F0010239
:105488001A611A692046616B22F070420A431A6158
:10549800FFF78CFE2368E268012A21D01A6B22F0FC
:1054A8000F021A63636D284623F0030343F00103D8
:1054B800636502B070BDFDF7CDF9A56584F850505D
:1054C8003EE71029AAD1617D1A0442EA4132216BD4
:1054D8000A4342F01C02A9E70125284602B070BD24
:1054E800196BA26921F00F01013A0A431A63D9E73F
:1054F800D4E90F12666C01391869324342EA014255
:10550800A16C0A430E4901400A4342F001021A61A4
:10551800B7E700BFC0FFFF5F60000024632D3E05B2
:10552800C0FFFF6F0020024000600258006302586D
:10553800002102400023024003C0F0FFFCBFFFFF30
:105548001EF800FCF0B5002383B0019390F85030AA
:10555800012B40D0012304460E46154680F85030F2
:10556800FFF7EAFDE8B9676D05F080421B4B06F4CA
:1055780080311B4D3B401B4F43F00203636523689A
:105588009E68354015430D4345F000459D609A6877
:10559800002A0FDB636D23F0030343F00103636507
:1055A80003E0636D43F010036365002384F8503013
:1055B80003B0F0BD019A01320192019ABA42E6D3D2
:1055C800636D0022012023F0120384F8502043F079
:1055D80010036365ECE7022003B0F0BDFDEEFFFFAA
:1055E800C0FFFE3F00F8C325F0B490F850209AB0F1
:1055F8000E68012A4DD003462B4C002201201D685D
:105608001692A54283F85000179208D0596D83F876
:10561800502041F0200159651AB0F0BC7047234C66
:10562800A26852070BD5AA685A6D012042F02002E1
:105638005A65002283F850201AB0F0BC7047A86859
:1056480010F00400F0D1C6B1DFF868C04F68DCF88C
:10565800082022F440423A43CCF80820AD68A268FA
:105668002A43D40713D48A68DCF808101643104A72
:105678000A401643CCF80860DBE70E498A6822F432
:1056880040428A60A868A2680243D00705D5002076
:10569800CFE702201AB0F0BC70478C683046044A45
:1056A80022408A60C5E700BF002002400021024076
:1056B800E0F0FFFF0023024006494FF6FF0C00020E
:1056C800054BCA6800F4E06002EA0C021043034389
:1056D800CB60704700ED00E00000FA051B4BDB686B
:1056E800C3F3022300B5C3F1070E03F1040CBEF1A6
:1056F800040F28BF4FF0040EBCF1060F1AD9033B64
:105708004FF0FF3C0CFA03FC22EA0C024FF0FF3C7E
:1057180000280CFA0EFC21EA0C0101FA03F141EA17
:1057280002010ADB09010A4BC9B2034483F80013DA
:105738005DF804FB00221346E8E700F00F000901BA
:10574800044BC9B2034419765DF804FB00ED00E090
:1057580000E100E0FCEC00E0002807DB012300F09A
:105768001F01034A40098B4042F82030704700BFB0
:1057780000E100E000280DDB4309012200F01F00D2
:105788000549203302FA00F041F82300BFF34F8F98
:10579800BFF36F8F704700BF00E100E0431EB3F115
:1057A800807F0CD24FF0E022002006494FF0F00C29
:1057B8005361072381F823C090611361704701206A
:1057C800704700BF00ED00E0BFF35F8F044B00217E
:1057D8005A6A22F480325A62C3F89410704700BFA4
:1057E80000ED00E0064B40F00100C3F894005A6A4F
:1057F80042F480325A62BFF34F8FBFF36F8F704706
:1058080000ED00E0174A4378C2F89830017821B3D8
:10581800436800B5C2F89C30C37A90F80CC01B06E8
:1058280090F80FE043EA0C7390F80AC00B43817BB1
:1058380043EACC4390F80DC043EA8C4390F809C082
:1058480043EA4143017A43EA0E4343EA0C2343EA1D
:105858004103C2F8A0305DF804FBC2F89C10C2F8FE
:10586800A010704700ED00E0704700BF08B5FFF7D3
:10587800FBFF08BD0268344B344930B4344D354C15
:10588800AA4218BF9A420CBF012300238A4208BFCC
:1058980043F001033031A24208BF43F00103303422
:1058A8008A4208BF43F001033031A24208BF43F0E7
:1058B800010330348A4208BF43F0010301F55C71EB
:1058C800A24208BF43F0010304F55C748A4208BF92
:1058D80043F001033031A24208BF43F001033034E2
:1058E8008A4208BF43F001033031A24208BF43F0A7
:1058F800010330348A4208BF43F001033031A24229
:1059080008BF43F001038A4208BF43F0010313B9FB
:10591800114B9A4213D1D3B21049114C103BA1FB41
:1059280003515F2B0F4BC1F3021103EA0203615CC1
:1059380088BF0433C1658365184630BC704722F0C0
:10594800FF038365F8E700BF1000024040000240F3
:105958002800024058000240B8040240ABAAAAAA94
:105968007C2A010800FCFFFF0368294A294930B452
:10597800294D2A4CAB4218BF93420CBF012200228A
:105988008B4208BF42F001022831A34208BF42F00F
:10599800010228348B4208BF42F001022831A34299
:1059A80008BF42F001028B4208BF42F0010212B95F
:1059B8001B4A934213D1DBB21A4C1B4A0121083B04
:1059C8001A4DA4FB0343456602EB1312C3F30413F9
:1059D800920001FA03F30266836630BC7047DAB2BC
:1059E8001349144C1944103AA829A4FB02234FEA7E
:1059F800131300D80833104A03F01F0501210F4C78
:105A08001A44A9404466920081660266E5E700BF31
:105A180008540258305402581C540258445402582E
:105A280094540258CDCCCCCC00960016805802581D
:105A3800F0FBFDBFABAAAAAA0082001080080240B2
:105A4800F8B50446FFF706F8002C00F077812368C4
:105A58000546924A934248D01832934245D0303294
:105A68008F498B4218BF934201F130010CBF0122CC
:105A780000228B4208BF42F0010218318B4208BF56
:105A880042F0010218318B4208BF42F0010218317E
:105A98008B4208BF42F0010201F556718B4208BFE4
:105AA80042F0010218318B4208BF42F0010218315E
:105AB8008B4208BF42F0010218318B4208BF42F006
:105AC800010218318B4208BF42F0010218318B42A3
