:020000040800F2
:1000000000000220190A00080D0A00085D470008D8
:100010000D0A00080D0A00080D0A00080000000083
:100020000000000000000000000000000D0A0008B1
:100030000D0A0008000000000D0A0008E146000853
:100040000D0A00080D0A00080D0A00080D0A000834
:100050000D0A00080D0A00080D0A00080D0A000824
:100060000D0A00080D0A00080D0A0008C942000820
:10007000D54200080D0A0008E1420008ED420008E0
:10008000BD150108593300080D0A00080D0A0008C3
:100090000D0A00080D0A00080D0A00080D0A0008E4
:1000A0000D0A00080D0A00080D0A00080D0A0008D4
:1000B0003D07010849070108550701088D3300086D
:1000C0000D0A0008993300080D0A000885FF000892
:1000D00091FF0008F11301081D14010851140108D3
:1000E0000D0A00080D0A0008000000000D0A0008B3
:1000F0000D0A00080D0A00080D0A00080D0A000884
:100100000D0A00080D0A0008610701089DFF00089C
:1001100085140108B91401080D0A00080D0A000829
:100120000D0A00080D0A0008C1FF0008F5FF0008CD
:10013000F11501080D0A00080D0A00080D0A000853
:1001400000000000000000000000000000000000AF
:100150000D0A00080D0A00080D0A0008ED14010838
:10016000A53300080D0A0008F146000815470008ED
:100170000D0A0008394700080D0A00080D0A00089A
:100180000D0A00080D0A000821150108551501087F
:10019000A9FF0008B5FF00080D0A00080D0A0008B5
:1001A0000D0A00080D0A00080D0A00080D0A0008D3
:1001B000BD3F00080D0A00080D0A00080D0A0008DE
:1001C0000D0A00080D0A0008D52C0008E12C0008D3
:1001D0000D0A0008ED2C00080D0A00080D0A0008A1
:1001E0000D0A00080D0A00080D0A00080D0A000893
:1001F0000D0A00080D0A00080D0A00080D0A000883
:100200000D0A00080D0A00080D0A00080D0A000872
:100210000D0A00080D0A00080D0A00080D0A000862
:100220000D0A00080D0A00080D0A00080000000071
:100230000D0A00080D0A0008000000000D0A000861
:100240000D0A00080D0A00080D0A00080D0A000832
:100250000D0A00080D0A00080D0A00080D0A000822
:100260000D0A00080D0A00080D0A00080D0A000812
:100270000D0A00080D0A0008891501080000000099
:100280000D0A00080D0A00080D0A00080000000011
:08029000000000000D0A000847
:1002A00010B5054C237833B9044B13B10448AFF3B0
:1002B00000800123237010BD80070024000000008F
:1002C0001C80010808B5034B1BB103490348AFF379
:1002D000008008BD00000000840700241C80010885
:1002E000034613F8012B002AFBD1181A0138704776
:1002F00001F0FF01102A2BDB10F0070F08D010F8D7
:10030000013B013A8B422DD010F0070F42B3F6D1DA
:10031000F0B441EA012141EA014122F007047FF0F3
:1003200000070023F0E80256083C85EA010586EA4A
:10033000010685FA47F5A3FA87F586FA47F6A5FA86
:1003400087F68EB9EED1F0BC01F0FF0102F0070292
:1003500032B110F8013B013A83EA010313B1F8D13D
:100360000020704701387047002D06BF354603381E
:10037000073815F0010F07D1013015F4807F02BF57
:10038000013015F4C03F0130F0BC0138704700BFA8
:1003900081F0004102E000BF83F0004330B54FEA36
:1003A00041044FEA430594EA050F08BF90EA020FA3
:1003B0001FBF54EA000C55EA020C7FEA645C7FEA36
:1003C000655C00F0E2804FEA5454D4EB5555B8BF59
:1003D0006D420CDD2C4480EA020281EA030382EACA
:1003E000000083EA010180EA020281EA0303362D5C
:1003F00088BF30BD11F0004F4FEA01314FF4801C2F
:100400004CEA113102D0404261EB410113F0004F40
:100410004FEA03334CEA133302D0524263EB4303F7
:1004200094EA050F00F0A780A4F10104D5F1200E95
:100430000DDB02FA0EFC22FA05F2801841F10001F0
:1004400003FA0EF2801843FA05F359410EE0A5F1C4
:1004500020050EF1200E012A03FA0EFC28BF4CF0F5
:10046000020C43FA05F3C01851EBE37101F00045AB
:1004700007D54FF0000EDCF1000C7EEB00006EEBB8
:100480000101B1F5801F1BD3B1F5001F0CD3490842
:100490005FEA30004FEA3C0C04F101044FEA445299
:1004A00012F5800F80F09A80BCF1004F08BF5FEA20
:1004B000500C50F1000041EB045141EA050130BD00
:1004C0005FEA4C0C404141EB0101013C28BFB1F512
:1004D000801FE9D291F0000F04BF01460020B1FA5D
:1004E00081F308BF2033A3F10B03B3F120020CDA30
:1004F0000C3208DD02F1140CC2F10C0201FA0CF00E
:1005000021FA02F10CE002F11402D8BFC2F1200C72
:1005100001FA02F120FA0CFCDCBF41EA0C01904028
:10052000E41AA2BF01EB0451294330BD6FEA040471
:100530001F3C1CDA0C340EDC04F11404C4F120025C
:1005400020FA04F001FA02F340EA030021FA04F36E
:1005500045EA030130BDC4F10C04C4F1200220FAC5
:1005600002F001FA04F340EA0300294630BD21FA03
:1005700004F0294630BD94F0000F83F4801306BFC9
:1005800081F480110134013D4EE77FEA645C18BFBD
:100590007FEA655C29D094EA050F08BF90EA020F54
:1005A00005D054EA000C04BF1946104630BD91EA4C
:1005B000030F1EBF0021002030BD5FEA545C05D14F
:1005C0004000494128BF41F0004130BD14F580048E
:1005D0003CBF01F5801130BD01F0004545F0FE4102
:1005E00041F470014FF0000030BD7FEA645C1ABF37
:1005F000194610467FEA655C1CBF0B46024650EA6E
:10060000013406BF52EA033591EA030F41F4002199
:1006100030BD00BF90F0000F04BF0021704730B51F
:100620004FF4806404F132044FF000054FF00001F4
:1006300050E700BF90F0000F04BF0021704730B5B5
:100640004FF4806404F1320410F0004548BF40428A
:100650004FF000013EE700BF42004FEAE2014FEADF
:1006600031014FEA02701FBF12F07F4393F07F4FBA
:1006700081F06051704732F07F4208BF704793F0BD
:100680007F4F04BF41F40021704730B54FF46074D0
:1006900001F0004521F000411CE700BF50EA0102D3
:1006A00008BF704730B54FF000050AE050EA01027C
:1006B00008BF704730B511F0004502D5404261EBEC
:1006C00041014FF4806404F132045FEA915C3FF42D
:1006D000D8AE4FF003025FEADC0C18BF03325FEACA
:1006E000DC0C18BF033202EBDC02C2F1200300FA7B
:1006F00003FC20FA02F001FA03FE40EA0E0021FAA0
:1007000002F11444BDE600BF53B94AB9002908BF3D
:1007100000281CBF4FF0FF314FF0FF3000F074B9DC
:10072000ADF1080C6DE904CE00F006F8DDF804E048
:10073000DDE9022304B070472DE9F047089D044627
:100740008E46002B4DD18A42944669D9B2FA82F284
:1007500052B101FA02F3C2F1200120FA01F10CFAC0
:1007600002FC41EA030E94404FEA1C48210CBEFBF8
:10077000F8F61FFA8CF708FB16E341EA034306FB81
:1007800007F199420AD91CEB030306F1FF3080F010
:100790001F81994240F21C81023E63445B1AA4B25D
:1007A000B3FBF8F008FB103344EA034400FB07F7FF
:1007B000A7420AD91CEB040400F1FF3380F00A8140
:1007C000A74240F207816444023840EA0640E41B35
:1007D00000261DB1D4400023C5E900433146BDE8E1
:1007E000F0878B4209D9002D00F0EF800026C5E983
:1007F000000130463146BDE8F087B3FA83F6002E9B
:100800004AD18B4202D3824200F2F980841A61EB12
:10081000030301209E46002DE0D0C5E9004EDDE730
:1008200002B9FFDEB2FA82F2002A40F09280A1EB18
:100830000C014FEA1C471FFA8CFE0126200CB1FB6D
:10084000F7F307FB131140EA01410EFB03F0884266
:1008500008D91CEB010103F1FF3802D2884200F2F3
:10086000CB804346091AA4B2B1FBF7F007FB101185
:1008700044EA01440EFB00FEA64508D91CEB040423
:1008800000F1FF3102D2A64500F2BB800846A4EB7E
:100890000E0440EA03409CE7C6F12007B34022FA69
:1008A00007FC4CEA030C20FA07F401FA06F31C4398
:1008B000F9404FEA1C4900FA06F3B1FBF9F8200CA5
:1008C0001FFA8CFE09FB181140EA014108FB0EF0EB
:1008D000884202FA06F20BD91CEB010108F1FF3A3B
:1008E00080F08880884240F28580A8F10208614447
:1008F000091AA4B2B1FBF9F009FB101144EA014155
:1009000000FB0EFE8E4508D91CEB010100F1FF34FF
:100910006CD28E456AD90238614440EA0840A0FB97
:100920000294A1EB0E01A142C846A64656D353D06D
:100930005DB1B3EB080261EB0E0101FA07F722FA91
:1009400006F3F1401F43C5E9007100263146BDE8BA
:10095000F087C2F12003D8400CFA02FC21FA03F31D
:10096000914001434FEA1C471FFA8CFEB3FBF7F09E
:1009700007FB10360B0C43EA064300FB0EF69E42C3
:1009800004FA02F408D91CEB030300F1FF382FD25C
:100990009E422DD9023863449B1B89B2B3FBF7F604
:1009A00007FB163341EA034106FB0EF38B4208D9DD
:1009B0001CEB010106F1FF3816D28B4214D9023E1E
:1009C0006144C91A46EA004638E72E46284605E73C
:1009D0000646E3E61846F8E64B45A9D2B9EB02080D
:1009E00064EB0C0E0138A3E74646EAE7204694E79D
:1009F0004046D1E7D0467BE7023B614432E73046D0
:100A000009E76444023842E7704700BF684620F0B7
:100A100007018D46FEE700BF0B480C4A904208B51F
:100A200003D0121A0A4913F043FE0A480A4A9042B8
:100A300003D0121A002113F063FE04F0F5F813F04E
:100A400003FE00F0C1F8FEE7000000247C0700244C
:100A50005480010880070024A0660024704700BF6E
:100A6000704700BF704700BF704700BFFAB1013A3E
:100A70002DE9F0410C460025DFF83C8056080C4F6C
:100A800098F800100B4813F0F1F9094887ED010AB6
:100A900013F044FA2246AE4284ED010A05F1010545
:100AA00004F1080482ED000AEAD1BDE8F081704744
:100AB000CC0700249C070024C00B00242DE9F04340
:100AC000002385B000F118064FF00A0804464FF0E5
:100AD0005E090D468DF80D30CDF80080012390F8A9
:100AE0002C101746304603AA8DF80C9002F0F8FC43
:100AF000CDF800800DF10B0294F8303094F82C10F2
:100B0000002818BF43F00103304684F83030012339
:100B100002F00EFD94F83030002818BF43F00103B6
:100B200084F83030A5F17303072B01D94D4517D157
:100B30000A2303AA30468DF80C50009302238DF847
:100B40000D7094F82C1002F0CBFC94F83030002893
:100B500018BF43F0010384F8303005B0BDE8F083DE
:100B6000022303AACDF80080304694F82C1002F03E
:100B7000B7FCCDF8008094F8303003AA94F82C101C
:100B8000002818BF43F0010330468DF80C5084F85C
:100B9000303002238DF80D7002F0A2FCCDF80080F9
:100BA000054694F8301003AA9DF80B303046002D0E
:100BB00018BF41F001018DF80C908DF80D30022323
:100BC00084F83010BDE700BF2DE9F04FCF484FF05B
:100BD0007C554FF00108CE4CDFF85C9341272DED9A
:100BE000028B97B000F0E8FC0021C8480DF1180A0C
:100BF00000F0CEFD0421C54800F0ECFCC34800F035
:100C0000E5FCF7EE006AB0EE408ADFEDC27AC2483A
:100C10000023B0EE670A86EE887A0646C0ED027AB7
:100C20004560C560836180ED048A80ED057A13F02C
:100C30002BFB40F20113F0EE407A9FEDB80A3046EC
:100C40003385C6ED077A86F8008086ED020A13F038
:100C50001BFBF0EE407A2046B0EE480A4146756034
:100C6000C6ED077A13F00AF820469FEDAD0A41461B
:100C700013F074F820469FEDAB0A022113F06EF8D2
:100C8000A94B9FEDAA0A04212046236013F066F8C1
:100C9000002001F057FF0DF1400CA54CE6466546DB
:100CA0002646CDF814A004F11C0BB9E80F00ACE8FF
:100CB0000F0099E803004CF8040BACF80010A446B0
:100CC000BEE80F000FC69EE8030046F8040B318013
:100CD0000646BCE80F00AAE80F00BDF820304FF030
:100CE0001002CAF80060ADF83030BDF822308DF83F
:100CF0003C200022ADF83230059B0E929C460690B7
:100D00000B9007910D91BCE80F00ABE80F000BA909
:100D10008BF8006004F1180002F04AFB94F83030C0
:100D200080216322002818BF43F00103204684F885
:100D30003030FFF7C3FE404603F080FD00225E2105
:100D40002046FFF7BBFE94F814B094F815A00A26CD
:100D50004FF000094FF05E0801230BAA009675487A
:100D600094F82C108DF82D908DF82C8002F0B8FBA3
:100D700094F8302001230096484518BF42F0010244
:100D800094F82C106B4884F8302006AA02F0D0FBAF
:100D900094F8302002230096484518BF42F0010223
:100DA00094F82C10634884F830200BAA02F098FBCA
:100DB00094F8302002230096484518BF42F0010203
:100DC00094F82C105B4884F830200BAA8DF82C7016
:100DD0008DF82DB002F084FB94F830309DF8182087
:100DE000484518BF43F0010300968DF82D200BAA4B
:100DF00094F82C1084F8303002234E488DF82C8063
:100E000002F06EFB94F8302001230096484518BF8D
:100E100042F0010294F82C10464884F830200BAAC6
:100E20008DF82D908DF82C8002F05AFB94F830202C
:100E300001230096484518BF42F0010294F82C1097
:100E40003C4884F8302006AA02F072FB94F8302067
:100E500002230096484518BF42F0010294F82C1076
:100E6000344884F830200BAA02F03AFB94F8303072
:100E70007A1C0096484518BF43F0010394F82C10E3
:100E80008DF82C200BAA84F8303002232948023731
:100E90008DF82DA002F024FB94F8302002239DF859
:100EA0001810FFB2484518BF42F0010200968DF8B5
:100EB0002D1084F830200BAA94F82C101D488DF8C2
:100EC0002C8002F00DFB94F83030484518BF43F0F9
:100ED0000103592F84F830307FF439AF01222B21E0
:100EE0001348FFF7EBFD01222C211148FFF7E6FD27
:100EF0002D210F480E22FFF7E1FD4A462E210C4816
:100F0000FFF7DCFD01222F2118E000BFC40B0024F5
:100F10009C0700240000C842CC0700240000DC43EA
:100F2000CDCC4C3DCDCCCC3D3333333FCDCC4C3E02
:100F3000F8070024100800243C0C00243048FFF778
:100F4000BDFD052230212E48FFF7B8FD31212C4888
:100F50000122FFF7B3FD4A4632212948FFF7AEFDD3
:100F60004A4633212648FFF7A9FD4A463421244842
:100F7000FFF7A4FD4A4635212148FFF79FFD4A4669
:100F80005B211F48FFF79AFD10225C211C48FFF7E8
:100F900095FD20225D211A48FFF790FD41468C22E5
:100FA0001748FFF78BFD94F83060A6B184F83090B5
:100FB0000121144800F02AFB4FF4FA71114800F0A7
:100FC000FDFA00210F4800F021FB4FF4FA710D48A3
:100FD00000F0F4FAECE701210A4800F017FB314673
:100FE000094800F06FFA09490648094F00F0EAFA8B
:100FF000DFF82090DFF82080DFF820B08DE000BF20
:10100000F8070024C40B00242C0800246D0A0008F3
:10101000B00B0024380C0024C00B0024B80B0024B3
:10102000B9F80030D90740F1988098F80030002BCB
:1010300040F09380BB480A2601F076FDB94801F0E4
:1010400073FD01231E220095B7484FF0020ACDE937
:10105000013694F82C1002F093FA94F830209DF8A1
:101060004010002818BF42F00102B048890084F8FF
:10107000302001F059FD012304220095AA48CDE952
:1010800001A694F82C1002F07BFA94F83020BDF8F9
:101090004010002818BF42F00102A54884F8302013
:1010A00001F042FD012302961E229F48CDE9005324
:1010B00094F82C1002F064FA0296CDF804A00422F1
:1010C0000095012394F830109DF84060002818BF67
:1010D00041F00101944884F8301094F82C1002F08B
:1010E0004FFA94F83030BDF84010002818BF43F094
:1010F00001039048C1EB860184F8303001F014FD03
:10110000884801F011FD874801F00EFD3B880A2157
:101110008948A9F8003000F051FA0A21022201237F
:1011200000958148CDE90121002294F82C1002F0AD
:1011300027FA94F83030BDF84020002818BF43F05B
:101140000103D00784F83030C2F30B033B803FF536
:1011500067AF98F80030002B5ED001264FF00A0AE6
:1011600002230095CDF808A0042288F800606E489C
:101170000193334694F82C1002F002FACDF808A03F
:1011800033461E22CDE9005694F83010BDF8406079
:10119000002818BF41F00101634884F8301094F82A
:1011A0002C1002F0EDF99DF8402094F83030A6EBB9
:1011B0008206624A002818BF43F001036048127893
:1011C00084F83030B61A5F4B07EE906AB8EEE70A43
:1011D00083ED000A00F08CF9DFED5B6ADFED5B7AEE
:1011E00080EE267A5A4B5B4883ED000A0646E7EE0E
:1011F000277AB0EE670AC0ED027ACBED007A13F0E1
:1012000043F8554886ED070A01F08EFC534801F07B
:101210008BFC3B88DA0703D4B9F80030DB0774D4C1
:1012200098F80030002B3FF405AF4D480A2601F036
:101230007BFC012300951E223B484FF0020ACDE9BA
:10124000013694F82C1002F09BF994F830209DF8A8
:101250004010002818BF42F001024248890084F87B
:10126000302001F061FC0123009504222E48CDE9D5
:1012700001A694F82C1002F083F994F83020BDF800
:101280004010002818BF42F00102374884F830208F
:1012900001F04AFC012302961E222348CDE90053A7
:1012A00094F82C1002F06CF90296CDF804A00422F8
:1012B0000095012394F830109DF84060002818BF75
:1012C00041F00101184884F8301094F82C1002F015
:1012D00057F994F83030BDF84010002818BF43F09B
:1012E00001032248C1EB860184F8303001F01CFC78
:1012F000DBED007A1E48B7EEE77A53EC172B01F0CE
:1013000013FC174801F010FC00E70023194888F887
:10131000003001F009FC104801F006FC014801F022
:1013200003FC7DE7D47601081008002454770108F7
:101330007477010894770108C40B0024040000248A
:101340002C080024B40B002400008C4200005C44F4
:10135000BC0B0024CC07002460760108B476010899
:10136000D8760108DC760108FC7601081C770108B4
:1013700040770108C476010838B52E485A212E4B13
:10138000002401252D4A19610161C16202219A6080
:1013900099820562826042624161294A2949C3E912
:1013A0000045C0E90045C0E9064412F073FF264835
:1013B0004FF60B736FF0F411244D8365204A0460DF
:1013C0004461C160046244660467C0E90A34C0E94C
:1013D0000F34C0E90111C0E90C441D49C0E91144B2
:1013E000C0E9174412F056FF284600F03FF8144AAF
:1013F0001849284612F04EFF114A1749174812F0B3
:1014000049FF17480023DFF860C08485036043600C
:10141000C360C36103624362094A1249C0F808C04D
:10142000C0F810C0C0F814C0C0F818C0BDE83840FB
:1014300012F030BFF80700243C0C00240108010919
:1014400000000024690A0008C40B00242C080024B2
:101450005D0A0008C1140008650A0008CC070024D2
:101460009C070024610A0008000080BF38B5134DB6
:10147000044600F5E27CAE46BEE80F00ACE80F0083
:10148000BEE80F00ACE80F00BEE80F00ACE80F00AC
:101490009EE80F008CE80F0005F14001802204F562
:1014A000017013F005F94FF4807205F1C00104F5E5
:1014B000217013F0FDF8204638BD00BF5C740108B0
:1014C000704700BF0129017003D002290AD029B159
:1014D000704780220021443013F012B940220430BA
:1014E00013F00EB94FF480720021C43013F008B924
:1014F0000378012B10B504462DED028BB0EE408A27
:1015000007D0022B3AD0FBB19FED2A0ABDEC028B2B
:1015100010BD00F148037C2200F14401184613F08D
:10152000D5F804F1C40203469FED220A84ED118A26
:1015300001E0B3EC018AD3ED6F7A9A42A7EE880AF4
:10154000F7D1BDEC028B10BD00F108033C22011D58
:10155000184613F0BBF804F1440203469FED150A48
:1015600084ED018A01E0B3EC018AD3ED6F7A9A42EF
:10157000A7EE880AF7D1BDEC028B10BD00F1C803BD
:10158000FC2200F1C401184613F0A0F804F5E27241
:1015900003469FED080A84ED318A01E0B3EC018A2D
:1015A000D3ED6F7A9A42A7EE880AF7D1BDEC028B91
:1015B00010BD00BF00000000704700BF084603F0E8
:1015C0003DB900BF143001F00DBA00BF143001F076
:1015D00005BA00BF38B500F1140504462DED028BA5
:1015E000284601F0EDF9284601F0F8F92846B0EE5A
:1015F000408A01F0E1F9D0ED007AF8EE677A88EEE2
:10160000277ABDEC028B84ED1B7A38BD283001F0BF
:101610004BBD00BF10B540F203338EB000244FF62F
:101620000B7240F20341ADF8083009A80123ADF870
:101630001020ADF824202246ADF80C100094029939
:1016400007940C94CDE90544CDE90A4401F03AFC35
:1016500004A8012322460399009401F033FC09A851
:1016600001F016FD10B901200EB010BD04A801F064
:101670000FFDA0420CBF022020460EB010BD00BFDF
:101680002DE9F04103239AB04FF0010800254FF6F1
:101690000B740746CDE91438394BADF84C40CDE911
:1016A0001053A3F19F63A3F57D43CDE91658129320
:1016B000FFF7B0FF4045064623D0022842D040F64F
:1016C0000132304B07F158000BACADF82C200B99D0
:1016D0001895CDF86480CDF84A3000F0DBF810A9F9
:1016E00007F1700002F07CFE274B0FCB84E80F005F
:1016F0003A6F214607F1140001F026F91AB0BDE84F
:10170000F08110231F4A06A906908DF828300BACF3
:101710001E4BCDF84A2007930295CDE91805CDE977
:10172000080502A801F044FE0823029A03A92046F6
:10173000ADF80C608DF80E50049605930B9500F0F3
:10174000E9F8CCE740F60133ADF82C4000200BACB3
:10175000ADF8183001210B4B42460095CDF84A30C8
:101760002B460E95CDE9180106992046CDE90C557A
:1017700001F0A8FB2946204601F096FCAFE700BF28
:1017800004020404040604031C7601080704010B88
:101790002DE9F04704462DED028B82B0002949D097
:1017A000012140F2011200230091ADF804208DF8D0
:1017B0000630354A0127354B04F10409344904F158
:1017C0003C08626040F20272A36040F60663E1608A
:1017D00004F1280A2285A3872782E762276403F0A1
:1017E000D9F9054603F02CF86946064650BB4DB3BF
:1017F00004F150008DF8067003F04EF9072D3ED12C
:1018000004F114052046FFF73BFF284601F0E6F8F7
:101810002846B0EE408A01F0CFF8D0ED007AF8EE1D
:10182000677A88EE277A84ED1B7A02B0BDEC028BD2
:10183000BDE8F08740F2011300918DF80610ADF875
:101840000430B6E704F1500003F026F9072D13D059
:101850004946204602F0D0F90EB9002DD0D15146AC
:10186000504601F049FA4046414601F045FA04F17C
:10187000120000F079F9C3E7002EF0D1C0E7494625
:10188000204602F0B9F9BBE705080509050705067A
:10189000050A060630B585B0002504460122ADF8DC
:1018A0000C102B460399009501F00CFB01212046FA
:1018B00001F0FAFB012002F0C1FF2946204601F0A9
:1018C000F3FB012002F0BAFF0121204605B0BDE87C
:1018D000304001F0E9BB00BF10B5C2F3002384B073
:1018E0000C46017C8DF80D2043EA4402FA240223C1
:1018F0008DF80C2003AA009401F0F2FD18B1012428
:10190000204604B010BD04460A2002F097FF20468E
:1019100004B010BD034670B543F8042B044684B0F0
:1019200007C983E80700A37983B91A210B461E2251
:10193000FA2523742046ADF80C20022303AA009553
:1019400001F0CEFD28B1012004B070BD1B210B4673
:10195000EDE70A2002F072FF4FF4B852009502231F
:10196000ADF80C20204603AA217C01F0B9FD002827
:10197000E9D10A2002F062FF41F2027200950223CF
:10198000ADF80C20204603AA217C01F0A9FD002817
:10199000D9D10A2002F052FF042200950223ADF8AB
:1019A0000C20204603AA217C01F09AFD0028CAD110
:1019B0000A2002F043FF062200950223ADF80C2016
:1019C000204603AA217C01F08BFD0028BBD10A2010
:1019D00002F034FF41F2082200950223ADF80C20FA
:1019E000204603AA217C01F07BFD0028ABD10A2010
:1019F000064602F023FF0095022303AA217C20461D
:101A0000ADF80C6001F06CFD00289CD1304602F06E
:101A100015FF009522790C232046002A8DF80C3002
:101A200003AA4FF0020314BF622142218DF80D106A
:101A3000217C01F055FD002885D1304602F0FEFEE4
:101A40002279D4E902310B43DBB20AB943F04003F7
:101A500062790AB143F020030E22FA258DF80D3089
:101A60002046009502238DF80C2003AA217C01F06A
:101A700037FD00287FF467AF0A2002F0DFFE102256
:101A800000950223ADF80C20204603AA217C01F02A
:101A900027FD00287FF457AF0A2002F0CFFE122165
:101AA00000950223ADF80C1003AA217C204601F01A
:101AB00017FD00287FF447AF0A2002F0BFFE012285
:101AC00009212046FFF708FF003818BF01203BE737
:101AD000F0B5102387B0234C0122002501260027F2
:101AE00002A920460195CDE902234FF48052CDE9A9
:101AF00004670BF06BFB642003F0D2FD02A94FF4E6
:101B000080522046CDE9046702261027CDE90267FE
:101B10000BF05CFB0322102302A92046CDE902232F
:101B200000230422CDE904234FF480520BF04EFB36
:101B300040F23223042202A9019310232046CDE96A
:101B40000223019A012305924FF4805204930BF073
:101B50003DFB40F6060120460BF058FB284607B037
:101B6000F0BD00BF5C0C00241C4B00221C494FF050
:101B7000400C30B5054689B00220596007219A60B3
:101B80001A620124DA620A224FF4006EDC600692C7
:101B90002022CDE9000104200821CDE90201032023
:101BA0001021CDE9040108206946C3E904024FF47D
:101BB000C072181DC3E906C24FF48052C3E909E29E
:101BC0000BF0DAFA38B92846FFF782FF003818BF61
:101BD000012009B030BD204609B030BD580C0024AA
:101BE00040410052614A0021D0B513688EB00A917D
:101BF000002B40F0B9805E4B01214FF683700C241E
:101C000011600221D3F8D4200026032742F4805229
:101C1000C3F8D420D3F8D42002F480520092009A62
:101C2000D3F8E02042F01002C3F8E020D3F8E0201F
:101C300002F010020192019AD3F8E02042F0400233
:101C4000C3F8E020D3F8E02002F040020292029AAA
:101C5000D3F8E02042F00802C3F8E020D3F8E020F7
:101C600002F008020392039AD3F8E02042F4807253
:101C7000C3F8E020D3F8E02002F480720492049AC2
:101C8000D3F8E02042F08002C3F8E020D3F8E0204F
:101C900002F080020592059AD3F8E02042F020027B
:101CA000C3F8E020D3F8E02002F020020692069A62
:101CB000D3F8E02042F00402C3F8E020D3F8E0308B
:101CC0000C9403F0040307930323079A0B93CDE9C5
:101CD000080108A9274805F063F848F237120223E3
:101CE00008A925480C94CDE90823CDE90A6705F039
:101CF00057F84CF20372022308A920480C94CDE94E
:101D00000823CDE90A6705F04BF840F2FF62022391
:101D100008A91B480C94CDE90823CDE90A6705F012
:101D20003FF84FF60C72022308A916480C94CDE92F
:101D30000823CDE90A6705F033F84FF63F02022386
:101D400008A911480C94CDE90823CDE90A6705F0EC
:101D500027F82022022308A90A480C94CDE90A6733
:101D6000CDE9082305F01CF80EB0D0BD540C0024BA
:101D7000004402580010025800180258000C025883
:101D800000200258001C0258001402582DE9F04FA0
:101D9000DFF8108406460D46144608F118002DEDB4
:101DA000028B89B000AF02F013FCD8F8183073B37F
:101DB000D8F81C30D8F80490002B43690BBF4FF0C3
:101DC000080A4FF0100A4FF0020B4FF0040BB9F164
:101DD000000F2AD0A200EA46012B02F1070222F0EE
:101DE0000702ADEB020D6846ADEB020D694600F04F
:101DF0003F81022B00F0D680002B6FD02246C847CF
:101E0000D5462437BD46BDEC028BBDE8F08FD8F82F
:101E10001C30002BF5D0D8F804904FF0080A4FF092
:101E2000020B4369B9F1000FD4D1FB61D8F800303F
:101E3000BB61002BE5D0D54802F03CFC6B46BBF102
:101E4000020F786108EE103AFB6900F083816A4660
:101E50005146A2EBC40295466200EA46B2FBFBF291
:101E6000AAEBC40085460AEB8200EE46F861ADEBB2
:101E7000010DF8690EEB820CC7F810C0EC46ADEB13
:101E8000010D00EB8201CCF80400CCF8081001EB46
:101E900082013869E946CCF80C1000EB8201CCF8DD
:101EA00000A001EB8202C9E900E0C9E90212012B9E
:101EB00000F06483022B00F06C82002B00F0808124
:101EC000620849466046BB69984718EE103A2437C5
:101ED0009D46BD46BDEC028BBDE8F08F002C8DD039
:101EE0001A46D8ED0C6A9FEDB27A8446331D36F956
:101EF00022E00CF1080C07EE90EA33F922E00232FE
:101F0000F8EEE77A944267EE877A67EEA67A4CEDB0
:101F1000027A07EE90EAF8EEE77A67EE877A67EEE4
:101F2000A67A4CED017AE2D8F9612246C847984E6C
:101F3000D8ED0D6A0020F9692B1D9FED9E7A9FED6B
:101F40009E6ADFED9E5A22E0F4EEC67AF1EE10FAB8
:101F5000C0F2C88447F6FE72D1ED017A45F8202020
:101F600066EEA77AF4EEC77AF1EE10FA40F2F0804E
:101F7000F4EEC67AF1EE10FAC0F2D58447F6FE729E
:101F800043F820200230083184427FF639AFD1ED8A
:101F9000007A66EEA77AF4EEC77AF1EE10FAD3D89B
:101FA0003246D9E7002C3FF429AFD8ED0C6A8446BD
:101FB0009FED787A0022331D8E4656F822100CF1E0
:101FC000080C07EE901A53F822100232F8EEE77A66
:101FD000944267EE877A67EEA67A4CED027A07EEB6
:101FE000901AF8EEE77A67EE877A67EEA67A4CEDFC
:101FF000017AE2D871462246C7F81CE0C847664E0F
:10200000D8ED0D6A0020F9692B1D9FED6A7A9FEDCE
:102010006A6ADFF894C120E0F4EEC67AF1EE10FAB5
:10202000C0F279843246D1ED017A45F8202066EE7F
:10203000A77AF4EEC77AF1EE10FA40F28780F4EE58
:10204000C67AF1EE10FAC0F25E84324643F82020E0
:102050000230083184427FF6D3AED1ED007A66EECD
:10206000A77AF4EEC77AF1EE10FAD5D86246DAE72D
:10207000002C3FF4C3AED8ED0C6A86469FED477A3C
:102080004FF0000C331D56F82C200EF1080E82F490
:102090000002A2F5000207EE902A53F82C200CF162
:1020A000020CF8EEE77A82F400026445A2F5000221
:1020B00067EE877A67EEA67A4EED027A07EE902AEF
:1020C000F8EEE77A67EE877A67EEA67A4EED017A48
:1020D000D9D8F9612246C847314ED8ED0D6A0020A3
:1020E000F9692B1D9FED337A9FED336ADFF8BCC091
:1020F0001FE0F4EEC67AF1EE10FAC0F2FC8332462D
:10210000D1ED017A45F8202066EEA77AF4EEC77A81
:10211000F1EE10FA18D9F4EEC67AF1EE10FAC0F228
:10212000DA83324643F820200230083184427FF6B9
:1021300067AED1ED007A66EEA77AF4EEC77AF1EEDB
:1021400010FAD6D86246DBE76246EBE762467DE7E7
:10215000324615E7A100D6466208073121F0070193
:10216000ADEB010DEA46ADEB010D6946ADEB0E0D91
:102170000AEB8200EC46ADEB0E0D01EB8202F8613A
:10218000E946CCE900A0C9E9001290E6AC0C0024B5
:102190000280FFFF000000300082FF7F000000345B
:1021A00082FF7F00900C0024007E00807E0080FF74
:1021B0000000003804FF7FBF04FF7F3F00FEFF46A2
:1021C000002C00F0C982BBF1020FD8F8242000F0E7
:1021D000FA827969C7F8049002EB810E5FED0C5A20
:1021E0008A00DCF808100EF104007A611A46DCF867
:1021F0000C303B61331DD7F810903D61FD69C7E994
:1022000002CB8C46834636F92210D8ED0C7A06EEC6
:10221000101A33F9221006EE901A3EF92210B8EE89
:10222000C66A07EE101AF8EEE66A3BF92210B8EE1D
:10223000C77A26EE256A66EEA56A27EE257A26EE8F
:10224000276A66EEA76A27EE277A07EE901A5108EA
:102250000232F8EEE77A0AEB8100944280ED006AE0
:1022600005EB810067EEA57AC0ED006A0CEB8100FA
:1022700009EB810180ED007A98ED0C7A67EE877AA0
:10228000C1ED007ABFD8D7F804903D69D7E902CBF9
:1022900060466208BB6949469847D8F82C307A698D
:1022A000D8ED0D6A1A441FED3D7A1FED3D6A2B1DD6
:1022B000904602F1040A5FED3F5A0022A84ED9E988
:1022C00000EC51E0F4EEC67AF1EE10FAC0F2C782EB
:1022D00047F6FE7045F822000CEB0100D0ED007AC5
:1022E00066EEA77AF4EEC77AF1EE10FA4BD9F4EE67
:1022F000C67AF1EE10FAC0F2BA8247F6FE70BBF170
:10230000020F43F822002BD0D9F808000844D0ED82
:10231000007A66EEA77AF4EEC77AF1EE10FA36D9B3
:10232000F4EEC67AF1EE10FAC0F2CD8247F6FE70F6
:1023300048F82200D9F80C000144D1ED007A66EE8D
:10234000A77AF4EEC77AF1EE10FA1ED9F4EEC67A47
:10235000F1EE10FAC0F2AF8247F6FE714AF8221091
:10236000023294427FF6B1AD51080EEB8100890034
:10237000D0ED007A66EEA77AF4EEC77AF1EE10FAA5
:10238000A0D83046A6E73046B9E73146E6E7304602
:10239000CEE7002C00F0E081BBF1020FD8F824302A
:1023A00000F0E1817A69DCF8081003EB820EC7F8CF
:1023B00004909300DFED6B5A0EF1040000227B6164
:1023C000DCF80C303B61331DD7F810903D61FD699E
:1023D000C7E902CB8C46834656F82210D8ED0C7A1A
:1023E00007EE101A53F82210B8EEC76A07EE101A5B
:1023F0005EF82210F8EEC76A07EE101A26EE256A7C
:102400005BF82210B8EEC77A66EEA56A26EE276A58
:1024100027EE257A66EEA76A27EE277A07EE901A4E
:1024200051080232F8EEE77A0AEB8100944280ED1F
:10243000006A05EB810067EEA57AC0ED006A0CEB3F
:10244000810009EB810180ED007A98ED0C7A67EE4E
:10245000877AC1ED007ABFD8D7F804903D69D7E9F3
:1024600002CB60466208BB6949469847D8F82C30D1
:102470007A69D8ED0D6A1A449FED3E7A9FED3E6A67
:10248000131D9246DFF8E4C00022FB612B1D364E7F
:10249000D9E9008E4EE0F4EEC67AF1EE10FAC0F201
:1024A000FC81304645F822000EEB0100D0ED007AA9
:1024B00066EEA77AF4EEC77AF1EE10FA49D9F4EE97
:1024C000C67AF1EE10FAC0F2EF813046BBF1020F8E
:1024D00043F822002AD0D9F808000844D0ED007A49
:1024E00066EEA77AF4EEC77AF1EE10FA35D9F4EE7B
:1024F000C67AF1EE10FAC0F2C98130464AF82200DD
:10250000D9F80C000144D1ED007A66EEA77AF4EE1A
:10251000C77AF1EE10FA1ED9F4EEC67AF1EE10FA8F
:10252000C0F2AD813146F86940F82210023294427F
:102530007FF6CBAC510808EB81008900D0ED007A22
:1025400066EEA77AF4EEC77AF1EE10FAA3D86046E9
:10255000A8E76046BAE76146E5E76046CEE700BF18
:102560000280FFFF000000300082FF7F007E0080BD
:102570000000003404FF7FBF04FF7F3F002C00F009
:10258000EB807A690021D8F82430C7F8109003EB6B
:10259000820ED7F81C909300FD610EF104021FED2E
:1025A0000C6A7B61331D154656F821204808D8ED8A
:1025B0000C6ABBF1020F82F40002A2F5000207EEE2
:1025C000902A53F8212082F40002B8EEE77AA2F5AF
:1025D000000227EE067A07EE902A0AEB8002F8EE58
:1025E000E77A27EE267A67EE867A82ED007A09EBA3
:1025F00080024FEA800067EEA67AC2ED007A27D00B
:102600005EF8212082F40002A2F5000207EE902A73
:1026100055F8212082F40002B8EEE77AA2F5000214
:1026200027EE067A07EE902ADCF80820F8EEE77A23
:10263000024427EE267A67EE867A82ED007A98EDDC
:102640000C7ADCF80C2067EE877A0244C2ED007A3F
:1026500002318C42A8D8D7F8109060466208BB6956
:102660004946FD699847D8F82C307A69D8ED0D6A4B
:102670001A441FED407A1FED406A131D9246DFF8A1
:10268000C4C20022FB612B1DAB4ED9E9008E4EE087
:10269000F4EEC67AF1EE10FAC0F2C580304645F885
:1026A00022000EEB0100D0ED007A66EEA77AF4EE80
:1026B000C77AF1EE10FA49D9F4EEC67AF1EE10FAC3
:1026C000C0F2BF803046BBF1020F43F822002AD08F
:1026D000D9F808000844D0ED007A66EEA77AF4EE47
:1026E000C77AF1EE10FA35D9F4EEC67AF1EE10FAA7
:1026F000C0F2AE8030464AF82200D9F80C000144FE
:10270000D1ED007A66EEA77AF4EEC77AF1EE10FA10
:102710001ED9F4EEC67AF1EE10FAC0F28B80314683
:10272000F86940F82210023294427FF6CEAB51088D
:1027300008EB81008900D0ED007A66EEA77AF4EE0E
:10274000C77AF1EE10FAA3D86046A8E76046BAE768
:102750006146E5E76046CEE7224649466046BB69EA
:102760009847FFF7B2BBC7F810B0002298ED0C6A8B
:10277000331DDFED726AD7F81CB0786956F8221065
:1027800007EE901A53F82210B8EEE77A07EE901A87
:1027900051080232F8EEE77A27EE267A0AEB810E2C
:1027A00094420BEB810167EEA67A27EE067A67EE7C
:1027B000867A8EED007AC1ED007ADFD88300D7F8F3
:1027C00010B07B614DE61A46C7F810B098ED0C6A60
:1027D000331DDFED5B6AD7F81CB0786936F922103B
:1027E00007EE101A33F9221007EE901AB8EEC77AE6
:1027F00051080232F8EEE77A27EE267A0AEB810ECC
:1028000094420BEB810167EEA67A27EE067A67EE1B
:10281000867A8EED007AC1ED007ADFD88300D7F892
:1028200010B07B6134E5F0EE675AFEEEE45A15EE27
:10283000900A34E7F0EE675AFEEEE45A15EE901A6D
:102840006EE7F0EE675AFEEEE45A15EE900A3AE7AC
:10285000F0EE675AFEEEE45A15EE900A4BE767EE8B
:10286000A57AFDEEE77A17EE900A00B232E567EE40
:10287000A57AFDEEE77A17EE900A00B23FE5F0EE9A
:10288000675AFEEEE05A15EE901A4CE6F0EE675AE3
:10289000FEEEE05A15EE900A30E6F0EE675AFEEED4
:1028A000E05A15EE900AFDE5F0EE675AFEEEE05AAA
:1028B00015EE900A0AE667EEA57AFDEEE77A17EEC6
:1028C000901A09B24AE567EEA57AFDEEE77A17EEAF
:1028D000900A00B22CE5F0EE675AFEEEE45A15EECF
:1028E000902A1FE467EEA57AFDEEE77A17EE902AAC
:1028F00012B2FFF731BBF0EE675AFEEEE45A15EE66
:10290000902AFFF7FDBBF0EE675AFEEEE05A15EE97
:10291000902AFFF79BBBF0EE675AFEEEE05A15EEE9
:10292000902AFFF780BB67EEA57AFDEEE77A17EEF7
:10293000902A12B2FFF724BB82FF7F000000003014
:10294000000000387E0080FF30B5184C154685B079
:10295000046004F1080EEC460FC98EE80F00D4EDB8
:10296000047AF5EEC07A8CE80F00F1EE10FA1ADD69
:10297000B7EE006A94ED057A27EE277AC6EE276A4D
:1029800084ED0D7AC4ED0C6A6DB1204640F8185FF5
:1029900001F01EFE064903690020064A2162A26278
:1029A000E36005B030BD012005B030BD900C0024BF
:1029B000002000300000003000680830704700BF81
:1029C000B1F5807F03680A4628BF4FF48072B1F5E5
:1029D000807F9A6094BF0020012070470068183003
:1029E00001F056BE30B5046883B008480D46A368B0
:1029F000A26A216A9B00009004F1180001F0EAFD30
:102A00000020C4E9000503B030BD00BF8D1D0008E3
:102A100010B4074B4FF07E5130240022032019617F
:102A20009C60D8605DF8044B5961C3E90622704789
:102A3000900C0024704700BFF8B5134F3C687F2C02
:102A400007D98023114A42F224411C463B60A2F878
:102A50007E100F4D2B68012B0AD90C4E0D4D2246CE
:102A60003146284600F02CF90028F8D13860F8BD2E
:102A700022460649074800F023F90028F7D12B68C1
:102A8000386001332B60F8BDCC0C0024D00C00243E
:102A9000C80C0024500D002430B4154C2168F1B14D
:102AA0004B1E144DE81810F801298C4619460A2AC5
:102AB00001D00D2A02D14BB1013BF4E70CF1020326
:102AC0007F2B10D98023236030BC70470122022362
:102AD00023600D200A236854AB5430BC7047012298
:102AE0000223044DF4E70CF101026146F0E700BF58
:102AF000CC0C0024D00C002410B5094C02460B4627
:102B0000084821680844C1F1800112F065FB236880
:102B100018442060FFF7C0FFFFF78EFF10BD00BF15
:102B2000CC0C0024D00C00240FB400B583B004A951
:102B300051F8040B0191FFF7DFFF03B05DF804EBE0
:102B400004B0704710B5044600210A4800F032F87E
:102B5000002C094B14BF0222002208481A60FFF71C
:102B6000E3FF0748FFF7E0FF0A20BDE8104001F04F
:102B700065BE00BF500D0024C80C0024B4770108C6
:102B8000C4770108064A0749074808B511F082FBD7
:102B9000034A04490548BDE8084011F07BBB00BF6B
:102BA00000000024352A0008500D0024540D002494
:102BB000704700BF012910B506D0022915D051B1C8
:102BC000BDE8104007F0D2B80A46344834490BF04B
:102BD000F7FDE8B1FEE7334B0A46334C334934483E
:102BE0001C600BF0EDFD68B1FEE701222C492B487B
:102BF0000BF0E6FD00B1FEE72E4928480BF004FE7D
:102C0000C0B1FEE72B492A480BF0FEFD60B1FEE79C
:102C1000284922480BF0F8FD00B1FEE726491F487D
:102C20000BF06EFD08B3FEE7244921480BF068FD68
:102C3000A8B1FEE7204919480BF062FD00B1FEE79C
:102C400016480BF009FE024640B9164B164C1749C0
:102C500017481C600BF0B4FD68B1FEE7FEE71448AE
:102C60000BF0FAFD0028ABD0FEE70C480BF0F4FDAA
:102C70000028A5D0FEE70F490D480BF0C5FD00B1B7
:102C8000FEE70E490A480BF03BFD00B1FEE708489D
:102C90000BF0E2FD002893D0FEE700BF34100024C3
:102CA000AC00002410130024B12B00089000002475
:102CB000580D0024140100246C0000245800002446
:102CC000084691B208B502F09FF8003818BF0120FD
:102CD00008BD00BF014806F0DFB800BFF03B00248C
:102CE000014806F0D9B800BFF03B0024014806F0C7
:102CF000D3B800BFF03B002484460FC98CE80F0016
:102D00009CF800300B2B30D09CF801200F2A2CD8D7
:102D1000022900B591B041D0032902D0012900D089
:102D200000210C91DCF80810012902D0022918BFFB
:102D300000210D91DCF80C10022904D0032902D0E7
:102D4000012918BF00210A2B0E910FD85B4800EB18
:102D50008320CCF810000A2B17D8DFE803F0A092EC
:102D60008476685A4C3E3022090070470020F0E714
:102D7000534BD3F8E01041F48061C3F8E010D3F86E
:102D8000E03003F480630A930A9B01230BA993406C
:102D90000B9304F005F811B05DF804FB11210C91C0
:102DA000C0E7474BD3F8E01041F40071C3F8E010DE
:102DB000D3F8E03003F400730993099BE5E7404B37
:102DC000D3F8E01041F48071C3F8E010D3F8E0309C
:102DD00003F480730893089BD7E7394BD3F8E010CE
:102DE00041F08001C3F8E010D3F8E03003F0800335
:102DF0000793079BC9E7324BD3F8E01041F040013D
:102E0000C3F8E010D3F8E03003F040030693069BCC
:102E1000BBE72B4BD3F8E01041F02001C3F8E010E2
:102E2000D3F8E03003F020030593059BADE7244B76
:102E3000D3F8E01041F01001C3F8E010D3F8E0300F
:102E400003F010030493049B9FE71D4BD3F8E0109D
:102E500041F00801C3F8E010D3F8E03003F00803B4
:102E60000393039B91E7164BD3F8E01041F0040164
:102E7000C3F8E010D3F8E03003F004030293029BA0
:102E800083E70F4BD3F8E01041F00201C3F8E010E4
:102E9000D3F8E03003F002030193019B75E7084B80
:102EA000D3F8E01041F00101C3F8E010D3F8E030AE
:102EB00003F001030093009B67E700BF0000025886
:102EC0000044025810B592B0ADF804100180C9B2A8
:102ED000149C0B29C460C0E901233FD090F801C0C5
:102EE000BCF10F0F3AD8022A3FD0032A02D0012AA0
:102EF00000D000220E92012B02D0022B18BF00231B
:102F0000022C0F932CD0032C2AD0012C28D0002384
:102F10000A29109327D85C4A02EB812202610A2910
:102F200014D8DFE801F0A39587796B5D4F41332515
:102F30000600564BD3F8E01041F48061C3F8E0106E
:102F4000D3F8E03003F480630C930C9B01230DA9AC
:102F5000104603FA0CF30D9303F022FF12B010BDDC
:102F60000A291094D7D90022D8E711220E92C2E77D
:102F7000464BD3F8E01041F40071C3F8E010D3F8E9
:102F8000E03003F400730B930B9BDFE73F4BD3F868
:102F9000E01041F48071C3F8E010D3F8E03003F49E
:102FA00080730A930A9BD1E7384BD3F8E01041F0C5
:102FB0008001C3F8E010D3F8E03003F080030993F8
:102FC000099BC3E7314BD3F8E01041F04001C3F84F
:102FD000E010D3F8E03003F040030893089BB5E716
:102FE0002A4BD3F8E01041F02001C3F8E010D3F8E9
:102FF000E03003F020030793079BA7E7234BD3F8A8
:10300000E01041F01001C3F8E010D3F8E03003F015
:1030100010030693069B99E71C4BD3F8E01041F090
:103020000801C3F8E010D3F8E03003F0080305937B
:10303000059B8BE7154BD3F8E01041F00401C3F872
:10304000E010D3F8E03003F004030493049B7DE721
:103050000E4BD3F8E01041F00201C3F8E010D3F8B2
:10306000E03003F002030393039B6FE7074BD3F8B1
:10307000E01041F00101C3F8E010D3F8E03003F0B4
:1030800001030293029B61E70000025800440258CA
:1030900008B5012143780069994089B204F082F8AB
:1030A000003818BF012008BD01230A464178006995
:1030B00003FA01F189B204F07BB800BF10B5002318
:1030C00086B0122204460493CDE902230368022B42
:1030D0001FDC002B01DB0423059323790A2B1FD867
:1030E000114800EB83206279012301A993400193E9
:1030F00003F056FEA3790A2B14D80B4800EB83206B
:10310000E279012301A99340019303F049FE06B03F
:1031100010BD032BE1D10623059323790A2BDFD9B8
:103120000020E0E70020EBE700000258634A036854
:10313000934210B58CB028D0614A934258D0614A6E
:10314000934200F09480604A934201D00CB010BDCD
:103150005E4C5F48D4F8E03043F00203C4F8E0303E
:10316000D4F8E03003F002030A930A9BFFF7A6FFAE
:10317000D4F8F43043F08003C4F8F430D4F8F430D9
:1031800003F080030B930B9BE0E7504C5148D4F8BD
:10319000E03043F00203C4F8E030D4F8E03003F04C
:1031A00002030193019BFFF789FFD4F8E830002266
:1031B0001F2043F400131146C4F8E830D4F8E83077
:1031C00003F400130293029BD4F8D83043F00103B8
:1031D000C4F8D830D4F8D83003F001030393039B2C
:1031E00002F088FA1F200CB0BDE8104002F0C0BA0F
:1031F000364C3948D4F8E03043F08003C4F8E0306E
:10320000D4F8E03003F080030493049BD4F8E0305A
:1032100043F00203C4F8E030D4F8E03003F00203D6
:103220000593059BFFF74AFFD4F8E83000222120E0
:1032300043F480031146C4F8E830D4F8E83003F4CE
:1032400080030693069BD4F8D83043F00103C4F8FA
:10325000D830D4F8D83003F001030793079B02F06D
:1032600049FA21200CB0BDE8104002F081BA1B4899
:10327000FFF724FF154B00224820D3F8E840114601
:1032800044F40004C3F8E840D3F8E84004F4000430
:103290000894089CD3F8D84044F00104C3F8D840FF
:1032A000D3F8D83003F001030993099B02F022FA06
:1032B00048200CB0BDE8104002F05ABA005400405B
:1032C00000580040005C0040001C005800440258B8
:1032D000B815002418130024F8130024D81400246F
:1032E0002DE9F0431A4B87B000254FF010099E4698
:1032F000EC46184BFF22E04667461A700EF118069E
:103300000EF13004CDE90055CDE90255ADF800903D
:10331000BCE80F00CDE90455AEE80F009CE80300BF
:103320000095ADF800908EE80300B8E80F000FC6D6
:103330009CE803000095ADF8009086E803000FCFED
:103340000FC49CE8030084E8030007B0BDE8F083E5
:10335000080000241513002410B5EFF3108472B692
:10336000084B1A78120602D504B962B610BD187857
:10337000054B40B2C0EBC00003EB4010143003F02B
:10338000BDF9F1E71513002418130024014805F0D6
:1033900071BC00BFA4130024014805F06BBC00BF42
:1033A00084140024014805F065BC00BF64150024A6
:1033B0002DE9F0430D6885B0404EC5EBC503032DE4
:1033C0004FEA431706EB4313036041DCCA680C461F
:1033D000012A3DD84FEAC5084CD020689C46616858
:1033E000A8EB0509A2680DF1100EE36806EB491978
:1033F000ACE80F00324B227C8CF80020D9F808C0D2
:103400000FCB0EE90F000EEB8503BCF1010F53F853
:10341000103CC9F88C3032D0BCF1020F43D0BCF163
:10342000000F36D0227C8C37A8EB050500233744EB
:10343000520006EB451601213846C6F8AC30C6E905
:103440002521C6E92733C6E9293304F087FD18B1E1
:10345000012005B0BDE8F0830146384605F016FCB2
:103460000028F5D10146384605F03AFC003818BF6F
:103470000120EEE70A7C103A672AAED9E8E701F0AE
:1034800087FB104B98420CBF0F4B104BC9F8903084
:10349000C8E701F07DFB0B4B98420CBF0C4B0D4B6A
:1034A000C9F89030BEE701F073FB064B98420CBFA1
:1034B000094B0A4BC9F89030B4E700BF1813002439
:1034C0002C760108000E27072D0FB0303211D020C6
:1034D0005F4390608A62E030200BA0101A098010D0
:1034E0002DE9F041D0F8008082B00D4617461E4607
:1034F00008F18C04204605F0C5FB2028FAD1D8F845
:103500000C3073B96D002046089C33463A46A9B288
:10351000009404F079FD003818BF012002B0BDE826
:10352000F081089B32463946204605F011F8F2E753
:103530002DE9F041D0F8008082B00D4617461E46B6
:1035400008F18C04204605F09DFB2028FAD1D8F81C
:103550000C3073B96D002046089C33463A46A9B238
:10356000009404F00FFF003818BF012002B0BDE83E
:10357000F081089B32463946204605F013F9F2E700
:103580002DE9F047066884B00D4690469A46BDF88E
:103590003490002706F18C04204605F073FB2028A8
:1035A000FAD1F3682BB1381E18BF012004B0BDE872
:1035B000F08720460E9C69005346424689B2CDE909
:1035C00001940C9C009405F0EFF90746EBE700BF6F
:1035D000094B6FF0F41110225960C3F8E4101A740B
:1035E00083F8F020C3F8C41183F8D021C3F8A412E3
:1035F00083F8B022704700BF1813002430B50023B1
:1036000095B04FF48071062204460B9306921393F3
:10361000CDE90C13CDE90E33CDE9113301F0BAFA3F
:1036200007282BD004F1100541F2883206A928465C
:1036300006F0CCFC28B10123184684F85C3015B0A4
:1036400030BD0222022306A92846CDE9002310221C
:103650000123CDE9022300224FF48003CDE90423A6
:1036600005224FF0807306926A460F9341F2883329
:1036700006F018FE0028DED115B030BD032301206E
:1036800084F85C3015B030BD70B50023A4B04FF0A5
:1036900080724FF480750446ADF806300D93CDE985
:1036A00010320122CDE90E53CDE91223CDE91433B6
:1036B000002943D0F02300F1100508AEADF8063024
:1036C000C02341F2883231462846089306F07EFC3A
:1036D00028B10123184684F85C3024B070BD41F253
:1036E00088320DF10601284606F0DAFC0346002870
:1036F000EFD105224FF480711E93284616924FF0A9
:1037000080721B9321931F9202AA9FED1F7BCDE92C
:103710001C13CDE922338DED027B9FED1D7B41F221
:10372000883316A98DED047B9FED1B7B8DED067B09
:1037300006F0B8FD0028CCD124B070BD00F1100512
:1037400008AE612341F2883231462846089306F0DC
:103750003DFC0028BDD141F288320DF1060128461A
:1037600006F01CFD0028B4D1BDF80630204623F039
:10377000780343F04003ADF80630FFF73FFF002821
:103780009ED0A6E7AFF3008000000000010000001B
:1037900010000000010000000000000000004000D8
:1037A0002DE9F04F00234FF4807501264FF080780B
:1037B00004462DED028BABB08DF8073013932193A7
:1037C000299314950E96CDF85C80CDE91533CDE99B
:1037D0001863CDE91A33CDE92253CDE92433CDE97D
:1037E000273306231C9301F0D5F9072808D004F1EC
:1037F000100741F288321CA9384606F0E7FB40B1B9
:103800000123184684F85C302BB0BDEC028BBDE878
:10381000F08F4FF0020A4FF0020B4FF0050941F212
:10382000883308AA1CA93846CDF89480CDF870904A
:103830009FED2F8BCDE908AB4FF0000A4FF4800BC2
:103840008DED0A8BCDE90CAB06F02CFD0028D7D10D
:1038500041F2883238460EA906F0B8FB0028CFD1D5
:10386000402341F288320DF1070138468DF80730C8
:1038700006F016FC0028C3D141F288330EA902AA33
:103880003846CDF83890CDF85C809FED1B7BCDE9B4
:1038900006AB8DED027B9FED1A7B8DED047B06F070
:1038A00001FD03460028ABD1CDF870904FF001091F
:1038B000CDF894804FF00008219308AA29931CA901
:1038C00038462295CDE92333CDE9273341F28833B9
:1038D0008DED0A8BCDE90CABCDE9088906F0E2FC51
:1038E000002891D0304684F85C608DE7AFF300800B
:1038F0001000000001000000400000004300000034
:1039000000800000010000002DE9F04F00234FF47B
:10391000807601254FF0807804462DED028BABB008
:10392000CDE9153313932193299314960E95CDF871
:103930005C80CDE91853CDE91A33CDE92263CDE996
:103940002433CDE9273306231C9301F023F90728FC
:1039500008D004F1100741F288321CA9384606F05D
:1039600035FB40B10123184684F85C302BB0BDEC28
:10397000028BBDE8F08F4FF0020A4FF0020B4FF0C0
:10398000050941F2883308AA1CA93846CDF894806D
:10399000CDF870909FED308BCDE908AB4FF0000A69
:1039A0004FF4800B8DED0A8BCDE90CAB06F07AFC61
:1039B0000028D7D141F2883238460EA906F006FB1E
:1039C0000028CFD1402341F288320DF1070138465B
:1039D0008DF8073006F064FB0028C3D19DF807304E
:1039E00008AA0C90FF2008934FF400430EA90B95F2
:1039F000CDF83890CDF85C80CDE909034FF4800311
:103A000038460D9341F2883306F04CFC03460028FB
:103A1000A8D10022219329931CA938462296CDF8DB
:103A20007090CDF89480CDE92333CDE9273301237D
:103A3000CDE9022341F2883302AA8DED048BCDE952
:103A400006AB06F02FFC002890D0284684F85C5086
:103A50008CE700BFAFF30080100000000100000001
:103A600070B50122AAB004460D465F48C02103F09C
:103A70009FFB00265D4B06965B4895FAA5F5CDE9C0
:103A80000466D3F8E02042F02002C3F8E020C02210
:103A9000D3F8E03003F0200301930123019902A938
:103AA000CDE9022303F07CF9142001F0F9FD324640
:103AB000C0214D4803F07CFB142001F0F1FD0122F0
:103AC000C021494803F074FB142001F0E9FD0123F3
:103AD000474AE6612261C4E90533002D77D0B5FA83
:103AE00085F1013900234FF4807604F11005C4E913
:103AF00008162846C4E90B3306F0FAF930B1012361
:103B00001D4684F85C3028462AB070BD66231690A6
:103B1000179041F2883213900EA91B900E93CDE9B5
:103B20001460CDE91900284606F050FA0028E6D1C5
:103B300099230EA941F2883228460E9306F046FAE0
:103B40000028DCD105230121249008AA2190279088
:103B50001C934FF08073CDE92260CDE9280010203E
:103B6000259341F28833CDE90A019FED1D7B0020AA
:103B70004FF48001CDE90C011CA928468DED087B8E
:103B800006F090FB0028BAD12046FFF7BDFE0028C2
:103B9000B5D1284606F008FA05460028AFD12379AA
:103BA0000A2B18D963790121994003F033FAA379DC
:103BB0000A2B0ED80F4800EB83200126E17906FA84
:103BC00001F103F027FA266684F864609BE71F2161
:103BD00088E70020F1E7074800EB8320E2E700BF19
:103BE00000000000010000000014025800440258C8
:103BF00000500052000002582DE9F041684CA2B07C
:103C00000D46046000F0C6FF07284BD02868234605
:103C1000AA68696807C3AA89184620F8042B267B7E
:103C2000677B06F0C1F9002834D1012E94F8643086
:103C300014BF4FF480154FF400052366002B39D0D4
:103C4000584B95FAA5F523610123C4E905330023F8
:103C5000E361002D6ED0B5FA85F1013900234FF4F0
:103C600080785148C4E90818C4E90B3306F040F9DC
:103C700080B966230B90139041F2883206A906930F
:103C8000CDE90C80CDE90E00CDE91100464806F0E3
:103C90009DF9A0B101231D4684F85C30284622B06E
:103CA000BDE8F08101250323284684F85C3022B06A
:103CB000BDE8F08129462046FFF7D2FEC0E79923F0
:103CC00041F2883206A93848069306F07FF90028A9
:103CD000E0D105231C9019906A4614934FF080732D
:103CE000219014A91D9341F288339FED277BCDE9E4
:103CF0001A80CDE91F008DED007B9FED257B2A48C2
:103D00008DED027B9FED247B8DED047B06F0CAFADE
:103D10000028BFD131462248FFF7B6FC0028B9D1B0
:103D20001F48FFF73DFD05460028B3D127B1022308
:103D30002366B3E71F2191E7EB23002600271890A5
:103D400014934FF440631F9006AA1B934FF4005343
:103D5000209014A917934FF4404313481C93A023B9
:103D6000CDF868801693062319934FF08053219362
:103D70004FF04073CDE906671D9306F00BFB00285A
:103D8000D5D087E7AFF300800000000001000000FD
:103D900010000000010000000000000000004000D2
:103DA0009816002400500052A81600245E4B0268AA
:103DB0002DE9F0419A428CB04FF00004CDE9074460
:103DC000CDE909440B9402D00CB0BDE8F081574B0B
:103DD000574DD3F8D420574F42F48042564EDFF867
:103DE0005C81C3F8D420D3F8D42002F4804200923E
:103DF000009ADA6F42F48042DA67DA6F22F4804286
:103E0000DA67D3F8E02042F04002C3F8E020D3F8AC
:103E1000E02002F040020192019AD3F8E02042F043
:103E20002002C3F8E020D3F8E02002F02002029242
:103E3000029AD3F8E02042F01002C3F8E020D3F851
:103E4000E02002F010020392039AD3F8E02042F03F
:103E50000202C3F8E020D3F8E03003F00203049339
:103E6000049B22E014F0FC0252D103F1200155F82A
:103E7000211008780A2839D891F801C00121099247
:103E800007EB802201FA0CF107910221CDF8148092
:103E9000089103210A910CA90B4413F81C3C07A9B3
:103EA000104601340B9302F07BFF2A6EE3B2002A26
:103EB000D8D0052B2CD803F11A0255F822100A7815
:103EC0000A2A18D9497801228A4002210792002241
:103ED000CDE9081203210A910CA90B4496E80300CE
:103EE0000590ADF8181013F81C3CD8E7487801216C
:103EF00009928140C8E74878012107EB822281407E
:103F0000022007910021CDE9080103210A91E3E78E
:103F100000225C20114601F0EDFB5C2001F028FC42
:103F20000CB0BDE8F08100BF0050005200440258C0
:103F30009816002400000258D47701080A0A090ADA
:103F40000268F8B5194B9A4200D0F8BD184A00240F
:103F5000184F0125D2F8D430174E23F48043C2F80D
:103F6000D43011E014F0FC0F1BD157F821301A782F
:103F70000020597801340A2A05FA01F198BF06EBAE
:103F8000822089B203F046F8E3B23A6E03F12001D1
:103F9000002AE7D0052B03F11A0202D857F8223085
:103FA000E5E75C20BDE8F84001F0F0BB00500052AE
:103FB000004402589816002400000258014806F0F8
:103FC00075BA00BFA81600240E4B6FF0F412002142
:103FD000981C30B41C1D9D1D9A605D671C67C3E969
:103FE0000022C3E9181103F10A0203F1080130BCF1
:103FF000C3E91A30C3E91E12C3E92030C3E9221213
:10400000704700BF9816002438B5036871B9026A7A
:1040100000F1280500F5AC74012A0CBF00214021F5
:104020008BBB1D4B5722C0F858310DE0426A00F19E
:10403000C00500F5E874012A0CBF00214021EBB156
:10404000164B5A22C0F8D03100232046C4E9012182
:104050004FF480524FF48061636262614FF480429A
:10406000C4E903314FF48073C4E906234FF40033ED
:10407000236201F0F1FC58B1FFBEFEE7084B582265
:10408000C0F8D031E0E7074B5922C0F85831DBE7E0
:10409000C5E92044A56338BD10000240700002400D
:1040A00028000240580002402DE9F043C28889B040
:1040B00081468388ADF800200089B9F80A10B9F864
:1040C0000C20ADF80230D9F81830ADF80400ADF886
:1040D0000610ADF80820002B3FD0D9F81C70B7FAB5
:1040E00087F77F09012502236C460DF10A06DFF8E8
:1040F00070800695CDE9043599F804202078824235
:10410000627818D0D9F80010F9B1012902D1F8B1BC
:104110000A2107910A2805FA02F203A994BF08EBC5
:1041200080200020039202F03BFE0234A642E3D13D
:1041300009B0BDE8F08399F805109142E2D1002F53
:10414000F3D0D9F800100029DFD106210791E1E76B
:10415000022A0CBF08210A21DBE70127C2E700BFC2
:1041600000000258534A0368934230B505468BB0AD
:1041700055D02032934252D04F4A934204D020323D
:10418000934201D00BB030BD4C4C4D48D4F8E030D8
:1041900043F00103C4F8E030D4F8E03003F0010349
:1041A0000593059BD4F8E03043F00803C4F8E030F1
:1041B000D4F8E03003F008030693069BD4F8E0300F
:1041C00043F04003C4F8E030D4F8E03003F040039B
:1041D0000793079BD4F8F03043F40003C4F8F030A1
:1041E000D4F8F03003F400030893089BFFF75CFF5A
:1041F000D4F8D830296843F001032F4A3048C4F876
:10420000D830891AD4F8D83018BF012103F001033F
:104210000993099B0BB0BDE83040FFF7F5BE274C72
:104220002848D4F8E03043F00103C4F8E030D4F873
:10423000E03003F001030093009BD4F8E03043F03A
:104240001003C4F8E030D4F8E03003F01003019319
:10425000019BD4F8E03043F04003C4F8E030D4F8D8
:10426000E03003F040030293029BD4F8F03043F4B3
:104270008003C4F8F030D4F8F03003F480030393E3
:10428000039BFFF711FFD4F8D830296843F00103EE
:10429000084A0C48C4F8D830891AD4F8D83018BF66
:1042A000012103F001030493049B0BB0BDE83040EF
:1042B000FFF7AABE04580140045C014000440258C4
:1042C0008419002428170024014802F017BA00BFFF
:1042D00080180024014802F011BA00BFF818002429
:1042E000014802F00BBA00BFDC1A0024014802F0BA
:1042F00005BA00BF541B00241A4A0368934210B445
:104300000BD02032934208D0174A934216D0203265
:10431000934213D05DF8044B7047144B0022D3F83E
:104320005442C3F85822002CF4D0D3F84802D3E901
:10433000931223465DF8044B520818470B4B00229A
:10434000D3F8B044C3F8B424002CE3D0D3F8AC24A1
:10435000D3F8A814D3F8A404520823465DF8044BFC
:10436000184700BF04580140045C0140281700248E
:10437000184A0368934210B40BD02032934208D0FD
:10438000154A934217D02032934214D05DF8044B63
:104390007047124BD3E994245208C3F85822002CDA
:1043A000F4D0D3E99201234601EB820100EB8200B5
:1043B0005DF8044B1847094BD3F8AC24D3F8B0444C
:1043C0005208C3F8B424002CE0D0D3F8A814D3F8D2
:1043D000A404E8E704580140045C014028170024C5
:1043E0002DE9F0470C684FF41776774F86B004FB41
:1043F00006F6012C07EB0608C0F8008000F39F804A
:1044000000230D468E46C446C8F85032C8E99233A0
:1044100069A3D3E900236AA1D1E90001CDE9022310
:1044200006AB03EB8403CDE9040153F810AC53F859
:10443000089CBEE80F00ACE80F00BEE80F00ACE837
:104440000F009EE80300C8F828A0C8F8C0908CE8C8
:1044500003002B69042B0CD8DFE803F078828C96DC
:1044600003004FF41773594A03FB04739A64C3F8AB
:10447000E020AA692B6A002A42D0002B4FF4177360
:1044800008BF022203FB047318BF0322DA62012271
:104490001A63EA696B6A002A3FD1191E4FF4177339
:1044A00018BF012103FB0473C3E9311269690129B3
:1044B00043D0022947D1032500214FF4177306F199
:1044C00028002A46019103FB0473002438445C64ED
:1044D0005C63DC65C3F8DC40C3F8CC40C3F8F4404F
:1044E000C3E90F44C3E91544C3E93544C3E93B4478
:1044F000022308F0E1FB019900284FD0FFBEFEE740
:10450000191E4FF4177318BF012103FB0473C3E98D
:104510000B12EA696B6A002ABFD0002B4FF41773A5
:104520000CBF0222032203FB0473C3F8C420012240
:10453000C3F8C82069690129BBD10225BDE7012064
:1045400006B0BDE8F08700252946B6E74FF417739B
:104550004FF4FA5203FB04739A64C3F8E02088E72F
:104560004FF417734FF47A5203FB04739A64C3F841
:10457000E0207EE74FF417734FF4FA4203FB047315
:104580009A64C3F8E02074E74FF417734BF6803257
:1045900003FB04739A64C3F8E0206AE706F1C000E5
:1045A00002232A46384408F087FB0028C8D0FFBE03
:1045B000FEE700BFAFF3008004580140045C0140F7
:1045C00024580140245C0140281700240077010092
:1045D0000068704770B5046882B015460E46C4F88E
:1045E0005032C4E99212069AC4F85422A269012AF0
:1045F00026D0626A012A9AB211D0294604F1C0007D
:10460000019208F013FC236A019A012B10D029466D
:1046100004F1280008F00AFC002002B070BD04F18B
:10462000C000019208F094FC236A019A012BEED19C
:10463000314604F1280008F08BFC002002B070BD68
:10464000226A012A9AB211D0294604F12800019267
:1046500008F0ECFB636A019A012B10D0294604F1A3
:10466000C00008F0E3FB002002B070BD04F1280098
:10467000019208F06DFC636A019A012BEED131467C
:1046800004F1C00008F064FC002002B070BD00BF5F
:1046900003681B69042B05D8044A02EB830393EDDE
:1046A000000A70479FED020A704700BFDC770108DF
:1046B00000803B470368D3F858027047064B6FF001
:1046C000F4124FF60B71C3E901229981A3F8681225
:1046D000C3E99822704700BF28170024704700BF25
:1046E00008B500F0CBFFBDE8084001F0CBB800BF33
:1046F000064808B503680BB102F05EFD0448036884
:104700001BB1BDE8084004F0C7BB08BD1048002439
:1047100000410024064808B503680BB102F04CFDC7
:10472000044803681BB1BDE8084004F0B5BB08BDF0
:104730001048002400410024064808B503680BB166
:1047400002F03AFD044803681BB1BDE8084004F0DC
:10475000A3BB08BD1048002400410024364BDA6A90
:10476000520062D59A6A9A6A9A6A9B6A180600D5BC
:1047700000BE314B9B6A990600D500BE2E4B9B6A4A
:10478000DA0600D500BE2C4B9B6A1B0700D500BE85
:10479000294B9B6A980700D500BE274B9B6AD90717
:1047A00000D500BE244B9B6A1A0400D500BE224BE4
:1047B0009B6A9B0400D500BE1F4B9B6AD80400D5A2
:1047C00000BE1D4B9B6A190500D500BE1A4B9B6AA3
:1047D0005A0500D500BE184B9B6A9B0500D500BE4C
:1047E000154B9B6AD80500D500BE134B9B6A9901F7
:1047F00000D500BE104B9B6ADA0100D500BE0E4BFF
:104800009B6A1B0300D500BE0B4B9B6A580300D567
:1048100000BE094B9B6A990300D500BE064B9B6AFC
:10482000DA0306D400BE00BEFEE7DB6A9B07FAD5BA
:10483000F8E700BEF6E700BF00ED00E000F030BF93
:104840000A4B9B6803F17843B3F5003F0BD3084B49
:10485000986848B19868012806D09868022803D063
:104860009B68032070470120704700BF00ED00E007
:1048700000008038000000002DE9F041CEB0044671
:104880004C2200210AA80FF03BFF2022002102A8A1
:104890000FF036FFC02200211EA80FF031FF0220CA
:1048A00005F040FA2368012B4FF0000354D0584A1A
:1048B00002250193C820D16A564B21F00101D16233
:1048C000D26A02F0010201929A6942F440429A616E
:1048D0009B6903F440430193019B4E4A93699B04F7
:1048E000FCD54D490224002201268B6A04274FF093
:1048F000080823F0030323438B62052316900AA8BC
:1049000018934FF480331096179419941597CDF897
:104910006880CDE91B222122CDE91344CDE90A2389
:1049200005F064FF00B1FEE73F220323294602A8F9
:10493000CDE9022300220823CDE9042340224023AD
:10494000CDE9062340234FF48062CDE9082306F029
:10495000E7FA0346B8B1FEE72E4A04250093F0209B
:1049600091692B4B41F440419161926902F44042BC
:104970000092DA6A42F00102DA62DB6A03F00103B4
:104980000093009BA9E7202226932E9380212C924E
:104990004FF48052319306253F931EA827923692FA
:1049A0004FF4803225914FF4401132924792002209
:1049B0002895802540911021CDF888802B9720964E
:1049C0002A91CDE92F3440F2271329934FF48063C5
:1049D0002D930023CDE92346CDE93C234FF4807489
:1049E0000C2344940224219307A3D3E90023CDE9A7
:1049F0003445CDE91E2306F07FFD00B1FEE705F04A
:104A0000B5F94EB0BDE8F0810F130F0300000000B0
:104A100000040058004802580044025870B584B0A1
:104A2000012400F0DDFE4FF480764FF04052194B28
:104A300068460025ADF800400396CDE9012300F05B
:104A4000EDFE19224FF0404368468DF8082001938F
:104A50008DF80F40ADF80D608DF801408DF80A50CB
:104A600000F0DCFE02230B2268468DF80F508DF813
:104A700001304FF062538DF808200193ADF80D40DE
:104A80008DF80A4000F0CAFE042000F0B7FE04B022
:104A900070BD00BF0E00010330B50D46044685B061
:104AA000D1E9000184E8030000F0B8FDAB79002BE8
:104AB00063D00CF071FFFEF713FC0BF023FA0CF03F
:104AC0000FFC2B795BB3304C636913F4803326D130
:104AD000C4F88430BFF34F8FD4F8801043F6E07EE3
:104AE000C1F34E3CC1F3C9014FEA4C1C0CEA0E0065
:104AF0000B4640EA8372013BC4F860225A1CF8D18D
:104B0000ACF1200C1CF1200FF0D1BFF34F8F636983
:104B100043F480336361BFF34F8FBFF36F8F6B79C3
:104B2000B3B1194A536913F4003311D1BFF34F8F56
:104B3000BFF36F8FC2F85032BFF34F8FBFF36F8F49
:104B4000536943F400335361BFF34F8FBFF36F8F4B
:104B50004FF0FF3200230024002569460B480292E3
:104B60008DF80C30CDE900450BF000FE07480BF046
:104B700065FE0AF063FB05B030BD2046FFF77CFE02
:104B80002046FFF74BFF94E700ED00E0E01B002418
:104B900006F02EBB1C4B9B6803F17842B2F5003F38
:104BA00025D3B3F5803F20D303F16042B2F5003F37
:104BB0001FD303F15C42B2F5002F1CD303F1704206
:104BC000B2F5902F19D303F14842B2F5803F16D3C6
:104BD00003F18042B2F1806F13D303F1E043B3F5E8
:104BE000000F2CBF082007207047012070470020CD
:104BF000704702207047032070470420704705204B
:104C000070470620704700BF00ED00E00348002316
:104C1000034A044903600FF03DBB00BFE01B0024C2
:104C200000000024DD46000810B4204C0022204B78
:104C300083B0D4F888101F4841F47001C4F888107C
:104C400019681D4C41F0010119601A61196808408A
:104C50001A4918609A61DA611A629A62DA621A6312
:104C60005A639A63DA631A645A64186820F48020DD
:104C700018601A66D3F8DC2042F06042C3F8DC20EA
:104C8000D3F8DC300193019B23681940B1F1005F38
:104C900003D20B4B0122C3F80821044B4FF00062F2
:104CA0009A6003B05DF8044B704700BF00ED00E070
:104CB000004402587FEDF6EA0010005C0000FFFFA0
:104CC00000800051704700BF0020704770B5044657
:104CD000074E0D463046214609F02CFD304609F0BE
:104CE00051FD044B204629461B689847002070BDA3
:104CF000580D0024E43B002470B50446074E0D46D1
:104D00003046214609F016FD304609F03BFD044BC4
:104D1000204629461B689847002070BD34100024A7
:104D2000E83B002400220949094808B509F0F4FCD1
:104D30000849074809F0FEFC074B1A680AB1002031
:104D400008BD064A00201A6008BD00BFE42B0024FD
:104D5000580D0024E41B0024E43B0024C54C00084B
:104D600000220949094808B509F0D6FC0849074856
:104D700009F0E0FC074B1A680AB1002008BD064A9A
:104D800000201A6008BD00BFE43300243410002462
:104D9000E4230024E83B0024C54C000820280AD066
:104DA000212806D1094B18689A889B7908608A8067
:104DB0008B7100207047054B0868B1F804C08A79F0
:104DC00018600020A3F804C09A7170478000002486
:104DD00020280AD0212806D1094B18689A889B7987
:104DE00008608A808B7100207047054B0868B1F815
:104DF00004C08A7918600020A3F804C09A71704733
:104E0000880000240020704710B5094CD4F8BC324B
:104E1000D3F814320BB1012010BD0A4601462046DA
:104E200009F07AFC2046BDE8104009F08FBC00BFB5
:104E3000580D00244B4A036830B593428BB04FF0B5
:104E40000004CDE90444CDE90644089404D0464A60
:104E5000934249D00BB030BD444D4FF4C05244484A
:104E6000D5F8E03043F00103C5F8E030D5F8E03084
:104E700003F0010300930223009904A9CDE9042360
:104E80000A23089301F08CFF4FF40072002304A959
:104E900037480694CDE9042301F082FFD5F8D830D5
:104EA0002246214643F000636220C5F8D830D5F889
:104EB000D83003F000630193019B00F01BFC6220DB
:104EC00000F056FC22462146632000F013FC6320CC
:104ED00000F04EFC22462146652000F00BFC6520C8
:104EE00000F046FC0BB030BD204D4FF4404204A909
:104EF000D5F8E03043F00203C5F8E030D5F8E030F3
:104F000003F002030293022302981A48CDE9042316
:104F10000C23089301F044FFD5F8D83022462146EF
:104F20004A2043F00073C5F8D830D5F8D83003F0E4
:104F300000730393039B00F0DDFB4A2000F018FC94
:104F4000224621464B2000F0D5FB4B2000F010FC00
:104F5000224621464D2000F0CDFB4D2000F008FCFC
:104F60000BB030BD0000084000000440004402586F
:104F7000000002580004025800F2C441D0F80805AD
:104F800009F07EBC01EBC10300EB8303D0F80805F8
:104F9000D3F8882209F0A4BC01EBC10300EB830322
:104FA000D0F808059A6C09F0D5BC00BFD0F8080508
:104FB00009F07EBD016910B5044619B1022900D07F
:104FC000FEE70121D4F8080509F052FDD4F80805E0
:104FD000BDE8104009F01EBD10B50446D0F8080524
:104FE00009F04AFD2268D2F8003E43F00103C2F8FE
:104FF000003E236A23B1034A136943F00603136199
:1050000010BD00BF00ED00E0D0F8080509F044BD78
:10501000D0F8080509F072BDD0F8080509F058BDB0
:10502000D0F8080509F080BDD0F8080509F07EBD6C
:1050300070B5067804461EB1012E30D0002070BD38
:10504000304D0923304AC5F80805C0F8C852284633
:10505000EE602E63C5E90023022302222B610023A8
:10506000C5E9062300220023C5E908230122012304
:10507000C5E90A2303F060FE00B1FEE7802128465F
:1050800004F030FE31464022284604F001FE802222
:105090000121284604F0FCFD2678012ECED11B4DBF
:1050A00009221B4B00216A6002222B600223C5F8F3
:1050B000084528462B610023C4F8C852E960C5E9B9
:1050C000062300220023C5E90823C5E90C23012299
:1050D0000023C5E90A2303F02FFE044600B1FEE7D2
:1050E0004FF40071284604F0FDFD21468022284639
:1050F00004F0CEFD4FF4BA723146284604F0C8FDE4
:105100009CE700BFF03B0024000008400041002461
:1051100000000440D0F8C80208B503F09BFE032845
:1051200002D8024B185C08BD032008BD00780108B6
:105130009446D0F8C8021A4608B5634604F066FCE7
:10514000032802D8024B185C08BD032008BD00BF2D
:1051500000780108D0F8C80208B504F095FC0328CF
:1051600002D8024B185C08BD032008BD0078010876
:10517000D0F8C80208B504F00BFD032802D8024B92
:10518000185C08BD032008BD00780108D0F8C802EB
:1051900008B504F041FD032802D8024B185C08BD95
:1051A000032008BD007801080A06D0F8C83206D4EA
:1051B00001EBC10103EB810191F87E02704701F020
:1051C0007F0101EBC10103EB810191F83E007047C3
:1051D000D0F8C80208B504F003FC032802D8024B3B
:1051E000185C08BD032008BD00780108D0F8C8028B
:1051F00008B504F0ABFC032802D8024B185C08BDCC
:10520000032008BD00780108D0F8C80208B504F0F2
:1052100071FC032802D8024B185C08BD032008BDAE
:1052200000780108D0F8C80204F086BC12230148B7
:105230000B807047DC000024122301480B8070476C
:10524000C8000024042301480B807047F0000024AC
:1052500010B5044C0A460448214609F037FF2046A1
:1052600010BD00BF0C4600240478010810B5044CA2
:105270000A460448214609F029FF204610BD00BF18
:105280000C4600241478010810B5044C0A46044862
:10529000214609F01BFF204610BD00BF0C4600242C
:1052A0002878010810B5044C0A460448214609F044
:1052B0000DFF204610BD00BF0C46002434780108C5
:1052C00010B5044C0A460448214609F0FFFE20466A
:1052D00010BD00BF0C460024447801080423014897
:1052E0000B807047F000002410B5044C0A460448B7
:1052F000214609F0EBFE204610BD00BF0C460024FD
:1053000004780108464A4FF01A0CD2F80008D2F887
:105310000838A1F800C0C31801D142487047180FDF
:10532000B3F1204FD2F804184FF0000C3D4A2CBFC7
:105330003730303082F803C04FF0000C9070C3F368
:10534000036082F805C04FF0000C092882F807C0FE
:105350004FF0000C8CBF3730303082F809C04FF06E
:10536000000C1071C3F3035082F80BC04FF0000C17
:10537000092882F80DC08CBF373030309071C3F3EC
:10538000034009288CBF373030301072C3F303302C
:1053900009288CBF373030309072C3F303200928BE
:1053A0008CBF373030301073C3F3031003F00F039A
:1053B00009288CBF37303030092B90734FF0000034
:1053C00094BF30333733B1F1204FD07313744FEAA9
:1053D00011734FF000002CBF37333033507400206E
:1053E0009374C1F30363D0740020092B50754FF000
:1053F00000008CBF37333033D0751375C1F30353BE
:105400000848092B8CBF373330339375C1F30343FE
:10541000092B94BF3033373313760023537670470C
:1054200000E0F11FF4000024464A4FF01A0CD2F8B5
:105430000008D2F80838A1F800C0C31801D14248CA
:105440007047180FB3F1204FD2F804184FF0000C3A
:105450003D4A2CBF3730303082F803C04FF0000C8B
:105460009070C3F3036082F805C04FF0000C092868
:1054700082F807C04FF0000C8CBF3730303082F814
:1054800009C04FF0000C1071C3F3035082F80BC039
:105490004FF0000C092882F80DC08CBF3730303037
:1054A0009071C3F3034009288CBF3730303010723D
:1054B000C3F3033009288CBF373030309072C3F308
:1054C000032009288CBF373030301073C3F303102A
:1054D00003F00F0309288CBF37303030092B90734D
:1054E0004FF0000094BF30333733B1F1204FD07309
:1054F00013744FEA11734FF000002CBF3733303371
:10550000507400209374C1F30363D0740020092BFE
:1055100050754FF000008CBF37333033D0751375A2
:10552000C1F303530848092B8CBF373330339375CD
:10553000C1F30343092B94BF303337331376002371
:105540005376704700E0F11FF400002410B5044CBE
:105550000A460448214609F0B9FD204610BD00BFA7
:105560000C4600243478010810B5044C0A4604485F
:10557000214609F0ABFD204610BD00BF0C460024BB
:1055800028780108D0F8000309F012BED0F8000313
:1055900009F026BED0F8000309F02EBE704700BF08
:1055A000D0F8000309F014BED0F8000309F014BECF
:1055B000D0F8D40308B502F079FA032802D8024BD8
:1055C000185C08BD022008BD58780108704700BF6C
:1055D0000F4B1B780BB90120704710B504464FF4F0
:1055E0007A700C4AB0FBF3F31068B0FBF3F000F0F4
:1055F000E1F80F2C00D808B1012010BD002221468F
:105600004FF0FF3000F076F8034B00201C6010BD17
:105610000E010024500000241001002410B50320C6
:10562000124C00F055F805F0DBFB114B11499A695B
:105630009B69C2F3032203F00F038A5CCB5C02F088
:105640001F020D4903F01F03D04020FA03F3086046
:105650000E202360FFF7BCFF10B10124204610BDCF
:105660000446FFF7B3FF204610BD00BF54000024DE
:1056700000440258F077010850000024034A044B0C
:1056800011681B780B441360704700BF144B002453
:105690000E010024014B1868704700BF144B002412
:1056A00038B50446FFF7F6FF0546631C02D0044BED
:1056B0001B781C44FFF7EEFF431BA342FAD338BD0F
:1056C0000E010024014B1868000C70470010005CAC
:1056D00006494FF6FF0C0002054BCA6800F4E06073
:1056E00002EA0C0210430343CB60704700ED00E078
:1056F0000000FA051B4BDB68C3F3022300B5C3F1BE
:10570000070E03F1040CBEF1040F28BF4FF0040E86
:10571000BCF1060F1AD9033B4FF0FF3C0CFA03FC17
:1057200022EA0C024FF0FF3C00280CFA0EFC21EAA2
:105730000C0101FA03F141EA02010ADB09010A4BFB
:10574000C9B2034483F800135DF804FB002213463A
:10575000E8E700F00F000901044BC9B203441976D1
:105760005DF804FB00ED00E000E100E0FCEC00E08F
:10577000002807DB012300F01F01034A40098B408A
:1057800042F82030704700BF00E100E000280DDB48
:105790004309012200F01F000549203302FA00F0FE
:1057A00041F82300BFF34F8FBFF36F8F704700BFE7
:1057B00000E100E0431EB3F1807F0CD24FF0E02205
:1057C000002006494FF0F00C5361072381F823C0F5
:1057D0009061136170470120704700BF00ED00E049
:1057E000BFF35F8F044B00215A6A22F480325A6261
:1057F000C3F89410704700BF00ED00E0064B40F086
:105800000100C3F894005A6A42F480325A62BFF32E
:105810004F8FBFF36F8F704700ED00E0174A43785A
:10582000C2F89830017821B3436800B5C2F89C30C3
:10583000C37A90F80CC01B0690F80FE043EA0C7393
:1058400090F80AC00B43817B43EACC4390F80DC02B
:1058500043EA8C4390F809C043EA4143017A43EAA2
:105860000E4343EA0C2343EA4103C2F8A0305DF83B
:1058700004FBC2F89C10C2F8A010704700ED00E0D5
:10588000704700BF08B5FFF7FBFF08BD0268344B47
:10589000344930B4344D354CAA4218BF9A420CBF3B
:1058A000012300238A4208BF43F001033031A242A2
:1058B00008BF43F0010330348A4208BF43F00103BC
:1058C0003031A24208BF43F0010330348A4208BF9E
:1058D00043F0010301F55C71A24208BF43F00103EC
:1058E00004F55C748A4208BF43F001033031A242E0
:1058F00008BF43F0010330348A4208BF43F001037C
:105900003031A24208BF43F0010330348A4208BF5D
:1059100043F001033031A24208BF43F001038A4241
:1059200008BF43F0010313B9114B9A4213D1D3B20C
:105930001049114C103BA1FB03515F2B0F4BC1F3DE
:10594000021103EA0203615C88BF0433C165836509
:10595000184630BC704722F0FF038365F8E700BFAC
:10596000100002404000024028000240580002405F
:10597000B8040240ABAAAAAA5C78010800FCFFFFA9
:105980000368294A294930B4294D2A4CAB4218BF33
:1059900093420CBF012200228B4208BF42F0010259
:1059A0002831A34208BF42F0010228348B4208BFCD
:1059B00042F001022831A34208BF42F001028B42AB
:1059C00008BF42F0010212B91B4A934213D1DBB265
:1059D0001A4C1B4A0121083B1A4DA4FB03434566A0
:1059E00002EB1312C3F30413920001FA03F30266ED
:1059F000836630BC7047DAB21349144C1944103A2C
:105A0000A829A4FB02234FEA131300D80833104A35
:105A100003F01F0501210F4C1A44A940446692006F
:105A200081660266E5E700BF085402583054025808
:105A30001C5402584454025894540258CDCCCCCC37
:105A40000096001680580258F0FBFDBFABAAAAAA28
:105A50000082001080080240F8B50446FFF71AFEE5
:105A6000002C00F0778123680546924A934248D083
:105A70001832934245D030328F498B4218BF93423F
:105A800001F130010CBF012200228B4208BF42F01D
:105A9000010218318B4208BF42F0010218318B42DB
:105AA00008BF42F0010218318B4208BF42F00102E8
:105AB00001F556718B4208BF42F0010218318B424A
:105AC00008BF42F0010218318B4208BF42F00102C8
:105AD00018318B4208BF42F0010218318B4208BFD7
