:020000040800F2
:1000000000000220190A00080D0A0008155800080F
:100010000D0A00080D0A00080D0A00080000000083
:100020000000000000000000000000000D0A0008B1
:100030000D0A0008000000000D0A0008995700088A
:100040000D0A00080D0A00080D0A00080D0A000834
:100050000D0A00080D0A00080D0A00080D0A000824
:100060000D0A00080D0A00080D0A00088153000857
:100070008D530008513A000899530008A553000811
:100080009D320108114400080D0A00080D0A0008FD
:100090000D0A00080D0A00080D0A00080D0A0008E4
:1000A0000D0A00080D0A00080D0A00080D0A0008D4
:1000B0001D240108292401083524010845440008AD
:1000C0000D0A0008514400080D0A0008651C0108CB
:1000D000711C0108D1300108FD30010831310108DF
:1000E0000D0A00080D0A0008000000000D0A0008B3
:1000F0000D0A00080D0A00080D0A00080D0A000884
:100100000D0A00080D0A0008412401087D1C0108A1
:1001100065310108993101080D0A00080D0A00082F
:100120000D0A00080D0A0008A11C0108D51C0108D1
:10013000D13201080D0A00080D0A00080D0A000856
:1001400000000000000000000000000000000000AF
:100150000D0A00080D0A00080D0A0008CD3101083B
:100160005D4400080D0A0008A9570008CD57000893
:100170000D0A0008F15700080D0A00080D0A0008D2
:100180000D0A00080D0A0008013201083532010885
:10019000891C0108951C01080D0A00080D0A0008B9
:1001A0000D0A00080D0A00080D0A00080D0A0008D3
:1001B000755000080D0A00080D0A00080D0A000815
:1001C0000D0A00080D0A00080D3500081935000851
:1001D0000D0A0008253500080D0A00080D0A000860
:1001E0000D0A00080D0A00080D0A00080D0A000893
:1001F0000D0A00080D0A00080D0A00080D0A000883
:100200000D0A00080D0A00080D0A00080D0A000872
:100210000D0A00080D0A00080D0A00080D0A000862
:100220000D0A00080D0A00080D0A00080000000071
:100230000D0A00080D0A0008000000000D0A000861
:100240000D0A00080D0A00080D0A00080D0A000832
:100250000D0A00080D0A00080D0A00080D0A000822
:100260000D0A00080D0A00080D0A00080D0A000812
:100270000D0A00080D0A000869320108000000009C
:100280000D0A00080D0A00080D0A00080000000011
:08029000000000000D0A000847
:1002A00010B5054C237833B9044B13B10448AFF3B0
:1002B00000800123237010BD90070024000000007F
:1002C00054B2010808B5034B1BB103490348AFF30F
:1002D000008008BD000000009407002454B201080B
:1002E000034613F8012B002AFBD1181A0138704776
:1002F00001F0FF01102A2BDB10F0070F08D010F8D7
:10030000013B013A8B422DD010F0070F42B3F6D1DA
:10031000F0B441EA012141EA014122F007047FF0F3
:1003200000070023F0E80256083C85EA010586EA4A
:10033000010685FA47F5A3FA87F586FA47F6A5FA86
:1003400087F68EB9EED1F0BC01F0FF0102F0070292
:1003500032B110F8013B013A83EA010313B1F8D13D
:100360000020704701387047002D06BF354603381E
:10037000073815F0010F07D1013015F4807F02BF57
:10038000013015F4C03F0130F0BC0138704700BFA8
:1003900081F0004102E000BF83F0004330B54FEA36
:1003A00041044FEA430594EA050F08BF90EA020FA3
:1003B0001FBF54EA000C55EA020C7FEA645C7FEA36
:1003C000655C00F0E2804FEA5454D4EB5555B8BF59
:1003D0006D420CDD2C4480EA020281EA030382EACA
:1003E000000083EA010180EA020281EA0303362D5C
:1003F00088BF30BD11F0004F4FEA01314FF4801C2F
:100400004CEA113102D0404261EB410113F0004F40
:100410004FEA03334CEA133302D0524263EB4303F7
:1004200094EA050F00F0A780A4F10104D5F1200E95
:100430000DDB02FA0EFC22FA05F2801841F10001F0
:1004400003FA0EF2801843FA05F359410EE0A5F1C4
:1004500020050EF1200E012A03FA0EFC28BF4CF0F5
:10046000020C43FA05F3C01851EBE37101F00045AB
:1004700007D54FF0000EDCF1000C7EEB00006EEBB8
:100480000101B1F5801F1BD3B1F5001F0CD3490842
:100490005FEA30004FEA3C0C04F101044FEA445299
:1004A00012F5800F80F09A80BCF1004F08BF5FEA20
:1004B000500C50F1000041EB045141EA050130BD00
:1004C0005FEA4C0C404141EB0101013C28BFB1F512
:1004D000801FE9D291F0000F04BF01460020B1FA5D
:1004E00081F308BF2033A3F10B03B3F120020CDA30
:1004F0000C3208DD02F1140CC2F10C0201FA0CF00E
:1005000021FA02F10CE002F11402D8BFC2F1200C72
:1005100001FA02F120FA0CFCDCBF41EA0C01904028
:10052000E41AA2BF01EB0451294330BD6FEA040471
:100530001F3C1CDA0C340EDC04F11404C4F120025C
:1005400020FA04F001FA02F340EA030021FA04F36E
:1005500045EA030130BDC4F10C04C4F1200220FAC5
:1005600002F001FA04F340EA0300294630BD21FA03
:1005700004F0294630BD94F0000F83F4801306BFC9
:1005800081F480110134013D4EE77FEA645C18BFBD
:100590007FEA655C29D094EA050F08BF90EA020F54
:1005A00005D054EA000C04BF1946104630BD91EA4C
:1005B000030F1EBF0021002030BD5FEA545C05D14F
:1005C0004000494128BF41F0004130BD14F580048E
:1005D0003CBF01F5801130BD01F0004545F0FE4102
:1005E00041F470014FF0000030BD7FEA645C1ABF37
:1005F000194610467FEA655C1CBF0B46024650EA6E
:10060000013406BF52EA033591EA030F41F4002199
:1006100030BD00BF90F0000F04BF0021704730B51F
:100620004FF4806404F132044FF000054FF00001F4
:1006300050E700BF90F0000F04BF0021704730B5B5
:100640004FF4806404F1320410F0004548BF40428A
:100650004FF000013EE700BF42004FEAE2014FEADF
:1006600031014FEA02701FBF12F07F4393F07F4FBA
:1006700081F06051704732F07F4208BF704793F0BD
:100680007F4F04BF41F40021704730B54FF46074D0
:1006900001F0004521F000411CE700BF50EA0102D3
:1006A00008BF704730B54FF000050AE050EA01027C
:1006B00008BF704730B511F0004502D5404261EBEC
:1006C00041014FF4806404F132045FEA915C3FF42D
:1006D000D8AE4FF003025FEADC0C18BF03325FEACA
:1006E000DC0C18BF033202EBDC02C2F1200300FA7B
:1006F00003FC20FA02F001FA03FE40EA0E0021FAA0
:1007000002F11444BDE600BF53B94AB9002908BF3D
:1007100000281CBF4FF0FF314FF0FF3000F074B9DC
:10072000ADF1080C6DE904CE00F006F8DDF804E048
:10073000DDE9022304B070472DE9F047089D044627
:100740008E46002B4DD18A42944669D9B2FA82F284
:1007500052B101FA02F3C2F1200120FA01F10CFAC0
:1007600002FC41EA030E94404FEA1C48210CBEFBF8
:10077000F8F61FFA8CF708FB16E341EA034306FB81
:1007800007F199420AD91CEB030306F1FF3080F010
:100790001F81994240F21C81023E63445B1AA4B25D
:1007A000B3FBF8F008FB103344EA034400FB07F7FF
:1007B000A7420AD91CEB040400F1FF3380F00A8140
:1007C000A74240F207816444023840EA0640E41B35
:1007D00000261DB1D4400023C5E900433146BDE8E1
:1007E000F0878B4209D9002D00F0EF800026C5E983
:1007F000000130463146BDE8F087B3FA83F6002E9B
:100800004AD18B4202D3824200F2F980841A61EB12
:10081000030301209E46002DE0D0C5E9004EDDE730
:1008200002B9FFDEB2FA82F2002A40F09280A1EB18
:100830000C014FEA1C471FFA8CFE0126200CB1FB6D
:10084000F7F307FB131140EA01410EFB03F0884266
:1008500008D91CEB010103F1FF3802D2884200F2F3
:10086000CB804346091AA4B2B1FBF7F007FB101185
:1008700044EA01440EFB00FEA64508D91CEB040423
:1008800000F1FF3102D2A64500F2BB800846A4EB7E
:100890000E0440EA03409CE7C6F12007B34022FA69
:1008A00007FC4CEA030C20FA07F401FA06F31C4398
:1008B000F9404FEA1C4900FA06F3B1FBF9F8200CA5
:1008C0001FFA8CFE09FB181140EA014108FB0EF0EB
:1008D000884202FA06F20BD91CEB010108F1FF3A3B
:1008E00080F08880884240F28580A8F10208614447
:1008F000091AA4B2B1FBF9F009FB101144EA014155
:1009000000FB0EFE8E4508D91CEB010100F1FF34FF
:100910006CD28E456AD90238614440EA0840A0FB97
:100920000294A1EB0E01A142C846A64656D353D06D
:100930005DB1B3EB080261EB0E0101FA07F722FA91
:1009400006F3F1401F43C5E9007100263146BDE8BA
:10095000F087C2F12003D8400CFA02FC21FA03F31D
:10096000914001434FEA1C471FFA8CFEB3FBF7F09E
:1009700007FB10360B0C43EA064300FB0EF69E42C3
:1009800004FA02F408D91CEB030300F1FF382FD25C
:100990009E422DD9023863449B1B89B2B3FBF7F604
:1009A00007FB163341EA034106FB0EF38B4208D9DD
:1009B0001CEB010106F1FF3816D28B4214D9023E1E
:1009C0006144C91A46EA004638E72E46284605E73C
:1009D0000646E3E61846F8E64B45A9D2B9EB02080D
:1009E00064EB0C0E0138A3E74646EAE7204694E79D
:1009F0004046D1E7D0467BE7023B614432E73046D0
:100A000009E76444023842E7704700BF684620F0B7
:100A100007018D46FEE700BF0B480C4A904208B51F
:100A200003D0121A0A4916F08DFC0A480A4A90426D
:100A300003D0121A002116F0ADFC05F051F916F0A2
:100A40004DFC00F0F7F8FEE7000000248C070024BE
:100A500090B201089007002400730024704700BF83
:100A6000704700BF704700BF704700BF704700BFAE
:100A7000002A49D0013A2DE9F0470D460027DFF85A
:100A8000A0A04FEA5208214C214EDFF89890DAEDF1
:100A9000007A94ED007A94ED020A94ED016AA7EED3
:100AA000870A237B1A48DFED1B6A20EE060A77EEE1
:100AB000C07AB0EE406AA7EE276A84ED026A13B1ED
:100AC000012B07FEA60A86ED020A15F04DFA99F8E9
:100AD0000010114886ED070A15F038F8DFED0F7A9F
:100AE0000B4820EE270A86ED010A15F087F82A4602
:100AF0007B1C474585ED010A1F4605F1080582ED7F
:100B0000000AC4D1BDE8F087704700BFAC070024DD
:100B1000EC07002400000000BC0700249A99593F0C
:100B200004000024F40800242DE9F043002385B0DC
:100B300000F118064FF00A0804464FF05E090D4612
:100B40008DF80D30CDF80080012390F82C10174659
:100B5000304603AA8DF80C9003F01EFDCDF80080FE
:100B60000DF10B0294F8303094F82C10002818BFC7
:100B700043F00103304684F83030012303F034FDA4
:100B800094F83030002818BF43F0010384F8303067
:100B9000A5F17303072B01D94D4517D10A2303AAE9
:100BA00030468DF80C50009302238DF80D7094F8A8
:100BB0002C1003F0F1FC94F83030002818BF43F0FB
:100BC000010384F8303005B0BDE8F083022303AAA6
:100BD000CDF80080304694F82C1003F0DDFCCDF801
:100BE000008094F8303003AA94F82C10002818BF25
:100BF00043F0010330468DF80C5084F83030022366
:100C00008DF80D7003F0C8FCCDF80080054694F80F
:100C1000301003AA9DF80B303046002D18BF41F06C
:100C200001018DF80C908DF80D30022384F83010FE
:100C3000BDE700BF2DE9F04FCB484125CB4C2DED52
:100C4000028B97B0274601F0D3F80021C648A3468F
:100C500001F0BAF93021C4480DF1180A01F0D6F8B4
:100C6000002002F08BFBC24B01220DF1400C984694
:100C7000D1465A60E6462646B8E80F00ACE80F00B9
:100C800098E803004CF8040BACF80010BEE80F0025
:100C90000FC79EE8030047F8040B39800746BBE8FE
:100CA0000F00AAE80F004FF010030021CAF80070EF
:100CB0008DF83C300123CDE90D3156F81C3B0693ED
:100CC0000B93BDF82030ADF83030BDF82230ADF8D0
:100CD0003230B9E80F000FC60BA904F118003770C5
:100CE00003F0C2FB94F8303080216322002818BF43
:100CF00043F00103204684F83030FFF715FF012050
:100D000004F0FAFD00225E212046FFF70DFF94F863
:100D100014A094F815900A264FF000085E270123CE
:100D20000BAA94F82C10009692488DF82D808DF81F
:100D30002C7003F031FC94F83020012394F82C102F
:100D4000404518BF42F0010200968A4884F83020DE
:100D500006AA03F049FC94F83020022394F82C10E2
:100D6000404518BF42F001020096824884F83020C6
:100D70000BAA03F011FC94F83020022394F82C10F5
:100D8000404518BF42F0010200967A4884F83020AE
:100D90000BAA8DF82C508DF82DA003F0FDFB94F8D4
:100DA00030100BAA9DF81830404518BF41F00101E2
:100DB00000968DF82D30022384F830106D4894F899
:100DC0002C108DF82C7003F0E7FB94F830200123F1
:100DD00094F82C10404518BF42F001020096654877
:100DE00084F830200BAA8DF82D808DF82C7003F03C
:100DF000D3FB94F83020012394F82C10404518BF01
:100E000042F0010200965B4884F8302006AA03F005
:100E1000EBFB94F83020022394F82C10404518BFC7
:100E200042F001020096534884F830200BAA03F0E8
:100E3000B3FB94F830106B1C0BAA404518BF41F06F
:100E4000010100968DF82C30022384F83010023511
:100E500094F82C104748EDB28DF82D9003F09CFBD0
:100E600094F8302002239DF81810009640450CBFDE
:100E7000164642F001068DF82D100BAA94F82C109E
:100E80003C488DF82C7084F8306003F085FB94F8B2
:100E90003030404518BF43F00103592D84F83030FD
:100EA0007FF439AF01222B213048FFF73DFE0122AC
:100EB0002C212E48FFF738FE0E222D212B48FFF75C
:100EC00033FE42462E212948FFF72EFE01222F2114
:100ED0002648FFF729FE052230212448FFF724FE8B
:100EE000012231212148FFF71FFE424632211F48CF
:100EF000FFF71AFE424633211C48FFF715FE424613
:100F000034211A48FFF710FE424635211748FFF7F3
:100F10000BFE42465B211548FFF706FE10225C21BE
:100F20001248FFF701FE20225D211048FFF7FCFD6B
:100F30008C2239460D48FFF7F7FD94F830600EB368
:100F40000D4884F8308002F00BFA0121064800F0C9
:100F500079FF6421044800F04DFF0021024800F0B1
:100F600071FF64210AE000BFF8080024C0080024D3
:100F70006C090024D8080024ECA30108BB4800F049
:100F800039FFE2E7BA48B7EE008A02F0E9F9012139
:100F9000B648F6EE008A00F055FF0121B5484FF043
:100FA000000800F0D3FC02223146B24800F0F6FC03
:100FB0000421B04800F0F6FD32219FEDAF0AAD48A4
:100FC00000F0E6FEA94800F01DFFF0EE407AAB4DC0
:100FD0009FEDAB7A2846C5ED047A85ED027AB0EE36
:100FE000470A88EE277AC5F81880C5ED018AC5ED55
:100FF000038AA44FDFF8E892DFF8E8B2A9F1040A07
:1010000085ED057A14F0B0FF40F2011385ED070A73
:101010009FED9D0A28462B852E7085ED020A14F05F
:10102000A3FF9A4B91486B6085ED070A00F0EAFE3A
:101030003846012114F092FC38469FED950A0121B3
:1010400014F0FCFC38469FED930A022114F0F6FCE4
:10105000914B0421914D3846B0EE680A3B6014F084
:10106000EDFC8248C5F808802E7300F0CBFEB2EE8E
:10107000046A9FED8B7ADFED8B6AC6EE007AF4EEA0
:10108000C77AF1EE10FA58BFF0EE477A27EEA60ABB
:1010900015F07EF930EE087A834B02228348C8EEC1
:1010A000077A196885ED000AC5ED017A02F040FA69
:1010B0007F4B02227F48196802F03AFA0423022289
:1010C0007A497D4802F044FA7B4802F049FC7B49AA
:1010D000664800F093FE04F00DFC074604F00AFC9D
:1010E000804622E0A5EB0803F92B1BD99BF80030C2
:1010F000002B00F004819AED007AA846704BB7EE01
:10110000C77A99ED006AD3ED005AB7EEC66A6D480A
:101110008DED007BB7EEE57A8DED026B53EC172B6E
:1011200002F01EF9012004F0E7FB04F0E3FBC31B0F
:101130000546042BD6D901215F4802F027FCB7EE03
:10114000008AF0EE007A00215B48A0EE278A02F0C8
:101150001DFC5D4BF3EE047ADFED495AD3ED006AD6
:10116000E0EE257A9FED596A38EE667AB0EEC77ADE
:10117000C7EE265AF4EEC65AF1EE10FA00F3E880F4
:10118000534BD3ED006A37EEE67AB0EEC77AC7EE7E
:10119000265AF4EEC65AF1EE10FA00F3D9804D4B00
:1011A000D3ED007A4C4B93ED000AFCEEE77A314820
:1011B0000127CDED057A9DF8141000F0E9FD0A2312
:1011C0001E2294F82C10029310AB444800933B4627
:1011D000019703F031FA0A2394F83020029310AB00
:1011E000002818BF42F0010294F82C10009302234B
:1011F00084F83020042201933B4638489DF8406033
:1012000003F01AFA94F83020B100002818BF42F019
:101210000102184884F83020BDF8402000F0C6FCD8
:1012200002230A2294F82C102C48B0EE408ACDE913
:10123000013210AB002200933B4603F0FDF994F815
:101240003020002818BF42F0010284F83020BDF899
:1012500040203A4048D09BF800200AB98BF8007033
:10126000174B2F4683ED008A3CE700BFF8080024A7
:1012700008A4010884090024CDCC8C3FEC0700248D
:101280000000C842BC0700240000DC439A99593F83
:10129000CDCC4C3DCDCCCC3D3333333FAC070024DB
:1012A000C976FE3EDB0F4940B0A4010818080024AF
:1012B000B4A401086C08002410090024710A000875
:1012C000040000241CA40108100000240AD7233CB9
:1012D000140000240C00002408000024D808002476
:1012E00014110024F40800249BF800300BB18BF893
:1012F0000020A5EB08032F46F92B7FF613AF9AEDDC
:10130000007AA846204BB7EEC77A99ED006AD3ED74
:10131000005AB7EEC66A1D488DED007BB7EEE57A40
:101320008DED026B53EC172B02F01AF8184B19488D
:1013300093ED007A184BB7EEC77AD3ED006A8DEDC6
:10134000007BB7EEE67A53EC172B02F009F8E9E6DA
:10135000BCEEE77A104E0E4FB0EE480A0F488DED06
:10136000057A9DF81410C7ED007A86ED008A00F02A
:101370000FFD0B4B96ED000AD7ED007A83ED000AC6
:10138000084BC3ED007A10E70400002450A40108C4
:101390000C00002484A4010808000024840900240F
:1013A000100000241400002438B53F485A213F4B58
:1013B000002401253E4A19610161C16240F2032106
:1013C0009A6099820562826042624161394A3A4973
:1013D000C3E90045C0E90045C0E9064414F0CAFD70
:1013E00036484FF60B736FF0F411324A44610462D1
:1013F000836544660467C0E90041C0E90211C0E9A1
:101400000A342F49C0E90C44C0E90F34C0E9114443
:10141000C0E9174414F0AEFD2A4A02F1A8050021E4
:101420000B24FF20A2F13C0302F8504C42F84C1C64
:1014300002F84F0C42E91211143300240B20FF2153
:101440009A4243F8104C03F8140C03F8131C43E9B8
:101450000344F1D15432AA42E1D11B4800F0C0F953
:10146000144A1A49184814F085FD124A18491948B7
:1014700014F080FD1848002318490E4A8485036043
:1014800043608160C360016141618161C36114494E
:101490000362436214F06EFD064A12491248BDE829
:1014A000384014F067BD00BFC00800246C09002458
:1014B00001080109000000246D0A0008F808002452
:1014C0005D0A000868080024840900242519000822
:1014D000650A0008EC070024BC070024000080BF58
:1014E000610A0008690A0008AC07002438B5134DEA
:1014F000044600F5E27CAE46BEE80F00ACE80F0003
:10150000BEE80F00ACE80F00BEE80F00ACE80F002B
:101510009EE80F008CE80F0005F14001802204F5E1
:10152000017015F00FFF4FF4807205F1C00104F552
:10153000217015F007FF204638BD00BFECA0010860
:10154000704700BF0129017003D002290AD029B1D8
:10155000704780220021443015F01CBF4022043027
:1015600015F018BF4FF480720021C43015F012BF7F
:101570000378012B10B504462DED028BB0EE408AA6
:1015800007D0022B3AD0FBB19FED2A0ABDEC028BAB
:1015900010BD00F148037C2200F14401184615F00B
:1015A000DFFE04F1C40203469FED220A84ED118A96
:1015B00001E0B3EC018AD3ED6F7A9A42A7EE880A74
:1015C000F7D1BDEC028B10BD00F108033C22011DD8
:1015D000184615F0C5FE04F1440203469FED150AB6
:1015E00084ED018A01E0B3EC018AD3ED6F7A9A426F
:1015F000A7EE880AF7D1BDEC028B10BD00F1C8033D
:10160000FC2200F1C401184615F0AAFE04F5E272AE
:1016100003469FED080A84ED318A01E0B3EC018AAC
:10162000D3ED6F7A9A42A7EE880AF7D1BDEC028B10
:1016300010BD00BF00000000154A0346154900F127
:10164000080C2DE9F047416002F10C0800F1140785
:1016500002F1180600F1280502F1240E002407CA41
:101660008CE8070098E8070087E8070096E807007D
:10167000C3E9084403F1340C85E807009EE807003D
:101680008CE8070018461C645C64BDE8F08700BF66
:10169000ACA201080000C842704700BF00230170DF
:1016A0000364436403624362704700BF03782BB353
:1016B000012B20D190ED096A90ED077AD0ED086AF0
:1016C00026EE077AD0ED064AD0ED037A90ED025A65
:1016D000A4EEA67AD0ED045A66EEA77AC0ED096AA8
:1016E00030EE477AE5EE077A80ED087AB0EE670AC9
:1016F000A6EE250A70479FED120A704790ED116A19
:1017000090ED0F7AD0ED106A26EE077AD0ED0E4AF2
:10171000D0ED0B7A90ED0A5AA4EEA67AD0ED0C5AD1
:1017200066EEA77AC0ED116A30EE477AE5EE077AE9
:1017300080ED107AB0EE670AA6EE250A704700BF6A
:101740000000000000220346DFF810C043F804CB7D
:101750004260C3E90122C3E9032270470000C84286
:10176000704700BF002343608360C360036143612F
:10177000704700BF86B041680369C268D0F808C0EE
:10178000436181600261C0F80CC080ED010A02A8CB
:10179000029100218DED010ACDF80CC00492059351
:1017A000B0EC017A0B46024652ED027AF4EEC77AAB
:1017B000F1EE10FA12DD013B62ED017AB3F1FF3F69
:1017C000F2D1002306AA013102EB8303042903EDC1
:1017D000057AE5D19DED030A06B070470133F1E7C4
:1017E00003232DE9F04F044687B000F8043BFFF7D0
:1017F00023FF04F14C00FFF7A5FF04F16400FFF79D
:1018000075FE04F57A70FFF771FE04F26C724FF00A
:10181000804000234FF07E513F4D10604FF0FF326B
:1018200005F1B40004F2F47AC4F8702704F274727B
:10183000059005F11C09136004F5EF6205F1380706
:1018400005F1700B136040F2047205F1840E04F58B
:101850000168A4F87C2704F5F06204F62C0604F66F
:10186000780C116004F284722C49116004F5F16265
:101870002B49116004F28C7204F66401136004F5C4
:10188000F2620391136004F6480205F154030192D9
:1018900004F6A802029304920FCDAAE80F0095E87F
:1018A00007008AE80700B9E80F00A8E80F0099E8E8
:1018B000070088E807000FCF0FC697E80700029BD4
:1018C000019D86E807001E462F460FCE0FC796E8FB
:1018D0000700039D87E80700BBE80F000FC5DBF892
:1018E00000302B60BEE80F00ACE80F00BEE80F0030
:1018F000ACE80F009EE80F008CE80F000598049DEF
:1019000006460FCE0FC596E8030085E80300204683
:1019100007B0BDE8F08F00BFDCA201080000C8429C
:101920000000C64210B5044600F57A70FFF708FEC5
:1019300004F16400FFF704FE04F14C00FFF710FF10
:10194000201DFFF7A9FE204610BD00BF10B50446BC
:101950000430FFF7A3FE04F14C00FFF703FF022160
:1019600004F16400FFF7EEFD022104F57A70FFF741
:10197000E9FD002304F28C7104F5F26204200B608F
:10198000136004F2747204494FF0FF3384F87C074B
:101990001160C4F8703710BD0000DC4370B507EE6D
:1019A000901A0546062A24D8DFE802F0237B9DBF63
:1019B000E1045D0000F2C4740C2100F6780300F627
:1019C000A806224680F87D17D3F800E0103353F8BC
:1019D0000CCC103253F8080C53F8041CB34242F8F4
:1019E00010EC42F80CCC42F8080C42F8041CEBD185
:1019F00020E0D0F8FC3705F2C474D0F8F417D0F822
:101A0000F8270720C5F8CC37D5F80038C5F8C41733
:101A1000C5F8C827D5F80418D5F80828C5F8D03770
:101A2000D5F80C3885F87D07C5F8D417C5F8D82740
:101A3000C5F8DC37F8EE677AF2EE080AB0EE000A75
:101A4000C7EEA00A14F010FB95F87D2752B123468B
:101A500004EB8202D3ED007A67EE807AE3EC017A40
:101A60009A42F7D170BDD0F8A82805F2C474D0F816
:101A7000AC380620D5F8B068D5F8B418C5F8C42736
:101A8000C5F8C837D5F8B828D5F8BC38C5F8D42774
:101A9000C5F8CC6785F87D07C5F8D017C5F8D837E5
:101AA000C8E7D0F8183805F2C474D0F81018D0F888
:101AB00014280720C5F8CC37D5F81C38C5F8C4174A
:101AC000C5F8C827D5F82018D5F82428C5F8D03788
:101AD000D5F8283885F87D07C5F8D417C5F8D82774
:101AE000C5F8DC37A6E7D0F8343805F2C474D0F86E
:101AF0002C18D0F830280720C5F8CC37D5F838385E
:101B0000C5F8C417C5F8C827D5F83C18D5F840283B
:101B1000C5F8D037D5F8443885F87D07C5F8D4170F
:101B2000C5F8D827C5F8DC3784E7D0F8503805F277
:101B3000C474D0F84818D0F84C280720C5F8CC3722
:101B4000D5F85438C5F8C417C5F8C827D5F85818BB
:101B5000D5F85C28C5F8D037D5F8603885F87D070A
:101B6000C5F8D417C5F8D827C5F8DC3762E7D0F830
:101B70006438052105F2C474C0F8C437D5F86C3850
:101B8000D0F86808D5F87028C5F8CC37D5F874387F
:101B9000C5F8C80785F87D17C5F8D027C5F8D4372C
:101BA00048E700BF80F87C17704700BF07EE102A97
:101BB00007EE901A2DE9F84F2DED068B0378B8EE5D
:101BC000477AF8EE677A00F2747A00EE103A00F283
:101BD0008C7305469AED00AA77EEC77A4C30B8EEC2
:101BE000400A05F5F06605F5F26937EEC00A83EDA7
:101BF000000AFFF7BFFD281DFFF758FD05F28473AB
:101C0000D5F87027D3ED007A9FED5F7A002A96ED24
:101C1000008A77EEC77A80FE080A80FE670A89ED9F
:101C2000000A95F87D3701DB9A425FDBF3B3DFED05
:101C3000578A002405F5F16805F5EF6707EE903A3D
:101C4000A3460134D7ED000AB8EEE70A98ED009AF2
:101C500096ED008A88EE800A14F006FA95F87D3732
:101C600007EE904AD7ED000AD8ED009AF8EEE78A21
:101C700007EE903AA9EE008A96ED009AB8EEE70AD0
:101C800088EE800A14F0F0F9D9ED007AF4EEC87A03
:101C9000F1EE10FA06DBA9EE809AF4EEC97AF1EEC5
:101CA00010FA09D495F87D37A342C7DCB0EE4A0A92
:101CB000BDEC068BBDE8F88F95F87C270123934097
:101CC0000AEE103A0BF5F87305EB8303B8EECAAAD7
:101CD000D3ED017AC5F870B72AEE27AAB0EE4A0A0A
:101CE0008AED00AABDEC068BBDE8F88F07EE102A3E
:101CF000013207EE903A05F5F168B8EEC70A07EE33
:101D0000102AF8EEE77A05F5EF67B8EEC77A98ED96
:101D1000009AD7ED000A80EE270AC7EE278A14F052
:101D2000A3F9D7ED000AD8ED00AAA9EE008A96ED36
:101D3000009AB0EE680A14F097F905F26C73F0EEB1
:101D4000409AD7ED000AB0EE680AD3ED008A14F08D
:101D50008BF999ED007A68EE807A38EE678AB4EEF6
:101D6000C87AF1EE10FA08DBAAEEA99A79EE277A82
:101D7000B4EEE77AF1EE10FA02D495F87D3755E724
:101D80009AED00AA92E700BF6F12833A00000000AC
:101D900010B5044600F57A702DED028B08EE101A8E
:101DA000FFF7E6FBF0EE407A04F5EF63B8EE480A81
:101DB00004F16400C3ED007AFFF7DAFB04F5F06389
:101DC000D3ED007AF4EEC07AF1EE10FA03DBB7EE51
:101DD000000A37EE800A70EE677A04F2847304F525
:101DE000F16483ED000AC4ED007ABDEC028B10BDF6
:101DF000704700BF084603F07FBD00BF143001F0FC
:101E00000DBA00BF143001F005BA00BF38B500F1BB
:101E1000140504462DED028B284601F0EDF9284605
:101E200001F0F8F92846B0EE408A01F0E1F9D0ED72
:101E3000007AF8EE677A88EE277ABDEC028B84EDA3
:101E40001B7A38BD283002F08BB900BF10B540F2C4
:101E500003338EB000244FF60B7240F20341ADF80D
:101E6000083009A80123ADF81020ADF8242022463F
:101E7000ADF80C100094029907940C94CDE9054438
:101E8000CDE90A4402F07AF804A801232246039916
:101E9000009402F073F809A802F056F910B9012075
:101EA0000EB010BD04A802F04FF9A0420CBF0220F2
:101EB00020460EB010BD00BF2DE9F04103239AB0BB
:101EC0004FF0010800254FF60B740746CDE9143892
:101ED000394BADF84C40CDE91053A3F19F63A3F506
:101EE0007D43CDE916581293FFF7B0FF40450646F3
:101EF00023D0022842D040F60132304B07F158007F
:101F00000BACADF82C200B991895CDF86480CDF86A
:101F10004A3000F0DBF810A907F1700003F0BCFABA
:101F2000274B0FCB84E80F003A6F214607F11400CE
:101F300001F026F91AB0BDE8F08110231F4A06A966
:101F400006908DF828300BAC1E4BCDF84A20079335
:101F50000295CDE91805CDE9080502A802F084FA3A
:101F60000823029A03A92046ADF80C608DF80E50A4
:101F7000049605930B9500F0E9F8CCE740F60133A1
:101F8000ADF82C4000200BACADF8183001210B4B04
:101F900042460095CDF84A302B460E95CDE9180102
:101FA00006992046CDE90C5501F0E8FF2946204668
:101FB00002F0D6F8AFE700BF0402040404060403ED
:101FC000A8A301080704010B2DE9F04704462DEDF5
:101FD000028B82B0002949D0012140F20112002376
:101FE0000091ADF804208DF80630354A0127354BB5
:101FF00004F10409344904F13C08626040F20272C1
:10200000A36040F60663E16004F1280A2285A387F5
:102010002782E762276403F019FE054603F06EFC91
:102020006946064650BB4DB304F150008DF806706A
:1020300003F08EFD072D3ED104F114052046FFF775
:102040003BFF284601F0E6F82846B0EE408A01F052
:10205000CFF8D0ED007AF8EE677A88EE277A84ED33
:102060001B7A02B0BDEC028BBDE8F08740F2011391
:1020700000918DF80610ADF80430B6E704F1500079
:1020800003F066FD072D13D04946204602F010FEEE
:102090000EB9002DD0D15146504601F0ABFD40465F
:1020A000414601F0A7FD04F1120000F079F9C3E701
:1020B000002EF0D1C0E74946204602F0F9FDBBE70B
:1020C0000508050905070506050A060630B585B0A9
:1020D000002504460122ADF80C102B46039900950B
:1020E00001F04CFF0121204602F03AF8012003F0F4
:1020F00003FC2946204602F033F8012003F0FCFBE4
:102100000121204605B0BDE8304002F029B800BFEB
:1021100010B5C2F3002384B00C46017C8DF80D206D
:1021200043EA4402FA2402238DF80C2003AA009407
:1021300002F032FA18B10124204604B010BD044662
:102140000A2003F0D9FB204604B010BD034670B549
:1021500043F8042B044684B007C983E80700A37939
:1021600083B91A210B461E22FA2523742046ADF8A6
:102170000C20022303AA009502F00EFA28B10120D8
:1021800004B070BD1B210B46EDE70A2003F0B4FB41
:102190004FF4B85200950223ADF80C20204603AA54
:1021A000217C02F0F9F90028E9D10A2003F0A4FB10
:1021B00041F2027200950223ADF80C20204603AADA
:1021C000217C02F0E9F90028D9D10A2003F094FB20
:1021D000042200950223ADF80C20204603AA217C9E
:1021E00002F0DAF90028CAD10A2003F085FB0622A2
:1021F00000950223ADF80C20204603AA217C02F0B2
:10220000CBF90028BBD10A2003F076FB41F208226B
:1022100000950223ADF80C20204603AA217C02F091
:10222000BBF90028ABD10A20064603F065FB0095F8
:10223000022303AA217C2046ADF80C6002F0ACF921
:1022400000289CD1304603F057FB009522790C23DF
:102250002046002A8DF80C3003AA4FF0020314BF69
:10226000622142218DF80D10217C02F095F90028A1
:1022700085D1304603F040FB2279D4E902310B438B
:10228000DBB20AB943F0400362790AB143F020039C
:102290000E22FA258DF80D302046009502238DF888
:1022A0000C2003AA217C02F077F900287FF467AFA5
:1022B0000A2003F021FB102200950223ADF80C2028
:1022C000204603AA217C02F067F900287FF457AF6B
:1022D0000A2003F011FB122100950223ADF80C1027
:1022E00003AA217C204602F057F900287FF447AF6B
:1022F0000A2003F001FB012209212046FFF708FF15
:10230000003818BF01203BE7F0B5102387B0234CFD
:10231000012200250126002702A920460195CDE9CA
:1023200002234FF48052CDE904670CF0BFFD642016
:1023300004F012FA02A94FF480522046CDE9046756
:1023400002261027CDE902670CF0B0FD032210230E
:1023500002A92046CDE9022300230422CDE904236B
:102360004FF480520CF0A2FD40F23223042202A965
:10237000019310232046CDE90223019A01230592FF
:102380004FF4805204930CF091FD40F60601204674
:102390000CF0ACFD284607B0F0BD00BF4C12002485
:1023A0001C4B00221C494FF0400C30B5054689B04B
:1023B0000220596007219A601A620124DA620A2217
:1023C0004FF4006EDC6006922022CDE9000104206B
:1023D0000821CDE9020103201021CDE904010820E4
:1023E0006946C3E904024FF4C072181DC3E906C26E
:1023F0004FF48052C3E909E20CF02EFD38B92846AB
:10240000FFF782FF003818BF012009B030BD204619
:1024100009B030BD4812002440410052614A0021F9
:10242000D0B513688EB00A91002B40F0B9805E4B96
:1024300001214FF683700C2411600221D3F8D420BF
:102440000026032742F48052C3F8D420D3F8D420C6
:1024500002F480520092009AD3F8E02042F0100279
:10246000C3F8E020D3F8E02002F010020192019AB4
:10247000D3F8E02042F04002C3F8E020D3F8E02097
:1024800002F040020292029AD3F8E02042F00802E1
:10249000C3F8E020D3F8E02002F008020392039A88
:1024A000D3F8E02042F48072C3F8E020D3F8E020B3
:1024B00002F480720492049AD3F8E02042F0800281
:1024C000C3F8E020D3F8E02002F080020592059ADC
:1024D000D3F8E02042F02002C3F8E020D3F8E02057
:1024E00002F020020692069AD3F8E02042F004029D
:1024F000C3F8E020D3F8E0300C9403F00403079312
:102500000323079A0B93CDE9080108A9274806F091
:10251000B7FA48F23712022308A925480C94CDE9EE
:102520000823CDE90A6706F0ABFA4CF203720223E6
:1025300008A920480C94CDE90823CDE90A6706F0E4
:102540009FFA40F2FF62022308A91B480C94CDE9D0
:102550000823CDE90A6706F093FA4FF60C720223BE
:1025600008A916480C94CDE90823CDE90A6706F0BE
:1025700087FA4FF63F02022308A911480C94CDE9CF
:102580000823CDE90A6706F07BFA2022022308A976
:102590000A480C94CDE90A67CDE9082306F070FAE1
:1025A0000EB0D0BD4412002400440258001002585E
:1025B00000180258000C025800200258001C025853
:1025C000001402582DE9F04FDFF8108406460D463E
:1025D000144608F118002DED028B89B000AF03F00E
:1025E00053F8D8F8183073B3D8F81C30D8F80490E2
:1025F000002B43690BBF4FF0080A4FF0100A4FF051
:10260000020B4FF0040BB9F1000F2AD0A200EA46EA
:10261000012B02F1070222F00702ADEB020D684622
:10262000ADEB020D694600F03F81022B00F0D68031
:10263000002B6FD02246C847D5462437BD46BDEC97
:10264000028BBDE8F08FD8F81C30002BF5D0D8F8FD
:1026500004904FF0080A4FF0020B4369B9F1000FE4
:10266000D4D1FB61D8F80030BB61002BE5D0D54850
:1026700003F07CF86B46BBF1020F786108EE103A6C
:10268000FB6900F083816A465146A2EBC40295467D
:102690006200EA46B2FBFBF2AAEBC40085460AEBF5
:1026A0008200EE46F861ADEB010DF8690EEB820C8D
:1026B000C7F810C0EC46ADEB010D00EB8201CCF881
:1026C0000400CCF8081001EB82013869E946CCF827
:1026D0000C1000EB8201CCF800A001EB8202C9E9EA
:1026E00000E0C9E90212012B00F06483022B00F024
:1026F0006C82002B00F08081620849466046BB690D
:10270000984718EE103A24379D46BD46BDEC028B23
:10271000BDE8F08F002C8DD01A46D8ED0C6A9FEDE5
:10272000B27A8446331D36F922E00CF1080C07EE2C
:1027300090EA33F922E00232F8EEE77A944267EE4B
:10274000877A67EEA67A4CED027A07EE90EAF8EE09
:10275000E77A67EE877A67EEA67A4CED017AE2D8DF
:10276000F9612246C847984ED8ED0D6A0020F969F4
:102770002B1D9FED9E7A9FED9E6ADFED9E5A22E013
:10278000F4EEC67AF1EE10FAC0F2C88447F6FE7293
:10279000D1ED017A45F8202066EEA77AF4EEC77AEB
:1027A000F1EE10FA40F2F080F4EEC67AF1EE10FA93
:1027B000C0F2D58447F6FE7243F82020023008317B
:1027C00084427FF639AFD1ED007A66EEA77AF4EE57
:1027D000C77AF1EE10FAD3D83246D9E7002C3FF48D
:1027E00029AFD8ED0C6A84469FED787A0022331D1C
:1027F0008E4656F822100CF1080C07EE901A53F88A
:1028000022100232F8EEE77A944267EE877A67EE9A
:10281000A67A4CED027A07EE901AF8EEE77A67EEA8
:10282000877A67EEA67A4CED017AE2D871462246A5
:10283000C7F81CE0C847664ED8ED0D6A0020F9695C
:102840002B1D9FED6A7A9FED6A6ADFF894C120E044
:10285000F4EEC67AF1EE10FAC0F279843246D1ED88
:10286000017A45F8202066EEA77AF4EEC77AF1EEF9
:1028700010FA40F28780F4EEC67AF1EE10FAC0F258
:102880005E84324643F820200230083184427FF6CD
:10289000D3AED1ED007A66EEA77AF4EEC77AF1EE08
:1028A00010FAD5D86246DAE7002C3FF4C3AED8ED73
:1028B0000C6A86469FED477A4FF0000C331D56F8A0
:1028C0002C200EF1080E82F40002A2F5000207EEA1
:1028D000902A53F82C200CF1020CF8EEE77A82F4DF
:1028E00000026445A2F5000267EE877A67EEA67AD9
:1028F0004EED027A07EE902AF8EEE77A67EE877AD5
:1029000067EEA67A4EED017AD9D8F9612246C8471A
:10291000314ED8ED0D6A0020F9692B1D9FED337AF9
:102920009FED336ADFF8BCC01FE0F4EEC67AF1EE2B
:1029300010FAC0F2FC833246D1ED017A45F820202E
:1029400066EEA77AF4EEC77AF1EE10FA18D9F4EE33
:10295000C67AF1EE10FAC0F2DA83324643F820204C
:102960000230083184427FF667AED1ED007A66EE20
:10297000A77AF4EEC77AF1EE10FAD6D86246DBE712
:102980006246EBE762467DE7324615E7A100D64690
:102990006208073121F00701ADEB010DEA46ADEB0E
:1029A000010D6946ADEB0E0D0AEB8200EC46ADEB76
:1029B0000E0D01EB8202F861E946CCE900A0C9E9FD
:1029C000001290E69C1200240280FFFF00000030FD
:1029D0000082FF7F0000003482FF7F00801200240D
:1029E000007E00807E0080FF0000003804FF7FBF73
:1029F00004FF7F3F00FEFF46002C00F0C982BBF1C0
:102A0000020FD8F8242000F0FA827969C7F8049000
:102A100002EB810E5FED0C5A8A00DCF808100EF113
:102A200004007A611A46DCF80C303B61331DD7F89C
:102A300010903D61FD69C7E902CB8C46834636F9AB
:102A40002210D8ED0C7A06EE101A33F9221006EE99
:102A5000901A3EF92210B8EEC66A07EE101AF8EE88
:102A6000E66A3BF92210B8EEC77A26EE256A66EED2
:102A7000A56A27EE257A26EE276A66EEA76A27EE74
:102A8000277A07EE901A51080232F8EEE77A0AEB3D
:102A90008100944280ED006A05EB810067EEA57A23
:102AA000C0ED006A0CEB810009EB810180ED007A3A
:102AB00098ED0C7A67EE877AC1ED007ABFD8D7F827
:102AC00004903D69D7E902CB60466208BB6949467C
:102AD0009847D8F82C307A69D8ED0D6A1A441FED62
:102AE0003D7A1FED3D6A2B1D904602F1040A5FED11
:102AF0003F5A0022A84ED9E900EC51E0F4EEC67A24
:102B0000F1EE10FAC0F2C78247F6FE7045F82200D7
:102B10000CEB0100D0ED007A66EEA77AF4EEC77AEE
:102B2000F1EE10FA4BD9F4EEC67AF1EE10FAC0F2DB
:102B3000BA8247F6FE70BBF1020F43F822002BD099
:102B4000D9F808000844D0ED007A66EEA77AF4EED2
:102B5000C77AF1EE10FA36D9F4EEC67AF1EE10FA31
:102B6000C0F2CD8247F6FE7048F82200D9F80C007A
:102B70000144D1ED007A66EEA77AF4EEC77AF1EE61
:102B800010FA1ED9F4EEC67AF1EE10FAC0F2AF8256
:102B900047F6FE714AF82210023294427FF6B1AD38
:102BA00051080EEB81008900D0ED007A66EEA77A1D
:102BB000F4EEC77AF1EE10FAA0D83046A6E7304618
:102BC000B9E73146E6E73046CEE7002C00F0E08179
:102BD000BBF1020FD8F8243000F0E1817A69DCF80B
:102BE000081003EB820EC7F804909300DFED6B5AD8
:102BF0000EF1040000227B61DCF80C303B61331DD8
:102C0000D7F810903D61FD69C7E902CB8C46834639
:102C100056F82210D8ED0C7A07EE101A53F822104D
:102C2000B8EEC76A07EE101A5EF82210F8EEC76A0F
:102C300007EE101A26EE256A5BF82210B8EEC77A66
:102C400066EEA56A26EE276A27EE257A66EEA76A63
:102C500027EE277A07EE901A51080232F8EEE77A4B
:102C60000AEB8100944280ED006A05EB810067EE7B
:102C7000A57AC0ED006A0CEB810009EB810180EDC3
:102C8000007A98ED0C7A67EE877AC1ED007ABFD8AA
:102C9000D7F804903D69D7E902CB60466208BB696A
:102CA00049469847D8F82C307A69D8ED0D6A1A440D
:102CB0009FED3E7A9FED3E6A131D9246DFF8E4C019
:102CC0000022FB612B1D364ED9E9008E4EE0F4EE5A
:102CD000C67AF1EE10FAC0F2FC81304645F82200C7
:102CE0000EEB0100D0ED007A66EEA77AF4EEC77A1B
:102CF000F1EE10FA49D9F4EEC67AF1EE10FAC0F20C
:102D0000EF813046BBF1020F43F822002AD0D9F8F8
:102D100008000844D0ED007A66EEA77AF4EEC77A90
:102D2000F1EE10FA35D9F4EEC67AF1EE10FAC0F2EF
:102D3000C98130464AF82200D9F80C000144D1ED8F
:102D4000007A66EEA77AF4EEC77AF1EE10FA1ED991
:102D5000F4EEC67AF1EE10FAC0F2AD813146F869B0
:102D600040F82210023294427FF6CBAC510808EBB7
:102D700081008900D0ED007A66EEA77AF4EEC77A7A
:102D8000F1EE10FAA3D86046A8E76046BAE76146BC
:102D9000E5E76046CEE700BF0280FFFF000000309D
:102DA0000082FF7F007E00800000003404FF7FBFB0
:102DB00004FF7F3F002C00F0EB807A690021D8F8F7
:102DC0002430C7F8109003EB820ED7F81C909300C4
:102DD000FD610EF104021FED0C6A7B61331D154687
:102DE00056F821204808D8ED0C6ABBF1020F82F496
:102DF0000002A2F5000207EE902A53F8212082F487
:102E00000002B8EEE77AA2F5000227EE067A07EE96
:102E1000902A0AEB8002F8EEE77A27EE267A67EE30
:102E2000867A82ED007A09EB80024FEA800067EE35
:102E3000A67AC2ED007A27D05EF8212082F4000243
:102E4000A2F5000207EE902A55F8212082F4000234
:102E5000B8EEE77AA2F5000227EE067A07EE902A8E
:102E6000DCF80820F8EEE77A024427EE267A67EECF
:102E7000867A82ED007A98ED0C7ADCF80C2067EE09
:102E8000877A0244C2ED007A02318C42A8D8D7F882
:102E9000109060466208BB694946FD699847D8F8BA
:102EA0002C307A69D8ED0D6A1A441FED407A1FED77
:102EB000406A131D9246DFF8C4C20022FB612B1D3D
:102EC000AB4ED9E9008E4EE0F4EEC67AF1EE10FA80
:102ED000C0F2C580304645F822000EEB0100D0ED6F
:102EE000007A66EEA77AF4EEC77AF1EE10FA49D9C5
:102EF000F4EEC67AF1EE10FAC0F2BF803046BBF1B4
:102F0000020F43F822002AD0D9F808000844D0ED77
:102F1000007A66EEA77AF4EEC77AF1EE10FA35D9A8
:102F2000F4EEC67AF1EE10FAC0F2AE8030464AF8FE
:102F30002200D9F80C000144D1ED007A66EEA77AA0
:102F4000F4EEC77AF1EE10FA1ED9F4EEC67AF1EE7D
:102F500010FAC0F28B803146F86940F82210023234
:102F600094427FF6CEAB510808EB81008900D0ED8A
:102F7000007A66EEA77AF4EEC77AF1EE10FAA3D8DB
:102F80006046A8E76046BAE76146E5E76046CEE7F7
:102F9000224649466046BB699847FFF7B2BBC7F86F
:102FA00010B0002298ED0C6A331DDFED726AD7F87D
:102FB0001CB0786956F8221007EE901A53F82210C8
:102FC000B8EEE77A07EE901A51080232F8EEE77A87
:102FD00027EE267A0AEB810E94420BEB810167EE15
:102FE000A67A27EE067A67EE867A8EED007AC1ED34
:102FF000007ADFD88300D7F810B07B614DE61A461F
:10300000C7F810B098ED0C6A331DDFED5B6AD7F896
:103010001CB0786936F9221007EE101A33F9221025
:1030200007EE901AB8EEC77A51080232F8EEE77A46
:1030300027EE267A0AEB810E94420BEB810167EEB4
:10304000A67A27EE067A67EE867A8EED007AC1EDD3
:10305000007ADFD88300D7F810B07B6134E5F0EE5A
:10306000675AFEEEE45A15EE900A34E7F0EE675A1E
:10307000FEEEE45A15EE901A6EE7F0EE675AFEEE99
:10308000E45A15EE900A3AE7F0EE675AFEEEE45A7B
:1030900015EE900A4BE767EEA57AFDEEE77A17EE9C
:1030A000900A00B232E567EEA57AFDEEE77A17EEF8
:1030B000900A00B23FE5F0EE675AFEEEE05A15EED8
:1030C000901A4CE6F0EE675AFEEEE05A15EE900AC2
:1030D00030E6F0EE675AFEEEE05A15EE900AFDE596
:1030E000F0EE675AFEEEE05A15EE900A0AE667EE39
:1030F000A57AFDEEE77A17EE901A09B24AE567EE77
:10310000A57AFDEEE77A17EE900A00B22CE5F0EE14
:10311000675AFEEEE45A15EE902A1FE467EEA57A90
:10312000FDEEE77A17EE902A12B2FFF731BBF0EE10
:10313000675AFEEEE45A15EE902AFFF7FDBBF0EE5B
:10314000675AFEEEE05A15EE902AFFF79BBBF0EEB1
:10315000675AFEEEE05A15EE902AFFF780BB67EE45
:10316000A57AFDEEE77A17EE902A12B2FFF724BB9C
:1031700082FF7F0000000030000000387E0080FFEA
:1031800030B5184C154685B0046004F1080EEC46C5
:103190000FC98EE80F00D4ED047AF5EEC07A8CE802
:1031A0000F00F1EE10FA1ADDB7EE006A94ED057A21
:1031B00027EE277AC6EE276A84ED0D7AC4ED0C6AF5
:1031C0006DB1204640F8185F02F05EFA06490369C7
:1031D0000020064A2162A262E36005B030BD0120F2
:1031E00005B030BD80120024002000300000003007
:1031F00000680830704700BFB1F5807F03680A4659
:1032000028BF4FF48072B1F5807F9A6094BF002090
:10321000012070470068183002F096BA30B5046893
:1032200083B008480D46A368A26A216A9B000090FB
:1032300004F1180002F02AFA0020C4E9000503B0E6
:1032400030BD00BFC525000810B4074B4FF07E51BC
:1032500030240022032019619C60D8605DF8044B83
:103260005961C3E90622704780120024704700BFED
:10327000F8B5134F3C687F2C07D98023114A42F2DE
:1032800024411C463B60A2F87E100F4D2B68012B99
:103290000AD90C4E0D4D22463146284600F02CF935
:1032A0000028F8D13860F8BD22460649074800F0EA
:1032B00023F90028F7D12B68386001332B60F8BD63
:1032C000BC120024C0120024B812002440130024B1
:1032D00030B4154C2168F1B14B1E144DE81810F8AC
:1032E00001298C4619460A2A01D00D2A02D14BB178
:1032F000013BF4E70CF102037F2B10D980232360FC
:1033000030BC70470122022323600D200A23685439
:10331000AB5430BC704701220223044DF4E70CF19A
:1033200001026146F0E700BFBC120024C012002475
:1033300010B5094C02460B46084821680844C1F103
:10334000800114F091FD236818442060FFF7C0FF4E
:10335000FFF78EFF10BD00BFBC120024C012002476
:103360000FB400B583B004A951F8040B0191FFF725
:10337000DFFF03B05DF804EB04B0704710B50446FE
:1033800000210A4800F032F8002C094B14BF022239
:10339000002208481A60FFF7E3FF0748FFF7E0FF45
:1033A0000A20BDE8104002F0A7BA00BF4013002475
:1033B000B8120024B8A40108C8A40108064A0749A5
:1033C000074808B512F0D6FD034A04490548BDE890
:1033D000084012F0CFBD00BF000000246D3200088D
:1033E0004013002444130024704700BF012910B586
:1033F00006D0022915D051B1BDE8104008F026BB17
:103400000A46344834490DF04BF8E8B1FEE7334B37
:103410000A46334C334934481C600DF041F868B11A
:10342000FEE701222C492B480DF03AF800B1FEE7E7
:103430002E4928480DF058F8C0B1FEE72B492A481C
:103440000DF052F860B1FEE7284922480DF04CF823
:1034500000B1FEE726491F480CF0C2FF08B3FEE7A3
:10346000244921480CF0BCFFA8B1FEE720491948C7
:103470000CF0B6FF00B1FEE716480DF05DF802460D
:1034800040B9164B164C174917481C600DF008F848
:1034900068B1FEE7FEE714480DF04EF80028ABD007
:1034A000FEE70C480DF048F80028A5D0FEE70F49CC
:1034B0000D480DF019F800B1FEE70E490A480CF06E
:1034C0008FFF00B1FEE708480DF036F8002893D0D2
:1034D000FEE700BF24160024BC00002400190024CD
:1034E000E9330008A000002448130024240100242C
:1034F0007C00002468000024084691B208B502F060
:10350000DFFC003818BF012008BD00BF014807F0EC
:1035100033BB00BF50480024014807F02DBB00BF5B
:1035200050480024014807F027BB00BF5048002442
:1035300010B4002383B00324018080F8503080F859
:103540005120C0E9014303B05DF8044B704700BF50
:103550002DE9F04FBE4F0024BE4D8DB0037007F132
:10356000400342608046164689462022214638465E
:10357000C5F88835C5F88475CDE90244CDE9044421
:10358000CDE90644CDE90844CDE90A4413F002FF31
:103590002022214605F26250C5F85145C5F855452F
:1035A000C5F85945C5F85D4513F0F4FE85F850653A
:1035B000D8F8043085F86846002B62D005F5AA6A71
:1035C00009F1500B264609EB040128195222013655
:1035D00013F0B8FE4FF0000327F8023B1BF804304D
:1035E0000AF8013F002B70D0D8F804304FF00102E8
:1035F00054349E4285F86826E5D3974A082195F809
:1036000050350026C5F88C254FF4802293480027BA
:10361000C5F8A4350023C5F890250122C5F89C15EE
:1036200095F86816C5F8943585F8A035C5F898253D
:10363000C0E9006700293ED0C5F8B82585F8A13556
:1036400085F8A835002298F80030C5F8BC25C5F8E3
:10365000C025002B40D0012200200121013B85F82C
:10366000C4257F4AC2E90001082B37D8DFE813F0F0
:10367000BD00C200C700CC00D100D600DB00E100D5
:10368000E800C5F89435F6B285F8A0350020724BF5
:103690000021C5F8A465C5F88C354FF48023C5F822
:1036A00090350123C5F898350823C5F89C3505F5F4
:1036B000B663C3E90001012385F8A135002385F82D
:1036C000A8350323C5F8B835BCE7D8F8043054341E
:1036D000B3423FF678AF90E785F8C435614803F010
:1036E0009FFC034608B1FFBEFEE702A95D480293B6
:1036F00003F0F6FD0446002875D1042340F2FF7262
:103700000A90CDE9082395F85035002B00F0F5809C
:1037100006234FF05409019309FB045393F85130E9
:10372000072B07D8DFE803F0595C5653504D4A0485
:103730000723079326B206EB4606C6EBC60605EB43
:103740008608B700404600F03BFB09FB045393F8A2
:103750005030042B00F3AD80022B00F3C08000F04A
:10376000BC802B19002283F8402515F8262098F8F4
:103770000130002A7CD0022A00F08D80012A40F01E
:10378000B480012B00F0B380002B374B18BF00230F
:10379000059305A9019B3348069303F041F80028DF
:1037A00040F0AE80013495F85035E4B2A34240F2C7
:1037B000A4802E4B53F824300193ADE706230793E2
:1037C000B8E705230793B5E704230793B2E703237C
:1037D0000793AFE702230793ACE700230793A9E71A
:1037E00001230793A6E7FFBEFEE70320402142E93D
:1037F000020173E70720602142E902016EE70F2012
:10380000802142E9020169E71F20A02142E902016B
:1038100064E73F20C02142E902015FE77F20E02109
:1038200042E902015AE7FF204FF4807142E90201A8
:1038300054E740F2FF104FF4907142E902014DE766
:1038400040F2FF304FF4A07142E9020146E700BFA9
:10385000004000300819002400200240B81E002457
:10386000D81E0024941E00240002B025D8A401080C
:10387000062B36D0072B3CD0022B49D0032B49D046
:10388000002B4BD0012B47D0042B49D0052B254BC7
:1038900018BF00237CE7042B25D0052B2BD08BB33E
:1038A000012B31D0022B31D0032B1F4B18BF00232B
:1038B0006EE70323143705EB040B4FF0000A2F4487
:1038C0008BF8403538460AF1010A00F079FA9BF886
:1038D000403514375345F5DC47E70123EAE7022377
:1038E000E8E7124B54E7124B52E7002350E7114B25
:1038F0004EE7114B4CE7114B4AE70DB0BDE8F08F96
:10390000FFBEFEE70E4B43E70E4B41E70E4B3FE792
:103910000E4B3DE70E4B3BE70E4B39E70E4B37E7BF
:103920000E4B35E70000B84F002090360800900C91
:103930001000C0102000F0148000501D00018021F4
:103940000004002A0008302E001060320040C03A07
:103950000080F03E00005247000021430000844BED
:1039600038B5094C40F2FF724FF0011104F28C554A
:10397000284603F063FC94F85025D4F884152846B3
:10398000BDE8384003F0C2B908190024064B0F29DE
:10399000D3F8843598BF03EB41031B8800EE103A3F
:1039A000BBEEC80A704700BF08190024244B026808
:1039B0009A4200D07047234A00232348D2F8D810F7
:1039C00030B5224C41F0200183B0C4F8F005092045
:1039D000C4F8F83504F5BE65C4F8F4054FF480600A
:1039E000C2F8D8104FF40061D2F8D820C4F800060D
:1039F00094F8680602F02002C4F8FC35984201925F
:103A0000C4F804164FF40051C4F810362846C4F820
:103A10001436019B14BF00234FF48073C4F80816BA
:103A2000C4F80C3603F088FE08B1FFBEFEE704F2CE
:103A30008C53C4F8D855C4F8283603B030BD00BF45
:103A400000200240004402584000024008190024AF
:103A5000014804F0C3BC00BFF81E002402682DE931
:103A6000F84F504B9A4201D0BDE8F88F4E4D95F873
:103A70006836002BF8D095F85035002B7BD0002409
:103A800005F13C0905F2625605F5AA67A04613E068
:103A900003F0010117F811BCA9F1280000F060FB48
:103AA000BBF1010F25D895F85035013409F15409BF
:103AB0000236A2B293422BD917F8012F002AF4D074
:103AC000D5F884350021327833F81400D5F88835DC
:103AD00003EB041323F81200338801339BB23380C5
:103AE0005FFA83FA3A789A42D2D88A46A6F80080DA
:103AF000D0E7CAF34001A9F1140000F031FBBBF19B
:103B0000020FCAF38001CED0484600F029FBCAE775
:103B1000002395F86806254909229842C5F8F8352A
:103B20004FF48060C5F8F015C5F8F4254FF4006136
:103B30004FF40052C5F8FC3508BF4FF48073C5F848
:103B40000006C5F80416C5F8082600221848C5F86E
:103B50000C36C5F81026C5F8142603F0EDFD08B1A3
:103B6000FFBEFEE795F85025D5F884151148BDE84D
:103B7000F84F03F0CBB80D4909224FF48060C5F827
:103B8000F835C5F8F0154FF40061C5F8F4254FF489
:103B90000052C5F8FC35C5F80006C5F80416C5F88E
:103BA0000826D2E700200240081900244000024005
:103BB000F81E0024941E0024704700BF0C4B4FF6E3
:103BC0000B71002203F5A8601980DA6099821A62ED
:103BD00019855A6399879A64C3E90122C3E90622C9
:103BE000C3E90B22C3E9102254339842ECD1704749
:103BF0000819002484460FC98CE80F009CF8003097
:103C00000B2B30D09CF801200F2A2CD8022900B5AC
:103C100091B041D0032902D0012900D000210C919C
:103C2000DCF80810012902D0022918BF00210D91EB
:103C3000DCF80C10022904D0032902D0012918BF96
:103C400000210A2B0E910FD85B4800EB8320CCF8A3
:103C500010000A2B17D8DFE803F0A0928476685A88
:103C60004C3E3022090070470020F0E7534BD3F858
:103C7000E01041F48061C3F8E010D3F8E03003F4C1
:103C800080630A930A9B01230BA993400B9304F0D2
:103C9000F7FE11B05DF804FB11210C91C0E7474B12
:103CA000D3F8E01041F40071C3F8E010D3F8E0302D
:103CB00003F400730993099BE5E7404BD3F8E01048
:103CC00041F48071C3F8E010D3F8E03003F480735E
:103CD0000893089BD7E7394BD3F8E01041F08001F7
:103CE000C3F8E010D3F8E03003F080030793079B9C
:103CF000C9E7324BD3F8E01041F04001C3F8E010BF
:103D0000D3F8E03003F040030693069BBBE72B4B50
:103D1000D3F8E01041F02001C3F8E010D3F8E03010
:103D200003F020030593059BADE7244BD3F8E01087
:103D300041F01001C3F8E010D3F8E03003F01003B5
:103D40000493049B9FE71D4BD3F8E01041F008015A
:103D5000C3F8E010D3F8E03003F008030393039BAB
:103D600091E7164BD3F8E01041F00401C3F8E010DE
:103D7000D3F8E03003F004030293029B83E70F4B78
:103D8000D3F8E01041F00201C3F8E010D3F8E030BE
:103D900003F002030193019B75E7084BD3F8E01091
:103DA00041F00101C3F8E010D3F8E03003F0010363
:103DB0000093009B67E700BF0000025800440258D0
:103DC00003780B2B2DD042780F2A2AD8416802297C
:103DD00010B590B03ED0032902D0012900D00021B7
:103DE0000C918168012902D0022918BF00210D9190
:103DF000C168022904D0032902D0012918BF00217B
:103E00000A2B0E910ED85B4C04EB832404610A2B21
:103E100017D8DFE803F009A0928476685A4C3E3048
:103E2000220070470024F1E7534BD3F8E01041F033
:103E30000101C3F8E010D3F8E03003F00103009370
:103E4000009B01230BA9204693400B9304F018FE1E
:103E500010B010BD11210C91C3E7474BD3F8E0100F
:103E600041F48061C3F8E010D3F8E03003F48063DC
:103E70000A930A9BE5E7404BD3F8E01041F4007148
:103E8000C3F8E010D3F8E03003F400730993099B02
:103E9000D7E7394BD3F8E01041F48071C3F8E01054
:103EA000D3F8E03003F480730893089BC9E7324BE2
:103EB000D3F8E01041F08001C3F8E010D3F8E0300F
:103EC00003F080030793079BBBE72B4BD3F8E0106D
:103ED00041F04001C3F8E010D3F8E03003F04003B4
:103EE0000693069BADE7244BD3F8E01041F0200188
:103EF000C3F8E010D3F8E03003F020030593059BEE
:103F00009FE71D4BD3F8E01041F01001C3F8E0101B
:103F1000D3F8E03003F010030493049B91E7164BB1
:103F2000D3F8E01041F00801C3F8E010D3F8E03016
:103F300003F008030393039B83E70F4BD3F8E010D0
:103F400041F00401C3F8E010D3F8E03003F00403BB
:103F50000293029B75E7084BD3F8E01041F0020191
:103F6000C3F8E010D3F8E03003F002030193019BA3
:103F700067E700BF000002580044025810B592B035
:103F8000ADF804100180C9B2149C0B29C460C0E9CB
:103F900001233FD090F801C0BCF10F0F3AD8022A9C
:103FA0003FD0032A02D0012A00D000220E92012B1A
:103FB00002D0022B18BF0023022C0F932CD0032C0D
:103FC0002AD0012C28D000230A29109327D85C4A34
:103FD00002EB812202610A2914D8DFE801F0A395DF
:103FE00087796B5D4F4133250600564BD3F8E010BF
:103FF00041F48061C3F8E010D3F8E03003F480634B
:104000000C930C9B01230DA9104603FA0CF30D939E
:1040100004F036FD12B010BD0A291094D7D9002241
:10402000D8E711220E92C2E7464BD3F8E01041F4D4
:104030000071C3F8E010D3F8E03003F400730B9381
:104040000B9BDFE73F4BD3F8E01041F48071C3F8DE
:10405000E010D3F8E03003F480730A930A9BD1E7B1
:10406000384BD3F8E01041F08001C3F8E010D3F8EA
:10407000E03003F080030993099BC3E7314BD3F889
:10408000E01041F04001C3F8E010D3F8E03003F055
:1040900040030893089BB5E72A4BD3F8E01041F0A2
:1040A0002001C3F8E010D3F8E03003F020030793B9
:1040B000079BA7E7234BD3F8E01041F01001C3F8AA
:1040C000E010D3F8E03003F010030693069B99E765
:1040D0001C4BD3F8E01041F00801C3F8E010D3F80E
:1040E000E03003F008030593059B8BE7154BD3F8ED
:1040F000E01041F00401C3F8E010D3F8E03003F021
:1041000004030493049B7DE70E4BD3F8E01041F0C9
:104110000201C3F8E010D3F8E03003F00203039388
:10412000039B6FE7074BD3F8E01041F00101C3F8A0
:10413000E010D3F8E03003F001030293029B61E743
:10414000000002580044025808B501214378006974
:10415000994089B204F096FE003818BF012008BDCE
:1041600001230A464178006903FA01F189B204F09B
:104170008FBE00BF10B5002386B012220446049300
:10418000CDE902230368022B1FDC002B01DB042393
:10419000059323790A2B1FD8114800EB83206279FD
:1041A000012301A99340019304F06AFCA3790A2B2F
:1041B00014D80B4800EB8320E279012301A9934036
:1041C000019304F05DFC06B010BD032BE1D1062382
:1041D000059323790A2BDFD90020E0E70020EBE7E5
:1041E00000000258634A0368934210B58CB028D08F
:1041F000614A934258D0614A934200F09480604AE9
:10420000934201D00CB010BD5E4C5F48D4F8E03052
:1042100043F00203C4F8E030D4F8E03003F00203C6
:104220000A930A9BFFF7A6FFD4F8F43043F080030B
:10423000C4F8F430D4F8F43003F080030B930B9BF4
:10424000E0E7504C5148D4F8E03043F00203C4F8A2
:10425000E030D4F8E03003F002030193019BFFF754
:1042600089FFD4F8E83000221F2043F400131146E0
:10427000C4F8E830D4F8E83003F400130293029B4A
:10428000D4F8D83043F00103C4F8D830D4F8D8308B
:1042900003F001030393039B03F09CF81F200CB071
:1042A000BDE8104003F0D4B8364C3948D4F8E030BB
:1042B00043F08003C4F8E030D4F8E03003F080032A
:1042C0000493049BD4F8E03043F00203C4F8E030D8
:1042D000D4F8E03003F002030593059BFFF74AFF93
:1042E000D4F8E8300022212043F480031146C4F8BA
:1042F000E830D4F8E83003F480030693069BD4F842
:10430000D83043F00103C4F8D830D4F8D83003F0E3
:1043100001030793079B03F05DF821200CB0BDE873
:10432000104003F095B81B48FFF724FF154B0022FF
:104330004820D3F8E840114644F40004C3F8E840AC
:10434000D3F8E84004F400040894089CD3F8D8405B
:1043500044F00104C3F8D840D3F8D83003F0010387
:104360000993099B03F036F848200CB0BDE81040D3
:1043700003F06EB80054004000580040005C00405C
:10438000001C00580044025818220024781F002402
:1043900058200024382100242DE9F0431A4B87B01F
:1043A00000254FF010099E46EC46184BFF22E046D0
:1043B00067461A700EF118060EF13004CDE900556B
:1043C000CDE90255ADF80090BCE80F00CDE90455E9
:1043D000AEE80F009CE803000095ADF800908EE871
:1043E0000300B8E80F000FC69CE803000095ADF885
:1043F000009086E803000FCF0FC49CE8030084E818
:10440000030007B0BDE8F08318000024741F0024E7
:1044100010B5EFF3108472B6084B1A78120602D565
:1044200004B962B610BD1878054B40B2C0EBC000AD
:1044300003EB4010143003F0D1FFF1E7741F0024A8
:10444000781F0024014806F085BA00BF042000242C
:10445000014806F07FBA00BFE4200024014806F0BE
:1044600079BA00BFC42100242DE9F0430D6885B05E
:10447000404EC5EBC503032D4FEA431706EB43132C
:10448000036041DCCA680C46012A3DD84FEAC508E2
:104490004CD020689C466168A8EB0509A2680DF124
:1044A000100EE36806EB4919ACE80F00324B227C92
:1044B0008CF80020D9F808C00FCB0EE90F000EEBE6
:1044C0008503BCF1010F53F8103CC9F88C3032D091
:1044D000BCF1020F43D0BCF1000F36D0227C8C37E8
:1044E000A8EB050500233744520006EB45160121D1
:1044F0003846C6F8AC30C6E92521C6E92733C6E9F7
:10450000293305F09BFB18B1012005B0BDE8F0830D
:104510000146384606F02AFA0028F5D10146384609
:1045200006F04EFA003818BF0120EEE70A7C103A78
:10453000672AAED9E8E701F087FB104B98420CBF21
:104540000F4B104BC9F89030C8E701F07DFB0B4BC7
:1045500098420CBF0C4B0D4BC9F89030BEE701F0F0
:1045600073FB064B98420CBF094B0A4BC9F89030BD
:10457000B4E700BF781F0024B8A30108000E270786
:104580002D0FB0303211D0205F4390608A62E0304E
:10459000200BA0101A0980102DE9F041D0F80080FE
:1045A00082B00D4617461E4608F18C04204606F0E0
:1045B000D9F92028FAD1D8F80C3073B96D0020460B
:1045C000089C33463A46A9B2009405F08DFB0038AA
:1045D00018BF012002B0BDE8F081089B3246394681
:1045E000204605F025FEF2E72DE9F041D0F80080E5
:1045F00082B00D4617461E4608F18C04204606F090
:10460000B1F92028FAD1D8F80C3073B96D002046E2
:10461000089C33463A46A9B2009405F023FD0038C1
:1046200018BF012002B0BDE8F081089B3246394630
:10463000204605F027FFF2E72DE9F047066884B031
:104640000D4690469A46BDF83490002706F18C043A
:10465000204606F087F92028FAD1F3682BB1381EDE
:1046600018BF012004B0BDE8F08720460E9C690009
:104670005346424689B2CDE901940C9C009406F061
:1046800003F80746EBE700BF094B6FF0F411102267
:104690005960C3F8E4101A7483F8F020C3F8C41109
:1046A00083F8D021C3F8A41283F8B022704700BF6A
:1046B000781F002430B5002395B04FF48071062296
:1046C00004460B9306921393CDE90C13CDE90E33F8
:1046D000CDE9113301F0BAFA07282BD004F1100507
:1046E00041F2883206A9284607F0E0FA28B10123F2
:1046F000184684F85C3015B030BD0222022306A9AA
:104700002846CDE9002310220123CDE9022300220F
:104710004FF48003CDE9042305224FF08073069205
:104720006A460F9341F2883307F02CFC0028DED153
:1047300015B030BD0323012084F85C3015B030BDC6
:1047400070B50023A4B04FF080724FF4807504461A
:10475000ADF806300D93CDE910320122CDE90E53AC
:10476000CDE91223CDE91433002943D0F02300F121
:10477000100508AEADF80630C02341F2883231464C
:104780002846089307F092FA28B10123184684F8C6
:104790005C3024B070BD41F288320DF1060128462C
:1047A00007F0EEFA03460028EFD105224FF480719E
:1047B0001E93284616924FF080721B9321931F92EE
:1047C00002AA9FED1F7BCDE91C13CDE922338DEDAD
:1047D000027B9FED1D7B41F2883316A98DED047B92
:1047E0009FED1B7B8DED067B07F0CCFB0028CCD129
:1047F00024B070BD00F1100508AE612341F288328B
:1048000031462846089307F051FA0028BDD141F2FD
:1048100088320DF10601284607F030FB0028B4D19C
:10482000BDF80630204623F0780343F04003ADF88E
:104830000630FFF73FFF00289ED0A6E7AFF30080C9
:104840000000000001000000100000000100000056
:1048500000000000000040002DE9F04F00234FF45D
:10486000807501264FF0807804462DED028BABB0A9
:104870008DF8073013932193299314950E96CDF854
:104880005C80CDE91533CDE91863CDE91A33CDE964
:104890002253CDE92433CDE9273306231C9301F0BD
:1048A000D5F9072808D004F1100741F288321CA975
:1048B000384607F0FBF940B10123184684F85C3014
:1048C0002BB0BDEC028BBDE8F08F4FF0020A4FF029
:1048D000020B4FF0050941F2883308AA1CA938469B
:1048E000CDF89480CDF870909FED2F8BCDE908AB7B
:1048F0004FF0000A4FF4800B8DED0A8BCDE90CAB25
:1049000007F040FB0028D7D141F2883238460EA983
:1049100007F0CCF90028CFD1402341F288320DF1C5
:10492000070138468DF8073007F02AFA0028C3D16E
:1049300041F288330EA902AA3846CDF83890CDF856
:104940005C809FED1B7BCDE906AB8DED027B9FED7F
:104950001A7B8DED047B07F015FB03460028ABD1D5
:10496000CDF870904FF00109CDF894804FF0000819
:10497000219308AA29931CA938462295CDE923330F
:10498000CDE9273341F288338DED0A8BCDE90CABAD
:10499000CDE9088907F0F6FA002891D0304684F86E
:1049A0005C608DE7AFF300801000000001000000A4
:1049B00040000000430000000080000001000000F3
:1049C0002DE9F04F00234FF4807601254FF08078D9
:1049D00004462DED028BABB0CDE915331393219333
:1049E000299314960E95CDF85C80CDE91853CDE946
:1049F0001A33CDE92263CDE92433CDE927330623E9
:104A00001C9301F023F9072808D004F1100741F2A4
:104A100088321CA9384607F049F940B101231846ED
:104A200084F85C302BB0BDEC028BBDE8F08F4FF00A
:104A3000020A4FF0020B4FF0050941F2883308AA31
:104A40001CA93846CDF89480CDF870909FED308B3E
:104A5000CDE908AB4FF0000A4FF4800B8DED0A8BC7
:104A6000CDE90CAB07F08EFA0028D7D141F288329D
:104A700038460EA907F01AF90028CFD1402341F299
:104A800088320DF1070138468DF8073007F078F9C4
:104A90000028C3D19DF8073008AA0C90FF20089386
:104AA0004FF400430EA90B95CDF83890CDF85C80FB
:104AB000CDE909034FF4800338460D9341F2883362
:104AC00007F060FA03460028A8D100222193299319
:104AD0001CA938462296CDF87090CDF89480CDE987
:104AE0002333CDE927330123CDE9022341F2883373
:104AF00002AA8DED048BCDE906AB07F043FA00283E
:104B000090D0284684F85C508CE700BFAFF300805B
:104B1000100000000100000070B50122AAB0044698
:104B20000D465F48C02104F0B3F900265D4B0696A0
:104B30005B4895FAA5F5CDE90466D3F8E02042F08C
:104B40002002C3F8E020C022D3F8E03003F02003B5
:104B500001930123019902A9CDE9022303F090FFFB
:104B6000142001F0F9FD3246C0214D4804F090F9BF
:104B7000142001F0F1FD0122C021494804F088F918
:104B8000142001F0E9FD0123474AE6612261C4E9EE
:104B90000533002D77D0B5FA85F1013900234FF4A4
:104BA000807604F11005C4E908162846C4E90B33E1
:104BB00007F00EF830B101231D4684F85C3028461A
:104BC0002AB070BD66231690179041F28832139078
:104BD0000EA91B900E93CDE91460CDE9190028466B
:104BE00007F064F80028E6D199230EA941F2883233
:104BF00028460E9307F05AF80028DCD1052301213E
:104C0000249008AA219027901C934FF08073CDE93F
:104C10002260CDE928001020259341F28833CDE9A8
:104C20000A019FED1D7B00204FF48001CDE90C01AE
:104C30001CA928468DED087B07F0A4F90028BAD1FD
:104C40002046FFF7BDFE0028B5D1284607F01CF826
:104C500005460028AFD123790A2B18D963790121A1
:104C6000994004F047F8A3790A2B0ED80F4800EBBF
:104C700083200126E17906FA01F104F03BF826666B
:104C800084F864609BE71F2188E70020F1E707486C
:104C900000EB8320E2E700BF0000000001000000FD
:104CA00000140258004402580050005200000258FC
:104CB0002DE9F041684CA2B00D46046000F0C6FF3B
:104CC00007284BD028682346AA68696807C3AA89C1
:104CD000184620F8042B267B677B06F0D5FF0028BA
:104CE00034D1012E94F8643014BF4FF480154FF482
:104CF00000052366002B39D0584B95FAA5F52361A2
:104D00000123C4E905330023E361002D6ED0B5FA19
:104D100085F1013900234FF480785148C4E908181F
:104D2000C4E90B3306F054FF80B966230B9013904F
:104D300041F2883206A90693CDE90C80CDE90E0038
:104D4000CDE91100464806F0B1FFA0B101231D4690
:104D500084F85C30284622B0BDE8F08101250323A9
:104D6000284684F85C3022B0BDE8F0812946204610
:104D7000FFF7D2FEC0E7992341F2883206A93848EE
:104D8000069306F093FF0028E0D105231C901990AC
:104D90006A4614934FF08073219014A91D9341F239
:104DA00088339FED277BCDE91A80CDE91F008DED7B
:104DB000007B9FED257B2A488DED027B9FED247BB8
:104DC0008DED047B07F0DEF80028BFD13146224884
:104DD000FFF7B6FC0028B9D11F48FFF73DFD054697
:104DE0000028B3D127B102232366B3E71F2191E73F
:104DF000EB2300260027189014934FF440631F9074
:104E000006AA1B934FF40053209014A917934FF454
:104E1000404313481C93A023CDF8688016930623C3
:104E200019934FF0805321934FF04073CDE90667FB
:104E30001D9307F01FF90028D5D087E7AFF3008056
:104E40000000000001000000100000000100000050
:104E50000000000000004000F82200240050005232
:104E6000082300245E4B02682DE9F0419A428CB081
:104E70004FF00004CDE90744CDE909440B9402D07A
:104E80000CB0BDE8F081574B574DD3F8D420574FA5
:104E900042F48042564EDFF85C81C3F8D420D3F848
:104EA000D42002F480420092009ADA6F42F48042E9
:104EB000DA67DA6F22F48042DA67D3F8E02042F052
:104EC0004002C3F8E020D3F8E02002F04002019253
:104ED000019AD3F8E02042F02002C3F8E020D3F892
:104EE000E02002F020020292029AD3F8E02042F081
:104EF0001002C3F8E020D3F8E02002F01002039281
:104F0000039AD3F8E02042F00202C3F8E020D3F87D
:104F1000E03003F002030493049B22E014F0FC024F
:104F200052D103F1200155F8211008780A2839D808
:104F300091F801C00121099207EB802201FA0CF1DE
:104F400007910221CDF81480089103210A910CA940
:104F50000B4413F81C3C07A9104601340B9303F0D3
:104F60008FFD2A6EE3B2002AD8D0052B2CD803F18E
:104F70001A0255F822100A780A2A18D9497801220B
:104F80008A40022107920022CDE9081203210A91EA
:104F90000CA90B4496E803000590ADF8181013F81F
:104FA0001C3CD8E74878012109928140C8E748783D
:104FB000012107EB82228140022007910021CDE9E7
:104FC000080103210A91E3E700225C20114602F068
:104FD00001FA5C2002F03CFA0CB0BDE8F08100BFA1
:104FE0000050005200440258F822002400000258E9
:104FF00018A501080A0A090A0268F8B5194B9A426D
:1050000000D0F8BD184A0024184F0125D2F8D4303A
:10501000174E23F48043C2F8D43011E014F0FC0F93
:105020001BD157F821301A780020597801340A2A08
:1050300005FA01F198BF06EB822089B203F05AFE0F
:10504000E3B23A6E03F12001002AE7D0052B03F109
:105050001A0202D857F82230E5E75C20BDE8F84094
:1050600002F004BA0050005200440258F822002412
:1050700000000258014807F089B800BF0823002447
:105080000E4B6FF0F4120021981C30B41C1D9D1DB6
:105090009A605D671C67C3E90022C3E9181103F138
:1050A0000A0203F1080130BCC3E91A30C3E91E1239
:1050B000C3E92030C3E92212704700BFF822002460
:1050C00038B5036871B9026A00F1280500F5AC74BF
:1050D000012A0CBF002140218BBB1D4B5722C0F879
:1050E00058310DE0426A00F1C00500F5E874012A6C
:1050F0000CBF00214021EBB1164B5A22C0F8D03131
:1051000000232046C4E901214FF480524FF480610E
:10511000636262614FF48042C4E903314FF48073EB
:10512000C4E906234FF40033236202F005FB58B1B3
:10513000FFBEFEE7084B5822C0F8D031E0E7074B2E
:105140005922C0F85831DBE7C5E92044A56338BDD2
:105150001000024070000240280002405800024047
:105160002DE9F043C28889B081468388ADF80020DC
:105170000089B9F80A10B9F80C20ADF80230D9F856
:105180001830ADF80400ADF80610ADF80820002B7B
:105190003FD0D9F81C70B7FA87F77F0901250223A1
:1051A0006C460DF10A06DFF870800695CDE90435EE
:1051B00099F8042020788242627818D0D9F800103B
:1051C000F9B1012902D1F8B10A2107910A2805FA9B
:1051D00002F203A994BF08EB80200020039203F0A1
:1051E0004FFC0234A642E3D109B0BDE8F08399F840
:1051F00005109142E2D1002FF3D0D9F80010002918
:10520000DFD106210791E1E7022A0CBF08210A211C
:10521000DBE70127C2E700BF00000258534A0368DA
:10522000934230B505468BB055D02032934252D0D0
:105230004F4A934204D02032934201D00BB030BD8C
:105240004C4C4D48D4F8E03043F00103C4F8E03052
:10525000D4F8E03003F001030593059BD4F8E03067
:1052600043F00803C4F8E030D4F8E03003F008035A
:105270000693069BD4F8E03043F04003C4F8E030D6
:10528000D4F8E03003F040030793079BD4F8F030E4
:1052900043F40003C4F8F030D4F8F03003F4000312
:1052A0000893089BFFF75CFFD4F8D830296843F0D7
:1052B00001032F4A3048C4F8D830891AD4F8D830BE
:1052C00018BF012103F001030993099B0BB0BDE84E
:1052D0003040FFF7F5BE274C2848D4F8E03043F0C3
:1052E0000103C4F8E030D4F8E03003F00103009388
:1052F000009BD4F8E03043F01003C4F8E030D4F859
:10530000E03003F010030193019BD4F8E03043F048
:105310004003C4F8E030D4F8E03003F040030293D7
:10532000029BD4F8F03043F48003C4F8F030D4F892
:10533000F03003F480030393039BFFF711FFD4F8CD
:10534000D830296843F00103084A0C48C4F8D83023
:10535000891AD4F8D83018BF012103F0010304934F
:10536000049B0BB0BDE83040FFF7AABE04580140D3
:10537000045C014000440258E425002488230024F2
:10538000014803F02BB800BFE0240024014803F0DB
:1053900025B800BF58250024014803F01FB800BFFE
:1053A0003C270024014803F019B800BFB4270024AB
:1053B0001A4A0368934210B40BD02032934208D0AB
:1053C000174A934216D02032934213D05DF8044B13
:1053D0007047144B0022D3F85442C3F85822002CD3
:1053E000F4D0D3F84802D3E9931223465DF8044B76
:1053F000520818470B4B0022D3F8B044C3F8B4242A
:10540000002CE3D0D3F8AC24D3F8A814D3F8A40428
:10541000520823465DF8044B184700BF045801406A
:10542000045C014088230024184A0368934210B4A6
:105430000BD02032934208D0154A934217D0203225
:10544000934214D05DF8044B7047124BD3E9942477
:105450005208C3F85822002CF4D0D3E99201234615
:1054600001EB820100EB82005DF8044B1847094B09
:10547000D3F8AC24D3F8B0445208C3F8B424002CB9
:10548000E0D0D3F8A814D3F8A404E8E70458014006
:10549000045C0140882300242DE9F0470C684FF498
:1054A0001776774F86B004FB06F6012C07EB06084B
:1054B000C0F8008000F39F8000230D468E46C4464E
:1054C000C8F85032C8E9923369A3D3E900236AA12E
:1054D000D1E90001CDE9022306AB03EB8403CDE95A
:1054E000040153F810AC53F8089CBEE80F00ACE878
:1054F0000F00BEE80F00ACE80F009EE80300C8F8FC
:1055000028A0C8F8C0908CE803002B69042B0CD8A5
:10551000DFE803F078828C9603004FF41773594A42
:1055200003FB04739A64C3F8E020AA692B6A002A7B
:1055300042D0002B4FF4177308BF022203FB047301
:1055400018BF0322DA6201221A63EA696B6A002A31
:105550003FD1191E4FF4177318BF012103FB0473C9
:10556000C3E931126969012943D0022947D10325D2
:1055700000214FF4177306F128002A46019103FB1E
:105580000473002438445C645C63DC65C3F8DC406D
:10559000C3F8CC40C3F8F440C3E90F44C3E9154451
:1055A000C3E93544C3E93B44022309F0F5F9019905
:1055B00000284FD0FFBEFEE7191E4FF4177318BF27
:1055C000012103FB0473C3E90B12EA696B6A002A29
:1055D000BFD0002B4FF417730CBF0222032203FB32
:1055E0000473C3F8C4200122C3F8C82069690129E3
:1055F000BBD10225BDE7012006B0BDE8F08700253C
:105600002946B6E74FF417734FF4FA5203FB0473BD
:105610009A64C3F8E02088E74FF417734FF47A5286
:1056200003FB04739A64C3F8E0207EE74FF417731A
:105630004FF4FA4203FB04739A64C3F8E02074E762
:105640004FF417734BF6803203FB04739A64C3F86C
:10565000E0206AE706F1C00002232A46384409F038
:105660009BF90028C8D0FFBEFEE700BFAFF3008063
:1056700004580140045C014024580140245C01406E
:1056800088230024007701000068704770B5046823
:1056900082B015460E46C4F85032C4E99212069AFA
:1056A000C4F85422A269012A26D0626A012A9AB259
:1056B00011D0294604F1C000019209F027FA236AAB
:1056C000019A012B10D0294604F1280009F01EFA96
:1056D000002002B070BD04F1C000019209F0A8FAE8
:1056E000236A019A012BEED1314604F1280009F01A
:1056F0009FFA002002B070BD226A012A9AB211D02E
:10570000294604F12800019209F000FA636A019A1F
:10571000012B10D0294604F1C00009F0F7F9002050
:1057200002B070BD04F12800019209F081FA636AA9
:10573000019A012BEED1314604F1C00009F078FA4C
:10574000002002B070BD00BF03681B69042B05D8A0
:10575000044A02EB830393ED000A70479FED020AAF
:10576000704700BF20A5010800803B470368D3F8BD
:1057700058027047064B6FF0F4124FF60B71C3E9F5
:1057800001229981A3F86812C3E99822704700BFEB
:1057900088230024704700BF08B500F0CBFFBDE8A8
:1057A000084001F0DFBE00BF064808B503680BB132
:1057B00003F072FB044803681BB1BDE8084005F024
:1057C000DBB908BD70540024604D0024064808B5BC
:1057D00003680BB103F060FB044803681BB1BDE82C
:1057E000084005F0C9B908BD70540024604D00247C
:1057F000064808B503680BB103F04EFB0448036884
:105800001BB1BDE8084005F0B7B908BD70540024CD
:10581000604D0024364BDA6A520062D59A6A9A6A61
:105820009A6A9B6A180600D500BE314B9B6A99069E
:1058300000D500BE2E4B9B6ADA0600D500BE2C4B6D
:105840009B6A1B0700D500BE294B9B6A980700D5B1
:1058500000BE274B9B6AD90700D500BE244B9B6A2C
:105860001A0400D500BE224B9B6A9B0400D500BEE3
:105870001F4B9B6AD80400D500BE1D4B9B6A1905BF
:1058800000D500BE1A4B9B6A5A0500D500BE184BC6
:105890009B6A9B0500D500BE154B9B6AD80500D5B9
:1058A00000BE134B9B6A990100D500BE104B9B6A4A
:1058B000DA0100D500BE0E4B9B6A1B0300D500BE6B
:1058C0000B4B9B6A580300D500BE094B9B6A99039A
:1058D00000D500BE064B9B6ADA0306D400BE00BEAC
:1058E000FEE7DB6A9B07FAD5F8E700BEF6E700BFE4
:1058F00000ED00E000F02ABF00F02EBF0A4B9B68CD
:1059000003F17843B3F5003F0BD3084B986848B1D7
:105910009868012806D09868022803D09B68032065
:1059200070470120704700BF00ED00E000008038A4
:105930002DE9F041CEB004464C2200210AA811F016
:1059400029FD2022002102A811F024FDC0220021FF
:105950001EA811F01FFD022006F054F82368012B49
:105960004FF0000354D0584A02250193C820D16A51
:10597000564B21F00101D162D26A02F0010201927C
:105980009A6942F440429A619B6903F4404301934F
:10599000019B4E4A93699B04FCD54D490224002289
:1059A00001268B6A04274FF0080823F003032343E2
:1059B0008B62052316900AA818934FF48033109633
:1059C000179419941597CDF86880CDE91B222122F0
:1059D000CDE91344CDE90A2306F078FD00B1FEE7D6
:1059E0003F220323294602A8CDE9022300220823EF
:1059F000CDE9042340224023CDE9062340234FF480
:105A00008062CDE9082307F0FBF80346B8B1FEE752
:105A10002E4A04250093F02091692B4B41F440411C
:105A20009161926902F440420092DA6A42F0010206
:105A3000DA62DB6A03F001030093009BA9E72022EE
:105A400026932E9380212C924FF480523193062579
:105A50003F931EA8279236924FF4803225914FF43F
:105A600040113292479200222895802540911021C2
:105A7000CDF888802B9720962A91CDE92F3440F2DB
:105A8000271329934FF480632D930023CDE92346F8
:105A9000CDE93C234FF480740C23449402242193D9
:105AA00007A3D3E90023CDE93445CDE91E2307F050
:105AB00093FB00B1FEE705F0C9FF4EB0BDE8F081F1
:105AC0000F130F03000000000004005800480258A4
:105AD0000044025870B584B0012401F0F1FC4FF489
