:020000040800F2
:1000000000000220190A00080D0A0008F55C00082B
:100010000D0A00080D0A00080D0A00080000000083
:100020000000000000000000000000000D0A0008B1
:100030000D0A0008000000000D0A0008795C0008A5
:100040000D0A00080D0A00080D0A00080D0A000834
:100050000D0A00080D0A00080D0A00080D0A000824
:100060000D0A00080D0A00080D0A00086158000872
:100070006D5800082D3F0008795800088558000881
:100080007D370108ED4800080D0A00080D0A000838
:100090000D0A00080D0A00080D0A00080D0A0008E4
:1000A0000D0A00080D0A00080D0A00080D0A0008D4
:1000B000FD2801080929010815290108214900081E
:1000C0000D0A00082D4900080D0A00084521010805
:1000D00051210108B1350108DD350108113601084B
:1000E0000D0A00080D0A0008000000000D0A0008B3
:1000F0000D0A00080D0A00080D0A00080D0A000884
:100100000D0A00080D0A0008212901085D210108D7
:1001100045360108793601080D0A00080D0A000865
:100120000D0A00080D0A000881210108B521010807
:10013000B13701080D0A00080D0A00080D0A000871
:1001400000000000000000000000000000000000AF
:100150000D0A00080D0A00080D0A0008AD36010856
:10016000394900080D0A0008895C0008AD5C0008E8
:100170000D0A0008D15C00080D0A00080D0A0008ED
:100180000D0A00080D0A0008E136010815370108BC
:1001900069210108752101080D0A00080D0A0008EF
:1001A0000D0A00080D0A00080D0A00080D0A0008D3
:1001B000555500080D0A00080D0A00080D0A000830
:1001C0000D0A00080D0A0008E9390008F539000891
:1001D0000D0A0008013A00080D0A00080D0A00087F
:1001E0000D0A00080D0A00080D0A00080D0A000893
:1001F0000D0A00080D0A00080D0A00080D0A000883
:100200000D0A00080D0A00080D0A00080D0A000872
:100210000D0A00080D0A00080D0A00080D0A000862
:100220000D0A00080D0A00080D0A00080000000071
:100230000D0A00080D0A0008000000000D0A000861
:100240000D0A00080D0A00080D0A00080D0A000832
:100250000D0A00080D0A00080D0A00080D0A000822
:100260000D0A00080D0A00080D0A00080D0A000812
:100270000D0A00080D0A00084937010800000000B7
:100280000D0A00080D0A00080D0A00080000000011
:08029000000000000D0A000847
:1002A00010B5054C237833B9044B13B10448AFF3B0
:1002B00000800123237010BD80070024000000008F
:1002C00004A8010808B5034B1BB103490348AFF369
:1002D000008008BD000000008407002404A8010875
:1002E000034613F8012B002AFBD1181A0138704776
:1002F00001F0FF01102A2BDB10F0070F08D010F8D7
:10030000013B013A8B422DD010F0070F42B3F6D1DA
:10031000F0B441EA012141EA014122F007047FF0F3
:1003200000070023F0E80256083C85EA010586EA4A
:10033000010685FA47F5A3FA87F586FA47F6A5FA86
:1003400087F68EB9EED1F0BC01F0FF0102F0070292
:1003500032B110F8013B013A83EA010313B1F8D13D
:100360000020704701387047002D06BF354603381E
:10037000073815F0010F07D1013015F4807F02BF57
:10038000013015F4C03F0130F0BC0138704700BFA8
:1003900081F0004102E000BF83F0004330B54FEA36
:1003A00041044FEA430594EA050F08BF90EA020FA3
:1003B0001FBF54EA000C55EA020C7FEA645C7FEA36
:1003C000655C00F0E2804FEA5454D4EB5555B8BF59
:1003D0006D420CDD2C4480EA020281EA030382EACA
:1003E000000083EA010180EA020281EA0303362D5C
:1003F00088BF30BD11F0004F4FEA01314FF4801C2F
:100400004CEA113102D0404261EB410113F0004F40
:100410004FEA03334CEA133302D0524263EB4303F7
:1004200094EA050F00F0A780A4F10104D5F1200E95
:100430000DDB02FA0EFC22FA05F2801841F10001F0
:1004400003FA0EF2801843FA05F359410EE0A5F1C4
:1004500020050EF1200E012A03FA0EFC28BF4CF0F5
:10046000020C43FA05F3C01851EBE37101F00045AB
:1004700007D54FF0000EDCF1000C7EEB00006EEBB8
:100480000101B1F5801F1BD3B1F5001F0CD3490842
:100490005FEA30004FEA3C0C04F101044FEA445299
:1004A00012F5800F80F09A80BCF1004F08BF5FEA20
:1004B000500C50F1000041EB045141EA050130BD00
:1004C0005FEA4C0C404141EB0101013C28BFB1F512
:1004D000801FE9D291F0000F04BF01460020B1FA5D
:1004E00081F308BF2033A3F10B03B3F120020CDA30
:1004F0000C3208DD02F1140CC2F10C0201FA0CF00E
:1005000021FA02F10CE002F11402D8BFC2F1200C72
:1005100001FA02F120FA0CFCDCBF41EA0C01904028
:10052000E41AA2BF01EB0451294330BD6FEA040471
:100530001F3C1CDA0C340EDC04F11404C4F120025C
:1005400020FA04F001FA02F340EA030021FA04F36E
:1005500045EA030130BDC4F10C04C4F1200220FAC5
:1005600002F001FA04F340EA0300294630BD21FA03
:1005700004F0294630BD94F0000F83F4801306BFC9
:1005800081F480110134013D4EE77FEA645C18BFBD
:100590007FEA655C29D094EA050F08BF90EA020F54
:1005A00005D054EA000C04BF1946104630BD91EA4C
:1005B000030F1EBF0021002030BD5FEA545C05D14F
:1005C0004000494128BF41F0004130BD14F580048E
:1005D0003CBF01F5801130BD01F0004545F0FE4102
:1005E00041F470014FF0000030BD7FEA645C1ABF37
:1005F000194610467FEA655C1CBF0B46024650EA6E
:10060000013406BF52EA033591EA030F41F4002199
:1006100030BD00BF90F0000F04BF0021704730B51F
:100620004FF4806404F132044FF000054FF00001F4
:1006300050E700BF90F0000F04BF0021704730B5B5
:100640004FF4806404F1320410F0004548BF40428A
:100650004FF000013EE700BF42004FEAE2014FEADF
:1006600031014FEA02701FBF12F07F4393F07F4FBA
:1006700081F06051704732F07F4208BF704793F0BD
:100680007F4F04BF41F40021704730B54FF46074D0
:1006900001F0004521F000411CE700BF50EA0102D3
:1006A00008BF704730B54FF000050AE050EA01027C
:1006B00008BF704730B511F0004502D5404261EBEC
:1006C00041014FF4806404F132045FEA915C3FF42D
:1006D000D8AE4FF003025FEADC0C18BF03325FEACA
:1006E000DC0C18BF033202EBDC02C2F1200300FA7B
:1006F00003FC20FA02F001FA03FE40EA0E0021FAA0
:1007000002F11444BDE600BF53B94AB9002908BF3D
:1007100000281CBF4FF0FF314FF0FF3000F074B9DC
:10072000ADF1080C6DE904CE00F006F8DDF804E048
:10073000DDE9022304B070472DE9F047089D044627
:100740008E46002B4DD18A42944669D9B2FA82F284
:1007500052B101FA02F3C2F1200120FA01F10CFAC0
:1007600002FC41EA030E94404FEA1C48210CBEFBF8
:10077000F8F61FFA8CF708FB16E341EA034306FB81
:1007800007F199420AD91CEB030306F1FF3080F010
:100790001F81994240F21C81023E63445B1AA4B25D
:1007A000B3FBF8F008FB103344EA034400FB07F7FF
:1007B000A7420AD91CEB040400F1FF3380F00A8140
:1007C000A74240F207816444023840EA0640E41B35
:1007D00000261DB1D4400023C5E900433146BDE8E1
:1007E000F0878B4209D9002D00F0EF800026C5E983
:1007F000000130463146BDE8F087B3FA83F6002E9B
:100800004AD18B4202D3824200F2F980841A61EB12
:10081000030301209E46002DE0D0C5E9004EDDE730
:1008200002B9FFDEB2FA82F2002A40F09280A1EB18
:100830000C014FEA1C471FFA8CFE0126200CB1FB6D
:10084000F7F307FB131140EA01410EFB03F0884266
:1008500008D91CEB010103F1FF3802D2884200F2F3
:10086000CB804346091AA4B2B1FBF7F007FB101185
:1008700044EA01440EFB00FEA64508D91CEB040423
:1008800000F1FF3102D2A64500F2BB800846A4EB7E
:100890000E0440EA03409CE7C6F12007B34022FA69
:1008A00007FC4CEA030C20FA07F401FA06F31C4398
:1008B000F9404FEA1C4900FA06F3B1FBF9F8200CA5
:1008C0001FFA8CFE09FB181140EA014108FB0EF0EB
:1008D000884202FA06F20BD91CEB010108F1FF3A3B
:1008E00080F08880884240F28580A8F10208614447
:1008F000091AA4B2B1FBF9F009FB101144EA014155
:1009000000FB0EFE8E4508D91CEB010100F1FF34FF
:100910006CD28E456AD90238614440EA0840A0FB97
:100920000294A1EB0E01A142C846A64656D353D06D
:100930005DB1B3EB080261EB0E0101FA07F722FA91
:1009400006F3F1401F43C5E9007100263146BDE8BA
:10095000F087C2F12003D8400CFA02FC21FA03F31D
:10096000914001434FEA1C471FFA8CFEB3FBF7F09E
:1009700007FB10360B0C43EA064300FB0EF69E42C3
:1009800004FA02F408D91CEB030300F1FF382FD25C
:100990009E422DD9023863449B1B89B2B3FBF7F604
:1009A00007FB163341EA034106FB0EF38B4208D9DD
:1009B0001CEB010106F1FF3816D28B4214D9023E1E
:1009C0006144C91A46EA004638E72E46284605E73C
:1009D0000646E3E61846F8E64B45A9D2B9EB02080D
:1009E00064EB0C0E0138A3E74646EAE7204694E79D
:1009F0004046D1E7D0467BE7023B614432E73046D0
:100A000009E76444023842E7704700BF684620F0B7
:100A100007018D46FEE700BF0B480C4A904208B51F
:100A200003D0121A0A4916F061F90A480A4A90429C
:100A300003D0121A002116F081F905F0C1FB16F05F
:100A400021F900F0C7F8FEE7000000247C0700242D
:100A500040A801088007002418650524704700BFDE
:100A6000704700BF704700BF704700BF12B3013A24
:100A70002DE9F0410C460025DFF8488056080E4F5E
:100A800098F800100D4815F0D1FA0B4887ED010ACF
:100A900015F0BCFB0A4801F00DFB2246AE4284ED86
:100AA000010A05F1010504F1080482ED000AE7D10D
:100AB000BDE8F081704700BFCC0700249C070024EC
:100AC000F8070024EDF704242DE9F043002385B056
:100AD00000F118064FF00A0804464FF05E090D4673
:100AE0008DF80D30CDF80080012390F82C101746BA
:100AF000304603AA8DF80C9003F0BCFFCDF80080BF
:100B00000DF10B0294F8303094F82C10002818BF27
:100B100043F00103304684F83030012303F0D2FF64
:100B200094F83030002818BF43F0010384F83030C7
:100B3000A5F17303072B01D94D4517D10A2303AA49
:100B400030468DF80C50009302238DF80D7094F808
:100B50002C1003F08FFF94F83030002818BF43F0BA
:100B6000010384F8303005B0BDE8F083022303AA06
:100B7000CDF80080304694F82C1003F07BFFCDF8C0
:100B8000008094F8303003AA94F82C10002818BF85
:100B900043F0010330468DF80C5084F830300223C6
:100BA0008DF80D7003F066FFCDF80080054694F8CF
:100BB000301003AA9DF80B303046002D18BF41F0CD
:100BC00001018DF80C908DF80D30022384F830105F
:100BD000BDE700BF2DE9F04FCC484FF07C554FF0FA
:100BE0000108CB4C2DED028B97B001F06FFB00217B
:100BF000C64810AF01F056FC0421C448BB4601F0C2
:100C000073FBC24801F06CFB0221C248B0EE408A7F
:100C100000F040FD02220021BE4800F055FD0321F6
:100C2000BC480DF1180900F057FE64219FEDBA0A87
:100C3000B84800F019FFB7EE007AB84800239FEDDE
:100C4000B80AC7EE087A06464560C560836180ED44
:100C5000048A80ED020AC0ED057A15F08DFC40F2A1
:100C60000113F0EE407A9FEDAF0A30463385C6EDB2
:100C7000077A86F8008086ED020A15F07DFCF0EE1A
:100C8000407A2046B0EE480A41467560C6ED077AC4
:100C900015F0D4F820469FEDA40A4146412615F0F0
:100CA0003DF920469FEDA10A022115F037F9A04B2E
:100CB000042120469FED9F0A236015F02FF9B0EE26
:100CC000480A9D4801F07EF8B5EE000A9A4801F006
:100CD000D5F9B5EE000A984801F0ACF99FED950AF8
:100CE000954801F0B7F99FED950A934801F0D4F9C2
:100CF000934B02229348196802F088FE924B02221D
:100D00009248196802F082FE042302228D4990481D
:100D100002F08CFE8E4803F091F8002002F09CFD5A
:100D2000DFF838E28B4CBC46CDF81490254604F130
:100D30001C0ABEE80F000FC79EE8030047F8040B2B
:100D400039802746BCE80F000FC59CE8030045F832
:100D5000040B298005460FCFA9E80F00BDF820300D
:100D60004FF01002C9F80050ADF83030BDF8223015
:100D70008DF83C200022ADF83230059B0E921F46C4
:100D800006900B9007910D910FCFAAE80F000BA9C9
:100D90008AF8005004F1180003F0D4FD94F83030C4
:100DA00080216322002818BF43F00103204684F805
:100DB0003030FFF789FE404605F00CF800225E2136
:100DC0002046FFF781FE94F814A094F815900A25A8
:100DD0004FF000085E2701230BAA00955E4894F8A7
:100DE0002C108DF82D808DF82C7003F043FE94F8B4
:100DF000302001230095404518BF42F0010294F8CD
:100E00002C10554884F8302006AA03F05BFE94F8B5
:100E1000302002230095404518BF42F0010294F8AB
:100E20002C104D4884F830200BAA03F023FE94F8D0
:100E3000302002230095404518BF42F0010294F88B
:100E40002C10454884F830200BAA8DF82C608DF8C2
:100E50002DA003F00FFE94F830309DF81820404587
:100E600018BF43F0010300958DF82D200BAA94F8CC
:100E70002C1084F83030022337488DF82C7003F0A2
:100E8000F9FD94F8302001230095404518BF42F049
:100E9000010294F82C10304884F830200BAA8DF809
:100EA0002D808DF82C7003F0E5FD94F8302001239F
:100EB0000095404518BF42F0010294F82C102648D6
:100EC00084F8302006AA03F0FDFD94F830200223B8
:100ED0000095404518BF42F0010294F82C101E48BE
:100EE00084F830200BAA03F0C5FD94F83030721C52
:100EF0000095404518BF43F0010394F82C108DF87D
:100F00002C200BAA84F830302AE000BFF0F704242C
:100F10009C07002484F80424CDCC8C3FCC0700240B
:100F20000000C8420000DC43CDCC4C3DCDCCCC3DD4
:100F30003333333FCDCC4C3EF80700240AD7233C53
:100F4000309E010808F70424349E01085CF704244D
:100F500008F80424B0F70424C8F704246CF8042427
:100F60000223C44802368DF82D9003F083FD94F8D7
:100F7000302002239DF81810F6B2404518BF42F009
:100F8000010200958DF82D1084F830200BAA94F8FA
:100F90002C10B8488DF82C7003F06CFD94F83030AC
:100FA000404518BF43F00103592E84F830307FF4D8
:100FB0000EAF01222B21B048FFF786FD01222C2124
:100FC000AD48FFF781FD2D21AB480E22FFF77CFDD8
:100FD00042462E21A848FFF777FD01222F21A6487F
:100FE000FFF772FD05223021A348FFF76DFD312187
:100FF000A1480122FFF768FD424632219E48FFF7D3
:1010000063FD424633219C48FFF75EFD4246342192
:101010009948FFF759FD424635219748FFF754FD9F
:1010200042465B219448FFF74FFD10225C21924815
:10103000FFF74AFD20225D218F48FFF745FD394625
:101040008C228D48FFF740FD94F83030A3B184F82E
:1010500030800121894801F063F94FF4FA71874823
:1010600001F036F90021854801F05AF94FF4FA7180
:10107000824801F02DF9ECE70121804801F050F998
:101080007F497E487F4D01F027F97F4F7F4EDFF883
:101090003892DFF838A218E03B88D90753D5337867
:1010A000002B50D199F80030002B40F0D580DAF8B1
:1010B00000300133322BCAF8003000F3AE802B88A9
:1010C0000A216E483B8001F003F90121704802F0CB
:1010D000CBFEB7EE008AF0EE007A00216C48F3EE0A
:1010E000048AA0EE278A02F0BFFEDFED6A7A6A4822
:1010F000E0EE278AB0EE480AFCEEE87ACDED057AFC
:101100009DF8141000F0B0FC0A220223CDF800B0C4
:101110005848CDE901320123002294F82C1003F045
:10112000F9FC94F83030BDF84020002818BF43F097
:101130000103D00784F83030C2F30B032B80ABD40B
:101140003378002B41D001234FF00A08CDF800B0CE
:101150001E224848CDE90138337094F82C1003F072
:10116000D9FCCDF80880CDF800B0012394F83020E8
:101170009DF84080002818BF42F001023D4884F8E5
:10118000302002220192042294F82C1003F0C2FCB9
:1011900094F83030BDF840204FEA8801002818BF8D
:1011A00043F001033C4884F8303000F099FB3B4B9E
:1011B0003B4883ED000A80ED020A15F0DDF9384A5C
:1011C0002B8882ED070ADA0702D43B88DB077FD43D
:1011D0003378002B3FF466AF99F8003093B3314871
:1011E00002F02CFB2D4B304893ED006A2F4BB7EEED
:1011F000C66A93ED007A53ED015AB7EEC77AB7EE9F
:10120000E55A8DED026B53EC152B8DED007B02F052
:1012100015FB244802F012FB51E7254802F00EFBB3
:10122000B7EEE87A234853EC172B02F007FBB7EE32
:10123000C87A214853EC172B02F000FB0023CAF8B0
:1012400000303CE71D4802F0F9FA1D4802F0F6FABA
:10125000012389F80030C2E71A4802F0EFFA174874
:1012600002F0ECFA124802F0E9FA002389F80030A3
:101270001DE700BFC8F70424B0F70424F0F70424E6
:101280006D0A0008E4F7042468F80424EDF7042448
:1012900008F804240000C84284F80424E8F7042471
:1012A000CC070024C49D0108C89D0108240305241F
:1012B000FC9D0108109E0108209E0108649D010804
:1012C000B89D0108009E0108ECF7042464F804248A
:1012D00000230248337000F0EFFB79E784F8042420
:1012E00038B540485A21404B002401253F4A196136
:1012F0000161C1624FF481719A60998205628260D6
:10130000426241613A4A3B49C3E90045C0E90045B0
:10131000C0E9064415F036F937484FF60B736FF005
:10132000F411334A44610462836544660467C0E98A
:101330000041C0E90211C0E90A343049C0E90C4457
:10134000C0E90F34C0E91144C0E9174415F01AF997
:101350002B4A02F1A80500210B24FF20A2F13C0337
:1013600002F8504C42F84C1C02F84F0C42E91211A2
:10137000143300240B20FF219A4243F8104C03F849
:10138000140C03F8131C43E90344F1D15432AA426C
:10139000E1D11C4800F0EEF8154A1B49194815F038
:1013A000F1F8134A19491A4815F0ECF8194800F0F9
:1013B000EFFC0F4A1849174815F0E4F817480023C6
:1013C00017498485036043608160C36001614161A6
:1013D0008161C36103624362054A1249BDE8384036
:1013E00015F0D0B8B0F704246CF804240108010902
:1013F00000000024690A0008F0F704245D0A0008D0
:1014000058F7042484F8042475160008650A0008B7
:10141000CC070024F8070024C11D00089C07002405
:10142000000080BF610A000838B5134D044600F57E
:10143000E27CAE46BEE80F00ACE80F00BEE80F004D
:10144000ACE80F00BEE80F00ACE80F009EE80F000C
:101450008CE80F0005F14001802204F5017015F0C1
:1014600045FC4FF4807205F1C00104F5217015F0C0
:101470003DFC204638BD00BF949A0108704700BF6C
:101480000129017003D002290AD029B170478022B6
:101490000021443015F052BC4022043015F04EBCFF
:1014A0004FF480720021C43015F048BC0378012B42
:1014B00010B504462DED028BB0EE408A07D0022B0A
:1014C0003AD0FBB19FED2A0ABDEC028B10BD00F1B2
:1014D00048037C2200F14401184615F015FC04F184
:1014E000C40203469FED220A84ED118A01E0B3ECA9
:1014F000018AD3ED6F7A9A42A7EE880AF7D1BDEC44
:10150000028B10BD00F108033C22011D184615F0A6
:10151000FBFB04F1440203469FED150A84ED018AAA
:1015200001E0B3EC018AD3ED6F7A9A42A7EE880A04
:10153000F7D1BDEC028B10BD00F1C803FC2200F115
:10154000C401184615F0E0FB04F5E27203469FED76
:10155000080A84ED318A01E0B3EC018AD3ED6F7A99
:101560009A42A7EE880AF7D1BDEC028B10BD00BFEE
:101570000000000002232DE9F04F044687B000F878
:10158000043BFFF751FF04F56270FFF74DFF04F2D3
:101590000C70FFF749FF04F5296200210723344D41
:1015A00004F6083A116046F2015284F8953A642331
:1015B000A4F8962A04F65C3284F8983A04F6783156
:1015C000019205F1540304F6BC3205F1B400029314
:1015D00005F11C09039105F13807059005F1700B21
:1015E000049205F1840E04F6243804F5346604F6FA
:1015F0008C3C0FCDAAE80F0095E807008AE80700A9
:10160000B9E80F00A8E80F0099E8070088E807008C
:101610000FCF0FC697E80700029B019D86E80700E1
:101620001E462F460FCE0FC796E8070087E8070033
:10163000BBE80F00039D0FC5DBF800302B60BEE850
:101640000F00ACE80F00BEE80F00ACE80F009EE80A
:101650000F008CE80F000598049D06460FCE0FC5BD
:1016600096E8030085E80300204607B0BDE8F08F48
:10167000549C010810B5044600F20C70FFF7FEFE02
:1016800004F56270FFF7FAFE201DFFF7F7FE204613
:1016900010BD00BF10B504460430FFF7F1FE022173
:1016A00004F56270FFF7ECFE022104F20C70FFF704
:1016B000E7FE002304F69C2004F52A61042203605F
:1016C0000B6084F8942A10BD70B507EE901A064698
:1016D0002DED028B062A24D8DFE802F0237D9FC17E
:1016E000E3045F0000F6D8240C2100F68C3300F6EA
:1016F000BC3E224680F8951AD3F800C0103353F848
:101700000C5C103253F8080C53F8041C734542F873
:1017100010CC42F80C5C42F8080C42F8041CEBD1E7
:1017200020E0D0F8103B06F6D824D0F8081BD0F8FB
:101730000C2B0720C6F8E03AD6F8143BC6F8D81AA6
:10174000C6F8DC2AD6F8181BD6F81C2BC6F8E43AE3
:10175000D6F8203B86F8950AC6F8E81AC6F8EC2AAF
:10176000C6F8F03AF8EE677A0025B2EE087AC7EECE
:10177000878A94ED008A0135B0EE000AF0EE680A1F
:1017800014F07AFF28EE000AA4EC010A96F8953AC4
:10179000AB42EEDCBDEC028B70BDD0F8BC2B06F684
:1017A000D824D0F8C03B0620D6F8C45BD6F8C81BB6
:1017B000C6F8D82AC6F8DC3AD6F8CC2BD6F8D03BF7
:1017C000C6F8E82AC6F8E05A86F8950AC6F8E41A78
:1017D000C6F8EC3AC6E7D0F82C3B06F6D824D0F889
:1017E000241BD0F8282B0720C6F8E03AD6F8303B67
:1017F000C6F8D81AC6F8DC2AD6F8341BD6F8382B27
:10180000C6F8E43AD6F83C3B86F8950AC6F8E81ADA
:10181000C6F8EC2AC6F8F03AA4E7D0F8483B06F63A
:10182000D824D0F8401BD0F8442B0720C6F8E03A63
:10183000D6F84C3BC6F8D81AC6F8DC2AD6F8501BA6
:10184000D6F8542BC6F8E43AD6F8583B86F8950AF1
:10185000C6F8E81AC6F8EC2AC6F8F03A82E7D0F8DB
:10186000643B06F6D824D0F85C1BD0F8602B072028
:10187000C6F8E03AD6F8683BC6F8D81AC6F8DC2AAB
:10188000D6F86C1BD6F8702BC6F8E43AD6F8743B41
:1018900086F8950AC6F8E81AC6F8EC2AC6F8F03AAF
:1018A00060E7D0F8783B052106F6D824C0F8D83A8E
:1018B000D6F8803BD0F87C0BD6F8842BC6F8E03AFB
:1018C000D6F8883BC6F8DC0A86F8951AC6F8E42AEA
:1018D000C6F8E83A46E700BF80F8941A704700BFA0
:1018E0002DE9F0478A1A044600F69C23043004F5DB
:1018F0002A672DED028B10F8041C511A07EE901A7E
:10190000B8EEE70A83ED000AFFF7D0FD87ED000A85
:1019100094F8963A08EE103AB8EEC88AB4EEC80ABF
:10192000F1EE10FA11D594F8942A012304F6D82484
:101930009340D4ED007A00EE103AB8EEC00A20EEE3
:10194000270ABDEC028BBDE8F08794F8973A07EEC2
:10195000903AF8EEE77AB4EEE70AF1EE10FA5ADCC4
:1019600094F8953A002B50D0002504F5296605E03F
:1019700094F8962A08EE102AB8EEC88A07EE105A94
:1019800007EE903A94F8983A05F10108F8EEE77AF4
:10199000D6ED000AB8EEC70A08EE903AF8EEE88AEB
:1019A00080EE270A14F068FE94F8953A07EE108A44
:1019B000D6ED000A07EE903A94F8969A94F898AA11
:1019C000B8EEC77AA8EE808AF8EEE77A87EE270AA3
:1019D00014F052FE97ED007AB4EEC87AF1EE10FAE8
:1019E0000EDB07EE90AAF8EEE76A07EE909AF8EEA3
:1019F000E77AE6EE807AB4EEE77AF1EE10FA20D4D8
:101A000094F8953A45464345B2DCBDEC028B9FED18
:101A1000150ABDE8F08794F8942A012394F8950AF2
:101A2000934000F2B52000EE103A04EB8004B8EECB
:101A3000C00AD4ED007ABDEC028B20EE270ABDE887
:101A4000F08794F8942A012305F2B625934004EB1D
:101A5000850400EE103AD4ED007AB8EEC00A20EE0C
:101A6000270A6EE70000000010B5044600F20C7073
:101A70002DED028B82B008EE101AFFF717FDF0EE85
:101A8000407A04F52963B8EE480A04F56270C3EDA4
:101A9000007AFFF70BFDFCEEC07A94F8962ACDEDA4
:101AA000017A9DF804309A1A84F8973A84F8982AB3
:101AB00002B0BDEC028B10BD00F52A6300F69C203D
:101AC0001B680360704700BFF8B50546A7480E467F
:101AD000284405F500342DED088B14F00FFBA448C5
:101AE000F0EE409A284414F009FBD4ED1C7AF0EE95
:101AF00040AAF4EEE97AF1EE10FA00F3F580236AD9
:101B0000D4ED205A94ED1A7AD4ED1D7AF4EEEA7AE7
:101B1000F1EE10FA00F3A580D4ED216AD4ED1B7A22
:101B2000D4ED1E8A94ED1F8A37EE687A94F82C2043
:101B300077EEC87AC4ED1C9AC4ED1DAAE7EE258A9B
:101B4000A7EEA68AC4ED1E8A84ED1F8A2AB1F7EE9D
:101B5000007A77EEE99A77EEEAAA013B9FED85BA23
:101B600009EE103A29EE8B0AB8EE499A69EE299AE5
:101B700029EE2A9AC4ED169A78EEA98A84ED179A6E
:101B800038EE098A14F00CFFB0EE40AA2AEE8B0A58
:101B900084ED14AA14F004FFBDEEE87A6A6843F6F7
:101BA000FF73FDEEC87A84ED150A05EB8201D6F8C5
:101BB00000C017EE104A1A44C1F80CC017EE900A84
:101BC00005F580319C42C2F30D02F8EEC75A28BFDA
:101BD0001C4698426A60B8EEE76A0E6928BF18464C
:101BE00078EEE58A2244334401EB860638EE468AD5
:101BF000C3F30D03C6F818C0F0EE406A9FED5E0A0D
:101C00000B610344C5ED008AAC604861C2F30D006E
:101C1000013281ED038A05EB8000C2F30D0290EDE5
:101C2000037A581C05EB8202C3F30D0392ED036A9D
:101C3000C0F30D0201EB830336EE476A01EB82022B
:101C4000D3ED067AA8EE867A92ED066A36EE676ADA
:101C5000E8EE067AAAEE070ABDEC088BA6EEA70A04
:101C6000F8BD464F46493A689FED465A82EA4232ED
:101C7000D4ED193A9FED446A82EA5242DFED434ABD
:101C800082EA421282EA423080EA504080EA401002
:101C90003860A1FB027CA1FB00714FEADC1CC90982
:101CA000CCEB0C2CC1EB0121A2EB0C02411A07EE8C
:101CB000902AF8EEE76AC6EE857A06EE901AF8EEFC
:101CC000E66A86EE854A06EE903AFBEEEF6A67EE2C
:101CD000A37A67EEA67AF0EE466AC4ED1B7AE4EECC
:101CE000246AC4ED216A1BE7244F25483A68DFEDDA
:101CF000256A82EA4232236A94ED194A82EA524204
:101D00009FED226ADFED205A04EE903A82EA4212F9
:101D1000FBEEEF4A82EA423181EA514181EA411108
:101D20003960A0FB027CA0FB01704FEADC1CC009FB
:101D3000CCEB0C2CC0EB0020A2EB0C02081A07EE37
:101D4000902AF8EEE77A87EEA67A07EE900AF8EE88
:101D5000E77A87EEA65A27EE047A27EE247A84EDF6
:101D60001A7AE5EE065AC4ED205ACDE6300002009C
:101D700040000200DB0F4940000000000400002486
:101D80008180808000007F4317B751396F12833AFA
:101D9000DFF828C04FF07C520649C0F800C04FF071
:101DA000000C816004494260C260C0F810C041610B
:101DB000704700BFCDCCCC3EACC5A73800803B47B8
:101DC000704700BF2DE9F04F0646894A00212430B4
:101DD00006F53838874D002406F59C2735442DED4F
:101DE000028B86ED000A83B0B0EE408A14F0A6FFA5
:101DF0000121814B4FF07C50804A3162434408F608
:101E00002461F461086088F8284E87F8504EDA6142
:101E100083ED0A8A07EE904A0134B0EE000AF8EE2C
:101E2000E70AF2EE087AC0EEA70A14F025FC0C2CA3
:101E3000A5EC010AEED108F62C63DFF8F4A1002529
:101E40004FF0000903F500346D484FF0010BB24428
:101E50004FF48032494625653044009314F06EFFFC
:101E60009FED680A5046C8F8309EC8F834BEE56356
:101E700084ED0D8A14F032F9634A656549463244AF
:101E80006248634D304415444FF4803214F056FFDD
:101E900006F5783228469FED5B0AC2F83C9EC2F8F0
:101EA00040BE5C4A84ED118AE26414F017F907F62B
:101EB0008C624FF4804048F22201D2ED007A564AFB
:101EC000B0EEE77AC7F84C0EF5EEC07A87F858BE48
:101ED00087F850BEFCEEC76AC4ED187AF1EE10FA2E
:101EE000CDED016A9DF80430A2FB03024FEAD20255
:101EF00002EB4202A3EB8203009A51FA83F302EB56
:101F00008303D3ED006A01DC87F8589EF2EE085A8D
:101F1000394ABFEE000A9FED416A42449FED405AA4
:101F2000C7EE257A92ED0A7AFCEEE77ACDED007ADB
:101F30009DF80030013307EE903AF8EEE77AA6EE0E
:101F4000A70A20EE070A20EE060AB4EEC50AF1EE53
:101F500010FA48D482ED070A504614F0BFF8264B19
:101F60002846434493ED070A14F0B8F897F8503E1A
:101F700013B1002387F8503EB7EE007A1E4B0022C3
:101F8000284D434407F6E464C7EE087A35445A66A0
:101F90004FF07C539FED240A284663600026E360DF
:101FA000A26184ED048A84ED020AC4ED057A14F07E
:101FB000E3FADFED1E7A40F20113284684ED070AAA
:101FC000B0EE670A87F8E46EA7F80C3FC4ED027A1A
:101FD00014F0D2FA84ED070A87F8E46E03B0BDEC82
:101FE000028BBDE8F08FB0EE450A82ED075AB3E7E9
:101FF00000EE0200B4EE04002C0E02000000A0402F
:1020000038EE0200000048422CEE020044EE0300CD
:1020100040000200DB0F4940ABAAAAAA00008038AA
:1020200000000000E4EE04000000C842CDCC4C3EAD
:102030005CEE04009FED057ADFED057A80FE070A6D
:1020400080FE670A80ED020A704700BF00000000B2
:10205000A4707D3F074BF7EE007A9FED077A0344AB
:1020600080FE070A80FE670A80ED030A83ED000AFE
:10207000704700BF24EE020000000000F7EE007A77
:102080009FED047A80FE070A80FE670A80ED010A50
:10209000704700BF0AD7A33CF7EE007A9FED047AA1
:1020A00080FE070A80FE670A80ED040A704700BFC1
:1020B00000000000F0B57A4A87B0D0ED055A04461A
:1020C00092ED007A4BF680358DED030AF7EE006A4B
:1020D00090ED010AD0ED007A30EE476AC36971498C
:1020E00036EEC00A704EA5EE867A264467EE277A51
:1020F00082ED007ABDEEE77A17EE102AB8EEC77AC5
:10210000134477EEC77AA1FB0302920A05FB123251
:102110000133A1FB030104EB82023046890A92EDF0
:10212000097A05FB113304F59C2504EB830305F6BE
:10213000E467D3ED096A87ED020A76EEC76AA7EE77
:10214000A67A8DED047A14F017FA304687ED070A67
:1021500014F05CF8D4ED047A544B04F5383720EED3
:10216000270A534E2344264430EE000AD3ED187A52
:10217000B4EE670AF1EE10FA03D195F8503E002B49
:1021800062D0F0EEC07A4B4AB2EE086A07F62C61D4
:10219000BFEE007ADFED485AB5EEC00AC7EE866A98
:1021A000FCEEE77AF1EE10FACDED017A9DF80430FD
:1021B000A2FB03024FEAD20202EB4202FCEEE67AF5
:1021C000A3EB820348F22202CDED027A52FA83F3A6
:1021D0009DF8082001EB830302F1010293ED006AF0
:1021E00001F5003307EE902AD5F84C2ED3ED0A6A9C
:1021F000F8EEE77A83ED180AA6EE277A67EE267ADC
:1022000007EE102ACCBF01220022B8EE477A85F8EB
:10221000582E87EE870AB4EEE50AF1EE10FA3AD4AA
:1022200083ED070A2548304413F058FF244B254816
:102230003B44304493ED070A13F050FF95F8503EAD
:1022400013B1002385F8503E04A93046FFF73CFC4B
:102250001D4805AA03A920448DED050A13F06CFF63
:10226000E1694BF67F33D4ED026A9DED057A4BF6BA
:1022700080300B44DDED037A0A4A04EB8101E6EE7F
:10228000877AA2FB0352920A00FB1233C1ED097A4E
:10229000E36107B0F0BDB0EE650AC3ED075AC1E7D0
:1022A00058040524F1197605E4EE04002CEE040030
:1022B0002CEE0200ABAAAAAA000000003000020027
:1022C0002C0E02004000020024EE0200704700BF06
:1022D000084603F07FBD00BF143001F00DBA00BF07
:1022E000143001F005BA00BF38B500F114050446FA
:1022F0002DED028B284601F0EDF9284601F0F8F9A2
:102300002846B0EE408A01F0E1F9D0ED007AF8EE0F
:10231000677A88EE277ABDEC028B84ED1B7A38BD94
:10232000283002F08BB900BF10B540F203338EB0F5
:1023300000244FF60B7240F20341ADF8083009A8B3
:102340000123ADF81020ADF824202246ADF80C1082
:102350000094029907940C94CDE90544CDE90A4410
:1023600002F07AF804A8012322460399009402F0AF
:1023700073F809A802F056F910B901200EB010BD8B
:1023800004A802F04FF9A0420CBF022020460EB074
:1023900010BD00BF2DE9F04103239AB04FF00108B2
:1023A00000254FF60B740746CDE91438394BADF8CC
:1023B0004C40CDE91053A3F19F63A3F57D43CDE9D4
:1023C00016581293FFF7B0FF4045064623D0022867
:1023D00042D040F60132304B07F158000BACADF85B
:1023E0002C200B991895CDF86480CDF84A3000F078
:1023F000DBF810A907F1700003F0BEFA274B0FCBF2
:1024000084E80F003A6F214607F1140001F026F925
:102410001AB0BDE8F08110231F4A06A906908DF876
:1024200028300BAC1E4BCDF84A2007930295CDE91E
:102430001805CDE9080502A802F084FA0823029ADB
:1024400003A92046ADF80C608DF80E500496059354
:102450000B9500F0E9F8CCE740F60133ADF82C40DD
:1024600000200BACADF8183001210B4B4246009513
:10247000CDF84A302B460E95CDE918010699204635
:10248000CDE90C5501F0E8FF2946204602F0D6F8C8
:10249000AFE700BF0402040404060403209D010802
:1024A0000704010B2DE9F04704462DED028B82B0A5
:1024B000002949D0012140F2011200230091ADF81A
:1024C00004208DF80630354A0127354B04F1040904
:1024D000344904F13C08626040F20272A36040F6A5
:1024E0000663E16004F1280A2285A3872782E76258
:1024F000276403F01BFE054603F06EFC69460646A2
:1025000050BB4DB304F150008DF8067003F090FD00
:10251000072D3ED104F114052046FFF73BFF284666
:1025200001F0E6F82846B0EE408A01F0CFF8D0ED91
:10253000007AF8EE677A88EE277A84ED1B7A02B08B
:10254000BDEC028BBDE8F08740F2011300918DF8DD
:102550000610ADF80430B6E704F1500003F068FD52
:10256000072D13D04946204602F012FE0EB9002D69
:10257000D0D15146504601F0ABFD4046414601F0F6
:10258000A7FD04F1120000F079F9C3E7002EF0D1A5
:10259000C0E74946204602F0FBFDBBE705080509F8
:1025A00005070506050A060630B585B00025044670
:1025B0000122ADF80C102B460399009501F04CFF59
:1025C0000121204602F03AF8012003F003FC2946DD
:1025D000204602F033F8012003F0FCFB01212046E5
:1025E00005B0BDE8304002F029B800BF10B5C2F315
:1025F000002384B00C46017C8DF80D2043EA440290
:10260000FA2402238DF80C2003AA009402F032FA77
:1026100018B10124204604B010BD04460A2003F07E
:10262000D9FB204604B010BD034670B543F8042B17
:10263000044684B007C983E80700A37983B91A2147
:102640000B461E22FA2523742046ADF80C200223E7
:1026500003AA009502F00EFA28B1012004B070BD63
:102660001B210B46EDE70A2003F0B4FB4FF4B852F0
:1026700000950223ADF80C20204603AA217C02F02D
:10268000F9F90028E9D10A2003F0A4FB41F2027213
:1026900000950223ADF80C20204603AA217C02F00D
:1026A000E9F90028D9D10A2003F094FB042200950F
:1026B0000223ADF80C20204603AA217C02F0DAF9AF
:1026C0000028CAD10A2003F085FB062200950223C8
:1026D000ADF80C20204603AA217C02F0CBF900289B
:1026E000BBD10A2003F076FB41F2082200950223B9
:1026F000ADF80C20204603AA217C02F0BBF900288B
:10270000ABD10A20064603F065FB0095022303AA1D
:10271000217C2046ADF80C6002F0ACF900289CD179
:10272000304603F057FB009522790C232046002AFF
:102730008DF80C3003AA4FF0020314BF622142212E
:102740008DF80D10217C02F095F9002885D13046D6
:1027500003F040FB2279D4E902310B43DBB20AB922
:1027600043F0400362790AB143F020030E22FA25B8
:102770008DF80D302046009502238DF80C2003AA19
:10278000217C02F077F900287FF467AF0A2003F07C
:1027900021FB102200950223ADF80C20204603AA4D
:1027A000217C02F067F900287FF457AF0A2003F07C
:1027B00011FB122100950223ADF80C1003AA217C15
:1027C000204602F057F900287FF447AF0A2003F0B3
:1027D00001FB012209212046FFF708FF003818BF3E
:1027E00001203BE7F0B5102387B0234C01220025E0
:1027F0000126002702A920460195CDE902234FF4C6
:102800008052CDE904670CF0C1FD642004F014FA95
:1028100002A94FF480522046CDE904670226102712
:10282000CDE902670CF0B2FD0322102302A9204675
:10283000CDE9022300230422CDE904234FF4805282
:102840000CF0A4FD40F23223042202A901931023CC
:102850002046CDE90223019A012305924FF48052CC
:1028600004930CF093FD40F6060120460CF0AEFDFB
:10287000284607B0F0BD00BF640405241C4B0022AD
:102880001C494FF0400C30B5054689B00220596014
:1028900007219A601A620124DA620A224FF4006E5C
:1028A000DC6006922022CDE9000104200821CDE958
:1028B000020103201021CDE9040108206946C3E983
:1028C00004024FF4C072181DC3E906C24FF48052CF
:1028D000C3E909E20CF030FD38B92846FFF782FF62
:1028E000003818BF012009B030BD204609B030BD06
:1028F0006004052440410052614A0021D0B51368AC
:102900008EB00A91002B40F0B9805E4B01214FF64A
:1029100083700C2411600221D3F8D42000260327F1
:1029200042F48052C3F8D420D3F8D42002F4805269
:102930000092009AD3F8E02042F01002C3F8E020A1
:10294000D3F8E02002F010020192019AD3F8E020BF
:1029500042F04002C3F8E020D3F8E02002F0400249
:102960000292029AD3F8E02042F00802C3F8E02075
:10297000D3F8E02002F008020392039AD3F8E02093
:1029800042F48072C3F8E020D3F8E02002F48072B1
:102990000492049AD3F8E02042F08002C3F8E020C9
:1029A000D3F8E02002F080020592059AD3F8E020E7
:1029B00042F02002C3F8E020D3F8E02002F0200229
:1029C0000692069AD3F8E02042F00402C3F8E02011
:1029D000D3F8E0300C9403F0040307930323079A21
:1029E0000B93CDE9080108A9274806F0B9FA48F287
:1029F0003712022308A925480C94CDE90823CDE914
:102A00000A6706F0ADFA4CF20372022308A92048C7
:102A10000C94CDE90823CDE90A6706F0A1FA40F24B
:102A2000FF62022308A91B480C94CDE90823CDE9D5
:102A30000A6706F095FA4FF60C72022308A91648A9
:102A40000C94CDE90823CDE90A6706F089FA4FF620
:102A50003F02022308A911480C94CDE90823CDE9CF
:102A60000A6706F07DFA2022022308A90A480C947E
:102A7000CDE90A67CDE9082306F072FA0EB0D0BDA1
:102A80005C04052400440258001002580018025843
:102A9000000C025800200258001C02580014025872
:102AA0002DE9F04FDFF8108406460D46144608F174
:102AB00018002DED028B89B000AF03F055F8D8F85F
:102AC000183073B3D8F81C30D8F80490002B436941
:102AD0000BBF4FF0080A4FF0100A4FF0020B4FF0F7
:102AE000040BB9F1000F2AD0A200EA46012B02F133
:102AF000070222F00702ADEB020D6846ADEB020DB6
:102B0000694600F03F81022B00F0D680002B6FD089
:102B10002246C847D5462437BD46BDEC028BBDE8EA
:102B2000F08FD8F81C30002BF5D0D8F804904FF077
:102B3000080A4FF0020B4369B9F1000FD4D1FB61D1
:102B4000D8F80030BB61002BE5D0D54803F07EF803
:102B50006B46BBF1020F786108EE103AFB6900F09A
:102B600083816A465146A2EBC40295466200EA465A
:102B7000B2FBFBF2AAEBC40085460AEB8200EE46EC
:102B8000F861ADEB010DF8690EEB820CC7F810C0CF
:102B9000EC46ADEB010D00EB8201CCF80400CCF863
:102BA000081001EB82013869E946CCF80C1000EB03
:102BB0008201CCF800A001EB8202C9E900E0C9E97A
:102BC0000212012B00F06483022B00F06C82002BB8
:102BD00000F08081620849466046BB69984718EE5C
:102BE000103A24379D46BD46BDEC028BBDE8F08F00
:102BF000002C8DD01A46D8ED0C6A9FEDB27A84462F
:102C0000331D36F922E00CF1080C07EE90EA33F997
:102C100022E00232F8EEE77A944267EE877A67EEB6
:102C2000A67A4CED027A07EE90EAF8EEE77A67EEC4
:102C3000877A67EEA67A4CED017AE2D8F9612246EE
:102C4000C847984ED8ED0D6A0020F9692B1D9FEDFD
:102C50009E7A9FED9E6ADFED9E5A22E0F4EEC67AE0
:102C6000F1EE10FAC0F2C88447F6FE72D1ED017A97
:102C700045F8202066EEA77AF4EEC77AF1EE10FA56
:102C800040F2F080F4EEC67AF1EE10FAC0F2D5848C
:102C900047F6FE7243F820200230083184427FF666
:102CA00039AFD1ED007A66EEA77AF4EEC77AF1EE8D
:102CB00010FAD3D83246D9E7002C3FF429AFD8ED2B
:102CC0000C6A84469FED787A0022331D8E4656F8B2
:102CD00022100CF1080C07EE901A53F82210023261
:102CE000F8EEE77A944267EE877A67EEA67A4CEDC3
:102CF000027A07EE901AF8EEE77A67EE877A67EEC7
:102D0000A67A4CED017AE2D871462246C7F81CE05B
:102D1000C847664ED8ED0D6A0020F9692B1D9FED5E
:102D20006A7A9FED6A6ADFF894C120E0F4EEC67A11
:102D3000F1EE10FAC0F279843246D1ED017A45F80D
:102D4000202066EEA77AF4EEC77AF1EE10FA40F290
:102D50008780F4EEC67AF1EE10FAC0F25E84324655
:102D600043F820200230083184427FF6D3AED1ED03
:102D7000007A66EEA77AF4EEC77AF1EE10FAD5D8AB
:102D80006246DAE7002C3FF4C3AED8ED0C6A864603
:102D90009FED477A4FF0000C331D56F82C200EF1B2
:102DA000080E82F40002A2F5000207EE902A53F802
:102DB0002C200CF1020CF8EEE77A82F40002644554
:102DC000A2F5000267EE877A67EEA67A4EED027AE8
:102DD00007EE902AF8EEE77A67EE877A67EEA67A32
:102DE0004EED017AD9D8F9612246C847314ED8ED67
:102DF0000D6A0020F9692B1D9FED337A9FED336A30
:102E0000DFF8BCC01FE0F4EEC67AF1EE10FAC0F2B3
:102E1000FC833246D1ED017A45F8202066EEA77A90
:102E2000F4EEC77AF1EE10FA18D9F4EEC67AF1EEA4
:102E300010FAC0F2DA83324643F82020023008311B
:102E400084427FF667AED1ED007A66EEA77AF4EEA3
:102E5000C77AF1EE10FAD6D86246DBE76246EBE7B6
:102E600062467DE7324615E7A100D6466208073183
:102E700021F00701ADEB010DEA46ADEB010D69460E
:102E8000ADEB0E0D0AEB8200EC46ADEB0E0D01EB47
:102E90008202F861E946CCE900A0C9E9001290E697
:102EA000B40405240280FFFF000000300082FF7F91
:102EB0000000003482FF7F0098040524007E00801B
:102EC0007E0080FF0000003804FF7FBF04FF7F3FCB
:102ED00000FEFF46002C00F0C982BBF1020FD8F8BB
:102EE000242000F0FA827969C7F8049002EB810E81
:102EF0005FED0C5A8A00DCF808100EF104007A61CC
:102F00001A46DCF80C303B61331DD7F810903D6158
:102F1000FD69C7E902CB8C46834636F92210D8ED0D
:102F20000C7A06EE101A33F9221006EE901A3EF9CA
:102F30002210B8EEC66A07EE101AF8EEE66A3BF900
:102F40002210B8EEC77A26EE256A66EEA56A27EE4D
:102F5000257A26EE276A66EEA76A27EE277A07EE1D
:102F6000901A51080232F8EEE77A0AEB8100944297
:102F700080ED006A05EB810067EEA57AC0ED006A7E
:102F80000CEB810009EB810180ED007A98ED0C7A61
:102F900067EE877AC1ED007ABFD8D7F804903D6913
:102FA000D7E902CB60466208BB6949469847D8F822
:102FB0002C307A69D8ED0D6A1A441FED3D7A1FED69
:102FC0003D6A2B1D904602F1040A5FED3F5A002234
:102FD000A84ED9E900EC51E0F4EEC67AF1EE10FA11
:102FE000C0F2C78247F6FE7045F822000CEB0100E4
:102FF000D0ED007A66EEA77AF4EEC77AF1EE10FA19
:103000004BD9F4EEC67AF1EE10FAC0F2BA8247F666
:10301000FE70BBF1020F43F822002BD0D9F8080054
:103020000844D0ED007A66EEA77AF4EEC77AF1EEA6
:1030300010FA36D9F4EEC67AF1EE10FAC0F2CD826B
:1030400047F6FE7048F82200D9F80C000144D1ED93
:10305000007A66EEA77AF4EEC77AF1EE10FA1ED97E
:10306000F4EEC67AF1EE10FAC0F2AF8247F6FE71C6
:103070004AF82210023294427FF6B1AD51080EEBAD
:1030800081008900D0ED007A66EEA77AF4EEC77A67
:10309000F1EE10FAA0D83046A6E73046B9E731463F
:1030A000E6E73046CEE7002C00F0E081BBF1020FEE
:1030B000D8F8243000F0E1817A69DCF8081003EBDD
:1030C000820EC7F804909300DFED6B5A0EF10400F6
:1030D00000227B61DCF80C303B61331DD7F8109087
:1030E0003D61FD69C7E902CB8C46834656F8221044
:1030F000D8ED0C7A07EE101A53F82210B8EEC76A12
:1031000007EE101A5EF82210F8EEC76A07EE101AE2
:1031100026EE256A5BF82210B8EEC77A66EEA56A3D
:1031200026EE276A27EE257A66EEA76A27EE277A2B
:1031300007EE901A51080232F8EEE77A0AEB8100A6
:10314000944280ED006A05EB810067EEA57AC0ED40
:10315000006A0CEB810009EB810180ED007A98EDAB
:103160000C7A67EE877AC1ED007ABFD8D7F8049061
:103170003D69D7E902CB60466208BB69494698477A
:10318000D8F82C307A69D8ED0D6A1A449FED3E7A52
:103190009FED3E6A131D9246DFF8E4C00022FB61FA
:1031A0002B1D364ED9E9008E4EE0F4EEC67AF1EED4
:1031B00010FAC0F2FC81304645F822000EEB010007
:1031C000D0ED007A66EEA77AF4EEC77AF1EE10FA47
:1031D00049D9F4EEC67AF1EE10FAC0F2EF8130462A
:1031E000BBF1020F43F822002AD0D9F808000844A6
:1031F000D0ED007A66EEA77AF4EEC77AF1EE10FA17
:1032000035D9F4EEC67AF1EE10FAC0F2C981304633
:103210004AF82200D9F80C000144D1ED007A66EE9C
:10322000A77AF4EEC77AF1EE10FA1ED9F4EEC67A58
:10323000F1EE10FAC0F2AD813146F86940F8221083
:10324000023294427FF6CBAC510808EB8100890032
:10325000D0ED007A66EEA77AF4EEC77AF1EE10FAB6
:10326000A3D86046A8E76046BAE76146E5E760464E
:10327000CEE700BF0280FFFF000000300082FF7F2A
:10328000007E00800000003404FF7FBF04FF7F3F0A
:10329000002C00F0EB807A690021D8F82430C7F8C0
:1032A000109003EB820ED7F81C909300FD610EF195
:1032B00004021FED0C6A7B61331D154656F8212070
:1032C0004808D8ED0C6ABBF1020F82F40002A2F5A7
:1032D000000207EE902A53F8212082F40002B8EE93
:1032E000E77AA2F5000227EE067A07EE902A0AEBAB
:1032F0008002F8EEE77A27EE267A67EE867A82ED8C
:10330000007A09EB80024FEA800067EEA67AC2EDF0
:10331000007A27D05EF8212082F40002A2F5000294
:1033200007EE902A55F8212082F40002B8EEE77AE1
:10333000A2F5000227EE067A07EE902ADCF80820B4
:10334000F8EEE77A024427EE267A67EE867A82ED77
:10335000007A98ED0C7ADCF80C2067EE877A02444C
:10336000C2ED007A02318C42A8D8D7F8109060469E
:103370006208BB694946FD699847D8F82C307A69DC
:10338000D8ED0D6A1A441FED407A1FED406A131DF7
:103390009246DFF8C4C20022FB612B1DAB4ED9E977
:1033A000008E4EE0F4EEC67AF1EE10FAC0F2C5805F
:1033B000304645F822000EEB0100D0ED007A66EEB3
:1033C000A77AF4EEC77AF1EE10FA49D9F4EEC67A8C
:1033D000F1EE10FAC0F2BF803046BBF1020F43F8A5
:1033E00022002AD0D9F808000844D0ED007A66EE11
:1033F000A77AF4EEC77AF1EE10FA35D9F4EEC67A70
:10340000F1EE10FAC0F2AE8030464AF82200D9F848
:103410000C000144D1ED007A66EEA77AF4EEC77A8B
:10342000F1EE10FA1ED9F4EEC67AF1EE10FAC0F2FF
:103430008B803146F86940F82210023294427FF6C0
:10344000CEAB510808EB81008900D0ED007A66EE22
:10345000A77AF4EEC77AF1EE10FAA3D86046A8E78F
:103460006046BAE76146E5E76046CEE72246494650
:103470006046BB699847FFF7B2BBC7F810B000229F
:1034800098ED0C6A331DDFED726AD7F81CB07869CD
:1034900056F8221007EE901A53F82210B8EEE77A89
:1034A00007EE901A51080232F8EEE77A27EE267AF4
:1034B0000AEB810E94420BEB810167EEA67A27EEB0
:1034C000067A67EE867A8EED007AC1ED007ADFD853
:1034D0008300D7F810B07B614DE61A46C7F810B0EC
:1034E00098ED0C6A331DDFED5B6AD7F81CB0786984
:1034F00036F9221007EE101A33F9221007EE901A4F
:10350000B8EEC77A51080232F8EEE77A27EE267A4B
:103510000AEB810E94420BEB810167EEA67A27EE4F
:10352000067A67EE867A8EED007AC1ED007ADFD8F2
:103530008300D7F810B07B6134E5F0EE675AFEEEF9
:10354000E45A15EE900A34E7F0EE675AFEEEE45ABC
:1035500015EE901A6EE7F0EE675AFEEEE45A15EE9D
:10356000900A3AE7F0EE675AFEEEE45A15EE900A3A
:103570004BE767EEA57AFDEEE77A17EE900A00B208
:1035800032E567EEA57AFDEEE77A17EE900A00B213
:103590003FE5F0EE675AFEEEE05A15EE901A4CE663
:1035A000F0EE675AFEEEE05A15EE900A30E6F0EEC5
:1035B000675AFEEEE05A15EE900AFDE5F0EE675A06
:1035C000FEEEE05A15EE900A0AE667EEA57AFDEEE9
:1035D000E77A17EE901A09B24AE567EEA57AFDEE92
:1035E000E77A17EE900A00B22CE5F0EE675AFEEE8D
:1035F000E45A15EE902A1FE467EEA57AFDEEE77A0D
:1036000017EE902A12B2FFF731BBF0EE675AFEEECA
:10361000E45A15EE902AFFF7FDBBF0EE675AFEEE76
:10362000E05A15EE902AFFF79BBBF0EE675AFEEECC
:10363000E05A15EE902AFFF780BB67EEA57AFDEE03
:10364000E77A17EE902A12B2FFF724BB82FF7F00C1
:1036500000000030000000387E0080FF30B5184CBC
:10366000154685B0046004F1080EEC460FC98EE8DB
:103670000F00D4ED047AF5EEC07A8CE80F00F1EE7D
:1036800010FA1ADDB7EE006A94ED057A27EE277A74
:10369000C6EE276A84ED0D7AC4ED0C6A6DB1204642
:1036A00040F8185F02F060FA064903690020064AF4
:1036B0002162A262E36005B030BD012005B030BDDB
:1036C0009804052400200030000000300068083015
:1036D000704700BFB1F5807F03680A4628BF4FF4EA
:1036E0008072B1F5807F9A6094BF002001207047FE
:1036F0000068183002F098BA30B5046883B0084802
:103700000D46A368A26A216A9B00009004F118008C
:1037100002F02CFA0020C4E9000503B030BD00BF60
:10372000A12A000810B4074B4FF07E51302400222C
:10373000032019619C60D8605DF8044B5961C3E9AE
:103740000622704798040524704700BFF8B5134F50
:103750003C687F2C07D98023114A42F224411C4641
:103760003B60A2F87E100F4D2B68012B0AD90C4E3E
:103770000D4D22463146284600F02CF90028F8D19C
:103780003860F8BD22460649074800F023F90028B2
:10379000F7D12B68386001332B60F8BDD4040524C1
:1037A000D8040524D00405245805052430B4154C4C
:1037B0002168F1B14B1E144DE81810F801298C4610
:1037C00019460A2A01D00D2A02D14BB1013BF4E778
:1037D0000CF102037F2B10D98023236030BC70478B
:1037E0000122022323600D200A236854AB5430BC0D
:1037F000704701220223044DF4E70CF101026146F7
:10380000F0E700BFD4040524D804052410B5094C02
:1038100002460B46084821680844C1F1800113F0B4
:10382000F7FF236818442060FFF7C0FFFFF78EFF03
:1038300010BD00BFD4040524D80405240FB400B57E
:1038400083B004A951F8040B0191FFF7DFFF03B027
:103850005DF804EB04B0704710B5044600210A4837
:1038600000F032F8002C094B14BF02220022084855
:103870001A60FFF7E3FF0748FFF7E0FF0A20BDE803
:10388000104002F0A7BA00BF58050524D004052453
:10389000389E0108489E0108064A0749074808B5AE
:1038A00012F070FE034A04490548BDE8084012F0D2
:1038B00069BE00BF000000244937000858050524F0
:1038C0005C050524704700BF012910B506D0022908
:1038D00015D051B1BDE8104008F028BB0A46344865
:1038E00034490DF04DF8E8B1FEE7334B0A46334C4E
:1038F000334934481C600DF043F868B1FEE70122FB
:103900002C492B480DF03CF800B1FEE72E49284821
:103910000DF05AF8C0B1FEE72B492A480DF054F8D3
:1039200060B1FEE7284922480DF04EF800B1FEE7ED
:1039300026491F480CF0C4FF08B3FEE7244921487C
:103940000CF0BEFFA8B1FEE7204919480CF0B8FF03
:1039500000B1FEE716480DF05FF8024640B9164B7D
:10396000164C174917481C600DF00AF868B1FEE7BD
:10397000FEE714480DF050F80028ABD0FEE70C48E5
:103980000DF04AF80028A5D0FEE70F490D480DF0CC
:103990001BF800B1FEE70E490A480CF091FF00B198
:1039A000FEE708480DF038F8002893D0FEE700BF86
:1039B0003C080524AC000024180B0524C538000879
:1039C0009000002460050524140100246C000024EC
:1039D00058000024084691B208B502F0E1FC003816
:1039E00018BF012008BD00BF014807F035BB00BF6C
:1039F000683A0524014807F02FBB00BF683A052448
:103A0000014807F029BB00BF683A052410B4002321
:103A100083B00324018080F8503080F85120C0E941
:103A2000014303B05DF8044B704700BF2DE9F04F30
:103A3000BE4F0024BE4D8DB0037007F140034260BD
:103A4000804616468946202221463846C5F88835E4
:103A5000C5F88475CDE90244CDE90444CDE90644B6
:103A6000CDE90844CDE90A4413F068F92022214643
:103A700005F26250C5F85145C5F85545C5F8594598
:103A8000C5F85D4513F05AF985F85065D8F804304B
:103A900085F86846002B62D005F5AA6A09F1500B3B
:103AA000264609EB040128195222013613F01EF9AB
:103AB0004FF0000327F8023B1BF804300AF8013FDF
:103AC000002B70D0D8F804304FF0010254349E42DD
:103AD00085F86826E5D3974A082195F850350026E1
:103AE000C5F88C254FF4802293480027C5F8A435EB
:103AF0000023C5F890250122C5F89C1595F8681695
:103B0000C5F8943585F8A035C5F89825C0E9006753
:103B100000293ED0C5F8B82585F8A13585F8A83527
:103B2000002298F80030C5F8BC25C5F8C025002B48
:103B300040D0012200200121013B85F8C4257F4AA5
:103B4000C2E90001082B37D8DFE813F0BD00C2003E
:103B5000C700CC00D100D600DB00E100E800C5F8CA
:103B60009435F6B285F8A0350020724B0021C5F8D7
:103B7000A465C5F88C354FF48023C5F89035012332
:103B8000C5F898350823C5F89C3505F5B663C3E933
:103B90000001012385F8A135002385F8A83503230A
:103BA000C5F8B835BCE7D8F804305434B3423FF612
:103BB00078AF90E785F8C435614803F0A1FC03466F
:103BC00008B1FFBEFEE702A95D48029303F0F8FDCD
:103BD0000446002875D1042340F2FF720A90CDE913
:103BE000082395F85035002B00F0F58006234FF0A0
:103BF0005409019309FB045393F85130072B07D85C
:103C0000DFE803F0595C5653504D4A0407230793ED
:103C100026B206EB4606C6EBC60605EB8608B700DD
:103C2000404600F03BFB09FB045393F85030042B53
:103C300000F3AD80022B00F3C08000F0BC802B1994
:103C4000002283F8402515F8262098F80130002A34
:103C50007CD0022A00F08D80012A40F0B480012B34
:103C600000F0B380002B374B18BF0023059305A944
:103C7000019B3348069303F043F8002840F0AE80E0
:103C8000013495F85035E4B2A34240F2A4802E4BA3
:103C900053F824300193ADE706230793B8E70523D3
:103CA0000793B5E704230793B2E703230793AFE72E
:103CB00002230793ACE700230793A9E701230793A7
:103CC000A6E7FFBEFEE70320402142E9020173E7B9
:103CD0000720602142E902016EE70F20802142E9BE
:103CE000020169E71F20A02142E9020164E73F20A9
:103CF000C02142E902015FE77F20E02142E90201A1
:103D00005AE7FF204FF4807142E9020154E740F284
:103D1000FF104FF4907142E902014DE740F2FF308D
:103D20004FF4A07142E9020146E700BF00400030B5
:103D3000200B052400200240D0100524F01005249B
:103D4000AC1005240002B025589E0108062B36D081
:103D5000072B3CD0022B49D0032B49D0002B4BD052
:103D6000012B47D0042B49D0052B254B18BF00232E
:103D70007CE7042B25D0052B2BD08BB3012B31D026
:103D8000022B31D0032B1F4B18BF00236EE70323F8
:103D9000143705EB040B4FF0000A2F448BF8403525
:103DA00038460AF1010A00F079FA9BF840351437D9
:103DB0005345F5DC47E70123EAE70223E8E7124B26
:103DC00054E7124B52E7002350E7114B4EE7114BDB
:103DD0004CE7114B4AE70DB0BDE8F08FFFBEFEE7A0
:103DE0000E4B43E70E4B41E70E4B3FE70E4B3DE7D3
:103DF0000E4B3BE70E4B39E70E4B37E70E4B35E7E3
:103E00000000B84F002090360800900C1000C01041
:103E10002000F0148000501D000180210004002AC1
:103E20000008302E001060320040C03A0080F03EA2
:103E300000005247000021430000844B38B5094C74
:103E400040F2FF724FF0011104F28C55284603F046
:103E500065FC94F85025D4F884152846BDE8384010
:103E600003F0C4B9200B0524064B0F29D3F8843581
:103E700098BF03EB41031B8800EE103ABBEEC80A63
:103E8000704700BF200B0524244B02689A4200D0E3
:103E90007047234A00232348D2F8D81030B5224C6B
:103EA00041F0200183B0C4F8F0050920C4F8F835CA
:103EB00004F5BE65C4F8F4054FF48060C2F8D8106C
:103EC0004FF40061D2F8D820C4F8000694F86806D0
:103ED00002F02002C4F8FC3598420192C4F804169E
:103EE0004FF40051C4F810362846C4F81436019B2C
:103EF00014BF00234FF48073C4F80816C4F80C36BE
:103F000003F08AFE08B1FFBEFEE704F28C53C4F84A
:103F1000D855C4F8283603B030BD00BF0020024099
:103F20000044025840000240200B0524014804F0E0
:103F3000C5BC00BF1011052402682DE9F84F504B95
:103F40009A4201D0BDE8F88F4E4D95F86836002BA7
:103F5000F8D095F85035002B7BD0002405F13C09B2
:103F600005F2625605F5AA67A04613E003F00101C9
:103F700017F811BCA9F1280000F060FBBBF1010F9C
:103F800025D895F85035013409F154090236A2B20A
:103F900093422BD917F8012F002AF4D0D5F8843595
:103FA0000021327833F81400D5F8883503EB041378
:103FB00023F81200338801339BB233805FFA83FA0F
:103FC0003A789A42D2D88A46A6F80080D0E7CAF357
:103FD0004001A9F1140000F031FBBBF1020FCAF35C
:103FE0008001CED0484600F029FBCAE7002395F8AF
:103FF0006806254909229842C5F8F8354FF48060D3
:10400000C5F8F015C5F8F4254FF400614FF40052DF
:10401000C5F8FC3508BF4FF48073C5F80006C5F835
:104020000416C5F8082600221848C5F80C36C5F84D
:104030001026C5F8142603F0EFFD08B1FFBEFEE719
:1040400095F85025D5F884151148BDE8F84F03F0D0
:10405000CDB80D4909224FF48060C5F8F835C5F890
:10406000F0154FF40061C5F8F4254FF40052C5F87F
:10407000FC35C5F80006C5F80416C5F80826D2E7D1
:1040800000200240200B05244000024010110524AE
:10409000AC100524704700BF0C4B4FF60B7100228B
:1040A00003F5A8601980DA6099821A6219855A634B
:1040B00099879A64C3E90122C3E90622C3E90B2266
:1040C000C3E9102254339842ECD17047200B0524E9
:1040D00084460FC98CE80F009CF800300B2B30D0C1
:1040E0009CF801200F2A2CD8022900B591B041D0AC
:1040F000032902D0012900D000210C91DCF808101E
:10410000012902D0022918BF00210D91DCF80C1002
:10411000022904D0032902D0012918BF00210A2B4B
:104120000E910FD85B4800EB8320CCF810000A2BCF
:1041300017D8DFE803F0A0928476685A4C3E30220C
:10414000090070470020F0E7534BD3F8E01041F42A
:104150008061C3F8E010D3F8E03003F480630A9381
:104160000A9B01230BA993400B9304F0F9FE11B0B5
:104170005DF804FB11210C91C0E7474BD3F8E01028
:1041800041F40071C3F8E010D3F8E03003F4007399
:104190000993099BE5E7404BD3F8E01041F48071A7
:1041A000C3F8E010D3F8E03003F480730893089B61
:1041B000D7E7394BD3F8E01041F08001C3F8E010A5
:1041C000D3F8E03003F080030793079BC9E7324B35
:1041D000D3F8E01041F04001C3F8E010D3F8E0302C
:1041E00003F040030693069BBBE72B4BD3F8E0108C
:1041F00041F02001C3F8E010D3F8E03003F02003D1
:104200000593059BADE7244BD3F8E01041F0100176
:10421000C3F8E010D3F8E03003F010030493049BDC
:104220009FE71D4BD3F8E01041F00801C3F8E01000
:10423000D3F8E03003F008030393039B91E7164B98
:10424000D3F8E01041F00401C3F8E010D3F8E030F7
:1042500003F004030293029B83E70F4BD3F8E010B3
:1042600041F00201C3F8E010D3F8E03003F002039C
:104270000193019B75E7084BD3F8E01041F0010171
:10428000C3F8E010D3F8E03003F001030093009B83
:1042900067E700BF000002580044025803780B2B68
:1042A0002DD042780F2A2AD84168022910B590B043
:1042B0003ED0032902D0012900D000210C91816851
:1042C000012902D0022918BF00210D91C1680229DD
:1042D00004D0032902D0012918BF00210A2B0E9116
:1042E0000ED85B4C04EB832404610A2B17D8DFE85B
:1042F00003F009A0928476685A4C3E302200704741
:104300000024F1E7534BD3F8E01041F00101C3F86A
:10431000E010D3F8E03003F001030093009B012389
:104320000BA9204693400B9304F01AFE10B010BD69
:1043300011210C91C3E7474BD3F8E01041F48061A1
:10434000C3F8E010D3F8E03003F480630A930A9BCB
:10435000E5E7404BD3F8E01041F40071C3F8E010FA
:10436000D3F8E03003F400730993099BD7E7394B86
:10437000D3F8E01041F48071C3F8E010D3F8E030D6
:1043800003F480730893089BC9E7324BD3F8E0101D
:1043900041F08001C3F8E010D3F8E03003F080036F
:1043A0000793079BBBE72B4BD3F8E01041F040018C
:1043B000C3F8E010D3F8E03003F040030693069B07
:1043C000ADE7244BD3F8E01041F02001C3F8E01032
:1043D000D3F8E03003F020030593059B9FE71D4BC6
:1043E000D3F8E01041F01001C3F8E010D3F8E0304A
:1043F00003F010030493049B91E7164BD3F8E010ED
:1044000041F00801C3F8E010D3F8E03003F00803EE
:104410000393039B83E70F4BD3F8E01041F00401B3
:10442000C3F8E010D3F8E03003F004030293029BDA
:1044300075E7084BD3F8E01041F00201C3F8E01033
:10444000D3F8E03003F002030193019B67E700BF5C
:10445000000002580044025810B592B0ADF80410A4
:104460000180C9B2149C0B29C460C0E901233FD06C
:1044700090F801C0BCF10F0F3AD8022A3FD0032AAE
:1044800002D0012A00D000220E92012B02D0022B72
:1044900018BF0023022C0F932CD0032C2AD0012C00
:1044A00028D000230A29109327D85C4A02EB8122E6
:1044B00002610A2914D8DFE801F0A39587796B5DC2
:1044C0004F4133250600564BD3F8E01041F480618C
:1044D000C3F8E010D3F8E03003F480630C930C9B36
:1044E00001230DA9104603FA0CF30D9304F038FDD7
:1044F00012B010BD0A291094D7D90022D8E7112292
:104500000E92C2E7464BD3F8E01041F40071C3F8B5
:10451000E010D3F8E03003F400730B930B9BDFE75C
:104520003F4BD3F8E01041F48071C3F8E010D3F8AA
:10453000E03003F480730A930A9BD1E7384BD3F839
:10454000E01041F08001C3F8E010D3F8E03003F050
:1045500080030993099BC3E7314BD3F8E01041F086
:104560004001C3F8E010D3F8E03003F040030893B3
:10457000089BB5E72A4BD3F8E01041F02001C3F8BF
:10458000E010D3F8E03003F020030793079BA7E780
:10459000234BD3F8E01041F01001C3F8E010D3F83A
:1045A000E03003F010030693069B99E71C4BD3F809
:1045B000E01041F00801C3F8E010D3F8E03003F058
:1045C00008030593059B8BE7154BD3F8E01041F0EA
:1045D0000401C3F8E010D3F8E03003F004030493BF
:1045E000049B7DE70E4BD3F8E01041F00201C3F8C5
:1045F000E010D3F8E03003F002030393039B6FE76E
:10460000074BD3F8E01041F00101C3F8E010D3F8F4
:10461000E03003F001030293029B61E700000258BF
:104620000044025808B5012143780069994089B2D5
:1046300004F098FE003818BF012008BD01230A4687
:104640004178006903FA01F189B204F091BE00BF1C
:1046500010B5002386B0122204460493CDE902234C
:104660000368022B1FDC002B01DB04230593237955
:104670000A2B1FD8114800EB83206279012301A97E
:104680009340019304F06CFCA3790A2B14D80B48D7
:1046900000EB8320E279012301A99340019304F008
:1046A0005FFC06B010BD032BE1D1062305932379EF
:1046B0000A2BDFD90020E0E70020EBE700000258DA
:1046C000634A0368934210B58CB028D0614A934284
:1046D00058D0614A934200F09480604A934201D0DE
:1046E0000CB010BD5E4C5F48D4F8E03043F00203DC
:1046F000C4F8E030D4F8E03003F002030A930A9BD8
:10470000FFF7A6FFD4F8F43043F08003C4F8F43088
:10471000D4F8F43003F080030B930B9BE0E7504C8C
:104720005148D4F8E03043F00203C4F8E030D4F844
:10473000E03003F002030193019BFFF789FFD4F8F7
:10474000E83000221F2043F400131146C4F8E8307B
:10475000D4F8E83003F400130293029BD4F8D83065
:1047600043F00103C4F8D830D4F8D83003F0010383
:104770000393039B03F09EF81F200CB0BDE810408C
:1047800003F0D6B8364C3948D4F8E03043F0800313
:10479000C4F8E030D4F8E03003F080030493049BC5
:1047A000D4F8E03043F00203C4F8E030D4F8E0304D
:1047B00003F002030593059BFFF74AFFD4F8E830A6
:1047C0000022212043F480031146C4F8E830D4F8D5
:1047D000E83003F480030693069BD4F8D83043F006
:1047E0000103C4F8D830D4F8D83003F0010307939C
:1047F000079B03F05FF821200CB0BDE8104003F0E8
:1048000097B81B48FFF724FF154B00224820D3F828
:10481000E840114644F40004C3F8E840D3F8E84007
:1048200004F400040894089CD3F8D84044F0010430
:10483000C3F8D840D3F8D83003F001030993099B9B
:1048400003F038F848200CB0BDE8104003F070B811
:104850000054004000580040005C0040001C00581C
:1048600000440258301405249011052470120524C8
:10487000501305242DE9F0431A4B87B000254FF063
:1048800010099E46EC46184BFF22E04667461A7018
:104890000EF118060EF13004CDE90055CDE90255B0
:1048A000ADF80090BCE80F00CDE90455AEE80F006C
:1048B0009CE803000095ADF800908EE80300B8E88E
:1048C0000F000FC69CE803000095ADF8009086E845
:1048D00003000FCF0FC49CE8030084E8030007B077
:1048E000BDE8F083080000248C11052410B5EFF317
:1048F000108472B6084B1A78120602D504B962B653
:1049000010BD1878054B40B2C0EBC00003EB40105F
:10491000143003F0D3FFF1E78C1105249011052426
:10492000014806F087BA00BF1C120524014806F0B2
:1049300081BA00BFFC120524014806F07BBA00BF13
:10494000DC1305242DE9F0430D6885B0404EC5EB1E
:10495000C503032D4FEA431706EB4313036041DC05
:10496000CA680C46012A3DD84FEAC5084CD02068D9
:104970009C466168A8EB0509A2680DF1100EE3687A
:1049800006EB4919ACE80F00324B227C8CF8002072
:10499000D9F808C00FCB0EE90F000EEB8503BCF170
:1049A000010F53F8103CC9F88C3032D0BCF1020F23
:1049B00043D0BCF1000F36D0227C8C37A8EB050524
:1049C00000233744520006EB451601213846C6F84D
:1049D000AC30C6E92521C6E92733C6E9293305F0FD
:1049E0009DFB18B1012005B0BDE8F08301463846B3
:1049F00006F02CFA0028F5D10146384606F050FAA8
:104A0000003818BF0120EEE70A7C103A672AAED9B9
:104A1000E8E701F089FB104B98420CBF0F4B104B9D
:104A2000C9F89030C8E701F07FFB0B4B98420CBFF0
:104A30000C4B0D4BC9F89030BEE701F075FB064BEF
:104A400098420CBF094B0A4BC9F89030B4E700BF3D
:104A500090110524309D0108000E27072D0FB0305E
:104A60003211D0205F4390608A62E030200BA010AA
:104A70001A0980102DE9F041D0F8008082B00D466F
:104A800017461E4608F18C04204606F0DBF9202864
:104A9000FAD1D8F80C3073B96D002046089C334623
:104AA0003A46A9B2009405F08FFB003818BF0120E8
:104AB00002B0BDE8F081089B32463946204605F039
:104AC00027FEF2E72DE9F041D0F8008082B00D46D4
:104AD00017461E4608F18C04204606F0B3F920283C
:104AE000FAD1D8F80C3073B96D002046089C3346D3
:104AF0003A46A9B2009405F025FD003818BF012000
:104B000002B0BDE8F081089B32463946204605F0E8
:104B100029FFF2E72DE9F047066884B00D4690467C
:104B20009A46BDF83490002706F18C04204606F022
:104B300089F92028FAD1F3682BB1381E18BF01205B
:104B400004B0BDE8F08720460E9C690053464246FB
:104B500089B2CDE901940C9C009406F005F8074653
:104B6000EBE700BF094B6FF0F41110225960C3F856
:104B7000E4101A7483F8F020C3F8C41183F8D0212C
:104B8000C3F8A41283F8B022704700BF9011052427
:104B900030B5002395B04FF48071062204460B9384
:104BA00006921393CDE90C13CDE90E33CDE9113301
:104BB00001F0BCFA07282BD004F1100541F288322D
:104BC00006A9284607F0E2FA28B10123184684F81E
:104BD0005C3015B030BD0222022306A92846CDE97B
:104BE000002310220123CDE9022300224FF4800389
:104BF000CDE9042305224FF0807306926A460F9395
:104C000041F2883307F02EFC0028DED115B030BD0C
:104C10000323012084F85C3015B030BD0000000093
:104C200070B50023A4B04FF080724FF48075044635
:104C3000ADF806300D93CDE910320122CDE90E53C7
:104C4000CDE91223CDE91433002943D0F02300F13C
:104C5000100508AEADF80630C02341F28832314667
:104C60002846089307F092FA28B10123184684F8E1
:104C70005C3024B070BD41F288320DF10601284647
:104C800007F0EEFA03460028EFD105224FF48071B9
:104C90001E93284616924FF080721B9321931F9209
:104CA00002AA9FED1F7BCDE91C13CDE922338DEDC8
:104CB000027B9FED1D7B41F2883316A98DED047BAD
:104CC0009FED1B7B8DED067B07F0CCFB0028CCD144
:104CD00024B070BD00F1100508AE612341F28832A6
:104CE00031462846089307F051FA0028BDD141F219
:104CF00088320DF10601284607F030FB0028B4D1B8
:104D0000BDF80630204623F0780343F04003ADF8A9
:104D10000630FFF73DFF00289ED0A6E7AFF30080E6
:104D20000000000001000000100000000100000071
:104D300000000000000040002DE9F04F00234FF478
:104D4000807501264FF0807804462DED028BABB0C4
:104D50008DF8073013932193299314950E96CDF86F
:104D60005C80CDE91533CDE91863CDE91A33CDE97F
:104D70002253CDE92433CDE9273306231C9301F0D8
:104D8000D5F9072808D004F1100741F288321CA990
:104D9000384607F0FBF940B10123184684F85C302F
:104DA0002BB0BDEC028BBDE8F08F4FF0020A4FF044
:104DB000020B4FF0050941F2883308AA1CA93846B6
:104DC000CDF89480CDF870909FED2F8BCDE908AB96
:104DD0004FF0000A4FF4800B8DED0A8BCDE90CAB40
:104DE00007F040FB0028D7D141F2883238460EA99F
:104DF00007F0CCF90028CFD1402341F288320DF1E1
:104E0000070138468DF8073007F02AFA0028C3D189
:104E100041F288330EA902AA3846CDF83890CDF871
:104E20005C809FED1B7BCDE906AB8DED027B9FED9A
:104E30001A7B8DED047B07F015FB03460028ABD1F0
:104E4000CDF870904FF00109CDF894804FF0000834
:104E5000219308AA29931CA938462295CDE923332A
:104E6000CDE9273341F288338DED0A8BCDE90CABC8
:104E7000CDE9088907F0F6FA002891D0304684F889
:104E80005C608DE7AFF300801000000001000000BF
:104E9000400000004300000000800000010000000E
:104EA0002DE9F04F00234FF4807601254FF08078F4
:104EB00004462DED028BABB0CDE91533139321934E
:104EC000299314960E95CDF85C80CDE91853CDE961
:104ED0001A33CDE92263CDE92433CDE92733062304
:104EE0001C9301F023F9072808D004F1100741F2C0
:104EF00088321CA9384607F049F940B10123184609
:104F000084F85C302BB0BDEC028BBDE8F08F4FF025
:104F1000020A4FF0020B4FF0050941F2883308AA4C
:104F20001CA93846CDF89480CDF870909FED308B59
:104F3000CDE908AB4FF0000A4FF4800B8DED0A8BE2
:104F4000CDE90CAB07F08EFA0028D7D141F28832B8
:104F500038460EA907F01AF90028CFD1402341F2B4
:104F600088320DF1070138468DF8073007F078F9DF
:104F70000028C3D19DF8073008AA0C90FF200893A1
:104F80004FF400430EA90B95CDF83890CDF85C8016
:104F9000CDE909034FF4800338460D9341F288337D
:104FA00007F060FA03460028A8D100222193299334
:104FB0001CA938462296CDF87090CDF89480CDE9A2
:104FC0002333CDE927330123CDE9022341F288338E
:104FD00002AA8DED048BCDE906AB07F043FA002859
:104FE00090D0284684F85C508CE700BFAFF3008077
:104FF000100000000100000070B50122AAB00446B4
:105000000D465F48C02104F0B3F900265D4B0696BB
:105010005B4895FAA5F5CDE90466D3F8E02042F0A7
:105020002002C3F8E020C022D3F8E03003F02003D0
:1050300001930123019902A9CDE9022303F090FF16
:10504000142001F0F9FD3246C0214D4804F090F9DA
:10505000142001F0F1FD0122C021494804F088F933
:10506000142001F0E9FD0123474AE6612261C4E909
:105070000533002D77D0B5FA85F1013900234FF4BF
:10508000807604F11005C4E908162846C4E90B33FC
:1050900007F00EF830B101231D4684F85C30284635
:1050A0002AB070BD66231690179041F28832139093
:1050B0000EA91B900E93CDE91460CDE91900284686
:1050C00007F064F80028E6D199230EA941F288324E
:1050D00028460E9307F05AF80028DCD10523012159
:1050E000249008AA219027901C934FF08073CDE95B
:1050F0002260CDE928001020259341F28833CDE9C4
:105100000A019FED1D7B00204FF48001CDE90C01C9
:105110001CA928468DED087B07F0A4F90028BAD118
:105120002046FFF7BDFE0028B5D1284607F01CF841
:1051300005460028AFD123790A2B18D963790121BC
:10514000994004F047F8A3790A2B0ED80F4800EBDA
:1051500083200126E17906FA01F104F03BF8266686
:1051600084F864609BE71F2188E70020F1E7074887
:1051700000EB8320E2E700BF000000000100000018
:105180000014025800440258005000520000025817
:105190002DE9F041684CA2B00D46046000F0C6FF56
:1051A00007284BD028682346AA68696807C3AA89DC
:1051B000184620F8042B267B677B06F0D5FF0028D5
:1051C00034D1012E94F8643014BF4FF480154FF49D
:1051D00000052366002B39D0584B95FAA5F52361BD
:1051E0000123C4E905330023E361002D6ED0B5FA35
:1051F00085F1013900234FF480785148C4E908183B
:10520000C4E90B3306F054FF80B966230B9013906A
:1052100041F2883206A90693CDE90C80CDE90E0053
:10522000CDE91100464806F0B1FFA0B101231D46AB
:1052300084F85C30284622B0BDE8F08101250323C4
:10524000284684F85C3022B0BDE8F081294620462B
:10525000FFF7D2FEC0E7992341F2883206A9384809
:10526000069306F093FF0028E0D105231C901990C7
:105270006A4614934FF08073219014A91D9341F254
:1052800088339FED277BCDE91A80CDE91F008DED96
:10529000007B9FED257B2A488DED027B9FED247BD3
:1052A0008DED047B07F0DEF80028BFD1314622489F
:1052B000FFF7B6FC0028B9D11F48FFF73DFD0546B2
:1052C0000028B3D127B102232366B3E71F2191E75A
:1052D000EB2300260027189014934FF440631F908F
:1052E00006AA1B934FF40053209014A917934FF470
:1052F000404313481C93A023CDF8688016930623DF
:1053000019934FF0805321934FF04073CDE9066716
:105310001D9307F01FF90028D5D087E7AFF3008071
:10532000000000000100000010000000010000006B
:10533000000000000000400010150524005000523D
:10534000201505245E4B02682DE9F0419A428CB08D
:105350004FF00004CDE90744CDE909440B9402D095
:105360000CB0BDE8F081574B574DD3F8D420574FC0
:1053700042F48042564EDFF85C81C3F8D420D3F863
:10538000D42002F480420092009ADA6F42F4804204
:10539000DA67DA6F22F48042DA67D3F8E02042F06D
:1053A0004002C3F8E020D3F8E02002F0400201926E
:1053B000019AD3F8E02042F02002C3F8E020D3F8AD
:1053C000E02002F020020292029AD3F8E02042F09C
:1053D0001002C3F8E020D3F8E02002F0100203929C
:1053E000039AD3F8E02042F00202C3F8E020D3F899
:1053F000E03003F002030493049B22E014F0FC026B
:1054000052D103F1200155F8211008780A2839D823
:1054100091F801C00121099207EB802201FA0CF1F9
:1054200007910221CDF81480089103210A910CA95B
:105430000B4413F81C3C07A9104601340B9303F0EE
:105440008FFD2A6EE3B2002AD8D0052B2CD803F1A9
:105450001A0255F822100A780A2A18D94978012226
:105460008A40022107920022CDE9081203210A9105
:105470000CA90B4496E803000590ADF8181013F83A
:105480001C3CD8E74878012109928140C8E7487858
:10549000012107EB82228140022007910021CDE902
:1054A000080103210A91E3E700225C20114602F083
:1054B00001FA5C2002F03CFA0CB0BDE8F08100BFBC
:1054C00000500052004402581015052400000258F4
:1054D000989E01080A0A090A0268F8B5194B9A420F
:1054E00000D0F8BD184A0024184F0125D2F8D43056
:1054F000174E23F48043C2F8D43011E014F0FC0FAF
:105500001BD157F821301A780020597801340A2A23
:1055100005FA01F198BF06EB822089B203F05AFE2A
:10552000E3B23A6E03F12001002AE7D0052B03F124
:105530001A0202D857F82230E5E75C20BDE8F840AF
:1055400002F004BA0050005200440258101505241D
:1055500000000258014807F089B800BF2015052453
:105560000E4B6FF0F4120021981C30B41C1D9D1DD1
:105570009A605D671C67C3E90022C3E9181103F153
:105580000A0203F1080130BCC3E91A30C3E91E1254
:10559000C3E92030C3E92212704700BF101505246B
:1055A00038B5036871B9026A00F1280500F5AC74DA
:1055B000012A0CBF002140218BBB1D4B5722C0F894
:1055C00058310DE0426A00F1C00500F5E874012A87
:1055D0000CBF00214021EBB1164B5A22C0F8D0314C
:1055E00000232046C4E901214FF480524FF480612A
:1055F000636262614FF48042C4E903314FF4807307
:10560000C4E906234FF40033236202F005FB58B1CE
:10561000FFBEFEE7084B5822C0F8D031E0E7074B49
:105620005922C0F85831DBE7C5E92044A56338BDED
:105630001000024070000240280002405800024062
:105640002DE9F043C28889B081468388ADF80020F7
:105650000089B9F80A10B9F80C20ADF80230D9F871
:105660001830ADF80400ADF80610ADF80820002B96
:105670003FD0D9F81C70B7FA87F77F0901250223BC
:105680006C460DF10A06DFF870800695CDE9043509
:1056900099F8042020788242627818D0D9F8001056
:1056A000F9B1012902D1F8B10A2107910A2805FAB6
:1056B00002F203A994BF08EB80200020039203F0BC
:1056C0004FFC0234A642E3D109B0BDE8F08399F85B
:1056D00005109142E2D1002FF3D0D9F80010002933
:1056E000DFD106210791E1E7022A0CBF08210A2138
:1056F000DBE70127C2E700BF00000258534A0368F6
:10570000934230B505468BB055D02032934252D0EB
:105710004F4A934204D02032934201D00BB030BDA7
:105720004C4C4D48D4F8E03043F00103C4F8E0306D
:10573000D4F8E03003F001030593059BD4F8E03082
:1057400043F00803C4F8E030D4F8E03003F0080375
:105750000693069BD4F8E03043F04003C4F8E030F1
:10576000D4F8E03003F040030793079BD4F8F030FF
:1057700043F40003C4F8F030D4F8F03003F400032D
:105780000893089BFFF75CFFD4F8D830296843F0F2
:1057900001032F4A3048C4F8D830891AD4F8D830D9
:1057A00018BF012103F001030993099B0BB0BDE869
:1057B0003040FFF7F5BE274C2848D4F8E03043F0DE
:1057C0000103C4F8E030D4F8E03003F001030093A3
:1057D000009BD4F8E03043F01003C4F8E030D4F874
:1057E000E03003F010030193019BD4F8E03043F064
:1057F0004003C4F8E030D4F8E03003F040030293F3
:10580000029BD4F8F03043F48003C4F8F030D4F8AD
:10581000F03003F480030393039BFFF711FFD4F8E8
:10582000D830296843F00103084A0C48C4F8D8303E
:10583000891AD4F8D83018BF012103F0010304936A
:10584000049B0BB0BDE83040FFF7AABE04580140EE
:10585000045C014000440258FC170524A0150524EF
:10586000014803F02BB800BFF8160524014803F0E7
:1058700025B800BF70170524014803F01FB800BF0A
:1058800054190524014803F019B800BFCC190524A8
:105890001A4A0368934210B40BD02032934208D0C6
:1058A000174A934216D02032934213D05DF8044B2E
:1058B0007047144B0022D3F85442C3F85822002CEE
:1058C000F4D0D3F84802D3E9931223465DF8044B91
:1058D000520818470B4B0022D3F8B044C3F8B42445
:1058E000002CE3D0D3F8AC24D3F8A814D3F8A40444
:1058F000520823465DF8044B184700BF0458014086
:10590000045C0140A0150524184A0368934210B4B2
:105910000BD02032934208D0154A934217D0203240
:10592000934214D05DF8044B7047124BD3E9942492
:105930005208C3F85822002CF4D0D3E99201234630
:1059400001EB820100EB82005DF8044B1847094B24
:10595000D3F8AC24D3F8B0445208C3F8B424002CD4
:10596000E0D0D3F8A814D3F8A404E8E70458014021
:10597000045C0140A01505242DE9F0470C684FF4A4
:105980001776774F86B004FB06F6012C07EB060866
:10599000C0F8008000F39F8000230D468E46C44669
:1059A000C8F85032C8E9923369A3D3E900236AA149
:1059B000D1E90001CDE9022306AB03EB8403CDE975
:1059C000040153F810AC53F8089CBEE80F00ACE893
:1059D0000F00BEE80F00ACE80F009EE80300C8F817
:1059E00028A0C8F8C0908CE803002B69042B0CD8C1
:1059F000DFE803F078828C9603004FF41773594A5E
:105A000003FB04739A64C3F8E020AA692B6A002A96
:105A100042D0002B4FF4177308BF022203FB04731C
:105A200018BF0322DA6201221A63EA696B6A002A4C
:105A30003FD1191E4FF4177318BF012103FB0473E4
:105A4000C3E931126969012943D0022947D10325ED
:105A500000214FF4177306F128002A46019103FB39
:105A60000473002438445C645C63DC65C3F8DC4088
:105A7000C3F8CC40C3F8F440C3E90F44C3E915446C
:105A8000C3E93544C3E93B44022309F0F5F9019920
:105A900000284FD0FFBEFEE7191E4FF4177318BF42
:105AA000012103FB0473C3E90B12EA696B6A002A44
:105AB000BFD0002B4FF417730CBF0222032203FB4D
:105AC0000473C3F8C4200122C3F8C82069690129FE
:105AD000BBD10225BDE7012006B0BDE8F087002557
