:020000040800F2
:1000000000000220390A00082D0A00085580000867
:100010002D0A00082D0A00082D0A00080000000023
:100020000000000000000000000000002D0A000891
:100030002D0A0008000000002D0A0008D97F0008E2
:100040002D0A00082D0A00082D0A00082D0A0008B4
:100050002D0A00082D0A00082D0A00082D0A0008A4
:100060002D0A00082D0A00082D0A0008C17B00088F
:10007000CD7B00082D0A0008D97B0008E57B00082D
:1000800069370108516C00082D0A00082D0A000884
:100090002D0A00082D0A00082D0A00082D0A000864
:1000A0002D0A00082D0A00082D0A00082D0A000854
:1000B000E9280108F528010801290108856C0008D4
:1000C0002D0A0008916C00082D0A00083121010852
:1000D0003D2101089D350108C9350108FD3501089C
:1000E0002D0A00082D0A0008000000002D0A000853
:1000F0002D0A00082D0A00082D0A00082D0A000804
:100100002D0A00082D0A00080D29010849210108BF
:1001100031360108653601082D0A00082D0A00084D
:100120002D0A00082D0A00086D210108A1210108EF
:100130009D3701082D0A00082D0A00082D0A000825
:1001400000000000000000000000000000000000AF
:100150002D0A00082D0A00082D0A0008993601080A
:100160009D6C00082D0A0008E97F00080D8000083A
:100170002D0A0008318000082D0A00082D0A000809
:100180002D0A00082D0A0008CD36010801370108A4
:1001900055210108612101082D0A00082D0A0008D7
:1001A0002D0A00082D0A00082D0A00082D0A000853
:1001B000B57800082D0A00082D0A00082D0A00084D
:1001C0002D0A00082D0A00082D0A00082D0A000833
:1001D0002D0A00082D0A00082D0A00082D0A000823
:1001E0002D0A00082D0A00082D0A00082D0A000813
:1001F0002D0A00082D0A00082D0A00082D0A000803
:100200002D0A00082D0A00082D0A00082D0A0008F2
:100210002D0A00082D0A00082D0A00082D0A0008E2
:100220002D0A00082D0A00082D0A00080000000011
:100230002D0A00082D0A0008000000002D0A000801
:100240002D0A00082D0A00082D0A00082D0A0008B2
:100250002D0A00082D0A00082D0A00082D0A0008A2
:100260002D0A00082D0A00082D0A00082D0A000892
:100270002D0A00082D0A000835370108000000008B
:100280002D0A00082D0A00082D0A000800000000B1
:08029000000000002D0A000827
:1002A00010B5054C237833B9044B13B10448AFF3B0
:1002B00000800123237010BD5806002400000000B8
:1002C0003CBF010808B5034B1BB103490348AFF31A
:1002D000008008BD000000005C0600243CBF01084F
:1002E00010F8012B11F8013B012A28BF9A42F7D0E0
:1002F000D01A7047034613F8012B002AFBD1181AB5
:1003000001387047000000000000000000000000FD
:1003100001F0FF01102A2BDB10F0070F08D010F8B6
:10032000013B013A8B422DD010F0070F42B3F6D1BA
:10033000F0B441EA012141EA014122F007047FF0D3
:1003400000070023F0E80256083C85EA010586EA2A
:10035000010685FA47F5A3FA87F586FA47F6A5FA66
:1003600087F68EB9EED1F0BC01F0FF0102F0070272
:1003700032B110F8013B013A83EA010313B1F8D11D
:100380000020704701387047002D06BF35460338FE
:10039000073815F0010F07D1013015F4807F02BF37
:1003A000013015F4C03F0130F0BC0138704700BF88
:1003B00081F0004102E000BF83F0004330B54FEA16
:1003C00041044FEA430594EA050F08BF90EA020F83
:1003D0001FBF54EA000C55EA020C7FEA645C7FEA16
:1003E000655C00F0E2804FEA5454D4EB5555B8BF39
:1003F0006D420CDD2C4480EA020281EA030382EAAA
:10040000000083EA010180EA020281EA0303362D3B
:1004100088BF30BD11F0004F4FEA01314FF4801C0E
:100420004CEA113102D0404261EB410113F0004F20
:100430004FEA03334CEA133302D0524263EB4303D7
:1004400094EA050F00F0A780A4F10104D5F1200E75
:100450000DDB02FA0EFC22FA05F2801841F10001D0
:1004600003FA0EF2801843FA05F359410EE0A5F1A4
:1004700020050EF1200E012A03FA0EFC28BF4CF0D5
:10048000020C43FA05F3C01851EBE37101F000458B
:1004900007D54FF0000EDCF1000C7EEB00006EEB98
:1004A0000101B1F5801F1BD3B1F5001F0CD3490822
:1004B0005FEA30004FEA3C0C04F101044FEA445279
:1004C00012F5800F80F09A80BCF1004F08BF5FEA00
:1004D000500C50F1000041EB045141EA050130BDE0
:1004E0005FEA4C0C404141EB0101013C28BFB1F5F2
:1004F000801FE9D291F0000F04BF01460020B1FA3D
:1005000081F308BF2033A3F10B03B3F120020CDA0F
:100510000C3208DD02F1140CC2F10C0201FA0CF0ED
:1005200021FA02F10CE002F11402D8BFC2F1200C52
:1005300001FA02F120FA0CFCDCBF41EA0C01904008
:10054000E41AA2BF01EB0451294330BD6FEA040451
:100550001F3C1CDA0C340EDC04F11404C4F120023C
:1005600020FA04F001FA02F340EA030021FA04F34E
:1005700045EA030130BDC4F10C04C4F1200220FAA5
:1005800002F001FA04F340EA0300294630BD21FAE3
:1005900004F0294630BD94F0000F83F4801306BFA9
:1005A00081F480110134013D4EE77FEA645C18BF9D
:1005B0007FEA655C29D094EA050F08BF90EA020F34
:1005C00005D054EA000C04BF1946104630BD91EA2C
:1005D000030F1EBF0021002030BD5FEA545C05D12F
:1005E0004000494128BF41F0004130BD14F580046E
:1005F0003CBF01F5801130BD01F0004545F0FE41E2
:1006000041F470014FF0000030BD7FEA645C1ABF16
:10061000194610467FEA655C1CBF0B46024650EA4D
:10062000013406BF52EA033591EA030F41F4002179
:1006300030BD00BF90F0000F04BF0021704730B5FF
:100640004FF4806404F132044FF000054FF00001D4
:1006500050E700BF90F0000F04BF0021704730B595
:100660004FF4806404F1320410F0004548BF40426A
:100670004FF000013EE700BF42004FEAE2014FEABF
:1006800031014FEA02701FBF12F07F4393F07F4F9A
:1006900081F06051704732F07F4208BF704793F09D
:1006A0007F4F04BF41F40021704730B54FF46074B0
:1006B00001F0004521F000411CE700BF50EA0102B3
:1006C00008BF704730B54FF000050AE050EA01025C
:1006D00008BF704730B511F0004502D5404261EBCC
:1006E00041014FF4806404F132045FEA915C3FF40D
:1006F000D8AE4FF003025FEADC0C18BF03325FEAAA
:10070000DC0C18BF033202EBDC02C2F1200300FA5A
:1007100003FC20FA02F001FA03FE40EA0E0021FA7F
:1007200002F11444BDE600BF53B94AB9002908BF1D
:1007300000281CBF4FF0FF314FF0FF3000F074B9BC
:10074000ADF1080C6DE904CE00F006F8DDF804E028
:10075000DDE9022304B070472DE9F047089D044607
:100760008E46002B4DD18A42944669D9B2FA82F264
:1007700052B101FA02F3C2F1200120FA01F10CFAA0
:1007800002FC41EA030E94404FEA1C48210CBEFBD8
:10079000F8F61FFA8CF708FB16E341EA034306FB61
:1007A00007F199420AD91CEB030306F1FF3080F0F0
:1007B0001F81994240F21C81023E63445B1AA4B23D
:1007C000B3FBF8F008FB103344EA034400FB07F7DF
:1007D000A7420AD91CEB040400F1FF3380F00A8120
:1007E000A74240F207816444023840EA0640E41B15
:1007F00000261DB1D4400023C5E900433146BDE8C1
:10080000F0878B4209D9002D00F0EF800026C5E962
:10081000000130463146BDE8F087B3FA83F6002E7A
:100820004AD18B4202D3824200F2F980841A61EBF2
:10083000030301209E46002DE0D0C5E9004EDDE710
:1008400002B9FFDEB2FA82F2002A40F09280A1EBF8
:100850000C014FEA1C471FFA8CFE0126200CB1FB4D
:10086000F7F307FB131140EA01410EFB03F0884246
:1008700008D91CEB010103F1FF3802D2884200F2D3
:10088000CB804346091AA4B2B1FBF7F007FB101165
:1008900044EA01440EFB00FEA64508D91CEB040403
:1008A00000F1FF3102D2A64500F2BB800846A4EB5E
:1008B0000E0440EA03409CE7C6F12007B34022FA49
:1008C00007FC4CEA030C20FA07F401FA06F31C4378
:1008D000F9404FEA1C4900FA06F3B1FBF9F8200C85
:1008E0001FFA8CFE09FB181140EA014108FB0EF0CB
:1008F000884202FA06F20BD91CEB010108F1FF3A1B
:1009000080F08880884240F28580A8F10208614426
:10091000091AA4B2B1FBF9F009FB101144EA014134
:1009200000FB0EFE8E4508D91CEB010100F1FF34DF
:100930006CD28E456AD90238614440EA0840A0FB77
:100940000294A1EB0E01A142C846A64656D353D04D
:100950005DB1B3EB080261EB0E0101FA07F722FA71
:1009600006F3F1401F43C5E9007100263146BDE89A
:10097000F087C2F12003D8400CFA02FC21FA03F3FD
:10098000914001434FEA1C471FFA8CFEB3FBF7F07E
:1009900007FB10360B0C43EA064300FB0EF69E42A3
:1009A00004FA02F408D91CEB030300F1FF382FD23C
:1009B0009E422DD9023863449B1B89B2B3FBF7F6E4
:1009C00007FB163341EA034106FB0EF38B4208D9BD
:1009D0001CEB010106F1FF3816D28B4214D9023EFE
:1009E0006144C91A46EA004638E72E46284605E71C
:1009F0000646E3E61846F8E64B45A9D2B9EB0208ED
:100A000064EB0C0E0138A3E74646EAE7204694E77C
:100A10004046D1E7D0467BE7023B614432E73046AF
:100A200009E76444023842E7704700BF684620F097
:100A300007018D46FEE700BF0B480C4A904208B5FF
:100A400003D0121A0A4916F09DFB0A480A4A90423E
:100A500003D0121A002116F0BDFB07F061FD16F05D
:100A60005DFB01F061FAFEE700000024540600245B
:100A700070BF01085806002488440024704700BF56
:100A8000704700BF704700BF40207047802070470C
:100A900049424FF480621030C9B216F09BBB00BFD0
:100AA00001207047124B134870B516460D462DEDC8
:100AB000028B93E8060002F0A7FFAEB100240D48B8
:100AC00002F0C8FF0C48B0EE408A01F063FDD5E9A2
:100AD000003000EB840003EB8403013480ED008AD6
:100AE000A64283ED008AEAD1BDEC028B70BD00BF47
:100AF00004000024B4150024840A002410B5044620
:100B00004FF4826115F0B7FE204610BD2DE9F04F7D
:100B10004FF0B00885B0054600F1080700F18F06D8
:100B200000F28F494FF47A7B4FF0000A297B0223B1
:100B300003AA3846CDF800B0A6F180048DF80CA0C9
:100B40008DF80D8006F048F9297B022303AA384668
:100B5000CDF800B08DF80CA08DF80DA006F03CF992
:100B60004FF0100C297B022303AA3846CDF800B0C1
:100B70008DF80CA08DF80DC006F02EF94FF47A70A8
:100B800014F801CF4FF0400E297B0223009003AAF6
:100B900038468DF80CE08DF80DC006F01DF9B44212
:100BA000ECD104F1800608F101084E455FFA88F89F
:100BB000B8D105B0BDE8F08F2DE9F04F89B008AC91
:100BC0009DF84870019104E90C000B78002B00F0AF
:100BD000AB801A469DF818809DF8193006464546A8
:100BE00090460393079B0593A8F12004E3B25E2B84
:100BF00000F29E8033685E4ADB68934240F09B803F
:100C00008020B3882B44834200F392803368594A92
:100C10009B68934240F092804020F188039A0291B1
:100C20008B18834200F38480002A00F0918002FB3D
:100C300004F46FF00049059BA1441444B6F804B0D5
:100C400003EB4909023BCDF8108003EB44030C464B
:100C50009A4639F802CFA5B304F007034FF0010E0E
:100C6000E20859460EFA03FE0BF110034FFA8EFE0E
:100C700003EBC21200236FEA0E0832440DE07F2915
:100C800006D83F2C04D8107897B14EEA00001070B7
:100C9000013301320131AB4213D00CFA03F00004EE
:100CA000EDD47F29F4D83F2CF2D81078002FECD067
:100CB000013308EA000001320131AB4202F8010CB5
:100CC000EBD1D14504F10104C3D1DDF810803268C5
:100CD0000BEB05042649D368A4B28B4234D18020A3
:100CE000844204D3D36822498B423AD17F2493684B
:100CF000204AB480934224D14020029B834206D3F1
:100D000033681C4A9B68934225D13F230293029B80
:100D1000F380019B1878404507D113F8018F0193A8
:100D2000B8F1000F7FF460AF002009B0BDE8F08F8C
:100D30004FF00008EDE73046984762E730469847A5
:100D40006BE730469847D8E7304698473268C7E7A0
:100D5000B6F804B0BBE730469847013883B2029337
:100D6000D5E7304698470138326884B2BFE700BF04
:100D70008D0A0008890A00082DE9F04F85B0A1F11D
:100D8000200504AC9DF83870009104E90C00EBB22A
:100D90005E2B00F29580036880465D4ADB689DF813
:100DA000084093429DF8096040F094808020B8F894
:100DB00004302344834200F38380D8F80030554A3E
:100DC0009B68934240F088804020B8F80620931931
:100DD0000192834274DC002E00F0898006FB05F549
:100DE0006FF00040039B964628442E44B8F804A0B8
:100DF00003EB4000023B03EB460B30F8026FBCB341
:100E00000EF007034FF0010C4FEADE0251460CFAD8
:100E100003FC0AF110034FFA8CFC03EBC21200230F
:100E20006FEA0C0942440EE07F2907D8BEF13F0F5C
:100E300004D815789FB14CEA0505157001330132CD
:100E400001319C4214D006FA03F52D04ECD47F291D
:100E5000F4D8BEF13F0FF1D81578002FEBD0013355
:100E600009EA0505013201319C4202F8015CEAD130
:100E700058450EF1010EC0D1D8F800305444244931
:100E8000DA68A4B28A422DD1802084421CD29B68A9
:100E9000204AA8F80440934221D14020019B83427C
:100EA00007D3D8F800301B4A9B68934229D13F23CF
:100EB0000193DDE90003A8F8063005B0BDE8F08F26
:100EC000002005B0BDE8F08FDA6811498A4211D1DF
:100ED0007F24DCE798476AE74046984775E7404635
:100EE0009847DBE740469047D8F80030CDE7B8F8A0
:100EF00004A0C1E7404690470138D8F8003084B2DA
:100F0000C5E740469847013883B20193D1E700BF57
:100F10008D0A0008890A00082DE9F04F89B01D46A6
:100F2000884606901046129C10F8013B13999DF8D4
:100F30005060009233B1002210F8013B0132002BC7
:100F4000FAD193B22A78687812FB03F302B21BB28B
:100F500023EAE373082900F2A981DFE811F0020116
:100F6000140120013401420150016701710109009F
:100F7000A18827880F44B4F90610FF1A0029BFB2D0
:100F8000C0F2FF80B4F802C006980CEB6104C28086
:100F9000A4EB52028380078094B24480A64AD8F81A
:100FA000003011460192DA688A4240F08D8180203B
:100FB000B84205D8DA6801998A4240F09A817F27C1
:100FC0009E4A9B68A8F804709342039240F089817E
:100FD0004020A04207D8D8F80030039A9B6893427B
:100FE00040F082813F24009BA8F8064093F800B0AF
:100FF0006B782C7804936B680793BBF1000F00F0BB
:10100000AC80ABF12005EBB25E2B00F22E81D8F85C
:101010000030019ADB68934240F02A818020B8F8C2
:10102000043023449842C0F22081D8F80030039A5B
:101030009B68934240F01F814020B8F80610049A44
:1010400002918B189842C0F21081002A00F01E8194
:1010500002FB05F56FF0004E079BAE441544CDF83A
:1010600014B003EB4E0E023BB8F804A003EB4503AB
:101070000D469B463EF8027FA4B305F007034FF0F0
:10108000010CEA0851460CFA03FC0AF110034FFA6E
:101090008CFC03EBC21200236FEA0C0942440DE002
:1010A0007F2906D83F2D04D8107896B14CEA00006D
:1010B00010700133013201319C4213D007FA03F062
:1010C0000004EDD47F29F4D83F2DF2D81078002EFB
:1010D000ECD0013309EA0000013201319C4202F8F0
:1010E000010CEBD1F34505F10105C3D1DDF814B0D6
:1010F000D8F800200AEB04050199D368ADB28B4201
:1011000040F0BF808020854205D3D36801998B428F
:1011100040F0C5807F259368039AA8F80450934255
:1011200040F0AC804020029B834208D3D8F80030C6
:10113000039A9B68934240F0AC803F230293029B4A
:10114000A8F80630009A13785B4506D112F801BF63
:101150000092BBF1000F7FF454AF069809B0BDE8D0
:10116000F08FB4F9041027880029B8BF013107EBCC
:101170006107B4F90610A7EB63070029BFB2BFF6F9
:1011800001AF0131FEE6B4F900700699B4F90240EE
:101190000F80BFB24C80A4B28B80CA80FEE6B4F947
:1011A000041027880029B4F90240B8BF013107EBC9
:1011B000610706998B80A7EB63034C80A4B29FB2B2
:1011C000CA800F80EAE6A1882788B4F902400F445C
:1011D00006998B80FB1A4C80A4B29FB2CA800F8004
:1011E000DCE6E78861883944B4F90070081A06998A
:1011F00084B20F808B80BFB2CA804C80CEE6B4F937
:10120000041027880029B8BF013107EB6107A7EB5D
:101210006307B4F802C0BFB2E488069964448B80C7
:10122000201ACA800F8084B24C80B7E62788A18834
:101230000F44FF1AEDE700BF8D0A0008890A000875
:10124000B4F90610B4F802C00029B4F90070069889
:10125000B8BF0131C2800CEB610407808380BFB24C
:10126000A4EB520294B2448098E64FF0000B69E779
:1012700040469847D3E640469847DEE640469847C2
:1012800051E740469847D8F800203CE7B8F804A05A
:101290002EE740469847013883B202934FE7404615
:1012A00098470138D8F8002085B234E7D8F80030E4
:1012B0000024069A1249148054809480D480DA68FD
:1012C00001918A4205D0274640469047D8F8003021
:1012D0006EE69B680B4AA8F80440934203923FF4E1
:1012E00082AE4046984774E640469847013884B23B
:1012F00079E6404690470138D8F8003087B25FE67B
:101300008D0A0008890A00087F291ED83F2A1CD8A8
:101310006BB1D3084FF0010C02F0070201EBC313CD
:101320000CFA02F2C1180B7C1A430A747047D308F6
:101330004FF0010C02F0070201EBC3130CFA02FCA0
:10134000C1180A7C22EA0C020A7470472DE9F04F9A
:1013500083B05C1A0C9E002C9DF83490A6EB02081A
:10136000B8BF6442B8F1000FB8BFC8F100088B42A3
:101370008CBF4FF0010A4FF0FF3A9642A4EB080CE5
:1013800051D84FF0FF357F2B019512D83F2E10D842
:10139000F50806F0070E012703EBC5150544B9F162
:1013A000000F47D007FA0EF795F810E047EA0E074E
:1013B0002F74964201D18B4229D0C8F100077F29B2
:1013C00014D83F2A12D8D50802F0070B4FF0010EAF
:1013D00001EBC5150544B9F1000F1BD00EFA0BFE49
:1013E00095F810B04EEA0B0E85F810E0B7EB4C0FF5
:1013F0004FEA4C0502DAACEB080C5144AC4202DD7A
:10140000019DA4442A449942D9D19642D7D103B030
:10141000BDE8F08F0EFA0BFB95F810E02EEA0B0EEC
:1014200085F810E0E2E701257F2B0195C5D83F2E16
:10143000AED9C2E707FA0EFE2F7C964227EA0E07C6
:101440002F74B8D0B9E700BF2DE9F04F2DED068B12
:1014500083B01F4680460D469DF8503016460193D6
:10146000139B002BC0F22182129A134406EE103A0D
:10147000DDED127AB8EEC66B9FEDCD4BB8EEE77B93
:101480009FEDCD5B27EE047B26EE046B87EE050B0C
:1014900086EE05ABF7EEC08BB0EE680A15F0F0F9FA
:1014A00007EE907AB7EECAABF8EE679AB0EE408AD4
:1014B000B0EE680A15F018FD60EE698AB0EE4A0ACF
:1014C00015F0DEF9B0EE409AB0EE4A0A15F00CFDC8
:1014D00020EE690A29EE888A29EE899A70EE687AE8
:1014E000F0EE006A39EE487A67EEA77AE7EE077AFF
:1014F000F4EEE67AF1EE10FA06D5139BB42B40F326
:1015000096804FF0010901E04FF000090124784274
:101510004FF0000C0095E31B214627462246A340CE
:10152000B9F1000F6AD1424206EE90CACCF1000137
:1015300007EE102AB8EEE66A07EE901A06EE900A59
:10154000B8EEC77A139A66EE084AF8EEE77AB42A3C
:1015500027EE284AF8EEE66A67EE885A74EEC43A37
:1015600026EEA85A26EE096A66EE806A67EE897A48
:1015700027EE007AF5EEC03A40F3F280F1EE10FA71
:1015800000F17F8176EE473A74EEC54AF5EEC03A37
:10159000F1EE10FAF5EEC04ACCBF01220022F1EEC6
:1015A00010FA00F1778136EE666A35EEC55AB5EE6F
:1015B000C06AF1EE10FAB5EEC05ACCBF012100218D
:1015C000F1EE10FA00F16F8177EEE66AF5EEC06A8F
:1015D000F1EE10FACCBF0127002775EEC45AF5EEE4
:1015E000C05AF1EE10FA00F1478177EEC77AF5EEB6
:1015F000C07AF1EE10FACCBF01240024002A40F09A
:101600008A80002964D1BFB9C4BB9C4558DB0CF16A
:10161000010C03EB4C0E1CEB000F0EF1010E00F061
:10162000C08098424FDB734600287FF779AF03B044
:10163000BDEC068BBDE8F08F009DA6EB0C0E00EB19
:10164000050ABAF17F0FDFD8BEF13F0FDCD84FEAB1
:10165000DE0B019D0AEBCB1A002D00F0B1800EF0DD
:10166000070BC2444FF0010E0EFA0BFE9AF810B0B1
:101670004EEA0B0E8AF810E0002CC6D0009DA6EBB7
:101680000C0EA5EB000ABAF17F0FBED8BEF13F0FDA
:10169000BBD84FEADE0B019D0AEBCB1A002D00F000
:1016A000AE800EF0070BC2444FF0010E9C450EFABF
:1016B0000BFE9AF810B04EEA0B0E8AF810E0A6DA8C
:1016C00098429E46AFDA01300EEB40030133ABE7A0
:1016D000009D0CEB060E00EB050ABAF17F0F92D8C5
:1016E000BEF13F0F8FD84FEADE0B019D0AEBCB1AFC
:1016F000002D73D00EF0070BC2444FF0010E0EFA0E
:101700000BFE9AF810B04EEA0B0E8AF810E0002F8C
:101710003FF47AAF90E7009D0CEB060EA5EB000AB4
:10172000BAF17F0F3FF66DAFBEF13F0F3FF669AFE5
:101730004FEADE0B019D0AEBCB1A002D6DD00EF0A7
:10174000070BC2444FF0010E0EFA0BFE9AF810B0D0
:101750004EEA0B0E8AF810E000293FF454AFB7E7C9
:10176000F1EE10FA7ED44A4674EEC54AF5EEC04A50
:10177000F1EE10FA6CD4002135EEC55AB5EEC05A20
:10178000F1EE10FA5AD4002775EEC45AF5EEC05A9D
:10179000F1EE10FA3FF529AF0024002A3FF431AFF3
:1017A000B9E798428FDB00233BE700BFAFF300802F
:1017B0007A008BFCFA21094000000000008066409E
:1017C000C2444FF0010B0EF0070E0BFA0EFE9AF812
:1017D00010B02BEA0E0E8AF810E015E7C2444FF065
:1017E000010B0EF0070E0BFA0EFE9AF810B02BEA62
:1017F0000E0E8AF810E0002F3FF406AF1CE7C2443B
:101800004FF0010B0EF0070E0BFA0EFE9AF810B017
:101810002BEA0E0E8AF810E0F7E6C2444FF0010BF7
:101820000EF0070E0BFA0EFE9AF810B02BEA0E0E11
:101830008AF810E000293FF4E6AE49E777EEE66A61
:10184000F5EEC06AF1EE10FACCBF012700279BE746
:1018500036EE666AB5EEC06AF1EE10FACCBF012131
:10186000002189E776EE473AF5EEC03AF1EE10FA3C
:10187000CCBF0122002277E70124002A3FF4C1AE49
:1018800049E774EEC54A0122F5EEC04AF1EE10FABE
:101890007FF589AE35EEC55A0121B5EEC05AF1EE9D
:1018A00010FA7FF591AE012797E6DDE91223134484
:1018B00006EE102A1293139B5B421393D8E500BFE8
:1018C0002DE9F04F87B09DF84850109C2E460195A9
:1018D0009DF844509EB399422ED89946A24228D8EA
:1018E0007F29164694BF0023012308E09CF810804E
:1018F0004EEA080E8CF810E00136B44219D33F2EA0
:10190000FAD8002BF8D14FEAD60C06F0070E4FF0AC
:10191000010801EBCC1C08FA0EFE8444002DE5D131
:101920009CF810B001362BEA0E0AB4428CF810A0D5
:10193000E5D201318945D1D207B0BDE8F08FA3EBE4
:101940000108B8F1000FB8BFC8F100089942C0F013
:101950004E817F2B4FF0FF3A94BF002601263F2A8D
:10196000009694BF002701270297A6B99FB9D60811
:1019700002F0070C012703EBC6160644002D00F009
:10198000948107FA0CF796F810C047EA0C073774F1
:10199000002602960096994200F0978146469446AA
:1019A0008E46BEF17F0F16D8BCF13F0F13D84FEA19
:1019B000DC070CF0070B4FF001090EEBC7170744CB
:1019C000002D00F0398109FA0BF997F810B049EAB7
:1019D0000B0987F81090770018BFD644B84502DD90
:1019E00046440CF1FF3C7345DBD16245D9D100265A
:1019F0000496A4EB0209009FB9F1000FB8BFC9F12A
:101A000000093F2C94BF00260126A242C9F100081C
:101A10000396C0F02381002F40F05081002E40F04B
:101A20004D814FF0FF360096E60803EBC6160644DC
:101A3000002D00F01E814FF0010C04F007070CFA96
:101A400007F796F810C047EA0C073774002603968C
:101A5000A24200F03D81C44616461F4605927F2FE4
:101A600015D83F2E13D84FEAD60E06F0070B4FF0CD
:101A7000010A07EBCE1E8644002D00F0E6800AFA2C
:101A80000BFA9EF810B04AEA0B0A8EF810A0B8EBD9
:101A90004C0F4FEA4C0E02DAACEB090C013FBEF1E1
:101AA000000F01D0009A1644BB42D8D1B442D6D11F
:101AB000059AA1EB030EBEF1000FB8BFCEF1000EE8
:101AC0007F2994BF4FF0000A4FF0010A99428CBF62
:101AD0004FF001094FF0FF39BAF1000F13D1039E07
:101AE0008EB9E60801EBC6160644002D00F0D3803F
:101AF0004FF0010C04F007070CFA07F796F810C036
:101B000047EA0C073774049E26BB774626467F2B90
:101B100014D83F2E12D84FEAD60C06F0070B4FF020
:101B2000010803EBCC1C8444002D73D008FA0BF899
:101B30009CF810B048EA0B088CF810805FEA470C5C
:101B400018BF4B44E64501DD7744013E9942DED1A2
:101B5000B442DCD1A2EB040EBEF1000FB8BFCEF14F
:101B6000000EA2428CBF4FF001084FF0FF38CEF1BB
:101B7000000CBAF1000F0ED1029B63B9D30802F03A
:101B80000707012601EBC3130344002D7CD0BE40A0
:101B90001F7C3E431E74019B002B7FF4CDAE664636
:101BA0000B467F2B12D83F2C10D8E70804F0070A09
:101BB0004FF0010903EBC7170744A5B309FA0AF967
:101BC00097F810A049EA0A0987F81090BCEB460F75
:101BD0004FEA460702DAA6EB0E06013B07B1444482
:101BE0009942DED1A242DCD107B0BDE8F08F3F2A96
:101BF0004FF0010A94BF002601267F2B029694BF66
:101C0000002701270097002E7FF4C8AE002F3FF475
:101C1000AEAEC3E608FA0BFB9CF8108028EA0B086E
:101C20008CF810808AE709FA0AFA97F8109029EAE6
:101C30000A0987F81090C9E709FA0BFB97F810908A
:101C400029EA0B0987F81090C5E60AFA0BFB9EF803
:101C500010A02AEA0B0A8EF810A018E797BB8EBBDB
:101C600001260096E60803EBC6160644002D7FF415
:101C7000E2AE012704F0070C039507FA0CFC377C51
:101C800027EA0C073774E3E606FA07F71E7C26EA14
:101C900007061E747FE7012704F0070C07FA0CFC07
:101CA000377C27EA0C0737742DE707FA0CFC377CE2
:101CB000029527EA0C07009537746CE64FF0FF3663
:101CC0000096C5E601260096C5E60126049690E634
:101CD00001260196EDE600BF84B070B584B00446DD
:101CE0004FF47A7609AD85E80E009DF83830294624
:101CF0000025037104F0D8FFAE2303AA00968DF8E7
:101D00000D302046217902238DF80C5005F064F83F
:101D1000D52303AA0096204621798DF80D300223A1
:101D20008DF80C5005F058F8802303AA0096204641
:101D300021798DF80D3002238DF80C5005F04CF808
:101D4000A82303AA0096204621798DF80D3002239E
:101D50008DF80C5005F040F83F2303AA009620466A
:101D600021798DF80D3002238DF80C5005F034F8F0
:101D7000DA2303AA0096204621798DF80D3002233C
:101D80008DF80C5005F028F8122303AA009620467F
:101D900021798DF80D3002238DF80C5005F01CF8D8
:101DA000D32303AA0096204621798DF80D30022313
:101DB0008DF80C5005F010F803AA00960223217943
:101DC00020468DF80C508DF80D5005F005F8402395
:101DD00003AA0096204621798DF80D3002238DF854
:101DE0000C5004F0F9FFA62303AA0096204621799F
:101DF0008DF80D3002238DF80C5004F0EDFFA42374
:101E000003AA0096204621798DF80D3002238DF823
:101E10000C5004F0E1FF8D2303AA0096204621799F
:101E20008DF80D3002238DF80C5004F0D5FF1423EB
:101E300003AA0096204621798DF80D3002238DF8F3
:101E40000C5004F0C9FFA12303AA00962046217973
:101E50008DF80D3002238DF80C5004F0BDFFC8231F
:101E600003AA0096204621798DF80D3002238DF8C3
:101E70000C5004F0B1FF812303AA0096204621797B
:101E80008DF80D3002238DF80C5004F0A5FF8F2340
:101E900003AA0096204621798DF80D3002238DF893
:101EA0000C5004F099FFD92303AA0096204621790B
:101EB0008DF80D3002238DF80C5004F08DFF252392
:101EC00003AA0096204621798DF80D3002238DF863
:101ED0000C5004F081FFDB2303AA009620462179F1
:101EE0008DF80D3002238DF80C5004F075FF34236B
:101EF00003AA0096204621798DF80D3002238DF833
:101F00000C5004F069FFAF21009603AA02238DF85C
:101F10000D10204621798DF80C5004F05DFF04B0BF
:101F2000BDE8704004B070472DE9F04F00219A4899
:101F300000260225994CDFF8A0B22DED028B91B05E
:101F400003F058F90D2003F071F803460E20ADF8A8
:101F50001C3003F06BF803460A20ADF8203003F084
:101F600065F8ADF824009FED8E0A099B8D48DDE9E8
:101F7000071204F08FFA894800F09CF910223C23E4
:101F80000D968DF8382010AA8DF83C30864B12E95A
:101F90000700CDE90A630AAB0C958DE8070083487A
:101FA0000ECBFFF799FE0121814800F0DBFA7A4A57
:101FB0000121804801F066FE774803F055F87E481D
:101FC00001F08EFC29467C4801F00EFA7B497248EC
:101FD00003F046F806F0AEF8049006F0ABF8049B68
:101FE0000546013383423FD9D4ED028A637994EDEB
:101FF000038AB0EE680AD4F818806E480593E76942
:102000002579D4E904A902F003FFB0EE480A694833
:1020100002F0D2FE67485FFA88F102F0CDFD664813
:10202000F9B201F0E1F963485FFA89F25FFA8AF1E7
:1020300002F09AFC5F490AA802F0C2FD0A9B3C2EFE
:10204000CBF800309DF82C308BF80430C5D1DDB9C9
:102050000121574800F086FA5548002600F00CFC94
:1020600006F068F80490B8E74E4804F041FA4D4A8B
:102070001379002B67D0117B926D002978D1002A4B
:1020800071D101360495AFE7013D0221484800F0C7
:1020900069FA082DE0D8DFE805F0473A2B251E172E
:1020A000110B050042464649414801F039F8D3E793
:1020B0004A4644493E4801F033F8CDE7524642498A
:1020C0003B4801F02DF8C7E7B0EE680A3F493848B1
:1020D00000F06EFFC0E7B0EE480A3D49344800F01A
:1020E00067FFB9E73A463B49314801F019F8B3E7D1
:1020F000059B072B40D0082B46D0092B48D00A2B34
:1021000014BF002103212A4800F032FEA4E7059BFA
:10211000062B33D0052B39D00A2B14BF0021022106
:10212000234800F031FD97E7059B022B28D0032BB5
:1021300028D0042B2ED00A2B14BF002103211C48C9
:1021400000F002FC88E7174A127B002A99D01A4651
:10215000144991F82410A1F17F01B1FA81F14909E4
:1021600009B9002B8DD000230C4800F0B7F888E7A0
:10217000131E18BF0123EBE70021C4E70021CFE7BE
:102180000021DCE70121DAE70121BCE70121C7E7F3
:102190000221B8E70221D2E7F81200246C130024D0
:1021A000000000009C120024010801097C060024A4
:1021B000840A0024A4130024B4150024A50A0008EE
:1021C000D49F0108CC9F0108C49F0108B49F010857
:1021D000BC9F0108DC9F01080400002470B528485A
:1021E00000244FF60B75274E6FF0F4132649324644
:1021F0000460C360446104620467C0E90133C0E95C
:102200000A54C0E90F54C0E91654C0E90C44C0E9AF
:102210001144C0E9184414F029FB1C4832461C49FB
:10222000C0E90454C0E90B54C0E91054C0E90644A5
:10223000C0E90D44C0E9124414F018FB154D164BCB
:102240003246AC6028462B60144C154914F00EFB46
:1022500029460122134800F061F9204601F058FC9C
:102260002046114C3246114914F000FB204601F083
:1022700079F8324620460E49BDE8704014F0F6BAAF
:10228000F812002400000024810A00089C12002497
:102290007D0A000874060024EC9F0108A4130024A2
:1022A000850A0008840A0024B41500246D3C000847
:1022B000E53300084FF07E520023DFF81CC00421F4
:1022C000C26001228380C0F808C04270C0E90433B4
:1022D000C0E90613704700BF0000484283B10021E7
:1022E000012301714370002A00F08D804B1FDBB287
:1022F000012B00F294800222134642704371704712
:1023000049B141780A2911D001710329EED8DFE8DB
:1023100001F09B9883780179002AE7D00B1F052BE9
:1023200064D8DFE803F03F2D470F24190179012914
:1023300000F0A7808B1E022BE7D801220223027136
:10234000437060E00369D21800F198800B2A40F3D3
:10235000A1800B230361C9E783691A44002A40F373
:102360008A80082A40F3948008238361BEE743698A
:10237000D2187DD4052A40F3898005234361B5E74F
:1023800007EE902ADFED636A90ED037AF8EEE77AC4
:10239000A7EEA67AB4EEE67AF1EE10FA57D5C0EDC4
:1023A000036AA3E7C369D2185FD4032A6CDD032351
:1023B000C3619BE707EE902AB1EE046A90ED027AC2
:1023C000F7EE006AF8EEE77AA7EE867AB4EEE67AE0
:1023D000F1EE10FA46D4DFED507AB4EEE77AF1EE82
:1023E00010FA77FE877AC0ED027A7FE702290CD0D7
:1023F00003291CD1002A437861DC072B78D0082BF5
:1024000066D107234370437878E7002A43784ADC93
:10241000062B6DD0052B4DD106234370F3E7CB1F60
:10242000022B39D8032213464270437170470129A9
:102430007FF45CAF002A437854DC022B58D0032B86
:1024400059D102234370DEE701234370DBE7F0EE4E
:10245000007AB4EEE77AF1EE10FA77FE877AC0EDF3
:10246000037A43E7C0ED026A40E70023C3613DE71A
:10247000002343613AE70123836137E700230361C7
:1024800034E703714170BEE7C2612FE742612DE777
:1024900082612BE7026129E70429B4D101221346A6
:1024A000427043717047062B06D0052B20D00A2BB3
:1024B000A9D1B1E70A2BA6D105234370A3E7072BC7
:1024C00008D0082B0BD0092B12D00A2B9BD198E7F0
:1024D000092B02D10823437095E70A2B93D10923D6
:1024E000437090E7022B08D0032B0BD0042B0CD1A8
:1024F0000A23437087E7042B02D10323437082E74A
:102500000A2B80D1042343707DE70A2B7FF47BAF35
:1025100097E700BFCDCCCC3D0000C842F8B5802382
:10252000002704460D46C0F8083816460C4B3946BD
:10253000C0F80C784FF48062C0F81438083014F0FA
:1025400049FE4FF48062394604F5816014F042FE82
:102550000123204684F8106825602371F8BD00BF70
:1025600098A0010838B504460068094A0D4603687A
:102570001B69934207D14FF480620021103014F0A0
:1025800029FE257138BD00219847257138BD00BF4F
:10259000910A0008D0F80C28531C00EB8202594223
:1025A00082ED020ADBB2CAB258BF5342C0F80C38FF
:1025B000704700BF90F8103813B91F4B1868704768
:1025C000D0F80C38D0F80828013300B503EB020E20
:1025D00073452DDA5942DAB2C9B258BF4A4200EB0C
:1025E0008202D2ED027A01E0734521D09C4601338C
:1025F000B0EE677A5942DAB2B5EEC07AC9B258BFC6
:102600004A42F1EE10FA00EB8202D2ED027AEBD5EB
:10261000F5EEC07AF1EE10FAE6DBDCF100035FFACA
:102620008CF0054ADBB258BF584210605DF804FBDD
:10263000014B18685DF804FB981700242DE9F04F52
:10264000046887B0824623682046DB6898470028E4
:1026500040F0C78023682046DB689847013883B282
:1026600022682046A38093689847202800F2B7800C
:10267000236820469B689847013883B2DAF8000047
:10268000E3800368594A1B69934240F0AC804FF4E1
:1026900080620021103014F09DFD5046FFF78AFF44
:1026A000DAF808380590002B77DDC3B201278046A1
:1026B0000493D8F10004049A08F10108DAF8000044
:1026C000E4B2DFED4B6A5FFA88F6036858BF6242F6
:1026D000D8F100049D6933460AEB82020496E4B205
:1026E00007F1FF31D2ED027A58BF634267EEA67A56
:1026F0000AEB8303FDEEE77A93ED027A3D4B17EE8A
:10270000902A67EE267A9D42C2F12002FDEEE77A1A
:1027100082F3060217EE906A1446C6F1200686F38D
:10272000060656D1A6EB0209B9F1000FB8BFC9F1F0
:102730000009B242C9F1010536D201237F2F03936C
:1027400037D9C9F1000E4FF0010CE30804F007027D
:102750007F2901EBC31305FA0CFB0CFA02F207D830
:102760003F2C034404D893F810C042EA0C021A74B8
:10277000BEEB450F14DABBF1000FA5EB090501F123
:1027800001010DDDB942DED1A642DCD1DAF808380C
:102790000137059A134443458BDC07B0BDE8F08F41
:1027A000039B01351C44EDE74FF0FF337F2F03936C
:1027B000C7D8F3084FF0010C06F0070207EBC3136C
:1027C0000CFA02F2034493F810C042EA0C021A74A5
:1027D000B7E70123009601933B46A847D6E720239D
:1027E0004CE700233CE70021984756E7910A000890
:1027F000000020424D13000830B5054600681C4A11
:1028000083B003681B6993422ED14FF4806200218C
:10281000103014F0DFFC2C6823682046DB689847F2
:10282000F0B923682046DB689847013883B22268F4
:102830002046A38093689847A0B9236820469B68E8
:102840009847013883B228680A4AE3800123046864
:10285000D5F814180093A46A0CCAA04703B030BD81
:102860000023E4E70023EEE700219847D3E700BF09
:10287000910A00084C01002403792DE9F047044631
:1028800084B0002B55D0012B01D1FFF7D7FE26686D
:102890002C4A33681B6B93424ED106F1080806F1AF
:1028A0008F0706F28F4A4FF0B00900244FF47A7573
:1028B000022303AA8DF80C4040468DF80D90317B21
:1028C000009504F089FA8DF80C408DF80D40022334
:1028D000317B03AA4046009504F07EFA10238DF860
:1028E0000C4003AA8DF80D304046317B0223009541
:1028F000A7F1800404F070FA40214FF47A750223A6
:1029000003AA8DF80C10404614F8011F8DF80D1025
:10291000317B009504F060FABC42EDD104F18007F0
:1029200009F10109BA455FFA89F9BED104B0BDE8E1
:10293000F087FFF761FFAAE7304604B0BDE8F04733
:10294000184700BF0D0B0008F0B505460068864A21
:1029500083B003680C461B69934240F001814FF439
:1029600080620021103014F035FC2E683368304648
:10297000DB689847002840F0F18033683046DB6818
:102980009847013883B232683046B38093689847DD
:10299000002840F0E180336830469B689847013852
:1029A00083B228680122F3800368704E0092704958
:1029B0009F6A96E80C00B8472F683B683846DB688A
:1029C00098470A2800F2C6803B683846DB6898477B
:1029D000013883B2BB8038463B689B6898470F2814
:1029E00000F2B6803B6838469B689847013883B24E
:1029F00028680122FB8003685E4900929F6A96E87E
:102A00000C00B8472F683B683846DB6898470A28AF
:102A100000F29C803B683846DB689847013883B2F7
:102A2000BB8038463B689B6898471B2800F28C8027
:102A30003B6838469B689847013883B22868012272
:102A4000FB8003684C4900929F6A96E80C00B847E7
:102A50002F683B683846DB6898470A2872D83B687D
:102A60003846DB689847013883B2BB8038463B68FC
:102A70009B689847272863D83B6838469B689847E7
:102A8000013883B228680122FB8003683B49009229
:102A90009F6A96E80C00B8472F683B683846DB68A9
:102AA00098470A284AD83B683846DB689847013877
:102AB00083B2BB8038463B689B68984733283BD835
:102AC0003B6838469B689847013883B228680122E2
:102AD000FB8004EB440403682949A40000929F6A28
:102AE0000F3496E80C00B8472F68A4B23B6838460C
:102AF000DB689847F0B93B683846DB68984701388F
:102B000083B2BB8038463B689B689847844205D3B4
:102B10003B6838469B689847013884B2286801238F
:102B2000FC80016800938C6A164996E80C00A04767
:102B300003B0F0BD0023E4E73323C7E70A23B8E777
:102B400027239FE70A2390E71B2377E70A2367E7FA
:102B50000F234DE70A233DE7002322E7002312E776
:102B60000021984701E700BF910A000854010024A2
:102B7000A4A00108B4A00108C0A00108C8A00108D1
:102B8000D0A00108D8A00108F0B505460068714A38
:102B900083B003680C461B69934240F0D7804FF422
:102BA00080620021103014F015FB2E683368304627
:102BB000DB689847002840F0C78033683046DB6800
:102BC0009847013883B232683046B380936898479B
:102BD000002840F0B780336830469B68984701383A
:102BE00083B228680122F38003685B4E00925B4940
:102BF0009F6A96E80C00B8472F683B683846DB6848
:102C000098470A2800F29C803B683846DB68984762
:102C1000013883B2BB8038463B689B6898470F28D1
:102C200000F28C803B6838469B689847013883B235
:102C300028680122FB800368494900929F6A96E850
:102C40000C00B8472F683B683846DB6898470A286D
:102C500072D83B683846DB689847013883B2BB803E
:102C600038463B689B6898471B2863D83B683846C2
:102C70009B689847013883B228680122FB8003686B
:102C8000384900929F6A96E80C00B8472F683B6865
:102C90003846DB6898470A284AD83B683846DB68DC
:102CA0009847013883B2BB8038463B689B68984799
:102CB00027283BD83B6838469B689847013883B241
:102CC00028680122FB8004EB440403682649A40021
:102CD00000929F6A0F3496E80C00B8472F68A4B2A0
:102CE0003B683846DB689847F0B93B683846DB6894
:102CF0009847013883B2BB8038463B689B68984749
:102D0000844205D33B6838469B689847013884B2B3
:102D100028680123FC80016800938C6A134996E8B7
:102D20000C00A04703B0F0BD0023E4E72723C7E76A
:102D30000A23B8E71B239FE70A2390E70F2377E7CF
:102D40000A2367E700234CE700233CE7002198476C
:102D50002BE700BF910A000854010024DCA0010801
:102D6000ECA00108F4A00108FCA00108D8A001080B
:102D7000F0B505460068864A83B003680C461B69B7
:102D8000934240F001814FF480620021103014F032
:102D900021FA2E6833683046DB689847002840F0F7
:102DA000F18033683046DB689847013883B2326877
:102DB0003046B38093689847002840F0E18033683C
:102DC00030469B689847013883B228680122F38017
:102DD0000368704E009270499F6A96E80C00B847ED
:102DE0002F683B683846DB6898470A2800F2C6809F
:102DF0003B683846DB689847013883B2BB80384669
:102E00003B689B6898470F2800F2B6803B683846BD
:102E10009B689847013883B228680122FB800368C9
:102E20005E4900929F6A96E80C00B8472F683B689D
:102E30003846DB6898470A2800F29C803B68384691
:102E4000DB689847013883B2BB8038463B689B6893
:102E500098471B2800F28C803B6838469B6898474F
:102E6000013883B228680122FB8003684C49009234
:102E70009F6A96E80C00B8472F683B683846DB68C5
:102E800098470A2872D83B683846DB68984701386B
:102E900083B2BB8038463B689B689847272863D835
:102EA0003B6838469B689847013883B228680122FE
:102EB000FB8003683B4900929F6A96E80C00B84784
:102EC0002F683B683846DB6898470A284AD83B6831
:102ED0003846DB689847013883B2BB8038463B6888
:102EE0009B68984733283BD83B6838469B6898478F
:102EF000013883B228680122FB8004EB4404036894
:102F00002949A40000929F6A0F3496E80C00B84744
:102F10002F68A4B23B683846DB689847F0B93B6835
:102F20003846DB689847013883B2BB8038463B6837
:102F30009B689847844205D33B6838469B6898470E
:102F4000013884B228680123FC80016800938C6AF0
:102F5000164996E80C00A04703B0F0BD0023E4E753
:102F60003323C7E70A23B8E727239FE70A2390E71D
:102F70001B2377E70A2367E70F234DE70A233DE783
:102F8000002322E7002312E70021984701E700BF52
:102F9000910A00085401002404A1010810A10108AD
:102FA0001CA1010828A10108FCA00108D8A0010863
:102FB00070B504460068544A0E4603681B69934284
:102FC0002DED028BB0EE408A86B040F099804FF430
:102FD00080620021103014F0FDF825682B68284627
:102FE000DB68984700287FD12B682846DB68984724
:102FF000013883B22A682846AB8093689847002836
:103000007CD12B6828469B689847013883B220689A
:103010000121EB8002683D4B00913D49956A0CCB44
:10302000A84725682B682846DB689847002863D1A5
:103030002B682846DB689847013883B22A682846FF
:10304000AB80936898470C2854D82B6828469B6817
:103050009847013883B220683146EB80012203682B
:103060002C4E00929D6A96E80C00A847FDEEC87AA7
:103070009FED297A02A82949F8EEE76A17EE902A0F
:1030800078EE667A67EE877AFDEEE77A17EE903A89
:10309000002BB8BF5B4214F09DFD25682B682846C5
:1030A000DB68984720BB2B682846DB6898470138C7
:1030B00083B2AB8028462B689B689847232815D895
:1030C0002B6828469B689847013883B22068012105
:1030D000EB80046896E80C00009102A9A46AA0475E
:1030E00006B0BDEC028B70BD002383E72323EDE720
:1030F0000023DEE70C23AEE700239FE7002386E7EB
:103100000021984769E700BF910A00085401002494
:1031100030A101084C0100240000C84238A1010878
:103120002DE9F043044600681746804A036893B0CF
:103130000E461B69934240F0F5804FF480621030D8
:10314000002114F047F825682B682846DB6898476B
:10315000002840F095802B682846DB6898470138A6
:1031600083B2AB8028462B689B689847002840F0C4
:103170008D802B6828469B689847013883B2206869
:103180000121EB8002686A4B00916A49956A0CCB79
:10319000A84725682B682846DB689847002873D124
:1031A0002B682846DB689847013883B2AB802846F5
:1031B0002B689B6898470F2864D82B6828469B6823
:1031C0009847013883B220680122EB8031460368BA
:1031D000DFF8888100929D6A98E80C00A84756495C
:1031E0003046FDF77DF8002875D054493046FDF78C
:1031F00077F800284CD052493046FDF771F8002886
:1032000040F088804F4B06AD4F4A0DF1080983FB13
:10321000071312A9A3EBE77303EB4303FB1A01EBBC
:10322000830307CA85E80700484653F8301C14F0AA
:10323000F1FC25682B682846DB689847002848D1B0
:103240002B682846DB689847013883B2AB80284654
:103250002B689B689847262839D82B6828469B6896
:103260009847013883B220680121EB8004680091FF
:103270004946A46A98E80C00A04713B0BDE8F08363
:1032800000236EE70F239EE700238FE7002376E7F6
:103290002E4B06AEDFF8C8C00DF1080983FB0723EB
:1032A000DA19FB17C3EBA203C3EBC303FD1A12AB7E
:1032B00003EB8505BCE80F000FC69CE8070086E815
:1032C0000700484655F8301C14F0A4FCB1E726234B
:1032D000C9E70023BAE71E4A06AD1E4E0DF10809E4
:1032E00082FB0732FB17C3EB620303EB4303A7EB3D
:1032F000830712AB03EB87070FCE0FC50FCE0FC5A9
:1033000096E80F0085E80F00484657F8301C14F087
:1033100081FC8EE70DF108093A460F49484614F042
:1033200059FC86E7002198470DE700BF910A000885
:103330005401002440A10108C49F0108CC9F01084A
:10334000DC9F010856555555689E01089324499203
:10335000ABAAAA2A1C9E01084CA101084C0100241A
:103360004C9E01080021DFF878C00022C0F8B010A0
:10337000C0F8B410C0F8B8C0C0F8BC10C0F8C0C0E5
:10338000C0F8C4C0C0F8C8C0C0F8CC10C0F8D01095
:10339000C0F8D410A0F8DC20C0F8E010C0F8E410A9
:1033A000C0F8E8C0C0F8EC10C0F8F0C0C0F8F4C035
:1033B000C0F8F8C0C0F8FC10C0F80011C0F8041143
:1033C000A0F80C21C0E94722C0E94922C0E94B22FC
:1033D000C0E94D22C0E94F22C0E95122704700BF29
:1033E000000080BF704700BF012970B504462DED75
:1033F000028B80F8DC1182B000F0CB80022900F053
:10340000DF81002900F0228190F86C11D0F870C1A2
:10341000D0ED5D6A90F87C2194ED617AD0F880015E
:10342000D4ED657A94F88C31D4F89051082994ED54
:10343000660ADFEDB58AB7EE008A28BF0021082AA8
:10344000C4F804C028BF0022082B217028BF002325
:10345000206384F82C2004F1580084F85830E56586
:1034600004F1B005C6FEA86A87FE287AC6FEC86ABF
:1034700087FE487AC4ED036A84ED0E7AC7FEA87A07
:1034800084ED180AC7FEC87AC4ED197A13F0E8F97A
:1034900094F89C31B0EE407AD4F8A021082B94ED3A
:1034A0006A0AC4F8882004F1840028BF002384ED50
:1034B0001D7AD4ED697A84F88430C7FEA87A84ED49
:1034C000230AC7FEC87AC4ED247A13F0C9F9F0EED6
:1034D000407A012194ED6B0A28460195C4ED287AC3
:1034E00012F01AFD94ED6C0A0221019812F014FDFD
:1034F00094ED6E0A0421019812F00EFDD4ED6D7A60
:10350000F4EEE87AF1EE10FA3DD9F4EE487AF1EEF5
:1035100010FA78FE277A04F1E000C4ED2C7A94EDDD
:10352000700A0121019012F0F7FC94ED710A02215A
:10353000019812F0F1FC94ED730A0421019812F045
:10354000EBFCD4ED727AF5EEC07AF1EE10FA1DD9EB
:10355000B7EE007AF4EE477AF1EE10FA77FE277AAA
:1035600004F5887094ED750AC4ED387A019012F074
:103570004FFF94ED760A019802B0BDEC028BBDE8D6
:10358000704012F0A3BFDFED617AC4E7DFED5F7A30
:10359000E6E75F4E5F4AD6ED007A5F4E5F4B3678C6
:1035A000D2ED006A84F89C615D4E1A7836685D48F9
:1035B000C4F8A0615C4E5D4B3668D0F800C0C4F81A
:1035C000A4615B4E186836685A4BC4F8AC615A4E19
:1035D00093ED007A36685949C4F8B061584E594B9A
:1035E0003668594DC4F8B861584E097836681B786A
:1035F0002D68C4F8B461564E84F86C11C4F870C1DB
:10360000C4ED5D6A84F87C21C4F8800184ED617AA0
:1036100084F88C31C4F89051C4ED657A3668C4F8EA
:10362000C0614C4E3668C4F8C4614B4E3668C4F86D
:10363000CC614A4E3668C4F8C861494E3668C4F851
:10364000D461484E3668C4F8D861EFE6464E474A22
:10365000D6ED007A464E474B3678D2ED006A84F8B4
:103660009C61454E1A7836684448C4F8A061444EBF
:10367000444B3668D0F800C0C4F8A461424E1868C4
:103680003668424BC4F8AC61414E93ED007A36681F
:103690004049C4F8B061404E404B3668404DC4F8D4
:1036A000B861404E097836681B782D68C4F8B4615B
:1036B0003D4E84F86C11C4F870C1C4ED5D6A84F8A5
:1036C0007C21C4F8800184ED617A84F88C31C4F8DF
:1036D0009051C4ED657A3668C4F8C061334E3668DF
:1036E000C4F8C461324E3668C4F8CC61314E3668D5
:1036F000C4F8C861304E3668C4F8D4612F4E3668BD
:10370000C4F8D86192E600BF000000000AD723BCCD
:103710007C000024F000002485000024F90000242F
:1037200078000024C400002480000024C800002485
:10373000CC000024F4000024D4000024F80000246D
:10374000E80000248400002474000024A017002452
:10375000D8000024DC000024E0000024E400002461
:10376000D0000024EC00002468000024B4000024F1
:1037700071000024C000002464000024880000249C
:103780006C0000248C00002490000024B800002469
:10379000980000249C170024AC0000247000002432
:1037A00060000024BC0000249C000024A000002431
:1037B000A4000024A800002494000024B0000024E9
:1037C000304E314AD6ED007A304E314B3678D2ED5C
:1037D000006A84F89C612F4E1A7836682E48C4F827
:1037E000A0612E4E2E4B3668D0F800C0C4F8A461FC
:1037F0002C4E186836682C4BC4F8AC612B4E93EDF8
:10380000007A36682A49C4F8B0612A4E2A4B3668D5
:103810002A4DC4F8B8612A4E097836681B782D689D
:10382000C4F8B461274E84F86C11C4F870C1C4EDBB
:103830005D6A84F87C21C4F8800184ED617A84F8A3
:103840008C31C4F89051C4ED657A3668C4F8C06113
:103850001D4E3668C4F8C4611C4E3668C4F8CC618D
:103860001B4E3668C4F8C8611A4E3668C4F8D06179
:10387000194E3668C4F8D461184ED6F800E0C4F882
:10388000D8E1D3E5540000243C0000245D0000246E
:1038900049000024500000240C000024580000249B
:1038A0001000002414000024400000241C00002408
:1038B00048000024340000245C0000244C00002454
:1038C0004400002424000024280000242C000024AC
:1038D00030000024200000241800002438000024B8
:1038E000F7EE007A2DE9F0412DED048B87EE809AFA
:1038F0004FF07C55DFED428A4FF0000845600446EA
:10390000C0ED028A0026C56040F20117B0EE408A81
:10391000C0F81880B0EE680A80ED048A80ED059A40
:1039200012F09EFFF0EE407A04F12C0084ED0F8A35
:1039300084ED109AB0EE680AC4ED077AC4ED0D8AE2
:10394000267027852563A563C4F8448012F088FF9C
:1039500004F1580084ED120AB0EE680A84ED1A8A68
:1039600084ED1B9AC4ED188A84F82C60A4F8547076
:10397000E5656566C4F8708012F072FF04F184009A
:1039800084ED1D0AB0EE680A84ED258A84ED269A3E
:10399000C4ED238AC4F89C8084F85860A4F8807031
:1039A000C4F88850C4F8905012F05AFFF0EE407AF4
:1039B00004F1B000B0EE480A012184F88460C4ED3F
:1039C000287AA4F8AC7012F02FFAB0EE480A012160
:1039D00004F1E00012F028FA04F58870B0EE480A0D
:1039E00012F07AFB074B204684F8DD61C4F8E03121
:1039F0000221BDEC048BBDE8F041FFF7F5BC00BF30
:103A00000000C8420000DC4370B582B0044602AB3F
:103A100003E90600DDED007A9DF8045037EEA77A41
:103A2000C0ED5E7A80ED627A15B190F8DD611EB16D
:103A300084F8DD5102B070BD3146B03012F064FA46
:103A4000314604F1E00012F05FFA84F8DD5102B073
:103A500070BD00BF70B52DED028BB7EE008A044635
:103A60005830D4ED5E8A12F045FD30EE080A20464B
:103A700004F12C0604F5887520EE280A84ED020A6C
:103A800012F0EEFE04F1840084ED070AD4ED628AA0
:103A900012F030FD30EE080A304620EE280A84EDA0
:103AA0000D0A12F0DDFE94F8DD1104F1B00084ED92
:103AB000120A12F0B9FA94F8DD1104F1E000F0EE08
:103AC000408A12F0B1FA114BD4ED747A284693ED86
:103AD000007A20EE070A20EE270A12F099FC204611
:103AE00012F008FDB0EE408A304612F003FDF6EE0B
:103AF000007A38EE008A284628EE278A28EE880ABF
:103B0000BDEC028BBDE8704012F08CBB18000024A5
:103B10002DE9F04F012100245A230546504A87B071
:103B2000037505F5B078C16305F5DA7A80F82C30B5
:103B300080F8483040F20323C26042620264C0E968
:103B40000141C0E907410321C0E90D4485F8501047
:103B500054302B832B8601F095F905F19C0001F080
:103B600017FA4FF080404FF07E520023C5F8C00096
:103B70004FF0FF30C5F8C42005F5E47C394A3A49D6
:103B8000C5F8B80040F2047085F8B4400C46C5F89A
:103B9000BC3005F5A271C5F8CC3004F11C09C5F89C
:103BA000D8300E46C5F8D02004F13807C5F8D42027
:103BB00005F5CC72C5F8DC3005F5BE73A5F8C80074
:103BC00004F1B400019304F15403029205F5FC7270
:103BD000039304F1700B059004F1840E04920FCC52
:103BE0000FC694E8070086E80700B9E80F00A8E8C8
:103BF0000F0099E80700019C88E807000FCF0FC469
:103C0000039B97E807001E4684E807000FCE029C3E
:103C100027460FC796E8070087E80700BBE80F00B4
:103C2000AAE80F00DBF80030CAF80030BEE80F0049
:103C3000ACE80F00BEE80F00ACE80F009EE80F00F4
:103C40008CE80F000598049C06460FCE0FC496E83A
:103C5000030084E80300284607B0BDE8F08F00BFEA
:103C60000108010900004842749E010810B504468D
:103C70009C3001F09BF904F1540001F033F9204627
:103C800010BD00BF2DE9F04F04469BB00127026034
:103C9000079114AD87600DF15009406804F11C0EC6
:103CA000A1680DF1280CE2680FAE2369E246E346F5
:103CB0004FF00A080FC5238B6069AB80AB88286082
:103CC00004F13405E0622386B9E80F00E0614FF0AB
:103CD000000921626262A362BEE80F00ACE80F0037
:103CE0004FF010030F908DF84C30DEF80030CCF818
:103CF000003084F8483000230A90CDE91173BDF8F4
:103D00003030ADF84030BDF83230ADF84230BAE86E
:103D10000F00A0632846E16331462264636402F029
:103D2000C3FF00965E22CDE9017894F84C3094F8F8
:103D30004810002818BF43F00103284684F84C308F
:103D400063238DF827303B4603F06EF800965E2221
:103D5000CDE9017894F84C3094F84810002818BF49
:103D600043F00103284684F84C309DF83C308DF830
:103D70003C908DF828303B4603F07EF80DF1270388
:103D800080220093CDE9017894F84C3094F84810E3
:103D9000002818BF43F00103284684F84C303B4606
:103DA00003F06AF8CDF800B05E22CDE9017894F80E
:103DB0004C3094F84810002818BF43F001032846FF
:103DC00084F84C303B4603F057F894F84C30002808
:103DD00018BF43F00103384684F84C3004F0ACF9C6
:103DE0003B465E22009628468DF83C90CDE901784E
:103DF00094F8481003F040F800963B46CDE901786E
:103E000094F84C2094F84810002818BF42F00102A2
:103E1000284684F84C205D2203F006F894F84C30D4
:103E2000002818BF43F0010384F84C309DF83C3063
:103E3000242B10D02068012101F01AF92068642198
:103E400001F00AF92068002101F012F964212068CC
:103E500001F002F9EEE794F830304FF04109059394
:103E600094F83130069301274FF00A08059B5E2233
:103E7000009628468DF827303B464FF0000ACDE9E2
:103E8000017894F8481002F0CFFF00965E22CDE949
:103E9000017894F84C3094F84810002818BF43F08B
:103EA0000103284684F84C309DF83C308DF83CA046
:103EB0008DF828303B4602F0DFFF0DF127034A461C
:103EC0000093CDE9017894F84C3094F848105045AF
:103ED00018BF43F00103284684F84C303B4602F0FB
:103EE000CBFFCDF800B05E22CDE9017894F84C30DC
:103EF00094F84810504518BF43F00103284684F851
:103F00004C303B4602F0B8FF069B00965E228DF8CF
:103F10002730CDE9017894F84C3094F8481050459A
:103F200018BF43F00103284684F84C303B4602F0AA
:103F30007BFF00965E22CDE9017894F84C3094F82E
:103F40004810504518BF43F00103284684F84C3010
:103F50009DF83C308DF83CA08DF828303B4602F0AF
:103F60008BFF0DF1270309EB070209F1020900930A
:103F700092B21FFA89F9CDE9017894F84C3094F89F
:103F80004810504518BF43F00103284684F84C30D0
:103F90003B4602F071FFCDF800B05E22CDE901781A
:103FA00094F84C3094F84810504518BF43F0010382
:103FB000284684F84C303B4602F05EFF94F84C30C3
:103FC000504518BF43F00103B9F1590F84F84C3044
:103FD0007FF449AF3B465E22009628468DF8277055
:103FE000CDE9017894F8481002F01EFF00965E2299
:103FF000CDE9017894F84C3094F84810504518BF3A
:1040000043F00103284684F84C309DF83C308DF88D
:104010003CA08DF828303B4602F02EFF0DF127031F
:104020002B220093CDE9017894F84C3094F8481095
:10403000504518BF43F00103284684F84C303B46F6
:1040400002F01AFFCDF800B05E22CDE9017894F8B5
:104050004C3094F84810504518BF43F001032846EF
:1040600084F84C303B4602F007FF00965E228DF844
:104070002770CDE9017894F84C3094F848105045F9
:1040800018BF43F00103284684F84C303B4602F049
:10409000CBFE00965E22CDE9017894F84C3094F87E
:1040A0004810504518BF43F00103284684F84C30AF
:1040B0009DF83C308DF83CA08DF828303B4602F04E
:1040C000DBFE0DF127032C220093CDE9017894F853
:1040D0004C3094F84810504518BF43F0010328466F
:1040E00084F84C303B4602F0C7FECDF800B05E22AB
:1040F000CDE9017894F84C3094F84810504518BF39
:1041000043F00103284684F84C303B4602F0B4FEED
:1041100000965E22CDE9017894F84C3094F848106E
:10412000504518BF43F00103284684F84C300E2355
:104130008DF827303B4602F077FE00965E22CDE9EF
:10414000017894F84C3094F84810504518BF43F06B
:104150000103284684F84C309DF83C308DF83CA093
:104160008DF828303B4602F087FE0DF127032D2203
:104170000093CDE9017894F84C3094F848105045FC
:1041800018BF43F00103284684F84C303B4602F048
:1041900073FECDF800B05E22CDE9017894F84C3082
:1041A00094F84810504518BF43F00103284684F89E
:1041B0004C303B4602F060FE00965E228DF827A050
:1041C000CDE9017894F84C3094F84810504518BF68
:1041D00043F00103284684F84C303B4602F024FEAD
:1041E00000965E22CDE9017894F84C3094F848109E
:1041F000504518BF43F00103284684F84C309DF821
:104200003C308DF83CA08DF828303B4602F034FE5F
:104210000DF127032E220093CDE9017894F84C305C
:1042200094F84810504518BF43F00103284684F81D
:104230004C303B4602F020FECDF800B05E22CDE9C6
:10424000017894F84C3094F84810504518BF43F06A
:104250000103284684F84C303B4602F00DFE0096E0
:104260005E228DF82770CDE9017894F84C3094F8EF
:104270004810504518BF43F00103284684F84C30DD
:104280003B4602F0D1FD00965E22CDE9017894F81C
:104290004C3094F84810504518BF43F001032846AD
:1042A00084F84C309DF83C308DF83CA08DF82830D7
:1042B0003B4602F0E1FD0DF127032F220093CDE9EB
:1042C000017894F84C3094F84810504518BF43F0EA
:1042D0000103284684F84C303B4602F0CDFDCDF872
:1042E00000B05E22CDE9017894F84C3094F8481083
:1042F000504518BF43F00103284684F84C303B4634
:1043000002F0BAFD00965E22CDE9017894F84C30B7
:1043100094F84810504518BF43F00103284684F82C
:104320004C3005238DF827303B4602F07DFD00968A
:104330005E22CDE9017894F84C3094F8481050454D
:1043400018BF43F00103284684F84C309DF83C30F8
:104350008DF83CA08DF828303B4602F08DFD0DF124
:10436000270330220093CDE9017894F84C3094F87B
:104370004810504518BF43F00103284684F84C30DC
:104380003B4602F079FDCDF800B05E22CDE9017820
:1043900094F84C3094F84810504518BF43F001038E
:1043A000284684F84C303B4602F066FD00965E22BB
:1043B0008DF82770CDE9017894F84C3094F84810C6
:1043C000504518BF43F00103284684F84C303B4663
:1043D00002F02AFD00965E22CDE9017894F84C3077
:1043E00094F84810504518BF43F00103284684F85C
:1043F0004C309DF83C308DF83CA08DF828303B4681
:1044000002F03AFD0DF1270331220093CDE9017846
:1044100094F84C3094F84810504518BF43F001030D
:10442000284684F84C303B4602F026FDCDF800B01B
:104430005E22CDE9017894F84C3094F8481050454C
:1044400018BF43F00103284684F84C303B4602F085
:1044500013FD00965E228DF827A0CDE9017894F82F
:104460004C3094F84810504518BF43F001032846DB
:1044700084F84C303B4602F0D7FC00965E22CDE932
:10448000017894F84C3094F84810504518BF43F028
:104490000103284684F84C309DF83C308DF83CA050
:1044A0008DF828303B4602F0E7FC0DF1270332225D
:1044B0000093CDE9017894F84C3094F848105045B9
:1044C00018BF43F00103284684F84C303B4602F005
:1044D000D3FCCDF800B05E22CDE9017894F84C30E1
:1044E00094F84810504518BF43F00103284684F85B
:1044F0004C303B4602F0C0FC00965E228DF827A0AF
:10450000CDE9017894F84C3094F84810504518BF24
:1045100043F00103284684F84C303B4602F084FC0B
:1045200000965E22CDE9017894F84C3094F848105A
:10453000504518BF43F00103284684F84C309DF8DD
:104540003C308DF83CA08DF828303B4602F094FCBE
:104550000DF1270333220093CDE9017894F84C3014
:1045600094F84810504518BF43F00103284684F8DA
:104570004C303B4602F080FCCDF800B05E22CDE925
:10458000017894F84C3094F84810504518BF43F027
:104590000103284684F84C303B4602F06DFC00963F
:1045A0005E228DF827A0CDE9017894F84C3094F87C
:1045B0004810504518BF43F00103284684F84C309A
:1045C0003B4602F031FC00965E22CDE9017894F87A
:1045D0004C3094F84810504518BF43F0010328466A
:1045E00084F84C309DF83C308DF83CA08DF8283094
:1045F0003B4602F041FC0DF1270334220093CDE944
:10460000017894F84C3094F84810504518BF43F0A6
:104610000103284684F84C303B4602F02DFCCDF8CF
:1046200000B05E22CDE9017894F84C3094F848103F
:10463000504518BF43F00103284684F84C303B46F0
:1046400002F01AFC00965E228DF827A0CDE90178D1
:1046500094F84C3094F84810504518BF43F00103CB
:10466000284684F84C303B4602F0DEFB00965E2282
:10467000CDE9017894F84C3094F84810504518BFB3
:1046800043F00103284684F84C309DF83C308DF807
:104690003CA08DF828303B4602F0EEFB0DF12703DD
:1046A00035220093CDE9017894F84C3094F8481005
:1046B000504518BF43F00103284684F84C303B4670
:1046C00002F0DAFBCDF800B05E22CDE9017894F873
:1046D0004C3094F84810504518BF43F00103284669
:1046E00084F84C303B4602F0C7FB00965E228DF802
:1046F00027A0CDE9017894F84C3094F84810504543
:1047000018BF43F00103284684F84C303B4602F0C2
:104710008BFB00965E22CDE9017894F84C3094F83A
:104720004810504518BF43F00103284684F84C3028
:104730009DF83C308DF83CA08DF828303B4602F0C7
:104740009BFB0DF127035B220093CDE9017894F8E0
:104750004C3094F84810504518BF43F001032846E8
:1047600084F84C303B4602F087FBCDF800B05E2267
:10477000CDE9017894F84C3094F84810504518BFB2
:1047800043F00103284684F84C303B4602F074FBAA
:1047900000965E22CDE9017894F84C3094F84810E8
:1047A000504518BF43F00103284684F84C301023CD
:1047B0008DF827303B4602F037FB00965E22CDE9AC
:1047C000017894F84C3094F84810504518BF43F0E5
:1047D0000103284684F84C309DF83C308DF83CA00D
:1047E0008DF828303B4602F047FB0DF127035C2291
:1047F0000093CDE9017894F84C3094F84810504576
:1048000018BF43F00103284684F84C303B4602F0C1
:1048100033FBCDF800B05E22CDE9017894F84C303E
:1048200094F84810504518BF43F00103284684F817
:104830004C303B4602F020FB00965E22CDE9017829
:1048400094F84C3094F84810504518BF43F00103D9
:10485000284684F84C3020238DF827303B4602F060
:10486000E3FA00965E22CDE9017894F84C3094F892
:104870004810504518BF43F00103284684F84C30D7
:104880009DF83C308DF83CA08DF828303B4602F076
:10489000F3FA0DF127035D228DE8880194F84C307E
:1048A00094F84810504518BF43F00103284684F897
:1048B0004C303B4602F0E0FACDF800B05E22CDE984
:1048C000017894F84C3094F84810504518BF43F0E4
:1048D0000103284684F84C303B4602F0CDFA00969E
:1048E00002462846CDE9017894F84C3094F84810F7
:1048F000524518BF43F001035E2284F84C308C23EC
:104900008DF83C303B4602F0B7FA94F84C305045F5
:1049100018BF43F001031BB184F84CA0FFF78ABA1B
:10492000254684F84C30394655F8540B00F0A0FB6E
:104930000799284600F0D8FA04F19C0000F038FBF3
:104940000023042007494FF0FF32C4F8D830C4F8E0
:10495000DC3084F8C800C4F8BC10C4F8B8201BB020
:10496000BDE8F08F0000DC4370B507EE901A0446F6
:104970002DED028B062A27D8DFE812F026009E00D4
:10498000C000E20004010700800000F58A750C21D8
:1049900000F5E47300F5FC7E2A4680F8C910D3F8D0
:1049A00000C0103353F80C6C103253F8080C53F855
:1049B000041C734542F810CC42F80C6C42F8080C09
:1049C00042F8041CEBD120E0D0F84C3104F58A7594
:1049D000D0F84411D0F848210720C4F81C31D4F88D
:1049E0005031C4F81411C4F81821D4F85411D4F873
:1049F0005821C4F82031D4F85C3184F8C900C4F8D7
:104A00002411C4F82821C4F82C31F8EE677AF2EEAC
:104A1000080AB0EE000AC7EEA00A12F0D1F894F826
:104A2000C93053B12A4605EB8301D2ED007A67EE17
:104A3000807AE2EC017A8A42F7D104F1E00600259F
:104A400007EE903A07EE105A94ED338A0135F8EEEE
:104A5000E77AD4ED358AB8EEC70AD4ED310A80EE94
:104A6000270A12F0ADF8A8EE808AA6EC018A94F825
:104A7000C930AB42E4DABDEC028B70BDD0F8F8214E
:104A800004F58A75D0F8FC310620D4F80062D4F819
:104A90000412C4F81421C4F81831D4F80822D4F848
:104AA0000C32C4F82421C4F81C6184F8C900C4F88D
:104AB0002011C4F82831A8E7D0F8683104F58A75C8
:104AC000D0F86011D0F864210720C4F81C31D4F864
:104AD0006C31C4F81411C4F81821D4F87011D4F84A
:104AE0007421C4F82031D4F8783184F8C900C4F8AE
:104AF0002411C4F82821C4F82C3186E7D0F8843179
:104B000004F58A75D0F87C11D0F880210720C4F80C
:104B10001C31D4F88831C4F81411C4F81821D4F821
:104B20008C11D4F89021C4F82031D4F8943184F851
:104B3000C900C4F82411C4F82821C4F82C3164E752
:104B4000D0F8A03104F58A75D0F89811D0F89C21DE
:104B50000720C4F81C31D4F8A431C4F81411C4F8E7
:104B60001821D4F8A811D4F8AC21C4F82031D4F815
:104B7000B03184F8C900C4F82411C4F82821C4F85D
:104B80002C3142E7D0F8B431052104F58A75C0F81C
:104B90001431D4F8BC31D0F8B801D4F8C021C4F82D
:104BA0001C31D4F8C431C4F8180184F8C910C4F811
:104BB0002021C4F8243128E780F8C810704700BFCE
:104BC0002DE9F0412DED028B86B00A22022301F17E
:104BD00034070DF116060C46054638460096CDE919
:104BE0000132012391ED2F8A002291F8481002F042
:104BF0001BF994F84C30002818BF43F0010384F8E7
:104C00004C30BDF8163013F0010300F0A18094F889
:104C1000B43013B9012384F8B43001234FF00A08EB
:104C200000961E2201933846CDF8088094F848106B
:104C300002F0FAF80096CDF80880014694F84C206E
:104C4000012338469DF81660002918BF42F0010282
:104C500084F84C2002220192042294F8481002F0B9
:104C6000E3F8BDF8163094F84C20C3EB8603002817
:104C700018BF42F0010204F19C0000EE103A94F8D3
:104C8000503084F84C2007EE103AF8EEC07AB8EEB7
:104C9000470A37EEC00A84ED360A00F091F904F1B4
:104CA000540000F029F9D4F8B830D4ED347ADFEDAF
:104CB000406A002B94ED337A77EEE67A94F8C920B7
:104CC00080FE070A80FE670A84ED370A01DB934203
:104CD00049DB002A44D0D4ED387A04F1E401002302
:104CE00002E0013393423BDAB0EE677A02F1FF3C17
:104CF000F1EC017AB4EEC07AF1EE10FA04D8F4EED9
:104D0000C07AF1EE10FA06DC9C45EAD1F4EEC07AE6
:104D1000F1EE10FAE5D894F8C81001228A4008EEA6
:104D2000102A04EB8302B8EEC88AD2ED457A94F8D3
:104D3000B420C4F8B83028EE278A84ED2F8A85ED98
:104D4000008A2A71284606B0BDEC028BBDE8F081CE
:104D500094F8B420002AF2D01A4684F8B430EEE772
:104D600094F8B420EBE79FED137A04EB830394ED02
:104D7000356AD4ED306AC6EE077A93ED387A67EE7D
:104D8000A67A37EE677AB4EEC07AF1EE10FAA2D8BE
:104D900093ED397A77EE877AF4EEC07AF1EE10FA75
:104DA00099DD94F8B43085ED008A2B71CAE700BF15
:104DB0006F12833A0000C84270B5F0EE400A002539
:104DC000044690F8C93000F1E00680ED310A2DED7F
:104DD000028B01E0D4ED310A07EE903A07EE105A4B
:104DE00094ED338A0135F8EEE77AD4ED358AB8EEE2
:104DF000C70A80EE270A11F0E3FEA8EE808AA6EC2F
:104E0000018A94F8C930AB42E4DABDEC028B70BD84
:104E100070B52DED028B90ED338A0446B4EEC08A56
:104E2000F1EE10FA03DBB7EE000A38EE000A70EE7E
:104E3000488A94F8C93004F1E006002584ED340A6C
:104E4000C4ED358A03E094ED338AD4ED358A07EE5C
:104E5000903A07EE105AD4ED310A0135F8EEE77AB0
:104E6000B8EEC70A80EE270A11F0AAFEA0EE288A43
:104E7000A6EC018A94F8C930AB42E4DABDEC028BAF
:104E800070BD00BF154A0346154900F1080C2DE915
:104E9000F047416002F10C0800F1140702F1180616
:104EA00000F1280502F1240E002407CA8CE807004F
:104EB00098E8070087E8070096E80700C3E9084478
:104EC00003F1340C85E807009EE807008CE8070032
:104ED00018461C645C64BDE8F08700BF409F010871
:104EE0000000C842704700BF0023017003644364A0
:104EF00003624362704700BF03782BB3012B20D1BC
:104F000090ED096A90ED077AD0ED086A26EE077AEF
:104F1000D0ED064AD0ED037A90ED025AA4EEA67ABF
:104F2000D0ED045A66EEA77AC0ED096A30EE477AF2
:104F3000E5EE077A80ED087AB0EE670AA6EE250A5C
:104F400070479FED120A704790ED116A90ED0F7A4D
:104F5000D0ED106A26EE077AD0ED0E4AD0ED0B7A2E
:104F600090ED0A5AA4EEA67AD0ED0C5A66EEA77A16
:104F7000C0ED116A30EE477AE5EE077A80ED107ADF
:104F8000B0EE670AA6EE250A704700BF00000000D9
:104F900000220346DFF810C043F804CB4260C3E9A7
:104FA0000122C3E9032270470000C842704700BFD6
:104FB000002343608360C36003614361704700BFA7
:104FC00086B041680369C268D0F808C04361816057
:104FD0000261C0F80CC080ED010A02A80291002114
:104FE0008DED010ACDF80CC004920593B0EC017A66
:104FF0000B46024652ED027AF4EEC77AF1EE10FA51
:1050000012DD013B62ED017AB3F1FF3FF2D10023E3
:1050100006AA013102EB8303042903ED057AE5D1E9
:105020009DED030A06B070470133F1E7202882B0F6
:1050300009D8084B03EB400213F81030507843EACC
:10504000002002B0704701230C2043EA002002B088
:10505000704700BF50A10108084603F06DB800BFBB
:10506000143001F0E3B900BF143001F0DBB900BF28
:10507000283001F095BC00BF10B540F203338EB06C
:1050800000244FF60B7240F20341ADF8083009A836
:105090000123ADF81020ADF824202246ADF80C1005
:1050A0000094029907940C94CDE90544CDE90A4493
:1050B00001F084FB04A8012322460399009401F027
:1050C0007DFB09A801F060FC10B901200EB010BDF5
:1050D00004A801F059FCA0420CBF022020460EB0EB
:1050E00010BD00BF2DE9F04103239AB04FF0010835
:1050F00000254FF60B740746CDE91438394BADF84F
:105100004C40CDE91053A3F19F63A3F57D43CDE956
:1051100016581293FFF7B0FF4045064623D00228E9
:1051200042D040F60132304B07F158000BACADF8DD
:105130002C200B991895CDF86480CDF84A3000F0FA
:10514000DBF810A907F1700002F0C6FD274B0FCB6A
:1051500084E80F003A6F214607F1140001F026F9A8
:105160001AB0BDE8F08110231F4A06A906908DF8F9
:1051700028300BAC1E4BCDF84A2007930295CDE9A1
:105180001805CDE9080502A801F08EFD0823029A52
:1051900003A92046ADF80C608DF80E5004960593D7
:1051A0000B9500F0E9F8CCE740F60133ADF82C4060
:1051B00000200BACADF8183001210B4B4246009596
:1051C000CDF84A302B460E95CDE9180106992046B8
:1051D000CDE90C5501F0F2FA2946204601F0E0FB3A
:1051E000AFE700BF0402040404060403709F010833
:1051F0000704010B2DE9F04704462DED028B82B028
:10520000002949D0012140F2011200230091ADF89C
:1052100004208DF80630354A0127354B04F1040986
:10522000344904F13C08626040F20272A36040F627
:105230000663E16004F1280A2285A3872782E762DA
:10524000276403F023F9054602F078FF6946064615
:1052500050BB4DB304F150008DF8067003F098F880
:10526000072D3ED104F114052046FFF73BFF2846E9
:1052700001F0D8F82846B0EE408A01F0CFF8D0ED22
:10528000007AF8EE677A88EE277A84ED1B7A02B00E
:10529000BDEC028BBDE8F08740F2011300918DF860
:1052A0000610ADF80430B6E704F1500003F070F8D2
:1052B000072D13D04946204602F01AF90EB9002DE9
:1052C000D0D15146504601F093F94046414601F095
:1052D0008FF904F1120000F079F9C3E7002EF0D144
:1052E000C0E74946204602F003F9BBE70508050977
:1052F00005070506050A060630B585B000250446F3
:105300000122ADF80C102B460399009501F056FAD6
:105310000121204601F044FB012002F00DFF294647
:10532000204601F03DFB012002F006FF012120464E
:1053300005B0BDE8304001F033BB00BF10B5C2F38B
:10534000002384B00C46017C8DF80D2043EA440212
:10535000FA2402238DF80C2003AA009401F03CFDEE
:1053600018B10124204604B010BD04460A2002F002
:10537000E3FE204604B010BD034670B543F8042B8D
:10538000044684B007C983E80700A37983B91A21CA
:105390000B461E22FA2523742046ADF80C2002236A
:1053A00003AA009501F018FD28B1012004B070BDDA
:1053B0001B210B46EDE70A2002F0BEFE4FF4B85267
:1053C00000950223ADF80C20204603AA217C01F0B1
:1053D00003FD0028E9D10A2002F0AEFE41F202727C
:1053E00000950223ADF80C20204603AA217C01F091
:1053F000F3FC0028D9D10A2002F09EFE0422009579
:105400000223ADF80C20204603AA217C01F0E4FC25
:105410000028CAD10A2002F08FFE0622009502233E
:10542000ADF80C20204603AA217C01F0D5FC002811
:10543000BBD10A2002F080FE41F20822009502232F
:10544000ADF80C20204603AA217C01F0C5FC002801
:10545000ABD10A20064602F06FFE0095022303AA94
:10546000217C2046ADF80C6001F0B6FC00289CD1F0
:10547000304602F061FE009522790C232046002A76
:105480008DF80C3003AA4FF0020314BF62214221B1
:105490008DF80D10217C01F09FFC002885D130464D
:1054A00002F04AFE2279D4E902310B43DBB20AB999
:1054B00043F0400362790AB143F020030E22FA253B
:1054C0008DF80D302046009502238DF80C2003AA9C
:1054D000217C01F081FC00287FF467AF0A2002F0F4
:1054E0002BFE102200950223ADF80C20204603AAC3
:1054F000217C01F071FC00287FF457AF0A2002F0F4
:105500001BFE122100950223ADF80C1003AA217C8A
:10551000204601F061FC00287FF447AF0A2002F02A
:105520000BFE012209212046FFF708FF003818BFB3
:1055300001203BE7F0B5102387B0234C0122002562
:105540000126002702A920460195CDE902234FF448
:105550008052CDE904670AF057FC642003F084F917
:1055600002A94FF480522046CDE904670226102795
:10557000CDE902670AF048FC0322102302A9204665
:10558000CDE9022300230422CDE904234FF4805205
:105590000AF03AFC40F23223042202A901931023BC
:1055A0002046CDE90223019A012305924FF480524F
:1055B00004930AF029FC40F6060120460AF044FC58
:1055C000284607B0F0BD00BFAC1700241C4B0022DA
:1055D0001C494FF0400C30B5054689B00220596097
:1055E00007219A601A620124DA620A224FF4006EDF
:1055F000DC6006922022CDE9000104200821CDE9DB
:10560000020103201021CDE9040108206946C3E905
:1056100004024FF4C072181DC3E906C24FF4805251
:10562000C3E909E20AF0C6FB38B92846FFF782FF52
:10563000003818BF012009B030BD204609B030BD88
:10564000A817002440410052614A0021D0B51368D8
:105650008EB00A91002B40F0B9805E4B01214FF6CD
:1056600083700C2411600221D3F8D4200026032774
:1056700042F48052C3F8D420D3F8D42002F48052EC
:105680000092009AD3F8E02042F01002C3F8E02024
:10569000D3F8E02002F010020192019AD3F8E02042
:1056A00042F04002C3F8E020D3F8E02002F04002CC
:1056B0000292029AD3F8E02042F00802C3F8E020F8
:1056C000D3F8E02002F008020392039AD3F8E02016
:1056D00042F48072C3F8E020D3F8E02002F4807234
:1056E0000492049AD3F8E02042F08002C3F8E0204C
:1056F000D3F8E02002F080020592059AD3F8E0206A
:1057000042F02002C3F8E020D3F8E02002F02002AB
:105710000692069AD3F8E02042F00402C3F8E02093
:10572000D3F8E0300C9403F0040307930323079AA3
:105730000B93CDE9080108A9274804F015FC48F2AD
:105740003712022308A925480C94CDE90823CDE996
:105750000A6704F009FC4CF20372022308A92048EE
:105760000C94CDE90823CDE90A6704F0FDFB40F273
:10577000FF62022308A91B480C94CDE90823CDE958
:105780000A6704F0F1FB4FF60C72022308A91648D1
:105790000C94CDE90823CDE90A6704F0E5FB4FF648
:1057A0003F02022308A911480C94CDE90823CDE952
:1057B0000A6704F0D9FB2022022308A90A480C94A6
:1057C000CDE90A67CDE9082304F0CEFB0EB0D0BDC9
:1057D000A417002400440258001002580018025870
:1057E000000C025800200258001C025800140258F5
:1057F0002DE9F04FDFF8108406460D46144608F1F7
:1058000018002DED028B89B000AF02F05DFBD8F8D7
:10581000183073B3D8F81C30D8F80490002B4369C3
:105820000BBF4FF0080A4FF0100A4FF0020B4FF079
:10583000040BB9F1000F2AD0A200EA46012B02F1B5
:10584000070222F00702ADEB020D6846ADEB020D38
:10585000694600F03F81022B00F0D680002B6FD00C
:105860002246C847D5462437BD46BDEC028BBDE86D
:10587000F08FD8F81C30002BF5D0D8F804904FF0FA
:10588000080A4FF0020B4369B9F1000FD4D1FB6154
:10589000D8F80030BB61002BE5D0D54802F086FB7C
:1058A0006B46BBF1020F786108EE103AFB6900F01D
:1058B00083816A465146A2EBC40295466200EA46DD
:1058C000B2FBFBF2AAEBC40085460AEB8200EE466F
:1058D000F861ADEB010DF8690EEB820CC7F810C052
:1058E000EC46ADEB010D00EB8201CCF80400CCF8E6
:1058F000081001EB82013869E946CCF80C1000EB86
:105900008201CCF800A001EB8202C9E900E0C9E9FC
:105910000212012B00F06483022B00F06C82002B3A
:1059200000F08081620849466046BB69984718EEDE
:10593000103A24379D46BD46BDEC028BBDE8F08F82
:10594000002C8DD01A46D8ED0C6A9FEDB27A8446B1
:10595000331D36F922E00CF1080C07EE90EA33F91A
:1059600022E00232F8EEE77A944267EE877A67EE39
:10597000A67A4CED027A07EE90EAF8EEE77A67EE47
:10598000877A67EEA67A4CED017AE2D8F961224671
:10599000C847984ED8ED0D6A0020F9692B1D9FED80
:1059A0009E7A9FED9E6ADFED9E5A22E0F4EEC67A63
:1059B000F1EE10FAC0F2C88447F6FE72D1ED017A1A
:1059C00045F8202066EEA77AF4EEC77AF1EE10FAD9
:1059D00040F2F080F4EEC67AF1EE10FAC0F2D5840F
:1059E00047F6FE7243F820200230083184427FF6E9
:1059F00039AFD1ED007A66EEA77AF4EEC77AF1EE10
:105A000010FAD3D83246D9E7002C3FF429AFD8EDAD
:105A10000C6A84469FED787A0022331D8E4656F834
:105A200022100CF1080C07EE901A53F822100232E3
:105A3000F8EEE77A944267EE877A67EEA67A4CED45
:105A4000027A07EE901AF8EEE77A67EE877A67EE49
:105A5000A67A4CED017AE2D871462246C7F81CE0DE
:105A6000C847664ED8ED0D6A0020F9692B1D9FEDE1
:105A70006A7A9FED6A6ADFF894C120E0F4EEC67A94
:105A8000F1EE10FAC0F279843246D1ED017A45F890
:105A9000202066EEA77AF4EEC77AF1EE10FA40F213
:105AA0008780F4EEC67AF1EE10FAC0F25E843246D8
:105AB00043F820200230083184427FF6D3AED1ED86
:105AC000007A66EEA77AF4EEC77AF1EE10FAD5D82E
:105AD0006246DAE7002C3FF4C3AED8ED0C6A864686
