:020000040800F2
:1000000000000220190A00080D0A0008DD7400082B
:100010000D0A00080D0A00080D0A00080000000083
:100020000000000000000000000000000D0A0008B1
:100030000D0A0008000000000D0A000861740008A5
:100040000D0A00080D0A00080D0A00080D0A000834
:100050000D0A00080D0A00080D0A00080D0A000824
:100060000D0A00080D0A00080D0A0008996C000826
:10007000A56C00080D0A0008B16C0008BD6C0008F2
:10008000012F0108255D00080D0A00080D0A00086F
:100090000D0A00080D0A00080D0A00080D0A0008E4
:1000A0000D0A00080D0A00080D0A00080D0A0008D4
:1000B000D1720008DD720008E9720008595D00087D
:1000C0000D0A0008655D00080D0A0008491C0108BA
:1000D000551C0108352D0108612D0108952D0108D9
:1000E0000D0A00080D0A0008000000000D0A0008B3
:1000F0000D0A00080D0A00080D0A00080D0A000884
:100100000D0A00080D0A0008F5720008611C0108BC
:10011000C92D0108FD2D01080D0A00080D0A00086F
:100120000D0A00080D0A0008851C0108B91C010809
:10013000352F01080D0A00080D0A00080D0A0008F5
:1001400000000000000000000000000000000000AF
:100150000D0A00080D0A00080D0A0008312E0108DA
:10016000715D00080D0A000871740008957400089C
:100170000D0A0008B97400080D0A00080D0A0008ED
:100180000D0A00080D0A0008652E0108992E0108C5
:100190006D1C0108791C01080D0A00080D0A0008F1
:1001A0000D0A00080D0A00080D0A00080D0A0008D3
:1001B0008D6900080D0A00080D0A00080D0A0008E4
:1001C0000D0A00080D0A00080D0A00080D0A0008B3
:1001D0000D0A00080D0A00080D0A00080D0A0008A3
:1001E0000D0A00080D0A00080D0A00080D0A000893
:1001F0000D0A00080D0A00080D0A00080D0A000883
:100200000D0A00080D0A00080D0A00080D0A000872
:100210000D0A00080D0A00080D0A00080D0A000862
:100220000D0A00080D0A00080D0A00080000000071
:100230000D0A00080D0A0008000000000D0A000861
:100240000D0A00080D0A00080D0A00080D0A000832
:100250000D0A00080D0A00080D0A00080D0A000822
:100260000D0A00080D0A00080D0A00080D0A000812
:100270000D0A00080D0A0008CD2E0108000000003C
:100280000D0A00080D0A00080D0A00080000000011
:08029000000000000D0A000847
:1002A00010B5054C237833B9044B13B10448AFF3B0
:1002B00000800123237010BD5806002400000000B8
:1002C0002CBA010808B5034B1BB103490348AFF32F
:1002D000008008BD000000005C0600242CBA010864
:1002E000034613F8012B002AFBD1181A0138704776
:1002F00001F0FF01102A2BDB10F0070F08D010F8D7
:10030000013B013A8B422DD010F0070F42B3F6D1DA
:10031000F0B441EA012141EA014122F007047FF0F3
:1003200000070023F0E80256083C85EA010586EA4A
:10033000010685FA47F5A3FA87F586FA47F6A5FA86
:1003400087F68EB9EED1F0BC01F0FF0102F0070292
:1003500032B110F8013B013A83EA010313B1F8D13D
:100360000020704701387047002D06BF354603381E
:10037000073815F0010F07D1013015F4807F02BF57
:10038000013015F4C03F0130F0BC0138704700BFA8
:1003900081F0004102E000BF83F0004330B54FEA36
:1003A00041044FEA430594EA050F08BF90EA020FA3
:1003B0001FBF54EA000C55EA020C7FEA645C7FEA36
:1003C000655C00F0E2804FEA5454D4EB5555B8BF59
:1003D0006D420CDD2C4480EA020281EA030382EACA
:1003E000000083EA010180EA020281EA0303362D5C
:1003F00088BF30BD11F0004F4FEA01314FF4801C2F
:100400004CEA113102D0404261EB410113F0004F40
:100410004FEA03334CEA133302D0524263EB4303F7
:1004200094EA050F00F0A780A4F10104D5F1200E95
:100430000DDB02FA0EFC22FA05F2801841F10001F0
:1004400003FA0EF2801843FA05F359410EE0A5F1C4
:1004500020050EF1200E012A03FA0EFC28BF4CF0F5
:10046000020C43FA05F3C01851EBE37101F00045AB
:1004700007D54FF0000EDCF1000C7EEB00006EEBB8
:100480000101B1F5801F1BD3B1F5001F0CD3490842
:100490005FEA30004FEA3C0C04F101044FEA445299
:1004A00012F5800F80F09A80BCF1004F08BF5FEA20
:1004B000500C50F1000041EB045141EA050130BD00
:1004C0005FEA4C0C404141EB0101013C28BFB1F512
:1004D000801FE9D291F0000F04BF01460020B1FA5D
:1004E00081F308BF2033A3F10B03B3F120020CDA30
:1004F0000C3208DD02F1140CC2F10C0201FA0CF00E
:1005000021FA02F10CE002F11402D8BFC2F1200C72
:1005100001FA02F120FA0CFCDCBF41EA0C01904028
:10052000E41AA2BF01EB0451294330BD6FEA040471
:100530001F3C1CDA0C340EDC04F11404C4F120025C
:1005400020FA04F001FA02F340EA030021FA04F36E
:1005500045EA030130BDC4F10C04C4F1200220FAC5
:1005600002F001FA04F340EA0300294630BD21FA03
:1005700004F0294630BD94F0000F83F4801306BFC9
:1005800081F480110134013D4EE77FEA645C18BFBD
:100590007FEA655C29D094EA050F08BF90EA020F54
:1005A00005D054EA000C04BF1946104630BD91EA4C
:1005B000030F1EBF0021002030BD5FEA545C05D14F
:1005C0004000494128BF41F0004130BD14F580048E
:1005D0003CBF01F5801130BD01F0004545F0FE4102
:1005E00041F470014FF0000030BD7FEA645C1ABF37
:1005F000194610467FEA655C1CBF0B46024650EA6E
:10060000013406BF52EA033591EA030F41F4002199
:1006100030BD00BF90F0000F04BF0021704730B51F
:100620004FF4806404F132044FF000054FF00001F4
:1006300050E700BF90F0000F04BF0021704730B5B5
:100640004FF4806404F1320410F0004548BF40428A
:100650004FF000013EE700BF42004FEAE2014FEADF
:1006600031014FEA02701FBF12F07F4393F07F4FBA
:1006700081F06051704732F07F4208BF704793F0BD
:100680007F4F04BF41F40021704730B54FF46074D0
:1006900001F0004521F000411CE700BF50EA0102D3
:1006A00008BF704730B54FF000050AE050EA01027C
:1006B00008BF704730B511F0004502D5404261EBEC
:1006C00041014FF4806404F132045FEA915C3FF42D
:1006D000D8AE4FF003025FEADC0C18BF03325FEACA
:1006E000DC0C18BF033202EBDC02C2F1200300FA7B
:1006F00003FC20FA02F001FA03FE40EA0E0021FAA0
:1007000002F11444BDE600BF53B94AB9002908BF3D
:1007100000281CBF4FF0FF314FF0FF3000F074B9DC
:10072000ADF1080C6DE904CE00F006F8DDF804E048
:10073000DDE9022304B070472DE9F047089D044627
:100740008E46002B4DD18A42944669D9B2FA82F284
:1007500052B101FA02F3C2F1200120FA01F10CFAC0
:1007600002FC41EA030E94404FEA1C48210CBEFBF8
:10077000F8F61FFA8CF708FB16E341EA034306FB81
:1007800007F199420AD91CEB030306F1FF3080F010
:100790001F81994240F21C81023E63445B1AA4B25D
:1007A000B3FBF8F008FB103344EA034400FB07F7FF
:1007B000A7420AD91CEB040400F1FF3380F00A8140
:1007C000A74240F207816444023840EA0640E41B35
:1007D00000261DB1D4400023C5E900433146BDE8E1
:1007E000F0878B4209D9002D00F0EF800026C5E983
:1007F000000130463146BDE8F087B3FA83F6002E9B
:100800004AD18B4202D3824200F2F980841A61EB12
:10081000030301209E46002DE0D0C5E9004EDDE730
:1008200002B9FFDEB2FA82F2002A40F09280A1EB18
:100830000C014FEA1C471FFA8CFE0126200CB1FB6D
:10084000F7F307FB131140EA01410EFB03F0884266
:1008500008D91CEB010103F1FF3802D2884200F2F3
:10086000CB804346091AA4B2B1FBF7F007FB101185
:1008700044EA01440EFB00FEA64508D91CEB040423
:1008800000F1FF3102D2A64500F2BB800846A4EB7E
:100890000E0440EA03409CE7C6F12007B34022FA69
:1008A00007FC4CEA030C20FA07F401FA06F31C4398
:1008B000F9404FEA1C4900FA06F3B1FBF9F8200CA5
:1008C0001FFA8CFE09FB181140EA014108FB0EF0EB
:1008D000884202FA06F20BD91CEB010108F1FF3A3B
:1008E00080F08880884240F28580A8F10208614447
:1008F000091AA4B2B1FBF9F009FB101144EA014155
:1009000000FB0EFE8E4508D91CEB010100F1FF34FF
:100910006CD28E456AD90238614440EA0840A0FB97
:100920000294A1EB0E01A142C846A64656D353D06D
:100930005DB1B3EB080261EB0E0101FA07F722FA91
:1009400006F3F1401F43C5E9007100263146BDE8BA
:10095000F087C2F12003D8400CFA02FC21FA03F31D
:10096000914001434FEA1C471FFA8CFEB3FBF7F09E
:1009700007FB10360B0C43EA064300FB0EF69E42C3
:1009800004FA02F408D91CEB030300F1FF382FD25C
:100990009E422DD9023863449B1B89B2B3FBF7F604
:1009A00007FB163341EA034106FB0EF38B4208D9DD
:1009B0001CEB010106F1FF3816D28B4214D9023E1E
:1009C0006144C91A46EA004638E72E46284605E73C
:1009D0000646E3E61846F8E64B45A9D2B9EB02080D
:1009E00064EB0C0E0138A3E74646EAE7204694E79D
:1009F0004046D1E7D0467BE7023B614432E73046D0
:100A000009E76444023842E7704700BF684620F0B7
:100A100007018D46FEE700BF0B480C4A904208B51F
:100A200003D0121A0A4915F031FC0A480A4A9042CA
:100A300003D0121A002115F051FC06F0B5FF15F095
:100A4000F1FB01F069FAFEE70000002454060024DF
:100A500060BA01085806002400440024704700BF13
:100A6000704700BF014B01221A707047A01200248A
:100A7000704700BF402070478020704749424FF4C4
:100A800080621030C9B215F029BC00BF0120704748
:100A9000124B134870B516460D462DED028B93E8A8
:100AA000060002F0B5F8AEB100240D4802F0D6F809
:100AB0000C48B0EE408A01F089FBD5E9000300EB59
:100AC000840003EB8403013480ED008AA64283EDA9
:100AD000008AEAD1BDEC028B70BD00BF0400002487
:100AE0002C150024840A002410B504464FF48261BA
:100AF00014F045FF204610BD2DE9F04F4FF0B0082F
:100B000085B0054600F1080700F18F0600F28F4915
:100B10004FF47A7B4FF0000A297B022303AA384660
:100B2000CDF800B0A6F180048DF80CA08DF80D80F2
:100B300005F0BCF9297B022303AA3846CDF800B0A2
:100B40008DF80CA08DF80DA005F0B0F94FF0100C49
:100B5000297B022303AA3846CDF800B08DF80CA0FB
:100B60008DF80DC005F0A2F94FF47A7014F801CF9A
:100B70004FF0400E297B0223009003AA38468DF8DF
:100B80000CE08DF80DC005F091F9B442ECD104F100
:100B9000800608F101084E455FFA88F8B8D105B023
:100BA000BDE8F08F2DE9F04F89B008AC9DF8487092
:100BB000019104E90C000B78002B00F0AB801A4681
:100BC0009DF818809DF819300646454690460393D7
:100BD000079B0593A8F12004E3B25E2B00F29E80F0
:100BE00033685E4ADB68934240F09B808020B38884
:100BF0002B44834200F392803368594A9B689342A6
:100C000040F092804020F188039A02918B18834231
:100C100000F38480002A00F0918002FB04F46FF05E
:100C20000049059BA1441444B6F804B003EB4909FC
:100C3000023BCDF8108003EB44030C469A4639F88A
:100C400002CFA5B304F007034FF0010EE2085946A6
:100C50000EFA03FE0BF110034FFA8EFE03EBC212E5
:100C600000236FEA0E0832440DE07F2906D83F2C9E
:100C700004D8107897B14EEA0000107001330132A9
:100C80000131AB4213D00CFA03F00004EDD47F29FC
:100C9000F4D83F2CF2D81078002FECD0013308EABA
:100CA000000001320131AB4202F8010CEBD1D14519
:100CB00004F10104C3D1DDF8108032680BEB0504A8
:100CC0002649D368A4B28B4234D18020844204D315
:100CD000D36822498B423AD17F249368204AB4805A
:100CE000934224D14020029B834206D333681C4A9E
:100CF0009B68934225D13F230293029BF380019B83
:100D00001878404507D113F8018F0193B8F1000F0F
:100D10007FF460AF002009B0BDE8F08F4FF000080D
:100D2000EDE73046984762E7304698476BE7304634
:100D30009847D8E7304698473268C7E7B6F804B016
:100D4000BBE730469847013883B20293D5E7304677
:100D500098470138326884B2BFE700BF790A0008BB
:100D6000750A00082DE9F04F85B0A1F1200504AC0B
:100D70009DF83870009104E90C00EBB25E2B00F294
:100D80009580036880465D4ADB689DF80840934281
:100D90009DF8096040F094808020B8F80430234426
:100DA000834200F38380D8F80030554A9B68934211
:100DB00040F088804020B8F80620931901928342C1
:100DC00074DC002E00F0898006FB05F56FF0004012
:100DD000039B964628442E44B8F804A003EB400039
:100DE000023B03EB460B30F8026FBCB30EF0070377
:100DF0004FF0010C4FEADE0251460CFA03FC0AF1F7
:100E000010034FFA8CFC03EBC21200236FEA0C09AB
:100E100042440EE07F2907D8BEF13F0F04D8157871
:100E20009FB14CEA050515700133013201319C4236
:100E300014D006FA03F52D04ECD47F29F4D8BEF1C2
:100E40003F0FF1D81578002FEBD0013309EA0505E3
:100E5000013201319C4202F8015CEAD158450EF1A1
:100E6000010EC0D1D8F8003054442449DA68A4B245
:100E70008A422DD1802084421CD29B68204AA8F847
:100E80000440934221D14020019B834207D3D8F8EC
:100E900000301B4A9B68934229D13F230193DDE92F
:100EA0000003A8F8063005B0BDE8F08F002005B0BB
:100EB000BDE8F08FDA6811498A4211D17F24DCE75E
:100EC00098476AE74046984775E740469847DBE70A
:100ED00040469047D8F80030CDE7B8F804A0C1E705
:100EE000404690470138D8F8003084B2C5E7404604
:100EF0009847013883B20193D1E700BF790A00080F
:100F0000750A00082DE9F04F89B01D468846069005
:100F10001046129C10F8013B13999DF85060009206
:100F200033B1002210F8013B0132002BFAD193B209
:100F30002A78687812FB03F302B21BB223EAE37348
:100F4000082900F2A981DFE811F002011401200153
:100F5000340142015001670171010900A18827880D
:100F60000F44B4F90610FF1A0029BFB2C0F2FF8087
:100F7000B4F802C006980CEB6104C280A4EB5202E4
:100F80008380078094B24480A64AD8F80030114686
:100F90000192DA688A4240F08D818020B84205D8FB
:100FA000DA6801998A4240F09A817F279E4A9B68BD
:100FB000A8F804709342039240F089814020A04237
:100FC00007D8D8F80030039A9B68934240F082819A
:100FD0003F24009BA8F8064093F800B06B782C786B
:100FE00004936B680793BBF1000F00F0AC80ABF18A
:100FF0002005EBB25E2B00F22E81D8F80030019A6A
:10100000DB68934240F02A818020B8F80430234402
:101010009842C0F22081D8F80030039A9B6893422E
:1010200040F01F814020B8F80610049A02918B18F6
:101030009842C0F21081002A00F01E8102FB05F5E3
:101040006FF0004E079BAE441544CDF814B003EB8F
:101050004E0E023BB8F804A003EB45030D469B4639
:101060003EF8027FA4B305F007034FF0010CEA0835
:1010700051460CFA03FC0AF110034FFA8CFC03EB07
:10108000C21200236FEA0C0942440DE07F2906D802
:101090003F2D04D8107896B14CEA0000107001334F
:1010A000013201319C4213D007FA03F00004EDD461
:1010B0007F29F4D83F2DF2D81078002EECD00133E0
:1010C00009EA0000013201319C4202F8010CEBD127
:1010D000F34505F10105C3D1DDF814B0D8F80020BF
:1010E0000AEB04050199D368ADB28B4240F0BF8092
:1010F0008020854205D3D36801998B4240F0C5809A
:101100007F259368039AA8F80450934240F0AC807E
:101110004020029B834208D3D8F80030039A9B6892
:10112000934240F0AC803F230293029BA8F8063024
:10113000009A13785B4506D112F801BF0092BBF10B
:10114000000F7FF454AF069809B0BDE8F08FB4F9F2
:10115000041027880029B8BF013107EB6107B4F9F3
:101160000610A7EB63070029BFB2BFF601AF01313C
:10117000FEE6B4F900700699B4F902400F80BFB2E0
:101180004C80A4B28B80CA80FEE6B4F90410278894
:101190000029B4F90240B8BF013107EB6107069995
:1011A0008B80A7EB63034C80A4B29FB2CA800F80F0
:1011B000EAE6A1882788B4F902400F4406998B809B
:1011C000FB1A4C80A4B29FB2CA800F80DCE6E7888D
:1011D00061883944B4F90070081A069984B20F8006
:1011E0008B80BFB2CA804C80CEE6B4F90410278849
:1011F0000029B8BF013107EB6107A7EB6307B4F81B
:1012000002C0BFB2E488069964448B80201ACA8069
:101210000F8084B24C80B7E62788A1880F44FF1A5C
:10122000EDE700BF790A0008750A0008B4F9061056
:10123000B4F802C00029B4F900700698B8BF0131B3
:10124000C2800CEB610407808380BFB2A4EB520222
:1012500094B2448098E64FF0000B69E74046984707
:10126000D3E640469847DEE64046984751E7404679
:101270009847D8F800203CE7B8F804A02EE740468D
:101280009847013883B202934FE7404698470138A8
:10129000D8F8002085B234E7D8F800300024069A48
:1012A0001249148054809480D480DA6801918A4273
:1012B00005D0274640469047D8F800306EE69B6838
:1012C0000B4AA8F80440934203923FF482AE404692
:1012D000984774E640469847013884B279E640461C
:1012E00090470138D8F8003087B25FE6790A0008E5
:1012F000750A00087F291ED83F2A1CD86BB1D30875
:101300004FF0010C02F0070201EBC3130CFA02F2DA
:10131000C1180B7C1A430A747047D3084FF0010CB4
:1013200002F0070201EBC3130CFA02FCC1180A7C9D
:1013300022EA0C020A7470472DE9F04F83B05C1A60
:101340000C9E002C9DF83490A6EB0208B8BF6442B6
:10135000B8F1000FB8BFC8F100088B428CBF4FF046
:10136000010A4FF0FF3A9642A4EB080C51D84FF017
:10137000FF357F2B019512D83F2E10D8F50806F0C7
:10138000070E012703EBC5150544B9F1000F47D03F
:1013900007FA0EF795F810E047EA0E072F74964209
:1013A00001D18B4229D0C8F100077F2914D83F2AE8
:1013B00012D8D50802F0070B4FF0010E01EBC5154E
:1013C0000544B9F1000F1BD00EFA0BFE95F810B0D2
:1013D0004EEA0B0E85F810E0B7EB4C0F4FEA4C05C8
:1013E00002DAACEB080C5144AC4202DD019DA4448E
:1013F0002A449942D9D19642D7D103B0BDE8F08FA3
:101400000EFA0BFB95F810E02EEA0B0E85F810E0B3
:10141000E2E701257F2B0195C5D83F2EAED9C2E763
:1014200007FA0EFE2F7C964227EA0E072F74B8D0DB
:10143000B9E700BF000000002DE9F04F2DED068B4D
:1014400083B01F4680460D469DF8503016460193E6
:10145000139B002BC0F22182129A134406EE103A1D
:10146000DDED127AB8EEC66B9FEDCD4BB8EEE77BA3
:101470009FEDCD5B27EE047B26EE046B87EE050B1C
:1014800086EE05ABF7EEC08BB0EE680A14F07CFA7E
:1014900007EE907AB7EECAABF8EE679AB0EE408AE4
:1014A000B0EE680A14F0A4FD60EE698AB0EE4A0A54
:1014B00014F06AFAB0EE409AB0EE4A0A14F098FDC1
:1014C00020EE690A29EE888A29EE899A70EE687AF8
:1014D000F0EE006A39EE487A67EEA77AE7EE077A0F
:1014E000F4EEE67AF1EE10FA06D5139BB42B40F336
:1014F00096804FF0010901E04FF000090124784285
:101500004FF0000C0095E31B214627462246A340DE
:10151000B9F1000F6AD1424206EE90CACCF1000147
:1015200007EE102AB8EEE66A07EE901A06EE900A69
:10153000B8EEC77A139A66EE084AF8EEE77AB42A4C
:1015400027EE284AF8EEE66A67EE885A74EEC43A47
:1015500026EEA85A26EE096A66EE806A67EE897A58
:1015600027EE007AF5EEC03A40F3F280F1EE10FA81
:1015700000F17F8176EE473A74EEC54AF5EEC03A47
:10158000F1EE10FAF5EEC04ACCBF01220022F1EED6
:1015900010FA00F1778136EE666A35EEC55AB5EE7F
:1015A000C06AF1EE10FAB5EEC05ACCBF012100219D
:1015B000F1EE10FA00F16F8177EEE66AF5EEC06A9F
:1015C000F1EE10FACCBF0127002775EEC45AF5EEF4
:1015D000C05AF1EE10FA00F1478177EEC77AF5EEC6
:1015E000C07AF1EE10FACCBF01240024002A40F0AA
:1015F0008A80002964D1BFB9C4BB9C4558DB0CF17B
:10160000010C03EB4C0E1CEB000F0EF1010E00F071
:10161000C08098424FDB734600287FF779AF03B054
:10162000BDEC068BBDE8F08F009DA6EB0C0E00EB29
:10163000050ABAF17F0FDFD8BEF13F0FDCD84FEAC1
:10164000DE0B019D0AEBCB1A002D00F0B1800EF0ED
:10165000070BC2444FF0010E0EFA0BFE9AF810B0C1
:101660004EEA0B0E8AF810E0002CC6D0009DA6EBC7
:101670000C0EA5EB000ABAF17F0FBED8BEF13F0FEA
:10168000BBD84FEADE0B019D0AEBCB1A002D00F010
:10169000AE800EF0070BC2444FF0010E9C450EFACF
:1016A0000BFE9AF810B04EEA0B0E8AF810E0A6DA9C
:1016B00098429E46AFDA01300EEB40030133ABE7B0
:1016C000009D0CEB060E00EB050ABAF17F0F92D8D5
:1016D000BEF13F0F8FD84FEADE0B019D0AEBCB1A0C
:1016E000002D73D00EF0070BC2444FF0010E0EFA1E
:1016F0000BFE9AF810B04EEA0B0E8AF810E0002F9D
:101700003FF47AAF90E7009D0CEB060EA5EB000AC4
:10171000BAF17F0F3FF66DAFBEF13F0F3FF669AFF5
:101720004FEADE0B019D0AEBCB1A002D6DD00EF0B7
:10173000070BC2444FF0010E0EFA0BFE9AF810B0E0
:101740004EEA0B0E8AF810E000293FF454AFB7E7D9
:10175000F1EE10FA7ED44A4674EEC54AF5EEC04A60
:10176000F1EE10FA6CD4002135EEC55AB5EEC05A30
:10177000F1EE10FA5AD4002775EEC45AF5EEC05AAD
:10178000F1EE10FA3FF529AF0024002A3FF431AF03
:10179000B9E798428FDB00233BE700BFAFF300803F
:1017A0007A008BFCFA2109400000000000806640AE
:1017B000C2444FF0010B0EF0070E0BFA0EFE9AF822
:1017C00010B02BEA0E0E8AF810E015E7C2444FF075
:1017D000010B0EF0070E0BFA0EFE9AF810B02BEA72
:1017E0000E0E8AF810E0002F3FF406AF1CE7C2444B
:1017F0004FF0010B0EF0070E0BFA0EFE9AF810B028
:101800002BEA0E0E8AF810E0F7E6C2444FF0010B07
:101810000EF0070E0BFA0EFE9AF810B02BEA0E0E21
:101820008AF810E000293FF4E6AE49E777EEE66A71
:10183000F5EEC06AF1EE10FACCBF012700279BE756
:1018400036EE666AB5EEC06AF1EE10FACCBF012141
:10185000002189E776EE473AF5EEC03AF1EE10FA4C
:10186000CCBF0122002277E70124002A3FF4C1AE59
:1018700049E774EEC54A0122F5EEC04AF1EE10FACE
:101880007FF589AE35EEC55A0121B5EEC05AF1EEAD
:1018900010FA7FF591AE012797E6DDE91223134494
:1018A00006EE102A1293139B5B421393D8E500BFF8
:1018B0002DE9F04F87B09DF84850109C2E460195B9
:1018C0009DF844509EB399422ED89946A24228D8FA
:1018D0007F29164694BF0023012308E09CF810805E
:1018E0004EEA080E8CF810E00136B44219D33F2EB0
:1018F000FAD8002BF8D14FEAD60C06F0070E4FF0BD
:10190000010801EBCC1C08FA0EFE8444002DE5D141
:101910009CF810B001362BEA0E0AB4428CF810A0E5
:10192000E5D201318945D1D207B0BDE8F08FA3EBF4
:101930000108B8F1000FB8BFC8F100089942C0F023
:101940004E817F2B4FF0FF3A94BF002601263F2A9D
:10195000009694BF002701270297A6B99FB9D60821
:1019600002F0070C012703EBC6160644002D00F019
:10197000948107FA0CF796F810C047EA0C07377401
:10198000002602960096994200F0978146469446BA
:101990008E46BEF17F0F16D8BCF13F0F13D84FEA29
:1019A000DC070CF0070B4FF001090EEBC7170744DB
:1019B000002D00F0398109FA0BF997F810B049EAC7
:1019C0000B0987F81090770018BFD644B84502DDA0
:1019D00046440CF1FF3C7345DBD16245D9D100266A
:1019E0000496A4EB0209009FB9F1000FB8BFC9F13A
:1019F00000093F2C94BF00260126A242C9F100082D
:101A00000396C0F02381002F40F05081002E40F05B
:101A10004D814FF0FF360096E60803EBC6160644EC
:101A2000002D00F01E814FF0010C04F007070CFAA6
:101A300007F796F810C047EA0C073774002603969C
:101A4000A24200F03D81C44616461F4605927F2FF4
:101A500015D83F2E13D84FEAD60E06F0070B4FF0DD
:101A6000010A07EBCE1E8644002D00F0E6800AFA3C
:101A70000BFA9EF810B04AEA0B0A8EF810A0B8EBE9
:101A80004C0F4FEA4C0E02DAACEB090C013FBEF1F1
:101A9000000F01D0009A1644BB42D8D1B442D6D12F
:101AA000059AA1EB030EBEF1000FB8BFCEF1000EF8
:101AB0007F2994BF4FF0000A4FF0010A99428CBF72
:101AC0004FF001094FF0FF39BAF1000F13D1039E17
:101AD0008EB9E60801EBC6160644002D00F0D3804F
:101AE0004FF0010C04F007070CFA07F796F810C046
:101AF00047EA0C073774049E26BB774626467F2BA1
:101B000014D83F2E12D84FEAD60C06F0070B4FF030
:101B1000010803EBCC1C8444002D73D008FA0BF8A9
:101B20009CF810B048EA0B088CF810805FEA470C6C
:101B300018BF4B44E64501DD7744013E9942DED1B2
:101B4000B442DCD1A2EB040EBEF1000FB8BFCEF15F
:101B5000000EA2428CBF4FF001084FF0FF38CEF1CB
:101B6000000CBAF1000F0ED1029B63B9D30802F04A
:101B70000707012601EBC3130344002D7CD0BE40B0
:101B80001F7C3E431E74019B002B7FF4CDAE664646
:101B90000B467F2B12D83F2C10D8E70804F0070A19
:101BA0004FF0010903EBC7170744A5B309FA0AF977
:101BB00097F810A049EA0A0987F81090BCEB460F85
:101BC0004FEA460702DAA6EB0E06013B07B1444492
:101BD0009942DED1A242DCD107B0BDE8F08F3F2AA6
:101BE0004FF0010A94BF002601267F2B029694BF76
:101BF000002701270097002E7FF4C8AE002F3FF486
:101C0000AEAEC3E608FA0BFB9CF8108028EA0B087E
:101C10008CF810808AE709FA0AFA97F8109029EAF6
:101C20000A0987F81090C9E709FA0BFB97F810909A
:101C300029EA0B0987F81090C5E60AFA0BFB9EF813
:101C400010A02AEA0B0A8EF810A018E797BB8EBBEB
:101C500001260096E60803EBC6160644002D7FF425
:101C6000E2AE012704F0070C039507FA0CFC377C61
:101C700027EA0C073774E3E606FA07F71E7C26EA24
:101C800007061E747FE7012704F0070C07FA0CFC17
:101C9000377C27EA0C0737742DE707FA0CFC377CF2
:101CA000029527EA0C07009537746CE64FF0FF3673
:101CB0000096C5E601260096C5E60126049690E644
:101CC00001260196EDE600BF84B070B584B00446ED
:101CD0004FF47A7609AD85E80E009DF83830294634
:101CE0000025037104F04AF8AE2303AA00968DF88C
:101CF0000D302046217902238DF80C5004F0D6F8DF
:101D0000D52303AA0096204621798DF80D300223B1
:101D10008DF80C5004F0CAF8802303AA00962046E0
:101D200021798DF80D3002238DF80C5004F0BEF8A7
:101D3000A82303AA0096204621798DF80D300223AE
:101D40008DF80C5004F0B2F83F2303AA0096204609
:101D500021798DF80D3002238DF80C5004F0A6F88F
:101D6000DA2303AA0096204621798DF80D3002234C
:101D70008DF80C5004F09AF8122303AA009620461E
:101D800021798DF80D3002238DF80C5004F08EF877
:101D9000D32303AA0096204621798DF80D30022323
:101DA0008DF80C5004F082F803AA009602232179E2
:101DB00020468DF80C508DF80D5004F077F8402334
:101DC00003AA0096204621798DF80D3002238DF864
:101DD0000C5004F06BF8A62303AA00962046217944
:101DE0008DF80D3002238DF80C5004F05FF8A42319
:101DF00003AA0096204621798DF80D3002238DF834
:101E00000C5004F053F88D2303AA00962046217944
:101E10008DF80D3002238DF80C5004F047F8142390
:101E200003AA0096204621798DF80D3002238DF803
:101E30000C5004F03BF8A12303AA00962046217918
:101E40008DF80D3002238DF80C5004F02FF8C823C4
:101E500003AA0096204621798DF80D3002238DF8D3
:101E60000C5004F023F8812303AA00962046217920
:101E70008DF80D3002238DF80C5004F017F88F23E5
:101E800003AA0096204621798DF80D3002238DF8A3
:101E90000C5004F00BF8D92303AA009620462179B0
:101EA0008DF80D3002238DF80C5003F0FFFF252331
:101EB00003AA0096204621798DF80D3002238DF873
:101EC0000C5003F0F3FFDB2303AA00962046217990
:101ED0008DF80D3002238DF80C5003F0E7FF34230A
:101EE00003AA0096204621798DF80D3002238DF843
:101EF0000C5003F0DBFFAF21009603AA02238DF8FC
:101F00000D10204621798DF80C5003F0CFFF04B05E
:101F1000BDE8704004B0704770B500218CB04148F6
:101F2000002502F071FA3C2310213F4A8DF82C3035
:101F30000223099506AE08930CAB8DF82810CDE965
:101F4000065213E907008DE80700384896E80E00AE
:101F5000FFF7BAFE012136480C4600F01FF90323B3
:101F60004FF0FF323146334806938DF82440CDE9D7
:101F7000075205F0C5F92A462F492E4805F04EFABA
:101F80002C4805F03FFA18284AD91923B0FBF3F181
:101F9000284805F02FFA274805F01AFA214A0121AE
:101FA000264800F073FF9FED260A244802F034F81B
:101FB000B7EE000A214802F003F8002207211F486B
:101FC00001F0D6FD04211D4801F0FAFE154802F08B
:101FD00039F91C4800F088FD02211A4800F008FB7E
:101FE0001021104802F032F917490E48174C184DCD
:101FF00002F024F9114904A801F0E6FE04999DF8C5
:1020000014204FF0000C2B780948216022711BB17D
:1020100085F800C000F03EFA012005F0CFFAE9E7AC
:102020002146B5E7A8120024010801097C06002416
:10203000840A0024A4120024650A00081C1300244A
:10204000000048422C150024910A000804000024D6
:10205000A0120024F8B523480024234D4FF60B733B
:102060006FF0F41221494461046283654466046799
:102070001F4E204FC0E90042C0E90A34C0E90F34C6
:10208000C0E90222C0E90C442A46C0E91144C0E973
:10209000174413F06FFC184B2A46B4603360304687
:1020A000164913F067FC31460122154800F034F858
:1020B000144E384600F030FE2A461349384613F0D5
:1020C00059FC304600F052FA2A461049304613F0C7
:1020D00051FC0F482A460F490460BDE8F84013F050
:1020E00049BC00BFA812002400000024610A0008B7
:1020F000740600241C1300245C900108710A000877
:10210000840A00242C150024752E0008ED250008F3
:10211000A41200245D0A000838B5802304460D4649
:102120000021C0F808380123C0F80C18083000F866
:10213000043C064B80F808284FF4806240F8085CA5
:10214000C4F8183814F0CAF8204638BD9490010835
:1021500010B50446B2EE047A84B00E49D4F81438AF
:1021600003A8D3ED007AFDEEE77AF8EEE77A67EEA2
:10217000877AFDEEE77A17EE902A14F0AFFD20681B
:102180000122054B046803A90092A46A0CCBA04766
:1021900004B010BDA09001085401002438B50446D5
:1021A0000068094A0D4603681B69934207D14FF442
:1021B00080620021103014F091F8257138BD0021A3
:1021C0009847257138BD00BF7D0A0008D0F80C285B
:1021D000531C00EB8202594282ED020ADBB2CAB202
:1021E00058BF5342C0F80C38704700BF90F8103801
:1021F00013B91F4B18687047D0F80C38D0F808286E
:10220000013300B503EB020E73452DDA5942DAB201
:10221000C9B258BF4A4200EB8202D2ED027A01E015
:10222000734521D09C460133B0EE677A5942DAB249
:10223000B5EEC07AC9B258BF4A42F1EE10FA00EBCF
:102240008202D2ED027AEBD5F5EEC07AF1EE10FA09
:10225000E6DBDCF100035FFA8CF0054ADBB258BF25
:10226000584210605DF804FB014B18685DF804FBF0
:10227000101700242DE9F04F046887B082462368C8
:102280002046DB689847002840F0C8802368204635
:10229000DB689847013883B222682046A3809368A0
:1022A0009847202800F2B880236820469B6898470A
:1022B000013883B2DAF80000E38003685A4A1B69E8
:1022C000934240F0AD804FF480620021103014F052
:1022D00005F85046FFF78AFFDAF808380590002B1A
:1022E00040F38580C3B2064601270493734206F18A
:1022F0000106049A07F1FF31DBB2DAF80000DFEDE6
:102300004B7A58BF5A427442F3B2B0EE677AE4B2E5
:10231000DFED476A04930AEB8202036892ED026ADA
:102320009D69049B58BF6342A6EE667A414A0AEB58
:102330008303954293ED026AE6EE667ABDEEC77AB4
:1023400017EE104AFDEEE77A17EE903A5BD1A3EB59
:102350000409B9F1000FB8BFC9F100099C42C9F1E5
:1023600001054BD34FF0FF327F2F039211D83F2B43
:102370000FD8DA084FF0010E03F0070C07EBC2127A
:102380000EFA0CFC024492F810E04CEA0E0C82F8B3
:1023900010C0C9F100084FF0010EE20804F0070C6C
:1023A0007F2901EBC21205FA0EFB0EFA0CFC08D8CD
:1023B0003F2C024405D892F810E04CEA0E0C82F84B
:1023C00010C0B8EB450F15DABBF1000FA5EB0905FE
:1023D00001F101010EDDB942DDD1A342DBD1DAF812
:1023E00008380137059A1344B3423FF77FAF07B06F
:1023F000BDE8F08F039A01351444ECE701227F2FEA
:102400000392B4D9C5E7012317EE102ACDED007A67
:1024100001933B46A847E2E720234BE700233BE735
:102420000021984755E700BF7D0A000800000042E0
:10243000000020423913000830B5046883B0054617
:1024400023682046DB689847F0B923682046DB689C
:102450009847013883B222682046A3809368984742
:10246000A0B9236820469B689847013883B2286842
:10247000074AE38001230468D5F818180093A46A7A
:102480000CCAA04703B030BD0023E4E70023EEE709
:102490004C0100240379012B2DE9F047044684B058
:1024A00054D0022B58D0002B53D027682E4A3B68BB
:1024B0001B6B934253D107F1080807F18F0607F20F
:1024C0008F4A4FF0B00900244FF47A75022303AA13
:1024D0008DF80C4040468DF80D90397B009503F047
:1024E000E5FC8DF80C408DF80D400223397B03AAE2
:1024F0004046009503F0DAFC10238DF80C4003AA47
:102500008DF80D304046397B02230095A6F18004FA
:1025100003F0CCFC40214FF47A75022303AA8DF816
:102520000C10404614F8011F8DF80D10397B0095F2
:1025300003F0BCFCA642EDD1803609F10109B24599
:102540005FFA89F9BFD104B0BDE8F087FFF792FECA
:10255000ABE7FFF771FFA8E7FFF7FAFDA5E73846FD
:1025600004B0BDE8F0471847F90A00080021DFF879
:1025700078C00022C0F8B010C0F8B410C0F8B8C0DD
:10258000C0F8BC10C0F8C0C0C0F8C4C0C0F8C8C013
:10259000C0F8CC10C0F8D010C0F8D410A0F8DC20DF
:1025A000C0F8E010C0F8E410C0F8E8C0C0F8EC10C3
:1025B000C0F8F0C0C0F8F4C0C0F8F8C0C0F8FC1013
:1025C000C0F80011C0F80411A0F80C21C0E947229E
:1025D000C0E94922C0E94B22C0E94D22C0E94F229F
:1025E000C0E95122704700BF000080BF704700BFA4
:1025F000012970B504462DED028B80F8DC1182B004
:1026000000F0CB80022900F0DF81002900F0228158
:1026100090F86C11D0F870C1D0ED5D6A90F87C2113
:1026200094ED617AD0F88001D4ED657A94F88C311C
:10263000D4F89051082994ED660ADFEDB58AB7EE1B
:10264000008A28BF0021082AC4F804C028BF00223D
:10265000082B217028BF0023206384F82C2004F16C
:10266000580084F85830E56504F1B005C6FEA86A44
:1026700087FE287AC6FEC86A87FE487AC4ED036AD8
:1026800084ED0E7AC7FEA87A84ED180AC7FEC87AD0
:10269000C4ED197A13F068F994F89C31B0EE407AE1
:1026A000D4F8A021082B94ED6A0AC4F8882004F11C
:1026B000840028BF002384ED1D7AD4ED697A84F864
:1026C0008430C7FEA87A84ED230AC7FEC87AC4ED19
:1026D000247A13F049F9F0EE407A012194ED6B0A67
:1026E00028460195C4ED287A12F09AFC94ED6C0A04
:1026F0000221019812F094FC94ED6E0A04210198D5
:1027000012F08EFCD4ED6D7AF4EEE87AF1EE10FA68
:102710003DD9F4EE487AF1EE10FA78FE277A04F10A
:10272000E000C4ED2C7A94ED700A0121019012F0C2
:1027300077FC94ED710A0221019812F071FC94ED7E
:10274000730A0421019812F06BFCD4ED727AF5EE55
:10275000C07AF1EE10FA1DD9B7EE007AF4EE477A9E
:10276000F1EE10FA77FE277A04F5887094ED750A79
:10277000C4ED387A019012F0CFFE94ED760A0198FC
:1027800002B0BDEC028BBDE8704012F023BFDFED5C
:10279000617AC4E7DFED5F7AE6E75F4E5F4AD6ED28
:1027A000007A5F4E5F4B3678D2ED006A84F89C6108
:1027B0005D4E1A7836685D48C4F8A0615C4E5D4B8A
:1027C0003668D0F800C0C4F8A4615B4E186836685B
:1027D0005A4BC4F8AC615A4E93ED007A36685949A9
:1027E000C4F8B061584E594B3668594DC4F8B861B9
:1027F000584E097836681B782D68C4F8B461564E77
:1028000084F86C11C4F870C1C4ED5D6A84F87C2151
:10281000C4F8800184ED617A84F88C31C4F8905159
:10282000C4ED657A3668C4F8C0614C4E3668C4F8A9
:10283000C4614B4E3668C4F8CC614A4E3668C4F861
:10284000C861494E3668C4F8D461484E3668C4F849
:10285000D861EFE6464E474AD6ED007A464E474BE2
:102860003678D2ED006A84F89C61454E1A78366855
:102870004448C4F8A061444E444B3668D0F800C0C8
:10288000C4F8A461424E18683668424BC4F8AC6183
:10289000414E93ED007A36684049C4F8B061404E2D
:1028A000404B3668404DC4F8B861404E09783668F0
:1028B0001B782D68C4F8B4613D4E84F86C11C4F8DF
:1028C00070C1C4ED5D6A84F87C21C4F8800184ED98
:1028D000617A84F88C31C4F89051C4ED657A366819
:1028E000C4F8C061334E3668C4F8C461324E3668ED
:1028F000C4F8CC61314E3668C4F8C861304E3668D1
:10290000C4F8D4612F4E3668C4F8D86192E600BF8F
:10291000000000000AD723BC7C000024F000002443
:1029200085000024F900002478000024C40000245D
:1029300080000024C8000024CC000024F4000024FF
:10294000D4000024F8000024E800002484000024BF
:102950007400002418170024D8000024DC00002490
:10296000E0000024E4000024D0000024EC00002457
:1029700068000024B400002471000024C00000247A
:1029800064000024880000246C0000248C000024D3
:1029900090000024B800002498000024141700249C
:1029A000AC0000247000002460000024BC0000245F
:1029B0009C000024A0000024A4000024A8000024FF
:1029C00094000024B0000024304E314AD6ED007A45
:1029D000304E314B3678D2ED006A84F89C612F4E30
:1029E0001A7836682E48C4F8A0612E4E2E4B3668F1
:1029F000D0F800C0C4F8A4612C4E186836682C4B7F
:102A0000C4F8AC612B4E93ED007A36682A49C4F8BD
:102A1000B0612A4E2A4B36682A4DC4F8B8612A4E56
:102A2000097836681B782D68C4F8B461274E84F89D
:102A30006C11C4F870C1C4ED5D6A84F87C21C4F8DF
:102A4000800184ED617A84F88C31C4F89051C4ED32
:102A5000657A3668C4F8C0611D4E3668C4F8C46132
:102A60001C4E3668C4F8CC611B4E3668C4F8C86189
:102A70001A4E3668C4F8D061194E3668C4F8D4616D
:102A8000184ED6F800E0C4F8D8E1D3E5540000248D
:102A90003C0000245D000024490000245000002474
:102AA0000C0000245800002410000024140000240E
:102AB000400000241C0000244800002434000024AE
:102AC0005C0000244C000024440000242400002466
:102AD000280000242C0000243000002420000024C2
:102AE0001800002438000024F7EE007A2DE9F041A8
:102AF0002DED048B87EE809A4FF07C55DFED428AF6
:102B00004FF0000845600446C0ED028A0026C5600B
:102B100040F20117B0EE408AC0F81880B0EE680AA3
:102B200080ED048A80ED059A12F01EFFF0EE407AE7
:102B300004F12C0084ED0F8A84ED109AB0EE680A3F
:102B4000C4ED077AC4ED0D8A267027852563A56339
:102B5000C4F8448012F008FF04F1580084ED120A12
:102B6000B0EE680A84ED1A8A84ED1B9AC4ED188AC7
:102B700084F82C60A4F85470E5656566C4F870802C
:102B800012F0F2FE04F1840084ED1D0AB0EE680A32
:102B900084ED258A84ED269AC4ED238AC4F89C80AE
:102BA00084F85860A4F88070C4F88850C4F8905035
:102BB00012F0DAFEF0EE407A04F1B000B0EE480A0E
:102BC000012184F88460C4ED287AA4F8AC7012F076
:102BD000AFF9B0EE480A012104F1E00012F0A8F9C3
:102BE00004F58870B0EE480A12F0FAFA074B204656
:102BF00084F8DD61C4F8E0310221BDEC048BBDE84E
:102C0000F041FFF7F5BC00BF0000C8420000DC4304
:102C100070B582B0044602AB03E90600DDED007A30
:102C20009DF8045037EEA77AC0ED5E7A80ED627AA7
:102C300015B190F8DD611EB184F8DD5102B070BDB0
:102C40003146B03012F0E4F9314604F1E00012F000
:102C5000DFF984F8DD5102B070BD00BF70B52DED15
:102C6000028BB7EE008A04465830D4ED5E8A12F02B
:102C7000C5FC30EE080A204604F12C0604F58875E0
:102C800020EE280A84ED020A12F06EFE04F18400A0
:102C900084ED070AD4ED628A12F0B0FC30EE080A27
:102CA000304620EE280A84ED0D0A12F05DFE94F8FD
:102CB000DD1104F1B00084ED120A12F039FA94F833
:102CC000DD1104F1E000F0EE408A12F031FA114B10
:102CD000D4ED747A284693ED007A20EE070A20EEB0
:102CE000270A12F019FC204612F088FCB0EE408A48
:102CF000304612F083FCF6EE007A38EE008A284661
:102D000028EE278A28EE880ABDEC028BBDE87040C9
:102D100012F00CBB180000242DE9F04F0121002413
:102D20005A230546504A87B0037505F5B078C1634C
:102D300005F5DA7A80F82C3080F8483040F2032329
:102D4000C26042620264C0E90141C0E90741032157
:102D5000C0E90D4485F8501054302B832B8601F0C8
:102D600095F905F19C0001F017FA4FF080404FF003
:102D70007E520023C5F8C0004FF0FF30C5F8C420D4
:102D800005F5E47C394A3A49C5F8B80040F20470C8
:102D900085F8B4400C46C5F8BC3005F5A271C5F8FD
:102DA000CC3004F11C09C5F8D8300E46C5F8D02047
:102DB00004F13807C5F8D42005F5CC72C5F8DC302D
:102DC00005F5BE73A5F8C80004F1B400019304F141
:102DD0005403029205F5FC72039304F1700B059005
:102DE00004F1840E04920FCC0FC694E8070086E825
:102DF0000700B9E80F00A8E80F0099E80700019C58
:102E000088E807000FCF0FC4039B97E807001E4612
:102E100084E807000FCE029C27460FC796E80700FC
:102E200087E80700BBE80F00AAE80F00DBF80030D6
:102E3000CAF80030BEE80F00ACE80F00BEE80F0093
:102E4000ACE80F009EE80F008CE80F000598049C8A
:102E500006460FCE0FC496E8030084E80300284618
:102E600007B0BDE8F08F00BF01080109000048422B
:102E7000148F010810B504469C3001F09BF904F151
:102E8000540001F033F9204610BD00BF2DE9F04F8A
:102E900004469BB001270260079114AD87600DF1D5
:102EA0005009406804F11C0EA1680DF1280CE2687D
:102EB0000FAE2369E246E3464FF00A080FC5238BA5
:102EC0006069AB80AB88286004F13405E06223863A
:102ED000B9E80F00E0614FF0000921626262A3626D
:102EE000BEE80F00ACE80F004FF010030F908DF814
:102EF0004C30DEF80030CCF8003084F84830002345
:102F00000A90CDE91173BDF83030ADF84030BDF80E
:102F10003230ADF84230BAE80F00A0632846E163D2
:102F200031462264636402F029FF00965E22CDE9F7
:102F3000017894F84C3094F84810002818BF43F0FA
:102F40000103284684F84C3063238DF827303B4634
:102F500002F0D4FF00965E22CDE9017894F84C305F
:102F600094F84810002818BF43F00103284684F85D
:102F70004C309DF83C308DF83C908DF828303B4625
:102F800002F0E4FF0DF1270380220093CDE90178E0
:102F900094F84C3094F84810002818BF43F001030F
:102FA000284684F84C303B4602F0D0FFCDF800B004
:102FB0005E22CDE9017894F84C3094F8481000284E
:102FC00018BF43F00103284684F84C303B4602F01A
:102FD000BDFF94F84C30002818BF43F00103384679
:102FE00084F84C3004F0EAFA3B465E22009628460C
:102FF0008DF83C90CDE9017894F8481002F0A6FFD6
:1030000000963B46CDE9017894F84C2094F848109E
:10301000002818BF42F00102284684F84C205D22A7
:1030200002F06CFF94F84C30002818BF43F0010305
:1030300084F84C309DF83C30242B10D020680121BE
:1030400001F020F92068642101F0F4F820680021E3
:1030500001F018F96421206801F0ECF8EEE794F82B
:1030600030304FF04109059394F831300693012731
:103070004FF00A08059B5E22009628468DF82730FF
:103080003B464FF0000ACDE9017894F8481002F071
:1030900035FF00965E22CDE9017894F84C3094F823
:1030A0004810002818BF43F00103284684F84C302C
:1030B0009DF83C308DF83CA08DF828303B4602F05E
:1030C00045FF0DF127034A460093CDE9017894F8B6
:1030D0004C3094F84810504518BF43F0010328467F
:1030E00084F84C303B4602F031FFCDF800B05E2250
:1030F000CDE9017894F84C3094F84810504518BF49
:1031000043F00103284684F84C303B4602F01EFF92
:10311000069B00965E228DF82730CDE9017894F861
:103120004C3094F84810504518BF43F0010328462E
:1031300084F84C303B4602F0E1FE00965E22CDE979
:10314000017894F84C3094F84810504518BF43F07B
:103150000103284684F84C309DF83C308DF83CA0A3
:103160008DF828303B4602F0F1FE0DF1270309EB04
:10317000070209F10209009392B21FFA89F9CDE919
:10318000017894F84C3094F84810504518BF43F03B
:103190000103284684F84C303B4602F0D7FECDF8B8
:1031A00000B05E22CDE9017894F84C3094F84810D4
:1031B000504518BF43F00103284684F84C303B4685
:1031C00002F0C4FE94F84C30504518BF43F00103A0
:1031D000B9F1590F84F84C307FF449AF3B465E2279
:1031E000009628468DF82770CDE9017894F84810AC
:1031F00002F084FE00965E22CDE9017894F84C300E
:1032000094F84810504518BF43F00103284684F84D
:103210004C309DF83C308DF83CA08DF828303B4672
:1032200002F094FE0DF127032B220093CDE90178E3
:1032300094F84C3094F84810504518BF43F00103FF
:10324000284684F84C303B4602F080FECDF800B0B2
:103250005E22CDE9017894F84C3094F8481050453E
:1032600018BF43F00103284684F84C303B4602F077
:103270006DFE00965E228DF82770CDE9017894F8F6
:103280004C3094F84810504518BF43F001032846CD
:1032900084F84C303B4602F031FE00965E22CDE9C8
:1032A000017894F84C3094F84810504518BF43F01A
:1032B0000103284684F84C309DF83C308DF83CA042
:1032C0008DF828303B4602F041FE0DF127032C22F9
:1032D0000093CDE9017894F84C3094F848105045AB
:1032E00018BF43F00103284684F84C303B4602F0F7
:1032F0002DFECDF800B05E22CDE9017894F84C3077
:1033000094F84810504518BF43F00103284684F84C
:103310004C303B4602F01AFE00965E22CDE9017861
:1033200094F84C3094F84810504518BF43F001030E
:10333000284684F84C300E238DF827303B4602F0A7
:10334000DDFD00965E22CDE9017894F84C3094F8CA
:103350004810504518BF43F00103284684F84C300C
:103360009DF83C308DF83CA08DF828303B4602F0AB
:10337000EDFD0DF127032D220093CDE9017894F89E
:103380004C3094F84810504518BF43F001032846CC
:1033900084F84C303B4602F0D9FDCDF800B05E22F7
:1033A000CDE9017894F84C3094F84810504518BF96
:1033B00043F00103284684F84C303B4602F0C6FD3A
:1033C00000965E228DF827A0CDE9017894F84C3064
:1033D00094F84810504518BF43F00103284684F87C
:1033E0004C303B4602F08AFD00965E22CDE9017822
:1033F00094F84C3094F84810504518BF43F001033E
:10340000284684F84C309DF83C308DF83CA08DF86F
:1034100028303B4602F09AFD0DF127032E2200933F
:10342000CDE9017894F84C3094F84810504518BF15
:1034300043F00103284684F84C303B4602F086FDF9
:10344000CDF800B05E22CDE9017894F84C3094F8C4
:103450004810504518BF43F00103284684F84C300B
:103460003B4602F073FD00965E228DF82770CDE991
:10347000017894F84C3094F84810504518BF43F048
:103480000103284684F84C303B4602F037FD009695
:103490005E22CDE9017894F84C3094F848105045FC
:1034A00018BF43F00103284684F84C309DF83C30A7
:1034B0008DF83CA08DF828303B4602F047FD0DF119
:1034C00027032F220093CDE9017894F84C3094F82B
:1034D0004810504518BF43F00103284684F84C308B
:1034E0003B4602F033FDCDF800B05E22CDE9017815
:1034F00094F84C3094F84810504518BF43F001033D
:10350000284684F84C303B4602F020FD00965E22AF
:10351000CDE9017894F84C3094F84810504518BF24
:1035200043F00103284684F84C3005238DF82730FA
:103530003B4602F0E3FC00965E22CDE9017894F868
:103540004C3094F84810504518BF43F0010328460A
:1035500084F84C309DF83C308DF83CA08DF8283034
:103560003B4602F0F3FC0DF1270330220093CDE936
:10357000017894F84C3094F84810504518BF43F047
:103580000103284684F84C303B4602F0DFFCCDF8BE
:1035900000B05E22CDE9017894F84C3094F84810E0
:1035A000504518BF43F00103284684F84C303B4691
:1035B00002F0CCFC00965E228DF82770CDE90178F0
:1035C00094F84C3094F84810504518BF43F001036C
:1035D000284684F84C303B4602F090FC00965E2270
:1035E000CDE9017894F84C3094F84810504518BF54
:1035F00043F00103284684F84C309DF83C308DF8A8
:103600003CA08DF828303B4602F0A0FC0DF12703CA
:1036100031220093CDE9017894F84C3094F84810A9
:10362000504518BF43F00103284684F84C303B4610
:1036300002F08CFCCDF800B05E22CDE9017894F860
:103640004C3094F84810504518BF43F00103284609
:1036500084F84C303B4602F079FC00965E228DF8EF
:1036600027A0CDE9017894F84C3094F848105045E3
:1036700018BF43F00103284684F84C303B4602F063
:103680003DFC00965E22CDE9017894F84C3094F828
:103690004810504518BF43F00103284684F84C30C9
:1036A0009DF83C308DF83CA08DF828303B4602F068
:1036B0004DFC0DF1270332220093CDE9017894F8F7
:1036C0004C3094F84810504518BF43F00103284689
:1036D00084F84C303B4602F039FCCDF800B05E2255
:1036E000CDE9017894F84C3094F84810504518BF53
:1036F00043F00103284684F84C303B4602F026FC98
:1037000000965E228DF827A0CDE9017894F84C3020
:1037100094F84810504518BF43F00103284684F838
:103720004C303B4602F0EAFB00965E22CDE9017880
:1037300094F84C3094F84810504518BF43F00103FA
:10374000284684F84C309DF83C308DF83CA08DF82C
:1037500028303B4602F0FAFB0DF127033322009399
:10376000CDE9017894F84C3094F84810504518BFD2
:1037700043F00103284684F84C303B4602F0E6FB58
:10378000CDF800B05E22CDE9017894F84C3094F881
:103790004810504518BF43F00103284684F84C30C8
:1037A0003B4602F0D3FB00965E228DF827A0CDE9C0
:1037B000017894F84C3094F84810504518BF43F005
:1037C0000103284684F84C303B4602F097FB0096F4
:1037D0005E22CDE9017894F84C3094F848105045B9
:1037E00018BF43F00103284684F84C309DF83C3064
:1037F0008DF83CA08DF828303B4602F0A7FB0DF178
:10380000270334220093CDE9017894F84C3094F8E2
:103810004810504518BF43F00103284684F84C3047
:103820003B4602F093FBCDF800B05E22CDE9017873
:1038300094F84C3094F84810504518BF43F00103F9
:10384000284684F84C303B4602F080FB00965E220E
:103850008DF827A0CDE9017894F84C3094F8481001
:10386000504518BF43F00103284684F84C303B46CE
:1038700002F044FB00965E22CDE9017894F84C30CA
:1038800094F84810504518BF43F00103284684F8C7
:103890004C309DF83C308DF83CA08DF828303B46EC
:1038A00002F054FB0DF1270335220093CDE9017896
:1038B00094F84C3094F84810504518BF43F0010379
:1038C000284684F84C303B4602F040FBCDF800B06F
:1038D0005E22CDE9017894F84C3094F848105045B8
:1038E00018BF43F00103284684F84C303B4602F0F1
:1038F0002DFB00965E228DF827A0CDE9017894F883
:103900004C3094F84810504518BF43F00103284646
:1039100084F84C303B4602F0F1FA00965E22CDE985
:10392000017894F84C3094F84810504518BF43F093
:103930000103284684F84C309DF83C308DF83CA0BB
:103940008DF828303B4602F001FB0DF127035B2286
:103950000093CDE9017894F84C3094F84810504524
:1039600018BF43F00103284684F84C303B4602F070
:10397000EDFACDF800B05E22CDE9017894F84C3034
:1039800094F84810504518BF43F00103284684F8C6
:103990004C303B4602F0DAFA00965E22CDE901781F
:1039A00094F84C3094F84810504518BF43F0010388
:1039B000284684F84C3010238DF827303B4602F01F
:1039C0009DFA00965E22CDE9017894F84C3094F887
:1039D0004810504518BF43F00103284684F84C3086
:1039E0009DF83C308DF83CA08DF828303B4602F025
:1039F000ADFA0DF127035C220093CDE9017894F82C
:103A00004C3094F84810504518BF43F00103284645
:103A100084F84C303B4602F099FACDF800B05E22B3
:103A2000CDE9017894F84C3094F84810504518BF0F
:103A300043F00103284684F84C303B4602F086FAF6
:103A400000965E22CDE9017894F84C3094F8481045
:103A5000504518BF43F00103284684F84C3020231A
:103A60008DF827303B4602F049FA00965E22CDE9F8
:103A7000017894F84C3094F84810504518BF43F042
:103A80000103284684F84C309DF83C308DF83CA06A
:103A90008DF828303B4602F059FA0DF127035D22DC
:103AA0008DE8880194F84C3094F84810504518BFC0
:103AB00043F00103284684F84C303B4602F046FAB6
:103AC000CDF800B05E22CDE9017894F84C3094F83E
:103AD0004810504518BF43F00103284684F84C3085
:103AE0003B4602F033FA009602462846CDE90178BB
:103AF00094F84C3094F84810524518BF43F0010335
:103B00005E2284F84C308C238DF83C303B4602F02A
:103B10001DFA94F84C30504518BF43F001031BB117
:103B200084F84CA0FFF78ABA254684F84C30394611
:103B300055F8540B00F0A6FB0799284600F0D8FA78
:103B400004F19C0000F038FB0023042007494FF0EB
:103B5000FF32C4F8D830C4F8DC3084F8C800C4F8A8
:103B6000BC10C4F8B8201BB0BDE8F08F0000DC43E7
:103B700070B507EE901A04462DED028B062A27D861
:103B8000DFE812F026009E00C000E20004010700FA
:103B9000800000F58A750C2100F5E47300F5FC7EC9
:103BA0002A4680F8C910D3F800C0103353F80C6CC3
:103BB000103253F8080C53F8041C734542F810CC2B
:103BC00042F80C6C42F8080C42F8041CEBD120E0DF
:103BD000D0F84C3104F58A75D0F84411D0F848215A
:103BE0000720C4F81C31D4F85031C4F81411C4F8BB
:103BF0001821D4F85411D4F85821C4F82031D4F83D
:103C00005C3184F8C900C4F82411C4F82821C4F830
:103C10002C31F8EE677AF2EE080AB0EE000AC7EE31
:103C2000A00A12F051F894F8C93053B12A4605EBB6
:103C30008301D2ED007A67EE807AE2EC017A8A4263
:103C4000F7D104F1E006002507EE903A07EE105A8E
:103C500094ED338A0135F8EEE77AD4ED358AB8EE83
:103C6000C70AD4ED310A80EE270A12F02DF8A8EE2B
:103C7000808AA6EC018A94F8C930AB42E4DABDEC44
:103C8000028B70BDD0F8F82104F58A75D0F8FC31AC
:103C90000620D4F80062D4F80412C4F81421C4F841
:103CA0001831D4F80822D4F80C32C4F82421C4F80E
:103CB0001C6184F8C900C4F82011C4F82831A8E7B1
:103CC000D0F8683104F58A75D0F86011D0F8642115
:103CD0000720C4F81C31D4F86C31C4F81411C4F8AE
:103CE0001821D4F87011D4F87421C4F82031D4F814
:103CF000783184F8C900C4F82411C4F82821C4F824
:103D00002C3186E7D0F8843104F58A75D0F87C111F
:103D1000D0F880210720C4F81C31D4F88831C4F8C9
:103D20001411C4F81821D4F88C11D4F89021C4F8D7
:103D30002031D4F8943184F8C900C4F82411C4F8AF
:103D40002821C4F82C3164E7D0F8A03104F58A7535
:103D5000D0F89811D0F89C210720C4F81C31D4F871
:103D6000A431C4F81411C4F81821D4F8A811D4F857
:103D7000AC21C4F82031D4F8B03184F8C900C4F8BB
:103D80002411C4F82821C4F82C3142E7D0F8B4310A
:103D9000052104F58A75C0F81431D4F8BC31D0F887
:103DA000B801D4F8C021C4F81C31D4F8C431C4F827
:103DB000180184F8C910C4F82021C4F8243128E778
:103DC00080F8C810704700BF2DE9F0412DED028B3F
:103DD00086B00A22022301F134070DF116060C46C3
:103DE000054638460096CDE90132012391ED2F8A30
:103DF000002291F8481002F081F894F84C30002825
:103E000018BF43F0010384F84C30BDF8163013F0AE
:103E1000010300F0A18094F8B43013B9012384F8B1
:103E2000B43001234FF00A0800961E220193384651
:103E3000CDF8088094F8481002F060F80096CDF8AC
:103E40000880014694F84C20012338469DF81660FE
:103E5000002918BF42F0010284F84C20022201928E
:103E6000042294F8481002F049F8BDF8163094F88E
:103E70004C20C3EB8603002818BF42F0010204F176
:103E80009C0000EE103A94F8503084F84C2007EE75
:103E9000103AF8EEC07AB8EE470A37EEC00A84ED61
:103EA000360A00F091F904F1540000F029F9D4F831
:103EB000B830D4ED347ADFED406A002B94ED337ADC
:103EC00077EEE67A94F8C92080FE070A80FE670A3A
:103ED00084ED370A01DB934249DB002A44D0D4ED5C
:103EE000387A04F1E401002302E0013393423BDA23
:103EF000B0EE677A02F1FF3CF1EC017AB4EEC07AE1
:103F0000F1EE10FA04D8F4EEC07AF1EE10FA06DC05
:103F10009C45EAD1F4EEC07AF1EE10FAE5D894F8B7
:103F2000C81001228A4008EE102A04EB8302B8EE82
:103F3000C88AD2ED457A94F8B420C4F8B83028EE97
:103F4000278A84ED2F8A85ED008A2A71284606B0DB
:103F5000BDEC028BBDE8F08194F8B420002AF2D0C9
:103F60001A4684F8B430EEE794F8B420EBE79FEDFE
:103F7000137A04EB830394ED356AD4ED306AC6EE10
:103F8000077A93ED387A67EEA67A37EE677AB4EE61
:103F9000C07AF1EE10FAA2D893ED397A77EE877AEB
:103FA000F4EEC07AF1EE10FA99DD94F8B43085EDB4
:103FB000008A2B71CAE700BF6F12833A0000C84223
:103FC00070B5F0EE400A0025044690F8C93000F1C3
:103FD000E00680ED310A2DED028B01E0D4ED310ACF
:103FE00007EE903A07EE105A94ED338A0135F8EE59
:103FF000E77AD4ED358AB8EEC70A80EE270A11F0C9
:1040000063FEA8EE808AA6EC018A94F8C930AB4220
:10401000E4DABDEC028B70BD70B52DED028B90ED36
:10402000338A0446B4EEC08AF1EE10FA03DBB7EE31
:10403000000A38EE000A70EE488A94F8C93004F19C
:10404000E006002584ED340AC4ED358A03E094EDE2
:10405000338AD4ED358A07EE903A07EE105AD4ED44
:10406000310A0135F8EEE77AB8EEC70A80EE270A82
:1040700011F02AFEA0EE288AA6EC018A94F8C93035
:10408000AB42E4DABDEC028B70BD00BF154A0346BB
:10409000154900F1080C2DE9F047416002F10C08C8
:1040A00000F1140702F1180600F1280502F1240EB0
:1040B000002407CA8CE8070098E8070087E8070093
:1040C00096E80700C3E9084403F1340C85E80700CB
:1040D0009EE807008CE8070018461C645C64BDE895
:1040E000F08700BFE08F01080000C842704700BFA2
:1040F000002301700364436403624362704700BF9E
:1041000003782BB3012B20D190ED096A90ED077A4B
:10411000D0ED086A26EE077AD0ED064AD0ED037A94
:1041200090ED025AA4EEA67AD0ED045A66EEA77A74
:10413000C0ED096A30EE477AE5EE077A80ED087A3D
:10414000B0EE670AA6EE250A70479FED120A704787
:1041500090ED116A90ED0F7AD0ED106A26EE077A95
:10416000D0ED0E4AD0ED0B7A90ED0A5AA4EEA67A65
:10417000D0ED0C5A66EEA77AC0ED116A30EE477AA0
:10418000E5EE077A80ED107AB0EE670AA6EE250A12
:10419000704700BF0000000000220346DFF810C097
:1041A00043F804CB4260C3E90122C3E9032270470C
:1041B0000000C842704700BF002343608360C360B3
:1041C00003614361704700BF86B041680369C268FC
:1041D000D0F808C0436181600261C0F80CC080ED76
:1041E000010A02A8029100218DED010ACDF80CC050
:1041F00004920593B0EC017A0B46024652ED027A26
:10420000F4EEC77AF1EE10FA12DD013B62ED017AAD
:10421000B3F1FF3FF2D1002306AA013102EB830381
:10422000042903ED057AE5D19DED030A06B0704738
:104230000133F1E7084603F0C1B900BF143001F0C3
:104240000DBA00BF143001F005BA00BF38B500F157
:10425000140504462DED028B284601F0EDF92846A1
:1042600001F0F8F92846B0EE408A01F0E1F9D0ED0E
:10427000007AF8EE677A88EE277ABDEC028B84ED3F
:104280001B7A38BD283001F0F5BB00BF10B540F2F5
:1042900003338EB000244FF60B7240F20341ADF8A9
:1042A000083009A80123ADF81020ADF824202246DB
:1042B000ADF80C100094029907940C94CDE90544D4
:1042C000CDE90A4401F0E4FA04A801232246039947
:1042D000009401F0DDFA09A801F0C0FB10B901203B
:1042E0000EB010BD04A801F0B9FBA0420CBF022023
:1042F00020460EB010BD00BF2DE9F04103239AB057
:104300004FF0010800254FF60B740746CDE914382D
:10431000394BADF84C40CDE91053A3F19F63A3F5A1
:104320007D43CDE916581293FFF7B0FF404506468E
:1043300023D0022842D040F60132304B07F158001A
:104340000BACADF82C200B991895CDF86480CDF806
:104350004A3000F0DBF810A907F1700002F028FDE8
:10436000274B0FCB84E80F003A6F214607F114006A
:1043700001F026F91AB0BDE8F08110231F4A06A902
:1043800006908DF828300BAC1E4BCDF84A200793D1
:104390000295CDE91805CDE9080502A801F0EEFC6B
:1043A0000823029A03A92046ADF80C608DF80E5040
:1043B000049605930B9500F0E9F8CCE740F601333D
:1043C000ADF82C4000200BACADF8183001210B4BA0
:1043D00042460095CDF84A302B460E95CDE918019E
:1043E00006992046CDE90C5501F052FA294620469F
:1043F00001F040FBAFE700BF04020404040604031D
:10440000109001080704010B2DE9F04704462DED3B
:10441000028B82B0002949D0012140F20112002311
:104420000091ADF804208DF80630354A0127354B50
:1044300004F10409344904F13C08626040F202725C
:10444000A36040F60663E16004F1280A2285A38791
:104450002782E762276403F05DFA054603F0B0F8AF
:104460006946064650BB4DB304F150008DF8067006
:1044700003F0D2F9072D3ED104F114052046FFF7D1
:104480003BFF284601F0E6F82846B0EE408A01F0EE
:10449000CFF8D0ED007AF8EE677A88EE277A84EDCF
:1044A0001B7A02B0BDEC028BBDE8F08740F201132D
:1044B00000918DF80610ADF80430B6E704F1500015
:1044C00003F0AAF9072D13D04946204602F07CF8E4
:1044D0000EB9002DD0D15146504601F0F3F84046B8
:1044E000414601F0EFF804F1120000F079F9C3E75A
:1044F000002EF0D1C0E74946204602F065F8BBE740
:104500000508050905070506050A060630B585B044
:10451000002504460122ADF80C102B4603990095A6
:1045200001F0B6F90121204601F0A4FA012003F0C0
:1045300045F82946204601F09DFA012003F03EF897
:104540000121204605B0BDE8304001F093BA00BF1C
:1045500010B5C2F3002384B00C46017C8DF80D2009
:1045600043EA4402FA2402238DF80C2003AA0094A3
:1045700001F09CFC18B10124204604B010BD044693
:104580000A2003F01BF8204604B010BD034670B5A6
:1045900043F8042B044684B007C983E80700A379D5
:1045A00083B91A210B461E22FA2523742046ADF842
:1045B0000C20022303AA009501F078FC28B1012009
:1045C00004B070BD1B210B46EDE70A2002F0F6FF98
:1045D0004FF4B85200950223ADF80C20204603AAF0
:1045E000217C01F063FC0028E9D10A2002F0E6FFFB
:1045F00041F2027200950223ADF80C20204603AA76
:10460000217C01F053FC0028D9D10A2002F0D6FF0A
:10461000042200950223ADF80C20204603AA217C39
:1046200001F044FC0028CAD10A2002F0C7FF06228C
:1046300000950223ADF80C20204603AA217C01F04E
:1046400035FC0028BBD10A2002F0B8FF41F2082255
:1046500000950223ADF80C20204603AA217C01F02E
:1046600025FC0028ABD10A20064602F0A7FF0095E2
:10467000022303AA217C2046ADF80C6001F016FC51
:1046800000289CD1304602F099FF009522790C2336
:104690002046002A8DF80C3003AA4FF0020314BF05
:1046A000622142218DF80D10217C01F0FFFB0028D2
:1046B00085D1304602F082FF2279D4E902310B43E2
:1046C000DBB20AB943F0400362790AB143F0200338
:1046D0000E22FA258DF80D302046009502238DF824
:1046E0000C2003AA217C01F0E1FB00287FF467AFD6
:1046F0000A2002F063FF102200950223ADF80C207F
:10470000204603AA217C01F0D1FB00287FF457AF9B
:104710000A2002F053FF122100950223ADF80C107D
:1047200003AA217C204601F0C1FB00287FF447AF9B
:104730000A2002F043FF012209212046FFF708FF6B
:10474000003818BF01203BE7F0B5102387B0234C99
:10475000012200250126002702A920460195CDE966
:1047600002234FF48052CDE904670AF091FD6420E2
:1047700003F0BEFA02A94FF480522046CDE9046747
:1047800002261027CDE902670AF082FD03221023DA
:1047900002A92046CDE9022300230422CDE9042307
:1047A0004FF480520AF074FD40F23223042202A931
:1047B000019310232046CDE90223019A012305929B
:1047C0004FF4805204930AF063FD40F60601204640
:1047D0000AF07EFD284607B0F0BD00BF2417002474
:1047E0001C4B00221C494FF0400C30B5054689B0E7
:1047F0000220596007219A601A620124DA620A22B3
:104800004FF4006EDC6006922022CDE90001042006
:104810000821CDE9020103201021CDE9040108207F
:104820006946C3E904024FF4C072181DC3E906C209
:104830004FF48052C3E909E20AF000FD38B9284676
:10484000FFF782FF003818BF012009B030BD2046B5
:1048500009B030BD2017002440410052614A0021B8
:10486000D0B513688EB00A91002B40F0B9805E4B32
:1048700001214FF683700C2411600221D3F8D4205B
:104880000026032742F48052C3F8D420D3F8D42062
:1048900002F480520092009AD3F8E02042F0100215
:1048A000C3F8E020D3F8E02002F010020192019A50
:1048B000D3F8E02042F04002C3F8E020D3F8E02033
:1048C00002F040020292029AD3F8E02042F008027D
:1048D000C3F8E020D3F8E02002F008020392039A24
:1048E000D3F8E02042F48072C3F8E020D3F8E0204F
:1048F00002F480720492049AD3F8E02042F080021D
:10490000C3F8E020D3F8E02002F080020592059A77
:10491000D3F8E02042F02002C3F8E020D3F8E020F2
:1049200002F020020692069AD3F8E02042F0040238
:10493000C3F8E020D3F8E0300C9403F004030793AD
:104940000323079A0B93CDE9080108A9274804F02F
:104950004FFD48F23712022308A925480C94CDE9EF
:104960000823CDE90A6704F043FD4CF203720223E9
:1049700008A920480C94CDE90823CDE90A6704F082
:1049800037FD40F2FF62022308A91B480C94CDE9D1
:104990000823CDE90A6704F02BFD4FF60C720223C1
:1049A00008A916480C94CDE90823CDE90A6704F05C
:1049B0001FFD4FF63F02022308A911480C94CDE9D0
:1049C0000823CDE90A6704F013FD2022022308A979
:1049D0000A480C94CDE90A67CDE9082304F008FDE4
:1049E0000EB0D0BD1C17002400440258001002581D
:1049F00000180258000C025800200258001C0258EF
:104A0000001402582DE9F04FDFF8108406460D46D9
:104A1000144608F118002DED028B89B000AF02F0AA
:104A2000BFFAD8F8183073B3D8F81C30D8F804900F
:104A3000002B43690BBF4FF0080A4FF0100A4FF0EC
:104A4000020B4FF0040BB9F1000F2AD0A200EA4686
:104A5000012B02F1070222F00702ADEB020D6846BE
:104A6000ADEB020D694600F03F81022B00F0D680CD
:104A7000002B6FD02246C847D5462437BD46BDEC33
:104A8000028BBDE8F08FD8F81C30002BF5D0D8F899
:104A900004904FF0080A4FF0020B4369B9F1000F80
:104AA000D4D1FB61D8F80030BB61002BE5D0D548EC
:104AB00002F0E8FA6B46BBF1020F786108EE103A9B
:104AC000FB6900F083816A465146A2EBC402954619
:104AD0006200EA46B2FBFBF2AAEBC40085460AEB91
:104AE0008200EE46F861ADEB010DF8690EEB820C29
:104AF000C7F810C0EC46ADEB010D00EB8201CCF81D
:104B00000400CCF8081001EB82013869E946CCF8C2
:104B10000C1000EB8201CCF800A001EB8202C9E985
:104B200000E0C9E90212012B00F06483022B00F0BF
:104B30006C82002B00F08081620849466046BB69A8
:104B4000984718EE103A24379D46BD46BDEC028BBF
:104B5000BDE8F08F002C8DD01A46D8ED0C6A9FED81
:104B6000B27A8446331D36F922E00CF1080C07EEC8
:104B700090EA33F922E00232F8EEE77A944267EEE7
:104B8000877A67EEA67A4CED027A07EE90EAF8EEA5
:104B9000E77A67EE877A67EEA67A4CED017AE2D87B
:104BA000F9612246C847984ED8ED0D6A0020F96990
:104BB0002B1D9FED9E7A9FED9E6ADFED9E5A22E0AF
:104BC000F4EEC67AF1EE10FAC0F2C88447F6FE722F
:104BD000D1ED017A45F8202066EEA77AF4EEC77A87
:104BE000F1EE10FA40F2F080F4EEC67AF1EE10FA2F
:104BF000C0F2D58447F6FE7243F820200230083117
:104C000084427FF639AFD1ED007A66EEA77AF4EEF2
:104C1000C77AF1EE10FAD3D83246D9E7002C3FF428
:104C200029AFD8ED0C6A84469FED787A0022331DB7
:104C30008E4656F822100CF1080C07EE901A53F825
:104C400022100232F8EEE77A944267EE877A67EE36
:104C5000A67A4CED027A07EE901AF8EEE77A67EE44
:104C6000877A67EEA67A4CED017AE2D87146224641
:104C7000C7F81CE0C847664ED8ED0D6A0020F969F8
:104C80002B1D9FED6A7A9FED6A6ADFF894C120E0E0
:104C9000F4EEC67AF1EE10FAC0F279843246D1ED24
:104CA000017A45F8202066EEA77AF4EEC77AF1EE95
:104CB00010FA40F28780F4EEC67AF1EE10FAC0F2F4
:104CC0005E84324643F820200230083184427FF669
:104CD000D3AED1ED007A66EEA77AF4EEC77AF1EEA4
:104CE00010FAD5D86246DAE7002C3FF4C3AED8ED0F
:104CF0000C6A86469FED477A4FF0000C331D56F83C
:104D00002C200EF1080E82F40002A2F5000207EE3C
:104D1000902A53F82C200CF1020CF8EEE77A82F47A
:104D200000026445A2F5000267EE877A67EEA67A74
:104D30004EED027A07EE902AF8EEE77A67EE877A70
:104D400067EEA67A4EED017AD9D8F9612246C847B6
:104D5000314ED8ED0D6A0020F9692B1D9FED337A95
:104D60009FED336ADFF8BCC01FE0F4EEC67AF1EEC7
:104D700010FAC0F2FC833246D1ED017A45F82020CA
:104D800066EEA77AF4EEC77AF1EE10FA18D9F4EECF
:104D9000C67AF1EE10FAC0F2DA83324643F82020E8
:104DA0000230083184427FF667AED1ED007A66EEBC
:104DB000A77AF4EEC77AF1EE10FAD6D86246DBE7AE
:104DC0006246EBE762467DE7324615E7A100D6462C
:104DD0006208073121F00701ADEB010DEA46ADEBAA
:104DE000010D6946ADEB0E0D0AEB8200EC46ADEB12
:104DF0000E0D01EB8202F861E946CCE900A0C9E999
:104E0000001290E6741700240280FFFF00000030BB
:104E10000082FF7F0000003482FF7F0058170024CB
:104E2000007E00807E0080FF0000003804FF7FBF0E
:104E300004FF7F3F00FEFF46002C00F0C982BBF15B
:104E4000020FD8F8242000F0FA827969C7F804909C
:104E500002EB810E5FED0C5A8A00DCF808100EF1AF
:104E600004007A611A46DCF80C303B61331DD7F838
:104E700010903D61FD69C7E902CB8C46834636F947
:104E80002210D8ED0C7A06EE101A33F9221006EE35
:104E9000901A3EF92210B8EEC66A07EE101AF8EE24
:104EA000E66A3BF92210B8EEC77A26EE256A66EE6E
:104EB000A56A27EE257A26EE276A66EEA76A27EE10
:104EC000277A07EE901A51080232F8EEE77A0AEBD9
:104ED0008100944280ED006A05EB810067EEA57ABF
:104EE000C0ED006A0CEB810009EB810180ED007AD6
:104EF00098ED0C7A67EE877AC1ED007ABFD8D7F8C3
:104F000004903D69D7E902CB60466208BB69494617
:104F10009847D8F82C307A69D8ED0D6A1A441FEDFD
:104F20003D7A1FED3D6A2B1D904602F1040A5FEDAC
:104F30003F5A0022A84ED9E900EC51E0F4EEC67ABF
:104F4000F1EE10FAC0F2C78247F6FE7045F8220073
:104F50000CEB0100D0ED007A66EEA77AF4EEC77A8A
:104F6000F1EE10FA4BD9F4EEC67AF1EE10FAC0F277
:104F7000BA8247F6FE70BBF1020F43F822002BD035
:104F8000D9F808000844D0ED007A66EEA77AF4EE6E
:104F9000C77AF1EE10FA36D9F4EEC67AF1EE10FACD
:104FA000C0F2CD8247F6FE7048F82200D9F80C0016
:104FB0000144D1ED007A66EEA77AF4EEC77AF1EEFD
:104FC00010FA1ED9F4EEC67AF1EE10FAC0F2AF82F2
:104FD00047F6FE714AF82210023294427FF6B1ADD4
:104FE00051080EEB81008900D0ED007A66EEA77AB9
:104FF000F4EEC77AF1EE10FAA0D83046A6E73046B4
:10500000B9E73146E6E73046CEE7002C00F0E08114
:10501000BBF1020FD8F8243000F0E1817A69DCF8A6
:10502000081003EB820EC7F804909300DFED6B5A73
:105030000EF1040000227B61DCF80C303B61331D73
:10504000D7F810903D61FD69C7E902CB8C468346D5
:1050500056F82210D8ED0C7A07EE101A53F82210E9
:10506000B8EEC76A07EE101A5EF82210F8EEC76AAB
:1050700007EE101A26EE256A5BF82210B8EEC77A02
:1050800066EEA56A26EE276A27EE257A66EEA76AFF
:1050900027EE277A07EE901A51080232F8EEE77AE7
:1050A0000AEB8100944280ED006A05EB810067EE17
:1050B000A57AC0ED006A0CEB810009EB810180ED5F
:1050C000007A98ED0C7A67EE877AC1ED007ABFD846
:1050D000D7F804903D69D7E902CB60466208BB6906
:1050E00049469847D8F82C307A69D8ED0D6A1A44A9
:1050F0009FED3E7A9FED3E6A131D9246DFF8E4C0B5
:105100000022FB612B1D364ED9E9008E4EE0F4EEF5
:10511000C67AF1EE10FAC0F2FC81304645F8220062
:105120000EEB0100D0ED007A66EEA77AF4EEC77AB6
:10513000F1EE10FA49D9F4EEC67AF1EE10FAC0F2A7
:10514000EF813046BBF1020F43F822002AD0D9F894
:1051500008000844D0ED007A66EEA77AF4EEC77A2C
:10516000F1EE10FA35D9F4EEC67AF1EE10FAC0F28B
:10517000C98130464AF82200D9F80C000144D1ED2B
:10518000007A66EEA77AF4EEC77AF1EE10FA1ED92D
:10519000F4EEC67AF1EE10FAC0F2AD813146F8694C
:1051A00040F82210023294427FF6CBAC510808EB53
:1051B00081008900D0ED007A66EEA77AF4EEC77A16
:1051C000F1EE10FAA3D86046A8E76046BAE7614658
:1051D000E5E76046CEE700BF0280FFFF0000003039
:1051E0000082FF7F007E00800000003404FF7FBF4C
:1051F00004FF7F3F002C00F0EB807A690021D8F893
:105200002430C7F8109003EB820ED7F81C9093005F
:10521000FD610EF104021FED0C6A7B61331D154622
:1052200056F821204808D8ED0C6ABBF1020F82F431
:105230000002A2F5000207EE902A53F8212082F422
:105240000002B8EEE77AA2F5000227EE067A07EE32
:10525000902A0AEB8002F8EEE77A27EE267A67EECC
:10526000867A82ED007A09EB80024FEA800067EED1
:10527000A67AC2ED007A27D05EF8212082F40002DF
:10528000A2F5000207EE902A55F8212082F40002D0
:10529000B8EEE77AA2F5000227EE067A07EE902A2A
:1052A000DCF80820F8EEE77A024427EE267A67EE6B
:1052B000867A82ED007A98ED0C7ADCF80C2067EEA5
:1052C000877A0244C2ED007A02318C42A8D8D7F81E
:1052D000109060466208BB694946FD699847D8F856
:1052E0002C307A69D8ED0D6A1A441FED407A1FED13
:1052F000406A131D9246DFF8C4C20022FB612B1DD9
:10530000AB4ED9E9008E4EE0F4EEC67AF1EE10FA1B
:10531000C0F2C580304645F822000EEB0100D0ED0A
:10532000007A66EEA77AF4EEC77AF1EE10FA49D960
:10533000F4EEC67AF1EE10FAC0F2BF803046BBF14F
:10534000020F43F822002AD0D9F808000844D0ED13
:10535000007A66EEA77AF4EEC77AF1EE10FA35D944
:10536000F4EEC67AF1EE10FAC0F2AE8030464AF89A
:105370002200D9F80C000144D1ED007A66EEA77A3C
:10538000F4EEC77AF1EE10FA1ED9F4EEC67AF1EE19
:1053900010FAC0F28B803146F86940F822100232D0
:1053A00094427FF6CEAB510808EB81008900D0ED26
:1053B000007A66EEA77AF4EEC77AF1EE10FAA3D877
:1053C0006046A8E76046BAE76146E5E76046CEE793
:1053D000224649466046BB699847FFF7B2BBC7F80B
:1053E00010B0002298ED0C6A331DDFED726AD7F819
:1053F0001CB0786956F8221007EE901A53F8221064
:10540000B8EEE77A07EE901A51080232F8EEE77A22
:1054100027EE267A0AEB810E94420BEB810167EEB0
:10542000A67A27EE067A67EE867A8EED007AC1EDCF
:10543000007ADFD88300D7F810B07B614DE61A46BA
:10544000C7F810B098ED0C6A331DDFED5B6AD7F832
:105450001CB0786936F9221007EE101A33F92210C1
:1054600007EE901AB8EEC77A51080232F8EEE77AE2
:1054700027EE267A0AEB810E94420BEB810167EE50
:10548000A67A27EE067A67EE867A8EED007AC1ED6F
:10549000007ADFD88300D7F810B07B6134E5F0EEF6
:1054A000675AFEEEE45A15EE900A34E7F0EE675ABA
:1054B000FEEEE45A15EE901A6EE7F0EE675AFEEE35
:1054C000E45A15EE900A3AE7F0EE675AFEEEE45A17
:1054D00015EE900A4BE767EEA57AFDEEE77A17EE38
:1054E000900A00B232E567EEA57AFDEEE77A17EE94
:1054F000900A00B23FE5F0EE675AFEEEE05A15EE74
:10550000901A4CE6F0EE675AFEEEE05A15EE900A5D
:1055100030E6F0EE675AFEEEE05A15EE900AFDE531
:10552000F0EE675AFEEEE05A15EE900A0AE667EED4
:10553000A57AFDEEE77A17EE901A09B24AE567EE12
:10554000A57AFDEEE77A17EE900A00B22CE5F0EEB0
:10555000675AFEEEE45A15EE902A1FE467EEA57A2C
:10556000FDEEE77A17EE902A12B2FFF731BBF0EEAC
:10557000675AFEEEE45A15EE902AFFF7FDBBF0EEF7
:10558000675AFEEEE05A15EE902AFFF79BBBF0EE4D
:10559000675AFEEEE05A15EE902AFFF780BB67EEE1
:1055A000A57AFDEEE77A17EE902A12B2FFF724BB38
:1055B00082FF7F0000000030000000387E0080FF86
:1055C00030B5184C154685B0046004F1080EEC4661
:1055D0000FC98EE80F00D4ED047AF5EEC07A8CE89E
:1055E0000F00F1EE10FA1ADDB7EE006A94ED057ABD
:1055F00027EE277AC6EE276A84ED0D7AC4ED0C6A91
:105600006DB1204640F8185F01F0CAFC06490369F5
:105610000020064A2162A262E36005B030BD01208D
:1056200005B030BD581700240020003000000030C5
:1056300000680830704700BFB1F5807F03680A46F4
:1056400028BF4FF48072B1F5807F9A6094BF00202C
:10565000012070470068183001F002BD30B50468C1
:1056600083B00D46E3694BB1A3680020E26A616A2A
:105670009B00009004F11C0001F094FCA368074813
:10568000A26A9B00216A009004F1180001F08AFCD4
:105690000020C4E9005003B030BD00BF054A000837
:1056A00010B4074B4FF07E513024002203201961C3
:1056B0009C60D8605DF8044B5961C3E906227047CD
:1056C0005817002484460FC98CE80F009CF800305E
:1056D0000B2B30D09CF801200F2A2CD8022900B5C2
:1056E00091B041D0032902D0012900D000210C91B2
:1056F000DCF80810012902D0022918BF00210D9101
:10570000DCF80C10022904D0032902D0012918BFAB
:1057100000210A2B0E910FD85B4800EB8320CCF8B8
:1057200010000A2B17D8DFE803F0A0928476685A9D
:105730004C3E3022090070470020F0E7534BD3F86D
:10574000E01041F48061C3F8E010D3F8E03003F4D6
:1057500080630A930A9B01230BA993400B9303F0E8
:1057600047FE11B05DF804FB11210C91C0E7474BD7
:10577000D3F8E01041F40071C3F8E010D3F8E03042
:1057800003F400730993099BE5E7404BD3F8E0105D
:1057900041F48071C3F8E010D3F8E03003F4807373
:1057A0000893089BD7E7394BD3F8E01041F080010C
:1057B000C3F8E010D3F8E03003F080030793079BB1
:1057C000C9E7324BD3F8E01041F04001C3F8E010D4
:1057D000D3F8E03003F040030693069BBBE72B4B66
:1057E000D3F8E01041F02001C3F8E010D3F8E03026
:1057F00003F020030593059BADE7244BD3F8E0109D
:1058000041F01001C3F8E010D3F8E03003F01003CA
:105810000493049B9FE71D4BD3F8E01041F008016F
:10582000C3F8E010D3F8E03003F008030393039BC0
:1058300091E7164BD3F8E01041F00401C3F8E010F3
:10584000D3F8E03003F004030293029B83E70F4B8D
:10585000D3F8E01041F00201C3F8E010D3F8E030D3
:1058600003F002030193019B75E7084BD3F8E010A6
:1058700041F00101C3F8E010D3F8E03003F0010378
:105880000093009B67E700BF0000025800440258E5
:1058900010B592B0ADF804100180C9B2149C0B2968
:1058A000C460C0E901233FD090F801C0BCF10F0FE4
:1058B0003AD8022A3FD0032A02D0012A00D000227F
:1058C0000E92012B02D0022B18BF0023022C0F9343
:1058D0002CD0032C2AD0012C28D000230A29109385
:1058E00027D85C4A02EB812202610A2914D8DFE83A
:1058F00001F0A39587796B5D4F4133250600564B28
:10590000D3F8E01041F48061C3F8E010D3F8E03040
:1059100003F480630C930C9B01230DA9104603FA3A
:105920000CF30D9303F064FD12B010BD0A2910941E
:10593000D7D90022D8E711220E92C2E7464BD3F8FE
:10594000E01041F40071C3F8E010D3F8E03003F444
:1059500000730B930B9BDFE73F4BD3F8E01041F450
:105960008071C3F8E010D3F8E03003F480730A9339
:105970000A9BD1E7384BD3F8E01041F08001C3F81F
:10598000E010D3F8E03003F080030993099BC3E7EC
:10599000314BD3F8E01041F04001C3F8E010D3F8E8
:1059A000E03003F040030893089BB5E72A4BD3F897
:1059B000E01041F02001C3F8E010D3F8E03003F02C
:1059C00020030793079BA7E7234BD3F8E01041F090
:1059D0001001C3F8E010D3F8E03003F01003069391
:1059E000069B99E71C4BD3F8E01041F00801C3F87F
:1059F000E010D3F8E03003F008030593059B8BE734
:105A0000154BD3F8E01041F00401C3F8E010D3F8CF
:105A1000E03003F004030493049B7DE70E4BD3F8BE
:105A2000E01041F00201C3F8E010D3F8E03003F0D9
:105A300002030393039B6FE7074BD3F8E01041F099
:105A40000101C3F8E010D3F8E03003F00103029342
:105A5000029B61E7000002580044025808B501218A
:105A600043780069994089B203F0C4FE003818BF3A
:105A7000012008BD01230A464178006903FA01F1BB
:105A800089B203F0BDBE00BF10B5002386B012225C
:105A900004460493CDE902230368022B1FDC002B8C
:105AA00001DB0423059323790A2B1FD8114800EB4F
:105AB00083206279012301A99340019303F098FCAC
:105AC000A3790A2B14D80B4800EB8320E279012339
:105AD00001A99340019303F08BFC06B010BD032B8A
