:020000040800F2
:1000000000000220290A00081D0A000815810008C6
:100010001D0A00081D0A00081D0A00080000000053
:100020000000000000000000000000001D0A0008A1
:100030001D0A0008000000001D0A00089980000841
:100040001D0A00081D0A00081D0A00081D0A0008F4
:100050001D0A00081D0A00081D0A00081D0A0008E4
:100060001D0A00081D0A00081D0A0008817C0008FE
:100070008D7C00081D0A0008997C0008A57C0008FA
:1000800029380108116D00081D0A00081D0A000822
:100090001D0A00081D0A00081D0A00081D0A0008A4
:1000A0001D0A00081D0A00081D0A00081D0A000894
:1000B000A9290108B5290108C1290108456D0008D1
:1000C0001D0A0008516D00081D0A0008F1210108F1
:1000D000FD2101085D36010889360108BD36010899
:1000E0001D0A00081D0A0008000000001D0A000883
:1000F0001D0A00081D0A00081D0A00081D0A000844
:100100001D0A00081D0A0008CD290108092201085E
:10011000F1360108253701081D0A00081D0A0008EC
:100120001D0A00081D0A00082D220108612201088D
:100130005D3801081D0A00081D0A00081D0A000894
:1001400000000000000000000000000000000000AF
:100150001D0A00081D0A00081D0A00085937010879
:100160005D6D00081D0A0008A9800008CD80000808
:100170001D0A0008F18000081D0A00081D0A000879
:100180001D0A00081D0A00088D370108C137010843
:1001900015220108212201081D0A00081D0A000875
:1001A0001D0A00081D0A00081D0A00081D0A000893
:1001B000757900081D0A00081D0A00081D0A0008BC
:1001C0001D0A00081D0A00081D0A00081D0A000873
:1001D0001D0A00081D0A00081D0A00081D0A000863
:1001E0001D0A00081D0A00081D0A00081D0A000853
:1001F0001D0A00081D0A00081D0A00081D0A000843
:100200001D0A00081D0A00081D0A00081D0A000832
:100210001D0A00081D0A00081D0A00081D0A000822
:100220001D0A00081D0A00081D0A00080000000041
:100230001D0A00081D0A0008000000001D0A000831
:100240001D0A00081D0A00081D0A00081D0A0008F2
:100250001D0A00081D0A00081D0A00081D0A0008E2
:100260001D0A00081D0A00081D0A00081D0A0008D2
:100270001D0A00081D0A0008F537010800000000EB
:100280001D0A00081D0A00081D0A000800000000E1
:08029000000000001D0A000837
:1002A00010B5054C237833B9044B13B10448AFF3B0
:1002B00000800123237010BD100500240000000001
:1002C0009C9E010808B5034B1BB103490348AFF3DB
:1002D000008008BD00000000140500249C9E010859
:1002E00010F8012B11F8013B012A28BF9A42F7D0E0
:1002F000D01A70470000000000000000000000005D
:1003000001F0FF01102A2BDB10F0070F08D010F8C6
:10031000013B013A8B422DD010F0070F42B3F6D1CA
:10032000F0B441EA012141EA014122F007047FF0E3
:1003300000070023F0E80256083C85EA010586EA3A
:10034000010685FA47F5A3FA87F586FA47F6A5FA76
:1003500087F68EB9EED1F0BC01F0FF0102F0070282
:1003600032B110F8013B013A83EA010313B1F8D12D
:100370000020704701387047002D06BF354603380E
:10038000073815F0010F07D1013015F4807F02BF47
:10039000013015F4C03F0130F0BC0138704700BF98
:1003A00081F0004102E000BF83F0004330B54FEA26
:1003B00041044FEA430594EA050F08BF90EA020F93
:1003C0001FBF54EA000C55EA020C7FEA645C7FEA26
:1003D000655C00F0E2804FEA5454D4EB5555B8BF49
:1003E0006D420CDD2C4480EA020281EA030382EABA
:1003F000000083EA010180EA020281EA0303362D4C
:1004000088BF30BD11F0004F4FEA01314FF4801C1E
:100410004CEA113102D0404261EB410113F0004F30
:100420004FEA03334CEA133302D0524263EB4303E7
:1004300094EA050F00F0A780A4F10104D5F1200E85
:100440000DDB02FA0EFC22FA05F2801841F10001E0
:1004500003FA0EF2801843FA05F359410EE0A5F1B4
:1004600020050EF1200E012A03FA0EFC28BF4CF0E5
:10047000020C43FA05F3C01851EBE37101F000459B
:1004800007D54FF0000EDCF1000C7EEB00006EEBA8
:100490000101B1F5801F1BD3B1F5001F0CD3490832
:1004A0005FEA30004FEA3C0C04F101044FEA445289
:1004B00012F5800F80F09A80BCF1004F08BF5FEA10
:1004C000500C50F1000041EB045141EA050130BDF0
:1004D0005FEA4C0C404141EB0101013C28BFB1F502
:1004E000801FE9D291F0000F04BF01460020B1FA4D
:1004F00081F308BF2033A3F10B03B3F120020CDA20
:100500000C3208DD02F1140CC2F10C0201FA0CF0FD
:1005100021FA02F10CE002F11402D8BFC2F1200C62
:1005200001FA02F120FA0CFCDCBF41EA0C01904018
:10053000E41AA2BF01EB0451294330BD6FEA040461
:100540001F3C1CDA0C340EDC04F11404C4F120024C
:1005500020FA04F001FA02F340EA030021FA04F35E
:1005600045EA030130BDC4F10C04C4F1200220FAB5
:1005700002F001FA04F340EA0300294630BD21FAF3
:1005800004F0294630BD94F0000F83F4801306BFB9
:1005900081F480110134013D4EE77FEA645C18BFAD
:1005A0007FEA655C29D094EA050F08BF90EA020F44
:1005B00005D054EA000C04BF1946104630BD91EA3C
:1005C000030F1EBF0021002030BD5FEA545C05D13F
:1005D0004000494128BF41F0004130BD14F580047E
:1005E0003CBF01F5801130BD01F0004545F0FE41F2
:1005F00041F470014FF0000030BD7FEA645C1ABF27
:10060000194610467FEA655C1CBF0B46024650EA5D
:10061000013406BF52EA033591EA030F41F4002189
:1006200030BD00BF90F0000F04BF0021704730B50F
:100630004FF4806404F132044FF000054FF00001E4
:1006400050E700BF90F0000F04BF0021704730B5A5
:100650004FF4806404F1320410F0004548BF40427A
:100660004FF000013EE700BF42004FEAE2014FEACF
:1006700031014FEA02701FBF12F07F4393F07F4FAA
:1006800081F06051704732F07F4208BF704793F0AD
:100690007F4F04BF41F40021704730B54FF46074C0
:1006A00001F0004521F000411CE700BF50EA0102C3
:1006B00008BF704730B54FF000050AE050EA01026C
:1006C00008BF704730B511F0004502D5404261EBDC
:1006D00041014FF4806404F132045FEA915C3FF41D
:1006E000D8AE4FF003025FEADC0C18BF03325FEABA
:1006F000DC0C18BF033202EBDC02C2F1200300FA6B
:1007000003FC20FA02F001FA03FE40EA0E0021FA8F
:1007100002F11444BDE600BF53B94AB9002908BF2D
:1007200000281CBF4FF0FF314FF0FF3000F074B9CC
:10073000ADF1080C6DE904CE00F006F8DDF804E038
:10074000DDE9022304B070472DE9F047089D044617
:100750008E46002B4DD18A42944669D9B2FA82F274
:1007600052B101FA02F3C2F1200120FA01F10CFAB0
:1007700002FC41EA030E94404FEA1C48210CBEFBE8
:10078000F8F61FFA8CF708FB16E341EA034306FB71
:1007900007F199420AD91CEB030306F1FF3080F000
:1007A0001F81994240F21C81023E63445B1AA4B24D
:1007B000B3FBF8F008FB103344EA034400FB07F7EF
:1007C000A7420AD91CEB040400F1FF3380F00A8130
:1007D000A74240F207816444023840EA0640E41B25
:1007E00000261DB1D4400023C5E900433146BDE8D1
:1007F000F0878B4209D9002D00F0EF800026C5E973
:10080000000130463146BDE8F087B3FA83F6002E8A
:100810004AD18B4202D3824200F2F980841A61EB02
:10082000030301209E46002DE0D0C5E9004EDDE720
:1008300002B9FFDEB2FA82F2002A40F09280A1EB08
:100840000C014FEA1C471FFA8CFE0126200CB1FB5D
:10085000F7F307FB131140EA01410EFB03F0884256
:1008600008D91CEB010103F1FF3802D2884200F2E3
:10087000CB804346091AA4B2B1FBF7F007FB101175
:1008800044EA01440EFB00FEA64508D91CEB040413
:1008900000F1FF3102D2A64500F2BB800846A4EB6E
:1008A0000E0440EA03409CE7C6F12007B34022FA59
:1008B00007FC4CEA030C20FA07F401FA06F31C4388
:1008C000F9404FEA1C4900FA06F3B1FBF9F8200C95
:1008D0001FFA8CFE09FB181140EA014108FB0EF0DB
:1008E000884202FA06F20BD91CEB010108F1FF3A2B
:1008F00080F08880884240F28580A8F10208614437
:10090000091AA4B2B1FBF9F009FB101144EA014144
:1009100000FB0EFE8E4508D91CEB010100F1FF34EF
:100920006CD28E456AD90238614440EA0840A0FB87
:100930000294A1EB0E01A142C846A64656D353D05D
:100940005DB1B3EB080261EB0E0101FA07F722FA81
:1009500006F3F1401F43C5E9007100263146BDE8AA
:10096000F087C2F12003D8400CFA02FC21FA03F30D
:10097000914001434FEA1C471FFA8CFEB3FBF7F08E
:1009800007FB10360B0C43EA064300FB0EF69E42B3
:1009900004FA02F408D91CEB030300F1FF382FD24C
:1009A0009E422DD9023863449B1B89B2B3FBF7F6F4
:1009B00007FB163341EA034106FB0EF38B4208D9CD
:1009C0001CEB010106F1FF3816D28B4214D9023E0E
:1009D0006144C91A46EA004638E72E46284605E72C
:1009E0000646E3E61846F8E64B45A9D2B9EB0208FD
:1009F00064EB0C0E0138A3E74646EAE7204694E78D
:100A00004046D1E7D0467BE7023B614432E73046BF
:100A100009E76444023842E7704700BF684620F0A7
:100A200007018D46FEE700BF0B480C4A904208B50F
:100A300003D0121A0A4916F0E1FE0A480A4A904207
:100A400003D0121A002116F0E7FE07F0C9FD16F0D8
:100A5000A9FE01F061FAFEE7000000240C05002465
:100A6000D09E010810050024904E0624704700BF58
:100A7000704700BF704700BF40207047802070471C
:100A800049424FF480621030C9B216F0C5BE00BFB3
:100A900001207047124B134870B516460D462DEDD8
:100AA000028B93E8060004F09BF9AEB100240D48D8
:100AB00004F0BEF90C48B0EE408A01F039FCD5E9EB
:100AC000003000EB840003EB8403013480ED008AE6
:100AD000A64283ED008AEAD1BDEC028B70BD00BF57
:100AE00004000024741400243C09002410B50446BA
:100AF0004FF4826116F0D5F9204610BD2DE9F04F74
:100B00004FF0B00885B0054600F1080700F18F06E8
:100B100000F28F494FF47A7B4FF0000A297B0223C1
:100B200003AA3846CDF800B0A6F180048DF80CA0D9
:100B30008DF80D8006F0B0F9297B022303AA384610
:100B4000CDF800B08DF80CA08DF80DA006F0A4F93A
:100B50004FF0100C297B022303AA3846CDF800B0D1
:100B60008DF80CA08DF80DC006F096F94FF47A7050
:100B700014F801CF4FF0400E297B0223009003AA06
:100B800038468DF80CE08DF80DC006F085F9B442BA
:100B9000ECD104F1800608F101084E455FFA88F8AF
:100BA000B8D105B0BDE8F08F2DE9F04F89B008ACA1
:100BB0009DF84870019104E90C000B78002B00F0BF
:100BC000AB801A469DF818809DF8193006464546B8
:100BD00090460393079B0593A8F12004E3B25E2B94
:100BE00000F29E8033685E4ADB68934240F09B804F
:100BF0008020B3882B44834200F392803368594AA3
:100C00009B68934240F092804020F188039A0291C1
:100C10008B18834200F38480002A00F0918002FB4D
:100C200004F46FF00049059BA1441444B6F804B0E5
:100C300003EB4909023BCDF8108003EB44030C465B
:100C40009A4639F802CFA5B304F007034FF0010E1E
:100C5000E20859460EFA03FE0BF110034FFA8EFE1E
:100C600003EBC21200236FEA0E0832440DE07F2925
:100C700006D83F2C04D8107897B14EEA00001070C7
:100C8000013301320131AB4213D00CFA03F00004FE
:100C9000EDD47F29F4D83F2CF2D81078002FECD077
:100CA000013308EA000001320131AB4202F8010CC5
:100CB000EBD1D14504F10104C3D1DDF810803268D5
:100CC0000BEB05042649D368A4B28B4234D18020B3
:100CD000844204D3D36822498B423AD17F2493685B
:100CE000204AB480934224D14020029B834206D301
:100CF00033681C4A9B68934225D13F230293029B91
:100D0000F380019B1878404507D113F8018F0193B8
:100D1000B8F1000F7FF460AF002009B0BDE8F08F9C
:100D20004FF00008EDE73046984762E730469847B5
:100D30006BE730469847D8E7304698473268C7E7B0
:100D4000B6F804B0BBE730469847013883B2029347
:100D5000D5E7304698470138326884B2BFE700BF14
:100D60007D0A0008790A00082DE9F04F85B0A1F14D
:100D7000200504AC9DF83870009104E90C00EBB23A
:100D80005E2B00F29580036880465D4ADB689DF823
:100D9000084093429DF8096040F094808020B8F8A4
:100DA00004302344834200F38380D8F80030554A4E
:100DB0009B68934240F088804020B8F80620931941
:100DC0000192834274DC002E00F0898006FB05F559
:100DD0006FF00040039B964628442E44B8F804A0C8
:100DE00003EB4000023B03EB460B30F8026FBCB351
:100DF0000EF007034FF0010C4FEADE0251460CFAE9
:100E000003FC0AF110034FFA8CFC03EBC21200231F
:100E10006FEA0C0942440EE07F2907D8BEF13F0F6C
:100E200004D815789FB14CEA0505157001330132DD
:100E300001319C4214D006FA03F52D04ECD47F292D
:100E4000F4D8BEF13F0FF1D81578002FEBD0013365
:100E500009EA0505013201319C4202F8015CEAD140
:100E600058450EF1010EC0D1D8F800305444244941
:100E7000DA68A4B28A422DD1802084421CD29B68B9
:100E8000204AA8F80440934221D14020019B83428C
:100E900007D3D8F800301B4A9B68934229D13F23DF
:100EA0000193DDE90003A8F8063005B0BDE8F08F36
:100EB000002005B0BDE8F08FDA6811498A4211D1EF
:100EC0007F24DCE798476AE74046984775E7404645
:100ED0009847DBE740469047D8F80030CDE7B8F8B0
:100EE00004A0C1E7404690470138D8F8003084B2EA
:100EF000C5E740469847013883B20193D1E700BF68
:100F00007D0A0008790A00082DE9F04F89B01D46D6
:100F1000884606901046129C10F8013B13999DF8E4
:100F20005060009233B1002210F8013B0132002BD7
:100F3000FAD193B22A78687812FB03F302B21BB29B
:100F400023EAE373082900F2A981DFE811F0020126
:100F500014012001340142015001670171010900AF
:100F6000A18827880F44B4F90610FF1A0029BFB2E0
:100F7000C0F2FF80B4F802C006980CEB6104C28096
:100F8000A4EB52028380078094B24480A64AD8F82A
:100F9000003011460192DA688A4240F08D8180204B
:100FA000B84205D8DA6801998A4240F09A817F27D1
:100FB0009E4A9B68A8F804709342039240F089818E
:100FC0004020A04207D8D8F80030039A9B6893428B
:100FD00040F082813F24009BA8F8064093F800B0BF
:100FE0006B782C7804936B680793BBF1000F00F0CB
:100FF000AC80ABF12005EBB25E2B00F22E81D8F86D
:101000000030019ADB68934240F02A818020B8F8D2
:10101000043023449842C0F22081D8F80030039A6B
:101020009B68934240F01F814020B8F80610049A54
:1010300002918B189842C0F21081002A00F01E81A4
:1010400002FB05F56FF0004E079BAE441544CDF84A
:1010500014B003EB4E0E023BB8F804A003EB4503BB
:101060000D469B463EF8027FA4B305F007034FF000
:10107000010CEA0851460CFA03FC0AF110034FFA7E
:101080008CFC03EBC21200236FEA0C0942440DE012
:101090007F2906D83F2D04D8107896B14CEA00007D
:1010A00010700133013201319C4213D007FA03F072
:1010B0000004EDD47F29F4D83F2DF2D81078002E0B
:1010C000ECD0013309EA0000013201319C4202F800
:1010D000010CEBD1F34505F10105C3D1DDF814B0E6
:1010E000D8F800200AEB04050199D368ADB28B4211
:1010F00040F0BF808020854205D3D36801998B42A0
:1011000040F0C5807F259368039AA8F80450934265
:1011100040F0AC804020029B834208D3D8F80030D6
:10112000039A9B68934240F0AC803F230293029B5A
:10113000A8F80630009A13785B4506D112F801BF73
:101140000092BBF1000F7FF454AF069809B0BDE8E0
:10115000F08FB4F9041027880029B8BF013107EBDC
:101160006107B4F90610A7EB63070029BFB2BFF609
:1011700001AF0131FEE6B4F900700699B4F90240FE
:101180000F80BFB24C80A4B28B80CA80FEE6B4F957
:10119000041027880029B4F90240B8BF013107EBD9
:1011A000610706998B80A7EB63034C80A4B29FB2C2
:1011B000CA800F80EAE6A1882788B4F902400F446C
:1011C00006998B80FB1A4C80A4B29FB2CA800F8014
:1011D000DCE6E78861883944B4F90070081A06999A
:1011E00084B20F808B80BFB2CA804C80CEE6B4F947
:1011F000041027880029B8BF013107EB6107A7EB6E
:101200006307B4F802C0BFB2E488069964448B80D7
:10121000201ACA800F8084B24C80B7E62788A18844
:101220000F44FF1AEDE700BF7D0A0008790A0008A5
:10123000B4F90610B4F802C00029B4F90070069899
:10124000B8BF0131C2800CEB610407808380BFB25C
:10125000A4EB520294B2448098E64FF0000B69E789
:1012600040469847D3E640469847DEE640469847D2
:1012700051E740469847D8F800203CE7B8F804A06A
:101280002EE740469847013883B202934FE7404625
:1012900098470138D8F8002085B234E7D8F80030F4
:1012A0000024069A1249148054809480D480DA680D
:1012B00001918A4205D0274640469047D8F8003031
:1012C0006EE69B680B4AA8F80440934203923FF4F1
:1012D00082AE4046984774E640469847013884B24B
:1012E00079E6404690470138D8F8003087B25FE68B
:1012F0007D0A0008790A00087F291ED83F2A1CD8D9
:101300006BB1D3084FF0010C02F0070201EBC313DD
:101310000CFA02F2C1180B7C1A430A747047D30806
:101320004FF0010C02F0070201EBC3130CFA02FCB0
:10133000C1180A7C22EA0C020A7470472DE9F04FAA
:1013400083B05C1A0C9E002C9DF83490A6EB02082A
:10135000B8BF6442B8F1000FB8BFC8F100088B42B3
:101360008CBF4FF0010A4FF0FF3A9642A4EB080CF5
:1013700051D84FF0FF357F2B019512D83F2E10D852
:10138000F50806F0070E012703EBC5150544B9F172
:10139000000F47D007FA0EF795F810E047EA0E075E
:1013A0002F74964201D18B4229D0C8F100077F29C2
:1013B00014D83F2A12D8D50802F0070B4FF0010EBF
:1013C00001EBC5150544B9F1000F1BD00EFA0BFE59
:1013D00095F810B04EEA0B0E85F810E0B7EB4C0F05
:1013E0004FEA4C0502DAACEB080C5144AC4202DD8A
:1013F000019DA4442A449942D9D19642D7D103B041
:10140000BDE8F08F0EFA0BFB95F810E02EEA0B0EFC
:1014100085F810E0E2E701257F2B0195C5D83F2E26
:10142000AED9C2E707FA0EFE2F7C964227EA0E07D6
:101430002F74B8D0B9E700BF2DE9F04F2DED068B22
:1014400083B01F4680460D469DF8503016460193E6
:10145000139B002BC0F22182129A134406EE103A1D
:10146000DDED127AB8EEC66B9FEDCD4BB8EEE77BA3
:101470009FEDCD5B27EE047B26EE046B87EE050B1C
:1014800086EE05ABF7EEC08BB0EE680A15F010FDE6
:1014900007EE907AB7EECAABF8EE679AB0EE408AE4
:1014A000B0EE680A16F038F860EE698AB0EE4A0AC3
:1014B00015F0FEFCB0EE409AB0EE4A0A16F02CF899
:1014C00020EE690A29EE888A29EE899A70EE687AF8
:1014D000F0EE006A39EE487A67EEA77AE7EE077A0F
:1014E000F4EEE67AF1EE10FA06D5139BB42B40F336
:1014F00096804FF0010901E04FF000090124784285
:101500004FF0000C0095E31B214627462246A340DE
:10151000B9F1000F6AD1424206EE90CACCF1000147
:1015200007EE102AB8EEE66A07EE901A06EE900A69
:10153000B8EEC77A139A66EE084AF8EEE77AB42A4C
:1015400027EE284AF8EEE66A67EE885A74EEC43A47
:1015500026EEA85A26EE096A66EE806A67EE897A58
:1015600027EE007AF5EEC03A40F3F280F1EE10FA81
:1015700000F17F8176EE473A74EEC54AF5EEC03A47
:10158000F1EE10FAF5EEC04ACCBF01220022F1EED6
:1015900010FA00F1778136EE666A35EEC55AB5EE7F
:1015A000C06AF1EE10FAB5EEC05ACCBF012100219D
:1015B000F1EE10FA00F16F8177EEE66AF5EEC06A9F
:1015C000F1EE10FACCBF0127002775EEC45AF5EEF4
:1015D000C05AF1EE10FA00F1478177EEC77AF5EEC6
:1015E000C07AF1EE10FACCBF01240024002A40F0AA
:1015F0008A80002964D1BFB9C4BB9C4558DB0CF17B
:10160000010C03EB4C0E1CEB000F0EF1010E00F071
:10161000C08098424FDB734600287FF779AF03B054
:10162000BDEC068BBDE8F08F009DA6EB0C0E00EB29
:10163000050ABAF17F0FDFD8BEF13F0FDCD84FEAC1
:10164000DE0B019D0AEBCB1A002D00F0B1800EF0ED
:10165000070BC2444FF0010E0EFA0BFE9AF810B0C1
:101660004EEA0B0E8AF810E0002CC6D0009DA6EBC7
:101670000C0EA5EB000ABAF17F0FBED8BEF13F0FEA
:10168000BBD84FEADE0B019D0AEBCB1A002D00F010
:10169000AE800EF0070BC2444FF0010E9C450EFACF
:1016A0000BFE9AF810B04EEA0B0E8AF810E0A6DA9C
:1016B00098429E46AFDA01300EEB40030133ABE7B0
:1016C000009D0CEB060E00EB050ABAF17F0F92D8D5
:1016D000BEF13F0F8FD84FEADE0B019D0AEBCB1A0C
:1016E000002D73D00EF0070BC2444FF0010E0EFA1E
:1016F0000BFE9AF810B04EEA0B0E8AF810E0002F9D
:101700003FF47AAF90E7009D0CEB060EA5EB000AC4
:10171000BAF17F0F3FF66DAFBEF13F0F3FF669AFF5
:101720004FEADE0B019D0AEBCB1A002D6DD00EF0B7
:10173000070BC2444FF0010E0EFA0BFE9AF810B0E0
:101740004EEA0B0E8AF810E000293FF454AFB7E7D9
:10175000F1EE10FA7ED44A4674EEC54AF5EEC04A60
:10176000F1EE10FA6CD4002135EEC55AB5EEC05A30
:10177000F1EE10FA5AD4002775EEC45AF5EEC05AAD
:10178000F1EE10FA3FF529AF0024002A3FF431AF03
:10179000B9E798428FDB00233BE700BFAFF300803F
:1017A0007A008BFCFA2109400000000000806640AE
:1017B000C2444FF0010B0EF0070E0BFA0EFE9AF822
:1017C00010B02BEA0E0E8AF810E015E7C2444FF075
:1017D000010B0EF0070E0BFA0EFE9AF810B02BEA72
:1017E0000E0E8AF810E0002F3FF406AF1CE7C2444B
:1017F0004FF0010B0EF0070E0BFA0EFE9AF810B028
:101800002BEA0E0E8AF810E0F7E6C2444FF0010B07
:101810000EF0070E0BFA0EFE9AF810B02BEA0E0E21
:101820008AF810E000293FF4E6AE49E777EEE66A71
:10183000F5EEC06AF1EE10FACCBF012700279BE756
:1018400036EE666AB5EEC06AF1EE10FACCBF012141
:10185000002189E776EE473AF5EEC03AF1EE10FA4C
:10186000CCBF0122002277E70124002A3FF4C1AE59
:1018700049E774EEC54A0122F5EEC04AF1EE10FACE
:101880007FF589AE35EEC55A0121B5EEC05AF1EEAD
:1018900010FA7FF591AE012797E6DDE91223134494
:1018A00006EE102A1293139B5B421393D8E500BFF8
:1018B0002DE9F04F87B09DF84850109C2E460195B9
:1018C0009DF844509EB399422ED89946A24228D8FA
:1018D0007F29164694BF0023012308E09CF810805E
:1018E0004EEA080E8CF810E00136B44219D33F2EB0
:1018F000FAD8002BF8D14FEAD60C06F0070E4FF0BD
:10190000010801EBCC1C08FA0EFE8444002DE5D141
:101910009CF810B001362BEA0E0AB4428CF810A0E5
:10192000E5D201318945D1D207B0BDE8F08FA3EBF4
:101930000108B8F1000FB8BFC8F100089942C0F023
:101940004E817F2B4FF0FF3A94BF002601263F2A9D
:10195000009694BF002701270297A6B99FB9D60821
:1019600002F0070C012703EBC6160644002D00F019
:10197000948107FA0CF796F810C047EA0C07377401
:10198000002602960096994200F0978146469446BA
:101990008E46BEF17F0F16D8BCF13F0F13D84FEA29
:1019A000DC070CF0070B4FF001090EEBC7170744DB
:1019B000002D00F0398109FA0BF997F810B049EAC7
:1019C0000B0987F81090770018BFD644B84502DDA0
:1019D00046440CF1FF3C7345DBD16245D9D100266A
:1019E0000496A4EB0209009FB9F1000FB8BFC9F13A
:1019F00000093F2C94BF00260126A242C9F100082D
:101A00000396C0F02381002F40F05081002E40F05B
:101A10004D814FF0FF360096E60803EBC6160644EC
:101A2000002D00F01E814FF0010C04F007070CFAA6
:101A300007F796F810C047EA0C073774002603969C
:101A4000A24200F03D81C44616461F4605927F2FF4
:101A500015D83F2E13D84FEAD60E06F0070B4FF0DD
:101A6000010A07EBCE1E8644002D00F0E6800AFA3C
:101A70000BFA9EF810B04AEA0B0A8EF810A0B8EBE9
:101A80004C0F4FEA4C0E02DAACEB090C013FBEF1F1
:101A9000000F01D0009A1644BB42D8D1B442D6D12F
:101AA000059AA1EB030EBEF1000FB8BFCEF1000EF8
:101AB0007F2994BF4FF0000A4FF0010A99428CBF72
:101AC0004FF001094FF0FF39BAF1000F13D1039E17
:101AD0008EB9E60801EBC6160644002D00F0D3804F
:101AE0004FF0010C04F007070CFA07F796F810C046
:101AF00047EA0C073774049E26BB774626467F2BA1
:101B000014D83F2E12D84FEAD60C06F0070B4FF030
:101B1000010803EBCC1C8444002D73D008FA0BF8A9
:101B20009CF810B048EA0B088CF810805FEA470C6C
:101B300018BF4B44E64501DD7744013E9942DED1B2
:101B4000B442DCD1A2EB040EBEF1000FB8BFCEF15F
:101B5000000EA2428CBF4FF001084FF0FF38CEF1CB
:101B6000000CBAF1000F0ED1029B63B9D30802F04A
:101B70000707012601EBC3130344002D7CD0BE40B0
:101B80001F7C3E431E74019B002B7FF4CDAE664646
:101B90000B467F2B12D83F2C10D8E70804F0070A19
:101BA0004FF0010903EBC7170744A5B309FA0AF977
:101BB00097F810A049EA0A0987F81090BCEB460F85
:101BC0004FEA460702DAA6EB0E06013B07B1444492
:101BD0009942DED1A242DCD107B0BDE8F08F3F2AA6
:101BE0004FF0010A94BF002601267F2B029694BF76
:101BF000002701270097002E7FF4C8AE002F3FF486
:101C0000AEAEC3E608FA0BFB9CF8108028EA0B087E
:101C10008CF810808AE709FA0AFA97F8109029EAF6
:101C20000A0987F81090C9E709FA0BFB97F810909A
:101C300029EA0B0987F81090C5E60AFA0BFB9EF813
:101C400010A02AEA0B0A8EF810A018E797BB8EBBEB
:101C500001260096E60803EBC6160644002D7FF425
:101C6000E2AE012704F0070C039507FA0CFC377C61
:101C700027EA0C073774E3E606FA07F71E7C26EA24
:101C800007061E747FE7012704F0070C07FA0CFC17
:101C9000377C27EA0C0737742DE707FA0CFC377CF2
:101CA000029527EA0C07009537746CE64FF0FF3673
:101CB0000096C5E601260096C5E60126049690E644
:101CC00001260196EDE600BF84B070B584B00446ED
:101CD0004FF47A7609AD85E80E009DF83830294634
:101CE0000025037105F040F8AE2303AA00968DF895
:101CF0000D302046217902238DF80C5005F0CCF8E8
:101D0000D52303AA0096204621798DF80D300223B1
:101D10008DF80C5005F0C0F8802303AA00962046E9
:101D200021798DF80D3002238DF80C5005F0B4F8B0
:101D3000A82303AA0096204621798DF80D300223AE
:101D40008DF80C5005F0A8F83F2303AA0096204612
:101D500021798DF80D3002238DF80C5005F09CF898
:101D6000DA2303AA0096204621798DF80D3002234C
:101D70008DF80C5005F090F8122303AA0096204627
:101D800021798DF80D3002238DF80C5005F084F880
:101D9000D32303AA0096204621798DF80D30022323
:101DA0008DF80C5005F078F803AA009602232179EB
:101DB00020468DF80C508DF80D5005F06DF840233D
:101DC00003AA0096204621798DF80D3002238DF864
:101DD0000C5005F061F8A62303AA0096204621794D
:101DE0008DF80D3002238DF80C5005F055F8A42322
:101DF00003AA0096204621798DF80D3002238DF834
:101E00000C5005F049F88D2303AA0096204621794D
:101E10008DF80D3002238DF80C5005F03DF8142399
:101E200003AA0096204621798DF80D3002238DF803
:101E30000C5005F031F8A12303AA00962046217921
:101E40008DF80D3002238DF80C5005F025F8C823CD
:101E500003AA0096204621798DF80D3002238DF8D3
:101E60000C5005F019F8812303AA00962046217929
:101E70008DF80D3002238DF80C5005F00DF88F23EE
:101E800003AA0096204621798DF80D3002238DF8A3
:101E90000C5005F001F8D92303AA009620462179B9
:101EA0008DF80D3002238DF80C5004F0F5FF25233A
:101EB00003AA0096204621798DF80D3002238DF873
:101EC0000C5004F0E9FFDB2303AA00962046217999
:101ED0008DF80D3002238DF80C5004F0DDFF342313
:101EE00003AA0096204621798DF80D3002238DF843
:101EF0000C5004F0D1FFAF21009603AA02238DF805
:101F00000D10204621798DF80C5004F0C5FF04B067
:101F1000BDE8704004B070472DE9F04F00219C48A7
:101F2000002602259B4CDFF8A8B22DED028B91B064
:101F300003F0C0F90D2003F0D9F803460E20ADF8E8
:101F40001C3003F0D3F803460A20ADF8203003F02C
:101F5000CDF8ADF824009FED900A099B8F48DDE98C
:101F6000071204F0F7FA8B4801F0BEF810223C2368
:101F70000D968DF8382010AA8DF83C30884B12E968
:101F80000700CDE90A630AAB0C958DE80700854888
:101F90000ECBFFF799FE6421834800F0FDFA012182
:101FA000814800F0ADF97A4A0121804801F08AFAAF
:101FB000774803F0B9F87E4802F076FE29467C485F
:101FC00002F0C2FB7B49724803F0AAF806F012F94E
:101FD000049006F00FF9049B0546013383423FD974
:101FE000D4ED028A637994ED038AB0EE680AD4F8DE
:101FF00018806E480593E7692579D4E904A902F0B1
:1020000027FBB0EE480A694802F0F6FA67485FFA23
:1020100088F102F0F1F96648F9B202F095FB6348E5
:102020005FFA89F25FFA8AF102F0BEF85F490AA806
:1020300002F0E6F90A9B3C2ECBF800309DF82C30DC
:102040008BF80430C5D1DDB90121574800F058F9AB
:102050005548002600F0D2FA06F0CCF80490B8E714
:102060004E4804F0A5FA4D4A1379002B67D0117B36
:10207000926D002978D1002A71D101360495AFE71D
:10208000013D0221484800F03BF9082DE0D8DFE887
:1020900005F0473A2B251E17110B0500424646490D
:1020A000414800F0FFFED3E74A4644493E4800F06D
:1020B000F9FECDE7524642493B4800F0F3FEC7E740
:1020C000B0EE680A3F49384800F034FEC0E7B0EE91
:1020D000480A3D49344800F02DFEB9E73A463B49ED
:1020E000314800F0DFFEB3E7059B072B40D0082BFB
:1020F00046D0092B48D00A2B14BF002103212A48BF
:1021000000F0F8FCA4E7059B062B33D0052B39D053
:102110000A2B14BF00210221234800F0F7FB97E7A8
:10212000059B022B28D0032B28D0042B2ED00A2B62
:1021300014BF002103211C4800F0C8FA88E7174AA1
:10214000127B002A99D01A46144991F82410A1F163
:102150007F01B1FA81F1490909B9002B8DD0002323
:102160000C4800F0D5FF88E7131E18BF0123EBE7EA
:102170000021C4E70021CFE70021DCE70121DAE7F5
:102180000121BCE70121C7E70221B8E70221D2E71C
:10219000B81100242C120024000000005C1100245F
:1021A00001080109340500243C09002464120024BC
:1021B00074140024950A0008448201083C82010836
:1021C00034820108248201082C8201084C82010813
:1021D0000400002470B5284800244FF60B75274EE4
:1021E0006FF0F413264932460460C3604461046210
:1021F0000467C0E90133C0E90A54C0E90F54C0E9DB
:102200001654C0E90C44C0E91144C0E9184414F064
:1022100043FE1C4832461C49C0E90454C0E90B5433
:10222000C0E91054C0E90644C0E90D44C0E91244B5
:1022300014F032FE154D164B3246AC6028462B602A
:10224000144C154914F028FE29460122134800F0C9
:102250002DF8204601F07CF82046114C32461149F9
:1022600014F01AFE204602F02DFA324620460E499E
:10227000BDE8704014F010BEB81100240000002426
:10228000710A00085C1100246D0A00082C05002466
:102290005C82010864120024750A00083C090024CD
:1022A00074140024AD3400084547000880232DE94C
:1022B000F0414FF000080125C0F8083804460F4BE4
:1022C0000E4617464146C0F814384FF48062C0F8F5
:1022D0000C880830C0F81058C0F8145815F09CFA53
:1022E0004FF48062414604F5816015F095FA20466E
:1022F00084F8107826602571BDE8F0810883010814
:1023000038B504460068094A0D4603681B699342C4
:1023100007D14FF480620021103015F07DFA25714D
:1023200038BD00219847257138BD00BF810A0008DB
:10233000D0F80C28531C00EB8202594282ED020AAD
:10234000DBB2CAB258BF5342C0F80C38704700BF66
:1023500090F8103813B91F4B18687047D0F80C3834
:10236000D0F80828013300B503EB020E73452DDACF
:102370005942DAB2C9B258BF4A4200EB8202D2EDEA
:10238000027A01E0734521D09C460133B0EE677AB2
:102390005942DAB2B5EEC07AC9B258BF4A42F1EE3C
:1023A00010FA00EB8202D2ED027AEBD5F5EEC07A9C
:1023B000F1EE10FAE6DBDCF100035FFA8CF0054A7F
:1023C000DBB258BF584210605DF804FB014B18683F
:1023D0005DF804FB9C2106242DE9F04F046887B0CA
:1023E000064623682046DB689847002840F0CB80EB
:1023F00023682046DB689847013883B2226820466C
:10240000A38093689847202800F2BB802368204669
:102410009B689847013883B23068E38003685C4A60
:102420001B69934240F0B1804FF48062002110306C
:1024300015F0F2F93046FFF78BFFD6F80838059013
:10244000002B7CDDC3B282460127B0460493DAF14B
:1024500000040AF1010A049A07F1FF31E4B2D8F846
:102460001838D8F800005FFA8AF658BF6242DAF1ED
:10247000000407EE903A0368E4B204969D6908EB05
:102480008202334658BF6342F8EEE77A92ED027A51
:1024900008EB830327EE877AD3ED026A3D4B67EEA4
:1024A000A67ABDEEC77A9D42FDEEE77A17EE102AB6
:1024B00017EE906AC2F12002C6F1200682F30602EE
:1024C00086F30606144656D1A6EB0209B9F1000FB1
:1024D000B8BFC9F10009B242C9F1010536D20123E2
:1024E0007F2F039337D9C9F1000E4FF0010CE30899
:1024F00004F007027F2901EBC31305FA0CFB0CFA69
:1025000002F207D83F2C034404D893F810C042EAE3
:102510000C021A74BEEB450F14DABBF1000FA5EBE9
:10252000090501F101010DDDB942DED1A642DCD180
:10253000D8F808380137059A1344534587DC07B0AB
:10254000BDE8F08F039B01351C44EDE74FF0FF33EE
:102550007F2F0393C7D8F3084FF0010C06F0070252
:1025600007EBC3130CFA02F2034493F810C042EADB
:102570000C021A74B7E70123009601933B46A84763
:10258000D6E7202348E7002338E70021984751E7A2
:10259000810A00083D130008C0F81818704700BFF2
:1025A00030B5046883B0054623682046DB68984749
:1025B000F0B923682046DB689847013883B2226867
:1025C0002046A38093689847A0B9236820469B685B
:1025D0009847013883B22868074AE38001230468DA
:1025E000D5F814180093A46A0CCAA04703B030BDF4
:1025F0000023E4E70023EEE77001002403792DE9CE
:10260000F047044684B0002B55D0012B01D1FFF7D1
:10261000E3FE26682C4A33681B6B93424ED106F1C9
:10262000080806F18F0706F28F4A4FF0B009002420
:102630004FF47A75022303AA8DF80C4040468DF8BA
:102640000D90317B009504F027FC8DF80C408DF83F
:102650000D400223317B03AA4046009504F01CFC88
:1026600010238DF80C4003AA8DF80D304046317BC5
:1026700002230095A7F1800404F00EFC40214FF4E2
:102680007A75022303AA8DF80C10404614F8011F36
:102690008DF80D10317B009504F0FEFBBC42EDD1AE
:1026A00004F1800709F10109BA455FFA89F9BED141
:1026B00004B0BDE8F087FFF773FFAAE7304604B027
:1026C000BDE8F047184700BFFD0A0008F0B5054611
:1026D0000068864A83B003680C461B69934240F049
:1026E00001814FF480620021103015F095F82E68BA
:1026F00033683046DB689847002840F0F180336843
:102700003046DB689847013883B232683046B38080
:1027100093689847002840F0E180336830469B6812
:102720009847013883B228680122F3800368704E0D
:10273000009270499F6A96E80C00B8472F683B6882
:102740003846DB6898470A2800F2C6803B6838465E
:10275000DB689847013883B2BB8038463B689B688A
:1027600098470F2800F2B6803B6838469B68984728
:10277000013883B228680122FB8003685E49009219
:102780009F6A96E80C00B8472F683B683846DB68BC
:1027900098470A2800F29C803B683846DB689847D7
:1027A000013883B2BB8038463B689B6898471B283A
:1027B00000F28C803B6838469B689847013883B2AA
:1027C00028680122FB8003684C4900929F6A96E8C2
:1027D0000C00B8472F683B683846DB6898470A28E2
:1027E00072D83B683846DB689847013883B2BB80B3
:1027F00038463B689B689847272863D83B6838462B
:102800009B689847013883B228680122FB800368DF
:102810003B4900929F6A96E80C00B8472F683B68D6
:102820003846DB6898470A284AD83B683846DB6850
:102830009847013883B2BB8038463B689B6898470D
:1028400033283BD83B6838469B689847013883B2A9
:1028500028680122FB8004EB440403682949A40092
:1028600000929F6A0F3496E80C00B8472F68A4B214
:102870003B683846DB689847F0B93B683846DB6808
:102880009847013883B2BB8038463B689B689847BD
:10289000844205D33B6838469B689847013884B228
:1028A00028680123FC80016800938C6A164996E829
:1028B0000C00A04703B0F0BD0023E4E73323C7E7D3
:1028C0000A23B8E727239FE70A2390E71B2377E72C
:1028D0000A2367E70F234DE70A233DE7002322E79A
:1028E000002312E70021984701E700BF810A000892
:1028F000780100241483010824830108308301082F
:10290000388301084083010848830108F0B5054673
:102910000068714A83B003680C461B69934240F01B
:10292000D7804FF480620021103014F075FF2E68BC
:1029300033683046DB689847002840F0C78033682A
:102940003046DB689847013883B232683046B3803E
:1029500093689847002840F0B780336830469B68FA
:102960009847013883B228680122F38003685B4EE0
:1029700000925B499F6A96E80C00B8472F683B6855
:102980003846DB6898470A2800F29C803B68384646
:10299000DB689847013883B2BB8038463B689B6848
:1029A00098470F2800F28C803B6838469B68984710
:1029B000013883B228680122FB80036849490092EC
:1029C0009F6A96E80C00B8472F683B683846DB687A
:1029D00098470A2872D83B683846DB689847013820
:1029E00083B2BB8038463B689B6898471B2863D8F6
:1029F0003B6838469B689847013883B228680122B3
:102A0000FB800368384900929F6A96E80C00B8473B
:102A10002F683B683846DB6898470A284AD83B68E5
:102A20003846DB689847013883B2BB8038463B683C
:102A30009B68984727283BD83B6838469B6898474F
:102A4000013883B228680122FB8004EB4404036848
:102A50002649A40000929F6A0F3496E80C00B847FC
:102A60002F68A4B23B683846DB689847F0B93B68EA
:102A70003846DB689847013883B2BB8038463B68EC
:102A80009B689847844205D33B6838469B689847C3
:102A9000013884B228680123FC80016800938C6AA5
:102AA000134996E80C00A04703B0F0BD0023E4E70B
:102AB0002723C7E70A23B8E71B239FE70A2390E7EA
:102AC0000F2377E70A2367E700234CE700233CE75F
:102AD000002198472BE700BF810A000878010024F5
:102AE0004C8301085C830108648301086C8301083E
:102AF00048830108F0B505460068864A83B003683C
:102B00000C461B69934240F001814FF48062002122
:102B1000103014F081FE2E6833683046DB68984729
:102B2000002840F0F18033683046DB689847013870
:102B300083B232683046B38093689847002840F0EB
:102B4000E180336830469B689847013883B2286833
:102B50000122F3800368704E009270499F6A96E8E4
:102B60000C00B8472F683B683846DB6898470A284E
:102B700000F2C6803B683846DB689847013883B26C
:102B8000BB8038463B689B6898470F2800F2B680A8
:102B90003B6838469B689847013883B22868012211
:102BA000FB8003685E4900929F6A96E80C00B84774
:102BB0002F683B683846DB6898470A2800F29C80FB
:102BC0003B683846DB689847013883B2BB8038469B
:102BD0003B689B6898471B2800F28C803B6838460E
:102BE0009B689847013883B228680122FB800368FC
:102BF0004C4900929F6A96E80C00B8472F683B68E2
:102C00003846DB6898470A2872D83B683846DB6844
:102C10009847013883B2BB8038463B689B68984729
:102C2000272863D83B6838469B689847013883B2A9
:102C300028680122FB8003683B4900929F6A96E85E
:102C40000C00B8472F683B683846DB6898470A286D
:102C50004AD83B683846DB689847013883B2BB8066
:102C600038463B689B68984733283BD83B683846D2
:102C70009B689847013883B228680122FB8004EBE7
:102C8000440403682949A40000929F6A0F3496E81F
:102C90000C00B8472F68A4B23B683846DB689847F9
:102CA000F0B93B683846DB689847013883B2BB808F
:102CB00038463B689B689847844205D33B68384652
:102CC0009B689847013884B228680123FC8001681A
:102CD00000938C6A164996E80C00A04703B0F0BD3B
:102CE0000023E4E73323C7E70A23B8E727239FE756
:102CF0000A2390E71B2377E70A2367E70F234DE7B3
:102D00000A233DE7002322E7002312E7002198472A
:102D100001E700BF810A00087801002474830108DC
:102D2000808301088C830108988301086C83010863
:102D30004883010870B504460068544A0E4603688B
:102D40001B6993422DED028BB0EE408A86B040F0B5
:102D500099804FF480620021103014F05DFD2568E9
:102D60002B682846DB68984700287FD12B682846C7
:102D7000DB689847013883B22A682846AB8093689D
:102D8000984700287CD12B6828469B6898470138D3
:102D900083B220680121EB8002683D4B00913D49E0
:102DA000956A0CCBA84725682B682846DB689847AE
:102DB000002863D12B682846DB689847013883B226
:102DC0002A682846AB80936898470C2854D82B680B
:102DD00028469B689847013883B220683146EB80CB
:102DE000012203682C4E00929D6A96E80C00A847C9
:102DF000FDEEC87A9FED297A02A82949F8EEE76A24
:102E000017EE902A78EE667A67EE877AFDEEE77A1B
:102E100017EE903A002BB8BF5B4214F0BBFD25685B
:102E20002B682846DB68984720BB2B682846DB6860
:102E30009847013883B2AB8028462B689B68984737
:102E4000232815D82B6828469B689847013883B2F9
:102E500020680121EB80046896E80C00009102A92B
:102E6000A46AA04706B0BDEC028B70BD002383E7C7
:102E70002323EDE70023DEE70C23AEE700239FE7E3
:102E8000002386E70021984769E700BF810A000810
:102E900078010024A0830108700100240000C842CA
:102EA000A88301082DE9F043044600681746804ACC
:102EB000036893B00E461B69934240F0F5804FF4CF
:102EC00080621030002114F0A7FC25682B6828468A
:102ED000DB689847002840F095802B682846DB681F
:102EE0009847013883B2AB8028462B689B68984787
:102EF000002840F08D802B6828469B689847013851
:102F000083B220680121EB8002686A4B00916A4914
:102F1000956A0CCBA84725682B682846DB6898473C
:102F2000002873D12B682846DB689847013883B2A4
:102F3000AB8028462B689B6898470F2864D82B687D
:102F400028469B689847013883B220680122EB80AD
:102F500031460368DFF8888100929D6A98E80C008A
:102F6000A84756493046FDF7BBF9002875D05449AB
:102F70003046FDF7B5F900284CD052493046FDF7F0
:102F8000AFF9002840F088804F4B06AD4F4A0DF155
:102F9000080983FB071312A9A3EBE77303EB4303B1
:102FA000FB1A01EB830307CA85E80700484653F87C
:102FB000301C14F00FFD25682B682846DB68984705
:102FC000002848D12B682846DB689847013883B22F
:102FD000AB8028462B689B689847262839D82B68F1
:102FE00028469B689847013883B220680121EB800E
:102FF000046800914946A46A98E80C00A04713B001
:10300000BDE8F08300236EE70F239EE700238FE7E0
:10301000002376E72E4B06AEDFF8C8C00DF1080995
:1030200083FB0723DA19FB17C3EBA203C3EBC3032C
:10303000FD1A12AB03EB8505BCE80F000FC69CE838
:10304000070086E80700484655F8301C14F0C2FC1B
:10305000B1E72623C9E70023BAE71E4A06AD1E4E94
:103060000DF1080982FB0732FB17C3EB620303EB88
:103070004303A7EB830712AB03EB87070FCE0FC504
:103080000FCE0FC596E80F0085E80F00484657F8A9
:10309000301C14F09FFC8EE70DF108093A460F49E9
:1030A000484614F077FC86E7002198470DE700BFFB
:1030B000810A000878010024B083010834820108E5
:1030C0003C8201084C82010856555555D8800108AC
:1030D00093244992ABAAAA2A8C800108BC830108D8
:1030E00070010024BC8001084FF07E520023DFF8FD
:1030F0001CC00421C26001228380C0F808C0427055
:10310000C0E90433C0E90613704700BF000048421D
:1031100083B10021012301714370002A00F08D80EA
:103120004B1FDBB2012B00F2948002221346427047
:103130004371704749B141780A2911D001710329BF
:10314000EED8DFE801F09B9883780179002AE7D078
:103150000B1F052B64D8DFE803F03F2D470F241920
:103160000179012900F0A7808B1E022BE7D80122EC
:1031700002230271437060E00369D21800F1988065
:103180000B2A40F3A1800B230361C9E783691A442A
:10319000002A40F38A80082A40F394800823836140
:1031A000BEE74369D2187DD4062A40F389800623FE
:1031B0004361B5E707EE902ADFED636A90ED037A8D
:1031C000F8EEE77AA7EEA67AB4EEE67AF1EE10FA18
:1031D00057D5C0ED036AA3E7C369D2185FD4022AAA
:1031E0006CDD0223C3619BE707EE902AB1EE046A0F
:1031F00090ED027AF7EE006AF8EEE77AA7EE867AAB
:10320000B4EEE67AF1EE10FA46D4DFED507AB4EE81
:10321000E77AF1EE10FA77FE877AC0ED027A7FE75F
:1032200002290CD003291CD1002A437861DC072B2A
:1032300078D0082B66D107234370437878E7002ABB
:1032400043784ADC062B6DD0052B4DD10623437005
:10325000F3E7CB1F022B39D8032213464270437188
:10326000704701297FF45CAF002A437854DC022BBD
:1032700058D0032B59D102234370DEE7012343705A
:10328000DBE7F0EE007AB4EEE77AF1EE10FA77FEC3
:10329000877AC0ED037A43E7C0ED026A40E7002376
:1032A000C3613DE7002343613AE70123836137E7C8
:1032B0000023036134E703714170BEE7C2612FE769
:1032C00042612DE782612BE7026129E70429B4D12D
:1032D00001221346427043717047062B06D0052B1E
:1032E00020D00A2BA9D1B1E70A2BA6D10523437020
:1032F000A3E7072B08D0082B0BD0092B12D00A2BE1
:103300009BD198E7092B02D10823437095E70A2B3C
:1033100093D10923437090E7022B08D0032B0BD0E5
:10332000042B0CD10A23437087E7042B02D103231B
:10333000437082E70A2B80D1042343707DE70A2B78
:103340007FF47BAF97E700BFCDCCCC3D0000C842F7
:103350002DE9F04F012100245A230546504A87B039
:10336000037505F5B078C16305F5DA7A80F82C307D
:1033700080F8483040F20323C26042620264C0E930
:103380000141C0E907410321C0E90D4485F850100F
:1033900054302B832B8601F023FE05F19C0001F0B5
:1033A000D1FD4FF080404FF07E520023C5F8C000A1
:1033B0004FF0FF30C5F8C42005F5E47C394A3A499E
:1033C000C5F8B80040F2047085F8B4400C46C5F862
:1033D000BC3005F5A271C5F8CC3004F11C09C5F864
:1033E000D8300E46C5F8D02004F13807C5F8D420EF
:1033F00005F5CC72C5F8DC3005F5BE73A5F8C8003C
:1034000004F1B400019304F15403029205F5FC7237
:10341000039304F1700B059004F1840E04920FCC19
:103420000FC694E8070086E80700B9E80F00A8E88F
:103430000F0099E80700019C88E807000FCF0FC430
:10344000039B97E807001E4684E807000FCE029C06
:1034500027460FC796E8070087E80700BBE80F007C
:10346000AAE80F00DBF80030CAF80030BEE80F0011
:10347000ACE80F00BEE80F00ACE80F009EE80F00BC
:103480008CE80F000598049C06460FCE0FC496E802
:10349000030084E80300284607B0BDE8F08F00BFB2
:1034A0000108010900004842E480010810B5044603
:1034B0009C3001F055FD04F1540001F0C1FD20469F
:1034C00010BD00BF2DE9F04F04469BB001270260FC
:1034D000079114AD87600DF15009406804F11C0E8E
:1034E000A1680DF1280CE2680FAE2369E246E346BD
:1034F0004FF00A080FC5238B6069AB80AB8828604A
:1035000004F13405E0622386B9E80F00E0614FF072
:10351000000921626262A362BEE80F00ACE80F00FE
:103520004FF010030F908DF84C30DEF80030CCF8DF
:10353000003084F8483000230A90CDE91173BDF8BB
:103540003030ADF84030BDF83230ADF84230BAE836
:103550000F00A0632846E16331462264636403F0F0
:1035600003FC00965E22CDE9017894F84C3094F883
:103570004810002818BF43F00103284684F84C3057
:1035800063238DF827303B4603F0AEFC00965E22A5
:10359000CDE9017894F84C3094F84810002818BF11
:1035A00043F00103284684F84C309DF83C308DF8F8
:1035B0003C908DF828303B4603F0BEFC0DF127030C
:1035C00080220093CDE9017894F84C3094F84810AB
:1035D000002818BF43F00103284684F84C303B46CE
:1035E00003F0AAFCCDF800B05E22CDE9017894F892
:1035F0004C3094F84810002818BF43F001032846C7
:1036000084F84C303B4603F097FC94F84C3000288B
:1036100018BF43F00103384684F84C3004F0ECFD49
:103620003B465E22009628468DF83C90CDE9017815
:1036300094F8481003F080FC00963B46CDE90178F1
:1036400094F84C2094F84810002818BF42F001026A
:10365000284684F84C205D2203F046FC94F84C3058
:10366000002818BF43F0010384F84C309DF83C302B
:10367000242B10D02068012101F05AFD206864211C
:1036800001F04AFD2068002101F052FD642120680C
:1036900001F042FDEEE794F830304FF04109059318
:1036A00094F83130069301274FF00A08059B5E22FB
:1036B000009628468DF827303B464FF0000ACDE9AA
:1036C000017894F8481003F00FFC00965E22CDE9D3
:1036D000017894F84C3094F84810002818BF43F053
:1036E0000103284684F84C309DF83C308DF83CA00E
:1036F0008DF828303B4603F01FFC0DF127034A46A6
:103700000093CDE9017894F84C3094F84810504576
:1037100018BF43F00103284684F84C303B4603F0C1
:103720000BFCCDF800B05E22CDE9017894F84C3066
:1037300094F84810504518BF43F00103284684F818
:103740004C303B4603F0F8FB069B00965E228DF85A
:103750002730CDE9017894F84C3094F84810504562
:1037600018BF43F00103284684F84C303B4603F071
:10377000BBFB00965E22CDE9017894F84C3094F8BA
:103780004810504518BF43F00103284684F84C30D8
:103790009DF83C308DF83CA08DF828303B4603F076
:1037A000CBFB0DF1270309EB070209F10209009396
:1037B00092B21FFA89F9CDE9017894F84C3094F867
:1037C0004810504518BF43F00103284684F84C3098
:1037D0003B4603F0B1FBCDF800B05E22CDE90178A5
:1037E00094F84C3094F84810504518BF43F001034A
:1037F000284684F84C303B4603F09EFB94F84C304E
:10380000504518BF43F00103B9F1590F84F84C300B
:103810007FF449AF3B465E22009628468DF827701C
:10382000CDE9017894F8481003F05EFB00965E2223
:10383000CDE9017894F84C3094F84810504518BF01
:1038400043F00103284684F84C309DF83C308DF855
:103850003CA08DF828303B4603F06EFB0DF12703AA
:103860002B220093CDE9017894F84C3094F848105D
:10387000504518BF43F00103284684F84C303B46BE
:1038800003F05AFBCDF800B05E22CDE9017894F840
:103890004C3094F84810504518BF43F001032846B7
:1038A00084F84C303B4603F047FB00965E228DF8CF
:1038B0002770CDE9017894F84C3094F848105045C1
:1038C00018BF43F00103284684F84C303B4603F010
:1038D0000BFB00965E22CDE9017894F84C3094F809
:1038E0004810504518BF43F00103284684F84C3077
:1038F0009DF83C308DF83CA08DF828303B4603F015
:103900001BFB0DF127032C220093CDE9017894F8DD
:103910004C3094F84810504518BF43F00103284636
:1039200084F84C303B4603F007FBCDF800B05E2234
:10393000CDE9017894F84C3094F84810504518BF00
:1039400043F00103284684F84C303B4603F0F4FA78
:1039500000965E22CDE9017894F84C3094F8481036
:10396000504518BF43F00103284684F84C300E231D
:103970008DF827303B4603F0B7FA00965E22CDE97A
:10398000017894F84C3094F84810504518BF43F033
:103990000103284684F84C309DF83C308DF83CA05B
:1039A0008DF828303B4603F0C7FA0DF127032D228E
:1039B0000093CDE9017894F84C3094F848105045C4
:1039C00018BF43F00103284684F84C303B4603F00F
:1039D000B3FACDF800B05E22CDE9017894F84C300E
:1039E00094F84810504518BF43F00103284684F866
:1039F0004C303B4603F0A0FA00965E228DF827A0DB
:103A0000CDE9017894F84C3094F84810504518BF2F
:103A100043F00103284684F84C303B4603F064FA37
:103A200000965E22CDE9017894F84C3094F8481065
:103A3000504518BF43F00103284684F84C309DF8E8
:103A40003C308DF83CA08DF828303B4603F074FAEA
:103A50000DF127032E220093CDE9017894F84C3024
:103A600094F84810504518BF43F00103284684F8E5
:103A70004C303B4603F060FACDF800B05E22CDE951
:103A8000017894F84C3094F84810504518BF43F032
:103A90000103284684F84C303B4603F04DFA00966B
:103AA0005E228DF82770CDE9017894F84C3094F8B7
:103AB0004810504518BF43F00103284684F84C30A5
:103AC0003B4603F011FA00965E22CDE9017894F8A6
:103AD0004C3094F84810504518BF43F00103284675
:103AE00084F84C309DF83C308DF83CA08DF828309F
:103AF0003B4603F021FA0DF127032F220093CDE975
:103B0000017894F84C3094F84810504518BF43F0B1
:103B10000103284684F84C303B4603F00DFACDF8FB
:103B200000B05E22CDE9017894F84C3094F848104A
:103B3000504518BF43F00103284684F84C303B46FB
:103B400003F0FAF900965E22CDE9017894F84C3042
:103B500094F84810504518BF43F00103284684F8F4
:103B60004C3005238DF827303B4603F0BDF9009615
:103B70005E22CDE9017894F84C3094F84810504515
:103B800018BF43F00103284684F84C309DF83C30C0
:103B90008DF83CA08DF828303B4603F0CDF90DF1AF
:103BA000270330220093CDE9017894F84C3094F843
:103BB0004810504518BF43F00103284684F84C30A4
:103BC0003B4603F0B9F9CDF800B05E22CDE90178AB
:103BD00094F84C3094F84810504518BF43F0010356
:103BE000284684F84C303B4603F0A6F900965E2246
:103BF0008DF82770CDE9017894F84C3094F848108E
:103C0000504518BF43F00103284684F84C303B462A
:103C100003F06AF900965E22CDE9017894F84C3001
:103C200094F84810504518BF43F00103284684F823
:103C30004C309DF83C308DF83CA08DF828303B4648
:103C400003F07AF90DF1270331220093CDE90178D1
:103C500094F84C3094F84810504518BF43F00103D5
:103C6000284684F84C303B4603F066F9CDF800B0A6
:103C70005E22CDE9017894F84C3094F84810504514
:103C800018BF43F00103284684F84C303B4603F04C
:103C900053F900965E228DF827A0CDE9017894F8BB
:103CA0004C3094F84810504518BF43F001032846A3
:103CB00084F84C303B4603F017F900965E22CDE9BC
:103CC000017894F84C3094F84810504518BF43F0F0
:103CD0000103284684F84C309DF83C308DF83CA018
:103CE0008DF828303B4603F027F90DF127033222E7
:103CF0000093CDE9017894F84C3094F84810504581
:103D000018BF43F00103284684F84C303B4603F0CB
:103D100013F9CDF800B05E22CDE9017894F84C306B
:103D200094F84810504518BF43F00103284684F822
:103D30004C303B4603F000F900965E228DF827A038
:103D4000CDE9017894F84C3094F84810504518BFEC
:103D500043F00103284684F84C303B4603F0C4F896
:103D600000965E22CDE9017894F84C3094F8481022
:103D7000504518BF43F00103284684F84C309DF8A5
:103D80003C308DF83CA08DF828303B4603F0D4F849
:103D90000DF1270333220093CDE9017894F84C30DC
:103DA00094F84810504518BF43F00103284684F8A2
:103DB0004C303B4603F0C0F8CDF800B05E22CDE9B0
:103DC000017894F84C3094F84810504518BF43F0EF
:103DD0000103284684F84C303B4603F0ADF80096CA
:103DE0005E228DF827A0CDE9017894F84C3094F844
:103DF0004810504518BF43F00103284684F84C3062
:103E00003B4603F071F800965E22CDE9017894F804
:103E10004C3094F84810504518BF43F00103284631
:103E200084F84C309DF83C308DF83CA08DF828305B
:103E30003B4603F081F80DF1270334220093CDE9CE
:103E4000017894F84C3094F84810504518BF43F06E
:103E50000103284684F84C303B4603F06DF8CDF85A
:103E600000B05E22CDE9017894F84C3094F8481007
:103E7000504518BF43F00103284684F84C303B46B8
:103E800003F05AF800965E228DF827A0CDE901785C
:103E900094F84C3094F84810504518BF43F0010393
:103EA000284684F84C303B4603F01EF800965E220C
:103EB000CDE9017894F84C3094F84810504518BF7B
:103EC00043F00103284684F84C309DF83C308DF8CF
:103ED0003CA08DF828303B4603F02EF80DF1270367
:103EE00035220093CDE9017894F84C3094F84810CD
:103EF000504518BF43F00103284684F84C303B4638
:103F000003F01AF8CDF800B05E22CDE9017894F8FC
:103F10004C3094F84810504518BF43F00103284630
:103F200084F84C303B4603F007F800965E228DF88B
:103F300027A0CDE9017894F84C3094F8481050450A
:103F400018BF43F00103284684F84C303B4602F08A
:103F5000CBFF00965E22CDE9017894F84C3094F8BE
:103F60004810504518BF43F00103284684F84C30F0
:103F70009DF83C308DF83CA08DF828303B4602F08F
:103F8000DBFF0DF127035B220093CDE9017894F864
:103F90004C3094F84810504518BF43F001032846B0
:103FA00084F84C303B4602F0C7FFCDF800B05E22EB
:103FB000CDE9017894F84C3094F84810504518BF7A
:103FC00043F00103284684F84C303B4602F0B4FF2E
:103FD00000965E22CDE9017894F84C3094F84810B0
:103FE000504518BF43F00103284684F84C30102395
:103FF0008DF827303B4602F077FF00965E22CDE930
:10400000017894F84C3094F84810504518BF43F0AC
:104010000103284684F84C309DF83C308DF83CA0D4
:104020008DF828303B4602F087FF0DF127035C2214
:104030000093CDE9017894F84C3094F8481050453D
:1040400018BF43F00103284684F84C303B4602F089
:1040500073FFCDF800B05E22CDE9017894F84C30C2
:1040600094F84810504518BF43F00103284684F8DF
:104070004C303B4602F060FF00965E22CDE90178AD
:1040800094F84C3094F84810504518BF43F00103A1
:10409000284684F84C3020238DF827303B4602F028
:1040A00023FF00965E22CDE9017894F84C3094F815
:1040B0004810504518BF43F00103284684F84C309F
:1040C0009DF83C308DF83CA08DF828303B4602F03E
:1040D00033FF0DF127035D228DE8880194F84C3001
:1040E00094F84810504518BF43F00103284684F85F
:1040F0004C303B4602F020FFCDF800B05E22CDE907
:10410000017894F84C3094F84810504518BF43F0AB
:104110000103284684F84C303B4602F00DFF009620
:1041200002462846CDE9017894F84C3094F84810BE
:10413000524518BF43F001035E2284F84C308C23B3
:104140008DF83C303B4602F0F7FE94F84C30504579
:1041500018BF43F001031BB184F84CA0FFF78ABAE3
:10416000254684F84C30394655F8540B00F0E0FFF2
:104170000799284600F066FF04F19C0000F0F2FE6B
:104180000023042007494FF0FF32C4F8D830C4F8A8
:10419000DC3084F8C800C4F8BC10C4F8B8201BB0E8
:1041A000BDE8F08F0000DC4370B507EE901A0446BE
:1041B0002DED028B062A27D8DFE812F026009E009C
:1041C000C000E20004010700800000F58A750C21A0
:1041D00000F5E47300F5FC7E2A4680F8C910D3F898
:1041E00000C0103353F80C6C103253F8080C53F81D
:1041F000041C734542F810CC42F80C6C42F8080CD1
:1042000042F8041CEBD120E0D0F84C3104F58A755B
:10421000D0F84411D0F848210720C4F81C31D4F854
:104220005031C4F81411C4F81821D4F85411D4F83A
:104230005821C4F82031D4F85C3184F8C900C4F89E
:104240002411C4F82821C4F82C31F8EE677AF2EE74
:10425000080AB0EE000AC7EEA00A12F0C9FF94F8EF
:10426000C93053B12A4605EB8301D2ED007A67EEDF
:10427000807AE2EC017A8A42F7D104F1E006002567
:1042800007EE903A07EE105A94ED338A0135F8EEB6
:10429000E77AD4ED358AB8EEC70AD4ED310A80EE5C
:1042A000270A12F0A5FFA8EE808AA6EC018A94F8EE
:1042B000C930AB42E4DABDEC028B70BDD0F8F82116
:1042C00004F58A75D0F8FC310620D4F80062D4F8E1
:1042D0000412C4F81421C4F81831D4F80822D4F810
:1042E0000C32C4F82421C4F81C6184F8C900C4F855
:1042F0002011C4F82831A8E7D0F8683104F58A7590
:10430000D0F86011D0F864210720C4F81C31D4F82B
:104310006C31C4F81411C4F81821D4F87011D4F811
:104320007421C4F82031D4F8783184F8C900C4F875
:104330002411C4F82821C4F82C3186E7D0F8843140
:1043400004F58A75D0F87C11D0F880210720C4F8D4
:104350001C31D4F88831C4F81411C4F81821D4F8E9
:104360008C11D4F89021C4F82031D4F8943184F819
:10437000C900C4F82411C4F82821C4F82C3164E71A
:10438000D0F8A03104F58A75D0F89811D0F89C21A6
:104390000720C4F81C31D4F8A431C4F81411C4F8AF
:1043A0001821D4F8A811D4F8AC21C4F82031D4F8DD
:1043B000B03184F8C900C4F82411C4F82821C4F825
:1043C0002C3142E7D0F8B431052104F58A75C0F8E4
:1043D0001431D4F8BC31D0F8B801D4F8C021C4F8F5
:1043E0001C31D4F8C431C4F8180184F8C910C4F8D9
:1043F0002021C4F8243128E780F8C810704700BF96
:104400002DE9F0412DED028B86B00A22022301F145
:1044100034070DF116060C46054638460096CDE9E0
:104420000132012391ED2F8A002291F8481002F009
:104430005BFD94F84C30002818BF43F0010384F86A
:104440004C30BDF8163013F0010300F0A18094F851
:10445000B43013B9012384F8B43001234FF00A08B3
:1044600000961E2201933846CDF8088094F8481033
:1044700002F03AFD0096CDF80880014694F84C20F1
:10448000012338469DF81660002918BF42F001024A
:1044900084F84C2002220192042294F8481002F081
:1044A00023FDBDF8163094F84C20C3EB860300289A
:1044B00018BF42F0010204F19C0000EE103A94F89B
:1044C000503084F84C2007EE103AF8EEC07AB8EE7F
:1044D000470A37EEC00A84ED360A00F04BFD04F1BE
:1044E000540000F0B7FDD4F8B830D4ED347ADFEDE5
:1044F000406A002B94ED337A77EEE67A94F8C9207F
:1045000080FE070A80FE670A84ED370A01DB9342CA
:1045100049DB002A44D0D4ED387A04F1E4010023C9
:1045200002E0013393423BDAB0EE677A02F1FF3CDE
:10453000F1EC017AB4EEC07AF1EE10FA04D8F4EEA0
:10454000C07AF1EE10FA06DC9C45EAD1F4EEC07AAE
:10455000F1EE10FAE5D894F8C81001228A4008EE6E
:10456000102A04EB8302B8EEC88AD2ED457A94F89B
:10457000B420C4F8B83028EE278A84ED2F8A85ED60
:10458000008A2A71284606B0BDEC028BBDE8F08196
:1045900094F8B420002AF2D01A4684F8B430EEE73A
:1045A00094F8B420EBE79FED137A04EB830394EDCA
:1045B000356AD4ED306AC6EE077A93ED387A67EE45
:1045C000A67A37EE677AB4EEC07AF1EE10FAA2D886
:1045D00093ED397A77EE877AF4EEC07AF1EE10FA3D
:1045E00099DD94F8B43085ED008A2B71CAE700BFDD
:1045F0006F12833A0000C84270B5F0EE400A002501
:10460000044690F8C93000F1E00680ED310A2DED46
:10461000028B01E0D4ED310A07EE903A07EE105A12
:1046200094ED338A0135F8EEE77AD4ED358AB8EEA9
:10463000C70A80EE270A12F0DBFDA8EE808AA6ECFE
:10464000018A94F8C930AB42E4DABDEC028B70BD4C
:1046500070B52DED028B90ED338A0446B4EEC08A1E
:10466000F1EE10FA03DBB7EE000A38EE000A70EE46
:10467000488A94F8C93004F1E006002584ED340A34
:10468000C4ED358A03E094ED338AD4ED358A07EE24
:10469000903A07EE105AD4ED310A0135F8EEE77A78
:1046A000B8EEC70A80EE270A12F0A2FDA0EE288A13
:1046B000A6EC018A94F8C930AB42E4DABDEC028B77
:1046C00070BD00BF0021DFF878C00022C0F8B01034
:1046D000C0F8B410C0F8B8C0C0F8BC10C0F8C0C072
:1046E000C0F8C4C0C0F8C8C0C0F8CC10C0F8D01022
:1046F000C0F8D410A0F8DC20C0F8E010C0F8E41036
:10470000C0F8E8C0C0F8EC10C0F8F0C0C0F8F4C0C1
:10471000C0F8F8C0C0F8FC10C0F80011C0F80411CF
:10472000A0F80C21C0E94722C0E94922C0E94B2288
:10473000C0E94D22C0E94F22C0E95122704700BFB5
:10474000000080BF704700BF00F5C023012970B58D
:1047500004462DED028B83F8201D82B000F0D2803C
:10476000022900F00382002900F0328190F86C11D8
:10477000D0F870C1D0ED5D6A90F87C2194ED617A3B
:10478000D0F88001D4ED657A94ED660A94F88C3106
:10479000D4F890510829DFEDC18AC4F804C0B7EEFF
:1047A000008A28BF0021082A206304F1580028BF8E
:1047B0000022082B217028BF0023E56584F82C20F7
:1047C00004F1B00584F85830C6FEA86A87FE287A3E
:1047D000C6FEC86A87FE487AC4ED036A84ED0E7A85
:1047E000C7FEA87A84ED180AC7FEC87AC4ED197A04
:1047F00012F096F894F89C31B0EE407AD4F8A021EB
:10480000082B94ED6A0AC4F8882004F1840028BFBC
:10481000002384ED1D7AD4ED697A84F88430C7FED4
:10482000A87A84ED230AC7FEC87AC4ED247A12F070
:1048300077F8F0EE407A012194ED6B0A2846019555
:10484000C4ED287A11F0C8FB94ED6C0A022101989E
:1048500011F0C2FB94ED6E0A0421019811F0BCFB2B
:10486000D4ED6D7AF4EEE87AF1EE10FA44D9F4EE74
:10487000487AF1EE10FA78FE277A04F1E000C4EDF0
:104880002C7A94ED700A0121019011F0A5FB94EDB2
:10489000710A0221019811F09FFB94ED730A042123
:1048A000019811F099FBD4ED727AF5EEC07AF1EE31
:1048B00010FA24D9B7EE007AF4EE477AF1EE10FA46
:1048C00077FE277A04F5887094ED750AC4ED387A7E
:1048D000019011F0FDFD94ED760A019811F056FE5D
:1048E0006F4A704B12681B68C4F8E021C4F8DC31D1
:1048F00002B0BDEC028B70BDDFED6B7ABDE7DFED82
:104900006A7ADFE7694E6A4AD6ED007A694E6A4BE9
:1049100096ED000A694ED2ED006A36781A7884F86E
:104920009C61674E67483668674BC4F8A061674E64
:10493000D0F800C036681868C4F8A461644E654BAE
:10494000366893ED007AC4F8A861634E634936680F
:10495000634BC4F8AC61634E634D366809781B78CD
:104960002D68C4F8B061614E84F86C11C4F870C150
:10497000C4ED5D6A84F87C21C4F8800184ED617A1D
:1049800084F88C31C4F89051C4ED657A84ED660AE0
:104990003668C4F8B861564E3668C4F8B461554EEE
:1049A0003668C4F8C061544E3668C4F8C461534ECA
:1049B0003668C4F8CC61524E3668C4F8C861514EAE
:1049C0003668C4F8D461504E3668C4F8D861E1E660
:1049D0004E4E4F4AD6ED007A4E4E4F4B96ED000AA2
:1049E0004E4ED2ED006A36781A7884F89C614C4EAF
:1049F0004C4836684C4BC4F8A0614C4ED0F800C00F
:104A000036681868C4F8A461494E4A4B366893ED7D
:104A1000007AC4F8A861484E48493668484BC4F843
:104A2000AC61484E484D366809781B782D68C4F84B
:104A3000B061464E84F86C11C4F870C1C4ED5D6A73
:104A400084F87C21C4F8800184ED617A84F88C318B
:104A5000C4F89051C4ED657A84ED660A3668C4F8EE
:104A6000B8613B4E3668C4F8B4613A4E3668C4F853
:104A7000C061394E3668C4F8C461384E3668C4F82F
:104A8000CC61374E3668C4F8C861364E3668C4F813
:104A9000D461354E3668C4F8D8617BE6000000006A
:104AA0001C010024180100240AD723BC8C00002418
:104AB0000801002494000024110100249D0000241A
:104AC00088000024DC000024E00000249000002482
:104AD000980000240C010024E400002410010024AC
:104AE0009C000024EC000024840000240001002429
:104AF000A4210624F0000024F4000024F80000247F
:104B0000FC000024E80000240401002470000024BC
:104B1000CC00002478000024D90000248000002468
:104B20006C000024A0000024A400002474000024D1
:104B30007C000024D0000024A8000024D800002419
:104B4000A0210624B000002468000024C400002432
:104B5000D4000024B4000024B8000024BC000024C9
:104B6000C0000024AC000024C8000024354E364AA2
:104B7000D6ED007A354E364B96ED000A354ED2ED25
:104B8000006A36781A7884F89C61334E3348366868
:104B9000334BC4F8A061334ED0F800C036681868B3
:104BA000C4F8A461304E314B366893ED007AC4F8F6
:104BB000A8612F4E2F4936682F4BC4F8AC612F4E99
:104BC0002F4D366809781B782D68C4F8B0612D4EDA
:104BD00084F86C11C4F870C1C4ED5D6A84F87C215E
:104BE000C4F8800184ED617A84F88C31C4F8905166
:104BF000C4ED657A84ED660A3668C4F8B861224E61
:104C00003668C4F8B461214E3668C4F8C061204EDD
:104C10003668C4F8C4611F4E3668C4F8CC611E4EB5
:104C20003668C4F8C8611D4E3668C4F8D0611C4EA1
:104C30003668C4F8D4611B4ED6F800E0C4F8D8E159
:104C4000A8E500BF540000243C0000245C000024C0
:104C50004900002465000024500000240C000024BA
:104C600010000024580000246000002440000024AC
:104C70001400002448000024640000241C000024C8
:104C80004C000024340000244400002424000024AC
:104C9000280000242C0000243000002420000024E0
:104CA0001800002438000024F7EE007A2DE9F041C6
:104CB0002DED048B87EE809A4FF07C55DFED468A10
:104CC0004FF0000845600446C0ED028A0026C5602A
:104CD00040F20117B0EE408AC0F81880B0EE680AC2
:104CE00080ED048A80ED059A11F01AFEF0EE407A0C
:104CF00004F12C0084ED0F8A84ED109AB0EE680A5E
:104D0000C4ED077AC4ED0D8A2563A5632670278557
:104D1000C4F8448011F004FE04F1580084ED120A36
:104D2000B0EE680A84ED1A8A84ED1B9AC4ED188AE5
:104D3000E565656684F82C60A4F85470C4F870804A
:104D400011F0EEFD04F1840084ED1D0AB0EE680A56
:104D500084ED258A84ED269AC4ED238AC4F8885010
:104D6000C4F89050C4F89C8084F85860A4F880700F
:104D700011F0D6FDF0EE407A04F1B000B0EE480A32
:104D8000012184F88460C4ED287AA4F8AC7011F095
:104D9000ABF80121B0EE480A04F1E00011F0A4F8EC
:104DA000B0EE480A04F588700C4D11F0F5F9B0EE3C
:104DB000480A04F5EE7011F03FFE04F5C0232046CA
:104DC000022103F6245283F8216DBDEC048B15609B
:104DD000BDE8F041FFF7B8BC0000C8420000DC436A
:104DE000F0B583B0044600F5C02602AB03E9060027
:104DF000DDED007A9DF8045037EEA77AC0ED5E7ABB
:104E000080ED627A15B196F8217D1FB186F8215D9B
:104E100003B0F0BD3946B03011F0D6F8394604F190
:104E2000E00011F0D1F886F8215D03B0F0BD00BFBD
:104E300070B500F5C025044695F8203D012B2DEDF9
:104E4000028B86B037D0022B35D0A3B300F12C06ED
:104E500000F58875204611F0ADFBB0EE408A304673
:104E600011F0A8FBF6EE007A38EE008A284628EE0C
:104E7000278A28EE880A11F035FA05AA04AB04F552
:104E8000EE70009203AA8DED030A114611F094FE14
:104E90002A4BF7EE007ADDED046A93ED000A9DEDF2
:104EA000037A77EEC07A20EE260AA7EE870A06B0CC
:104EB000BDEC028B70BDB7EE008A04F15800D4ED52
:104EC0005E8A11F077FB204604F12C0630EE080ACA
:104ED00020EE280A84ED020A11F022FD04F184007C
:104EE00084ED070AD4ED628A11F064FB30EE080A03
:104EF000304620EE280A84ED0D0A11F011FD95F8D8
:104F0000211D04F1B00084ED120A11F0EDF804F156
:104F1000E00095F8211DF0EE408A11F0E5F8084B0D
:104F200004F58875D4ED747A93ED007A284620EE66
:104F3000070A20EE270A11F0CBFA8BE714010024B0
:104F40001800002400220346DFF810C043F804CB09
:104F50004260C3E90122C3E9032270470000C8424E
:104F6000704700BF002343608360C36003614361F7
:104F7000704700BF86B041680369C268D0F808C0B6
:104F8000436181600261C0F80CC080ED010A02A893
:104F9000029100218DED010ACDF80CC00492059319
:104FA000B0EC017A0B46024652ED027AF4EEC77A73
:104FB000F1EE10FA12DD013B62ED017AB3F1FF3F31
:104FC000F2D1002306AA013102EB8303042903ED89
:104FD000057AE5D19DED030A06B070470133F1E78C
:104FE000154A0346154900F1080C2DE9F0474160C8
:104FF00002F10C0800F1140702F1180600F128056F
:1050000002F1240E002407CA8CE8070098E8070084
:1050100087E8070096E80700C3E9084403F1340C69
:1050200085E807009EE807008CE8070018461C6426
:105030005C64BDE8F08700BFB08101080000C84291
:10504000704700BF0023017003644364036243623E
:10505000704700BF03782BB3012B20D190ED096A74
:1050600090ED077AD0ED086A26EE077AD0ED064A71
:10507000D0ED037A90ED025AA4EEA67AD0ED045A50
:1050800066EEA77AC0ED096A30EE477AE5EE077A58
:1050900080ED087AB0EE670AA6EE250A70479FED0C
:1050A000120A704790ED116A90ED0F7AD0ED106AF8
:1050B00026EE077AD0ED0E4AD0ED0B7A90ED0A5A23
:1050C000A4EEA67AD0ED0C5A66EEA77AC0ED116A6E
:1050D00030EE477AE5EE077A80ED107AB0EE670A97
:1050E000A6EE250A704700BF00000000202882B00D
:1050F00009D8084B03EB400213F81030507843EA0C
:10510000002002B0704701230C2043EA002002B0C7
:10511000704700BFC0830108084603F06DB800BFA8
:10512000143001F0E3B900BF143001F0DBB900BF67
:10513000283001F095BC00BF10B540F203338EB0AB
:1051400000244FF60B7240F20341ADF8083009A875
:105150000123ADF81020ADF824202246ADF80C1044
:105160000094029907940C94CDE90544CDE90A44D2
:1051700001F084FB04A8012322460399009401F066
:105180007DFB09A801F060FC10B901200EB010BD34
:1051900004A801F059FCA0420CBF022020460EB02A
:1051A00010BD00BF2DE9F04103239AB04FF0010874
:1051B00000254FF60B740746CDE91438394BADF88E
:1051C0004C40CDE91053A3F19F63A3F57D43CDE996
:1051D00016581293FFF7B0FF4045064623D0022829
:1051E00042D040F60132304B07F158000BACADF81D
:1051F0002C200B991895CDF86480CDF84A3000F03A
:10520000DBF810A907F1700002F0C6FD274B0FCBA9
:1052100084E80F003A6F214607F1140001F026F9E7
:105220001AB0BDE8F08110231F4A06A906908DF838
:1052300028300BAC1E4BCDF84A2007930295CDE9E0
:105240001805CDE9080502A801F08EFD0823029A91
:1052500003A92046ADF80C608DF80E500496059316
:105260000B9500F0E9F8CCE740F60133ADF82C409F
:1052700000200BACADF8183001210B4B42460095D5
:10528000CDF84A302B460E95CDE9180106992046F7
:10529000CDE90C5501F0F2FA2946204601F0E0FB79
:1052A000AFE700BF0402040404060403E081010820
:1052B0000704010B2DE9F04704462DED028B82B067
:1052C000002949D0012140F2011200230091ADF8DC
:1052D00004208DF80630354A0127354B04F10409C6
:1052E000344904F13C08626040F20272A36040F667
:1052F0000663E16004F1280A2285A3872782E7621A
:10530000276403F023F9054602F078FF6946064654
:1053100050BB4DB304F150008DF8067003F098F8BF
:10532000072D3ED104F114052046FFF73BFF284628
:1053300001F0D8F82846B0EE408A01F0CFF8D0ED61
:10534000007AF8EE677A88EE277A84ED1B7A02B04D
:10535000BDEC028BBDE8F08740F2011300918DF89F
:105360000610ADF80430B6E704F1500003F070F811
:10537000072D13D04946204602F01AF90EB9002D28
:10538000D0D15146504601F093F94046414601F0D4
:105390008FF904F1120000F079F9C3E7002EF0D183
:1053A000C0E74946204602F003F9BBE705080509B6
:1053B00005070506050A060630B585B00025044632
:1053C0000122ADF80C102B460399009501F056FA16
:1053D0000121204601F044FB012002F00DFF294687
:1053E000204601F03DFB012002F006FF012120468E
:1053F00005B0BDE8304001F033BB00BF10B5C2F3CB
:10540000002384B00C46017C8DF80D2043EA440251
:10541000FA2402238DF80C2003AA009401F03CFD2D
:1054200018B10124204604B010BD04460A2002F041
:10543000E3FE204604B010BD034670B543F8042BCC
:10544000044684B007C983E80700A37983B91A2109
:105450000B461E22FA2523742046ADF80C200223A9
:1054600003AA009501F018FD28B1012004B070BD19
:105470001B210B46EDE70A2002F0BEFE4FF4B852A6
:1054800000950223ADF80C20204603AA217C01F0F0
:1054900003FD0028E9D10A2002F0AEFE41F20272BB
:1054A00000950223ADF80C20204603AA217C01F0D0
:1054B000F3FC0028D9D10A2002F09EFE04220095B8
:1054C0000223ADF80C20204603AA217C01F0E4FC65
:1054D0000028CAD10A2002F08FFE0622009502237E
:1054E000ADF80C20204603AA217C01F0D5FC002851
:1054F000BBD10A2002F080FE41F20822009502236F
:10550000ADF80C20204603AA217C01F0C5FC002840
:10551000ABD10A20064602F06FFE0095022303AAD3
:10552000217C2046ADF80C6001F0B6FC00289CD12F
:10553000304602F061FE009522790C232046002AB5
:105540008DF80C3003AA4FF0020314BF62214221F0
:105550008DF80D10217C01F09FFC002885D130468C
:1055600002F04AFE2279D4E902310B43DBB20AB9D8
:1055700043F0400362790AB143F020030E22FA257A
:105580008DF80D302046009502238DF80C2003AADB
:10559000217C01F081FC00287FF467AF0A2002F033
:1055A0002BFE102200950223ADF80C20204603AA02
:1055B000217C01F071FC00287FF457AF0A2002F033
:1055C0001BFE122100950223ADF80C1003AA217CCA
:1055D000204601F061FC00287FF447AF0A2002F06A
:1055E0000BFE012209212046FFF708FF003818BFF3
:1055F00001203BE7F0B5102387B0234C01220025A2
:105600000126002702A920460195CDE902234FF487
:105610008052CDE904670AF057FC642003F084F956
:1056200002A94FF480522046CDE9046702261027D4
:10563000CDE902670AF048FC0322102302A92046A4
:10564000CDE9022300230422CDE904234FF4805244
:105650000AF03AFC40F23223042202A901931023FB
:105660002046CDE90223019A012305924FF480528E
:1056700004930AF029FC40F6060120460AF044FC97
:10568000284607B0F0BD00BFB02106241C4B002205
:105690001C494FF0400C30B5054689B002205960D6
:1056A00007219A601A620124DA620A224FF4006E1E
:1056B000DC6006922022CDE9000104200821CDE91A
:1056C000020103201021CDE9040108206946C3E945
:1056D00004024FF4C072181DC3E906C24FF4805291
:1056E000C3E909E20AF0C6FB38B92846FFF782FF92
:1056F000003818BF012009B030BD204609B030BDC8
:10570000AC21062440410052614A0021D0B5136803
:105710008EB00A91002B40F0B9805E4B01214FF60C
:1057200083700C2411600221D3F8D42000260327B3
:1057300042F48052C3F8D420D3F8D42002F480522B
:105740000092009AD3F8E02042F01002C3F8E02063
:10575000D3F8E02002F010020192019AD3F8E02081
:1057600042F04002C3F8E020D3F8E02002F040020B
:105770000292029AD3F8E02042F00802C3F8E02037
:10578000D3F8E02002F008020392039AD3F8E02055
:1057900042F48072C3F8E020D3F8E02002F4807273
:1057A0000492049AD3F8E02042F08002C3F8E0208B
:1057B000D3F8E02002F080020592059AD3F8E020A9
:1057C00042F02002C3F8E020D3F8E02002F02002EB
:1057D0000692069AD3F8E02042F00402C3F8E020D3
:1057E000D3F8E0300C9403F0040307930323079AE3
:1057F0000B93CDE9080108A9274804F015FC48F2ED
:105800003712022308A925480C94CDE90823CDE9D5
:105810000A6704F009FC4CF20372022308A920482D
:105820000C94CDE90823CDE90A6704F0FDFB40F2B2
:10583000FF62022308A91B480C94CDE90823CDE997
:105840000A6704F0F1FB4FF60C72022308A9164810
:105850000C94CDE90823CDE90A6704F0E5FB4FF687
:105860003F02022308A911480C94CDE90823CDE991
:105870000A6704F0D9FB2022022308A90A480C94E5
:10588000CDE90A67CDE9082304F0CEFB0EB0D0BD08
:10589000A82106240044025800100258001802589B
:1058A000000C025800200258001C02580014025834
:1058B0002DE9F04FDFF8108406460D46144608F136
:1058C00018002DED028B89B000AF02F05DFBD8F817
:1058D000183073B3D8F81C30D8F80490002B436903
:1058E0000BBF4FF0080A4FF0100A4FF0020B4FF0B9
:1058F000040BB9F1000F2AD0A200EA46012B02F1F5
:10590000070222F00702ADEB020D6846ADEB020D77
:10591000694600F03F81022B00F0D680002B6FD04B
:105920002246C847D5462437BD46BDEC028BBDE8AC
:10593000F08FD8F81C30002BF5D0D8F804904FF039
:10594000080A4FF0020B4369B9F1000FD4D1FB6193
:10595000D8F80030BB61002BE5D0D54802F086FBBB
:105960006B46BBF1020F786108EE103AFB6900F05C
:1059700083816A465146A2EBC40295466200EA461C
:10598000B2FBFBF2AAEBC40085460AEB8200EE46AE
:10599000F861ADEB010DF8690EEB820CC7F810C091
:1059A000EC46ADEB010D00EB8201CCF80400CCF825
:1059B000081001EB82013869E946CCF80C1000EBC5
:1059C0008201CCF800A001EB8202C9E900E0C9E93C
:1059D0000212012B00F06483022B00F06C82002B7A
:1059E00000F08081620849466046BB69984718EE1E
:1059F000103A24379D46BD46BDEC028BBDE8F08FC2
:105A0000002C8DD01A46D8ED0C6A9FEDB27A8446F0
:105A1000331D36F922E00CF1080C07EE90EA33F959
:105A200022E00232F8EEE77A944267EE877A67EE78
:105A3000A67A4CED027A07EE90EAF8EEE77A67EE86
:105A4000877A67EEA67A4CED017AE2D8F9612246B0
:105A5000C847984ED8ED0D6A0020F9692B1D9FEDBF
:105A60009E7A9FED9E6ADFED9E5A22E0F4EEC67AA2
:105A7000F1EE10FAC0F2C88447F6FE72D1ED017A59
:105A800045F8202066EEA77AF4EEC77AF1EE10FA18
:105A900040F2F080F4EEC67AF1EE10FAC0F2D5844E
:105AA00047F6FE7243F820200230083184427FF628
:105AB00039AFD1ED007A66EEA77AF4EEC77AF1EE4F
:105AC00010FAD3D83246D9E7002C3FF429AFD8EDED
:105AD0000C6A84469FED787A0022331D8E4656F874
