:020000040800F2
:1000000000000220290A00081D0A0008C18D00080E
:100010001D0A00081D0A00081D0A00080000000053
:100020000000000000000000000000001D0A0008A1
:100030001D0A0008000000001D0A0008458D000888
:100040001D0A00081D0A00081D0A00081D0A0008F4
:100050001D0A00081D0A00081D0A00081D0A0008E4
:100060001D0A00081D0A00081D0A00082584000852
:10007000318400081D0A00083D84000849840008F6
:100080008D690108416700081D0A00081D0A000863
:100090001D0A00081D0A00081D0A00081D0A0008A4
:1000A0001D0A00081D0A00081D0A00081D0A000894
:1000B000798A0008858A0008918A00087567000817
:1000C0001D0A0008816700081D0A0008D5560108AE
:1000D000E1560108C1670108ED67010821680108C0
:1000E0001D0A00081D0A0008000000001D0A000883
:1000F0001D0A00081D0A00081D0A00081D0A000844
:100100001D0A00081D0A00089D8A0008ED56010816
:1001100055680108896801081D0A00081D0A0008C1
:100120001D0A00081D0A000811570108455701085B
:10013000C16901081D0A00081D0A00081D0A0008FF
:1001400000000000000000000000000000000000AF
:100150001D0A00081D0A00081D0A0008BD680108E4
:100160008D6700081D0A0008558D0008798D00086C
:100170001D0A00089D8D00081D0A00081D0A0008C0
:100180001D0A00081D0A0008F16801082569010818
:10019000F9560108055701081D0A00081D0A000844
:1001A0001D0A00081D0A00081D0A00081D0A000893
:1001B000198100081D0A00081D0A00081D0A000810
:1001C0001D0A00081D0A00082D49010839490108C7
:1001D0001D0A0008454901081D0A00081D0A0008FB
:1001E0001D0A00081D0A00081D0A00081D0A000853
:1001F0001D0A00081D0A00081D0A00081D0A000843
:100200001D0A00081D0A00081D0A00081D0A000832
:100210001D0A00081D0A00081D0A00081D0A000822
:100220001D0A00081D0A00081D0A00080000000041
:100230001D0A00081D0A0008000000001D0A000831
:100240001D0A00081D0A00081D0A00081D0A0008F2
:100250001D0A00081D0A00081D0A00081D0A0008E2
:100260001D0A00081D0A00081D0A00081D0A0008D2
:100270001D0A00081D0A0008596901080000000055
:100280001D0A00081D0A00081D0A000800000000E1
:08029000000000001D0A000837
:1002A00010B5054C237833B9044B13B10448AFF3B0
:1002B00000800123237010BD3006002400000000E0
:1002C00080DE010808B5034B1BB103490348AFF3B7
:1002D000008008BD000000003406002480DE010814
:1002E00010F8012B11F8013B012A28BF9A42F7D0E0
:1002F000D01A70470000000000000000000000005D
:1003000001F0FF01102A2BDB10F0070F08D010F8C6
:10031000013B013A8B422DD010F0070F42B3F6D1CA
:10032000F0B441EA012141EA014122F007047FF0E3
:1003300000070023F0E80256083C85EA010586EA3A
:10034000010685FA47F5A3FA87F586FA47F6A5FA76
:1003500087F68EB9EED1F0BC01F0FF0102F0070282
:1003600032B110F8013B013A83EA010313B1F8D12D
:100370000020704701387047002D06BF354603380E
:10038000073815F0010F07D1013015F4807F02BF47
:10039000013015F4C03F0130F0BC0138704700BF98
:1003A00081F0004102E000BF83F0004330B54FEA26
:1003B00041044FEA430594EA050F08BF90EA020F93
:1003C0001FBF54EA000C55EA020C7FEA645C7FEA26
:1003D000655C00F0E2804FEA5454D4EB5555B8BF49
:1003E0006D420CDD2C4480EA020281EA030382EABA
:1003F000000083EA010180EA020281EA0303362D4C
:1004000088BF30BD11F0004F4FEA01314FF4801C1E
:100410004CEA113102D0404261EB410113F0004F30
:100420004FEA03334CEA133302D0524263EB4303E7
:1004300094EA050F00F0A780A4F10104D5F1200E85
:100440000DDB02FA0EFC22FA05F2801841F10001E0
:1004500003FA0EF2801843FA05F359410EE0A5F1B4
:1004600020050EF1200E012A03FA0EFC28BF4CF0E5
:10047000020C43FA05F3C01851EBE37101F000459B
:1004800007D54FF0000EDCF1000C7EEB00006EEBA8
:100490000101B1F5801F1BD3B1F5001F0CD3490832
:1004A0005FEA30004FEA3C0C04F101044FEA445289
:1004B00012F5800F80F09A80BCF1004F08BF5FEA10
:1004C000500C50F1000041EB045141EA050130BDF0
:1004D0005FEA4C0C404141EB0101013C28BFB1F502
:1004E000801FE9D291F0000F04BF01460020B1FA4D
:1004F00081F308BF2033A3F10B03B3F120020CDA20
:100500000C3208DD02F1140CC2F10C0201FA0CF0FD
:1005100021FA02F10CE002F11402D8BFC2F1200C62
:1005200001FA02F120FA0CFCDCBF41EA0C01904018
:10053000E41AA2BF01EB0451294330BD6FEA040461
:100540001F3C1CDA0C340EDC04F11404C4F120024C
:1005500020FA04F001FA02F340EA030021FA04F35E
:1005600045EA030130BDC4F10C04C4F1200220FAB5
:1005700002F001FA04F340EA0300294630BD21FAF3
:1005800004F0294630BD94F0000F83F4801306BFB9
:1005900081F480110134013D4EE77FEA645C18BFAD
:1005A0007FEA655C29D094EA050F08BF90EA020F44
:1005B00005D054EA000C04BF1946104630BD91EA3C
:1005C000030F1EBF0021002030BD5FEA545C05D13F
:1005D0004000494128BF41F0004130BD14F580047E
:1005E0003CBF01F5801130BD01F0004545F0FE41F2
:1005F00041F470014FF0000030BD7FEA645C1ABF27
:10060000194610467FEA655C1CBF0B46024650EA5D
:10061000013406BF52EA033591EA030F41F4002189
:1006200030BD00BF90F0000F04BF0021704730B50F
:100630004FF4806404F132044FF000054FF00001E4
:1006400050E700BF90F0000F04BF0021704730B5A5
:100650004FF4806404F1320410F0004548BF40427A
:100660004FF000013EE700BF42004FEAE2014FEACF
:1006700031014FEA02701FBF12F07F4393F07F4FAA
:1006800081F06051704732F07F4208BF704793F0AD
:100690007F4F04BF41F40021704730B54FF46074C0
:1006A00001F0004521F000411CE700BF50EA0102C3
:1006B00008BF704730B54FF000050AE050EA01026C
:1006C00008BF704730B511F0004502D5404261EBDC
:1006D00041014FF4806404F132045FEA915C3FF41D
:1006E000D8AE4FF003025FEADC0C18BF03325FEABA
:1006F000DC0C18BF033202EBDC02C2F1200300FA6B
:1007000003FC20FA02F001FA03FE40EA0E0021FA8F
:1007100002F11444BDE600BF53B94AB9002908BF2D
:1007200000281CBF4FF0FF314FF0FF3000F074B9CC
:10073000ADF1080C6DE904CE00F006F8DDF804E038
:10074000DDE9022304B070472DE9F047089D044617
:100750008E46002B4DD18A42944669D9B2FA82F274
:1007600052B101FA02F3C2F1200120FA01F10CFAB0
:1007700002FC41EA030E94404FEA1C48210CBEFBE8
:10078000F8F61FFA8CF708FB16E341EA034306FB71
:1007900007F199420AD91CEB030306F1FF3080F000
:1007A0001F81994240F21C81023E63445B1AA4B24D
:1007B000B3FBF8F008FB103344EA034400FB07F7EF
:1007C000A7420AD91CEB040400F1FF3380F00A8130
:1007D000A74240F207816444023840EA0640E41B25
:1007E00000261DB1D4400023C5E900433146BDE8D1
:1007F000F0878B4209D9002D00F0EF800026C5E973
:10080000000130463146BDE8F087B3FA83F6002E8A
:100810004AD18B4202D3824200F2F980841A61EB02
:10082000030301209E46002DE0D0C5E9004EDDE720
:1008300002B9FFDEB2FA82F2002A40F09280A1EB08
:100840000C014FEA1C471FFA8CFE0126200CB1FB5D
:10085000F7F307FB131140EA01410EFB03F0884256
:1008600008D91CEB010103F1FF3802D2884200F2E3
:10087000CB804346091AA4B2B1FBF7F007FB101175
:1008800044EA01440EFB00FEA64508D91CEB040413
:1008900000F1FF3102D2A64500F2BB800846A4EB6E
:1008A0000E0440EA03409CE7C6F12007B34022FA59
:1008B00007FC4CEA030C20FA07F401FA06F31C4388
:1008C000F9404FEA1C4900FA06F3B1FBF9F8200C95
:1008D0001FFA8CFE09FB181140EA014108FB0EF0DB
:1008E000884202FA06F20BD91CEB010108F1FF3A2B
:1008F00080F08880884240F28580A8F10208614437
:10090000091AA4B2B1FBF9F009FB101144EA014144
:1009100000FB0EFE8E4508D91CEB010100F1FF34EF
:100920006CD28E456AD90238614440EA0840A0FB87
:100930000294A1EB0E01A142C846A64656D353D05D
:100940005DB1B3EB080261EB0E0101FA07F722FA81
:1009500006F3F1401F43C5E9007100263146BDE8AA
:10096000F087C2F12003D8400CFA02FC21FA03F30D
:10097000914001434FEA1C471FFA8CFEB3FBF7F08E
:1009800007FB10360B0C43EA064300FB0EF69E42B3
:1009900004FA02F408D91CEB030300F1FF382FD24C
:1009A0009E422DD9023863449B1B89B2B3FBF7F6F4
:1009B00007FB163341EA034106FB0EF38B4208D9CD
:1009C0001CEB010106F1FF3816D28B4214D9023E0E
:1009D0006144C91A46EA004638E72E46284605E72C
:1009E0000646E3E61846F8E64B45A9D2B9EB0208FD
:1009F00064EB0C0E0138A3E74646EAE7204694E78D
:100A00004046D1E7D0467BE7023B614432E73046BF
:100A100009E76444023842E7704700BF684620F0A7
:100A200007018D46FEE7000009480A4A0A49121AE2
:100A300008B519F0AFFE0948094A0021121A19F049
:100A4000B7FE08F073FC19F061FE00F037FAFEE71C
:100A5000000000242C060024C0DE0108300600241B
:100A6000203007247047704770477047014B0122C0
:100A70001A70704778AD002470474020704780207E
:100A8000704790F8100880F001007047704700230D
:100A900080F8083870470000F8B500240D460D486E
:100AA00016460D4902F016FFB44212D00948A700BD
:100AB000D5E9001202EB840201EB8401013403F05A
:100AC0004FF82B6805483B4493ED000A01F054FAB7
:100AD000EAE7F8BD08C0002404000024640E0024E6
:100AE00000294FF4806200F5826014BFFF210021CD
:100AF00019F05EBE10B5044640F6140119F07DF9F8
:100B0000204610BD10B5104C204604F0A9FF2379F3
:100B100003B1A36D0D4ABFF35B8F52E8001F194468
:100B200042E800100028F8D1BFF35B8F237B53B15C
:100B300094F824307F2B06D1054B0122BFF35B8F45
:100B40001A70BFF35B8F10BD84160024E8160024D2
:100B5000E416002470B51446A4B005464618B54204
:100B600025D06A4615F8011B04F1080004F0B6FF11
:100B70000028F4D0D4F8A820D4E92B03C31A48BF26
:100B80009B18013A9A42EAD0421CD4F8A430694634
:100B9000C4F8AC20902202FB003019F0FBFDD4E930
:100BA0002A239342DBD39B1AC4F8AC30D7E724B096
:100BB00070BD30B50C4685B00A25017D00922246F5
:100BC000CDE90135012306F077F8003818BF012080
:100BD00005B030BD036870B50E46DB6804461546A7
:100BE0009847B04205D823682046DB68984701380B
:100BF00086B223682046A6809B689847A84205D8FD
:100C0000236820469B689847013885B2E58070BD0F
:100C10001FB500238DF80D1003AA01798DF80C3053
:100C200064230093022305F0C5FF05B05DF804FBC3
:100C300090F81038F0B5044687B003F0FF057BBB91
:100C4000012300F1080604AF80F81038154B18682E
:100C50009B880490ADF81430013517F8011B30461D
:100C6000FFF7D6FF062DF7D140234FF4806204F53D
:100C7000826104F10E00637319F08CFD04F10D0222
:100C800040F201411046039208F030F8064B039AF7
:100C90003046009340F20143217B019605F0B2FFFC
:100CA00007B0F0BD58BD01088F0A00082DE9F041DA
:100CB0005E2988B004460E4600F118078DF817200B
:100CC00048D0A1F17303072B44D901250A230DF164
:100CD0001F085E22CDE90153CDF800802B4690F825
:100CE0002C10384605F0C0FF94F8303042465E21A3
:100CF000002818BF43F00103384684F830309DF8CF
:100D00001F308DF81E3000238DF81F302B46FFF763
:100D100050FF94F83030184384F8300001230DF16F
:100D2000170231463846FFF744FF94F83030184335
:100D300084F830005DB101230DF11E025E213846BA
:100D4000FFF737FF94F83030184384F8300008B0CC
:100D5000BDE8F0810025E1E784B038B505AD044673
:100D600085E80E009DF828302946037105F08AFEBB
:100D70002046AE21FFF74CFF2046D521FFF748FF64
:100D800020468021FFF744FF2046A821FFF740FFBF
:100D900020463F21FFF73CFF2046D321FFF738FFD5
:100DA00020460021FFF734FF20464021FFF730FFA7
:100DB00020468D21FFF72CFF20461421FFF728FF46
:100DC00020462021FFF724FF20460021FFF720FFC7
:100DD0002046A121FFF71CFF2046C821FFF718FF7E
:100DE0002046DA21FFF714FF20461221FFF710FFFB
:100DF00020468121FFF70CFF2046CF21FFF708FF97
:100E00002046D921FFF704FF2046F121FFF700FF1C
:100E10002046DB21FFF7FCFE20464021FFF7F8FECD
:100E20002046A421FFF7F4FE2046A621FFF7F0FE9E
:100E30002046AF21FFF7ECFEBDE8384004B0704714
:100E400000F580534FF41462F0B500F64816ADF685
:100E50004C1DD3F888320446314602A8019319F09C
:100E600099FCD4E9000107F049F8054608F014FAA6
:100E700020B140F64411284607F04EFF04F5945780
:100E80000435083794222946304619F073FC30B9EE
:100E900094369435BE42F5D10DF64C1DF0BD616817
:100EA000206801F6441206F03FFF01AB40F6441201
:100EB000D4E9000106F032FFEEE700002DE9F04F23
:100EC000D54DADF6942D0021D44803F03BFC4FF4F2
:100ED0004073284654AF2B80002650F8041B022490
:100EE00004F094FF05F1080004F0B0FE0E2003F0BA
:100EF00041FBADF830000D20B04603F03BFBADF8F0
:100F000034000A2003F036FB9FEDC50A0C99ADF8BA
:100F10003800C448DDE90D2304F074FDC24801F037
:100F200025FDC24BC7E9006310233B743C233B758E
:100F300057ABC7E9024693E807008DE80700BC48B5
:100F400097E80E00FFF708FF6421BA4801F0AFF8F8
:100F50000121B84800F0FCFF2146B04A3C46B648A3
:100F600002F0DAF9AD4803F027FBB44802F036FC92
:100F700020464646B2494FF07C5900F8018B08F1F3
:100F80000108424619F082FD94231022002103FB40
:100F9000067606F1140019F00BFC0223C4F8189031
:100FA00010222375002106F1240019F001FC04230E
:100FB000C4F828904FF0000984F824304FF07E5395
:100FC000C6F83C9004F1540EB8F1100FC6E90D9923
:100FD000A363C6F84890C6E910999A4E63640FCE91
:100FE000B44606F11806AEE80F005CF8043BCEF8F4
:100FF000003004F1680EBCE80F00AEE80F00DCF82A
:101000000030CEF80030904BE367904BC4F880304E
:1010100004F1840304F1940496E8070083E80700D0
:10102000A6D18B4E4FF41462394606F1080006F63D
:10103000481A19F0AFFB4FF41462394606F648100F
:1010400019F0A8FB49463068C6F8049006F056FF30
:10105000036806F580595A1E012A40F2E9810123EE
:101060003046C9F88832FFF7EBFE7A4F08F012F9E4
:10107000002403234FF001080FA9B0FBF7F0CDE9DE
:101080000F34471E40F2E733734811938DF84880C0
:1010900007F00AFD3946704807F080FD22466F4987
:1010A0006D4807F081FD22460421322003F084F9C7
:1010B000694807F061FD41F2873313A96848159329
:1010C0008DF85880CDE9138407F0EEFC394664486A
:1010D00007F064FD22466349614807F065FD22463A
:1010E00004211D2003F068F95D4807F045FD4E49D5
:1010F00017A801F02CFE9DED180A4F4801F0DAFF09
:101100009DED190A4C4801F0D1FF1B9B4A4807EEA0
:10111000903A0A93B8EEE70A02F002F89DF87810C8
:10112000454801F0F0FE9DF874209DF86810424893
:1011300001F016FF9DF870103F4801F0E1FE4A49AA
:10114000364803F031FA07F0ABFE0A90354F07F04E
:10115000A7FE464C804697F82430FF2B40F088814C
:1011600007F09EFE07EE900A97ED0A7A41F26F7241
:10117000F8EE677A77EEC77AFCEEE77A17EE903AE8
:10118000C4ED007A934240F25C813949294800F06D
:10119000E9FE0021274800F0DBFE264800F0A0FF12
:1011A000C82007F07FFE002007F07EFE314B0022B2
:1011B000BFF35B8F23ACD3F800B0BFF35B8FBFF3FB
:1011C0005B8F1A602C4BBFF35B8FBFF35B8F1649AD
:1011D0001F782046BFF35B8FBFF35B8F1A70BFF39E
:1011E0005B8FFFB201F0B3FDBBF1000F00F0B781E0
:1011F0000D4801F022FC002800F05E8159460A48A3
:1012000001F0DCFC17B1084801F0CAFB0649204692
:1012100001F09DFD32E000BF98170024EC16002479
:101220000000000084160024601700240108010952
:1012300058060024640E0024DCA8002408C0002402
:1012400052BF010860BD010800007A44CDCCCC3DFE
:101250007CAD002440420F00E0160024050B00087E
:1012600074AD00246D0A0008990A00084C06002499
:101270005CBF0108E8160024E41600246268D4ED7F
:10128000047A2F92A268F8EEE77A23783092E26926
:10129000D4F828B08DF8C820E2680B938DF8C920E7
:1012A000A269CDED317A8DF8CA2062698DF8CB2024
:1012B00072B6AD482FA901F010FF94215FFA8BFBA5
:1012C000AA4801FB0B6101F6481102F087F962B6EA
:1012D000C7B10B9B052B15D194F82030412794F80A
:1012E00024B01A463946A2480B93FFF7DFFC791C5D
:1012F00002375A469E48FFB2C9B2FFF7D7FC592FB2
:101300000B9BEED141469B4801F014FD9A4B1A7895
:101310005AB1002294492FA81A7001F017FF974B79
:101320002F9A1A609DF8C0201A71954B0A9A1B6873
:10133000A8EB02029A4210D38E49204601F007FD25
:101340002378002B40F0D38001218E4800F000FE6E
:101350008C4800F0C5FECDF828808B4804F0A0FD35
:1013600050B98A4804F072FC874804F09DFD884A11
:101370008849101D04F086FDD5E92B23D11A44BFFE
:10138000D5F8A800091800293FF4E0AE9A42F3D03E
:101390009022D5F8A4005A4301338118805CD5F817
:1013A000A82091F80880934291F809B0C5F8B030B0
:1013B00024BF9B1AC5F8B0300328DDD1B8F1770FF0
:1013C00040F0AF80BBF13F0F40F2AB8072496D48F7
:1013D00000F0C8FD00216B4800F0BAFD694800F03C
:1013E0007FFE72B66D48022403F0E2F86C48C9F83B
:1013F0008842FFF725FD6B49684803F0D5F862B6CF
:101400006949604800F0AEFD5E4800F069FE4FF4A7
:10141000167007F047FD57492FA801F098FC9DF87A
:10142000BC30002B7BD10121564800F091FDA3E791
:10143000011D4FF414625046C9F8883219F0AAF918
:1014400013E6B3F5FA6FFFF4B1AE58494D4800F01A
:1014500089FD00214B4800F07BFD4A4800F040FE2A
:10146000534B0022BFF35B8F1A70BFF35B8F9DE677
:101470002368A3F5FA63B3F57A6F1AD24D49414850
:1014800000F070FD00213F4800F062FD3D4800F093
:1014900027FEC82007F006FDBFF34F8F4649474B94
:1014A000CA6802F4E0621343CB60BFF34F8F00BF02
:1014B000FDE70023236079E65B46002B0FDCBBF1E0
:1014C000000FA8BFABEB0B0BBBF1000F47D04FF0E9
:1014D000FF3128480BF1010B01F0B9FAF4E70121C3
:1014E00024480B9301F0B3FA0B9B013BE5E7022183
:1014F000244800F02DFD0DF1980CCDF824A06F4686
:10150000BCE80F000FC7BCE80F000FC7DCF80030C5
:101510001C483B6094E80E0001F046F918E72146AC
:1015200082E714492FA801F012FC399C72B6942767
:10153000E4B22FA807FB04643A4604F64814214697
:1015400019F028F92FAB5A464146084802F0DEF957
:101550003A462FA9204619F01DF962B60CE7002F74
:101560007FF451AECEE600BFDCA8002408C0002402
:10157000F8A800246017002478AD0024040000249B
:101580000C000024640E00249C170024A0170024E3
:1015900098170024550B000888BF0108EC1600249A
:1015A0007CAD0024990A000892BF01086CBF0108B5
:1015B000E41600247BBF010800ED00E00400FA05FA
:1015C0007F2910B511D83F2A0FD8D40802F007029E
:1015D00001EBC4110124084404FA02F290F9081442
:1015E00052B21BB1114380F8081410BD21EA020168
:1015F000F9E7083008B5FFF7E3FF08BD2DE9F04F24
:101600000E4685B0044604A9A6F120059DF838B021
:1016100001E90C00EBB25E2B04D90026304605B080
:10162000BDE8F08F03689DF80870DB689DF809A09D
:101630009847A3883B449842EFDB236820469B6889
:101640009847E38853449842E7DB0AFB05F54FF0DF
:1016500000096D00CA451DD9039B4FF000085B5B74
:1016600001934745A188E28810D9019B41444A442F
:1016700004F1080003FA08F308F101081B044CBF49
:101680005B468BF00103FFF79BFFEAE709F10109D5
:101690000235DFE7A1882046E288394489B2FFF7A6
:1016A00099FABBE7F0B585B006464C1E02AD9DF831
:1016B000287085E80C0014F8011F41B100973046EE
:1016C00095E80C00FFF79AFF21788842F3D008468E
:1016D00005B0F0BD2DE9F043914685B0044698462B
:1016E00008464B46DDE90C52A3EB090C13F8011B2D
:1016F0000029F9D198F8006098F8011016FB0CF653
:101700000F4636B226EAE676082A76D8DFE802F0F7
:101710006B05270B35453C536100B5F90020B5F941
:101720000230228053E02B88A988B5F902200B44AF
:1017300062809B1B2380A680E780628821880390BB
:10174000FFF748FA9DF8383049460398009398E827
:101750000C00FFF7A7FF204605B0BDE8F083B5F900
:101760000430B5F9021003EBD3722B88618003EBD0
:101770006203A3EB66032380DDE76B88B5F90020E5
:10178000ED882B445B1ACCE76B88EA8813445B1A1C
:101790002A88A9880A44921BC3E76B88EA88134405
:1017A0005B1AB5F9042002EBD2712A8802EB6102C0
:1017B000A2EB6602B5E7B5F90630B5F9001003EB08
:1017C000D3726B88218003EB6203A3EB5703638022
:1017D000B1E7B5F9063003EBD3726B8803EB620314
:1017E000A3EB5103D4E7B5F9063003EBD3726B8852
:1017F00003EB6203A3EB5103D3E700232380638051
:10180000A380E38099E700002DE9F04F2DED068BD2
:1018100087B01C4603929DF86030DDE916289FEDE5
:10182000B64BB8F1000F0493BCBF4244C8F10008A6
:1018300007EE902A02EB0803B8EEE76B07EE103ACA
:101840009FEDAF5B26EE046BB8EEC77BCDE90101DF
:1018500086EE050B27EE047BF7EEC08B87EE050BBB
:10186000F7EEC09BB0EE680A18F0CEFA07EE904A89
:10187000B8EE67AA2AEE008AB0EE680A18F0F8FD02
:1018800060EE4A8AB0EE690A18F0BEFA2AEE009AB3
:10189000B0EE690A18F0ECFD20EE4AAA39EE487A5B
:1018A000049B7AEE687A67EEA77AE7EE077AB0EEE5
:1018B000007AF4EEC77AF1EE10FA08D5B8F1B40F59
:1018C00000F3CA8007B0BDEC068BBDE8F08F0022A4
:1018D00001276542C4F101040026BB46BA466400F4
:1018E000B9460492049A002A6ED107EE906A7242B9
:1018F000B8F1B40FF8EEE76A07EE905AB8EEE77A5F
:1019000007EE902AC5F1000266EE884AF8EEE77A03
:1019100006EE102A27EE285A66EE896AB8EEC66AE5
:1019200067EE885A27EE0A7A66EE283A67EE897AD9
:1019300026EE0A6A34EEE34A74EEC54A35EEC55A1D
:10194000B5EEC04A75EEE35A40F39180F1EE10FA1D
:1019500000F1848036EEC64AB5EEC04AF1EE10FAC8
:10196000CCBF4FF001094FF00009F5EEC04AF1EE8F
:1019700010FA76D476EEC76AF5EEC06AF1EE10FA88
:10198000CCBF4FF0010A4FF0000AB5EEC05AF1EE9D
:1019900010FA69D437EEC77AB5EEC07AF1EE10FAD4
:1019A000CCBF4FF0010B4FF0000BF5EEC05AF1EE3B
:1019B00010FA00F19B8077EEC67AF5EEC07AF1EE70
:1019C00010FACCBF01270027B9F1000F09D0039A04
:1019D00002990198B218491B05930830FFF7F0FDF2
:1019E000059BBAF1000F09D0039A02990198B21829
:1019F000691805930830FFF7E3FD059BBBF1000F65
:101A000009D0039A02990198921B6918059308302E
:101A1000FFF7D6FD059B4FB1039A02990198921BDF
:101A2000491B05930830FFF7CBFD059BA6425FDB02
:101A3000013604EB4602EE4202F1010202D1A54258
:101A400002DB0024A54255DA013502EB4502541CA5
:101A5000002D7FF747AF35E7012239E74FF0010945
:101A600083E74FF0010A90E74FF0010B9DE7F1EE9D
:101A700010FA32D536EEC64AB5EEC04AF1EE10FA8B
:101A8000CCBF4FF001094FF00009F5EEC04AF1EE6E
:101A900010FA25D576EEC76AF5EEC06AF1EE10FAB7
:101AA000CCBF4FF0010A4FF0000AB5EEC05AF1EE7C
:101AB00010FA18D537EEC77AB5EEC07AF1EE10FA03
:101AC000CCBF4FF0010B4FF0000BF5EEC05AF1EE1A
:101AD00010FA3FF570AF002776E7DDF81090D4E7F5
:101AE0004FF0000AE1E74FF0000BEEE701276BE74C
:101AF0002246A7E71446ABE77A008BFCFA2109409F
:101B000000000000008066402DE9F04F1F4685B0C0
:101B100014460830DDF838A0A7EB01089DF83C30EA
:101B20000D46AAEB0209B8F1000F0393B8BFC8F144
:101B30000008B9F1000F0290B8BFC9F10009924541
:101B40008CBF01224FF0FF328F428CBF4FF0010B50
:101B50004FF0FF3B394601925246FFF731FDA8EBAB
:101B60000906DDE90203BD4201D1544516D02946DC
:101B7000224603930290FFF723FDC9F10001720092
:101B8000B1EB460FBCBFA6EB09065D449045DDE90D
:101B90000203E8DD019A46441444E4E705B0BDE8D9
:101BA000F08F2DE9F3479DF830C005460C461646E8
:101BB0001F46DDF828809DF82C90BCF1000F10D056
:101BC000A7422AD3B246D04509D352464B462146B6
:101BD00005F108000AF1010AFFF7F2FCF3E701340E
:101BE000EEE7CDE90029FFF78FFF3B463246394645
:101BF0002846CDE90089FFF787FF2346424639464C
:101C00002846CDE90089FFF77FFF2346424621465B
:101C10002846CDE90069FFF777FF02B0BDE8F087FD
:101C20002DE9F041994F0024DFF8CC824FF60B7577
:101C30006FF0F4139649424638467C613C623C673B
:101C4000944EC7E90043C7E90233C7E90A54C7E91C
:101C50000F54C7E91654C7E90C44C7E91144C7E952
:101C6000184418F0C5F88C4842468C49C0E9045421
:101C7000C0E90B54C0E91054C0E90644C0E90D4462
:101C8000C0E9124418F0B4F8854D864B4246AC606A
:101C900028462B6085F81048834918F0A9F8294692
:101CA000824D0122824800F02BF9284601F072F89B
:101CB00042468049284618F09BF87F4A0023214677
:101CC000C6F8C42006F59470C6F8CC2006F5C025E9
:101CD000C6F8D020C6F8D420C6F8F420C6F8FC20F8
:101CE000C6F80021C6F804211022C6F8BC30C6F898
:101CF000C030C6F8C830C6F8D830C6F8DC30C6F8F0
:101D0000E030C6F8EC30C6F8F030C6F8F830C6F867
:101D10000831C6F80C31C6F81031A6F8E840A6F82C
:101D2000184118F045FD2146102206F59C7018F068
:101D30003FFD2146102206F5A47018F039FD21461A
:101D4000942205F5556018F033FD5C4A05F668519C
:101D5000DFF8A8C1D36B05F6AC5E5948C5F8513D14
:101D6000136C0222C5F8594DC5F8553D4FF07E530E
:101D700085F8642D85F8742D05F678520B6005F50D
:101D80005A61136005F68852C5F85D4D136005F67B
:101D90009452136005F69C5213604FF07C520A6017
:101DA00005F6A451C1F800C005F6A85108604549E0
:101DB000CEF8001005F55B6ECEF8002005F6B45E97
:101DC000CEF8003005F6B85ECEF800C005F6BC5C73
:101DD000CCF8000005F55C60016005F6C4513046A2
:101DE0000A6005F6C8510B6005F6CC5336491960F8
:101DF00005F55D6335491A6005F6D453344A1A6017
:101E000005F6D853334A05F6DC551A604246324B84
:101E10002B6017F0EDFF31484FF44073304A314DDD
:101E20003149C0F8B040C0E9003440F20F73C0E956
:101E3000272300F1B4034246C0F8A43040F2011356
:101E4000C0E92A3417F0D4FF21464FF4146205F19B
:101E50000800C5E9007418F0ABFC21464FF4146289
:101E600005F6481018F0A4FC05F580551F484246B9
:101E70001F49C5F88842046017F0BAFF1D48424662
:101E80001B490460BDE8F04117F0B2BFEC16002416
:101E9000690A000808C0002484160024670A0008A4
:101EA00050060024A8BF0108790A0008DCA8002415
:101EB000640E0024D12E0008000080BF58BD010828
:101EC000CDCCCC3DCDCC4C3F00007A446B0A000811
:101ED0009A99993E00A08C469A99593F98170024E8
:101EE0000080707F7CAD00248D0A0008E01600247D
:101EF000650A000874AD0024000000240AD7233CC2
:101F0000F8B580230D4601270021C0F808380446A3
:101F10000E4B1646C0F80C184FF48062C0F8143807
:101F20000830C0F8147818F043FC4FF480620021A8
:101F300004F5816018F03CFC1423204684F81068F6
:101F400025602771C4F81838F8BD00BFE0BF01084C
:101F500038B5044600680D46002103681B699847A0
:101F6000257138BD39B1C0F81418017919B9006864
:101F700003681B6918477047D0F80C3800EB8302E0
:101F8000013382ED020A5A42DBB2D2B258BF534249
:101F9000C0F80C387047000090F8103830B54BB3DB
:101FA000D0F80C38D0F8082801339D189D4221DD67
:101FB0005942DAB203F10103C9B258BF4A4200EBF9
:101FC0008201D1ED027AF5EEC07AF1EE10FAEDD58C
:101FD0005C42D9B2E4B258BF614200EB8101D1ED5D
:101FE000027AF5EEC07AF1EE10FADFDB034B1A60ED
:101FF000104630BD014B1A68FAE700BFF4CD062445
:102000002DE9F3410546202200210068FEF7E2FD9C
:102010002868002103681B6998472846FFF7BCFF22
:10202000002107460646D5F8083801F101083B446F
:10203000B34239DD7242D5F8183828684FF0010CE8
:10204000D2B207EE903AF3B206F1010658BF5342FE
:10205000F8EEE77AF4B205EB830393ED027A73426C
:1020600027EE877ADBB258BF5C420368BDEEC77AC1
:1020700005EB840417EE102A94ED027ACDF804C023
:1020800067EE877AC2F1200282F30602FDEEE77A5C
:1020900017EE904AC4F1200484F3060400949C696E
:1020A0004346A0474146BEE702B0BDE8F081C0F814
:1020B0001818704737B50022044600681146FEF72D
:1020C00089FD20680121054B02680091D4F814189D
:1020D000956A0CCBA84703B030BD00BF6000002458
:1020E000037910B504463BB1012B08D02068036882
:1020F000BDE810401B6B1847FFF7DCFFF6E7FFF762
:102100007FFFF3E72DE9F341044600680F46002105
:1021100003680126344D1B69984700222068114648
:10212000FEF758FD2068314903680096D3F82880EF
:1021300095E80C00C04720680D220A21FEF74AFDF1
:1021400020682B4903680096D3F8288095E80C0096
:10215000C047206817220A21FEF73CFD2068254968
:1021600003680096D3F8288095E80C00C0472068E3
:1021700021220A21FEF72EFD20681F4903680096E0
:10218000D3F8288095E80C00C04720682B220A214C
:10219000FEF720FD2068194903680096D3F82880CF
:1021A00095E80C00C047206835220A21FEF712FD91
:1021B0002068134903680096D3F8288095E80C003E
:1021C000C0470A22206800217A430D3292B2FEF7FE
:1021D00001FD20680B49036800969C6A95E80C0095
:1021E000A04702B0BDE8F08168000024ECBF010800
:1021F000FABF010806C001080DC0010815C001089A
:1022000027C001082CC001082DE9F34104460068ED
:102210000E460021036801273E4D1B6998470022A6
:1022200020681146FEF7D6FC20683B4903680097FA
:10223000D3F8288095E80C00C047042E4FF00D021B
:102240004FF00A0120685BDCFEF7C4FC20683349CC
:1022500003680097D3F8288095E80C00C047172240
:102260000A212068FEF7B6FC20682D490368009714
:10227000D3F8288095E80C00C04721220A21206865
:10228000FEF7A8FC2068274903680097D3F8288048
:1022900095E80C00C0472B220A212068FEF79AFC23
:1022A0002068214903680097D3F8288095E80C003E
:1022B000C04735220A212068FEF78CFC20681B49A4
:1022C000036800979F6A95E80C00B84705222068CC
:1022D000002196FBF2F202EB8202B21A0A26724346
:1022E0000D3292B2FEF776FC206801221049036895
:1022F00000929C6A95E80C00A04702B0BDE8F0810E
:10230000FEF768FC20680B49036800979F6A95E810
:102310000C00DAE7680000242EC001083EC0010866
:1023200044C001084AC0010855C00108B5C00108F1
:102330002CC0010861C001082DE9F3410446006882
:102340000E460021036801272D4D1B699847002286
:1023500020681146FEF73EFC20682A490368009772
:10236000D3F8288095E80C00C04720680D220A2188
:10237000FEF730FC2068244903680097D3F82880D2
:1023800095E80C00C047206817220A21FEF722FCBE
:1023900020681E4903680097D3F8288095E80C0050
:1023A000C047206821220A21FEF714FC2068184942
:1023B00003680097D3F8288095E80C00C047206890
:1023C0002B220A21FEF706FC2068124903680097B9
:1023D000D3F8288095E80C00C0470A222068002125
:1023E00072430D3292B2FEF7F5FB20680A4903688A
:1023F00000979C6A95E80C00A04702B0BDE8F08108
:102400006800002466C0010871C001087BC0010893
:1024100086C0010861C001082CC001082DE9F34104
:10242000044600680E46002103680127264D1B69FB
:102430009847002220681146FEF7CCFB206823490C
:1024400003680097D3F8288095E80C00C0472068FF
:102450000D220A21FEF7BEFB20681D490368009784
:10246000D3F8288095E80C00C047206817220A217D
:10247000FEF7B0FB2068174903680097D3F828805F
:1024800095E80C00C047206821220A21FEF7A2FB34
:102490002068114903680097D3F8288095E80C005C
:1024A000C0470A222068002172430D3292B2FEF723
:1024B00091FB20680949036800979C6A95E80C0025
:1024C000A04702B0BDE8F081680000248DC001087B
:1024D0009CC00108ADC0010861C001082CC0010802
:1024E0002DE9F341044600680E46002103680127E8
:1024F000264D1B699847002220681146FEF76AFBAB
:102500002068234903680097D3F8288095E80C00D9
:10251000C04720680D220A21FEF75CFB20681D4998
:1025200003680097D3F8288095E80C00C04720681E
:1025300017220A21FEF74EFB20681749036800970F
:10254000D3F8288095E80C00C047206821220A2192
:10255000FEF740FB2068114903680097D3F82880F4
:1025600095E80C00C0470A222068002172430D3212
:1025700092B2FEF72FFB20680949036800979C6A16
:1025800095E80C00A04702B0BDE8F0816800002487
:10259000C0C00108D6C00108E3C0010861C001083D
:1025A0002CC001082DE9F041044600680F460021C7
:1025B000036801262DED028B1B6986B0B0EE408AC0
:1025C0009847002220681146FEF704FB20681F4B45
:1025D00002681F490096956A0CCBA84720680C2218
:1025E0000021FEF7F7FA20681A4D39460368009675
:1025F000D3F8288095E80C00C047FDEEC87A16494C
:1026000002A8B8EEE70A17EE902A38EE408A9FED4E
:10261000130A28EE008ABDEEC87A17EE103A002B96
:10262000B8BF5B4218F032FA206823220021FEF77F
:10263000D1FA206802A9036800969C6A95E80C000C
:10264000A04706B0BDEC028BBDE8F0816800002415
:10265000F0C0010860000024F6C001080000C84274
:102660002DE9F04305460068984687B003680E469A
:10267000002114461B694FF0010998470022286881
:102680001146FEF7A7FA2868394B02683949CDF898
:102690000090976A0CCBB8470F2200212868FEF7FC
:1026A00099FA2868344F31460368CDF80090D3F882
:1026B000289097E80C00C84730493046FDF710FED7
:1026C00040B90C2394FBF3F203FB12442C4B53F858
:1026D000241015E02B493046FDF702FE38B90722D9
:1026E000294B94FBF2F2C2EBC202A41AEFE727498E
:1026F0003046FDF7F5FDF0B9B8F1000F14D04146B2
:1027000002A818F0E3F9286826220021FEF762FAF1
:102710002868012202A9036800929C6A97E80C00CD
:10272000A04707B0BDE8F083631C194A102102A836
:1027300018F078F9E7E717493046FDF7D1FD28B9D9
:102740002246154902A818F0A1F9DCE713493046E2
:10275000FDF7C6FD40B9634204F0030403F0030330
:1027600058BF5C420E4BB2E722460E49EAE700BF73
:1027700068000024FEC001086000002407C10108B1
:10278000E4C101080CC1010814C2010812C101080A
:1027900052BF010819C1010824C101082AC101085A
:1027A00030C2010859BF010884B010B402AC84E8FB
:1027B0000E009DF808400E9B013C9DF809100D9AF3
:1027C000102C00F2B680DFE804F009223FA2546525
:1027D0008A828E92969A9E767EB1AE0002290ED0A3
:1027E00003290ED004290ED006290ED0122914BFB9
:1027F000002104215DF8044B04B0FFF783BC0021E5
:10280000F8E70121F6E70221F4E70321F2E70829BE
:1028100010D0072910D0092910D00A2910D0052975
:1028200010D0122914BF002105215DF8044B04B01B
:10283000FFF7EABC0021F8E70121F6E70221F4E7FF
:102840000321F2E70421F0E70B290CD00C290CD06E
:102850000D290CD0122914BF002103215DF8044B6F
:1028600004B0FFF769BD0021F8E70121F6E7022176
:10287000F4E70E290AD00F290AD0122914BF00212B
:1028800002215DF8044B04B0FFF7C8BD0021F8E752
:102890000121F6E711290AD010290AD0122914BF04
:1028A000002102215DF8044B04B0FFF719BE00219E
:1028B000F8E70121F6E700230A9A20495DF8044B66
:1028C00004B0FFF7CDBE00230B9A1D49F6E79DED3E
:1028D000030A1C495DF8044B04B0FFF763BE9DED8D
:1028E000040A1949F6E70023069A1849E6E7002387
:1028F000079A1749E2E70023059A1649DEE7002305
:10290000089A1549DAE70023099A1449D6E70C9A80
:102910003BB10F2A05DC942101FB0233013310493E
:10292000CCE70023FBE700230E49C7E700230E494D
:10293000C4E75DF8044B04B0704700BF36C101081E
:1029400045C1010852C1010858C1010819C1010857
:102950002AC1010807C101080CC101085EC10108B4
:1029600012C1010865C101086EC1010810B5044615
:1029700006F096FA094A00236063A2604FF07E5287
:102980002380E26002222361E361E362C4E905235C
:10299000042201232262C4E9093310BD0000484229
:1029A00010B5044606F07CFA237860631BB940F248
:1029B0000123238004E0DA1F032A02D802232370B4
:1029C00010BDA3F10B02022A01D80323F7E7A3F1FC
:1029D0000E02012A01D80523F1E7A3F11002012A12
:1029E00001D80623EBE7042B01D10123E7E7627846
:1029F000122A11D1012B01D10023DAE79A1E012AF4
:102A000001D9062B03D1012222706370D8E7052B70
:102A1000D6D140F20253CCE7022A227001D108231A
:102A2000F3E7032A01D10B23EFE7052A01D10E2397
:102A3000EBE7062AC4D11123E7E70078C31F0A2B6E
:102A400003D9031F5842584170470120704738B5D9
:102A500004460D4606F024FA22786063531E052BC7
:102A600026D8DFE803F0033056257084002D637804
:102A700014DD022B02D10323637019E0032B01D173
:102A80000423F9E7042B01D10623F5E7062B01D136
:102A90001223F1E7122B0BD10223EDE7122BF3D017
:102AA000062BEDD0042BE6D0032BF5D0022BEFD074
:102AB000D31F032B6FD802236370A2F11003012BE5
:102AC00077D806236CE0002D637815DD082B01D143
:102AD0000723D1E7072B01D10923CDE7092B01D12A
:102AE0000A23C9E70A2B01D10523C5E7052BCFD05F
:102AF000122BDDD10823BFE7082BC9D0072BF9D053
:102B0000092BE5D00A2BE7D0052BE9D0122BCFD12A
:102B1000EAE7002D63780DDD0B2B01D10C23ABE729
:102B20000C2B01D10D23A7E70D2BB1D0122BBFD158
:102B30000B23A1E70B2BABD00C2BF9D00D2BEDD039
:102B4000122BB5D1EEE7002D637809DD0E2B01D1F4
:102B50000F2391E70F2B9BD0122BA9D10E238BE7CC
:102B60000E2B95D00F2BF9D0122BA1D1F0E7002D11
:102B7000637809DD112B01D110237DE7102B87D05D
:102B8000122B95D1112377E7112B81D0102BF9D07F
:102B9000122B8DD1F0E7A2F10B03022B03D80323F4
:102BA0006370607838BDA2F10E03012B85D8052330
:102BB000F6E7042AF5D10123F2E7000038B5044610
:102BC0000D4606F06DF923786063043B0D2B1BD88E
:102BD000DFE803F0981A1A2607434F5B6773808C6F
:102BE000A4A407EE905AB1EE047AF8EEE76AD4EDA9
:102BF000027AE6EE877AB7EE007AF4EEC77AF1EE63
:102C000010FA02D584ED027A38BD9FED487AF4EED1
:102C1000C77AF1EE10FA77FE277AC4ED027AF3E76D
:102C200007EE905A9FED427AF8EEE76AD4ED037A08
:102C3000E6EE877AF4EEC77AF1EE10FA02D584ED6B
:102C4000037AE1E7B0EE007AF4EEC77AF1EE10FA1B
:102C500077FE277AC4ED037AD6E76169691802D551
:102C600000236361D0E7142901DC6161CCE7142300
:102C7000F7E7A169691802D50023A361C4E7032916
:102C800001DCA161C0E70323F7E72169691802D5D8
:102C900000232361B8E70B2901DC2161B4E70B2392
:102CA000F7E7E169691802D50023E361ACE706297B
:102CB00001DCE161A8E70623F7E7216A0D44002D56
:102CC00002DC012323629FE7082D01DC25629BE7DC
:102CD0000823F7E7616A691802D50023636293E766
:102CE000FF2901DC61628FE7FF23F7E7A16A69181A
:102CF00002D50023A36287E7FF2901DCA16283E7F5
:102D0000FF23F7E7E16A691802D50023E3627BE756
:102D10000F2901DCE16277E70F23F7E7216B6D18DC
:102D20004ABF0023256323636EE700BF0000C8424B
:102D3000CDCCCC3D03784BB1436B41F28732CB1AFB
:102D4000934282BF4FF4807341630380704770B534
:102D50000B880C460646054624F8043F0FCC0FC5E9
:102D60000FCC0FC594E80F0085E80F00304670BD0A
:102D700030B50C4685B00A25017D00922246CDE98A
:102D80000135012303F070FF003818BF012005B0A2
:102D900030BD0000F8B5012104464A4A00255A23F7
:102DA00004F57376C2600375C0E9015140F2032057
:102DB00084F82C3084F848300323626284F8503061
:102DC0002083208604F15400C4E90751C4E90F129E
:102DD000C4E90D5501F052F804F5847001F04EF885
:102DE00004F5DE7001F04AF804F51C7001F046F8B5
:102DF00004F5497000F0F2FF4FF0804284F83D5333
:102E00004FF0FF33C4F848234FF07E522E4DC4F8E4
:102E10004C2340F20472C4F840332F460023A4F838
:102E200050232A4AC4F84433C4F85433C4F858230E
:102E3000C4F85C23C4F86033C4F864330FCF0FC602
:102E400097E8070005F11C0786E807000FCF04F597
:102E50007A760FC697E8070005F1380786E807007D
:102E60000FCF04F204460FC697E8070005F1540798
:102E700086E807000FCF04F584660FC697E80700C1
:102E800005F1700786E807000FCF04F23C460FC635
:102E90003B6805F18407B435336004F58A660FCFCB
:102EA0000FC60FCF0FC697E80F0086E80F000FCDB3
:102EB00004F590660FC695E8030086E803002046F7
:102EC000F8BD00BF01080109A4BD01080000484287
:102ED00010B5044600F5497000F08EFF04F51C7033
:102EE00001F026F804F5DE7001F022F804F5847094
:102EF00001F01EF804F1540001F01AF8204610BD4C
:102F000080F83C1370474FF0FF3380F85013C0F83F
:102F10004033704770B5044600F55A7600252DED14
:102F2000028B94F85133AB4217DB07EE905A07EE51
:102F3000103A94EDD58A0135F8EEE77AD4EDD78AC8
:102F4000B8EEC70AD4EDD30A87EE800A17F0FCF872
:102F5000A8EE808AA6EC018AE3E7BDEC028B70BD87
:102F600038B500EE901A044600F56775062A00F29F
:102F70008580DFE802F0042938475665740007238E
:102F80002A4600F57A7180F8513300F5737353F8CF
:102F9000040B8B4242F8040BF9D1F2EE087AF8EEFA
:102FA000600AB0EE000AC0EEA70A17F0CDF894F858
:102FB000512300239A4270DDD5ED007A013367EE8C
:102FC000807AE5EC017AF5E707232A4600F204410E
:102FD00080F8513300F57A7353F8040B8B4242F8B2
:102FE000040BF9D1D9E707232A4600F5846180F85C
:102FF000513300F2044353F8040B8B4242F8040BA4
:10300000F9D1CAE707232A4600F23C4180F8513340
:1030100000F5846353F8040B8B4242F8040BF9D19A
:10302000BBE705232A4600F58A6180F8513300F298
:103030003C4353F8040B8B4242F8040BF9D1ACE744
:103040000C232A4600F5906180F8513300F58A631D
:1030500053F8040B8B4242F8040BF9D19DE7062389
:103060002A4600F5936180F8513300F5906353F8D8
:10307000040B8B4242F8040BF9D18EE707232A4652
:1030800000F57A7180F8513300F5737353F8040B2F
:103090008B4242F8040BF9D17FE74FF0FF33204613
:1030A000C4F84033BDE83840FFF734BF80EDD30AA1
:1030B000FFF730BFD0EDD57AF4EEC07AF1EE10FA1A
:1030C000A4BFB7EE000A37EE800A80EDD60A30EED4
:1030D000670A80EDD70AFFF71DBF38B50D4691EDA1
:1030E000000A0446FFF7E6FF6B682046C4F84C333D
:1030F000FFF710FFAB682046C4F84833FFF70AFF1C
:103100002B7B204684F850334FF0FF33AA7BC4F862
:103110004033697BFFF724FFEB7B84F83C3338BDF9
:1031200080EDD20AFFF7F6BE13B5044601230DF178
:1031300007021830FFF71CFE94F83030184384F86B
:1031400030009DF8070002B010BD0000F0B501F19D
:1031500034070C460223064638462DED028B83B019
:1031600091EDD18A00210DF10602FFF701FE94F8DE
:103170004C3094F83D231843BDF8063013F001039A
:1031800084F84C0000F0BE8012B9012384F83D336E
:103190001E2104F11C00FFF7C7FF054602230DF1B5
:1031A000060204213846FFF7E3FD94F84C30AD00E9
:1031B0001843BDF80630ADB200EE103A94F8503026
:1031C00007EE905A84F84C00B8EE400A04F54970B6
:1031D000B8EE677A77EE407A00EE103AB8EE400A21
:1031E00037EEC00A84EDD80A00F00EFE94F83C33A6
:1031F000012B6CD0032B04D0002B6BD104F5DE70B7
:1032000001E004F5847000F0ADFED4F8403394ED95
:10321000D57A84EDD90A002BD4EDD97ADFED3C6A5A
:10322000C7FE877A94EDD67A94F8511337EE667A12
:10323000C7FEC77AC4EDD97A16DB8B4214DADFED0C
:10324000356A04EB830394EDD76A86EE267AD4EDD3
:10325000D26A27EE267AD3EDDA6A76EEC76AF4EE02
:10326000E76AF1EE10FA38D9481E04F55B720023C4
:103270008B4227DA1546B2EC017A55ED016AF4EE7D
:10328000E76AF1EE10FA04D8B4EEE77AF1EE10FA3C
:1032900006DC984234D1B4EEE77AF1EE10FA2FD87A
:1032A00094F8501301228A4008EE102A04EB83029E
:1032B000B8EEC88AD2EDE77AC4F8403328EE278A00
:1032C00084EDD18A94F83D3386ED008A12E004F54E
:1032D0001C7098E704F1540095E7D3EDDB6A37EEF4
:1032E000267AB4EEE77AF1EE10FABDDD94F83D33BC
:1032F00086ED008A3046337103B0BDEC028BF0BD21
:103300000133B5E7002ADDD084F83D33DAE700BFAA
:103310006F12833A0000C8422DE9F04190B00123BA
:10332000026004460AAE836000F11C05021D00F134
:10333000140C33461068083252F8041C37466245B4
:1033400003C73E46F6D1106838609288BA802A4694
:103350000EAF1E46083203CEBE4242F8080C42F8B9
:10336000041C3346F5D130682F460DF1100C106067
:10337000B3886E4693800FCF0FC63B68E769336012
:103380006E4604F1380300973246083303CA62459B
:1033900043F8080C43F8041C1646F5D112780026B1
:1033A00005A904F134001A701023059701278DF840
:1033B0002430BDF808300896ADF81830BDF80A3052
:1033C0000797ADF81A3003F05DFB94F84C30632298
:1033D0008021B04218BF43F00103284684F84C30E6
:1033E000FDF764FC384605F05DFD32465E21284657
:1033F000FDF75CFC5D212846FFF796FE242864D18A
:1034000094F83080412694F831703146424628467F
:10341000FDF74CFC711C02363A46C9B22846F6B29A
:10342000FDF744FC592EF0D101222B212846FDF74F
:103430003DFC01222C212846FDF738FC0E222D21CF
:103440002846FDF733FC00222E212846FDF72EFCEE
:1034500001222F212846FDF729FC0522302128468C
:10346000FDF724FC012231212846FDF71FFC002234
:1034700032212846FDF71AFC002233212846FDF7A9
:1034800015FC002234212846FDF710FC00223521CE
:103490002846FDF70BFC00225B212846FDF706FCC1
:1034A00010225C212846FDF701FC20225D212846E0
:1034B000FDF7FCFB8C225E212846FDF7F7FB94F814
:1034C0004C60002384F84C3086B12068012101F063
:1034D00077F82068642101F063F82068002101F08A
:1034E0006FF86421206801F05BF8EEE725460121C2
:1034F00055F8540B01F064F80221284600F019FD3C
:1035000004F58470032100F014FD314604F5DE70EB
:1035100000F00FFD012104F51C7000F00AFD04F518
:10352000497000F06AFC0023C4F86033C4F86433C7
:10353000042384F85033054BC4F844334FF0FF3371
:10354000C4F8403310B0BDE8F08100BF0000DC4398
:10355000B7EE007A00234FF07C5280ED050A03613C
:10356000C7EE007A9FED0A0AC36180ED020A42604D
:10357000C26010B50446C0ED067A00F005FF0023D6
:1035800084ED080A237040F20113A38510BD00BF2B
:103590000000C842D0ED040ADFED0A7A10B50446F7
:1035A000C0EEA70A80ED020AB0EE000A16F0CCFDCC
:1035B000D4ED027A204620EE270A00F0E5FE84EDE5
:1035C000080A10BD0000964410B5044680ED020ABA
:1035D00016F052F984ED070A10BD0000F0B500F5B1
:1035E000C0250446942205F6BC4005F5506705F653
:1035F00004562DED028B83B0DFED758A17F0CAF803
:1036000095F8D03CB7EE008A94ED020A082B2046CC
:1036100028BF0023237005F6D4431B68636005F6BA
:10362000D84393ED007A05F6DC4387FE287A87FEBF
:10363000487A84ED037A1B682361FFF7ABFF95F8A6
:10364000E03C94ED0E0A04F13000082B28BF002363
:1036500084F8303005F6E4431B68636305F6E843FD
:1036600093ED007A05F6EC4387FE287A87FE487AC8
:1036700084ED0F7A1B682364FFF78CFF95F8F03C0C
:1036800004F18C00082B019028BF002384F86030DF
:103690003B68C4F8903096ED000AFFF795FF95F867
:1036A000FC3C0198082B28BF002384F88C303B6831
:1036B000C4F8903096ED000AFFF786FF9FED457A3B
:1036C00005F60C5304F1BC000121D3ED007A05F599
:1036D0005163C7FEA87AC7FEC87A67EE877A019061
:1036E000C4ED2E7A93ED000A15F0D8FD05F61453BB
:1036F0000198022193ED000A15F0D0FD05F618534C
:103700000198D3ED007AF4EEE87AF1EE10FA59D987
:10371000F4EE487AF1EE10FA78FE277A05F61C539B
:10372000C4ED2F7A042193ED000A15F0B7FD05F6DC
:10373000245304F1EC00012193ED000A019015F0EF
:10374000ADFD05F628530198022193ED000A15F00E
:10375000A5FD05F62C530198D3ED007AF5EEC07A5D
:10376000F1EE10FA31D9F4EE487AB7EE007AF1EEC4
:1037700010FA77FE277A05F55363C4ED3B7A0421EE
:1037800093ED000A15F08AFD05F63C5304F58E70A2
:1037900093ED000A019016F05BF805F63853019896
:1037A00093ED000A15F0F6FF05F6445305F648556B
:1037B0001B68C4F87C312B68C4F8783103B0BDECC9
:1037C000028BF0BDDFED047AA8E7DFED037AD2E7E4
:1037D000000000009A99993E0AD723BC2DE9F041D8
:1037E0002DED048BB0EE408A0446FFF7B1FEDFED0D
:1037F000378A04F130004FF07C55B0EE480A4FF0A4
:103800000008FFF7A5FEF7EE007A002640F2011748
:1038100004F1600084ED1C8A87EE889AC4ED1A8A50
:103820006566E566C4F87880B0EE680A84ED1D9A96
:1038300016F022F804F18C0084ED1F0AB0EE680A3D
:1038400084ED278A84ED289AC4ED258A84F8606087
:10385000A4F88870C4F89050C4F89850C4F8A480B4
:1038600016F00AF804F1BC0084ED2A0A0121B0EE3A
:10387000480A84F88C60A4F8B47015F097FC012114
:10388000B0EE480A04F1EC0015F090FCB0EE480AE6
:1038900004F58E7015F0E2FDB0EE480A04F5BC7038
:1038A00016F076F804F5C02304F5C121084A83F820
:1038B000E46D03F6E853204601F5AA611A60BDECF9
:1038C000048BBDE8F041FFF789BE00BF0000C8428D
:1038D0000000DC4373B500F5C0260A6805460C46B7
:1038E00006F6E8531A600B795BB196F8E41D41B90E
:1038F000BC30019115F0CAFC019905F1EC0015F0FE
:10390000C5FC237986F8E43D02B070BD07EE902A2D
:103910009FED877AF8EE676A33B4C6EE877A9FED3B
:10392000857A0E3927EE877ABCEEC77A8DED017A5B
:103930009FED817A9DF8045027EE877ABCEEC77A16
:103940008DED017A9DF80440572900F2EE80DFE802
:1039500001F02C33363F42454E5053565F62656846
:103960007174ECECECECECECECECECECECECECEC8A
:10397000ECECECECECECECECECECECECECECECEC87
:10398000ECECECECECECECECECECEC829E89779261
:10399000ECECEC9BA7AAB3BCBFC8ECECECECECCB1A
:1039A000ECCED5ECECECECECDEE583F834501946CB
:1039B00002B030BCFFF712BEC3ED0E7AF7E7F3EEAC
:1039C000046A9FED5E7AA7EEA67A83ED0F7AEEE7A2
:1039D00083F84050EBE7C3ED117AE8E7F3EE046AB1
:1039E0009FED567AA7EEA67A83ED127ADFE71C7573
:1039F000DDE7C3ED067ADAE7C3ED077AD7E7DFED57
:103A0000506A9FED507AA7EEA67A83ED087ACEE74A
:103A100083F82440CBE7C3ED0A7AC8E7C3ED0B7AFD
:103A2000C5E7DFED476A9FED477AA7EEA67A83EDFB
:103A30000C7ABCE7C3ED137AB9E7C3ED147AB6E7A5
:103A400067EEA77ADFED406AB3EE047AA7EEA67AB6
:103A500083ED1F7AABE79FED3D7A67EE877AC3ED82
:103A6000207AA4E7F1EE006A9FED397AA7EEA67AF4
:103A700083ED157A9BE7F1EE006A9FED357AA7EEAC
:103A8000A67A83ED167A92E7C3ED177A8FE7F1EE07
:103A9000046A9FED2F7AA7EEA67A83ED187A86E75F
:103AA000C3ED197A83E7F1EE006A9FED297AA7EE5C
:103AB000A67A83ED1A7A7AE7F1EE006A9FED247A0E
:103AC000A7EEA67A83ED1B7A71E7C3ED1C7A6EE749
:103AD000F1EE046A9FED1E7AA7EEA67A83ED1D7AB9
:103AE00065E7C3ED1E7A62E7C3ED217A5FE79FEDDC
:103AF000197A67EE877AC3ED237A58E7DFED166A05
:103B00009FED167AA7EEA67A83ED227A4FE73F2A39
:103B100094BF0022012283F8902048E73F2A94BFF7
:103B20000022012283F8912041E702B030BC7047A7
:103B30000000FE429EEF7F409EEF3F40CDCCCC3D4B
:103B40000000C842000048C200A08C463333733FD7
:103B50000AD7233CA4707D3F00B888460000FA4392
:103B60002DE9F04300F5C02504460F46BC3095F81A
:103B7000E41D164604F1300805F6E8592DED088BD2
:103B800089B0F7EE008A15F011FC95F8E41D04F1F8
:103B9000EC00B0EE409A15F009FC95F8D03C2046B8
:103BA000F0EE40AA082B94ED020ADFED889A28BFB8
:103BB0000023237095F8E03C082B28BF002384F8ED
:103BC000303005F6DC431B682361FFF7E3FC05F6A4
:103BD000EC4394ED0E0A40461B682364FFF7DAFCC1
:103BE00099ED000A2046FFF7D5FC99ED000A404602
:103BF000FFF7D0FC05F6D44304F160001B68636056
:103C000005F6E4431B68636305F6D843D3ED007AF9
:103C100005F6E843C7FEA97AC7FEE87AC4ED037A41
:103C2000D3ED007AC7FEA97AC7FEE87AC4ED0F7A11
:103C300095F8F03C082B28BF002384F8603095F8F5
:103C4000FC3C082B28BF002384F88C3005F6F44395
:103C50001B68636605F550631B68C4F8903005F671
:103C6000F84393ED000AFFF7AFFC05F6045304F1A7
:103C70008C0093ED000AFFF7A7FC05F60C539FEDAF
:103C8000547AD3ED007AC7FEA97AC7FEE87A67EEC8
:103C9000877A95F84C3DC4ED2E7A23B194F82D30F7
:103CA0000BB1C4ED139A204600F042FA05F6D44356
:103CB000404693ED00AA20EE0AAA00F039FA05F674
:103CC000E443D4ED2EBA93ED00BA20EE0BBA16F011
:103CD0005BFE08EE100AD4ED2E7A05F60853BAEE14
:103CE000E08AB4EEE78AF1EE10FA4ABFC8EEAB7A8A
:103CF0009FED368A27EE888AD3ED007A95F84D3D00
:103D000028EE278A002B5ED13AEE0BAA3AEE088AFB
:103D100005F63453DFED2F7A04F58E7093ED000A2B
:103D200005F6385303906AEE80AA93ED000AAAEED6
:103D3000A70AF3EE047A80FE270ADFED277A80FED9
:103D4000670A15F027FD05F63C53039893ED000A2A
:103D500015F07EFD0398B0EE480A15F025FC05F538
:103D6000526329EE000A05AA93ED009A07AB05F508
:103D70005465114620EE090A009304F5BC7006ABA9
:103D8000CDED069A8DED050ACDED079A15F0C0FE32
:103D9000D5ED007A9DED067A78EEE78ADDED056ACD
:103DA00027EE877AA8EEA67A87ED007A9DED077A4E
:103DB00067EE877AE8EEA67AC6ED007A09B0BDEC28
:103DC000088BBDE8F083AAEE0B8AA1E70000000093
:103DD0009A99993E00401C4600409C46054B14228F
:103DE000002110B5044640F8043B16F0E1FC2046E3
:103DF00010BD00BF0000C8427047002343608360CD
:103E0000C3600361436170470369024630B5436193
:103E100087B0C368043201AC03618368C360436840
:103E200080ED010A836000F114031068083252F833
:103E3000041C25469A4203C52C46F6D1106802A9F7
:103E400000222860F1EC017A1346084610ED027A50
:103E5000B4EEE77AF1EE10FA03DD013B20ED017AD2
:103E6000F4D206A8013200EB8303042A43ED047A5E
:103E7000E8D19DED030A07B030BD00002DE9F843FD
:103E80002A4C0546031D4FF0000804F1180705F100
:103E900024064FF0100994E8070083E8070004F1B6
:103EA0000C0205F1100307CA83E807000FCFC5F81D
:103EB0001C80C5F820800FC63B6804F12C073360D6
:103EC00005F138060FCF0FC63B684A46002105F1C1
:103ED0004C00336004F1580716F06AFC04F140020C
:103EE00005F15C0305F17C0607CA83E8070004F1CD
:103EF0004C0205F168036C3407CA83E807000FCF52
:103F0000C5F87480C5F878800FC63B68336005F14A
:103F100090060FCC0FC623684A46002105F1A40085
:103F2000336016F045FC2846BDE8F88370BE0108F2
:103F3000704738B5002503460446102203F81C1BC1
:103F40004C3040F8305C29465D6016F031FC294663
:103F500004F1A4006567A5671022BDE8384016F09B
:103F600027BC00000378032B00F2B080DFE803F0E9
:103F700058770221D0ED086AD0ED067A90ED077AE5
:103F800066EEA77A90ED056A80ED087AE6EE077A8C
:103F900090ED016A70EE677A90ED020A27EE000A52
:103FA000C0ED077AA6EE270A90ED036AA6EE860A10
:103FB000704790ED146AD0ED107AD0ED136A66EE7A
:103FC000277A90ED0F7AD0ED155A90ED165AE7EE5C
:103FD000267A90ED117AD0ED124AC0ED165A80ED96
:103FE000156AC0ED146AE7EE257A90ED097AE4EEE1
:103FF000857A70EE677A90ED0A0A26EE800AC0EDA7
:10400000137AA7EE270A90ED0B7AA6EE070A90ED39
:104010000C7AA5EE870A90ED0D7AA5EE070A704797
:10402000D0ED1E6AD0ED1C7A90ED1D7A66EEA77A6F
:1040300090ED1B6A80ED1E7AE6EE077A90ED176A26
:1040400070EE677A90ED180A27EE000AC0ED1D7A2F
:10405000A6EE270A90ED196AA6EE860A7047D0ED03
:104060002A6AD0ED267A90ED297A66EEA77A90ED4D
:10407000256AD0ED275A90ED285AE6EE077A90EDA2
:104080002B6A80ED2A7AC0ED2B6AE5EE867AD0EDB8
:104090002C5A80ED2C6AE5EE257A90ED1F5A70EED1
:1040A000677A90ED200A27EE000AC0ED297AA5EE86
:1040B000270A90ED215AA6EE850A90ED225AA6EE27
:1040C000050A90ED235AA5EE850A70479FED010A77
:1040D000704700BF00000000B4EEE00AF7EE007A7F
:1040E000F1EE10FA0ADD80EE807AF0EE006A27EE3B
:1040F000470AA7EE260A30EE670A704737EEC07A05
:10410000B4EEE07AF1EE10FA41BF70EEE70A80EE0D
:10411000807AB0EE470AA7EE070A46BF37EE000ADC
:1041200030EE270A9FED010A704700BF0000000033
:10413000037810B504462DED048BF6EE008AD0ED21
:10414000089AB7EE008A90ED079A072B00F20D81CE
:10415000DFE803F00435649198A5D5E69FED850A64
:1041600029EE000A16F084F939EE899AB4EEC89A5D
:1041700084ED079AF1EE10FAC5BF39EE489A012393
:10418000002384ED079AD4ED077A84F82D3077EE7A
:10419000E99AF4EEE89AF1EE10FA40F1E980F4EED3
:1041A000E87AF1EE10FAACBF01230023D4ED017AD6
:1041B00084F82C3020EE270ABDEC048B10BDFFEEF6
:1041C000007AD0ED035AB0EE007AB1EE006AB0EE9C
:1041D000670AF0EE486AA9EE070AE5EE866AB0EED5
:1041E000C00A30EE680A30EE000A20EE260AB4EE6D
:1041F000C80AF1EE10FA09DCB4EEE70AF1EE10FAA3
:10420000B2D5F8EE006A36EEC00AF0E737EE400AA3
:10421000B4EEE70AF1EE10FAE9D5F2E7D0ED037A51
:104220009FED557AF4EEC77AF1EE10FA20D49FEDA7
:10423000537AF4EE477AF1EE10FA77FE277AF4EE2D
:10424000C97AB0EE007AF1EE10FADBBF39EE676A98
:1042500078EE677AC9EE276AC6EE276ACBBFBFEE53
:10426000000AB0EE480AA6EE870AA6EEC70A7BE768
:10427000F0EE477AE3E7F0EE007ABFEE000AA9EE2F
:10428000270A71E7D0ED037AB7EE000AF4EEC97A97
:10429000FFEE007AF1EE10FA30FE270A64E7B4EE82
:1042A000E89AB7EE006AFFEE005AF1EE10FAF0EE6F
:1042B000490AB0EE690A58BFB0EE656AFFF70CFF15
:1042C00079EE287A36EE006AFBFE670AB0EE690ADC
:1042D00077EEE00AFFF700FF78EE697A36EE406A83
:1042E00090ED090A27EE800AF0EE407AB1EE000A5E
:1042F000E6EE297AC0ED097A20EE270A34E7F0EEDF
:10430000007ABFEE006AF0EE490AB0EE690AA9EE43
:10431000276AFFF7E1FE36EE400AB1EE400A23E7D6
:1043200090ED035AB7EE006AFFEE005AB4EEC95A98
:1043300038EE455AF0EE490AF1EE10FA35EE095A18
:10434000B0EE690A76FE255AFFF7C6FE75EE805A72
:10435000FBFE450AB0EE690A75EE600AFFF7BCFE87
:10436000DFED077A35EEC00AC6E79FED060AFBE6E9
:1043700000231BE7DB0FC9400AD7233CA4707D3F15
:10438000F4FD343F00000000D0ED067A20EE270A4D
:104390007047000006494FF6FF0C0002054BCA6843
:1043A00000F4E06002EA0C0210430343CB60704764
:1043B00000ED00E00000FA051B4BDB68C3F30223AD
:1043C00000B5C3F1070E03F1040CBEF1040F28BFC2
:1043D0004FF0040EBCF1060F1AD9033B4FF0FF3C1F
:1043E0000CFA03FC22EA0C024FF0FF3C00280CFA06
:1043F0000EFC21EA0C0101FA03F141EA02010ADB99
:1044000009010A4BC9B2034483F800135DF804FBA9
:1044100000221346E8E700F00F000901044BC9B27F
:10442000034419765DF804FB00ED00E000E100E0D4
:10443000FCEC00E0002807DB012300F01F01034A29
:1044400040098B4042F82030704700BF00E100E097
:1044500000280DDB4309012200F01F00054920332D
:1044600002FA00F041F82300BFF34F8FBFF36F8FC4
:10447000704700BF00E100E0BFF34F8F0549064BD6
:10448000CA6802F4E0621343CB60BFF34F8F00BFF2
:10449000FDE700BF00ED00E00400FA05431EB3F1A4
:1044A000807F0CD24FF0E022002006494FF0F00C44
:1044B0005361072381F823C0906113617047012085
:1044C000704700BF00ED00E0BFF35F8F044B002199
:1044D0005A6A22F480325A62C3F89410704700BFBF
:1044E00000ED00E0064B40F00100C3F894005A6A6A
:1044F00042F480325A62BFF34F8FBFF36F8F704721
:1045000000ED00E0174A4378C2F89830017821B3F3
:10451000436800B5C2F89C30C37A90F80CC01B0603
:1045200090F80FE043EA0C7390F80AC00B43817BCC
:1045300043EACC4390F80DC043EA8C4390F809C09D
:1045400043EA4143017A43EA0E4343EA0C2343EA38
:104550004103C2F8A0305DF804FBC2F89C10C2F819
:10456000A010704700ED00E0704700BF08B5FFF7EE
:10457000FBFF08BD202882B009D8084B03EB40029E
:1045800013F81030507843EA002002B0704701233E
:104590000C2043EA002002B0704700BF40C201086F
:1045A000084604F07FBC00BF143001F0E7B900BF3B
:1045B000143001F005BA00BF143001F0DBB900BFC0
:1045C000283001F07FBE00BF10B540F203338EB03B
:1045D00000244FF60B7240F20341ADF8083009A8F1
:1045E0000123ADF81020ADF824202246ADF80C10C0
:1045F0000094029907940C94CDE90544CDE90A444E
:1046000001F06EFD04A8012322460399009401F0F5
:1046100067FD09A801F04AFE10B901200EB010BDD7
:1046200004A801F043FEA0420CBF022020460EB0B9
:1046300010BD00BF2DE9F04103239AB04FF00108EF
:1046400000254FF60B740746CDE91438394BADF809
:104650004C40CDE91053A3F19F63A3F57D43CDE911
:1046600016581293FFF7B0FF4045064623D00228A4
:1046700042D040F60132304B07F158000BACADF898
:104680002C200B991895CDF86480CDF84A3000F0B5
:10469000DBF810A907F1700003F052FF274B0FCB96
:1046A00084E80F003A6F214607F1140001F026F963
:1046B0001AB0BDE8F08110231F4A06A906908DF8B4
:1046C00028300BAC1E4BCDF84A2007930295CDE95C
:1046D0001805CDE9080502A802F0D4F90823029ACA
:1046E00003A92046ADF80C608DF80E500496059392
:1046F0000B9500F0E9F8CCE740F60133ADF82C401B
:1047000000200BACADF8183001210B4B4246009550
:10471000CDF84A302B460E95CDE918010699204672
:10472000CDE90C5501F0DCFC2946204601F0CAFD1C
:10473000AFE700BF0402040404060403F0BE01084E
:104740000704010B2DE9F04704462DED028B82B0E2
:10475000002949D0012140F2011200230091ADF857
:1047600004208DF80630354A0127354B04F1040941
:10477000344904F13C08626040F20272A36040F6E2
:104780000663E16004F1280A2285A3872782E76295
:10479000276404F081FD054604F0D4FB6946064613
:1047A00050BB4DB304F150008DF8067004F0F4FCDA
:1047B000072D3ED104F114052046FFF73BFF2846A4
:1047C00001F0D8F82846B0EE408A01F0CFF8D0EDDD
:1047D000007AF8EE677A88EE277A84ED1B7A02B0C9
:1047E000BDEC028BBDE8F08740F2011300918DF81B
:1047F0000610ADF80430B6E704F1500004F0CCFC2C
:10480000072D13D04946204603F0AEF90EB9002D0E
:10481000D0D15146504601F07DFB4046414601F063
:1048200079FB04F1120000F079F9C3E7002EF0D112
:10483000C0E74946204603F097F9BBE7050805099C
:1048400005070506050A060630B585B000250446AD
:104850000122ADF80C102B460399009501F040FCA5
:104860000121204601F02EFD012004F01BFB29460A
:10487000204601F027FD012004F014FB0121204611
:1048800005B0BDE8304001F01DBD00BF10B5C2F35A
:10489000002384B00C46017C8DF80D2043EA4402CD
:1048A000FA2402238DF80C2003AA009402F082F966
:1048B00018B10124204604B010BD04460A2004F0BB
:1048C000F1FA204604B010BD034670B543F8042B3E
:1048D000044684B007C983E80700A37983B91A2185
:1048E0000B461E22FA2523742046ADF80C20022325
:1048F00003AA009502F05EF928B1012004B070BD52
:104900001B210B46EDE70A2004F0CCFA4FF4B85215
:1049100000950223ADF80C20204603AA217C02F06A
:1049200049F90028E9D10A2004F0BCFA41F20272E8
:1049300000950223ADF80C20204603AA217C02F04A
:1049400039F90028D9D10A2004F0ACFA04220095E4
:104950000223ADF80C20204603AA217C02F02AF99C
:104960000028CAD10A2004F09DFA062200950223ED
:10497000ADF80C20204603AA217C02F01BF9002888
:10498000BBD10A2004F08EFA41F2082200950223DE
:10499000ADF80C20204603AA217C02F00BF9002878
:1049A000ABD10A20064604F07DFA0095022303AA43
:1049B000217C2046ADF80C6002F0FCF800289CD168
:1049C000304604F06FFA009522790C232046002A25
:1049D0008DF80C3003AA4FF0020314BF622142216C
:1049E0008DF80D10217C02F0E5F8002885D13046C5
:1049F00004F058FA2279D4E902310B43DBB20AB948
:104A000043F0400362790AB143F020030E22FA25F5
:104A10008DF80D302046009502238DF80C2003AA56
:104A2000217C02F0C7F800287FF467AF0A2004F069
:104A300039FA102200950223ADF80C20204603AA73
:104A4000217C02F0B7F800287FF457AF0A2004F069
:104A500029FA122100950223ADF80C1003AA217C3B
:104A6000204602F0A7F800287FF447AF0A2004F0A0
:104A700019FA012209212046FFF708FF003818BF64
:104A800001203BE7F0B5102387B0234C012200251D
:104A90000126002702A920460195CDE902234FF403
:104AA0008052CDE904670DF04FFD642004F016FF3D
:104AB00002A94FF480522046CDE904670226102750
:104AC000CDE902670DF040FD0322102302A9204624
:104AD000CDE9022300230422CDE904234FF48052C0
:104AE0000DF032FD40F23223042202A9019310237B
:104AF0002046CDE90223019A012305924FF480520A
:104B000004930DF021FD40F6060120460DF03CFD1A
:104B1000284607B0F0BD00BF00CE06241C4B002283
:104B20001C494FF0400C30B5054689B00220596051
:104B300007219A601A620124DA620A224FF4006E99
:104B4000DC6006922022CDE9000104200821CDE995
:104B5000020103201021CDE9040108206946C3E9C0
:104B600004024FF4C072181DC3E906C24FF480520C
:104B7000C3E909E20DF0BEFC38B92846FFF782FF11
:104B8000003818BF012009B030BD204609B030BD43
:104B9000FCCD062440410052614A0021D0B5136883
:104BA0008EB00A91002B40F0B9805E4B01214FF688
:104BB00083700C2411600221D3F8D420002603272F
:104BC00042F48052C3F8D420D3F8D42002F48052A7
:104BD0000092009AD3F8E02042F01002C3F8E020DF
:104BE000D3F8E02002F010020192019AD3F8E020FD
:104BF00042F04002C3F8E020D3F8E02002F0400287
:104C00000292029AD3F8E02042F00802C3F8E020B2
:104C1000D3F8E02002F008020392039AD3F8E020D0
:104C200042F48072C3F8E020D3F8E02002F48072EE
:104C30000492049AD3F8E02042F08002C3F8E02006
:104C4000D3F8E02002F080020592059AD3F8E02024
:104C500042F02002C3F8E020D3F8E02002F0200266
:104C60000692069AD3F8E02042F00402C3F8E0204E
:104C7000D3F8E0300C9403F0040307930323079A5E
:104C80000B93CDE9080108A9274806F0CDF848F2B2
:104C90003712022308A925480C94CDE90823CDE951
:104CA0000A6706F0C1F84CF20372022308A92048F3
:104CB0000C94CDE90823CDE90A6706F0B5F840F277
:104CC000FF62022308A91B480C94CDE90823CDE913
:104CD0000A6706F0A9F84FF60C72022308A91648D5
:104CE0000C94CDE90823CDE90A6706F09DF84FF64C
:104CF0003F02022308A911480C94CDE90823CDE90D
:104D00000A6706F091F82022022308A90A480C94A9
:104D1000CDE90A67CDE9082306F086F80EB0D0BDCC
:104D2000F8CD06240044025800100258001802581A
:104D3000000C025800200258001C025800140258AF
:104D40002DE9F04FDFF8108406460D46144608F1B1
:104D500018002DED028B89B000AF03F0E9FCD8F804
:104D6000183073B3D8F81C30D8F80490002B43697E
:104D70000BBF4FF0080A4FF0100A4FF0020B4FF034
:104D8000040BB9F1000F2AD0A200EA46012B02F170
:104D9000070222F00702ADEB020D6846ADEB020DF3
:104DA000694600F03F81022B00F0D680002B6FD0C7
:104DB0002246C847D5462437BD46BDEC028BBDE828
:104DC000F08FD8F81C30002BF5D0D8F804904FF0B5
:104DD000080A4FF0020B4369B9F1000FD4D1FB610F
:104DE000D8F80030BB61002BE5D0D54803F01EFD9C
:104DF0006B46BBF1020F786108EE103AFB6900F0D8
:104E000083816A465146A2EBC40295466200EA4697
:104E1000B2FBFBF2AAEBC40085460AEB8200EE4629
:104E2000F861ADEB010DF8690EEB820CC7F810C00C
:104E3000EC46ADEB010D00EB8201CCF80400CCF8A0
:104E4000081001EB82013869E946CCF80C1000EB40
:104E50008201CCF800A001EB8202C9E900E0C9E9B7
:104E60000212012B00F06483022B00F06C82002BF5
:104E700000F08081620849466046BB69984718EE99
:104E8000103A24379D46BD46BDEC028BBDE8F08F3D
:104E9000002C8DD01A46D8ED0C6A9FEDB27A84466C
:104EA000331D36F922E00CF1080C07EE90EA33F9D5
:104EB00022E00232F8EEE77A944267EE877A67EEF4
:104EC000A67A4CED027A07EE90EAF8EEE77A67EE02
:104ED000877A67EEA67A4CED017AE2D8F96122462C
:104EE000C847984ED8ED0D6A0020F9692B1D9FED3B
:104EF0009E7A9FED9E6ADFED9E5A22E0F4EEC67A1E
:104F0000F1EE10FAC0F2C88447F6FE72D1ED017AD4
:104F100045F8202066EEA77AF4EEC77AF1EE10FA93
:104F200040F2F080F4EEC67AF1EE10FAC0F2D584C9
:104F300047F6FE7243F820200230083184427FF6A3
:104F400039AFD1ED007A66EEA77AF4EEC77AF1EECA
:104F500010FAD3D83246D9E7002C3FF429AFD8ED68
:104F60000C6A84469FED787A0022331D8E4656F8EF
:104F700022100CF1080C07EE901A53F8221002329E
:104F8000F8EEE77A944267EE877A67EEA67A4CED00
:104F9000027A07EE901AF8EEE77A67EE877A67EE04
:104FA000A67A4CED017AE2D871462246C7F81CE099
:104FB000C847664ED8ED0D6A0020F9692B1D9FED9C
:104FC0006A7A9FED6A6ADFF894C120E0F4EEC67A4F
:104FD000F1EE10FAC0F279843246D1ED017A45F84B
:104FE000202066EEA77AF4EEC77AF1EE10FA40F2CE
:104FF0008780F4EEC67AF1EE10FAC0F25E84324693
:1050000043F820200230083184427FF6D3AED1ED40
:10501000007A66EEA77AF4EEC77AF1EE10FAD5D8E8
:105020006246DAE7002C3FF4C3AED8ED0C6A864640
:105030009FED477A4FF0000C331D56F82C200EF1EF
:10504000080E82F40002A2F5000207EE902A53F83F
:105050002C200CF1020CF8EEE77A82F40002644591
:10506000A2F5000267EE877A67EEA67A4EED027A25
:1050700007EE902AF8EEE77A67EE877A67EEA67A6F
:105080004EED017AD9D8F9612246C847314ED8EDA4
:105090000D6A0020F9692B1D9FED337A9FED336A6D
:1050A000DFF8BCC01FE0F4EEC67AF1EE10FAC0F2F1
:1050B000FC833246D1ED017A45F8202066EEA77ACE
:1050C000F4EEC77AF1EE10FA18D9F4EEC67AF1EEE2
:1050D00010FAC0F2DA83324643F820200230083159
:1050E00084427FF667AED1ED007A66EEA77AF4EEE1
:1050F000C77AF1EE10FAD6D86246DBE76246EBE7F4
:1051000062467DE7324615E7A100D64662080731C0
:1051100021F00701ADEB010DEA46ADEB010D69464B
:10512000ADEB0E0D0AEB8200EC46ADEB0E0D01EB84
:105130008202F861E946CCE900A0C9E9001290E6D4
:1051400050CE06240280FFFF000000300082FF7F67
:105150000000003482FF7F0034CE0624007E0080F1
:105160007E0080FF0000003804FF7FBF04FF7F3F08
:1051700000FEFF46002C00F0C982BBF1020FD8F8F8
:10518000242000F0FA827969C7F8049002EB810EBE
:105190005FED0C5A8A00DCF808100EF104007A6109
:1051A0001A46DCF80C303B61331DD7F810903D6196
:1051B000FD69C7E902CB8C46834636F92210D8ED4B
:1051C0000C7A06EE101A33F9221006EE901A3EF908
:1051D0002210B8EEC66A07EE101AF8EEE66A3BF93E
:1051E0002210B8EEC77A26EE256A66EEA56A27EE8B
:1051F000257A26EE276A66EEA76A27EE277A07EE5B
:10520000901A51080232F8EEE77A0AEB81009442D4
:1052100080ED006A05EB810067EEA57AC0ED006ABB
:105220000CEB810009EB810180ED007A98ED0C7A9E
:1052300067EE877AC1ED007ABFD8D7F804903D6950
:10524000D7E902CB60466208BB6949469847D8F85F
:105250002C307A69D8ED0D6A1A441FED3D7A1FEDA6
:105260003D6A2B1D904602F1040A5FED3F5A002271
:10527000A84ED9E900EC51E0F4EEC67AF1EE10FA4E
:10528000C0F2C78247F6FE7045F822000CEB010021
:10529000D0ED007A66EEA77AF4EEC77AF1EE10FA56
:1052A0004BD9F4EEC67AF1EE10FAC0F2BA8247F6A4
:1052B000FE70BBF1020F43F822002BD0D9F8080092
:1052C0000844D0ED007A66EEA77AF4EEC77AF1EEE4
:1052D00010FA36D9F4EEC67AF1EE10FAC0F2CD82A9
:1052E00047F6FE7048F82200D9F80C000144D1EDD1
:1052F000007A66EEA77AF4EEC77AF1EE10FA1ED9BC
:10530000F4EEC67AF1EE10FAC0F2AF8247F6FE7103
:105310004AF82210023294427FF6B1AD51080EEBEA
:1053200081008900D0ED007A66EEA77AF4EEC77AA4
:10533000F1EE10FAA0D83046A6E73046B9E731467C
:10534000E6E73046CEE7002C00F0E081BBF1020F2B
:10535000D8F8243000F0E1817A69DCF8081003EB1A
:10536000820EC7F804909300DFED6B5A0EF1040033
:1053700000227B61DCF80C303B61331DD7F81090C4
:105380003D61FD69C7E902CB8C46834656F8221081
:10539000D8ED0C7A07EE101A53F82210B8EEC76A4F
:1053A00007EE101A5EF82210F8EEC76A07EE101A20
:1053B00026EE256A5BF82210B8EEC77A66EEA56A7B
:1053C00026EE276A27EE257A66EEA76A27EE277A69
:1053D00007EE901A51080232F8EEE77A0AEB8100E4
:1053E000944280ED006A05EB810067EEA57AC0ED7E
:1053F000006A0CEB810009EB810180ED007A98EDE9
:105400000C7A67EE877AC1ED007ABFD8D7F804909E
:105410003D69D7E902CB60466208BB6949469847B7
:10542000D8F82C307A69D8ED0D6A1A449FED3E7A8F
:105430009FED3E6A131D9246DFF8E4C00022FB6137
:105440002B1D364ED9E9008E4EE0F4EEC67AF1EE11
:1054500010FAC0F2FC81304645F822000EEB010044
:10546000D0ED007A66EEA77AF4EEC77AF1EE10FA84
:1054700049D9F4EEC67AF1EE10FAC0F2EF81304667
:10548000BBF1020F43F822002AD0D9F808000844E3
:10549000D0ED007A66EEA77AF4EEC77AF1EE10FA54
:1054A00035D9F4EEC67AF1EE10FAC0F2C981304671
:1054B0004AF82200D9F80C000144D1ED007A66EEDA
:1054C000A77AF4EEC77AF1EE10FA1ED9F4EEC67A96
:1054D000F1EE10FAC0F2AD813146F86940F82210C1
:1054E000023294427FF6CBAC510808EB8100890070
:1054F000D0ED007A66EEA77AF4EEC77AF1EE10FAF4
:10550000A3D86046A8E76046BAE76146E5E760468B
:10551000CEE700BF0280FFFF000000300082FF7F67
:10552000007E00800000003404FF7FBF04FF7F3F47
:10553000002C00F0EB807A690021D8F82430C7F8FD
:10554000109003EB820ED7F81C909300FD610EF1D2
:1055500004021FED0C6A7B61331D154656F82120AD
:105560004808D8ED0C6ABBF1020F82F40002A2F5E4
:10557000000207EE902A53F8212082F40002B8EED0
:10558000E77AA2F5000227EE067A07EE902A0AEBE8
:105590008002F8EEE77A27EE267A67EE867A82EDC9
:1055A000007A09EB80024FEA800067EEA67AC2ED2E
:1055B000007A27D05EF8212082F40002A2F50002D2
:1055C00007EE902A55F8212082F40002B8EEE77A1F
:1055D000A2F5000227EE067A07EE902ADCF80820F2
:1055E000F8EEE77A024427EE267A67EE867A82EDB5
:1055F000007A98ED0C7ADCF80C2067EE877A02448A
:10560000C2ED007A02318C42A8D8D7F810906046DB
:105610006208BB694946FD699847D8F82C307A6919
:10562000D8ED0D6A1A441FED407A1FED406A131D34
:105630009246DFF8C4C20022FB612B1DAB4ED9E9B4
:10564000008E4EE0F4EEC67AF1EE10FAC0F2C5809C
:10565000304645F822000EEB0100D0ED007A66EEF0
:10566000A77AF4EEC77AF1EE10FA49D9F4EEC67AC9
:10567000F1EE10FAC0F2BF803046BBF1020F43F8E2
:1056800022002AD0D9F808000844D0ED007A66EE4E
:10569000A77AF4EEC77AF1EE10FA35D9F4EEC67AAD
:1056A000F1EE10FAC0F2AE8030464AF82200D9F886
:1056B0000C000144D1ED007A66EEA77AF4EEC77AC9
:1056C000F1EE10FA1ED9F4EEC67AF1EE10FAC0F23D
:1056D0008B803146F86940F82210023294427FF6FE
:1056E000CEAB510808EB81008900D0ED007A66EE60
:1056F000A77AF4EEC77AF1EE10FAA3D86046A8E7CD
:105700006046BAE76146E5E76046CEE7224649468D
:105710006046BB699847FFF7B2BBC7F810B00022DC
:1057200098ED0C6A331DDFED726AD7F81CB078690A
:1057300056F8221007EE901A53F82210B8EEE77AC6
:1057400007EE901A51080232F8EEE77A27EE267A31
:105750000AEB810E94420BEB810167EEA67A27EEED
:10576000067A67EE867A8EED007AC1ED007ADFD890
:105770008300D7F810B07B614DE61A46C7F810B029
:1057800098ED0C6A331DDFED5B6AD7F81CB07869C1
:1057900036F9221007EE101A33F9221007EE901A8C
:1057A000B8EEC77A51080232F8EEE77A27EE267A89
:1057B0000AEB810E94420BEB810167EEA67A27EE8D
:1057C000067A67EE867A8EED007AC1ED007ADFD830
:1057D0008300D7F810B07B6134E5F0EE675AFEEE37
:1057E000E45A15EE900A34E7F0EE675AFEEEE45AFA
:1057F00015EE901A6EE7F0EE675AFEEEE45A15EEDB
:10580000900A3AE7F0EE675AFEEEE45A15EE900A77
:105810004BE767EEA57AFDEEE77A17EE900A00B245
:1058200032E567EEA57AFDEEE77A17EE900A00B250
:105830003FE5F0EE675AFEEEE05A15EE901A4CE6A0
:10584000F0EE675AFEEEE05A15EE900A30E6F0EE02
:10585000675AFEEEE05A15EE900AFDE5F0EE675A43
:10586000FEEEE05A15EE900A0AE667EEA57AFDEE26
:10587000E77A17EE901A09B24AE567EEA57AFDEECF
:10588000E77A17EE900A00B22CE5F0EE675AFEEECA
:10589000E45A15EE902A1FE467EEA57AFDEEE77A4A
:1058A00017EE902A12B2FFF731BBF0EE675AFEEE08
:1058B000E45A15EE902AFFF7FDBBF0EE675AFEEEB4
:1058C000E05A15EE902AFFF79BBBF0EE675AFEEE0A
:1058D000E05A15EE902AFFF780BB67EEA57AFDEE41
:1058E000E77A17EE902A12B2FFF724BB82FF7F00FF
:1058F00000000030000000387E0080FF30B5184CFA
:10590000154685B0046004F1080EEC460FC98EE818
:105910000F00D4ED047AF5EEC07A8CE80F00F1EEBA
:1059200010FA1ADDB7EE006A94ED057A27EE277AB1
:10593000C6EE276A84ED0D7AC4ED0C6A6DB120467F
:1059400040F8185F02F0F4FE064903690020064A99
:105950002162A262E36005B030BD012005B030BD18
:1059600034CE0624002000300000003000680830EB
:10597000704700BF0068183002F046BF30B50468B9
:1059800083B00D46E3694BB1A3680020E26A616A07
:105990009B00009004F11C0002F0CCFEA3680748B5
:1059A000A26A9B00216A009004F1180002F0C2FE76
:1059B0000020C4E9005003B030BD00BF414D0008D5
:1059C00010B50468A3691BB104F1180002F010FFC0
:1059D000E3691BB104F11C0002F00AFF002010BDB6
:1059E00010B4074B4FF07E51302400220320196180
:1059F0009C60D8605DF8044B5961C3E9062270478A
:105A000034CE062430B5044687B00025ADF8141016
:105A1000ADF81020ADF80C3003F042FA2A462060B1
:105A2000059904F12C0025710123009500F058FB25
:105A300001232A46049904F14000009500F050FB30
:105A40009FED060A039904F1080000F005F94FF6EE
:105A5000FF73A565A4F8543007B030BD0000000006
:105A6000F8B5044603F01CFA002623682671834229
:105A700005D104F10800BDE8F84000F005B90127A0
:105A800094F85450206004F12C00BD40277100F0C0
:105A90000DFC6DB2284394F85550BD4084F8540075
:105AA00004F1400000F002FC94F854306DB2A66599
:105AB00003F003032843022BC0B284F8550009D039
:105AC00000F003000228D4D1002BD2D14FF0FF33D5
:105AD000A365CEE78307CCD1A765CAE738B50446EE
