:020000040800F2
:1000000000000220290A00081D0A0008D18D0008FE
:100010001D0A00081D0A00081D0A00080000000053
:100020000000000000000000000000001D0A0008A1
:100030001D0A0008000000001D0A0008558D000878
:100040001D0A00081D0A00081D0A00081D0A0008F4
:100050001D0A00081D0A00081D0A00081D0A0008E4
:100060001D0A00081D0A00081D0A0008A9850008CD
:10007000B58500081D0A0008C1850008CD85000867
:10008000D9460108357600081D0A00081D0A000837
:100090001D0A00081D0A00081D0A00081D0A0008A4
:1000A0001D0A00081D0A00081D0A00081D0A000894
:1000B000E18B0008ED8B0008F98B000869760008D9
:1000C0001D0A0008757600081D0A00082134010881
:1000D0002D3401080D450108394501086D45010819
:1000E0001D0A00081D0A0008000000001D0A000883
:1000F0001D0A00081D0A00081D0A00081D0A000844
:100100001D0A00081D0A0008058C00083934010882
:10011000A1450108D54501081D0A00081D0A00086F
:100120001D0A00081D0A00085D3401089134010809
:100130000D4701081D0A00081D0A00081D0A0008D5
:1001400000000000000000000000000000000000AF
:100150001D0A00081D0A00081D0A000809460108BA
:10016000817600081D0A0008658D0008898D000849
:100170001D0A0008AD8D00081D0A00081D0A0008B0
:100180001D0A00081D0A00083D46010871460108C5
:1001900045340108513401081D0A00081D0A0008F1
:1001A0001D0A00081D0A00081D0A00081D0A000893
:1001B0009D8200081D0A00081D0A00081D0A00088B
:1001C0001D0A00081D0A00081D0A00081D0A000873
:1001D0001D0A00081D0A00081D0A00081D0A000863
:1001E0001D0A00081D0A00081D0A00081D0A000853
:1001F0001D0A00081D0A00081D0A00081D0A000843
:100200001D0A00081D0A00081D0A00081D0A000832
:100210001D0A00081D0A00081D0A00081D0A000822
:100220001D0A00081D0A00081D0A00080000000041
:100230001D0A00081D0A0008000000001D0A000831
:100240001D0A00081D0A00081D0A00081D0A0008F2
:100250001D0A00081D0A00081D0A00081D0A0008E2
:100260001D0A00081D0A00081D0A00081D0A0008D2
:100270001D0A00081D0A0008A5460108000000002C
:100280001D0A00081D0A00081D0A000800000000E1
:08029000000000001D0A000837
:1002A00010B5054C237833B9044B13B10448AFF3B0
:1002B00000800123237010BD100500240000000001
:1002C000B4A7010808B5034B1BB103490348AFF3BA
:1002D000008008BD0000000014050024B4A7010838
:1002E00010F8012B11F8013B012A28BF9A42F7D0E0
:1002F000D01A70470000000000000000000000005D
:1003000001F0FF01102A2BDB10F0070F08D010F8C6
:10031000013B013A8B422DD010F0070F42B3F6D1CA
:10032000F0B441EA012141EA014122F007047FF0E3
:1003300000070023F0E80256083C85EA010586EA3A
:10034000010685FA47F5A3FA87F586FA47F6A5FA76
:1003500087F68EB9EED1F0BC01F0FF0102F0070282
:1003600032B110F8013B013A83EA010313B1F8D12D
:100370000020704701387047002D06BF354603380E
:10038000073815F0010F07D1013015F4807F02BF47
:10039000013015F4C03F0130F0BC0138704700BF98
:1003A00081F0004102E000BF83F0004330B54FEA26
:1003B00041044FEA430594EA050F08BF90EA020F93
:1003C0001FBF54EA000C55EA020C7FEA645C7FEA26
:1003D000655C00F0E2804FEA5454D4EB5555B8BF49
:1003E0006D420CDD2C4480EA020281EA030382EABA
:1003F000000083EA010180EA020281EA0303362D4C
:1004000088BF30BD11F0004F4FEA01314FF4801C1E
:100410004CEA113102D0404261EB410113F0004F30
:100420004FEA03334CEA133302D0524263EB4303E7
:1004300094EA050F00F0A780A4F10104D5F1200E85
:100440000DDB02FA0EFC22FA05F2801841F10001E0
:1004500003FA0EF2801843FA05F359410EE0A5F1B4
:1004600020050EF1200E012A03FA0EFC28BF4CF0E5
:10047000020C43FA05F3C01851EBE37101F000459B
:1004800007D54FF0000EDCF1000C7EEB00006EEBA8
:100490000101B1F5801F1BD3B1F5001F0CD3490832
:1004A0005FEA30004FEA3C0C04F101044FEA445289
:1004B00012F5800F80F09A80BCF1004F08BF5FEA10
:1004C000500C50F1000041EB045141EA050130BDF0
:1004D0005FEA4C0C404141EB0101013C28BFB1F502
:1004E000801FE9D291F0000F04BF01460020B1FA4D
:1004F00081F308BF2033A3F10B03B3F120020CDA20
:100500000C3208DD02F1140CC2F10C0201FA0CF0FD
:1005100021FA02F10CE002F11402D8BFC2F1200C62
:1005200001FA02F120FA0CFCDCBF41EA0C01904018
:10053000E41AA2BF01EB0451294330BD6FEA040461
:100540001F3C1CDA0C340EDC04F11404C4F120024C
:1005500020FA04F001FA02F340EA030021FA04F35E
:1005600045EA030130BDC4F10C04C4F1200220FAB5
:1005700002F001FA04F340EA0300294630BD21FAF3
:1005800004F0294630BD94F0000F83F4801306BFB9
:1005900081F480110134013D4EE77FEA645C18BFAD
:1005A0007FEA655C29D094EA050F08BF90EA020F44
:1005B00005D054EA000C04BF1946104630BD91EA3C
:1005C000030F1EBF0021002030BD5FEA545C05D13F
:1005D0004000494128BF41F0004130BD14F580047E
:1005E0003CBF01F5801130BD01F0004545F0FE41F2
:1005F00041F470014FF0000030BD7FEA645C1ABF27
:10060000194610467FEA655C1CBF0B46024650EA5D
:10061000013406BF52EA033591EA030F41F4002189
:1006200030BD00BF90F0000F04BF0021704730B50F
:100630004FF4806404F132044FF000054FF00001E4
:1006400050E700BF90F0000F04BF0021704730B5A5
:100650004FF4806404F1320410F0004548BF40427A
:100660004FF000013EE700BF42004FEAE2014FEACF
:1006700031014FEA02701FBF12F07F4393F07F4FAA
:1006800081F06051704732F07F4208BF704793F0AD
:100690007F4F04BF41F40021704730B54FF46074C0
:1006A00001F0004521F000411CE700BF50EA0102C3
:1006B00008BF704730B54FF000050AE050EA01026C
:1006C00008BF704730B511F0004502D5404261EBDC
:1006D00041014FF4806404F132045FEA915C3FF41D
:1006E000D8AE4FF003025FEADC0C18BF03325FEABA
:1006F000DC0C18BF033202EBDC02C2F1200300FA6B
:1007000003FC20FA02F001FA03FE40EA0E0021FA8F
:1007100002F11444BDE600BF53B94AB9002908BF2D
:1007200000281CBF4FF0FF314FF0FF3000F074B9CC
:10073000ADF1080C6DE904CE00F006F8DDF804E038
:10074000DDE9022304B070472DE9F047089D044617
:100750008E46002B4DD18A42944669D9B2FA82F274
:1007600052B101FA02F3C2F1200120FA01F10CFAB0
:1007700002FC41EA030E94404FEA1C48210CBEFBE8
:10078000F8F61FFA8CF708FB16E341EA034306FB71
:1007900007F199420AD91CEB030306F1FF3080F000
:1007A0001F81994240F21C81023E63445B1AA4B24D
:1007B000B3FBF8F008FB103344EA034400FB07F7EF
:1007C000A7420AD91CEB040400F1FF3380F00A8130
:1007D000A74240F207816444023840EA0640E41B25
:1007E00000261DB1D4400023C5E900433146BDE8D1
:1007F000F0878B4209D9002D00F0EF800026C5E973
:10080000000130463146BDE8F087B3FA83F6002E8A
:100810004AD18B4202D3824200F2F980841A61EB02
:10082000030301209E46002DE0D0C5E9004EDDE720
:1008300002B9FFDEB2FA82F2002A40F09280A1EB08
:100840000C014FEA1C471FFA8CFE0126200CB1FB5D
:10085000F7F307FB131140EA01410EFB03F0884256
:1008600008D91CEB010103F1FF3802D2884200F2E3
:10087000CB804346091AA4B2B1FBF7F007FB101175
:1008800044EA01440EFB00FEA64508D91CEB040413
:1008900000F1FF3102D2A64500F2BB800846A4EB6E
:1008A0000E0440EA03409CE7C6F12007B34022FA59
:1008B00007FC4CEA030C20FA07F401FA06F31C4388
:1008C000F9404FEA1C4900FA06F3B1FBF9F8200C95
:1008D0001FFA8CFE09FB181140EA014108FB0EF0DB
:1008E000884202FA06F20BD91CEB010108F1FF3A2B
:1008F00080F08880884240F28580A8F10208614437
:10090000091AA4B2B1FBF9F009FB101144EA014144
:1009100000FB0EFE8E4508D91CEB010100F1FF34EF
:100920006CD28E456AD90238614440EA0840A0FB87
:100930000294A1EB0E01A142C846A64656D353D05D
:100940005DB1B3EB080261EB0E0101FA07F722FA81
:1009500006F3F1401F43C5E9007100263146BDE8AA
:10096000F087C2F12003D8400CFA02FC21FA03F30D
:10097000914001434FEA1C471FFA8CFEB3FBF7F08E
:1009800007FB10360B0C43EA064300FB0EF69E42B3
:1009900004FA02F408D91CEB030300F1FF382FD24C
:1009A0009E422DD9023863449B1B89B2B3FBF7F6F4
:1009B00007FB163341EA034106FB0EF38B4208D9CD
:1009C0001CEB010106F1FF3816D28B4214D9023E0E
:1009D0006144C91A46EA004638E72E46284605E72C
:1009E0000646E3E61846F8E64B45A9D2B9EB0208FD
:1009F00064EB0C0E0138A3E74646EAE7204694E78D
:100A00004046D1E7D0467BE7023B614432E73046BF
:100A100009E76444023842E7704700BF684620F0A7
:100A200007018D46FEE700BF0B480C4A904208B50F
:100A300003D0121A0A4917F0F1FA0A480A4A9042FA
:100A400003D0121A002117F0F7FA08F077FC17F01C
:100A5000B9FA01F085FAFEE7000000241005002431
:100A6000E8A701081005002440510624704700BF84
:100A7000704700BF704700BF014B01221A707047DA
:100A800024170024704700BF402070478020704723
:100A900049424FF480621030C9B217F0CDBA00BF9E
:100AA00001207047124B134870B516460D462DEDC8
:100AB000028B93E8060004F06FFCAEB100240D48F1
:100AC00004F092FC0C48B0EE408A01F0D5FDD5E967
:100AD000003000EB840003EB8403013480ED008AD6
:100AE000A64283ED008AEAD1BDEC028B70BD00BF47
:100AF00004000024281700244009002410B50446EF
:100B00004FF4826116F0DDFD204610BD10B50A4C91
:100B1000204606F0DFF9237903B1A36D0749207B56
:100B20000A6813440B6030B194F824307F2B02D153
:100B3000034B01221A7010BD60110024C41100245F
:100B4000C01100242DE9F04F4FF0B00885B00546E4
:100B500000F1080700F18F0600F28F494FF47A7B0D
:100B60004FF0000A297B022303AA3846CDF800B0D3
:100B7000A6F180048DF80CA08DF80D8006F01EFE05
:100B8000297B022303AA3846CDF800B08DF80CA0CB
:100B90008DF80DA006F012FE4FF0100C297B0223F9
:100BA00003AA3846CDF800B08DF80CA08DF80DC022
:100BB00006F004FE4FF47A7014F801CF4FF0400EA7
:100BC000297B0223009003AA38468DF80CE08DF8AB
:100BD0000DC006F0F3FDB442ECD104F1800608F13B
:100BE00001084E455FFA88F8B8D105B0BDE8F08F2E
:100BF0002DE9F04F89B008AC9DF84870019104E9E7
:100C00000C000B78002B00F0AB801A469DF8188082
:100C10009DF819300646454690460393079B059379
:100C2000A8F12004E3B25E2B00F29E8033685E4A96
:100C3000DB68934240F09B808020B3882B44834242
:100C400000F392803368594A9B68934240F0928047
:100C50004020F188039A02918B18834200F384802C
:100C6000002A00F0918002FB04F46FF00049059B1C
:100C7000A1441444B6F804B003EB4909023BCDF893
:100C8000108003EB44030C469A4639F802CFA5B313
:100C900004F007034FF0010EE20859460EFA03FE76
:100CA0000BF110034FFA8EFE03EBC21200236FEA22
:100CB0000E0832440DE07F2906D83F2C04D8107866
:100CC00097B14EEA00001070013301320131AB429E
:100CD00013D00CFA03F00004EDD47F29F4D83F2C94
:100CE000F2D81078002FECD0013308EA000001326E
:100CF0000131AB4202F8010CEBD1D14504F1010402
:100D0000C3D1DDF8108032680BEB05042649D368A7
:100D1000A4B28B4234D18020844204D3D3682249C8
:100D20008B423AD17F249368204AB480934224D1E5
:100D30004020029B834206D333681C4A9B6893423F
:100D400025D13F230293029BF380019B18784045F5
:100D500007D113F8018F0193B8F1000F7FF460AF52
:100D6000002009B0BDE8F08F4FF00008EDE73046F5
:100D7000984762E7304698476BE730469847D8E790
:100D8000304698473268C7E7B6F804B0BBE730464C
:100D90009847013883B20293D5E730469847013827
:100DA000326884B2BFE700BF8D0A0008890A0008D4
:100DB0002DE9F04F85B0A1F1200504AC9DF8387005
:100DC000009104E90C00EBB25E2B00F29580036801
:100DD00080465D4ADB689DF8084093429DF80960B3
:100DE00040F094808020B8F804302344834200F31C
:100DF0008380D8F80030554A9B68934240F0888041
:100E00004020B8F8062093190192834274DC002E2A
:100E100000F0898006FB05F56FF00040039B9646C5
:100E200028442E44B8F804A003EB4000023B03EB37
:100E3000460B30F8026FBCB30EF007034FF0010C05
:100E40004FEADE0251460CFA03FC0AF110034FFA96
:100E50008CFC03EBC21200236FEA0C0942440EE043
:100E60007F2907D8BEF13F0F04D815789FB14CEA0F
:100E7000050515700133013201319C4214D006FA88
:100E800003F52D04ECD47F29F4D8BEF13F0FF1D83F
:100E90001578002FEBD0013309EA05050132013145
:100EA0009C4202F8015CEAD158450EF1010EC0D116
:100EB000D8F8003054442449DA68A4B28A422DD1CB
:100EC000802084421CD29B68204AA8F804409342A8
:100ED00021D14020019B834207D3D8F800301B4A20
:100EE0009B68934229D13F230193DDE90003A8F8D1
:100EF000063005B0BDE8F08F002005B0BDE8F08FEA
:100F0000DA6811498A4211D17F24DCE798476AE701
:100F10004046984775E740469847DBE7404690478C
:100F2000D8F80030CDE7B8F804A0C1E740469047B4
:100F30000138D8F8003084B2C5E7404698470138F8
:100F400083B20193D1E700BF8D0A0008890A000827
:100F50002DE9F04F89B01D46884606901046129C38
:100F600010F8013B13999DF85060009233B10022B4
:100F700010F8013B0132002BFAD193B22A7868783D
:100F800012FB03F302B21BB223EAE373082900F257
:100F9000A981DFE811F002011401200134014201AE
:100FA0005001670171010900A18827880F44B4F935
:100FB0000610FF1A0029BFB2C0F2FF80B4F802C0C9
:100FC00006980CEB6104C280A4EB52028380078078
:100FD00094B24480A64AD8F8003011460192DA68EB
:100FE0008A4240F08D818020B84205D8DA680199A4
:100FF0008A4240F09A817F279E4A9B68A8F8047035
:101000009342039240F089814020A04207D8D8F84B
:101010000030039A9B68934240F082813F24009BFA
:10102000A8F8064093F800B06B782C7804936B68AE
:101030000793BBF1000F00F0AC80ABF12005EBB2E1
:101040005E2B00F22E81D8F80030019ADB689342C3
:1010500040F02A818020B8F8043023449842C0F23E
:101060002081D8F80030039A9B68934240F01F819A
:101070004020B8F80610049A02918B189842C0F2EA
:101080001081002A00F01E8102FB05F56FF0004E72
:10109000079BAE441544CDF814B003EB4E0E023B53
:1010A000B8F804A003EB45030D469B463EF8027FCB
:1010B000A4B305F007034FF0010CEA0851460CFAFF
:1010C00003FC0AF110034FFA8CFC03EBC21200235D
:1010D0006FEA0C0942440DE07F2906D83F2D04D861
:1010E000107896B14CEA00001070013301320131E2
:1010F0009C4213D007FA03F00004EDD47F29F4D802
:101100003F2DF2D81078002EECD0013309EA000010
:10111000013201319C4202F8010CEBD1F34505F19B
:101120000105C3D1DDF814B0D8F800200AEB04059E
:101130000199D368ADB28B4240F0BF8080208542D8
:1011400005D3D36801998B4240F0C5807F25936811
:10115000039AA8F80450934240F0AC804020029BD0
:10116000834208D3D8F80030039A9B68934240F03A
:10117000AC803F230293029BA8F80630009A1378B4
:101180005B4506D112F801BF0092BBF1000F7FF45E
:1011900054AF069809B0BDE8F08FB4F90410278861
:1011A0000029B8BF013107EB6107B4F90610A7EBBE
:1011B00063070029BFB2BFF601AF0131FEE6B4F903
:1011C00000700699B4F902400F80BFB24C80A4B2FF
:1011D0008B80CA80FEE6B4F9041027880029B4F990
:1011E0000240B8BF013107EB610706998B80A7EB7E
:1011F00063034C80A4B29FB2CA800F80EAE6A18844
:101200002788B4F902400F4406998B80FB1A4C8062
:10121000A4B29FB2CA800F80DCE6E78861883944B7
:10122000B4F90070081A069984B20F808B80BFB29F
:10123000CA804C80CEE6B4F9041027880029B8BFD4
:10124000013107EB6107A7EB6307B4F802C0BFB237
:10125000E488069964448B80201ACA800F8084B287
:101260004C80B7E62788A1880F44FF1AEDE700BF3E
:101270008D0A0008890A0008B4F90610B4F802C003
:101280000029B4F900700698B8BF0131C2800CEB98
:10129000610407808380BFB2A4EB520294B2448001
:1012A00098E64FF0000B69E740469847D3E6404682
:1012B0009847DEE64046984751E740469847D8F8B9
:1012C00000203CE7B8F804A02EE7404698470138D4
:1012D00083B202934FE7404698470138D8F8002080
:1012E00085B234E7D8F800300024069A12491480F9
:1012F00054809480D480DA6801918A4205D02746D0
:1013000040469047D8F800306EE69B680B4AA8F834
:101310000440934203923FF482AE4046984774E6FD
:1013200040469847013884B279E6404690470138F4
:10133000D8F8003087B25FE68D0A0008890A0008F5
:101340007F291ED83F2A1CD86BB1D3084FF0010C5F
:1013500002F0070201EBC3130CFA02F2C1180B7C76
:101360001A430A747047D3084FF0010C02F00702C9
:1013700001EBC3130CFA02FCC1180A7C22EA0C022E
:101380000A7470472DE9F04F83B05C1A0C9E002C54
:101390009DF83490A6EB0208B8BF6442B8F1000F84
:1013A000B8BFC8F100088B428CBF4FF0010A4FF064
:1013B000FF3A9642A4EB080C51D84FF0FF357F2B33
:1013C000019512D83F2E10D8F50806F0070E012718
:1013D00003EBC5150544B9F1000F47D007FA0EF726
:1013E00095F810E047EA0E072F74964201D18B4220
:1013F00029D0C8F100077F2914D83F2A12D8D50870
:1014000002F0070B4FF0010E01EBC5150544B9F1D1
:10141000000F1BD00EFA0BFE95F810B04EEA0B0E23
:1014200085F810E0B7EB4C0F4FEA4C0502DAACEB55
:10143000080C5144AC4202DD019DA4442A44994267
:10144000D9D19642D7D103B0BDE8F08F0EFA0BFB8D
:1014500095F810E02EEA0B0E85F810E0E2E7012582
:101460007F2B0195C5D83F2EAED9C2E707FA0EFEF5
:101470002F7C964227EA0E072F74B8D0B9E700BF39
:101480002DE9F04F2DED068B83B01F4680460D46AB
:101490009DF8503016460193139B002BC0F2218219
:1014A000129A134406EE103ADDED127AB8EEC66BCE
:1014B0009FEDCD4BB8EEE77B9FEDCD5B27EE047B38
:1014C00026EE046B87EE050B86EE05ABF7EEC08BC0
:1014D000B0EE680A16F0FCF807EE907AB7EECAABE9
:1014E000F8EE679AB0EE408AB0EE680A16F024FC77
:1014F00060EE698AB0EE4A0A16F0EAF8B0EE409A59
:10150000B0EE4A0A16F018FC20EE690A29EE888A25
:1015100029EE899A70EE687AF0EE006A39EE487A20
:1015200067EEA77AE7EE077AF4EEE67AF1EE10FAC4
:1015300006D5139BB42B40F396804FF0010901E0D0
:101540004FF00009012478424FF0000C0095E31B96
:10155000214627462246A340B9F1000F6AD14242F4
:1015600006EE90CACCF1000107EE102AB8EEE66A4A
:1015700007EE901A06EE900AB8EEC77A139A66EE56
:10158000084AF8EEE77AB42A27EE284AF8EEE66A27
:1015900067EE885A74EEC43A26EEA85A26EE096A17
:1015A00066EE806A67EE897A27EE007AF5EEC03A39
:1015B00040F3F280F1EE10FA00F17F8176EE473AC7
:1015C00074EEC54AF5EEC03AF1EE10FAF5EEC04AF7
:1015D000CCBF01220022F1EE10FA00F1778136EE45
:1015E000666A35EEC55AB5EEC06AF1EE10FAB5EE90
:1015F000C05ACCBF01210021F1EE10FA00F16F8139
:1016000077EEE66AF5EEC06AF1EE10FACCBF01277C
:10161000002775EEC45AF5EEC05AF1EE10FA00F14B
:10162000478177EEC77AF5EEC07AF1EE10FACCBFBB
:1016300001240024002A40F08A80002964D1BFB927
:10164000C4BB9C4558DB0CF1010C03EB4C0E1CEBAE
:10165000000F0EF1010E00F0C08098424FDB734680
:1016600000287FF779AF03B0BDEC068BBDE8F08FA3
:10167000009DA6EB0C0E00EB050ABAF17F0FDFD838
:10168000BEF13F0FDCD84FEADE0B019D0AEBCB1A0F
:10169000002D00F0B1800EF0070BC2444FF0010E98
:1016A0000EFA0BFE9AF810B04EEA0B0E8AF810E014
:1016B000002CC6D0009DA6EB0C0EA5EB000ABAF1DB
:1016C0007F0FBED8BEF13F0FBBD84FEADE0B019DA6
:1016D0000AEBCB1A002D00F0AE800EF0070BC244CF
:1016E0004FF0010E9C450EFA0BFE9AF810B04EEA30
:1016F0000B0E8AF810E0A6DA98429E46AFDA013067
:101700000EEB40030133ABE7009D0CEB060E00EB44
:10171000050ABAF17F0F92D8BEF13F0F8FD84FEA7A
:10172000DE0B019D0AEBCB1A002D73D00EF0070BD8
:10173000C2444FF0010E0EFA0BFE9AF810B04EEABA
:101740000B0E8AF810E0002F3FF47AAF90E7009D6F
:101750000CEB060EA5EB000ABAF17F0F3FF66DAF5A
:10176000BEF13F0F3FF669AF4FEADE0B019D0AEB7A
:10177000CB1A002D6DD00EF0070BC2444FF0010EB6
:101780000EFA0BFE9AF810B04EEA0B0E8AF810E033
:1017900000293FF454AFB7E7F1EE10FA7ED44A4681
:1017A00074EEC54AF5EEC04AF1EE10FA6CD4002191
:1017B00035EEC55AB5EEC05AF1EE10FA5AD40027EC
:1017C00075EEC45AF5EEC05AF1EE10FA3FF529AFA6
:1017D0000024002A3FF431AFB9E798428FDB0023A1
:1017E0003BE700BFAFF300807A008BFCFA21094091
:1017F0000000000000806640C2444FF0010B0EF074
:10180000070E0BFA0EFE9AF810B02BEA0E0E8AF8AD
:1018100010E015E7C2444FF0010B0EF0070E0BFA73
:101820000EFE9AF810B02BEA0E0E8AF810E0002F88
:101830003FF406AF1CE7C2444FF0010B0EF0070E59
:101840000BFA0EFE9AF810B02BEA0E0E8AF810E092
:10185000F7E6C2444FF0010B0EF0070E0BFA0EFE36
:101860009AF810B02BEA0E0E8AF810E000293FF427
:10187000E6AE49E777EEE66AF5EEC06AF1EE10FAF9
:10188000CCBF012700279BE736EE666AB5EEC06A3B
:10189000F1EE10FACCBF0121002189E776EE473A3C
:1018A000F5EEC03AF1EE10FACCBF0122002277E744
:1018B0000124002A3FF4C1AE49E774EEC54A012273
:1018C000F5EEC04AF1EE10FA7FF589AE35EEC55A55
:1018D0000121B5EEC05AF1EE10FA7FF591AE012765
:1018E00097E6DDE91223134406EE102A1293139BA8
:1018F0005B421393D8E500BF2DE9F04F87B09DF808
:101900004850109C2E4601959DF844509EB3994234
:101910002ED89946A24228D87F29164694BF002384
:10192000012308E09CF810804EEA080E8CF810E0C5
:101930000136B44219D33F2EFAD8002BF8D14FEA22
:10194000D60C06F0070E4FF0010801EBCC1C08FA8C
:101950000EFE8444002DE5D19CF810B001362BEA30
:101960000E0AB4428CF810A0E5D201318945D1D2DB
:1019700007B0BDE8F08FA3EB0108B8F1000FB8BFC6
:10198000C8F100089942C0F04E817F2B4FF0FF3A1A
:1019900094BF002601263F2A009694BF0027012706
:1019A0000297A6B99FB9D60802F0070C012703EBEE
:1019B000C6160644002D00F0948107FA0CF796F83D
:1019C00010C047EA0C073774002602960096994229
:1019D00000F09781464694468E46BEF17F0F16D89A
:1019E000BCF13F0F13D84FEADC070CF0070B4FF0A8
:1019F00001090EEBC7170744002D00F0398109FAE1
:101A00000BF997F810B049EA0B0987F810907700A6
:101A100018BFD644B84502DD46440CF1FF3C73457F
:101A2000DBD16245D9D100260496A4EB0209009FC0
:101A3000B9F1000FB8BFC9F100093F2C94BF0026CF
:101A40000126A242C9F100080396C0F02381002FAD
:101A500040F05081002E40F04D814FF0FF3600964F
:101A6000E60803EBC6160644002D00F01E814FF079
:101A7000010C04F007070CFA07F796F810C047EAC4
:101A80000C07377400260396A24200F03D81C4463D
:101A900016461F4605927F2F15D83F2E13D84FEAC2
:101AA000D60E06F0070B4FF0010A07EBCE1E864458
:101AB000002D00F0E6800AFA0BFA9EF810B04AEA10
:101AC0000B0A8EF810A0B8EB4C0F4FEA4C0E02DA5E
:101AD000ACEB090C013FBEF1000F01D0009A164497
:101AE000BB42D8D1B442D6D1059AA1EB030EBEF1C8
:101AF000000FB8BFCEF1000E7F2994BF4FF0000A4F
:101B00004FF0010A99428CBF4FF001094FF0FF39A5
:101B1000BAF1000F13D1039E8EB9E60801EBC61689
:101B20000644002D00F0D3804FF0010C04F00707AD
:101B30000CFA07F796F810C047EA0C073774049EB2
:101B400026BB774626467F2B14D83F2E12D84FEA65
:101B5000D60C06F0070B4FF0010803EBCC1C8444B5
:101B6000002D73D008FA0BF89CF810B048EA0B0867
:101B70008CF810805FEA470C18BF4B44E64501DD46
:101B80007744013E9942DED1B442DCD1A2EB040E8F
:101B9000BEF1000FB8BFCEF1000EA2428CBF4FF0D5
:101BA00001084FF0FF38CEF1000CBAF1000F0ED152
:101BB000029B63B9D30802F00707012601EBC313A8
:101BC0000344002D7CD0BE401F7C3E431E74019B0D
:101BD000002B7FF4CDAE66460B467F2B12D83F2CF0
:101BE00010D8E70804F0070A4FF0010903EBC71704
:101BF0000744A5B309FA0AF997F810A049EA0A09B7
:101C000087F81090BCEB460F4FEA460702DAA6EBC6
:101C10000E06013B07B144449942DED1A242DCD119
:101C200007B0BDE8F08F3F2A4FF0010A94BF0026AD
:101C300001267F2B029694BF002701270097002ED4
:101C40007FF4C8AE002F3FF4AEAEC3E608FA0BFB3C
:101C50009CF8108028EA0B088CF810808AE709FAB3
:101C60000AFA97F8109029EA0A0987F81090C9E74C
:101C700009FA0BFB97F8109029EA0B0987F81090E6
:101C8000C5E60AFA0BFB9EF810A02AEA0B0A8EF8AA
:101C900010A018E797BB8EBB01260096E60803EB61
:101CA000C6160644002D7FF4E2AE012704F0070CAF
:101CB000039507FA0CFC377C27EA0C073774E3E638
:101CC00006FA07F71E7C26EA07061E747FE701273F
:101CD00004F0070C07FA0CFC377C27EA0C07377472
:101CE0002DE707FA0CFC377C029527EA0C070095D4
:101CF00037746CE64FF0FF360096C5E60126009675
:101D0000C5E60126049690E601260196EDE600BFA1
:101D100084B070B584B004464FF47A7609AD85E896
:101D20000E009DF8383029460025037105F0AEFC01
:101D3000AE2303AA00968DF80D30204621790223A8
:101D40008DF80C5005F03AFDD52303AA00962046E5
:101D500021798DF80D3002238DF80C5005F02EFD01
:101D6000802303AA0096204621798DF80D300223A6
:101D70008DF80C5005F022FDA82303AA00962046FA
:101D800021798DF80D3002238DF80C5005F016FDE9
:101D90003F2303AA0096204621798DF80D300223B7
:101DA0008DF80C5005F00AFDDA2303AA00962046B0
:101DB00021798DF80D3002238DF80C5005F0FEFCD2
:101DC000122303AA0096204621798DF80D300223B4
:101DD0008DF80C5005F0F2FCD32303AA00962046A0
:101DE00021798DF80D3002238DF80C5005F0E6FCBA
:101DF00003AA00960223217920468DF80C508DF815
:101E00000D5005F0DBFC402303AA00962046217903
:101E10008DF80D3002238DF80C5005F0CFFCA62371
:101E200003AA0096204621798DF80D3002238DF803
:101E30000C5005F0C3FCA42303AA00962046217988
:101E40008DF80D3002238DF80C5005F0B7FC8D2372
:101E500003AA0096204621798DF80D3002238DF8D3
:101E60000C5005F0ABFC142303AA00962046217900
:101E70008DF80D3002238DF80C5005F09FFCA12346
:101E800003AA0096204621798DF80D3002238DF8A3
:101E90000C5005F093FCC82303AA00962046217934
:101EA0008DF80D3002238DF80C5005F087FC81234E
:101EB00003AA0096204621798DF80D3002238DF873
:101EC0000C5005F07BFC8F2303AA00962046217955
:101ED0008DF80D3002238DF80C5005F06FFCD923DE
:101EE00003AA0096204621798DF80D3002238DF843
:101EF0000C5005F063FC252303AA009620462179A7
:101F00008DF80D3002238DF80C5005F057FCDB23C3
:101F100003AA0096204621798DF80D3002238DF812
:101F20000C5005F04BFC342303AA0096204621797F
:101F30008DF80D3002238DF80C5005F03FFCAF21D9
:101F4000009603AA02238DF80D10204621798DF802
:101F50000C5005F033FC04B0BDE8704004B070478D
:101F60002DE9F04F0021AF48DFF8F0B20125002441
:101F7000AD4FDFF8F8A2DFF8F892DFF8F8822DED28
:101F8000028B9BB003F028FE0E2003F041FD0346B8
:101F90000D2014AEADF82C3003F03AFD03460A20B4
:101FA000ADF8303003F034FDADF834009FED9F0AFA
:101FB0000C9A0B990D9B9E4804F05EFF584601F069
:101FC00091FA3C23102217948DF86430994B1494A5
:101FD0008DF86020CDE915351AAB13E907008DE8BF
:101FE0000700954896E80E00FFF792FE934864219B
:101FF00000F076FC2946914800F010FB894A022146
:102000008F4801F0BDFC874803F020FD8D4803F0A8
:1020100027F902218B4802F073FE07F043F9A7FB72
:102020000037032310A9BF0C8748109340F2E73311
:10203000013F119412938DF84C5006F0E9FD39469A
:10204000814806F05FFE224680497F4806F060FE28
:1020500022460421322003F0FDFB7B4806F040FEBF
:1020600041F2873331467A4816938DF85C50CDE9BA
:10207000145406F0CDFD3946754806F043FE22465D
:102080007449734806F044FE224604211D2003F0E3
:10209000E1FB6F4806F024FEDBF82010DBED038A3D
:1020A0009BED020A9BED058A65480591DBF810500F
:1020B000DBF82440DBE9066702F07CFDB0EE680A3D
:1020C0005F4802F04BFDB8EEC80A5D4802F0ACFD77
:1020D00005995B48C9B202F01BFC5948FAB2E9B253
:1020E00002F0EAFA5648F1B202F0E2FA5548E1B2DB
:1020F00002F006FE58494B4803F0A4FC06F0D8FE57
:10210000074606F0D5FE4A4B044693F82430FF2BD1
:1021100000F0EC80DAF80030A3F5FA63B3F5FA6F5B
:10212000C0F00D810023CAF8003072B60023D8F841
:102130000050C8F8003099F8006089F80030F6B215
:1021400062B65DBB56BB2146444801F037FB444BA9
:102150001B78ABB94349E21B0B689A42D1D39BF879
:102160000460002E40F088804FF4FA7333480B600F
:10217000012100F053FA3148274600F0E3FBC0E7A5
:102180000023374A2E490EA8137002F0C9FB0E9B9C
:10219000354A13609DF83C301371DBE7002D40F3A6
:1021A0009080002301222D48194601F0B7F9013D26
:1021B000F7D1002E40F09380DBF82010DBF82430BC
:1021C0009BED020ADBED038ADBF810609BED058ACC
:1021D00006910593DBE90652079272B6184802F0A1
:1021E000E9FCB0EE680A164802F0B8FCB8EEC80A7E
:1021F000134802F019FD06991148C9B202F088FB94
:10220000059B1048D9B202F07BFD079AF1B20C4849
:10221000D2B202F051FA0A48E9B202F049FA62B6C3
:1022200091E700BFC811002483DE1B4300000000BB
:102230006011002401080109380500244009002428
:102240008812002428170024BC1100240D0B00085C
:1022500020170024790A0008A50A00083C1200246F
:10226000241700240C000024040000242C05002462
:10227000C0110024C4110024DBF810300221814871
:102280000593DBF81430DBED028A0893DBF8183095
:102290009BED038A0993DBF81C309BF805500793EC
:1022A000DBE90873069300F0B9F9731E0A2B3FF6B9
:1022B00062AFDFE803F0BEB1A39D968F89837D777F
:1022C00071003FF476AF00234FF0FF326E4819469D
:1022D00001F024F90135F6D1002E3FF46DAF002353
:1022E000012169481A4601F019F965E706F0E0FD99
:1022F00007EE900A654BF8EE677A93ED0A7A77EE6F
:10230000C77AFCEEE77A17EE903ACAED007AB3F599
:102310007A6F2FD2B3F5FA6FFFF407AF5C495948D3
:1023200000F094F90021574800F078F9554800F082
:1023300009FB72B6002389F8003062B6F5E655490C
:10234000504800F083F900214E4800F067F94D48ED
:1023500000F0F8FAC82006F0ADFDBFF34F8F4E49EC
:102360004E4BCA6802F4E0621343CB60BFF34F8F59
:1023700000BFFDE74A49434800F068F900214148A1
:1023800000F04CF93F4800F0DDFAC82006F092FD5D
:10239000002006F091FDC8E63A464249394800F06F
:1023A0007DFFE8E6079A4049364800F077FFE2E60D
:1023B000059A3E49334800F071FFDCE6099A3C4932
:1023C000304800F06BFFD6E6089A3A492D4800F0F5
:1023D00065FFD0E6B0EE680A37492A4800F0A6FE4D
:1023E000C9E6B0EE480A3549264800F09FFEC2E62D
:1023F000069A3349234800F051FFBCE6092D29D045
:102400000A2D36D00B2D36D00C2D14BF0021032100
:102410001C4800F06BFDAEE6062D1FD0052D24D024
:10242000072D2AD0082D1ED00C2D14BF0021042109
:1024300015E06423234A022D13600DD0032D16D01E
:10244000042D1CD00C2D14BF002103210D4800F0D9
:10245000E1FA90E60021DBE70021F7E700210948D7
:1024600000F0F8FB87E60321F9E70121F7E70121F6
:10247000ECE70121CCE70221CAE70221EFE70221C4
:10248000E4E700BF400900243C120024601100244E
:102490004C8A01085C8A010800ED00E00400FA059E
:1024A0003C8A0108A48A01089C8A0108948A0108D0
:1024B000888A01087C8A01086C8A0108748A0108EC
:1024C000AC8A01080C000024F8B52E4800242E4DDB
:1024D0004FF60B766FF0F4132C492A460460C36064
:1024E0004461046204672A4FC0E90133C0E90A6409
:1024F000C0E90F64C0E91664C0E90C44C0E91144A6
:10250000C0E9184415F0D8F822482A462249C0E903
:102510000464C0E90B64C0E91064C0E90644C0E982
:102520000D44C0E9124415F0C7F81C4E1C4B2A4656
:10253000B460304633601B4915F0BEF831460122C5
:10254000194800F03FF8194E384601F047F92A467D
:102550001749384615F0B0F8304602F08FFB2A468E
:102560001449304615F0A8F813482A461349046068
:1025700015F0A2F812482A4610490460BDE8F84058
:1025800015F09AB8C811002400000024750A00084C
:102590008812002460110024710A0008300500240C
:1025A000BC8A0108850A0008400900242817002475
:1025B00051390008FD4C0008BC1100246D0A0008C8
:1025C0002017002480232DE9F04100274FF0010857
:1025D000C0F808380446104B0D4616463946C0F878
:1025E00014384FF48062C0F80C780830C0F81488B2
:1025F00015F022FD4FF48062394604F5816015F034
:102600001BFD1423204684F81068256084F804809C
:10261000C4F81838BDE8F081F48A010838B50446DA
:102620000068094A0D4603681B69934207D14FF4BD
:1026300080620021103015F0FFFC257138BD0021AB
:102640009847257138BD00BF910A000879B1037918
:10265000C0F814185BB900680649026812698A421A
:1026600006D14FF480621946103015F0E5BC704772
:1026700019461047910A0008D0F80C28531C00EBAB
:102680008202594282ED020ADBB2CAB258BF5342FB
:10269000C0F80C38704700BF90F8103813B91F4BC2
:1026A00018687047D0F80C38D0F80828013300B506
:1026B00003EB020E73452DDA5942DAB2C9B258BFA4
:1026C0004A4200EB8202D2ED027A01E0734521D04A
:1026D0009C460133B0EE677A5942DAB2B5EEC07A61
:1026E000C9B258BF4A42F1EE10FA00EB8202D2EDB5
:1026F000027AEBD5F5EEC07AF1EE10FAE6DBDCF10A
:1027000000035FFA8CF0054ADBB258BF58421060F4
:102710005DF804FB014B18685DF804FB50240624A7
:102720002DE9F04F046887B0064623682046DB6831
:102730009847002840F0CB8023682046DB68984704
:10274000013883B222682046A380936898472028E6
:1027500000F2BB80236820469B689847013883B20B
:102760003068E38003685C4A1B69934240F0B180A3
:102770004FF480620021103015F05EFC3046FFF708
:102780008BFFD6F808380590002B7CDDC3B282465B
:102790000127B0460493DAF100040AF1010A049A11
:1027A00007F1FF31E4B2D8F81838D8F800005FFA22
:1027B0008AF658BF6242DAF1000407EE903A0368E5
:1027C000E4B204969D6908EB8202334658BF634227
:1027D000F8EEE77A92ED027A08EB830327EE877A28
:1027E000D3ED026A3D4B67EEA67ABDEEC77A9D42F5
:1027F000FDEEE77A17EE102A17EE906AC2F120027A
:10280000C6F1200682F3060286F30606144656D168
:10281000A6EB0209B9F1000FB8BFC9F10009B24235
:10282000C9F1010536D201237F2F039337D9C9F1AE
:10283000000E4FF0010CE30804F007027F2901EBC2
:10284000C31305FA0CFB0CFA02F207D83F2C034421
:1028500004D893F810C042EA0C021A74BEEB450F7C
:1028600014DABBF1000FA5EB090501F101010DDD43
:10287000B942DED1A642DCD1D8F808380137059A32
:102880001344534587DC07B0BDE8F08F039B013547
:102890001C44EDE74FF0FF337F2F0393C7D8F308B5
:1028A0004FF0010C06F0070207EBC3130CFA02F21B
:1028B000034493F810C042EA0C021A74B7E70123EC
:1028C000009601933B46A847D6E7202348E700231C
:1028D00038E70021984751E7910A0008851300085E
:1028E000C0F81818704700BF30B5046883B00546BB
:1028F00023682046DB689847F0B923682046DB68E8
:102900009847013883B222682046A380936898478D
:10291000A0B9236820469B689847013883B228688D
:10292000074AE38001230468D5F814180093A46AC9
:102930000CCAA04703B030BD0023E4E70023EEE754
:102940007401002403792DE9F047044684B0002B7C
:1029500055D0012B01D1FFF7E3FE26682C4A3368DE
:102960001B6B93424ED106F1080806F18F0706F261
:102970008F4A4FF0B00900244FF47A75022303AA5E
:102980008DF80C4040468DF80D90317B009504F099
:1029900015FF8DF80C408DF80D400223317B03AA02
:1029A0004046009504F00AFF10238DF80C4003AA5E
:1029B0008DF80D304046317B02230095A7F180044D
:1029C00004F0FCFE40214FF47A75022303AA8DF82F
:1029D0000C10404614F8011F8DF80D10317B009546
:1029E00004F0ECFEBC42EDD104F1800709F10109CD
:1029F000BA455FFA89F9BED104B0BDE8F087FFF7A8
:102A000073FFAAE7304604B0BDE8F047184700BF9F
:102A1000450B0008F0B505460068864A83B0036898
:102A20000C461B69934240F001814FF48062002103
:102A3000103015F001FB2E6833683046DB6898478C
:102A4000002840F0F18033683046DB689847013851
:102A500083B232683046B38093689847002840F0CC
:102A6000E180336830469B689847013883B2286814
:102A70000122F3800368704E009270499F6A96E8C5
:102A80000C00B8472F683B683846DB6898470A282F
:102A900000F2C6803B683846DB689847013883B24D
:102AA000BB8038463B689B6898470D2800F2B6808B
:102AB0003B6838469B689847013883B228680122F2
:102AC000FB8003685E4900929F6A96E80C00B84755
:102AD0002F683B683846DB6898470A2800F29C80DC
:102AE0003B683846DB689847013883B2BB8038467C
:102AF0003B689B689847172800F28C803B683846F3
:102B00009B689847013883B228680122FB800368DC
:102B10004C4900929F6A96E80C00B8472F683B68C2
:102B20003846DB6898470A2872D83B683846DB6825
:102B30009847013883B2BB8038463B689B6898470A
:102B4000212863D83B6838469B689847013883B290
:102B500028680122FB8003683B4900929F6A96E83F
:102B60000C00B8472F683B683846DB6898470A284E
:102B70004AD83B683846DB689847013883B2BB8047
:102B800038463B689B6898472B283BD83B683846BB
:102B90009B689847013883B228680122FB8004EBC8
:102BA000840403682949640000929F6A0D3496E802
:102BB0000C00B8472F68A4B23B683846DB689847DA
:102BC000F0B93B683846DB689847013883B2BB8070
:102BD00038463B689B689847844205D33B68384633
:102BE0009B689847013884B228680123FC800168FB
:102BF00000938C6A164996E80C00A04703B0F0BD1C
:102C00000023E4E72B23C7E70A23B8E721239FE744
:102C10000A2390E7172377E70A2367E70D234DE799
:102C20000A233DE7002322E7002312E7002198470B
:102C300001E700BF910A00087C010024008B010815
:102C4000108B01081C8B0108248B01082C8B0108B8
:102C5000348B0108F0B504460068984A83B00368D5
:102C60000D461B69934240F03D814FF48062002184
:102C7000103015F0E1F9266833683046DB68984774
:102C8000002840F02D8133683046DB6898470138D2
:102C900083B232683046B38093689847002840F08A
:102CA0000B81336830469B689847013883B22068AF
:102CB0000122F3800368824E009282499F6A96E85F
:102CC0000C00B84727683B683846DB6898470A28F5
:102CD00000F2F0803B683846DB689847013883B2E1
:102CE000BB8038463B689B6898470D2800F2E0801F
:102CF0003B6838469B689847013883B220680122B8
:102D0000FB800368704900929F6A96E80C00B84700
:102D100027683B683846DB6898470A2800F2C68077
:102D20003B683846DB689847013883B2BB80384639
:102D30003B689B689847172800F2B6803B68384686
:102D40009B689847013883B220680122FB800368A2
:102D50005E4900929F6A96E80C00B84727683B6876
:102D60003846DB6898470A2800F29C803B68384662
:102D7000DB689847013883B2BB8038463B689B6864
:102D80009847212800F28C803B6838469B6898471A
:102D9000013883B220680122FB8003684C4900920D
:102DA0009F6A96E80C00B84727683B683846DB689E
:102DB00098470A2872D83B683846DB68984701383C
:102DC00083B2BB8038463B689B6898472B2863D802
:102DD0003B6838469B689847013883B220680122D7
:102DE000FB8003683B4900929F6A96E80C00B84755
:102DF00027683B683846DB6898470A284AD83B680A
:102E00003846DB689847013883B2BB8038463B6858
:102E10009B68984735283BD83B6838469B6898475D
:102E2000013883B220680122FB8005EB8505036829
:102E300029496D0000929F6A0D3596E80C00B8474D
:102E40002768ADB23B683846DB689847F0B93B6805
:102E50003846DB689847013883B2BB8038463B6808
:102E60009B689847854205D33B6838469B689847DE
:102E7000013885B220680123FD80016800938C6AC7
:102E8000164996E80C00A04703B0F0BD0023E4E724
:102E90003523C7E70A23B8E72B239FE70A2390E7E8
:102EA000212377E70A2367E717234DE70A233DE746
:102EB0000D2323E70A2313E70023F8E6910A00080D
:102EC0007C010024388B0108488B0108508B0108D5
:102ED000588B0108648B0108708B0108348B010842
:102EE0000023D6E600219847C5E600BFF0B50546A9
:102EF0000068864A83B003680C461B69934240F021
:102F000001814FF480620021103015F095F82E6891
:102F100033683046DB689847002840F0F18033681A
:102F20003046DB689847013883B232683046B38058
:102F300093689847002840F0E180336830469B68EA
:102F40009847013883B228680122F3800368704EE5
:102F5000009270499F6A96E80C00B8472F683B685A
:102F60003846DB6898470A2800F2C6803B68384636
:102F7000DB689847013883B2BB8038463B689B6862
:102F800098470D2800F2B6803B6838469B68984702
:102F9000013883B228680122FB8003685E490092F1
:102FA0009F6A96E80C00B8472F683B683846DB6894
:102FB00098470A2800F29C803B683846DB689847AF
:102FC000013883B2BB8038463B689B689847172816
:102FD00000F28C803B6838469B689847013883B282
:102FE00028680122FB8003684C4900929F6A96E89A
:102FF0000C00B8472F683B683846DB6898470A28BA
:1030000072D83B683846DB689847013883B2BB808A
:1030100038463B689B689847212863D83B68384608
:103020009B689847013883B228680122FB800368B7
:103030003B4900929F6A96E80C00B8472F683B68AE
:103040003846DB6898470A284AD83B683846DB6828
:103050009847013883B2BB8038463B689B689847E5
:103060002B283BD83B6838469B689847013883B289
:1030700028680122FB8004EB84040368294964006A
:1030800000929F6A0D3496E80C00B8472F68A4B2EE
:103090003B683846DB689847F0B93B683846DB68E0
:1030A0009847013883B2BB8038463B689B68984795
:1030B000844205D33B6838469B689847013884B200
:1030C00028680123FC80016800938C6A164996E801
:1030D0000C00A04703B0F0BD0023E4E72B23C7E7B3
:1030E0000A23B8E721239FE70A2390E7172377E70E
:1030F0000A2367E70D234DE70A233DE7002322E774
:10310000002312E70021984701E700BF910A000859
:103110007C010024788B0108848B0108908B0108C6
:103120009C8B0108708B0108348B010870B5044634
:103130000068544A0E4603681B6993422DED028BCA
:10314000B0EE408A86B040F099804FF48062002152
:10315000103014F071FF25682B682846DB6898470B
:1031600000287FD12B682846DB689847013883B256
:103170002A682846AB809368984700287CD12B6842
:1031800028469B689847013883B220680121EB806C
:1031900002683D4B00913D49956A0CCBA8472568D4
:1031A0002B682846DB689847002863D12B6828469F
:1031B000DB689847013883B22A682846AB80936859
:1031C00098470C2854D82B6828469B6898470138A4
:1031D00083B220683146EB80012203682C4E0092B6
:1031E0009D6A96E80C00A847FDEEC87A9FED297A03
:1031F00002A82949F8EEE76A17EE902A78EE667A77
:1032000067EE877AFDEEE77A17EE903A002BB8BFAB
:103210005B4214F0CFFF25682B682846DB6898478F
:1032200020BB2B682846DB689847013883B2AB8007
:1032300028462B689B689847232815D82B68284672
:103240009B689847013883B220680121EB800468AD
:1032500096E80C00009102A9A46AA04706B0BDEC54
:10326000028B70BD002383E72323EDE70023DEE715
:103270000C23AEE700239FE7002386E70021984751
:1032800069E700BF910A00087C010024A48B0108B3
:10329000740100240000C842AC8B01082DE9F04104
:1032A0000446006817467D4A036886B00E461B69CF
:1032B000934240F0D2804FF480621030002114F02D
:1032C000BBFE25682B682846DB68984700286FD12D
:1032D0002B682846DB689847013883B2AB802846C4
:1032E0002B689B689847002868D12B6828469B6804
:1032F0009847013883B220680121EB800268684B4F
:1033000000916849956A0CCBA84725682B68284628
:10331000DB68984700284FD12B682846DB68984720
:10332000013883B2AB8028462B689B6898470F28EA
:1033300040D82B6828469B689847013883B220689C
:103340000122EB8031460368DFF8948100929D6A88
:1033500098E80C00A84754493046FCF7C1FF002804
:1033600069D052493046FCF7BBFF48B3504930465C
:10337000FCF7B6FF00287AD04E493046FCF7B0FF84
:10338000002800F084804C493046FCF7A9FF002853
:1033900066D17B42494A07F0030702AE03F00303FC
:1033A000304658BF5F4252F8271014F023FF18E050
:1033B000002393E70F23C2E70023B3E700239AE734
:1033C0003F4AFB173F4902AE82FB070230463A44B0
:1033D000C3EBA203C3EBC303FF1A51F8271014F089
:1033E00009FF25682B682846DB689847F8B92B68E1
:1033F0002846DB689847013883B2AB8028462B68A3
:103400009B689847262814D82B6828469B689847BD
:10341000013883B220680121EB80046800913146B5
:10342000A46A98E80C00A04706B0BDE8F08100232C
:10343000E3E72623EEE7244AFB1702AE234982FB8B
:1034400007023046C3EB620303EB4303A7EB83079A
:1034500051F8271014F0CEFEC3E70021984730E75B
:1034600002AE3A461A49304614F0A4FEB9E7194BA9
:1034700002AE194A83FB07133046A3EBE77303EB55
:103480004303FF1A52F8271014F0B4FEA9E702AE66
:103490003A461249304614F08DFEA2E7910A000820
:1034A0007C010024B48B0108948A01089C8A0108DD
:1034B000AC8A01087C8A0108888A0108BC8C010852
:1034C00093244992A08C0108ABAAAA2A708C010807
:1034D000C88B010856555555CC8C0108C08B010886
:1034E000740100244FF07E520023DFF82CC002212B
:1034F00010B5C2600422838004460361C361C0F832
:1035000008C0C0E90513C0E9082305F0D1FC012378
:10351000A064637010BD00BF00004842F8B50446C7
:103520001E460F46154605F0C3FCA06476B1002385
:10353000012223716270002D3BD05A1FD2B2032AA0
:1035400046D80222134662706371F8BD4FB16378AA
:103550000C2B12D02371032BEFD8DFE803F0524F6E
:1035600036282379002DE8D01A1F072A11D8DFE862
:1035700002F04B536581899991A12379012B00F0C9
:10358000A2809A1E022AE6D80122022322716370C9
:103590000FE0022B0FD0032B24D1002D637800F312
:1035A000DB80092B00F0F3800A2B40F0DF80092339
:1035B00063706378C8E7002D637800F3B180062B51
:1035C00000F0E580052B40F0B78006236370F0E73C
:1035D000A3F10902022A00F29B80032213466270C3
:1035E0006371F8BD012BA8D1002D637800F3C98069
:1035F000022B00F0CC80032B40F0CC8002236370C0
:10360000D7E701236370D4E7626AAA1869D4022A53
:10361000C8BF0222626290E707EE905A9FED657A7A
:10362000F8EEE76AD4ED037AE6EE877AF4EEC77A2D
:10363000F1EE10FA4AD584ED037A7EE707EE905A50
:10364000F1EE046AB7EE007AB8EEE76AD4ED027ADA
:10365000E6EE267AF4EEC77AF1EE10FA44D49FED46
:10366000567AF4EEC77AF1EE10FA77FE277AC4EDB7
:10367000027A62E76269AA1839D4142AC8BF1422F0
:1036800062615AE7A269AA1837D4032AC8BF032285
:10369000A26152E7E269AA182CD4062AC8BF062202
:1036A000E2614AE72269AA182AD40B2AC8BF0B2272
:1036B000226142E7226A1544002D24DD082D25DD14
:1036C0000822226239E72671637072E7B0EE007A51
:1036D000F4EEC77AF1EE10FA77FE277AC4ED037A9A
:1036E0002BE70022626228E784ED027A25E70022B8
:1036F000626122E70022E2611FE70022A2611CE76B
:103700000022226119E70122226216E7256214E7EE
:10371000042B7FF44EAF0122134662706371F8BD33
:10372000062B0BD0052B0ED0072B12D0082B2ED03A
:103730000C2B7FF43EAF48E7072B02D105236370C3
:1037400037E7082B02D10723637032E70C2B7FF495
:1037500030AF082363702CE7092B09D00A2B0DD05A
:103760000B2B14D00C2B7FF424AF20E70B2B02D1B2
:103770000A2363701DE70C2B7FF41BAF0B236370D0
:1037800017E7022B08D0032B0CD0042B0DD10C23F0
:1037900063700EE7042B02D10323637009E70C2B3F
:1037A0007FF407AF0423637003E70C2B7FF401AFB2
:1037B00024E700BFCDCCCC3D0000C84203795BB10B
:1037C000836C41F28732CB1A934205D901224FF420
:1037D0008073816442708380704700BF2DE9F04F91
:1037E000012100245A230546564A87B0037505F582
:1037F0007A78C16305F23C4A80F82C3080F8483072
:1038000040F20323C26042620264C0E90141C0E9A0
:1038100007410321C0E90D4485F8501054302B8333
:103820002B8601F0B9FE05F5847001F0B5FE05F5B3
:10383000DE7001F0B1FE05F51C7001F0ADFE05F57E
:10384000497001F05BFE4FF080404FF07E52002344
:10385000C5F848034FF0FF30C5F84C2305F58A6CD6
:10386000394A3A49C5F8400340F2047085F83D43AF
:103870000C46C5F8443305F57371C5F8543304F1AB
:103880001C09C5F860330E46C5F8582304F1380703
:10389000C5F85C2305F58462C5F8643305F204437A
:1038A000A5F8500304F1B400019304F1540302920B
:1038B00005F59062039304F1700B059004F1840EFA
:1038C00004920FCC0FC694E8070086E80700B9E819
:1038D0000F00A8E80F0099E80700019C88E807009E
:1038E0000FCF0FC4039B97E807001E4684E807002C
:1038F0000FCE029C27460FC796E8070087E807000F
:10390000BBE80F00AAE80F00DBF80030CAF800306F
:10391000BEE80F00ACE80F00BEE80F00ACE80F00F7
:103920009EE80F008CE80F000598049C06460FCE19
:103930000FC496E8030084E80300284607B0BDE8FA
:10394000F08F00BF0108010900004842AC8801085F
:1039500010B5044600F5497001F0DEFD04F51C7059
:1039600001F08CFE04F5DE7001F088FE04F5847031
:1039700001F084FE04F1540001F080FE204610BDE9
:103980002DE9F04F044699B00125406823690DF1F7
:10399000480EA5600DF1480AA16804F11C0C2260D4
:1039A00008AFE26804F134060DF134084FF00A095B
:1039B0000DF11F0BAEE80F00238B6069AEF80430E9
:1039C000BEF80430CEF80000BE46E0622386BAE8B6
:1039D0000F00E06121626262A362BCE80F000FC7C2
:1039E0004FF010030D908DF84430DCF800303B6050
:1039F0004FF0000784F8483000230890CDE90F53BA
:103A0000BDF82830ADF83830BDF82A30ADF83A307E
:103A1000BEE80F00A0633046E16341462264636460
:103A200003F034FECDF800805E22CDE9015994F810
:103A30004C3094F84810002818BF43F0010330467A
:103A400084F84C3063238DF81F302B4603F0DEFEE4
:103A5000CDF800805E22CDE9015994F84C3094F8FD
:103A60004810002818BF43F00103304684F84C305A
:103A70009DF834308DF834708DF820302B4603F0EB
:103A8000EDFECDF800B08022CDE9015994F84C301C
:103A900094F84810002818BF43F00103304684F81A
:103AA0004C302B4603F0DAFE08AB5E220093CDE9E2
:103AB000015994F84C3094F84810002818BF43F08E
:103AC0000103304684F84C302B4603F0C7FE94F8CF
:103AD0004C30002818BF43F00103284684F84C30CE
:103AE00005F0E8F92B465E22CDF8008030468DF8CF
:103AF0003470CDE9015994F8481003F0AFFECDF8C9
:103B000000802B46CDE9015994F84C2094F84810D8
:103B1000002818BF42F00102304684F84C205D2294
:103B200003F074FE94F84C30002818BF43F00103F2
:103B300084F84C309DF83430242B10D020680121BB
:103B400001F088FF2068642101F078FF20680021DF
:103B500001F080FF6421206801F070FFEEE794F827
:103B600030304FF04109049394F83130059301252A
:103B70000A27049B5E22CDF8008030468DF81F3066
:103B80002B464FF0000ACDE9015794F8481003F096
:103B90003DFECDF800805E22CDE9015794F84C300F
:103BA00094F84810002818BF43F00103304684F809
:103BB0004C309DF834308DF834A08DF820302B46F1
:103BC00003F04CFECDF800B04A46CDE9015794F819
:103BD0004C3094F84810504518BF43F0010330466C
:103BE00084F84C302B4603F039FE08AB5E2200937C
:103BF000CDE9015794F84C3094F84810504518BF5F
:103C000043F00103304684F84C302B4603F026FE87
:103C1000059BCDF800805E228DF81F30CDE901575D
:103C200094F84C3094F84810504518BF43F0010305
:103C3000304684F84C302B4603F0E8FDCDF8008088
:103C40005E22CDE9015794F84C3094F84810504565
:103C500018BF43F00103304684F84C309DF83430EF
:103C60008DF834A08DF820302B4603F0F7FDCDF809
:103C700000B009EB050209F10209CDE9015794F8FA
:103C80004C3092B294F848101FFA89F9504518BF89
:103C900043F00103304684F84C302B4603F0DEFD40
:103CA00008AB5E220093CDE9015794F84C3094F8AC
:103CB0004810504518BF43F00103304684F84C309B
:103CC0002B4603F0CBFD94F84C30504518BF43F021
:103CD0000103B9F1590F84F84C307FF448AF2B46FB
:103CE0005E22CDF8008030468DF81F50CDE9015797
:103CF00094F8481003F08AFDCDF800805E22CDE9EB
:103D0000015794F84C3094F84810504518BF43F0D0
:103D10000103304684F84C309DF834308DF834A0DF
:103D20008DF820302B4603F099FDCDF800B02B2202
:103D3000CDE9015794F84C3094F84810504518BF1D
:103D400043F00103304684F84C302B4603F086FDE7
:103D500008AB5E220093CDE9015794F84C3094F8FB
:103D60004810504518BF43F00103304684F84C30EA
:103D70002B4603F073FDCDF800805E228DF81F50B6
:103D8000CDE9015794F84C3094F84810504518BFCD
:103D900043F00103304684F84C302B4603F036FDE7
:103DA000CDF800805E22CDE9015794F84C3094F8AC
:103DB0004810504518BF43F00103304684F84C309A
:103DC0009DF834308DF834A08DF820302B4603F068
:103DD00045FDCDF800B02C22CDE9015794F84C30C8
:103DE00094F84810504518BF43F00103304684F85A
:103DF0004C302B4603F032FD08AB5E220093CDE938
:103E0000015794F84C3094F84810504518BF43F0CF
:103E10000103304684F84C302B4603F01FFDCDF8EB
:103E200000805E22CDE9015794F84C3094F8481098
:103E3000504518BF43F00103304684F84C300E2340
:103E40008DF81F302B4603F0E1FCCDF800805E2298
:103E5000CDE9015794F84C3094F84810504518BFFC
:103E600043F00103304684F84C309DF834308DF82F
:103E700034A08DF820302B4603F0F0FCCDF800B0D4
:103E80002D22CDE9015794F84C3094F84810504554
:103E900018BF43F00103304684F84C302B4603F042
:103EA000DDFC08AB5E220093CDE9015794F84C305D
:103EB00094F84810504518BF43F00103304684F889
:103EC0004C302B4603F0CAFCCDF800805E228DF802
:103ED0001FA0CDE9015794F84C3094F84810504594
:103EE00018BF43F00103304684F84C302B4603F0F2
:103EF0008DFCCDF800805E22CDE9015794F84C305E
:103F000094F84810504518BF43F00103304684F838
:103F10004C309DF834308DF834A08DF820302B468D
:103F200003F09CFCCDF800B02E22CDE9015794F8A7
:103F30004C3094F84810504518BF43F00103304608
:103F400084F84C302B4603F089FC08AB5E220093CA
:103F5000CDE9015794F84C3094F84810504518BFFB
:103F600043F00103304684F84C302B4603F076FCD6
:103F7000CDF800805E228DF81F50CDE9015794F8EE
:103F80004C3094F84810504518BF43F001033046B8
:103F900084F84C302B4603F039FCCDF800805E22CB
:103FA000CDE9015794F84C3094F84810504518BFAB
:103FB00043F00103304684F84C309DF834308DF8DE
:103FC00034A08DF820302B4603F048FCCDF800B02B
:103FD0002F22CDE9015794F84C3094F84810504501
:103FE00018BF43F00103304684F84C302B4603F0F1
:103FF00035FC08AB5E220093CDE9015794F84C30B4
:1040000094F84810504518BF43F00103304684F837
:104010004C302B4603F022FCCDF800805E22CDE927
:10402000015794F84C3094F84810504518BF43F0AD
:104030000103304684F84C3005238DF81F302B46A1
:1040400003F0E4FBCDF800805E22CDE9015794F83F
:104050004C3094F84810504518BF43F001033046E7
:1040600084F84C309DF834308DF834A08DF8203031
:104070002B4603F0F3FBCDF800B03022CDE9015719
:1040800094F84C3094F84810504518BF43F00103A1
:10409000304684F84C302B4603F0E0FB08AB5E2240
:1040A0000093CDE9015794F84C3094F848105045EE
:1040B00018BF43F00103304684F84C302B4603F020
:1040C000CDFBCDF800805E228DF81F50CDE9015761
:1040D00094F84C3094F84810504518BF43F0010351
:1040E000304684F84C302B4603F090FBCDF800802E
:1040F0005E22CDE9015794F84C3094F848105045B1
:1041000018BF43F00103304684F84C309DF834303A
:104110008DF834A08DF820302B4603F09FFBCDF8AE
:1041200000B03122CDE9015794F84C3094F8481092
:10413000504518BF43F00103304684F84C302B46FD
:1041400003F08CFB08AB5E220093CDE9015794F895
:104150004C3094F84810504518BF43F001033046E6
:1041600084F84C302B4603F079FBCDF800805E22BA
:104170008DF81FA0CDE9015794F84C3094F8481001
:10418000504518BF43F00103304684F84C302B46AD
:1041900003F03CFBCDF800805E22CDE9015794F896
:1041A0004C3094F84810504518BF43F00103304696
:1041B00084F84C309DF834308DF834A08DF82030E0
:1041C0002B4603F04BFBCDF800B03222CDE901576E
:1041D00094F84C3094F84810504518BF43F0010350
:1041E000304684F84C302B4603F038FB08AB5E2297
:1041F0000093CDE9015794F84C3094F8481050459D
:1042000018BF43F00103304684F84C302B4603F0CE
:1042100025FBCDF800805E228DF81FA0CDE9015767
:1042200094F84C3094F84810504518BF43F00103FF
:10423000304684F84C302B4603F0E8FACDF8008085
:104240005E22CDE9015794F84C3094F8481050455F
:1042500018BF43F00103304684F84C309DF83430E9
:104260008DF834A08DF820302B4603F0F7FACDF806
:1042700000B03322CDE9015794F84C3094F848103F
:10428000504518BF43F00103304684F84C302B46AC
:1042900003F0E4FA08AB5E220093CDE9015794F8ED
:1042A0004C3094F84810504518BF43F00103304695
:1042B00084F84C302B4603F0D1FACDF800805E2212
:1042C0008DF81FA0CDE9015794F84C3094F84810B0
:1042D000504518BF43F00103304684F84C302B465C
:1042E00003F094FACDF800805E22CDE9015794F8EE
:1042F0004C3094F84810504518BF43F00103304645
:1043000084F84C309DF834308DF834A08DF820308E
:104310002B4603F0A3FACDF800B03422CDE90157C3
:1043200094F84C3094F84810504518BF43F00103FE
:10433000304684F84C302B4603F090FA08AB5E22EE
:104340000093CDE9015794F84C3094F8481050454B
:1043500018BF43F00103304684F84C302B4603F07D
:104360007DFACDF800805E228DF81FA0CDE90157BF
:1043700094F84C3094F84810504518BF43F00103AE
:10438000304684F84C302B4603F040FACDF80080DC
:104390005E22CDE9015794F84C3094F8481050450E
:1043A00018BF43F00103304684F84C309DF8343098
:1043B0008DF834A08DF820302B4603F04FFACDF85D
:1043C00000B03522CDE9015794F84C3094F84810EC
:1043D000504518BF43F00103304684F84C302B465B
:1043E00003F03CFA08AB5E220093CDE9015794F844
:1043F0004C3094F84810504518BF43F00103304644
:1044000084F84C302B4603F029FACDF800805E2268
:104410008DF81FA0CDE9015794F84C3094F848105E
:10442000504518BF43F00103304684F84C302B460A
:1044300003F0ECF9CDF800805E22CDE9015794F845
:104440004C3094F84810504518BF43F001033046F3
:1044500084F84C309DF834308DF834A08DF820303D
:104460002B4603F0FBF9CDF800B05B22CDE90157F4
:1044700094F84C3094F84810504518BF43F00103AD
:10448000304684F84C302B4603F0E8F908AB5E2246
:104490000093CDE9015794F84C3094F848105045FA
:1044A00018BF43F00103304684F84C302B4603F02C
:1044B000D5F9CDF800805E22CDE9015794F84C3053
:1044C00094F84810504518BF43F00103304684F873
:1044D0004C3010238DF81F302B4603F097F9CDF8A0
:1044E00000805E22CDE9015794F84C3094F84810D2
:1044F000504518BF43F00103304684F84C309DF816
:1045000034308DF834A08DF820302B4603F0A6F916
:10451000CDF800B05C22CDE9015794F84C3094F806
:104520004810504518BF43F00103304684F84C3022
:104530002B4603F093F908AB5E220093CDE90157B7
:1045400094F84C3094F84810504518BF43F00103DC
:10455000304684F84C302B4603F080F9CDF80080CB
:104560005E22CDE9015794F84C3094F8481050453C
:1045700018BF43F00103304684F84C3020238DF8F7
:104580001F302B4603F042F9CDF800805E22CDE9C2
:10459000015794F84C3094F84810504518BF43F038
:1045A0000103304684F84C309DF834308DF834A047
:1045B0008DF820302B4603F051F9CDF800B05D2284
:1045C000CDE9015794F84C3094F84810504518BF85
:1045D00043F00103304684F84C302B4603F03EF99B
:1045E00008AB5E228DE8A80094F84C3094F848108F
:1045F000504518BF43F00103304684F84C302B4639
:1046000003F02CF9CDF8008001462B463046CDE969
:10461000015794F84C20514518BF42F0010294F81C
:10462000481084F84C208C228DF834205E2203F050
:1046300015F994F84C50504518BF45F001051DB1CF
:1046400084F84CA0FFF77ABA2646012184F84C5032
:1046500056F8540B01F0FEF90221304601F010F833
:1046600004F58470032101F00BF8294604F5DE708F
:1046700001F006F8012104F51C7001F001F804F5C1
:10468000497000F04BFF0023042008494FF0FF322F
:10469000C4F86033C4F8643384F85003C4F8441396
:1046A000C4F8402319B0BDE8F08F00BF0000DC4320
:1046B00080F83C13704700BF70B507EE901A0446AF
:1046C0002DED028B062A27D8DFE812F02600A20083
:1046D000C400E60008010700840000F567750C219E
:1046E00000F58A6300F5906E2A4680F85113D3F8DE
:1046F00000C0103353F80C6C103253F8080C53F808
:10470000041C734542F810CC42F80C6C42F8080CBB
:1047100042F8041CEBD120E0D0F8D43304F56775DF
:10472000D0F8CC13D0F8D0230720C4F8A433D4F8A1
:10473000D833C4F89C13C4F8A023D4F8DC13D4F8FD
:10474000E023C4F8A833D4F8E43384F85103C4F860
:10475000AC13C4F8B023C4F8B433F8EE677AF2EEC1
:10476000080AB0EE000AC7EEA00A13F051F994F857
:10477000513353B12A4605EB8301D2ED007A67EE3F
:10478000807AE2EC017A8A42F7D14FF0FF3204F5E9
:104790005A760025C4F8402307EE903A07EE105AE7
:1047A00094EDD58A0135F8EEE77AD4EDD78AB8EEE4
:1047B000C70AD4EDD30A80EE270A13F029F9A8EE30
:1047C000808AA6EC018A94F85133AB42E4DABDEC5E
:1047D000028B70BDD0F8802404F56775D0F884345E
:1047E0000620D4F88864D4F88C14C4F89C23C4F848
:1047F000A033D4F89024D4F89434C4F8AC23C4F88B
:10480000A46384F85103C4F8A813C4F8B033A4E730
:10481000D0F8F03304F56775D0F8E813D0F8EC233E
:104820000720C4F8A433D4F8F433C4F89C13C4F8B4
:10483000A023D4F8F813D4F8FC23C4F8A833D4F890
:10484000003484F85103C4F8AC13C4F8B023C4F89E
:10485000B43382E7D0F80C3404F56775D0F804144B
:10486000D0F808240720C4F8A433D4F81034C4F8CE
:104870009C13C4F8A023D4F81414D4F81824C4F852
:10488000A833D4F81C3484F85103C4F8AC13C4F82A
:10489000B023C4F8B43360E7D0F8283404F5677562
:1048A000D0F82014D0F824240720C4F8A433D4F876
:1048B0002C34C4F89C13C4F8A023D4F83014D4F8D2
:1048C0003424C4F8A833D4F8383484F85103C4F835
:1048D000AC13C4F8B023C4F8B4333EE7D0F83C348A
:1048E000052104F56775C0F89C33D4F84434D0F83A
:1048F0004004D4F84824C4F8A433D4F84C34C4F8A1
:10490000A00384F85113C4F8A823C4F8AC3324E7F7
:104910004FF0FF3380F85013C0F84033704700BFAA
:104920002DE9F0412DED028B86B00A22022301F120
:1049300034070DF116060C46054638460096CDE9BB
:104940000132012391EDD18A002291F8481002F042
:104950005DFF94F84C30002818BF43F0010384F841
:104960004C30BDF8163013F0010300F0B48094F819
:104970003D33002B00F0AB8001234FF00A08009676
:104980001E2201933846CDF8088094F8481002F0B2
:104990003DFF0096CDF80880014694F84C20012395
:1049A0009DF816603846002918BF42F0010284F8CD
:1049B0004C2002220192042294F8481002F026FFB3
:1049C00094F85020B30007EE102ABDF8162000EE30
:1049D000103A94F84C30B8EE477AF8EE407A00EE90
:1049E000102A002818BF43F0010304F54970B8EEFF
:1049F000400A84F84C3037EEC00A30EE470A84EDA6
:104A0000D80A00F093FD94F83C33012B00F09C8011
:104A1000032B00F09480002B00F08C8004F15400F4
:104A200000F044FED4F84033D4EDD67ADFED496A85
:104A3000002B94EDD57A77EEE67A94F8512380FE38
:104A4000077A87FE677A84EDD97A01DB93424DDBE2
:104A5000002A48D0D4EDDA7A04F55B71002302E035
:104A6000013393423FDAF0EE676A02F1FF3CF1EC6A
:104A7000017AB4EEE67AF1EE10FA04DBF4EEC77ACE
:104A8000F1EE10FA06DC6345EAD1F4EEC77AF1EEF6
:104A900010FAE5D894F8501301228A4008EE102A43
:104AA00004EB8302B8EEC88AD2EDE77A94F83D238E
:104AB000C4F8403328EE278A84EDD18A85ED008A38
:104AC0002A71284606B0BDEC028BBDE8F0810123B7
:104AD00084F83D3350E794F83D23002AEED01A467F
:104AE00084F83D33EAE794F83D23E7E7DFED1A6AFF
:104AF00004EB8303D4EDD75A94EDD26AC5EEA67ABF
:104B0000D3EDDA6A67EE867A76EEE76AF4EEC76A84
:104B1000F1EE10FA9ED8D3EDDB6A77EEA67AF4EECA
:104B2000C77AF1EE10FA95DD94F83D3385ED008AF1
:104B30002B71C6E704F5DE7000F0B8FD72E704F5EE
:104B4000847000F0B3FD6DE704F51C7000F0AEFD5D
:104B500068E700BF6F12833A0000C84270B5F0EEFC
:104B6000400A0025044690F8513300F55A7680ED4E
:104B7000D30A2DED028B01E0D4EDD30A07EE903A73
:104B800007EE105A94EDD58A0135F8EEE77AD4EDA8
:104B9000D78AB8EEC70A80EE270A12F039FFA8EECE
:104BA000808AA6EC018A94F85133AB42E4DABDEC7A
:104BB000028B70BD70B52DED028B90EDD58A044649
:104BC000B4EEC08AF1EE10FA03DBB7EE000A38EE5D
:104BD000000A70EE488A94F8513304F55A7600259D
:104BE00084EDD60AC4EDD78A03E094EDD58AD4EDDE
:104BF000D78A07EE903A07EE105AD4EDD30A013562
:104C0000F8EEE77AB8EEC70A80EE270A12F000FF46
:104C1000A0EE288AA6EC018A94F85133AB42E4DA7C
:104C2000BDEC028B70BD00BF70B590F8513300250C
:104C3000044600F55A7680EDD20A2DED028B07EE80
:104C4000903A07EE105A94EDD58A0135F8EEE77ADE
:104C5000D4EDD78AB8EEC70AD4EDD30A80EE270A7E
:104C600012F0D6FEA8EE808AA6EC018A94F85133A1
:104C7000AB42E4DABDEC028B70BD00BF0021DFF86F
:104C800078C00022C0F8B010C0F8B410C0F8B8C0A6
:104C9000C0F8BC10C0F8C0C0C0F8C4C0C0F8C8C0DC
:104CA000C0F8CC10C0F8D010C0F8D410A0F8DC20A8
:104CB000C0F8E010C0F8E410C0F8E8C0C0F8EC108C
:104CC000C0F8F0C0C0F8F4C0C0F8F8C0C0F8FC10DC
:104CD000C0F80011C0F80411A0F80C21C0E9472267
:104CE000C0E94922C0E94B22C0E94D22C0E94F2268
:104CF000C0E95122704700BF000080BF704700BF6D
:104D000000F5C023012970B504462DED028B83F810
:104D1000201D82B000F0D280022900F00382002919
:104D200000F0328190F86C11D0F870C1D0ED5D6A5E
:104D300090F87C2194ED617AD0F88001D4ED657A09
:104D400094ED660A94F88C31D4F890510829DFED7F
:104D5000C18AC4F804C0B7EE008A28BF0021082A1F
:104D6000206304F1580028BF0022082B217028BFBF
:104D70000023E56584F82C2004F1B00584F8583050
:104D8000C6FEA86A87FE287AC6FEC86A87FE487AE9
:104D9000C4ED036A84ED0E7AC7FEA87A84ED180A82
:104DA000C7FEC87AC4ED197A12F0CAF994F89C319A
:104DB000B0EE407AD4F8A021082B94ED6A0AC4F82A
:104DC000882004F1840028BF002384ED1D7AD4EDEF
:104DD000697A84F88430C7FEA87A84ED230AC7FE76
:104DE000C87AC4ED247A12F0ABF9F0EE407A0121D2
:104DF00094ED6B0A28460195C4ED287A11F0FCFC6D
:104E000094ED6C0A0221019811F0F6FC94ED6E0A03
:104E10000421019811F0F0FCD4ED6D7AF4EEE87AFB
:104E2000F1EE10FA44D9F4EE487AF1EE10FA78FE79
:104E3000277A04F1E000C4ED2C7A94ED700A012188
:104E4000019011F0D9FC94ED710A0221019811F042
:104E5000D3FC94ED730A0421019811F0CDFCD4ED3C
:104E6000727AF5EEC07AF1EE10FA24D9B7EE007A34
:104E7000F4EE477AF1EE10FA77FE277A04F588709F
:104E800094ED750AC4ED387A019011F031FF94ED7C
:104E9000760A019811F08AFF6F4A704B12681B68FE
:104EA000C4F8E021C4F8DC3102B0BDEC028B70BD67
:104EB000DFED6B7ABDE7DFED6A7ADFE7694E6A4ABC
:104EC000D6ED007A694E6A4B96ED000A694ED2ED36
:104ED000006A36781A7884F89C61674E67483668AD
:104EE000674BC4F8A061674ED0F800C036681868F8
:104EF000C4F8A461644E654B366893ED007AC4F83B
:104F0000A861634E63493668634BC4F8AC61634E75
:104F1000634D366809781B782D68C4F8B061614E1E
:104F200084F86C11C4F870C1C4ED5D6A84F87C210A
:104F3000C4F8800184ED617A84F88C31C4F8905112
:104F4000C4ED657A84ED660A3668C4F8B861564ED9
:104F50003668C4F8B461554E3668C4F8C061544E22
:104F60003668C4F8C461534E3668C4F8CC61524EFA
:104F70003668C4F8C861514E3668C4F8D461504EE2
:104F80003668C4F8D861E1E64E4E4F4AD6ED007A55
:104F90004E4E4F4B96ED000A4E4ED2ED006A3678DB
:104FA0001A7884F89C614C4E4C4836684C4BC4F8D7
:104FB000A0614C4ED0F800C036681868C4F8A461EF
:104FC000494E4A4B366893ED007AC4F8A861484EC2
:104FD00048493668484BC4F8AC61484E484D36687D
:104FE00009781B782D68C4F8B061464E84F86C11BE
:104FF000C4F870C1C4ED5D6A84F87C21C4F88001F6
:1050000084ED617A84F88C31C4F89051C4ED657AEE
:1050100084ED660A3668C4F8B8613B4E3668C4F859
:10502000B4613A4E3668C4F8C061394E3668C4F887
:10503000C461384E3668C4F8CC61374E3668C4F85F
:10504000C861364E3668C4F8D461354E3668C4F847
:10505000D8617BE600000000200100241C01002430
:105060000AD723BC900000240C01002498000024DF
:1050700015010024A10000248C000024E00000247D
:10508000E4000024940000249C000024100100246B
:10509000E800002414010024A0000024F0000024F3
:1050A000880000240401002458240624F40000246D
:1050B000F8000024FC00002400010024EC0000247F
:1050C0000801002474000024D00000247C00002487
:1050D000DD0000248400002470000024A4000024CB
:1050E000A80000247800002480000024D4000024BC
:1050F000AC000024DC00002454240624B400002466
:105100006C000024C8000024D8000024B80000244B
:10511000BC000024C0000024C4000024B00000240F
:10512000CC000024354E364AD6ED007A354E364B4B
:1051300096ED000A354ED2ED006A36781A7884F87A
:105140009C61334E33483668334BC4F8A061334E0C
:10515000D0F800C036681868C4F8A461304E314BEE
:10516000366893ED007AC4F8A8612F4E2F4936684F
:105170002F4BC4F8AC612F4E2F4D366809781B7841
:105180002D68C4F8B0612D4E84F86C11C4F870C15C
:10519000C4ED5D6A84F87C21C4F8800184ED617AF5
:1051A00084F88C31C4F89051C4ED657A84ED660AB8
:1051B0003668C4F8B861224E3668C4F8B461214E2E
:1051C0003668C4F8C061204E3668C4F8C4611F4E0A
:1051D0003668C4F8CC611E4E3668C4F8C8611D4EEE
:1051E0003668C4F8D0611C4E3668C4F8D4611B4ED2
:1051F000D6F800E0C4F8D8E1A8E500BF58000024C4
:1052000040000024600000244D00002469000024B8
:105210005400002410000024140000245C0000242A
:105220006400002444000024180000244C000024E2
:1052300068000024200000245000002438000024CE
:1052400048000024280000242C0000243000002402
:1052500034000024240000241C0000243C0000240E
:10526000F7EE007A2DE9F0412DED048B87EE809A60
:105270004FF07C55DFED468A4FF00008456004464C
:10528000C0ED028A0026C56040F20117B0EE408AE8
:10529000C0F81880B0EE680A80ED048A80ED059AA7
:1052A00011F04EFFF0EE407A04F12C0084ED0F8AED
:1052B00084ED109AB0EE680AC4ED077AC4ED0D8A49
:1052C0002563A56326702785C4F8448011F038FF54
:1052D00004F1580084ED120AB0EE680A84ED1A8ACF
:1052E00084ED1B9AC4ED188AE565656684F82C6028
:1052F000A4F85470C4F8708011F022FF04F1840007
:1053000084ED1D0AB0EE680A84ED258A84ED269AA4
:10531000C4ED238AC4F88850C4F89050C4F89C8027
:1053200084F85860A4F8807011F00AFFF0EE407A1B
:1053300004F1B000B0EE480A012184F88460C4EDA5
:10534000287AA4F8AC7011F0DFF90121B0EE480A18
:1053500004F1E00011F0D8F9B0EE480A04F58870C5
:105360000C4D11F029FBB0EE480A04F5EE7011F077
:1053700073FF04F5C0232046022103F6245283F86C
:10538000216DBDEC048B1560BDE8F041FFF7B8BCA2
:105390000000C8420000DC43F0B583B0044600F5CD
:1053A000C02602AB03E90600DDED007A9DF804504B
:1053B00037EEA77AC0ED5E7A80ED627A15B196F885
:1053C000217D1FB186F8215D03B0F0BD3946B030B4
:1053D00011F00AFA394604F1E00011F005FA86F8F6
:1053E000215D03B0F0BD00BF70B500F5C0250446D7
:1053F00095F8203D012B2DED028B86B037D0022B86
:1054000035D0A3B300F12C0600F58875204611F0C5
:10541000E1FCB0EE408A304611F0DCFCF6EE007A9A
:1054200038EE008A284628EE278A28EE880A11F0EE
:1054300069FB05AA04AB04F5EE70009203AA8DED9A
:10544000030A114611F0C8FF2A4BF7EE007ADDED92
:10545000046A93ED000A9DED037A77EEC07A20EEA0
:10546000260AA7EE870A06B0BDEC028B70BDB7EE28
:10547000008A04F15800D4ED5E8A11F0ABFC20469E
:1054800004F12C0630EE080A20EE280A84ED020A08
:1054900011F056FE04F1840084ED070AD4ED628A0F
:1054A00011F098FC30EE080A304620EE280A84ED10
:1054B0000D0A11F045FE95F8211D04F1B00084EDB0
:1054C000120A11F021FA04F1E00095F8211DF0EE26
:1054D000408A11F019FA084B04F58875D4ED747AF6
:1054E00093ED007A284620EE070A20EE270A11F0F5
:1054F000FFFB8BE7180100241C0000240022034658
:10550000DFF810C043F804CB4260C3E90122C3E9CD
:10551000032270470000C842704700BF0023436069
:105520008360C36003614361704700BF86B0416818
:105530000369C268D0F808C0436181600261C0F8A5
:105540000CC080ED010A02A8029100218DED010A34
:10555000CDF80CC004920593B0EC017A0B460246DC
:1055600052ED027AF4EEC77AF1EE10FA12DD013B49
:1055700062ED017AB3F1FF3FF2D1002306AA0131B7
:1055800002EB8303042903ED057AE5D19DED030ABF
:1055900006B070470133F1E7364B8446DFED367ACB
:1055A0002DE9F04F041D85B003F1180A03F15807E7
:1055B0000CF1240903F12C0803F16C0E0CF1380BEB
:1055C0000CF17C060CF1900593E8070084E80700D5
:1055D00003F10C020CF1100407CA84E807000CF177
:1055E0005C010CF14C020CF16800CCED077A0191E2
:1055F0000CF1A4010092002402900391CCED087AF2
:10560000BAE80F00A9E80F00DAF80030C9F8003056
:10561000B8E80F00ABE80F00D8F80030A7F1180287
:10562000CBF80030009BCCF84C40DC60C3E901446F
:1056300007CA019B83E80700A7F10C02029B07CA77
:1056400083E807000FCFCCED1D7ACCED1E7A0FC694
:105650003B683360BEE80F000FC5DEF800306046DF
:105660002B60039BCCF8A440DC60C3E9014405B087
:10567000BDE8F08F7889010800000000704700BF86
:105680000023024602F81C1BC3615360C364036518
:105690004365836543678367C0F8A430C0F8A830CA
:1056A000C0F8AC30C0F8B030704700BF0378032BAF
:1056B00000F2B880DFE803F0955C3B02D0ED145AAD
:1056C000D0ED106A90ED137A65EEA66AD0ED0F4A20
:1056D00090ED156A90ED112AE4EE876A90ED165A66
:1056E000D0ED122AD0ED0A7A80ED147A67EE277A8F
:1056F00090ED093AD0ED0B3AE2EE066A90ED0C4AD5
:10570000D0ED0D4A80ED166AC0ED155AE2EE856ABD
:1057100030EE667AE3EE077A80ED137AB0EE670A30
:10572000A5EEA30AA6EE040AA5EE240A704790EDA2
:10573000086A90ED067AD0ED076A26EE077AD0ED7A
:10574000054AD0ED027A90ED015AA4EEA67AD0ED8A
:10575000035A66EEA77AC0ED086A30EE477AE5EEA6
:10576000077A80ED077AB0EE670AA6EE250A704741
:10577000D0ED2A5AD0ED266A90ED297A65EEA66A18
:10578000D0ED254A90ED2B6A90ED272AE4EE876A4A
:1057900090ED2C5AD0ED282AD0ED207A80ED2A7A8F
:1057A00067EE277A90ED1F3AD0ED213AE2EE066AD5
:1057B00090ED224AD0ED234A80ED2C6AC0ED2B5AA1
:1057C000E2EE856A30EE667AE3EE077A80ED297ABA
:1057D000B0EE670AA5EEA30AA6EE040AA5EE240A17
:1057E000704790ED1E6A90ED1C7AD0ED1D6A26EE92
:1057F000077AD0ED1B4AD0ED187A90ED175AA4EE37
:10580000A67AD0ED195A66EEA77AC0ED1E6A30EE80
:10581000477AE5EE077A80ED1D7AB0EE670AA6EECC
:10582000250A70479FED010A704700BF0000000085
:1058300006494FF6FF0C0002054BCA6800F4E06011
:1058400002EA0C0210430343CB60704700ED00E016
:105850000000FA051B4BDB68C3F3022300B5C3F15C
:10586000070E03F1040CBEF1040F28BF4FF0040E25
:10587000BCF1060F1AD9033B4FF0FF3C0CFA03FCB6
:1058800022EA0C024FF0FF3C00280CFA0EFC21EA41
:105890000C0101FA03F141EA02010ADB09010A4B9A
:1058A000C9B2034483F800135DF804FB00221346D9
:1058B000E8E700F00F000901044BC9B20344197670
:1058C0005DF804FB00ED00E000E100E0FCEC00E02E
:1058D000002807DB012300F01F01034A40098B4029
:1058E00042F82030704700BF00E100E000280DDBE7
:1058F0004309012200F01F000549203302FA00F09D
:1059000041F82300BFF34F8FBFF36F8F704700BF85
:1059100000E100E0BFF34F8F0549064BCA6802F46F
:10592000E0621343CB60BFF34F8F00BFFDE700BFC2
:1059300000ED00E00400FA05431EB3F1807F0CD2B5
:105940004FF0E022002006494FF0F00C536107238E
:1059500081F823C09061136170470120704700BF38
:1059600000ED00E0BFF35F8F044B00215A6A22F480
:1059700080325A62C3F89410704700BF00ED00E017
:10598000064B40F00100C3F894005A6A42F480329A
:105990005A62BFF34F8FBFF36F8F704700ED00E087
:1059A000174A4378C2F89830017821B3436800B5AC
:1059B000C2F89C30C37A90F80CC01B0690F80FE038
:1059C00043EA0C7390F80AC00B43817B43EACC4353
:1059D00090F80DC043EA8C4390F809C043EA414374
:1059E000017A43EA0E4343EA0C2343EA4103C2F837
:1059F000A0305DF804FBC2F89C10C2F8A0107047FC
:105A000000ED00E0704700BF08B5FFF7FBFF08BDE1
:105A1000202882B009D8084B03EB400213F810305D
:105A2000507843EA002002B0704701230C2043EA7B
:105A3000002002B0704700BFD88C0108084603F070
:105A400039BA00BF143001F0E3B900BF143001F0DF
:105A5000DBB900BF283001F095BC00BF10B540F2A3
:105A600003338EB000244FF60B7240F20341ADF8C1
:105A7000083009A80123ADF81020ADF824202246F3
:105A8000ADF80C100094029907940C94CDE90544EC
:105A9000CDE90A4401F084FB04A8012322460399BE
:105AA000009401F07DFB09A801F060FC10B9012011
:105AB0000EB010BD04A801F059FCA0420CBF02209A
:105AC00020460EB010BD00BF2DE9F04103239AB06F
:105AD0004FF0010800254FF60B740746CDE9143846
