:020000040800F2
:1000000000000220290A00081D0A0008B199000812
:100010001D0A00081D0A00081D0A00080000000053
:100020000000000000000000000000001D0A0008A1
:100030001D0A0008000000001D0A0008359900088C
:100040001D0A00081D0A00081D0A00081D0A0008F4
:100050001D0A00081D0A00081D0A00081D0A0008E4
:100060001D0A00081D0A00081D0A00081590000856
:1000700021900008A16700082D9000083990000821
:10008000A58101082D7300081D0A00081D0A00083B
:100090001D0A00081D0A00081D0A00081D0A0008A4
:1000A0001D0A00081D0A00081D0A00081D0A000894
:1000B000699600087596000881960008617300082B
:1000C0001D0A00086D7300081D0A0008ED6E010886
:1000D000F96E0108D97F01080580010839800108FF
:1000E0001D0A00081D0A0008000000001D0A000883
:1000F0001D0A00081D0A00081D0A00081D0A000844
:100100001D0A00081D0A00088D960008056F0108E9
:100110006D800108A18001081D0A00081D0A000861
:100120001D0A00081D0A0008296F01085D6F0108FB
:10013000D98101081D0A00081D0A00081D0A0008CF
:1001400000000000000000000000000000000000AF
:100150001D0A00081D0A00081D0A0008D5800108B4
:10016000797300081D0A000845990008699900087C
:100170001D0A00088D9900081D0A00081D0A0008C4
:100180001D0A00081D0A0008098101083D810108B7
:10019000116F01081D6F01081D0A00081D0A0008E3
:1001A0001D0A00081D0A00081D0A00081D0A000893
:1001B000098D00081D0A00081D0A00081D0A000814
:1001C0001D0A00081D0A0008456101085161010867
:1001D0001D0A00085D6101081D0A00081D0A0008CB
:1001E0001D0A00081D0A00081D0A00081D0A000853
:1001F0001D0A00081D0A00081D0A00081D0A000843
:100200001D0A00081D0A00081D0A00081D0A000832
:100210001D0A00081D0A00081D0A00081D0A000822
:100220001D0A00081D0A00081D0A00080000000041
:100230001D0A00081D0A0008000000001D0A000831
:100240001D0A00081D0A00081D0A00081D0A0008F2
:100250001D0A00081D0A00081D0A00081D0A0008E2
:100260001D0A00081D0A00081D0A00081D0A0008D2
:100270001D0A00081D0A0008718101080000000025
:100280001D0A00081D0A00081D0A000800000000E1
:08029000000000001D0A000837
:1002A00010B5054C237833B9044B13B10448AFF3B0
:1002B00000800123237010BD3806002400000000D8
:1002C00020F9010808B5034B1BB103490348AFF3FC
:1002D000008008BD000000003C06002420F9010851
:1002E00010F8012B11F8013B012A28BF9A42F7D0E0
:1002F000D01A70470000000000000000000000005D
:1003000001F0FF01102A2BDB10F0070F08D010F8C6
:10031000013B013A8B422DD010F0070F42B3F6D1CA
:10032000F0B441EA012141EA014122F007047FF0E3
:1003300000070023F0E80256083C85EA010586EA3A
:10034000010685FA47F5A3FA87F586FA47F6A5FA76
:1003500087F68EB9EED1F0BC01F0FF0102F0070282
:1003600032B110F8013B013A83EA010313B1F8D12D
:100370000020704701387047002D06BF354603380E
:10038000073815F0010F07D1013015F4807F02BF47
:10039000013015F4C03F0130F0BC0138704700BF98
:1003A00081F0004102E000BF83F0004330B54FEA26
:1003B00041044FEA430594EA050F08BF90EA020F93
:1003C0001FBF54EA000C55EA020C7FEA645C7FEA26
:1003D000655C00F0E2804FEA5454D4EB5555B8BF49
:1003E0006D420CDD2C4480EA020281EA030382EABA
:1003F000000083EA010180EA020281EA0303362D4C
:1004000088BF30BD11F0004F4FEA01314FF4801C1E
:100410004CEA113102D0404261EB410113F0004F30
:100420004FEA03334CEA133302D0524263EB4303E7
:1004300094EA050F00F0A780A4F10104D5F1200E85
:100440000DDB02FA0EFC22FA05F2801841F10001E0
:1004500003FA0EF2801843FA05F359410EE0A5F1B4
:1004600020050EF1200E012A03FA0EFC28BF4CF0E5
:10047000020C43FA05F3C01851EBE37101F000459B
:1004800007D54FF0000EDCF1000C7EEB00006EEBA8
:100490000101B1F5801F1BD3B1F5001F0CD3490832
:1004A0005FEA30004FEA3C0C04F101044FEA445289
:1004B00012F5800F80F09A80BCF1004F08BF5FEA10
:1004C000500C50F1000041EB045141EA050130BDF0
:1004D0005FEA4C0C404141EB0101013C28BFB1F502
:1004E000801FE9D291F0000F04BF01460020B1FA4D
:1004F00081F308BF2033A3F10B03B3F120020CDA20
:100500000C3208DD02F1140CC2F10C0201FA0CF0FD
:1005100021FA02F10CE002F11402D8BFC2F1200C62
:1005200001FA02F120FA0CFCDCBF41EA0C01904018
:10053000E41AA2BF01EB0451294330BD6FEA040461
:100540001F3C1CDA0C340EDC04F11404C4F120024C
:1005500020FA04F001FA02F340EA030021FA04F35E
:1005600045EA030130BDC4F10C04C4F1200220FAB5
:1005700002F001FA04F340EA0300294630BD21FAF3
:1005800004F0294630BD94F0000F83F4801306BFB9
:1005900081F480110134013D4EE77FEA645C18BFAD
:1005A0007FEA655C29D094EA050F08BF90EA020F44
:1005B00005D054EA000C04BF1946104630BD91EA3C
:1005C000030F1EBF0021002030BD5FEA545C05D13F
:1005D0004000494128BF41F0004130BD14F580047E
:1005E0003CBF01F5801130BD01F0004545F0FE41F2
:1005F00041F470014FF0000030BD7FEA645C1ABF27
:10060000194610467FEA655C1CBF0B46024650EA5D
:10061000013406BF52EA033591EA030F41F4002189
:1006200030BD00BF90F0000F04BF0021704730B50F
:100630004FF4806404F132044FF000054FF00001E4
:1006400050E700BF90F0000F04BF0021704730B5A5
:100650004FF4806404F1320410F0004548BF40427A
:100660004FF000013EE700BF42004FEAE2014FEACF
:1006700031014FEA02701FBF12F07F4393F07F4FAA
:1006800081F06051704732F07F4208BF704793F0AD
:100690007F4F04BF41F40021704730B54FF46074C0
:1006A00001F0004521F000411CE700BF50EA0102C3
:1006B00008BF704730B54FF000050AE050EA01026C
:1006C00008BF704730B511F0004502D5404261EBDC
:1006D00041014FF4806404F132045FEA915C3FF41D
:1006E000D8AE4FF003025FEADC0C18BF03325FEABA
:1006F000DC0C18BF033202EBDC02C2F1200300FA6B
:1007000003FC20FA02F001FA03FE40EA0E0021FA8F
:1007100002F11444BDE600BF53B94AB9002908BF2D
:1007200000281CBF4FF0FF314FF0FF3000F074B9CC
:10073000ADF1080C6DE904CE00F006F8DDF804E038
:10074000DDE9022304B070472DE9F047089D044617
:100750008E46002B4DD18A42944669D9B2FA82F274
:1007600052B101FA02F3C2F1200120FA01F10CFAB0
:1007700002FC41EA030E94404FEA1C48210CBEFBE8
:10078000F8F61FFA8CF708FB16E341EA034306FB71
:1007900007F199420AD91CEB030306F1FF3080F000
:1007A0001F81994240F21C81023E63445B1AA4B24D
:1007B000B3FBF8F008FB103344EA034400FB07F7EF
:1007C000A7420AD91CEB040400F1FF3380F00A8130
:1007D000A74240F207816444023840EA0640E41B25
:1007E00000261DB1D4400023C5E900433146BDE8D1
:1007F000F0878B4209D9002D00F0EF800026C5E973
:10080000000130463146BDE8F087B3FA83F6002E8A
:100810004AD18B4202D3824200F2F980841A61EB02
:10082000030301209E46002DE0D0C5E9004EDDE720
:1008300002B9FFDEB2FA82F2002A40F09280A1EB08
:100840000C014FEA1C471FFA8CFE0126200CB1FB5D
:10085000F7F307FB131140EA01410EFB03F0884256
:1008600008D91CEB010103F1FF3802D2884200F2E3
:10087000CB804346091AA4B2B1FBF7F007FB101175
:1008800044EA01440EFB00FEA64508D91CEB040413
:1008900000F1FF3102D2A64500F2BB800846A4EB6E
:1008A0000E0440EA03409CE7C6F12007B34022FA59
:1008B00007FC4CEA030C20FA07F401FA06F31C4388
:1008C000F9404FEA1C4900FA06F3B1FBF9F8200C95
:1008D0001FFA8CFE09FB181140EA014108FB0EF0DB
:1008E000884202FA06F20BD91CEB010108F1FF3A2B
:1008F00080F08880884240F28580A8F10208614437
:10090000091AA4B2B1FBF9F009FB101144EA014144
:1009100000FB0EFE8E4508D91CEB010100F1FF34EF
:100920006CD28E456AD90238614440EA0840A0FB87
:100930000294A1EB0E01A142C846A64656D353D05D
:100940005DB1B3EB080261EB0E0101FA07F722FA81
:1009500006F3F1401F43C5E9007100263146BDE8AA
:10096000F087C2F12003D8400CFA02FC21FA03F30D
:10097000914001434FEA1C471FFA8CFEB3FBF7F08E
:1009800007FB10360B0C43EA064300FB0EF69E42B3
:1009900004FA02F408D91CEB030300F1FF382FD24C
:1009A0009E422DD9023863449B1B89B2B3FBF7F6F4
:1009B00007FB163341EA034106FB0EF38B4208D9CD
:1009C0001CEB010106F1FF3816D28B4214D9023E0E
:1009D0006144C91A46EA004638E72E46284605E72C
:1009E0000646E3E61846F8E64B45A9D2B9EB0208FD
:1009F00064EB0C0E0138A3E74646EAE7204694E78D
:100A00004046D1E7D0467BE7023B614432E73046BF
:100A100009E76444023842E7704700BF684620F0A7
:100A200007018D46FEE7000009480A4A0A49121AE2
:100A300008B51BF067FB0948094A0021121A1BF090
:100A40006FFB09F06BFA1BF019FB00F04BFAFEE7A5
:100A5000000000243406002464F90108380600244C
:100A6000803A07247047704770470000014B01220D
:100A70001A7070477CAD002470474020704780207A
:100A8000704790F8100880F001007047704700230D
:100A900080F8083870470000F8B500240D460D486E
:100AA00016460D4902F02CFFB44212D00948A700A7
:100AB000D5E9001202EB840201EB8401013403F05A
:100AC000CFF82B6805483B4493ED000A01F0C2FAC9
:100AD000EAE7F8BD0CC30024040000246C0E0024D7
:100AE00010B5044600F5C12000F2C44003F0A8FD93
:100AF000204610BD00294FF4806200F5826014BFCB
:100B0000FF2100211BF00CBB10B5044640F6140178
:100B10001AF0C7FD204610BD10B5104C204605F058
:100B200055F9237903B1A36D0D4ABFF35B8F52E8EA
:100B3000001F194442E800100028F8D1BFF35B8F72
:100B4000237B53B194F824307F2B06D1054B01222F
:100B5000BFF35B8F1A70BFF35B8F10BD8C16002440
:100B6000F0160024EC16002470B51446A4B0054617
:100B70004618B54225D06A4615F8011B04F1080055
:100B800005F062F90028F4D0D4F8A820D4E92B03AA
:100B9000C31A48BF9B18013A9A42EAD0421CD4F8C3
:100BA000A4306946C4F8AC20902202FB00301BF050
:100BB000A9FAD4E92A239342DBD39B1AC4F8AC30B8
:100BC000D7E724B070BD0B220270FF2242700022D2
:100BD000C0E90122C260704730B50C4685B00A25D5
:100BE000017D00922246CDE90135012306F05AFE2F
:100BF000003818BF012005B030BD036870B50E463F
:100C0000DB68044615469847B04205D8236820465D
:100C1000DB689847013886B223682046A6809B6827
:100C20009847A84205D8236820469B689847013812
:100C300085B2E58070BD1FB500238DF80D1003AAA5
:100C400001798DF80C3064230093022306F0A8FD8F
:100C500005B05DF804FB000090F81038F0B50446CC
:100C600087B003F0FF057BBB012300F1080604AF4A
:100C700080F81038154B18689B880490ADF8143034
:100C8000013517F8011B3046FFF7D5FF062DF7D1C8
:100C900040234FF4806204F5826104F10E00637317
:100CA0001BF030FA04F10D0240F2014110460392AC
:100CB00008F014FE064B039A3046009340F20143BD
:100CC000217B019606F094FD07B0F0BDC8D601085F
:100CD0008F0A00082DE9F0415E2988B004460E46CF
:100CE00000F118078DF8172048D0A1F17303072BE6
:100CF00044D901250A230DF11F085E22CDE90153D5
:100D0000CDF800802B4690F82C10384606F0A2FD56
:100D100094F8303042465E21002818BF43F00103AA
:100D2000384684F830309DF81F308DF81E3000238F
:100D30008DF81F302B46FFF74FFF94F830301843E3
:100D400084F8300001230DF1170231463846FFF7D1
:100D500043FF94F83030184384F830005DB101232C
:100D60000DF11E025E213846FFF736FF94F8303051
:100D7000184384F8300008B0BDE8F0810025E1E7B1
:100D800084B038B505AD044685E80E009DF82830DE
:100D90002946037106F06CFC2046AE21FFF74BFF9D
:100DA0002046D521FFF747FF20468021FFF743FF6C
:100DB0002046A821FFF73FFF20463F21FFF73BFFDA
:100DC0002046D321FFF737FF20460021FFF733FFEE
:100DD00020464021FFF72FFF20468D21FFF72BFFF4
:100DE00020461421FFF727FF20462021FFF723FF8D
:100DF00020460021FFF71FFF2046A121FFF71BFF20
:100E00002046C821FFF717FF2046DA21FFF713FF1E
:100E100020461221FFF70FFF20468121FFF70BFF2D
:100E20002046CF21FFF707FF2046D921FFF703FF18
:100E30002046F121FFF7FFFE2046DB21FFF7FBFEF6
:100E400020464021FFF7F7FE2046A421FFF7F3FEDE
:100E50002046A621FFF7EFFE2046AF21FFF7EBFE6D
:100E6000BDE8384004B0704700F580534FF42C6261
:100E7000F0B500F6C826ADF6CC2DD3F8883504467B
:100E8000314602A801931BF03DF9D4E9000107F0B7
:100E90002DFE054608F0F8FF20B140F6C421284693
:100EA00008F032FD04F5AC5704350837AC2229466A
:100EB00030461BF017F930B9AC36AC35BE42F5D12F
:100EC0000DF6CC2DF0BD6168206801F6C42207F054
:100ED00023FD01AB40F6C422D4E9000107F016FD62
:100EE000EEE700002DE9F04FADF6844D0021D84823
:100EF000002603F0CFFD30A8FFF765FE35A8FFF709
:100F000062FE3AA8FFF75FFE3FA8FFF75CFE1620DF
:100F100003F0BCFCADF8380002220E9930A8CD4D8C
:100F200005F0AEF90122042330A9CB4870AF05F0DB
:100F3000B7F9C94805F0BCFB4FF4407328460224BA
:100F40002B80B04650F8041B05F016F905F1080097
:100F500005F032F80E2003F099FCADF83C000D20AE
:100F600003F094FCADF840000A2003F08FFC9FEDE5
:100F7000BB0A0F99ADF84400B948DDE9102304F02D
:100F8000F7FEB84801F0CCFCB74BC7E9006310236B
:100F90003B743C233B7573ABC7E9024693E80700FB
:100FA0008DE80700B14897E80E00FFF7E9FE6421DD
:100FB000AF4801F0EAF80121AD4801F037F82146C9
:100FC000A34A3C46AB4802F04DF9A14803F080FC2F
:100FD000A94802F005FC4FF42C62314638461BF05C
:100FE0009FF82046C146A54E4FF0000A00F8018B3D
:100FF00008F10108A24942461BF000FA04F1140E60
:101000000FCEB446AEE80F005CF8043BCEF80030DB
:1010100004F1280EBCE80F00AEE80F00DCF8003049
:1010200010220021CEF80030AC2303FB097909F12E
:101030003C001BF075F81022002109F14C001BF058
:101040006FF84FF07C5306F1180E04F1640C236620
:101050004FF00009C4F85CA0B8F1100FBEE80F0013
:10106000ACE80F00DEF8003006F12C0E06F1400669
:10107000CCF8003004F1780CBEE80F00ACE80F00AB
:10108000DEF80030CCF800307E4BC4F890A0C4F8F5
:101090008C3004F1940304F1AC0496E8070083E873
:1010A000070004F80C9C44F808AC04F8049C04F80D
:1010B000039C96D1744E4FF42C62394606F1080019
:1010C00006F6C82A1BF01EF84FF42C62394606F6C5
:1010D000C8201BF017F849463068C6F8049007F09E
:1010E00005FD036806F580595A1E012A40F2108258
:1010F00001233046C9F88835FFF7B6FE634F08F084
:10110000C1FE002403234FF0010812A9B0FBF7F041
:10111000CDE91234471E40F2E7335D4814938DF851
:10112000548008F0B9FA3946594808F02FFB224696
:101130005849574808F030FB22460421322003F07A
:10114000C7FA534808F010FB44F2191316A9524885
:1011500018938DF86480CDE9168408F09DFA39461D
:101160004D4808F013FB22464C494B4808F014FB4D
:10117000224604211D2003F0ABFA474808F0F4FA98
:1011800038491AA801F089FD9DED1B0A394801F084
:1011900037FF9DED1C0A374801F02EFF1E9B354896
:1011A00007EE903A0B93B8EEE70A01F05FFF9DF867
:1011B0008410304801F04DFE9DF880209DF8741099
:1011C0002C4801F073FE9DF87C102A4801F03EFE89
:1011D000AC232499284803FB016101F6C82102F0E1
:1011E000BFF980211A4803F077FB2D49184803F016
:1011F00067FB08F04DFC0B9008F04AFC0C90DFF800
:10120000608008F045FC274C074698F82430FF2BF7
:1012100040F09E8108F03CFC07EE900A98ED0A7AB7
:1012200041F26F72F8EE677A77EEC77AFCEEE77AF2
:1012300017EE903AC4ED007A934240F272811A4957
:101240000B4800F0FDFE0021094800F0EFFE2DE004
:10125000F41600249C1700240C1700240000000042
:101260008C16002468170024010801096006002478
:101270006C0E0024E0A800240CC30024D0D6010882
:10128000EAD8010800409C4680AD002440420F008F
:10129000E8160024190B000878AD00246D0A000838
:1012A000990A000854060024F4D80108BA4800F04E
:1012B00085FFC82008F0EEFB002008F0EDFBB74BDF
:1012C0000022BFF35B8F25ACD3F800B0BFF35B8F78
:1012D000BFF35B8F1A60B24BBFF35B8FBFF35B8FC3
:1012E000B04993F800802046BFF35B8FBFF35B8F5C
:1012F0001A70BFF35B8F5FFA88F801F0CEFCBBF188
:10130000000F00F0CF81A74801F065FB002800F036
:1013100077815946A34801F0FFFBB8F1000F02D0D6
:10132000A04801F017FB9F49204601F0B6FC626817
:10133000D4ED047A4592A268F8EEE77A23784692D3
:10134000E269D4F828B08DF82021E2680D938DF879
:101350002121A269CDED477A8DF8222162698DF8AD
:10136000232172B6904845A901F05DFEAC215FFAD9
:101370008BFB8E4801FB0B6101F6C82102F0F0F8EF
:1013800062B6B8F1000F1DD00D9B052B1AD194F851
:1013900020304FF0410894F824B01A464146844862
:1013A0000D93FFF797FC08F1010108F102085A4676
:1013B0007F485FFA88F8C9B2FFF78CFCB8F1590F83
:1013C0000D9BEAD13946774801F05AFC794B1A78DF
:1013D0005AB10022744945A81A7001F05DFE764B9F
:1013E000459A1A609DF818211A71744B0C9A1B6863
:1013F000BA1A9A420AD30021714805F06FF9714B6D
:101400006A4883ED000A02F099F80C976E4B0B9A2C
:101410001B68BA1A9A420FD36249204601F03DFC7C
:101420002378002B40F0078101215B4800F0FEFD8E
:10143000594800F0C3FE0B97644804F0E7FE50B92A
:10144000634804F0B9FD614804F0E4FE614A624972
:10145000101D04F0CDFED5E92B23D11A44BFD5F8D9
:10146000A800091800293FF4CAAE9A42F3D090228E
:10147000D5F8A4005A4301338118805CD5F8A82020
:1014800091F80880934291F809B0C5F8B03024BFB4
:101490009B1AC5F8B0300328DDD1B8F1770F40F0C2
:1014A000E380BBF13F0F40F2DF804C493A4800F047
:1014B000C7FD0021384800F0B9FD374800F07EFE36
:1014C00072B64748022403F0FFF94648C9F8884538
:1014D000FFF7CAFC4449424803F0F2F962B64349B7
:1014E0002D4800F0ADFD2C4800F068FE4FF416705A
:1014F00008F0D0FA2B4945A801F0CFFB9DF8143134
:10150000002B40F0AF800121234800F08FFDA2E7BF
:10151000011D4FF42C625046C9F888351AF0F2FDCF
:10152000ECE5B3F5FA6FFFF4CAAE31491A4800F0A2
:1015300087FD0021184800F079FD174800F03EFEB5
:10154000174B0022BFF35B8F1A70BFF35B8FB6E6B9
:101550002368A3F5FA63B3F57A6F1AD225490E48CA
:1015600000F06EFD00210C4800F060FD0A4800F01C
:1015700025FEC82008F08EFABFF34F8F1E491F4B7F
:10158000CA6802F4E0621343CB60BFF34F8F00BF21
:10159000FDE70023236092E66C0E0024F016002481
:1015A000EC16002468170024E0A800240CC30024D3
:1015B000FCA800247CAD00240400002414000024B6
:1015C0000C170024100000240C000024A017002495
:1015D000A41700249C170024690B000820D90108D7
:1015E000F416002480AD0024990A00082AD90108C5
:1015F00004D9010813D9010800ED00E00400FA0540
:101600005B46002B0FDCBBF1000FA8BFABEB0B0B55
:10161000BBF1000F46D04FF0FF3125480BF1010B15
:1016200001F0E3F9F4E7012121480D9301F0DDF920
:101630000D9B013BE5E702211E4800F0F7FC0DF190
:10164000A00ECDF820A0EC46BEE80F00ACE80F00DD
:101650009EE80F008CE80F00164894E80E0001F099
:101660009FF8E5E621464FE7114945A801F015FB33
:101670004F9C72B6AC27E4B245A807FB04643A4617
:1016800004F6C82421461AF03DFD45AB5A464146B2
:10169000094802F05DF93A4645A920461AF032FDA4
:1016A00062B6D8E6B8F1000F7FF43AAE8AE600BF22
:1016B000681700246C0E00240CC300247F2910B589
:1016C00011D83F2A0FD8D40802F0070201EBC41149
:1016D0000124084404FA02F290F9081452B21BB132
:1016E000114380F8081410BD21EA0201F9E708301F
:1016F00008B5FFF7E3FF08BD2DE9F04F0E4685B0B2
:10170000044604A9A6F120059DF838B001E90C00B3
:10171000EBB25E2B04D90026304605B0BDE8F08F51
:1017200003689DF80870DB689DF809A09847A388B6
:101730003B449842EFDB236820469B689847E38848
:1017400053449842E7DB0AFB05F54FF000096D00B2
:10175000CA451DD9039B4FF000085B5B01934745C9
:10176000A188E28810D9019B41444A4404F1080051
:1017700003FA08F308F101081B044CBF5B468BF029
:101780000103FFF79BFFEAE709F101090235DFE7F3
:10179000A1882046E288394489B2FFF72EFABBE7D8
:1017A000F0B585B006464C1E02AD9DF8287085E860
:1017B0000C0014F8011F41B10097304695E80C0069
:1017C000FFF79AFF21788842F3D0084605B0F0BDB4
:1017D0002DE9F043914685B00446984608464B46AD
:1017E000DDE90C52A3EB090C13F8011B0029F9D118
:1017F00098F8006098F8011016FB0CF60F4636B208
:1018000026EAE676082A76D8DFE802F06B05270B91
:1018100035453C536100B5F90020B5F9023022800E
:1018200053E02B88A988B5F902200B4462809B1BEA
:101830002380A680E780628821880390FFF7DDF986
:101840009DF8383049460398009398E80C00FFF75C
:10185000A7FF204605B0BDE8F083B5F90430B5F91F
:10186000021003EBD3722B88618003EB6203A3EBBE
:1018700066032380DDE76B88B5F90020ED882B44F3
:101880005B1ACCE76B88EA8813445B1A2A88A9881C
:101890000A44921BC3E76B88EA8813445B1AB5F9C4
:1018A000042002EBD2712A8802EB6102A2EB6602ED
:1018B000B5E7B5F90630B5F9001003EBD3726B88C4
:1018C000218003EB6203A3EB57036380B1E7B5F913
:1018D000063003EBD3726B8803EB6203A3EB510377
:1018E000D4E7B5F9063003EBD3726B8803EB6203E0
:1018F000A3EB5103D3E7002323806380A380E3801D
:1019000099E70000000000002DE9F04F2DED068B57
:1019100087B01C4603929DF86030DDE916289FEDE4
:10192000B64BB8F1000F0493BCBF4244C8F10008A5
:1019300007EE902A02EB0803B8EEE76B07EE103AC9
:101940009FEDAF5B26EE046BB8EEC77BCDE90101DE
:1019500086EE050B27EE047BF7EEC08B87EE050BBA
:10196000F7EEC09BB0EE680A19F0A2FE07EE904AAF
:10197000B8EE67AA2AEE008AB0EE680A1AF030FACA
:1019800060EE4A8AB0EE690A19F092FE2AEE009AD9
:10199000B0EE690A1AF024FA20EE4AAA39EE487A23
:1019A000049B7AEE687A67EEA77AE7EE077AB0EEE4
:1019B000007AF4EEC77AF1EE10FA08D5B8F1B40F58
:1019C00000F3CA8007B0BDEC068BBDE8F08F0022A3
:1019D00001276542C4F101040026BB46BA466400F3
:1019E000B9460492049A002A6ED107EE906A7242B8
:1019F000B8F1B40FF8EEE76A07EE905AB8EEE77A5E
:101A000007EE902AC5F1000266EE884AF8EEE77A02
:101A100006EE102A27EE285A66EE896AB8EEC66AE4
:101A200067EE885A27EE0A7A66EE283A67EE897AD8
:101A300026EE0A6A34EEE34A74EEC54A35EEC55A1C
:101A4000B5EEC04A75EEE35A40F39180F1EE10FA1C
:101A500000F1848036EEC64AB5EEC04AF1EE10FAC7
:101A6000CCBF4FF001094FF00009F5EEC04AF1EE8E
:101A700010FA76D476EEC76AF5EEC06AF1EE10FA87
:101A8000CCBF4FF0010A4FF0000AB5EEC05AF1EE9C
:101A900010FA69D437EEC77AB5EEC07AF1EE10FAD3
:101AA000CCBF4FF0010B4FF0000BF5EEC05AF1EE3A
:101AB00010FA00F19B8077EEC67AF5EEC07AF1EE6F
:101AC00010FACCBF01270027B9F1000F09D0039A03
:101AD00002990198B218491B05930830FFF7EEFDF3
:101AE000059BBAF1000F09D0039A02990198B21828
:101AF000691805930830FFF7E1FD059BBBF1000F66
:101B000009D0039A02990198921B6918059308302D
:101B1000FFF7D4FD059B4FB1039A02990198921BE0
:101B2000491B05930830FFF7C9FD059BA6425FDB03
:101B3000013604EB4602EE4202F1010202D1A54257
:101B400002DB0024A54255DA013502EB4502541CA4
:101B5000002D7FF747AF35E7012239E74FF0010944
:101B600083E74FF0010A90E74FF0010B9DE7F1EE9C
:101B700010FA32D536EEC64AB5EEC04AF1EE10FA8A
:101B8000CCBF4FF001094FF00009F5EEC04AF1EE6D
:101B900010FA25D576EEC76AF5EEC06AF1EE10FAB6
:101BA000CCBF4FF0010A4FF0000AB5EEC05AF1EE7B
:101BB00010FA18D537EEC77AB5EEC07AF1EE10FA02
:101BC000CCBF4FF0010B4FF0000BF5EEC05AF1EE19
:101BD00010FA3FF570AF002776E7DDF81090D4E7F4
:101BE0004FF0000AE1E74FF0000BEEE701276BE74B
:101BF0002246A7E71446ABE77A008BFCFA2109409E
:101C000000000000008066402DE9F04F1F4685B0BF
:101C100014460830DDF838A0A7EB01089DF83C30E9
:101C20000D46AAEB0209B8F1000F0393B8BFC8F143
:101C30000008B9F1000F0290B8BFC9F10009924540
:101C40008CBF01224FF0FF328F428CBF4FF0010B4F
:101C50004FF0FF3B394601925246FFF72FFDA8EBAC
:101C60000906DDE90203BD4201D1544516D02946DB
:101C7000224603930290FFF721FDC9F10001720093
:101C8000B1EB460FBCBFA6EB09065D449045DDE90C
:101C90000203E8DD019A46441444E4E705B0BDE8D8
:101CA000F08F2DE9F3479DF830C005460C461646E7
:101CB0001F46DDF828809DF82C90BCF1000F10D055
:101CC000A7422AD3B246D04509D352464B462146B5
:101CD00005F108000AF1010AFFF7F0FCF3E701340F
:101CE000EEE7CDE90029FFF78FFF3B463246394644
:101CF0002846CDE90089FFF787FF2346424639464B
:101D00002846CDE90089FFF77FFF2346424621465A
:101D10002846CDE90069FFF777FF02B0BDE8F087FC
:101D20002DE9F041914F00266FF0F413DFF8A882FF
:101D300007F128007E613E628D4CC7E90063C7E968
:101D40000233FEF740FF07F13C00FEF73CFF07F1CE
:101D50005800FEF738FF4246864938463E6719F07C
:101D60009BFC04F11000FEF72EFF04F12C00FEF79F
:101D70002AFF04F14000FEF726FF42467E49204636
:101D800019F08AFC7D4C7E4B4246A66020462360BB
:101D900084F810687B4919F07FFC21467A4C0122B7
:101DA0007A4800F01BF9204600F09AFF4246784935
:101DB000204619F071FC774C0023774A3146A4F88D
:101DC000F060C4F8C43004F59870C4F8C83004F565
:101DD000C025C4F8D030C4F8E030C4F8E430C4F80A
:101DE000E830C4F8F430C4F8F830C4F80031C4F86E
:101DF0001031C4F81431C4F81831C4F8CC20C4F838
:101E0000D420C4F8D820C4F8DC20C4F8FC20C4F8DE
:101E10000421C4F80821C4F80C211022A4F8206180
:101E20001AF07EF93146102204F5A0701AF078F904
:101E30003146102204F5A8701AF072F9574802F0E2
:101E4000FEFB3146AC2205F624601AF069F9544ACB
:101E500005F63C615348536E05F5696CC5F82D6E67
:101E6000C5F8253E936E4FF07E52C5F8316EC5F829
:101E7000293E01230A60022185F8383E85F8481E74
:101E80004FF0804185F84C3E05F65863196005F621
:101E9000886305F68C611860434B0B604349CCF8AE
:101EA000001005F6946CCCF8003005F6986CCCF870
:101EB000002005F69C6CCCF8000005F56A60036014
:101EC00005F6A460016005F6A8612046384C0B6059
:101ED00005F56B633749196005F6BC63364919602F
:101EE00005F56C634FF07C5105F6D86519602A60E2
:101EF0004246324919F0D0FB31484FF44073314A21
:101F00003149C0F8B060C0E9003640F20F73C0E953
:101F1000272300F1B4034246C0F8A43040F2011375
:101F2000C0E92A3619F0B8FB31464FF42C6204F1AF
:101F30000800C4E900761AF0F3F831464FF42C6239
:101F400004F6C8201AF0ECF804F580541F48424605
:101F50001F49C4F88865066019F09EFB1D4842467B
:101F60001B490660BDE8F04119F096BBF416002449
:101F70008C160024690A0008670A00085806002425
:101F800040D90108790A0008E0A800246C0E00245A
:101F90001D2E00080CC30024000080BFD0CF0624F3
:101FA000C8D601080AD7233CCDCCCC3DCDCC4C3F84
:101FB00080AD002400409C4600A08C46E10A000849
:101FC0009C1700240080707F8D0A0008E81600240A
:101FD000650A000878AD002400000024F8B58023CD
:101FE0000D4601270021C0F8083804460E4B16465E
:101FF000C0F80C184FF48062C0F814380830C0F8EC
:1020000014781AF08DF84FF48062002104F5816095
:102010001AF086F81423204684F81068256027718A
:10202000C4F81838F8BD00BF78D9010838B504469F
:1020300000680D46002103681B699847257138BD6B
:1020400039B1C0F81418017919B9006803681B691F
:1020500018477047D0F80C3800EB8302013382ED4B
:10206000020A5A42DBB2D2B258BF5342C0F80C380F
:102070007047000090F8103830B54BB3D0F80C38EA
:10208000D0F8082801339D189D4221DD5942DAB26B
:1020900003F10103C9B258BF4A4200EB8201D1EDFE
:1020A000027AF5EEC07AF1EE10FAEDD55C42D9B2C3
:1020B000E4B258BF614200EB8101D1ED027AF5EE46
:1020C000C07AF1EE10FADFDB034B1A60104630BD28
:1020D000014B1A68FAE700BFE8D106242DE9F34165
:1020E0000546202200210068FEF787FD28680021B0
:1020F00003681B6998472846FFF7BCFF0021074685
:102100000646D5F8083801F101083B44B34239DDF1
:102110007242D5F8183828684FF0010CD2B207EE99
:10212000903AF3B206F1010658BF5342F8EEE77A4F
:10213000F4B205EB830393ED027A734227EE877ABC
:10214000DBB258BF5C420368BDEEC77A05EB84047E
:1021500017EE102A94ED027ACDF804C067EE877A64
:10216000C2F1200282F30602FDEEE77A17EE904AF2
:10217000C4F1200484F3060400949C694346A047FC
:102180004146BEE702B0BDE8F081C0F818187047BC
:1021900037B50022044600681146FEF72EFD206880
:1021A0000121054B02680091D4F81418956A0CCBF4
:1021B000A84703B030BD00BF68000024037910B504
:1021C00004463BB1012B08D020680368BDE81040ED
:1021D0001B6B1847FFF7DCFFF6E7FFF77FFFF3E71E
:1021E0002DE9F341044600680E46002103680127EB
:1021F0002D4D1B699847002220681146FEF7FDFC13
:1022000020682A4903680097D3F8288095E80C00D5
:10221000C04720680D220A21FEF7EFFC2068244900
:1022200003680097D3F8288095E80C00C047206821
:1022300017220A21FEF7E1FC20681E490368009777
:10224000D3F8288095E80C00C047206821220A2195
:10225000FEF7D3FC2068184903680097D3F828805C
:1022600095E80C00C04720682B220A21FEF7C5FC28
:102270002068124903680097D3F8288095E80C007D
:10228000C0470A222068002172430D3292B2FEF745
:10229000B4FC20680A49036800979C6A95E80C0022
:1022A000A04702B0BDE8F0817000002484D9010885
:1022B00092D901089ED90108A5D90108ADD9010814
:1022C000B2D901082DE9F341044600680E46002109
:1022D000036801273E4D1B6998470022206811467C
:1022E000FEF78BFC20683B4903680097D3F82880F1
:1022F00095E80C00C047042E4FF00D024FF00A0184
:1023000020685BDCFEF779FC20683349036800979E
:10231000D3F8288095E80C00C04717220A212068CE
:10232000FEF76BFC20682D4903680097D3F82880DE
:1023300095E80C00C04721220A212068FEF75DFCC9
:102340002068274903680097D3F8288095E80C0097
:10235000C0472B220A212068FEF74FFC2068214944
:1023600003680097D3F8288095E80C00C047352211
:102370000A212068FEF741FC20681B49036800978A
:102380009F6A95E80C00B84705222068002196FB5B
:10239000F2F202EB8202B21A0A2672430D3292B2B4
:1023A000FEF72BFC206801221049036800929C6A0A
:1023B00095E80C00A04702B0BDE8F081FEF71DFCD7
:1023C00020680B49036800979F6A95E80C00DAE7DC
:1023D00070000024B4D90108C4D90108CAD9010881
:1023E000D0D90108DBD901083BDA0108B2D90108CC
:1023F000E7D901082DE9F341044600680E460021A3
:10240000036801272D4D1B6998470022206811465B
:10241000FEF7F3FB20682A4903680097D3F8288069
:1024200095E80C00C04720680D220A21FEF7E5FB65
:102430002068244903680097D3F8288095E80C00A9
:10244000C047206817220A21FEF7D7FB20681E49E3
:1024500003680097D3F8288095E80C00C0472068EF
:1024600021220A21FEF7C9FB20681849036800975A
:10247000D3F8288095E80C00C04720682B220A2159
:10248000FEF7BBFB2068124903680097D3F8288049
:1024900095E80C00C0470A222068002172430D32E3
:1024A00092B2FEF7AAFB20680A49036800979C6A6B
:1024B00095E80C00A04702B0BDE8F0817000002450
:1024C000ECD90108F7D9010801DA01080CDA010892
:1024D000E7D90108B2D901082DE9F34104460068A3
:1024E0000E46002103680127264D1B6998470022EC
:1024F00020681146FEF781FB206823490368009796
:10250000D3F8288095E80C00C04720680D220A21E6
:10251000FEF773FB20681D4903680097D3F82880F5
:1025200095E80C00C047206817220A21FEF765FBDA
:102530002068174903680097D3F8288095E80C00B5
:10254000C047206821220A21FEF757FB2068114965
:1025500003680097D3F8288095E80C00C0470A224A
:102560002068002172430D3292B2FEF746FB2068CC
:102570000949036800979C6A95E80C00A04702B0DF
:10258000BDE8F0817000002413DA010822DA0108A6
:1025900033DA0108E7D90108B2D901082DE9F04181
:1025A000044600680F460021036801262DED028BCA
:1025B0001B6986B0B0EE408A984700222068114619
:1025C000FEF71BFB20681F4B02681F490096956AA7
:1025D0000CCBA84720680C220021FEF70EFB2068D8
:1025E0001A4D394603680096D3F8288095E80C0008
:1025F000C047FDEEC87A164902A8B8EEE70A17EE02
:10260000902A38EE408A9FED130A28EE008ABDEE2C
:10261000C87A17EE103A002BB8BF5B4219F0EEFEF5
:10262000206823220021FEF7E8FA206802A9036847
:1026300000969C6A95E80C00A04706B0BDEC028BA2
:10264000BDE8F0817000002446DA0108680000242B
:102650004CDA01080000C8422DE9F0430546006845
:10266000984687B003680E46002114461B694FF058
:1026700001099847002228681146FEF7BEFA28682B
:10268000394B02683949CDF80090976A0CCBB847AE
:102690000F2200212868FEF7B0FA2868344F31462F
:1026A0000368CDF80090D3F8289097E80C00C8474D
:1026B00030493046FDF714FE40B90C2394FBF3F289
:1026C00003FB12442C4B53F8241015E02B493046E1
:1026D000FDF706FE38B90722294B94FBF2F2C2EB54
:1026E000C202A41AEFE727493046FDF7F9FDF0B919
:1026F000B8F1000F14D0414602A819F09FFE2868D7
:1027000026220021FEF779FA2868012202A903682F
:1027100000929C6A97E80C00A04707B0BDE8F083E0
:10272000631C194A102102A819F034FEE7E7174983
:102730003046FDF7D5FD28B92246154902A819F003
:102740005DFEDCE713493046FDF7CAFD40B9634240
:1027500004F0030403F0030358BF5C420E4BB2E7DE
:1027600022460E49EAE700BF7000002454DA01084F
:10277000680000245DDA010828DB010862DA01083C
:1027800058DB010868DA0108EAD801086FDA0108A5
:102790007ADA010880DA010874DB0108F1D801084F
:1027A00084B010B402AC84E80E009DF808100D9BB4
:1027B00001399DF809200D2900F29980DFE801F028
:1027C000071C398B4E736B777B7F83875F67022A89
:1027D0000CD0032A0CD0042A0CD00F2A14BF0021DD
:1027E00003215DF8044B04B0FFF7FABC0021F8E7C1
:1027F0000121F6E70221F4E7072A10D0062A10D0BB
:10280000082A10D0092A10D0052A10D00F2A14BF88
:10281000002105215DF8044B04B0FFF753BD0021F2
:10282000F8E70121F6E70221F4E70321F2E70421AA
:10283000F0E70A2A0CD00B2A0CD00C2A0CD00F2A55
:1028400014BF002103215DF8044B04B0FFF7D2BD93
:102850000021F8E70121F6E70221F4E70D2A0AD06A
:102860000E2A0AD00F2A14BF002102215DF8044B62
:1028700004B0FFF731BE0021F8E70121F6E700239D
:102880000A9A1D495DF8044B04B0FFF7E5BE00232A
:102890000B9A1A49F6E79DED030A19495DF8044BB6
:1028A00004B0FFF77BBE9DED040A1649F6E700234E
:1028B000069A1549E6E70023079A1449E2E7002340
:1028C000059A1349DEE70023089A1249DAE7002344
:1028D000099A1149D6E70C9A3BB10F2A05DCAC21C5
:1028E00001FB023301330D49CCE70023FBE75DF820
:1028F000044B04B0704700BF8CDA01089BDA010872
:10290000A8DA0108AEDA01086FDA010880DA0108F6
:102910005DDA010862DA0108B4DA010868DA010850
:1029200010B5044607F0B4F8094A00232063A260FA
:102930004FF07E522380E26002222361E361E36272
:10294000C4E90523042201232262C4E9093310BD2E
:102950000000484210B5044607F09AF82378206337
:102960001BB940F20123238004E09A1F032A02D8F6
:102970000223237010BDA3F10A02022A01D8032307
:10298000F7E7A3F10D02012A01D80523F1E7042B93
:1029900001D10123EDE762780F2A0FD1012B01D17C
:1029A0000023E0E79A1E012A03D8012222706370F7
:1029B000E0E7052BDED140F20253D4E7022A227071
:1029C00001D10723F3E7032A01D10A23EFE7052A00
:1029D000D0D10D23EBE70078831F082B03D9031F09
:1029E0005842584170470120704738B504460D469B
:1029F00007F04EF822782063531E042B20D8DFE81E
:102A000003F003264C1F6600002D637810DD022BB7
:102A100002D10323637013E0032B01D10423F9E7F0
:102A2000042B01D10F23F5E70F2B09D10223F1E786
:102A30000F2BF3D0042BECD0032BF7D0022BF1D0CB
:102A4000931F032B57D802236370607838BD002D85
:102A5000637815DD072B01D10623DBE7062B01D1B7
:102A60000823D7E7082B01D10923D3E7092B01D18C
:102A70000523CFE7052BD5D00F2BE1D10723C9E7DD
:102A8000072BCFD0062BF9D0082BE5D0092BE7D0A8
:102A9000052BE9D00F2BD3D1EAE7002D63780DDDAC
:102AA0000A2B01D10B23B5E70B2B01D10C23B1E786
:102AB0000C2BB7D00F2BC3D10A23ABE70A2BB1D015
:102AC0000B2BF9D00C2BEDD00F2BB9D1EEE7002D4D
:102AD000637809DD0D2B01D10E239BE70E2BA1D0CE
:102AE0000F2BADD10D2395E70D2B9BD00E2BF9D0DD
:102AF0000F2BA5D1F0E7A2F10A03022B01D8032383
:102B0000A2E7A2F10D03012B01D805239CE7042ABB
:102B10009BD1012398E7000038B504460D4606F026
:102B2000B7FF23782063043B0A2B1AD8DFE803F0B1
:102B300097192506424E5A66727F8B0007EE905A0F
:102B4000B1EE047AF8EEE76AD4ED027AE6EE877A1F
:102B5000B7EE007AF4EEC77AF1EE10FA02D584ED02
:102B6000027A38BD9FED447AF4EEC77AF1EE10FA9E
:102B700077FE277AC4ED027AF3E707EE905A9FEDCD
:102B80003F7AF8EEE76AD4ED037AE6EE877AF4EE60
:102B9000C77AF1EE10FA02D584ED037AE1E7B0EEE0
:102BA000007AF4EEC77AF1EE10FA77FE277AC4EDD8
:102BB000037AD6E76169691802D500236361D0E71B
:102BC000142901DC6161CCE71423F7E7A1696918D6
:102BD00002D50023A361C4E7032901DCA161C0E79A
:102BE0000323F7E72169691802D500232361B8E7B9
:102BF0000B2901DC2161B4E70B23F7E7E1696918D0
:102C000002D50023E361ACE7062901DCE161A8E716
:102C10000623F7E7216A0D44002D02DC012323621D
:102C20009FE7082D01DC25629BE70823F7E7616A2F
:102C3000691802D50023636293E7FF2901DC616212
:102C40008FE7FF23F7E7A16A691802D50023A36283
:102C500087E7FF2901DCA16283E7FF23F7E7E16A49
:102C60006D1802D50023E3627BE70F2D01DCE562DE
:102C700077E70F23F7E700BF0000C842CDCCCC3D7B
:102C800003784BB1036B41F28732CB1A934282BF78
:102C90004FF4807301630380704770B50B880C4656
:102CA0000646054624F8043F0FCC0FC50FCC0FC5D0
:102CB00094E8070085E80700304670BD30B50C4643
:102CC00085B00A25017D00922246CDE90135012318
:102CD00004F0C0FD003818BF012005B030BD000071
:102CE000F8B5012104464A4A00255A2304F57376B3
:102CF000C2600375C0E9015140F20C6084F82C30C9
:102D000084F848300C23626284F850302083208697
:102D100004F15400C4E90751C4E90F12C4E90D5588
:102D200001F004FA04F5847001F000FA04F5DE7095
:102D300001F0FCF904F51C7001F0F8F904F5497094
:102D400001F0A4F94FF0804284F83D534FF0FF3377
:102D5000C4F848234FF07E522E4DC4F84C2340F265
:102D60000472C4F840332F460023A4F850232A4AA3
:102D7000C4F84433C4F85433C4F85823C4F85C236B
:102D8000C4F86033C4F864330FCF0FC697E8070068
:102D900005F11C0786E807000FCF04F57A760FC609
:102DA00097E8070005F1380786E807000FCF04F21F
:102DB00004460FC697E8070005F1540786E80700A8
:102DC0000FCF04F584660FC697E8070005F170077A
:102DD00086E807000FCF04F23C460FC63B6805F1BA
:102DE0008407B435336004F58A660FCF0FC60FCF62
:102DF0000FC697E80F0086E80F000FCD04F5906628
:102E00000FC695E8030086E803002046F8BD00BF22
:102E1000010801093CD701080000484210B50446EA
:102E200000F5497001F040F904F51C7001F0D8F983
:102E300004F5DE7001F0D4F904F5847001F0D0F9E6
:102E400004F1540001F0CCF9204610BD80F83C1389
:102E500070474FF0FF3380F85013C0F8403370478D
:102E600070B5044600F55A7600252DED028B94F8D6
:102E70005133AB4217DB07EE905A07EE103A94ED50
:102E8000D58A0135F8EEE77AD4EDD78AB8EEC70ACD
:102E9000D4EDD30A87EE800A18F00EFEA8EE808AE1
:102EA000A6EC018AE3E7BDEC028B70BD38B500EEFD
:102EB000901A044600F56775062A00F28580DFE85F
:102EC00002F0042938475665740007232A4600F5A6
:102ED0007A7180F8513300F5737353F8040B8B4209
:102EE00042F8040BF9D1F2EE087AF8EE600AB0EE7F
:102EF000000AC0EEA70A18F0DFFD94F85123002362
:102F00009A4270DDD5ED007A013367EE807AE5EC08
:102F1000017AF5E707232A4600F2044180F851338D
:102F200000F57A7353F8040B8B4242F8040BF9D185
:102F3000D9E707232A4600F5846180F8513300F26F
:102F4000044353F8040B8B4242F8040BF9D1CAE74F
:102F500007232A4600F23C4180F8513300F5846390
:102F600053F8040B8B4242F8040BF9D1BBE705235D
:102F70002A4600F58A6180F8513300F23C4353F849
:102F8000040B8B4242F8040BF9D1ACE70C232A4620
:102F900000F5906180F8513300F58A6353F8040B13
:102FA0008B4242F8040BF9D19DE706232A4600F52F
:102FB000936180F8513300F5906353F8040B8B4212
:102FC00042F8040BF9D18EE707232A4600F57A71FF
:102FD00080F8513300F5737353F8040B8B4242F8B9
:102FE000040BF9D17FE74FF0FF332046C4F840339C
:102FF000BDE83840FFF734BF80EDD30AFFF730BF9C
:10300000D0EDD57AF4EEC07AF1EE10FAA4BFB7EEA7
:10301000000A37EE800A80EDD60A30EE670A80EDAE
:10302000D70AFFF71DBF38B50D4691ED000A0446DB
:10303000FFF7E6FF6B682046C4F84C33FFF710FF3C
:10304000AB682046C4F84833FFF70AFF2B7B2046C5
:1030500084F850334FF0FF33AA7BC4F84033697BC8
:10306000FFF724FFEB7B84F83C3338BD80EDD20AB8
:10307000FFF7F6BE13B5044601230DF10702183021
:10308000FFF71CFE94F83030184384F830009DF8A8
:10309000070002B010BD0000F0B501F134070C4686
:1030A0000223064638462DED028B83B091EDD18A7E
:1030B00000210DF10602FFF701FE94F84C3094F860
:1030C0003D231843BDF8063013F0010384F84C008B
:1030D00000F0BE8012B9012384F83D331E2104F1B3
:1030E0001C00FFF7C7FF054602230DF1060204216D
:1030F0003846FFF7E3FD94F84C30AD001843BDF8B7
:103100000630ADB200EE103A94F8503007EE905A07
:1031100084F84C00B8EE400A04F54970B8EE677ABE
:1031200077EE407A00EE103AB8EE400A37EEC00A69
:1031300084EDD80A00F0C0FF94F83C33012B6CD02A
:10314000032B04D0002B6BD104F5DE7001E004F5F5
:10315000847001F05FF8D4F8403394EDD57A84EDB3
:10316000D90A002BD4EDD97ADFED3C6AC7FE877A05
:1031700094EDD67A94F8511337EE667AC7FEC77A83
:10318000C4EDD97A16DB8B4214DADFED356A04EB35
:10319000830394EDD76A86EE267AD4EDD26A27EEC1
:1031A000267AD3EDDA6A76EEC76AF4EEE76AF1EED4
:1031B00010FA38D9481E04F55B7200238B4227DAD7
:1031C0001546B2EC017A55ED016AF4EEE76AF1EECC
:1031D00010FA04D8B4EEE77AF1EE10FA06DC984261
:1031E00034D1B4EEE77AF1EE10FA2FD894F85013F8
:1031F00001228A4008EE102A04EB8302B8EEC88A46
:10320000D2EDE77AC4F8403328EE278A84EDD18ADC
:1032100094F83D3386ED008A12E004F51C7098E7BF
:1032200004F1540095E7D3EDDB6A37EE267AB4EE6D
:10323000E77AF1EE10FABDDD94F83D3386ED008AB1
:103240003046337103B0BDEC028BF0BD0133B5E7FE
:10325000002ADDD084F83D33DAE700BF6F12833AED
:103260000000C8422DE9F04190B0012302600446FD
:103270000AAE836000F11C05021D00F1140C3346F8
:103280001068083252F8041C3746624503C73E46B0
:10329000F6D1106838609288BA802A460EAF1E4672
:1032A000083203CEBE4242F8080C42F8041C3346F2
:1032B000F5D130682F460DF1100C1060B3886E46C2
:1032C00093800FCF0FC63B68E76933606E4604F109
:1032D000380300973246083303CA624543F8080CA6
:1032E00043F8041C1646F5D11278002605A904F10E
:1032F00034001A701023059701278DF82430BDF88B
:1033000008300896ADF81830BDF80A300797ADF8C8
:103310001A3004F0ADF994F84C3063228021B042A9
:1033200018BF43F00103284684F84C30FDF7D2FC67
:10333000384606F0AFFB32465E212846FDF7CAFC50
:103340005D212846FFF796FE242864D194F830804A
:10335000412694F83170314642462846FDF7BAFCC2
:10336000711C02363A46C9B22846F6B2FDF7B2FCE5
:10337000592EF0D101222B212846FDF7ABFC01226A
:103380002C212846FDF7A6FC0E222D212846FDF70C
:10339000A1FC00222E212846FDF79CFC01222F21B2
:1033A0002846FDF797FC052230212846FDF792FCC0
:1033B000012231212846FDF78DFC002232212846CA
:1033C000FDF788FC002233212846FDF783FC00220C
:1033D00034212846FDF77EFC002235212846FDF7E2
:1033E00079FC00225B212846FDF774FC10225C2149
:1033F0002846FDF76FFC20225D212846FDF76AFC78
:103400008C225E212846FDF765FC94F84C60002371
:1034100084F84C3086B12068012101F079FA2068E7
:10342000642101F049FA2068002101F071FA642159
:10343000206801F041FAEEE72546012155F8540BCA
:1034400001F066FA0221284600F0CBFE04F58470F4
:10345000032100F0C6FE314604F5DE7000F0C1FE27
:10346000012104F51C7000F0BCFE04F5497000F069
:103470001CFE0023C4F86033C4F86433042384F8CA
:103480005033054BC4F844334FF0FF33C4F8403396
:1034900010B0BDE8F08100BF0000DC43B7EE007A59
:1034A00000234FF07C5280ED060A0361C7EE007ADC
:1034B0009FED0A0A036280ED020A4260C26010B505
:1034C0000446C0ED077A01F0B5F8002384ED090A3F
:1034D000237040F20113238610BD00BF0000C842D4
:1034E000D0ED040ADFED147A10B50446C0EEA70A49
:1034F0002DED028B80ED020AB0EE000A18F0DCFA26
:103500006378B0EE408A00EE903AB0EE000AF8EE32
:10351000E00A70EEC00A18F0CFFAD4ED027A204625
:1035200028EE278A28EE000A01F084F884ED090AC3
:10353000BDEC028B10BD00BF0000964400F5C12019
:10354000DFED067A80FE270A00F5DB60F7EE007AF1
:1035500080FE670A80ED000A704700BF000000008F
:1035600030B500F5C0250446AC2205F6CC402DED63
:10357000048B83B0F5EE009A18F0C4FD95F8E03C9A
:10358000DFED938AB7EE008A082B94ED020A2046FD
:10359000B1EE009A28BF0023237005F6E4431B68B0
:1035A000636005F6E843D3ED007A05F6EC4387FE49
:1035B000A87A67EEA97A87FE487A84ED037AC4ED8B
:1035C000057A1B682361FFF78BFF95F8F03C94EDBB
:1035D0000F0A04F1340007EE103AB8EE477A87FE7E
:1035E000287A87FE497AFCEEC77A17EE903A637024
:1035F00095F8F43C082B28BF002384F8343005F6F6
:10360000F8431B68A36305F6FC4393ED007A05F5C8
:103610005063C7FE286A27EE297AC6FEC86AC4ED41
:10362000106A84ED127A1B686364FFF759FF95F8FE
:10363000043D04F1680007EE903AF8EE677AC7FEA1
:10364000A87AC7FEC97AFCEEE77A17EE903A84F8BA
:10365000353095F8083D84ED1B8A082B28BF0023E0
:1036600084F8683005F5516393ED000A84ED1C0A77
:1036700017F0A2FD84ED210A95F8183D04F194009D
:1036800084ED268A082B28BF002384F8943005F5A2
:10369000526393ED000A84ED270A17F08DFD9FED2C
:1036A0004D7A05F62C5384ED2C0A04F1C400DFEDAD
:1036B0004A0AD3ED007A05F55363C7FEA87AC7FE20
:1036C000C87A67EE877A0190C4ED307A93ED000AEC
:1036D00017F080F905F634530198022193ED000AA2
:1036E00017F0F6F905F638530198D3ED007AF4EEA9
:1036F000E87AF1EE10FA64D9F4EE487AF1EE10FAB5
:1037000078FE277A05F63C53C4ED317A042193ED17
:10371000000A17F0DDF905F6445304F1F400DFED7B
:103720002E0A93ED000A019017F054F905F648535C
:103730000198022193ED000A17F0CAF905F64C53DF
:103740000198D3ED007AF5EEC07AF1EE10FA3BD98C
:10375000F4EE487AB7EE007AF1EE10FA77FE277AA7
:1037600005F55563C4ED3D7A042193ED000A17F089
:10377000AFF905F65C5304F5927093ED000A0190E1
:1037800017F04CFA05F65853019893ED000A17F01C
:1037900007FB05F5576304F5C12093ED000A00F21D
:1037A000C44000F077FF05F6645305F668551B68C2
:1037B000C4F884312B68C4F8803103B0BDEC048BAD
:1037C00030BDDFED067A9DE7DFED047AC8E700BF84
:1037D000000000009A99993E3333333F0AD723BC47
:1037E000F0B52DED048BB0EE408A044683B0DFEDDA
:1037F000418AFFF753FE04F13400B0EE480A4FF05F
:103800007C55FFF74BFEF7EE007A9FED3B9A0026C2
:1038100040F2011704F16800C7EE889AE566656713
:1038200084ED1E8AC4ED1C8A84ED209AB0EE680AED
:10383000C4ED1F9A17F0C0FC04F1940084ED210A36
:10384000B0EE680AA4F89070C4F89850C4F8A0507C
:1038500004F5C02584F8686084ED298AC4ED2A9AAD
:10386000C4ED278A84ED2B9A17F0A6FC04F1C4005E
:1038700084ED2C0A0121B0EE480AA4F8BC7084F84B
:10388000946004F5C12717F03BF90121B0EE480A16
:1038900004F1F40017F034F9B0EE480A04F5927020
:1038A00017F082FAB0EE480A04F5C070C4F87C61E3
:1038B00017F072FD07F2C440019000F0C2FEB0EEB6
:1038C000490A019800F0E6FE05F6D4630B4A07F2B8
:1038D0002461204685F8D06E1A60FFF741FEAC22C5
:1038E00005F6CC4105F6785018F00CFC03B0BDECA1
:1038F000048BF0BD0000C842000000000000DC4363
:10390000F7B500F5C0260B6804460D4606F6D467E9
:103910003B600B79B3B196F8D01E99B9C4300191D0
:1039200017F050F8019904F1F40017F04BF897EDF7
:10393000000A2046FFF7D4FD97ED000A04F1340099
:10394000FFF7CEFD2B7986F8D03E03B0F0BD000026
:1039500007EE902A9FEDB27AF8EE676A33B4C6EEAE
:10396000877A9FEDB07A0E3927EE877ABCEEC77A58
:103970008DED017A9FEDAC7A9DF8045027EE877AA1
:10398000BCEEC77A17EE104A0134E4B2612900F2A6
:103990006381DFE811F0620069006C007500780057
:1039A0007B008400860089008C00A000A300A60094
:1039B000A900BD00C0009500B20061016101610174
:1039C00061016101610161016101610161016101E7
:1039D00061016101610161016101610161016101D7
:1039E00061016101610161016101610161016101C7
:1039F00061016101610161016101610161016101B7
:103A00006101610161016101CE00EA00D500C300DE
:103A1000DE00610161016101E7006101F300FC006A
:103A2000050108011101610161016101610161018B
:103A30001401610117011E0127016101610161018A
:103A400061012901300137016101610161016101F9
:103A50006101610161013E015B0183F83C5019463F
:103A600002B030BCFFF77CBDC3ED107AF7E7F2EE91
:103A70000E6A9FED6E7AA7EEA67A83ED117AEEE7D5
:103A800083F84C50EBE7C3ED147AE8E7F2EE0E6AE8
:103A90009FED667AA7EEA67A83ED157ADFE71C75AF
:103AA000DDE7C3ED067ADAE7C3ED077AD7E7DFEDA6
:103AB000606A9FED607AA7EEA67A83ED087ACEE77A
:103AC000B1EE007A67EE877AFCEEE77A17EE902A7D
:103AD00083F82420C3E783F82840C0E7C3ED0B7ABE
:103AE000BDE7C3ED0C7ABAE7DFED516A9FED517A7D
:103AF000A7EEA67A83ED0D7AB1E7B1EE007A67EE14
:103B0000877AFCEEE77A17EE902A83F83820A6E74A
:103B1000C3ED177AA3E7C3ED187AA0E767EEA77A9B
:103B2000DFED456AB3EE047AA7EEA67A83ED237A39
:103B300095E79FED427A67EE877AC3ED247A8EE7A8
:103B4000F1EE006A9FED397AA7EEA67A83ED197A35
:103B500085E7F0EE006A9FED357AA7EEA67A83ED51
:103B60001A7A7CE7C3ED1B7A79E7F0EE086A9FEDDD
:103B70002F7AA7EEA67A83ED1C7A70E7F1EE006A41
:103B80009FED2A7AA7EEA67A83ED1E7A67E7F0EE1C
:103B9000006A9FED267AA7EEA67A83ED1F7A5EE78C
:103BA000C3ED207A5BE7F0EE086A9FED207AA7EE7E
:103BB000A67A83ED217A52E7C3ED227A4FE7C3ED6F
:103BC000257A4CE79FED1E7A67EE877AC3ED277A58
:103BD00045E7DFED1C6A9FED1C7AA7EEA67A83ED20
:103BE000267A3CE7C3ED297A3F2A94BF00220122BE
:103BF00083F8A82033E73F2A94BF0022012283F8EC
:103C0000A9202CE73F2A94BF0022012283F8A0209C
:103C100025E71521B2FBF1F283F848201FE700BF2A
:103C20000000FE429EEF7F409EEF3F400AD7233CBC
:103C30000000C842000048C200409C466666E63F5D
:103C4000A4707D3F00B888460000FA431521B2FBFE
:103C5000F1F283F8582002E702B030BC704700BF91
:103C60002DE9F04300F5C0241746DFEDEB7A054659
:103C700004F6046304F65852C430884693ED007A83
:103C8000D2ED006A04F65C5294F8D01E76EEC76A54
:103C90002DED0C8BA6EEA77A89B0DFEDE09A83EDCF
:103CA000007A04F60863D2ED006A04F6E44293ED6C
:103CB000007A76EEC76AA6EEA77A83ED007A04F55D
:103CC0005963D2ED006A04F6F84293ED007A76EE7D
:103CD000C76AA6EEA77A83ED007A04F6A453D2ED64
:103CE000006A04F6285293ED007A76EEC76AA6EED3
:103CF000A77A83ED007A04F6D453D2ED006A04F576
:103D0000566293ED007A76EEC76AA6EEA77A83ED47
:103D1000007A04F60C63D2ED006A93ED007A76EE39
:103D2000C76AA6EEA77A83ED007A16F025FF94F80D
:103D3000D01E05F1F400F0EE408A16F01DFF05F1EB
:103D40006800B0EE40CA17F057F905F19400F0EEA4
:103D500040AA17F051F904F60C53B0EE40AAD3ED87
:103D600000BA04F61C5393ED00BA6AEEABBA94F8AD
:103D7000743D20EE0BBA23B195F831300BB1C5ED8F
:103D8000159A04F6E84305F5C1269FEDA5DA93EDF3
:103D9000008A04F6FC4306F2C44693ED009A04F64A
:103DA000EC43D3ED00DA04F55063D3ED00CA94F888
:103DB000143D032B40F03E8138EE2B8A94F8243DCD
:103DC000032B40F0498139EE0B9AC8FE297AB7EEF1
:103DD000008A05F13409C7FEC87A87FEA97A87FEF2
:103DE000487A85ED037AB5EE007A89FE299A89FE34
:103DF000489A67EE877A95ED020A2846C5ED057A5E
:103E0000C9FE297A29EE079AC7FEC87AC5ED107A4D
:103E100085ED129A9FED839ACDFE89DACDFECDDA3B
:103E2000C5ED04DAFFF75CFB95ED0F0ACCFE89CAFD
:103E300048468CFECDDA85ED11DAFFF751FB9FED98
:103E40007A7A04F62C532846D3ED007AC7FEA97A75
:103E5000C7FEC87AC7FEA97AC7FEC87A67EE877A16
:103E6000C5ED307A00F0BCFA04F559634846D3ED4D
:103E700000CA60EE2CCA00F0B3FA04F6A45395ED24
:103E8000309A93ED00DA20EE0DDA18F035FA07EEED
:103E9000900A95ED307A04F6D453FAEEE07AF4EE17
:103EA000C77AF1EE10FA4CBF88EE097ADFED5B7A43
:103EB00093ED009A94F8753D48BF67EE277A27EE98
:103EC000899A002B00F0DA806CEE8DCA9FED53DAF0
:103ED000F0EE4D0A3046B0EE6C0A00F0B5FB04F689
:103EE000545339EE009A9FED517A93ED000A04F68F
:103EF000046305F592702CEE00CAD3ED007A94F8B5
:103F0000143DB3EE040A0390ECEE077A022B94F80A
:103F1000243D08BFEBEE877A022B08BFEBEE077A51
:103F2000C7FE807A9FED420A87FEC00A16F038FF6E
:103F3000B0EE490A039816F0BBFF04F5546328EE6F
:103F4000800AD3ED008A94F8143D20EE280A012B54
:103F50008DED050A11D104F60C537AEE88AAB6EE5F
:103F6000007AD3ED007A6AEE87AA78EE678AE7EEE8
:103F7000AA8A20EE280A8DED050A94F8243D012B2B
:103F800015D104F61C533AEE08AAB6EE000AD3ED9A
:103F9000006A2AEE00AA78EE667AE6EE8A7AB0EE39
:103FA000677ADDED057A67EE877ACDED057A07ABA6
:103FB00005AA05F5C070CDED069A0093114606AB33
:103FC000CDED079A17F044FA04F556639DED067A95
:103FD00004F6D864D3ED007A9DED056A38EE678A61
:103FE000D4ED006A27EE877AA8EE067A26EE877A65
:103FF00088ED007A9DED077A67EE877A94ED007A76
:10400000E8EE067A67EE277AC7ED007A09B0BDECD4
:104010000C8BBDE8F08300BF6F12833A00000000F4
:1040200000004842000048C29A99993E00401C4650
:1040300000409C46042B0CD0052B7FF4BFAE04F54A
:104040005763304693ED000A3BEE800A00F022FBF6
:10405000B4E6EBEE8DDAB1E6042B0CD0052B7FF441
:10406000B4AE04F55763304693ED000A3BEE000A08
:1040700000F010FBA9E6EBEE0DCAA6E694F86C3D45
:10408000002B7FF425AF7CEE8DCA1FE7054B142271
:10409000002110B5044640F8043B18F041F82046D2
:1040A00010BD00BF0000C84270470023436083601A
:1040B000C3600361436170470369024630B54361E1
:1040C00087B0C368043201AC03618368C36043688E
:1040D00080ED010A836000F114031068083252F881
:1040E000041C25469A4203C52C46F6D1106802A945
:1040F00000222860F1EC017A1346084610ED027A9E
:10410000B4EEE77AF1EE10FA03DD013B20ED017A1F
:10411000F4D206A8013200EB8303042A43ED047AAB
:10412000E8D19DED030A07B030BD00002DE9F8434A
:104130002A4C0546031D4FF0000804F1180705F14D
:1041400024064FF0100994E8070083E8070004F103
:104150000C0205F1100307CA83E807000FCFC5F86A
:104160001C80C5F820800FC63B6804F12C07336023
:1041700005F138060FCF0FC63B684A46002105F10E
:104180004C00336004F1580717F0CAFF04F14002F5
:1041900005F15C0305F17C0607CA83E8070004F11A
:1041A0004C0205F168036C3407CA83E807000FCF9F
:1041B000C5F87480C5F878800FC63B68336005F198
:1041C00090060FCC0FC623684A46002105F1A400D3
:1041D000336017F0A5FF2846BDE8F88308D801082A
:1041E000704738B5002503460446102203F81C1B0F
:1041F0004C3040F8305C29465D6017F091FF29464D
:1042000004F1A4006567A5671022BDE8384017F0E7
:1042100087BF00000378032B00F2B080DFE803F0D3
:1042200058770221D0ED086AD0ED067A90ED077A32
:1042300066EEA77A90ED056A80ED087AE6EE077AD9
:1042400090ED016A70EE677A90ED020A27EE000A9F
:10425000C0ED077AA6EE270A90ED036AA6EE860A5D
:10426000704790ED146AD0ED107AD0ED136A66EEC7
:10427000277A90ED0F7AD0ED155A90ED165AE7EEA9
:10428000267A90ED117AD0ED124AC0ED165A80EDE3
:10429000156AC0ED146AE7EE257A90ED097AE4EE2E
:1042A000857A70EE677A90ED0A0A26EE800AC0EDF4
:1042B000137AA7EE270A90ED0B7AA6EE070A90ED87
:1042C0000C7AA5EE870A90ED0D7AA5EE070A7047E5
:1042D000D0ED1E6AD0ED1C7A90ED1D7A66EEA77ABD
:1042E00090ED1B6A80ED1E7AE6EE077A90ED176A74
:1042F00070EE677A90ED180A27EE000AC0ED1D7A7D
:10430000A6EE270A90ED196AA6EE860A7047D0ED50
:104310002A6AD0ED267A90ED297A66EEA77A90ED9A
:10432000256AD0ED275A90ED285AE6EE077A90EDEF
:104330002B6A80ED2A7AC0ED2B6AE5EE867AD0ED05
:104340002C5A80ED2C6AE5EE257A90ED1F5A70EE1E
:10435000677A90ED200A27EE000AC0ED297AA5EED3
:10436000270A90ED215AA6EE850A90ED225AA6EE74
:10437000050A90ED235AA5EE850A70479FED010AC4
:10438000704700BF00000000B4EEE00AF7EE007ACC
:10439000F1EE10FA0ADD80EE807AF0EE006A27EE88
:1043A000470AA7EE260A30EE670A704737EEC07A52
:1043B000B4EEE07AF1EE10FA41BF70EEE70A80EE5B
:1043C000807AB0EE470AA7EE070A46BF37EE000A2A
:1043D00030EE270A9FED010A704700BF0000000081
:1043E000037810B504462DED048BF6EE008AD0ED6F
:1043F000099AB7EE008A90ED089A072B00F2068121
:10440000DFE803F004358B5F849ECEDF9FED820AE8
:1044100029EE000A17F0E4FC39EE899AB4EEC89A46
:1044200084ED089AF1EE10FAC5BF39EE489A0123DF
:10443000002384ED089AD4ED087A84F8313077EEC1
:10444000E99AF4EEE89AF1EE10FA40F1E280F4EE27
:10445000E87AF1EE10FAACBF01230023D4ED017A23
:1044600084F8303020EE270ABDEC048B10BDFFEE3F
:10447000007AD0ED035AB0EE007A9FED686AF0EE54
:10448000486AB0EE670AE5EE866AA9EE070AB0EE62
:10449000C00A30EE680A30EE000A20EE260AB4EEBA
:1044A000C80AF1EE10FA02DD37EE400AB4E7B4EEC6
:1044B000E70AF1EE10FAAFD5F8EE007A37EEC00A4F
:1044C000AAE7D0ED057AF0EE006A9FED557A37EE57
:1044D000C77AB4EEC97AF1EE10FA08D59FED517A99
:1044E00037EE677AB4EEC97AF1EE10FA04DCF5EE35
:1044F000407AF1EE10FA04D1BFEE000AA9EE260AC6
:104500008AE7B0EE480AA9EE660A85E7F0EE007A7F
:10451000BFEE000AA9EE270A7EE7F0EE687AD0ED3A
:10452000036A9FED417AB7EE000AE6EEC77AF4EE31
:10453000C97AFFEE007AF1EE10FA30FE270A6BE737
:10454000B4EEE89AB7EE006AFFEE005AF1EE10FA08
:10455000F0EE490AB0EE690A58BFB0EE656AFFF79F
:1045600013FF79EE287A36EE006AFBFE670AB0EE9A
:10457000690A77EEE00AFFF707FF78EE697A36EE10
:10458000406A90ED0A0A27EE800AF0EE407AB1EE1A
:10459000000AE6EE297AC0ED0A7A20EE270A3BE708
:1045A000F0EE007ABFEE006AF0EE490AB0EE690A5A
:1045B000A9EE276AFFF7E8FE36EE400AB1EE400AA0
:1045C0002AE790ED035AB7EE006AFFEE005AB4EE08
:1045D000C95A38EE455AF0EE490AF1EE10FA35EEB6
:1045E000095AB0EE690A76FE255AFFF7CDFE75EE40
:1045F000805AFBFE450AB0EE690A75EE600AFFF7C5
:10460000C3FEDFED0A7A35EEC00AC6E79FED080A61
:1046100002E7002322E700BFDB0FC9406666663F62
:10462000CDCC4C3D3333733F6666E63EF4FD343FFC
:1046300000000000D0ED077A20EE270A704770478F
:104640007047002303807047B0F9003023B9F5EEBE
:10465000400AF1EE10FA19D09FED0D7A60EE870A4C
:1046600020EE070AFDEEE00ABDEEC00A10EE902A29
:1046700003FA82F310EE102A12B2534007EE903A7A
:10468000F8EEE77A87EE870AC0ED017A704700BF3F
:1046900000FEFF46DFED047A20EE270ABDEEC00AD9
:1046A00010EE103A0380704700FEFF4606494FF6B1
:1046B000FF0C0002054BCA6800F4E06002EA0C023D
:1046C00010430343CB60704700ED00E00000FA05A3
:1046D0001B4BDB68C3F3022300B5C3F1070E03F1E4
:1046E000040CBEF1040F28BF4FF0040EBCF1060FFE
:1046F0001AD9033B4FF0FF3C0CFA03FC22EA0C02F0
:104700004FF0FF3C00280CFA0EFC21EA0C0101FAE4
:1047100003F141EA02010ADB09010A4BC9B2034471
:1047200083F800135DF804FB00221346E8E700F06D
:104730000F000901044BC9B2034419765DF804FB6C
:1047400000ED00E000E100E0FCEC00E0002807DB09
:10475000012300F01F01034A40098B4042F820303A
:10476000704700BF00E100E000280DDB4309012293
:1047700000F01F000549203302FA00F041F8230041
:10478000BFF34F8FBFF36F8F704700BF00E100E0B2
:10479000BFF34F8F0549064BCA6802F4E06213432A
:1047A000CB60BFF34F8F00BFFDE700BF00ED00E01F
:1047B0000400FA05431EB3F1807F0CD24FF0E022D3
:1047C000002006494FF0F00C5361072381F823C005
:1047D0009061136170470120704700BF00ED00E059
:1047E000BFF35F8F044B00215A6A22F480325A6271
:1047F000C3F89410704700BF00ED00E0064B40F096
:104800000100C3F894005A6A42F480325A62BFF33E
:104810004F8FBFF36F8F704700ED00E0174A43786A
:10482000C2F89830017821B3436800B5C2F89C30D3
:10483000C37A90F80CC01B0690F80FE043EA0C73A3
:1048400090F80AC00B43817B43EACC4390F80DC03B
:1048500043EA8C4390F809C043EA4143017A43EAB2
:104860000E4343EA0C2343EA4103C2F8A0305DF84B
:1048700004FBC2F89C10C2F8A010704700ED00E0E5
:10488000704700BF08B5FFF7FBFF08BD202882B0C6
:1048900009D8084B03EB400213F81030507843EA74
:1048A000002002B0704701230C2043EA002002B030
:1048B000704700BF84DB0108084605F0EBB800BF75
:1048C000143001F011BA00BF143001F02FBA00BF4C
:1048D000143001F005BA00BF38B500F114050446E4
:1048E0002DED028B284601F0EDF9284601F0F8F98C
:1048F0002846B0EE408A01F0E1F9D0ED007AF8EEFA
:10490000677A88EE277ABDEC028B84ED1B7A38BD7E
:10491000283002F0CDBA00BF10B540F203338EB09C
:1049200000244FF60B7240F20341ADF8083009A89D
:104930000123ADF81020ADF824202246ADF80C106C
:104940000094029907940C94CDE90544CDE90A44FA
:1049500002F0BCF904A8012322460399009402F056
:10496000B5F909A802F098FA10B901200EB010BDEF
:1049700004A802F091FAA0420CBF022020460EB01B
:1049800010BD00BF2DE9F04103239AB04FF001089C
:1049900000254FF60B740746CDE91438394BADF8B6
:1049A0004C40CDE91053A3F19F63A3F57D43CDE9BE
:1049B00016581293FFF7B0FF4045064623D0022851
:1049C00042D040F60132304B07F158000BACADF845
:1049D0002C200B991895CDF86480CDF84A3000F062
:1049E000DBF810A907F1700004F0A2FB274B0FCBF6
:1049F00084E80F003A6F214607F1140001F026F910
:104A00001AB0BDE8F08110231F4A06A906908DF860
:104A100028300BAC1E4BCDF84A2007930295CDE908
:104A20001805CDE9080502A802F022FE0823029A23
:104A300003A92046ADF80C608DF80E50049605933E
:104A40000B9500F0E9F8CCE740F60133ADF82C40C7
:104A500000200BACADF8183001210B4B42460095FD
:104A6000CDF84A302B460E95CDE91801069920461F
:104A7000CDE90C5502F02AF92946204602F018FA31
:104A8000AFE700BF040204040406040388D8010849
:104A90000704010B2DE9F04704462DED028B82B08F
:104AA000002949D0012140F2011200230091ADF804
:104AB00004208DF80630354A0127354B04F10409EE
:104AC000344904F13C08626040F20272A36040F68F
:104AD0000663E16004F1280A2285A3872782E76242
:104AE000276405F0D1F9054605F024F86946064625
:104AF00050BB4DB304F150008DF8067005F044F939
:104B0000072D3ED104F114052046FFF73BFF284650
:104B100001F0E6F82846B0EE408A01F0CFF8D0ED7B
:104B2000007AF8EE677A88EE277A84ED1B7A02B075
:104B3000BDEC028BBDE8F08740F2011300918DF8C7
:104B40000610ADF80430B6E704F1500005F01CF98A
:104B5000072D13D04946204603F0FEFD0EB9002D67
:104B6000D0D15146504601F0EDFE4046414601F09D
:104B7000E9FE04F1120000F079F9C3E7002EF0D14C
:104B8000C0E74946204603F0E7FDBBE705080509F5
:104B900005070506050A060630B585B0002504465A
:104BA0000122ADF80C102B460399009502F08EF807
:104BB0000121204602F07CF9012004F06BFF294618
:104BC000204602F075F9012004F064FF012120461F
:104BD00005B0BDE8304002F06BB900BF10B5C2F3BC
:104BE000002384B00C46017C8DF80D2043EA44027A
:104BF000FA2402238DF80C2003AA009402F0D0FDC1
:104C000018B10124204604B010BD04460A2004F067
:104C100041FF204604B010BD034670B543F8042B95
:104C2000044684B007C983E80700A37983B91A2131
:104C30000B461E22FA2523742046ADF80C200223D1
:104C400003AA009502F0ACFD28B1012004B070BDAC
:104C50001B210B46EDE70A2004F01CFF4FF4B8526D
:104C600000950223ADF80C20204603AA217C02F017
:104C700097FD0028E9D10A2004F00CFF41F20272EE
:104C800000950223ADF80C20204603AA217C02F0F7
:104C900087FD0028D9D10A2004F0FCFE04220095EB
:104CA0000223ADF80C20204603AA217C02F078FDF7
:104CB0000028CAD10A2004F0EDFE06220095022346
:104CC000ADF80C20204603AA217C02F069FD0028E3
:104CD000BBD10A2004F0DEFE41F208220095022337
:104CE000ADF80C20204603AA217C02F059FD0028D3
:104CF000ABD10A20064604F0CDFE0095022303AA9C
:104D0000217C2046ADF80C6002F04AFD00289CD1C1
:104D1000304604F0BFFE009522790C232046002A7D
:104D20008DF80C3003AA4FF0020314BF6221422118
:104D30008DF80D10217C02F033FD002885D130461E
:104D400004F0A8FE2279D4E902310B43DBB20AB9A0
:104D500043F0400362790AB143F020030E22FA25A2
:104D60008DF80D302046009502238DF80C2003AA03
:104D7000217C02F015FD00287FF467AF0A2004F0C3
:104D800089FE102200950223ADF80C20204603AACC
:104D9000217C02F005FD00287FF457AF0A2004F0C3
:104DA00079FE122100950223ADF80C1003AA217C94
:104DB000204602F0F5FC00287FF447AF0A2004F0FB
:104DC00069FE012209212046FFF708FF003818BFBD
:104DD00001203BE7F0B5102387B0234C01220025CA
:104DE0000126002702A920460195CDE902234FF4B0
:104DF0008052CDE904670EF0B3FF642005F066FB36
:104E000002A94FF480522046CDE9046702261027FC
:104E1000CDE902670EF0A4FF0322102302A9204669
:104E2000CDE9022300230422CDE904234FF480526C
:104E30000EF096FF40F23223042202A901931023C0
:104E40002046CDE90223019A012305924FF48052B6
:104E500004930EF085FF40F6060120460EF0A0FFF9
:104E6000284607B0F0BD00BFF4D106241C4B002239
:104E70001C494FF0400C30B5054689B002205960FE
:104E800007219A601A620124DA620A224FF4006E46
:104E9000DC6006922022CDE9000104200821CDE942
:104EA000020103201021CDE9040108206946C3E96D
:104EB00004024FF4C072181DC3E906C24FF48052B9
:104EC000C3E909E20EF022FF38B92846FFF782FF56
:104ED000003818BF012009B030BD204609B030BDF0
:104EE000F0D1062440410052614A0021D0B5136838
:104EF0008EB00A91002B40F0B9805E4B01214FF635
:104F000083700C2411600221D3F8D42000260327DB
:104F100042F48052C3F8D420D3F8D42002F4805253
:104F20000092009AD3F8E02042F01002C3F8E0208B
:104F3000D3F8E02002F010020192019AD3F8E020A9
:104F400042F04002C3F8E020D3F8E02002F0400233
:104F50000292029AD3F8E02042F00802C3F8E0205F
:104F6000D3F8E02002F008020392039AD3F8E0207D
:104F700042F48072C3F8E020D3F8E02002F480729B
:104F80000492049AD3F8E02042F08002C3F8E020B3
:104F9000D3F8E02002F080020592059AD3F8E020D1
:104FA00042F02002C3F8E020D3F8E02002F0200213
:104FB0000692069AD3F8E02042F00402C3F8E020FB
:104FC000D3F8E0300C9403F0040307930323079A0B
:104FD0000B93CDE9080108A9274807F031FB48F2F7
:104FE0003712022308A925480C94CDE90823CDE9FE
:104FF0000A6707F025FB4CF20372022308A9204838
:105000000C94CDE90823CDE90A6707F019FB40F2BB
:10501000FF62022308A91B480C94CDE90823CDE9BF
:105020000A6707F00DFB4FF60C72022308A9164819
:105030000C94CDE90823CDE90A6707F001FB4FF690
:105040003F02022308A911480C94CDE90823CDE9B9
:105050000A6707F0F5FA2022022308A90A480C94EF
:10506000CDE90A67CDE9082307F0EAFA0EB0D0BD12
:10507000ECD10624004402580010025800180258CF
:10508000000C025800200258001C0258001402585C
:105090002DE9F04FDFF8108406460D46144608F15E
:1050A00018002DED028B89B000AF04F039F9D8F863
:1050B000183073B3D8F81C30D8F80490002B43692B
:1050C0000BBF4FF0080A4FF0100A4FF0020B4FF0E1
:1050D000040BB9F1000F2AD0A200EA46012B02F11D
:1050E000070222F00702ADEB020D6846ADEB020DA0
:1050F000694600F03F81022B00F0D680002B6FD074
:105100002246C847D5462437BD46BDEC028BBDE8D4
:10511000F08FD8F81C30002BF5D0D8F804904FF061
:10512000080A4FF0020B4369B9F1000FD4D1FB61BB
:10513000D8F80030BB61002BE5D0D54804F06EF9FB
:105140006B46BBF1020F786108EE103AFB6900F084
:1051500083816A465146A2EBC40295466200EA4644
:10516000B2FBFBF2AAEBC40085460AEB8200EE46D6
:10517000F861ADEB010DF8690EEB820CC7F810C0B9
:10518000EC46ADEB010D00EB8201CCF80400CCF84D
:10519000081001EB82013869E946CCF80C1000EBED
:1051A0008201CCF800A001EB8202C9E900E0C9E964
:1051B0000212012B00F06483022B00F06C82002BA2
:1051C00000F08081620849466046BB69984718EE46
:1051D000103A24379D46BD46BDEC028BBDE8F08FEA
:1051E000002C8DD01A46D8ED0C6A9FEDB27A844619
:1051F000331D36F922E00CF1080C07EE90EA33F982
:1052000022E00232F8EEE77A944267EE877A67EEA0
:10521000A67A4CED027A07EE90EAF8EEE77A67EEAE
:10522000877A67EEA67A4CED017AE2D8F9612246D8
:10523000C847984ED8ED0D6A0020F9692B1D9FEDE7
:105240009E7A9FED9E6ADFED9E5A22E0F4EEC67ACA
:10525000F1EE10FAC0F2C88447F6FE72D1ED017A81
:1052600045F8202066EEA77AF4EEC77AF1EE10FA40
:1052700040F2F080F4EEC67AF1EE10FAC0F2D58476
:1052800047F6FE7243F820200230083184427FF650
:1052900039AFD1ED007A66EEA77AF4EEC77AF1EE77
:1052A00010FAD3D83246D9E7002C3FF429AFD8ED15
:1052B0000C6A84469FED787A0022331D8E4656F89C
:1052C00022100CF1080C07EE901A53F8221002324B
:1052D000F8EEE77A944267EE877A67EEA67A4CEDAD
:1052E000027A07EE901AF8EEE77A67EE877A67EEB1
:1052F000A67A4CED017AE2D871462246C7F81CE046
:10530000C847664ED8ED0D6A0020F9692B1D9FED48
:105310006A7A9FED6A6ADFF894C120E0F4EEC67AFB
:10532000F1EE10FAC0F279843246D1ED017A45F8F7
:10533000202066EEA77AF4EEC77AF1EE10FA40F27A
:105340008780F4EEC67AF1EE10FAC0F25E8432463F
:1053500043F820200230083184427FF6D3AED1EDED
:10536000007A66EEA77AF4EEC77AF1EE10FAD5D895
:105370006246DAE7002C3FF4C3AED8ED0C6A8646ED
:105380009FED477A4FF0000C331D56F82C200EF19C
:10539000080E82F40002A2F5000207EE902A53F8EC
:1053A0002C200CF1020CF8EEE77A82F4000264453E
:1053B000A2F5000267EE877A67EEA67A4EED027AD2
:1053C00007EE902AF8EEE77A67EE877A67EEA67A1C
:1053D0004EED017AD9D8F9612246C847314ED8ED51
:1053E0000D6A0020F9692B1D9FED337A9FED336A1A
:1053F000DFF8BCC01FE0F4EEC67AF1EE10FAC0F29E
:10540000FC833246D1ED017A45F8202066EEA77A7A
:10541000F4EEC77AF1EE10FA18D9F4EEC67AF1EE8E
:1054200010FAC0F2DA83324643F820200230083105
:1054300084427FF667AED1ED007A66EEA77AF4EE8D
:10544000C77AF1EE10FAD6D86246DBE76246EBE7A0
:1054500062467DE7324615E7A100D646620807316D
:1054600021F00701ADEB010DEA46ADEB010D6946F8
:10547000ADEB0E0D0AEB8200EC46ADEB0E0D01EB31
:105480008202F861E946CCE900A0C9E9001290E681
:1054900044D206240280FFFF000000300082FF7F1C
:1054A0000000003482FF7F0028D20624007E0080A6
:1054B0007E0080FF0000003804FF7FBF04FF7F3FB5
:1054C00000FEFF46002C00F0C982BBF1020FD8F8A5
:1054D000242000F0FA827969C7F8049002EB810E6B
:1054E0005FED0C5A8A00DCF808100EF104007A61B6
:1054F0001A46DCF80C303B61331DD7F810903D6143
:10550000FD69C7E902CB8C46834636F92210D8EDF7
:105510000C7A06EE101A33F9221006EE901A3EF9B4
:105520002210B8EEC66A07EE101AF8EEE66A3BF9EA
:105530002210B8EEC77A26EE256A66EEA56A27EE37
:10554000257A26EE276A66EEA76A27EE277A07EE07
:10555000901A51080232F8EEE77A0AEB8100944281
:1055600080ED006A05EB810067EEA57AC0ED006A68
:105570000CEB810009EB810180ED007A98ED0C7A4B
:1055800067EE877AC1ED007ABFD8D7F804903D69FD
:10559000D7E902CB60466208BB6949469847D8F80C
:1055A0002C307A69D8ED0D6A1A441FED3D7A1FED53
:1055B0003D6A2B1D904602F1040A5FED3F5A00221E
:1055C000A84ED9E900EC51E0F4EEC67AF1EE10FAFB
:1055D000C0F2C78247F6FE7045F822000CEB0100CE
:1055E000D0ED007A66EEA77AF4EEC77AF1EE10FA03
:1055F0004BD9F4EEC67AF1EE10FAC0F2BA8247F651
:10560000FE70BBF1020F43F822002BD0D9F808003E
:105610000844D0ED007A66EEA77AF4EEC77AF1EE90
:1056200010FA36D9F4EEC67AF1EE10FAC0F2CD8255
:1056300047F6FE7048F82200D9F80C000144D1ED7D
:10564000007A66EEA77AF4EEC77AF1EE10FA1ED968
:10565000F4EEC67AF1EE10FAC0F2AF8247F6FE71B0
:105660004AF82210023294427FF6B1AD51080EEB97
:1056700081008900D0ED007A66EEA77AF4EEC77A51
:10568000F1EE10FAA0D83046A6E73046B9E7314629
:10569000E6E73046CEE7002C00F0E081BBF1020FD8
:1056A000D8F8243000F0E1817A69DCF8081003EBC7
:1056B000820EC7F804909300DFED6B5A0EF10400E0
:1056C00000227B61DCF80C303B61331DD7F8109071
:1056D0003D61FD69C7E902CB8C46834656F822102E
:1056E000D8ED0C7A07EE101A53F82210B8EEC76AFC
:1056F00007EE101A5EF82210F8EEC76A07EE101ACD
:1057000026EE256A5BF82210B8EEC77A66EEA56A27
:1057100026EE276A27EE257A66EEA76A27EE277A15
:1057200007EE901A51080232F8EEE77A0AEB810090
:10573000944280ED006A05EB810067EEA57AC0ED2A
:10574000006A0CEB810009EB810180ED007A98ED95
:105750000C7A67EE877AC1ED007ABFD8D7F804904B
:105760003D69D7E902CB60466208BB694946984764
:10577000D8F82C307A69D8ED0D6A1A449FED3E7A3C
:105780009FED3E6A131D9246DFF8E4C00022FB61E4
:105790002B1D364ED9E9008E4EE0F4EEC67AF1EEBE
:1057A00010FAC0F2FC81304645F822000EEB0100F1
:1057B000D0ED007A66EEA77AF4EEC77AF1EE10FA31
:1057C00049D9F4EEC67AF1EE10FAC0F2EF81304614
:1057D000BBF1020F43F822002AD0D9F80800084490
:1057E000D0ED007A66EEA77AF4EEC77AF1EE10FA01
:1057F00035D9F4EEC67AF1EE10FAC0F2C98130461E
:105800004AF82200D9F80C000144D1ED007A66EE86
:10581000A77AF4EEC77AF1EE10FA1ED9F4EEC67A42
:10582000F1EE10FAC0F2AD813146F86940F822106D
:10583000023294427FF6CBAC510808EB810089001C
:10584000D0ED007A66EEA77AF4EEC77AF1EE10FAA0
:10585000A3D86046A8E76046BAE76146E5E7604638
:10586000CEE700BF0280FFFF000000300082FF7F14
:10587000007E00800000003404FF7FBF04FF7F3FF4
:10588000002C00F0EB807A690021D8F82430C7F8AA
:10589000109003EB820ED7F81C909300FD610EF17F
:1058A00004021FED0C6A7B61331D154656F821205A
:1058B0004808D8ED0C6ABBF1020F82F40002A2F591
:1058C000000207EE902A53F8212082F40002B8EE7D
:1058D000E77AA2F5000227EE067A07EE902A0AEB95
:1058E0008002F8EEE77A27EE267A67EE867A82ED76
:1058F000007A09EB80024FEA800067EEA67AC2EDDB
:10590000007A27D05EF8212082F40002A2F500027E
:1059100007EE902A55F8212082F40002B8EEE77ACB
:10592000A2F5000227EE067A07EE902ADCF808209E
:10593000F8EEE77A024427EE267A67EE867A82ED61
:10594000007A98ED0C7ADCF80C2067EE877A024436
:10595000C2ED007A02318C42A8D8D7F81090604688
:105960006208BB694946FD699847D8F82C307A69C6
:10597000D8ED0D6A1A441FED407A1FED406A131DE1
:105980009246DFF8C4C20022FB612B1DAB4ED9E961
:10599000008E4EE0F4EEC67AF1EE10FAC0F2C58049
:1059A000304645F822000EEB0100D0ED007A66EE9D
:1059B000A77AF4EEC77AF1EE10FA49D9F4EEC67A76
:1059C000F1EE10FAC0F2BF803046BBF1020F43F88F
:1059D00022002AD0D9F808000844D0ED007A66EEFB
:1059E000A77AF4EEC77AF1EE10FA35D9F4EEC67A5A
:1059F000F1EE10FAC0F2AE8030464AF82200D9F833
:105A00000C000144D1ED007A66EEA77AF4EEC77A75
:105A1000F1EE10FA1ED9F4EEC67AF1EE10FAC0F2E9
:105A20008B803146F86940F82210023294427FF6AA
:105A3000CEAB510808EB81008900D0ED007A66EE0C
:105A4000A77AF4EEC77AF1EE10FAA3D86046A8E779
:105A50006046BAE76146E5E76046CEE7224649463A
:105A60006046BB699847FFF7B2BBC7F810B0002289
:105A700098ED0C6A331DDFED726AD7F81CB07869B7
:105A800056F8221007EE901A53F82210B8EEE77A73
:105A900007EE901A51080232F8EEE77A27EE267ADE
:105AA0000AEB810E94420BEB810167EEA67A27EE9A
:105AB000067A67EE867A8EED007AC1ED007ADFD83D
:105AC0008300D7F810B07B614DE61A46C7F810B0D6
:105AD00098ED0C6A331DDFED5B6AD7F81CB078696E
