:020000040800F2
:1000000000000220290A00081D0A0008598E000875
:100010001D0A00081D0A00081D0A00080000000053
:100020000000000000000000000000001D0A0008A1
:100030001D0A0008000000001D0A0008DD8D0008F0
:100040001D0A00081D0A00081D0A00081D0A0008F4
:100050001D0A00081D0A00081D0A00081D0A0008E4
:100060001D0A00081D0A00081D0A0008BD840008BA
:10007000C98400081D0A0008D5840008E18400082E
:10008000256A0108D96700081D0A00081D0A000832
:100090001D0A00081D0A00081D0A00081D0A0008A4
:1000A0001D0A00081D0A00081D0A00081D0A000894
:1000B000118B00081D8B0008298B00080D680008B3
:1000C0001D0A0008196800081D0A00086D5701087C
:1000D000795701085968010885680108B96801085D
:1000E0001D0A00081D0A0008000000001D0A000883
:1000F0001D0A00081D0A00081D0A00081D0A000844
:100100001D0A00081D0A0008358B000885570108E4
:10011000ED680108216901081D0A00081D0A000890
:100120001D0A00081D0A0008A9570108DD5701082B
:10013000596A01081D0A00081D0A00081D0A000866
:1001400000000000000000000000000000000000AF
:100150001D0A00081D0A00081D0A0008556901084B
:10016000256800081D0A0008ED8D0008118E0008A2
:100170001D0A0008358E00081D0A00081D0A000827
:100180001D0A00081D0A000889690108BD690108E7
:10019000915701089D5701081D0A00081D0A000813
:1001A0001D0A00081D0A00081D0A00081D0A000893
:1001B000B18100081D0A00081D0A00081D0A000878
:1001C0001D0A00081D0A0008C5490108D149010897
:1001D0001D0A0008DD4901081D0A00081D0A000863
:1001E0001D0A00081D0A00081D0A00081D0A000853
:1001F0001D0A00081D0A00081D0A00081D0A000843
:100200001D0A00081D0A00081D0A00081D0A000832
:100210001D0A00081D0A00081D0A00081D0A000822
:100220001D0A00081D0A00081D0A00080000000041
:100230001D0A00081D0A0008000000001D0A000831
:100240001D0A00081D0A00081D0A00081D0A0008F2
:100250001D0A00081D0A00081D0A00081D0A0008E2
:100260001D0A00081D0A00081D0A00081D0A0008D2
:100270001D0A00081D0A0008F169010800000000BD
:100280001D0A00081D0A00081D0A000800000000E1
:08029000000000001D0A000837
:1002A00010B5054C237833B9044B13B10448AFF3B0
:1002B00000800123237010BD3006002400000000E0
:1002C00018E3010808B5034B1BB103490348AFF31A
:1002D000008008BD000000003406002418E3010877
:1002E00010F8012B11F8013B012A28BF9A42F7D0E0
:1002F000D01A70470000000000000000000000005D
:1003000001F0FF01102A2BDB10F0070F08D010F8C6
:10031000013B013A8B422DD010F0070F42B3F6D1CA
:10032000F0B441EA012141EA014122F007047FF0E3
:1003300000070023F0E80256083C85EA010586EA3A
:10034000010685FA47F5A3FA87F586FA47F6A5FA76
:1003500087F68EB9EED1F0BC01F0FF0102F0070282
:1003600032B110F8013B013A83EA010313B1F8D12D
:100370000020704701387047002D06BF354603380E
:10038000073815F0010F07D1013015F4807F02BF47
:10039000013015F4C03F0130F0BC0138704700BF98
:1003A00081F0004102E000BF83F0004330B54FEA26
:1003B00041044FEA430594EA050F08BF90EA020F93
:1003C0001FBF54EA000C55EA020C7FEA645C7FEA26
:1003D000655C00F0E2804FEA5454D4EB5555B8BF49
:1003E0006D420CDD2C4480EA020281EA030382EABA
:1003F000000083EA010180EA020281EA0303362D4C
:1004000088BF30BD11F0004F4FEA01314FF4801C1E
:100410004CEA113102D0404261EB410113F0004F30
:100420004FEA03334CEA133302D0524263EB4303E7
:1004300094EA050F00F0A780A4F10104D5F1200E85
:100440000DDB02FA0EFC22FA05F2801841F10001E0
:1004500003FA0EF2801843FA05F359410EE0A5F1B4
:1004600020050EF1200E012A03FA0EFC28BF4CF0E5
:10047000020C43FA05F3C01851EBE37101F000459B
:1004800007D54FF0000EDCF1000C7EEB00006EEBA8
:100490000101B1F5801F1BD3B1F5001F0CD3490832
:1004A0005FEA30004FEA3C0C04F101044FEA445289
:1004B00012F5800F80F09A80BCF1004F08BF5FEA10
:1004C000500C50F1000041EB045141EA050130BDF0
:1004D0005FEA4C0C404141EB0101013C28BFB1F502
:1004E000801FE9D291F0000F04BF01460020B1FA4D
:1004F00081F308BF2033A3F10B03B3F120020CDA20
:100500000C3208DD02F1140CC2F10C0201FA0CF0FD
:1005100021FA02F10CE002F11402D8BFC2F1200C62
:1005200001FA02F120FA0CFCDCBF41EA0C01904018
:10053000E41AA2BF01EB0451294330BD6FEA040461
:100540001F3C1CDA0C340EDC04F11404C4F120024C
:1005500020FA04F001FA02F340EA030021FA04F35E
:1005600045EA030130BDC4F10C04C4F1200220FAB5
:1005700002F001FA04F340EA0300294630BD21FAF3
:1005800004F0294630BD94F0000F83F4801306BFB9
:1005900081F480110134013D4EE77FEA645C18BFAD
:1005A0007FEA655C29D094EA050F08BF90EA020F44
:1005B00005D054EA000C04BF1946104630BD91EA3C
:1005C000030F1EBF0021002030BD5FEA545C05D13F
:1005D0004000494128BF41F0004130BD14F580047E
:1005E0003CBF01F5801130BD01F0004545F0FE41F2
:1005F00041F470014FF0000030BD7FEA645C1ABF27
:10060000194610467FEA655C1CBF0B46024650EA5D
:10061000013406BF52EA033591EA030F41F4002189
:1006200030BD00BF90F0000F04BF0021704730B50F
:100630004FF4806404F132044FF000054FF00001E4
:1006400050E700BF90F0000F04BF0021704730B5A5
:100650004FF4806404F1320410F0004548BF40427A
:100660004FF000013EE700BF42004FEAE2014FEACF
:1006700031014FEA02701FBF12F07F4393F07F4FAA
:1006800081F06051704732F07F4208BF704793F0AD
:100690007F4F04BF41F40021704730B54FF46074C0
:1006A00001F0004521F000411CE700BF50EA0102C3
:1006B00008BF704730B54FF000050AE050EA01026C
:1006C00008BF704730B511F0004502D5404261EBDC
:1006D00041014FF4806404F132045FEA915C3FF41D
:1006E000D8AE4FF003025FEADC0C18BF03325FEABA
:1006F000DC0C18BF033202EBDC02C2F1200300FA6B
:1007000003FC20FA02F001FA03FE40EA0E0021FA8F
:1007100002F11444BDE600BF53B94AB9002908BF2D
:1007200000281CBF4FF0FF314FF0FF3000F074B9CC
:10073000ADF1080C6DE904CE00F006F8DDF804E038
:10074000DDE9022304B070472DE9F047089D044617
:100750008E46002B4DD18A42944669D9B2FA82F274
:1007600052B101FA02F3C2F1200120FA01F10CFAB0
:1007700002FC41EA030E94404FEA1C48210CBEFBE8
:10078000F8F61FFA8CF708FB16E341EA034306FB71
:1007900007F199420AD91CEB030306F1FF3080F000
:1007A0001F81994240F21C81023E63445B1AA4B24D
:1007B000B3FBF8F008FB103344EA034400FB07F7EF
:1007C000A7420AD91CEB040400F1FF3380F00A8130
:1007D000A74240F207816444023840EA0640E41B25
:1007E00000261DB1D4400023C5E900433146BDE8D1
:1007F000F0878B4209D9002D00F0EF800026C5E973
:10080000000130463146BDE8F087B3FA83F6002E8A
:100810004AD18B4202D3824200F2F980841A61EB02
:10082000030301209E46002DE0D0C5E9004EDDE720
:1008300002B9FFDEB2FA82F2002A40F09280A1EB08
:100840000C014FEA1C471FFA8CFE0126200CB1FB5D
:10085000F7F307FB131140EA01410EFB03F0884256
:1008600008D91CEB010103F1FF3802D2884200F2E3
:10087000CB804346091AA4B2B1FBF7F007FB101175
:1008800044EA01440EFB00FEA64508D91CEB040413
:1008900000F1FF3102D2A64500F2BB800846A4EB6E
:1008A0000E0440EA03409CE7C6F12007B34022FA59
:1008B00007FC4CEA030C20FA07F401FA06F31C4388
:1008C000F9404FEA1C4900FA06F3B1FBF9F8200C95
:1008D0001FFA8CFE09FB181140EA014108FB0EF0DB
:1008E000884202FA06F20BD91CEB010108F1FF3A2B
:1008F00080F08880884240F28580A8F10208614437
:10090000091AA4B2B1FBF9F009FB101144EA014144
:1009100000FB0EFE8E4508D91CEB010100F1FF34EF
:100920006CD28E456AD90238614440EA0840A0FB87
:100930000294A1EB0E01A142C846A64656D353D05D
:100940005DB1B3EB080261EB0E0101FA07F722FA81
:1009500006F3F1401F43C5E9007100263146BDE8AA
:10096000F087C2F12003D8400CFA02FC21FA03F30D
:10097000914001434FEA1C471FFA8CFEB3FBF7F08E
:1009800007FB10360B0C43EA064300FB0EF69E42B3
:1009900004FA02F408D91CEB030300F1FF382FD24C
:1009A0009E422DD9023863449B1B89B2B3FBF7F6F4
:1009B00007FB163341EA034106FB0EF38B4208D9CD
:1009C0001CEB010106F1FF3816D28B4214D9023E0E
:1009D0006144C91A46EA004638E72E46284605E72C
:1009E0000646E3E61846F8E64B45A9D2B9EB0208FD
:1009F00064EB0C0E0138A3E74646EAE7204694E78D
:100A00004046D1E7D0467BE7023B614432E73046BF
:100A100009E76444023842E7704700BF684620F0A7
:100A200007018D46FEE7000009480A4A0A49121AE2
:100A300008B51AF0AFF80948094A0021121A1AF04D
:100A4000B7F808F0BFFC1AF061F800F087FAFEE78B
:100A5000000000242C06002458E30108300600247E
:100A6000C83107247047704770477047014B012217
:100A70001A70704778AD002470474020704780207E
:100A8000704790F8100880F001007047704700230D
:100A900080F8083870470000F8B500240D460D486E
:100AA00016460D4902F0CAFEB44212D00948A7000A
:100AB000D5E9001202EB840201EB8401013403F05A
:100AC0004BF82B6805483B4493ED000A01F002FA0D
:100AD000EAE7F8BD08C1002404000024640E0024E5
:100AE00000294FF4806200F5826014BFFF210021CD
:100AF0001AF05EB810B5044640F6140119F07DFBFB
:100B0000204610BD10B5104C204604F0F5FF2379A7
:100B100003B1A36D0D4ABFF35B8F52E8001F194468
:100B200042E800100028F8D1BFF35B8F237B53B15C
:100B300094F824307F2B06D1054B0122BFF35B8F45
:100B40001A70BFF35B8F10BD84160024E8160024D2
:100B5000E416002470B51446A4B005464618B54204
:100B600025D06A4615F8011B04F1080005F002F8CB
:100B70000028F4D0D4F8A820D4E92B03C31A48BF26
:100B80009B18013A9A42EAD0421CD4F8A430694634
:100B9000C4F8AC20902202FB003019F0FBFFD4E92E
:100BA0002A239342DBD39B1AC4F8AC30D7E724B096
:100BB00070BD30B50C4685B00A25017D00922246F5
:100BC000CDE90135012306F0C3F8003818BF012034
:100BD00005B030BD036870B50E46DB6804461546A7
:100BE0009847B04205D823682046DB68984701380B
:100BF00086B223682046A6809B689847A84205D8FD
:100C0000236820469B689847013885B2E58070BD0F
:100C10001FB500238DF80D1003AA01798DF80C3053
:100C200064230093022306F011F805B05DF804FB7D
:100C300090F81038F0B5044687B003F0FF057BBB91
:100C4000012300F1080604AF80F81038154B18682E
:100C50009B880490ADF81430013517F8011B30461D
:100C6000FFF7D6FF062DF7D140234FF4806204F53D
:100C7000826104F10E00637319F08CFF04F10D0220
:100C800040F201411046039208F07CF8064B039AAB
:100C90003046009340F20143217B019605F0FEFFB0
:100CA00007B0F0BD58C101088F0A00080023254A8B
:100CB000002110B50446C0F8BC30C0F8C03000F5C3
:100CC000947040F8603C40F8503C40F84C3C40F890
:100CD000483C40F83C3C40F8383C40F8303C40F858
:100CE000203C40F81C3C40F8183C40F8642C40F88C
:100CF0005C2C40F8582C40F8542C20F8401C40F84C
:100D0000342C40F82C2C40F8282C40F8242C1022AD
:100D100020F8101C19F04CFF1022002104F59C70E3
:100D200019F046FF1022002104F5A47019F040FFCD
:100D300004F5C1209C22044900F2F45019F02AFF66
:100D4000204610BD000080BF60C101082DE9F041C0
:100D50005E2988B004460E4600F118078DF817206A
:100D600048D0A1F17303072B44D901250A230DF1C3
:100D70001F085E22CDE90153CDF800802B4690F884
:100D80002C10384605F0BCFF94F8303042465E2106
:100D9000002818BF43F00103384684F830309DF82E
:100DA0001F308DF81E3000238DF81F302B46FFF7C3
:100DB00000FF94F83030184384F8300001230DF11F
:100DC000170231463846FFF7F4FE94F830301843E6
:100DD00084F830005DB101230DF11E025E2138461A
:100DE000FFF7E7FE94F83030184384F8300008B07D
:100DF000BDE8F0810025E1E784B038B505AD0446D3
:100E000085E80E009DF828302946037105F086FE1E
:100E10002046AE21FFF7FCFE2046D521FFF7F8FE65
:100E200020468021FFF7F4FE2046A821FFF7F0FEC0
:100E300020463F21FFF7ECFE2046D321FFF7E8FED6
:100E400020460021FFF7E4FE20464021FFF7E0FEA8
:100E500020468D21FFF7DCFE20461421FFF7D8FE47
:100E600020462021FFF7D4FE20460021FFF7D0FEC8
:100E70002046A121FFF7CCFE2046C821FFF7C8FE7F
:100E80002046DA21FFF7C4FE20461221FFF7C0FEFC
:100E900020468121FFF7BCFE2046CF21FFF7B8FE98
:100EA0002046D921FFF7B4FE2046F121FFF7B0FE1E
:100EB0002046DB21FFF7ACFE20464021FFF7A8FECD
:100EC0002046A421FFF7A4FE2046A621FFF7A0FE9E
:100ED0002046AF21FFF79CFEBDE8384004B07047C4
:100EE00000F580534FF41C62F0B500F6C816ADF65D
:100EF000CC1DD3F888330446314602A8019319F07B
:100F000049FED4E9000107F045F8054608F010FA5B
:100F100020B140F6C411284607F04AFF04F59C575B
:100F2000043508379C222946304619F023FE30B993
:100F30009C369C35BE42F5D10DF6CC1DF0BD6168E6
:100F4000206801F6C41206F03BFF01AB40F6C41264
:100F5000D4E9000106F02EFFEEE700002DE9F04F86
:100F6000D94DADF61C3D0021D84803F037FC4FF4B5
:100F70004073284656AF2B80002650F8041B0224ED
:100F800004F090FF05F1080004F0ACFE0E2003F021
:100F90003DFBADF830000D2003F038FBADF8340018
:100FA0000A2003F033FB9FEDCA0A0C99ADF8380014
:100FB000C848DDE90D2304F071FDC74801F084FC49
:100FC000C64BC7E9006310233B743C233B7559AB08
:100FD000C7E9024693E807008DE80700C04897E894
:100FE0000E00FFF709FF6421BE4801F00EF8012151
:100FF000BC4800F05BFF2146B44A3C46BA4802F0C8
:1010000039F9B24803F024FBB84802F093FB4FF4DF
:101010001C623146384619F0CBFD2046B346DFF856
:1010200004934FF0000A00F8016B0136B0494FF00D
:101030000108324619F02AFF04F1140C99E80F0058
:101040008CE80F009C231022002184F8248003FBED
:101050000B7BC4F828A0C4F82CA00BF13400C4F812
:1010600030A019F0A5FD102200210BF1440019F069
:101070009FFD4FF07C5309F1100E04F15C0CA36549
:10108000102EC4F854A0BEE80F00ACE80F00DEF844
:10109000003009F1240E09F13809CCF8003004F1D0
:1010A000700CBEE80F00ACE80F00DEF80030CCF8A2
:1010B0000030904BC4F888A0C4F8843004F18C034D
:1010C00004F19C0499E807004FF0000983E8070049
:1010D00004F8049C04F8039C9FD1874E4FF41C62D3
:1010E000394606F1080006F6C81A19F053FD4FF408
:1010F0001C62394606F6C81019F04CFD49463068A6
:10110000C6F8049006F046FF036806F580595A1E9B
:10111000424540F2EF813046C9F88883FFF7E0FE90
:10112000764F08F003F9002403234FF001080FA9BC
:10113000B0FBF7F0CDE90F34471E40F2E7337048BB
:1011400011938DF8488007F0FBFC39466C4807F096
:1011500071FD22466B496A4807F072FD2246042160
:10116000322003F075F9664807F052FD41F28733EB
:1011700013A9654815938DF85880CDE9138407F0BD
:10118000DFFC3946604807F055FD22465F495E485E
:1011900007F056FD224604211D2003F059F95A4854
:1011A00007F036FD4C4917A801F07FFD9DED180AA8
:1011B0004D4801F02DFF9DED190A4B4801F024FF29
:1011C0001B9B494807EE903A0A93B8EEE70A01F0F4
:1011D00055FF9DF87810444801F043FE9DF87420B7
:1011E0009DF86810404801F069FE9DF870103E4877
:1011F00001F034FE9C2321993C4803FB016101F678
:10120000C81102F08FF94249304803F019FA07F08B
:1012100093FE0A902F4F07F08FFE3E4C804697F8C2
:101220002430FF2B40F0868107F086FE07EE900AFF
:1012300097ED0A7A41F26F72F8EE677A77EEC77A25
:10124000FCEEE77A17EE903AC4ED007A934240F252
:101250005A813149234800F033FE0021214800F033
:1012600025FE204800F0EAFEC82007F067FE0020B7
:1012700007F066FE294B0022BFF35B8F23ACD3F847
:1012800000B0BFF35B8FBFF35B8F1A60244BBFF3DB
:101290005B8FBFF35B8F10491F782046BFF35B8FD6
:1012A000BFF35B8F1A70BFF35B8FFFB201F0FDFCE1
:1012B000BBF1000F00F0E281074801F06CFB002851
:1012C00000F05C8130E000BF98170024EC16002489
:1012D00000000000841600246017002401080109A2
:1012E00058060024640E0024DCA8002408C1002451
:1012F000EEC3010800409C467CAD002440420F0034
:10130000E0160024050B000874AD00246D0A0008E7
:10131000990A00084C060024F8C30108E8160024C6
:10132000E4160024FCC101085946AF4801F0F4FB63
:1013300017B1AD4801F0E2FAAB49204601F0B5FC27
:101340006268D4ED047A2F92A268F8EEE77A2378E7
:101350003092E269D4F828B08DF8C820E2680B9387
:101360008DF8C920A269CDED317A8DF8CA20626965
:101370008DF8CB2072B69D482FA901F05CFE9C2110
:101380005FFA8BFB9A4801FB0B6101F6C81102F072
:10139000C9F862B6C7B10B9B052B15D194F8203064
:1013A000412794F824B01A46394692480B93FFF728
:1013B000CDFC791C02375A468E48FFB2C9B2FFF7FE
:1013C000C5FC592F0B9BEED14146874801F060FCCC
:1013D000894B1A785AB1002284492FA81A7001F05B
:1013E00063FE864B2F9A1A609DF8C0201A71844BB9
:1013F0000A9A1B68A8EB02029A4210D37A49204647
:1014000001F053FC2378002B40F0D38001217D486C
:1014100000F04CFD7B4800F011FECDF828807A48A2
:1014200004F08AFD50B9794804F05CFC764804F079
:1014300087FD774A7749101D04F070FDD5E92B230D
:10144000D11A44BFD5F8A800091800293FF4E2AE2C
:101450009A42F3D09022D5F8A4005A430133811860
:10146000805CD5F8A82091F80880934291F809B0E3
:10147000C5F8B03024BF9B1AC5F8B0300328DDD1C1
:10148000B8F1770F40F0DC80BBF13F0F40F2D8801D
:1014900061495C4800F014FD00215A4800F006FD47
:1014A000584800F0CBFD72B65C48022403F0CCF83B
:1014B0005B48C9F88843FFF713FD5A49574803F0C2
:1014C000BFF862B658494F4800F0FAFC4D4800F0AA
:1014D000B5FD4FF4167007F031FD43492FA801F018
:1014E000E4FB9DF8BC30002B7BD10121454800F086
:1014F000DDFCA3E7011D4FF41C625046C9F8883398
:1015000019F048FB0CE6B3F5FA6FFFF4B3AE4749A8
:101510003C4800F0D5FC00213A4800F0C7FC3948AF
:1015200000F08CFD424B0022BFF35B8F1A70BFF3BB
:101530005B8F9FE62368A3F5FA63B3F57A6F1AD23F
:101540003C49304800F0BCFC00212E4800F0AEFCC5
:101550002C4800F073FDC82007F0F0FCBFF34F8F5C
:101560003549364BCA6802F4E0621343CB60BFF3DF
:101570004F8F00BFFDE7002323607BE65B46002B17
:101580000FDCBBF1000FA8BFABEB0B0BBBF1000FE7
:1015900074D04FF0FF3114480BF1010B01F005FA44
:1015A000F4E7012110480B9301F0FFF90B9B013B7D
:1015B000E5E70221134800F079FC0DF1980CCDF815
:1015C00024A06F46BCE80F000FC7BCE80F000FC790
:1015D000DCF800300B483B6094E80E0001F092F814
:1015E00018E7214682E700BF60170024DCA800242A
:1015F00008C10024F8A8002478AD002404000024C9
:101600000C000024640E00249C170024A017002462
:1016100098170024550B000824C40108EC16002478
:101620007CAD0024990A00082EC4010808C40108F2
:10163000E416002417C4010800ED00E00400FA05D8
:1016400010492FA801F031FB399C72B69C27E4B2F7
:101650002FA807FB04643A4604F6C814214619F083
:1016600099FA2FAB5A464146074802F00FF93A461D
:101670002FA9204619F08EFA62B6DFE6002F7FF41C
:1016800058AEA1E66017002408C100247F2910B5D8
:1016900011D83F2A0FD8D40802F0070201EBC41179
:1016A0000124084404FA02F290F9081452B21BB162
:1016B000114380F8081410BD21EA0201F9E708304F
:1016C00008B5FFF7E3FF08BD2DE9F04F0E4685B0E2
:1016D000044604A9A6F120059DF838B001E90C00E4
:1016E000EBB25E2B04D90026304605B0BDE8F08F82
:1016F00003689DF80870DB689DF809A09847A388E7
:101700003B449842EFDB236820469B689847E38878
:1017100053449842E7DB0AFB05F54FF000096D00E2
:10172000CA451DD9039B4FF000085B5B01934745F9
:10173000A188E28810D9019B41444A4404F1080081
:1017400003FA08F308F101081B044CBF5B468BF059
:101750000103FFF79BFFEAE709F101090235DFE723
:10176000A1882046E288394489B2FFF733FABBE703
:10177000F0B585B006464C1E02AD9DF8287085E890
:101780000C0014F8011F41B10097304695E80C0099
:10179000FFF79AFF21788842F3D0084605B0F0BDE4
:1017A0002DE9F043914685B00446984608464B46DD
:1017B000DDE90C52A3EB090C13F8011B0029F9D148
:1017C00098F8006098F8011016FB0CF60F4636B238
:1017D00026EAE676082A76D8DFE802F06B05270BC2
:1017E00035453C536100B5F90020B5F9023022803F
:1017F00053E02B88A988B5F902200B4462809B1B1B
:101800002380A680E780628821880390FFF7E2F9B1
:101810009DF8383049460398009398E80C00FFF78C
:10182000A7FF204605B0BDE8F083B5F90430B5F94F
:10183000021003EBD3722B88618003EB6203A3EBEE
:1018400066032380DDE76B88B5F90020ED882B4423
:101850005B1ACCE76B88EA8813445B1A2A88A9884C
:101860000A44921BC3E76B88EA8813445B1AB5F9F4
:10187000042002EBD2712A8802EB6102A2EB66021D
:10188000B5E7B5F90630B5F9001003EBD3726B88F4
:10189000218003EB6203A3EB57036380B1E7B5F943
:1018A000063003EBD3726B8803EB6203A3EB5103A7
:1018B000D4E7B5F9063003EBD3726B8803EB620310
:1018C000A3EB5103D3E7002323806380A380E3804D
:1018D00099E70000000000002DE9F04F2DED068B88
:1018E00087B01C4603929DF86030DDE916289FED15
:1018F000B64BB8F1000F0493BCBF4244C8F10008D6
:1019000007EE902A02EB0803B8EEE76B07EE103AF9
:101910009FEDAF5B26EE046BB8EEC77BCDE901010E
:1019200086EE050B27EE047BF7EEC08B87EE050BEA
:10193000F7EEC09BB0EE680A18F066FC07EE904A1E
:10194000B8EE67AA2AEE008AB0EE680A18F090FF97
:1019500060EE4A8AB0EE690A18F056FC2AEE009A48
:10196000B0EE690A18F084FF20EE4AAA39EE487AF0
:10197000049B7AEE687A67EEA77AE7EE077AB0EE14
:10198000007AF4EEC77AF1EE10FA08D5B8F1B40F88
:1019900000F3CA8007B0BDEC068BBDE8F08F0022D3
:1019A00001276542C4F101040026BB46BA46640023
:1019B000B9460492049A002A6ED107EE906A7242E8
:1019C000B8F1B40FF8EEE76A07EE905AB8EEE77A8E
:1019D00007EE902AC5F1000266EE884AF8EEE77A33
:1019E00006EE102A27EE285A66EE896AB8EEC66A15
:1019F00067EE885A27EE0A7A66EE283A67EE897A09
:101A000026EE0A6A34EEE34A74EEC54A35EEC55A4C
:101A1000B5EEC04A75EEE35A40F39180F1EE10FA4C
:101A200000F1848036EEC64AB5EEC04AF1EE10FAF7
:101A3000CCBF4FF001094FF00009F5EEC04AF1EEBE
:101A400010FA76D476EEC76AF5EEC06AF1EE10FAB7
:101A5000CCBF4FF0010A4FF0000AB5EEC05AF1EECC
:101A600010FA69D437EEC77AB5EEC07AF1EE10FA03
:101A7000CCBF4FF0010B4FF0000BF5EEC05AF1EE6A
:101A800010FA00F19B8077EEC67AF5EEC07AF1EE9F
:101A900010FACCBF01270027B9F1000F09D0039A33
:101AA00002990198B218491B05930830FFF7EEFD23
:101AB000059BBAF1000F09D0039A02990198B21858
:101AC000691805930830FFF7E1FD059BBBF1000F96
:101AD00009D0039A02990198921B6918059308305E
:101AE000FFF7D4FD059B4FB1039A02990198921B11
:101AF000491B05930830FFF7C9FD059BA6425FDB34
:101B0000013604EB4602EE4202F1010202D1A54287
:101B100002DB0024A54255DA013502EB4502541CD4
:101B2000002D7FF747AF35E7012239E74FF0010974
:101B300083E74FF0010A90E74FF0010B9DE7F1EECC
:101B400010FA32D536EEC64AB5EEC04AF1EE10FABA
:101B5000CCBF4FF001094FF00009F5EEC04AF1EE9D
:101B600010FA25D576EEC76AF5EEC06AF1EE10FAE6
:101B7000CCBF4FF0010A4FF0000AB5EEC05AF1EEAB
:101B800010FA18D537EEC77AB5EEC07AF1EE10FA32
:101B9000CCBF4FF0010B4FF0000BF5EEC05AF1EE49
:101BA00010FA3FF570AF002776E7DDF81090D4E724
:101BB0004FF0000AE1E74FF0000BEEE701276BE77B
:101BC0002246A7E71446ABE77A008BFCFA210940CE
:101BD00000000000008066402DE9F04F1F4685B0F0
:101BE00014460830DDF838A0A7EB01089DF83C301A
:101BF0000D46AAEB0209B8F1000F0393B8BFC8F174
:101C00000008B9F1000F0290B8BFC9F10009924570
:101C10008CBF01224FF0FF328F428CBF4FF0010B7F
:101C20004FF0FF3B394601925246FFF72FFDA8EBDC
:101C30000906DDE90203BD4201D1544516D029460B
:101C4000224603930290FFF721FDC9F100017200C3
:101C5000B1EB460FBCBFA6EB09065D449045DDE93C
:101C60000203E8DD019A46441444E4E705B0BDE808
:101C7000F08F2DE9F3479DF830C005460C46164617
:101C80001F46DDF828809DF82C90BCF1000F10D085
:101C9000A7422AD3B246D04509D352464B462146E5
:101CA00005F108000AF1010AFFF7F0FCF3E701343F
:101CB000EEE7CDE90029FFF78FFF3B463246394674
:101CC0002846CDE90089FFF787FF2346424639467B
:101CD0002846CDE90089FFF77FFF2346424621468B
:101CE0002846CDE90069FFF777FF02B0BDE8F0872D
:101CF000F8B5464D0024464E4FF60B776FF0F413BF
:101D00004449324628466C612C622C67C5E9004381
:101D1000C5E90233C5E90A74C5E90F74C5E916744B
:101D2000C5E90C44C5E91144C5E9184418F060FA46
:101D3000394832463949C0E90474C0E90B74C0E936
:101D40001074C0E90644C0E90D44C0E9124418F01B
:101D50004FFA334F334B3246BC6038463B6087F80E
:101D60001048314918F044FA3946304F01223048C2
:101D700000F074F8384600F0BBFF38462D4F32466D
:101D80002D4918F035FA3846FEF790FF32462B49B8
:101D9000384618F02DFA2A484FF44073294A2A4F42
:101DA0002A49C0F8B040C0E9003440F20F73C0E9DE
:101DB000272300F1B4033246C0F8A43040F20113E7
:101DC000C0E92A3418F014FA21464FF41C6207F1D6
:101DD0000800C7E9005418F0EBFE21464FF41C62DE
:101DE00007F6C81018F0E4FE07F580571848324689
:101DF0001849C7F88843046018F0FAF916483246C3
:101E000014490460BDE8F84018F0F2B9EC1600245B
:101E100000000024690A000884160024670A0008EC
:101E20005006002444C40108790A0008DCA80024F4
:101E3000640E002408C100242D2E00086B0A00083F
:101E4000981700240080707F7CAD00248D0A000864
:101E5000E0160024650A000874AD0024F8B580235C
:101E60000D4601270021C0F8083804460E4B1646DF
:101E7000C0F80C184FF48062C0F814380830C0F86D
:101E8000147818F095FE4FF48062002104F581600B
:101E900018F08EFE1423204684F810682560277100
:101EA000C4F81838F8BD00BF7CC4010838B5044632
:101EB00000680D46002103681B699847257138BDED
:101EC00039B1C0F81418017919B9006803681B69A1
:101ED00018477047D0F80C3800EB8302013382EDCD
:101EE000020A5A42DBB2D2B258BF5342C0F80C3891
:101EF0007047000090F8103830B54BB3D0F80C386C
:101F0000D0F8082801339D189D4221DD5942DAB2EC
:101F100003F10103C9B258BF4A4200EB8201D1ED7F
:101F2000027AF5EEC07AF1EE10FAEDD55C42D9B244
:101F3000E4B258BF614200EB8101D1ED027AF5EEC7
:101F4000C07AF1EE10FADFDB034B1A60104630BDA9
:101F5000014B1A68FAE700BFA0CF06242DE9F34130
:101F60000546202200210068FEF734FE2868002183
:101F700003681B6998472846FFF7BCFF0021074606
:101F80000646D5F8083801F101083B44B34239DD73
:101F90007242D5F8183828684FF0010CD2B207EE1B
:101FA000903AF3B206F1010658BF5342F8EEE77AD1
:101FB000F4B205EB830393ED027A734227EE877A3E
:101FC000DBB258BF5C420368BDEEC77A05EB840400
:101FD00017EE102A94ED027ACDF804C067EE877AE6
:101FE000C2F1200282F30602FDEEE77A17EE904A74
:101FF000C4F1200484F3060400949C694346A0477E
:102000004146BEE702B0BDE8F081C0F8181870473D
:1020100037B50022044600681146FEF7DBFD206854
:102020000121054B02680091D4F81418956A0CCB75
:10203000A84703B030BD00BF60000024037910B58D
:1020400004463BB1012B08D020680368BDE810406E
:102050001B6B1847FFF7DCFFF6E7FFF77FFFF3E79F
:102060002DE9F341044600680F460021036801266C
:10207000344D1B699847002220681146FEF7AAFDDF
:102080002068314903680096D3F8288095E80C0051
:10209000C04720680D220A21FEF79CFD20682B49CD
:1020A00003680096D3F8288095E80C00C0472068A4
:1020B00017220A21FEF78EFD206825490368009645
:1020C000D3F8288095E80C00C047206821220A2117
:1020D000FEF780FD20681F4903680096D3F828802A
:1020E00095E80C00C04720682B220A21FEF772FDFC
:1020F0002068194903680096D3F8288095E80C00F9
:10210000C047206835220A21FEF764FD2068134984
:1021100003680096D3F8288095E80C00C0470A228F
:10212000206800217A430D3292B2FEF753FD2068F9
:102130000B49036800969C6A95E80C00A04702B022
:10214000BDE8F0816800002488C4010896C4010835
:10215000A2C40108A9C40108B1C40108C3C401088C
:10216000C8C401082DE9F341044600680E46002169
:10217000036801273E4D1B699847002220681146DD
:10218000FEF728FD20683B4903680097D3F82880B4
:1021900095E80C00C047042E4FF00D024FF00A01E5
:1021A00020685BDCFEF716FD206833490368009762
:1021B000D3F8288095E80C00C04717220A21206830
:1021C000FEF708FD20682D4903680097D3F82880A2
:1021D00095E80C00C04721220A212068FEF7FAFC8E
:1021E0002068274903680097D3F8288095E80C00F9
:1021F000C0472B220A212068FEF7ECFC2068214909
:1022000003680097D3F8288095E80C00C047352272
:102210000A212068FEF7DEFC20681B49036800974E
:102220009F6A95E80C00B84705222068002196FBBC
:10223000F2F202EB8202B21A0A2672430D3292B215
:10224000FEF7C8FC206801221049036800929C6ACE
:1022500095E80C00A04702B0BDE8F081FEF7BAFC9B
:1022600020680B49036800979F6A95E80C00DAE73D
:1022700068000024CAC40108DAC40108E0C40108E7
:10228000E6C40108F1C4010851C50108C8C4010829
:10229000FDC401082DE9F341044600680E46002103
:1022A000036801272D4D1B699847002220681146BD
:1022B000FEF790FC20682A4903680097D3F828802D
:1022C00095E80C00C04720680D220A21FEF782FC29
:1022D0002068244903680097D3F8288095E80C000B
:1022E000C047206817220A21FEF774FC20681E49A7
:1022F00003680097D3F8288095E80C00C047206851
:1023000021220A21FEF766FC20681849036800971D
:10231000D3F8288095E80C00C04720682B220A21BA
:10232000FEF758FC2068124903680097D3F828800C
:1023300095E80C00C0470A222068002172430D3244
:1023400092B2FEF747FC20680A49036800979C6A2E
:1023500095E80C00A04702B0BDE8F08168000024B9
:1023600002C501080DC5010817C5010822C50108ED
:10237000FDC40108C8C401082DE9F3410446006802
:102380000E46002103680127264D1B69984700224D
:1023900020681146FEF71EFC206823490368009759
:1023A000D3F8288095E80C00C04720680D220A2148
:1023B000FEF710FC20681D4903680097D3F82880B9
:1023C00095E80C00C047206817220A21FEF702FC9E
:1023D0002068174903680097D3F8288095E80C0017
:1023E000C047206821220A21FEF7F4FB206811492A
:1023F00003680097D3F8288095E80C00C0470A22AC
:102400002068002172430D3292B2FEF7E3FB206890
:102410000949036800979C6A95E80C00A04702B040
:10242000BDE8F0816800002429C5010838C501080D
:1024300049C50108FDC40108C8C401082DE9F341DC
:10244000044600680E46002103680127264D1B69DB
:102450009847002220681146FEF7BCFB20682349FC
:1024600003680097D3F8288095E80C00C0472068DF
:102470000D220A21FEF7AEFB20681D490368009774
:10248000D3F8288095E80C00C047206817220A215D
:10249000FEF7A0FB2068174903680097D3F828804F
:1024A00095E80C00C047206821220A21FEF792FB24
:1024B0002068114903680097D3F8288095E80C003C
:1024C000C0470A222068002172430D3292B2FEF703
:1024D00081FB20680949036800979C6A95E80C0015
:1024E000A04702B0BDE8F081680000245CC5010887
:1024F00072C501087FC50108FDC40108C8C40108F0
:102500002DE9F041044600680F46002103680126CA
:102510002DED028B1B6986B0B0EE408A98470022F1
:1025200020681146FEF756FB20681F4B02681F49C2
:102530000096956A0CCBA84720680C220021FEF774
:1025400049FB20681A4D394603680096D3F8288065
:1025500095E80C00C047FDEEC87A164902A8B8EE0F
:10256000E70A17EE902A38EE408A9FED130A28EE0C
:10257000008ABDEEC87A17EE103A002BB8BF5B4256
:1025800018F084FC206823220021FEF723FB20683A
:1025900002A9036800969C6A95E80C00A04706B063
:1025A000BDEC028BBDE8F081680000248CC50108F9
:1025B0006000002492C501080000C8422DE9F043E4
:1025C00005460068984687B003680E460021144609
:1025D0001B694FF001099847002228681146FEF751
:1025E000F9FA2868394B02683949CDF80090976AA2
:1025F0000CCBB8470F2200212868FEF7EBFA2868B9
:10260000344F31460368CDF80090D3F8289097E80E
:102610000C00C84730493046FDF762FE40B90C2334
:1026200094FBF3F203FB12442C4B53F8241015E0F7
:102630002B493046FDF754FE38B90722294B94FB4D
:10264000F2F2C2EBC202A41AEFE727493046FDF7C7
:1026500047FEF0B9B8F1000F14D0414602A818F0B7
:1026600035FC286826220021FEF7B4FA28680122EA
:1026700002A9036800929C6A97E80C00A04707B083
:10268000BDE8F083631C194A102102A818F0CAFBA8
:10269000E7E717493046FDF723FE28B922461549DA
:1026A00002A818F0F3FBDCE713493046FDF718FEEB
:1026B00040B9634204F0030403F0030358BF5C42D3
:1026C0000E4BB2E722460E49EAE700BF680000243D
:1026D0009AC5010860000024A3C5010880C601084E
:1026E000A8C50108B0C60108AEC50108EEC30108BF
:1026F000B5C50108C0C50108C6C50108CCC601089A
:10270000F5C3010884B010B402AC84E80E009DF853
:1027100008400E9B013C9DF809100D9A102C00F208
:10272000B680DFE804F009223FA254658A828E92C7
:10273000969A9E767EB1AE0002290ED003290ED065
:1027400004290ED006290ED0122914BF002104211D
:102750005DF8044B04B0FFF783BC0021F8E70121CA
:10276000F6E70221F4E70321F2E7082910D0072950
:1027700010D0092910D00A2910D0052910D012290B
:1027800014BF002105215DF8044B04B0FFF7EABC3B
:102790000021F8E70121F6E70221F4E70321F2E73F
:1027A0000421F0E70B290CD00C290CD00D290CD0FA
:1027B000122914BF002103215DF8044B04B0FFF778
:1027C00069BD0021F8E70121F6E70221F4E70E29AF
:1027D0000AD00F290AD0122914BF002102215DF866
:1027E000044B04B0FFF7C8BD0021F8E70121F6E76C
:1027F00011290AD010290AD0122914BF0021022160
:102800005DF8044B04B0FFF719BE0021F8E7012181
:10281000F6E700230A9A20495DF8044B04B0FFF75D
:10282000CDBE00230B9A1D49F6E79DED030A1C4916
:102830005DF8044B04B0FFF763BE9DED040A19492F
:10284000F6E70023069A1849E6E70023079A174996
:10285000E2E70023059A1649DEE70023089A1549A6
:10286000DAE70023099A1449D6E70C9A3BB10F2AFC
:1028700005DC9C2101FB023301331049CCE7002326
:10288000FBE700230E49C7E700230E49C4E75DF8C4
:10289000044B04B0704700BFD2C50108E1C5010870
:1028A000EEC50108F4C50108B5C50108C6C5010893
:1028B000A3C50108A8C50108FAC50108AEC50108ED
:1028C00001C601080AC6010810B5044606F034FB2B
:1028D000094A00236063A2604FF07E522380E260C9
:1028E00002222361E361E362C4E905230422012398
:1028F0002262C4E9093310BD0000484210B5044605
:1029000006F01AFB237860631BB940F20123238091
:1029100004E0DA1F032A02D80223237010BDA3F1BA
:102920000B02022A01D80323F7E7A3F10E02012AC2
:1029300001D80523F1E7A3F11002012A01D80623EB
:10294000EBE7042B01D10123E7E76278122A11D1CA
:10295000012B01D10023DAE79A1E012A01D9062BA7
:1029600003D1012222706370D8E7052BD6D140F243
:102970000253CCE7022A227001D10823F3E7032A8D
:1029800001D10B23EFE7052A01D10E23EBE7062A3D
:10299000C4D11123E7E70078C31F0A2B03D9031F13
:1029A0005842584170470120704738B504460D46DB
:1029B00006F0C2FA22786063531E052B26D8DFE8A2
:1029C00003F0033056257084002D637814DD022B4C
:1029D00002D10323637019E0032B01D10423F9E72B
:1029E000042B01D10623F5E7062B01D11223F1E7D1
:1029F000122B0BD10223EDE7122BF3D0062BEDD0D7
:102A0000042BE6D0032BF5D0022BEFD0D31F032BE2
:102A10006FD802236370A2F11003012B77D806232D
:102A20006CE0002D637815DD082B01D10723D1E779
:102A3000072B01D10923CDE7092B01D10A23C9E7CF
:102A40000A2B01D10523C5E7052BCFD0122BDDD1F1
:102A50000823BFE7082BC9D0072BF9D0092BE5D0F5
:102A60000A2BE7D0052BE9D0122BCFD1EAE7002DB6
:102A700063780DDD0B2B01D10C23ABE70C2B01D1BF
:102A80000D23A7E70D2BB1D0122BBFD10B23A1E74C
:102A90000B2BABD00C2BF9D00D2BEDD0122BB5D1CD
:102AA000EEE7002D637809DD0E2B01D10F2391E7AE
:102AB0000F2B9BD0122BA9D10E238BE70E2B95D079
:102AC0000F2BF9D0122BA1D1F0E7002D637809DD8F
:102AD000112B01D110237DE7102B87D0122B95D11C
:102AE000112377E7112B81D0102BF9D0122B8DD128
:102AF000F0E7A2F10B03022B03D803236370607885
:102B000038BDA2F10E03012B85D80523F6E7042A70
:102B1000F5D10123F2E7000038B504460D4606F072
:102B20000BFA23786063043B0D2B1BD8DFE803F01E
:102B3000981A1A2607434F5B6773808CA4A407EE8C
:102B4000905AB1EE047AF8EEE76AD4ED027AE6EE36
:102B5000877AB7EE007AF4EEC77AF1EE10FA02D572
:102B600084ED027A38BD9FED487AF4EEC77AF1EE33
:102B700010FA77FE277AC4ED027AF3E707EE905A4F
:102B80009FED427AF8EEE76AD4ED037AE6EE877AB3
:102B9000F4EEC77AF1EE10FA02D584ED037AE1E79C
:102BA000B0EE007AF4EEC77AF1EE10FA77FE277AEB
:102BB000C4ED037AD6E76169691802D50023636121
:102BC000D0E7142901DC6161CCE71423F7E7A169A0
:102BD000691802D50023A361C4E7032901DCA161C0
:102BE000C0E70323F7E72169691802D500232361B1
:102BF000B8E70B2901DC2161B4E70B23F7E7E169B2
:102C0000691802D50023E361ACE7062901DCE16124
:102C1000A8E70623F7E7216A0D44002D02DC012313
:102C200023629FE7082D01DC25629BE70823F7E775
:102C3000616A691802D50023636293E7FF2901DC0A
:102C400061628FE7FF23F7E7A16A691802D50023C5
:102C5000A36287E7FF2901DCA16283E7FF23F7E78F
:102C6000E16A691802D50023E3627BE70F2901DCE2
:102C7000E16277E70F23F7E7216B6D184ABF002366
:102C8000256323636EE700BF0000C842CDCCCC3D76
:102C900003784BB1436B41F28732CB1A934282BF28
:102CA0004FF4807341630380704770B50B880C4606
:102CB0000646054624F8043F0FCC0FC50FCC0FC5C0
:102CC00094E80F0085E80F00304670BD30B50C4623
:102CD00085B00A25017D00922246CDE90135012308
:102CE00004F00EF8003818BF012005B030BD000018
:102CF000F8B5012104464A4A00255A2304F57376A3
:102D0000C2600375C0E9015140F2032084F82C3001
:102D100084F848300323626284F850302083208690
:102D200004F15400C4E90751C4E90F12C4E90D5578
:102D300001F008F904F5847001F004F904F5DE707F
:102D400001F000F904F51C7001F0FCF804F549707D
:102D500001F0A8F84FF0804284F83D534FF0FF3364
:102D6000C4F848234FF07E522E4DC4F84C2340F255
:102D70000472C4F840332F460023A4F850232A4A93
:102D8000C4F84433C4F85433C4F85823C4F85C235B
:102D9000C4F86033C4F864330FCF0FC697E8070058
:102DA00005F11C0786E807000FCF04F57A760FC6F9
:102DB00097E8070005F1380786E807000FCF04F20F
:102DC00004460FC697E8070005F1540786E8070098
:102DD0000FCF04F584660FC697E8070005F170076A
:102DE00086E807000FCF04F23C460FC63B6805F1AA
:102DF0008407B435336004F58A660FCF0FC60FCF52
:102E00000FC697E80F0086E80F000FCD04F5906617
:102E10000FC695E8030086E803002046F8BD00BF12
:102E20000108010940C201080000484210B50446EB
:102E300000F5497001F044F804F51C7001F0DCF86D
:102E400004F5DE7001F0D8F804F5847001F0D4F8D0
:102E500004F1540001F0D0F8204610BD80F83C1376
:102E600070474FF0FF3380F85013C0F8403370477D
:102E700070B5044600F55A7600252DED028B94F8C6
:102E80005133AB4217DB07EE905A07EE103A94ED40
:102E9000D58A0135F8EEE77AD4EDD78AB8EEC70ABD
:102EA000D4EDD30A87EE800A17F04EFBA8EE808A95
:102EB000A6EC018AE3E7BDEC028B70BD38B500EEED
:102EC000901A044600F56775062A00F28580DFE84F
:102ED00002F0042938475665740007232A4600F596
:102EE0007A7180F8513300F5737353F8040B8B42F9
:102EF00042F8040BF9D1F2EE087AF8EE600AB0EE6F
:102F0000000AC0EEA70A17F01FFB94F85123002314
:102F10009A4270DDD5ED007A013367EE807AE5ECF8
:102F2000017AF5E707232A4600F2044180F851337D
:102F300000F57A7353F8040B8B4242F8040BF9D175
:102F4000D9E707232A4600F5846180F8513300F25F
:102F5000044353F8040B8B4242F8040BF9D1CAE73F
:102F600007232A4600F23C4180F8513300F5846380
:102F700053F8040B8B4242F8040BF9D1BBE705234D
:102F80002A4600F58A6180F8513300F23C4353F839
:102F9000040B8B4242F8040BF9D1ACE70C232A4610
:102FA00000F5906180F8513300F58A6353F8040B03
:102FB0008B4242F8040BF9D19DE706232A4600F51F
:102FC000936180F8513300F5906353F8040B8B4202
:102FD00042F8040BF9D18EE707232A4600F57A71EF
:102FE00080F8513300F5737353F8040B8B4242F8A9
:102FF000040BF9D17FE74FF0FF332046C4F840338C
:10300000BDE83840FFF734BF80EDD30AFFF730BF8B
:10301000D0EDD57AF4EEC07AF1EE10FAA4BFB7EE97
:10302000000A37EE800A80EDD60A30EE670A80ED9E
:10303000D70AFFF71DBF38B50D4691ED000A0446CB
:10304000FFF7E6FF6B682046C4F84C33FFF710FF2C
:10305000AB682046C4F84833FFF70AFF2B7B2046B5
:1030600084F850334FF0FF33AA7BC4F84033697BB8
:10307000FFF724FFEB7B84F83C3338BD80EDD20AA8
:10308000FFF7F6BE13B5044601230DF10702183011
:10309000FFF71CFE94F83030184384F830009DF898
:1030A000070002B010BD0000F0B501F134070C4676
:1030B0000223064638462DED028B83B091EDD18A6E
:1030C00000210DF10602FFF701FE94F84C3094F850
:1030D0003D231843BDF8063013F0010384F84C007B
:1030E00000F0BE8012B9012384F83D331E2104F1A3
:1030F0001C00FFF7C7FF054602230DF1060204215D
:103100003846FFF7E3FD94F84C30AD001843BDF8A6
:103110000630ADB200EE103A94F8503007EE905AF7
:1031200084F84C00B8EE400A04F54970B8EE677AAE
:1031300077EE407A00EE103AB8EE400A37EEC00A59
:1031400084EDD80A00F0C4FE94F83C33012B6CD017
:10315000032B04D0002B6BD104F5DE7001E004F5E5
:10316000847000F063FFD4F8403394EDD57A84ED99
:10317000D90A002BD4EDD97ADFED3C6AC7FE877AF5
:1031800094EDD67A94F8511337EE667AC7FEC77A73
:10319000C4EDD97A16DB8B4214DADFED356A04EB25
:1031A000830394EDD76A86EE267AD4EDD26A27EEB1
:1031B000267AD3EDDA6A76EEC76AF4EEE76AF1EEC4
:1031C00010FA38D9481E04F55B7200238B4227DAC7
:1031D0001546B2EC017A55ED016AF4EEE76AF1EEBC
:1031E00010FA04D8B4EEE77AF1EE10FA06DC984251
:1031F00034D1B4EEE77AF1EE10FA2FD894F85013E8
:1032000001228A4008EE102A04EB8302B8EEC88A35
:10321000D2EDE77AC4F8403328EE278A84EDD18ACC
:1032200094F83D3386ED008A12E004F51C7098E7AF
:1032300004F1540095E7D3EDDB6A37EE267AB4EE5D
:10324000E77AF1EE10FABDDD94F83D3386ED008AA1
:103250003046337103B0BDEC028BF0BD0133B5E7EE
:10326000002ADDD084F83D33DAE700BF6F12833ADD
:103270000000C8422DE9F04190B0012302600446ED
:103280000AAE836000F11C05021D00F1140C3346E8
:103290001068083252F8041C3746624503C73E46A0
:1032A000F6D1106838609288BA802A460EAF1E4662
:1032B000083203CEBE4242F8080C42F8041C3346E2
:1032C000F5D130682F460DF1100C1060B3886E46B2
:1032D00093800FCF0FC63B68E76933606E4604F1F9
:1032E000380300973246083303CA624543F8080C96
:1032F00043F8041C1646F5D11278002605A904F1FE
:1033000034001A701023059701278DF82430BDF87A
:1033100008300896ADF81830BDF80A300797ADF8B8
:103320001A3003F0FBFB94F84C3063228021B0424A
:1033300018BF43F00103284684F84C30FDF706FD22
:10334000384605F0FBFD32465E212846FDF7FEFCBF
:103350005D212846FFF796FE242864D194F830803A
:10336000412694F83170314642462846FDF7EEFC7E
:10337000711C02363A46C9B22846F6B2FDF7E6FCA1
:10338000592EF0D101222B212846FDF7DFFC012226
:103390002C212846FDF7DAFC0E222D212846FDF7C8
:1033A000D5FC00222E212846FDF7D0FC01222F213A
:1033B0002846FDF7CBFC052230212846FDF7C6FC48
:1033C000012231212846FDF7C1FC00223221284686
:1033D000FDF7BCFC002233212846FDF7B7FC002294
:1033E00034212846FDF7B2FC002235212846FDF79E
:1033F000ADFC00225B212846FDF7A8FC10225C21D1
:103400002846FDF7A3FC20225D212846FDF79EFCFF
:103410008C225E212846FDF799FC94F84C6000232D
:1034200084F84C3086B12068012101F015F920683C
:10343000642101F001F92068002101F00DF96421F7
:10344000206801F0F9F8EEE72546012155F8540B04
:1034500001F002F90221284600F0CFFD04F5847046
:10346000032100F0CAFD314604F5DE7000F0C5FD11
:10347000012104F51C7000F0C0FD04F5497000F056
:1034800020FD0023C4F86033C4F86433042384F8B7
:103490005033054BC4F844334FF0FF33C4F8403386
:1034A00010B0BDE8F08100BF0000DC43B7EE007A49
:1034B00000234FF07C5280ED050A0361C7EE007ACD
:1034C0009FED0A0AC36180ED020A4260C26010B536
:1034D0000446C0ED067A00F0A3FF002384ED080A3D
:1034E000237040F20113A38510BD00BF0000C84245
:1034F000D0ED040ADFED0A7A10B50446C0EEA70A43
:1035000080ED020AB0EE000A17F01EF8D4ED027A40
:10351000204620EE270A00F083FF84ED080A10BD44
:1035200000009644F0B500F5C02504469C2205F63F
:10353000BC4005F6045705F608562DED028B83B006
:10354000DFED798A17F026FB95F8D03CB7EE008ABC
:1035500094ED020A082B204628BF0023237005F6AD
:10356000D4431B68636005F6D84393ED007A05F6F3
:10357000DC4387FE287A87FE487A84ED037A1B684D
:103580002361FFF7B5FF95F8E03C94ED0E0A04F1D6
:103590003000082B28BF002384F8303005F6E443C0
:1035A0001B68636305F6E84393ED007A05F6EC4388
:1035B00087FE287A87FE487A84ED0F7A1B68236499
:1035C000FFF796FF95F8F03C04F18C00082B019072
:1035D00028BF002384F860303B68C4F8903096ED33
:1035E000000A84ED250A16F049FB84ED2A0A95F8B5
:1035F000003D0198082B28BF002384F88C303B68DD
:10360000C4F8903096ED000A84ED250A16F036FBDA
:103610009FED467A05F6145384ED2A0A04F1BC00A6
:103620000121D3ED007A05F61853C7FEA87AC7FE2C
:10363000C87A67EE877A0190C4ED2E7A93ED000A7E
:1036400015F078FE05F61C530198022193ED000A4F
:1036500015F070FE05F552630198D3ED007AF4EE93
:10366000E87AF1EE10FA59D9F4EE487AF1EE10FA50
:1036700078FE277A05F62453C4ED2F7A042193EDC2
:10368000000A15F057FE05F62C5304F1EC00012159
:1036900093ED000A019015F04DFE05F55363019876
:1036A000022193ED000A15F045FE05F6345301980A
:1036B000D3ED007AF5EEC07AF1EE10FA31D9F4EEDE
:1036C000487AB7EE007AF1EE10FA77FE277A05F61F
:1036D0003853C4ED3B7A042193ED000A15F02AFE1D
:1036E00005F6445304F58E7093ED000A019016F030
:1036F000FBF805F55463019893ED000A16F096F86F
:1037000005F64C5305F555651B68C4F87C312B68EC
:10371000C4F8783103B0BDEC028BF0BDDFED047A64
:10372000A8E7DFED037AD2E7000000009A99993EFE
:103730000AD723BC2DE9F0412DED048BB0EE408A71
:103740000446FFF7B3FEDFED3B8A04F130004FF093
:103750007C55B0EE480A4FF00008FFF7A7FEF7EEE1
:10376000007A002640F20117B0EE680A04F160000A
:1037700087EE889A84ED1C8AC4ED1A8A6566E56630
:10378000C4F8788084ED1D9A16F078FA04F18C0064
:1037900084ED1F0AB0EE680A84ED278A84ED289A2A
:1037A000C4ED258AC4F89050C4F8985004F5C0259B
:1037B00084F86060A4F88870C4F8A48016F05EFAFB
:1037C000012104F1BC0084ED2A0A84F88C60B0EE7B
:1037D000480AA4F8B47015F035FD0121B0EE480A8E
:1037E00004F1EC0015F02EFDB0EE480A04F58E70E1
:1037F00015F080FEB0EE480A04F5BC70C4F87461A0
:1038000016F0C6FA05F694630B4A04F5C12120466A
:1038100085F8906E01F2F4511A60FFF783FE9C2246
:1038200005F6BC4105F6585017F0B4F9BDEC048B11
:10383000BDE8F0810000C8420000DC43F7B500F5A8
:10384000C0260B6804460D4606F694673B600B796C
:10385000B3B196F8901E99B9BC30019115F062FD94
:10386000019904F1EC0015F05DFD97ED000A20468A
:10387000FFF73EFE97ED000A04F13000FFF738FE37
:103880002B7986F8903E03B0F0BD000007EE902A39
:103890009FEDA57AF8EE676A33B4C6EE877A9FED9E
:1038A000A37A0E3927EE877ABCEEC77A8DED017ABE
:1038B0009FED9F7A9DF8045027EE877ABCEEC77A79
:1038C00017EE104A0134E4B2592900F22981DFE8E9
:1038D00011F05A00610064006D00700073007C00FC
:1038E0007E00810084008D009000930096009F0070
:1038F000A20027012701270127012701270127010E
:103900002701270127012701270127012701270177
:103910002701270127012701270127012701270167
:103920002701270127012701270127012701270157
:103930002701270127012701270127012701270147
:1039400027012701B000CC00B700A500C000270167
:1039500027012701C9002701D500DE00E700EA00A2
:10396000F30027012701270127012701F60027017E
:10397000F90000012701270127012701270109017B
:10398000100117011F0183F83450194602B030BCF2
:10399000FFF7C8BDC3ED0E7AF7E7F3EE046A9FEDBB
:1039A000657AA7EEA67A83ED0F7AEEE783F84450A6
:1039B000EBE7C3ED127AE8E7F3EE046A9FED5D7A78
:1039C000A7EEA67A83ED137ADFE71C75DDE7C3ED7A
:1039D000067ADAE7C3ED077AD7E7DFED576A9FED9E
:1039E000577AA7EEA67A83ED087ACEE783F82440CB
:1039F000CBE7C3ED0A7AC8E7C3ED0B7AC5E7DFED85
:103A00004E6A9FED4E7AA7EEA67A83ED0C7ABCE75C
:103A1000C3ED157AB9E7C3ED167AB6E767EEA77A74
:103A2000DFED476AB3EE047AA7EEA67A83ED217A3A
:103A3000ABE79FED447A67EE877AC3ED227AA4E77D
:103A4000F1EE006A9FED407AA7EEA67A83ED177A31
:103A50009BE7F1EE006A9FED3C7AA7EEA67A83ED34
:103A6000187A92E7C3ED197A8FE7F1EE046A9FEDB9
:103A7000367AA7EEA67A83ED1A7A86E7F1EE006A27
:103A80009FED317AA7EEA67A83ED1C7A7DE7F1EE01
:103A9000006A9FED2D7AA7EEA67A83ED1D7A74E772
:103AA000C3ED1E7A71E7F1EE046A9FED277AA7EE67
:103AB000A67A83ED1F7A68E7C3ED207A65E7C3ED48
:103AC000237A62E79FED217A67EE877AC3ED257A44
:103AD0005BE7DFED1F6A9FED1F7AA7EEA67A83ED05
:103AE000247A52E73F2A94BF0022012283F89820CB
:103AF0004BE73F2A94BF0022012283F8992044E734
:103B00001924B2FBF4F104FB112283F840203CE7B6
:103B10001921B2FBF1F401FB142283F8502034E7A1
:103B200002B030BC704700BF0000FE429EEF7F40F5
:103B30009EEF3F40CDCCCC3D0000C842000048C2C3
:103B400000409C466666E63F0AD7233CA4707D3F52
:103B500000B888460000FA432DE9F04100F5C02482
:103B60001646DFEDCA7A054604F6DC5304F55462C6
:103B7000BC300F4693ED007AD2ED006A04F6445251
:103B800094F8901E76EEC76A2DED0A8BA6EEA77A02
:103B900088B0DFEDBF9A83ED007A04F55E63D2ED65
:103BA000006A04F6D44293ED007A76EEC76AA6EE78
:103BB000A77A83ED007A04F55763D2ED006A04F624
:103BC000E44293ED007A76EEC76AA6EEA77A83ED1B
:103BD000007A04F55863D2ED006A04F5516293ED62
:103BE000007A76EEC76AA6EEA77A83ED007A04F62D
:103BF000AC53D2ED006A04F6485293ED007A76EEAB
:103C0000C76AA6EEA77A83ED007A04F6E453D2EDF4
:103C1000006A93ED007A76EEC76AA6EEA77A83ED86
:103C2000007A15F00FFC94F8901E05F1EC00F0EE10
:103C3000408A15F007FC05F16000B0EE40BA15F0BF
:103C400067FE04F6F44305F18C00D3ED007A60EED4
:103C500027AA15F05DFE04F60453D3ED007A94F81C
:103C6000543D20EE27AA23B195F82D300BB1C5EDB8
:103C7000139A94F8FC3CB7EE008A032B05D1CAFED8
:103C8000A97AC7FEC87AC5ED037A94F80C2D05F120
:103C90003008032A40F0F380042BCAFE297AC7FEBD
:103CA000C87AC5ED0F7A19D1DFED7A7A284695EDFD
:103CB000020A6AEEA77AC5ED047AFFF719FC94F8B8
:103CC0000C3D042B0AD1DFED737A404695ED0E0AC8
:103CD0006AEE277AC5ED107AFFF70AFC284600F055
:103CE0008BFA04F557634046D3ED007A60EE27BAAD
:103CF00000F082FA04F5586393ED00CA94F8FC3C96
:103D000020EE0CCA052B0FD1B6EE007A7AEE887A37
:103D100067EE877A9FED607AC7FEA97AC7FEC87AF8
:103D200067EE877AC5ED2E7A94F80C3D052B0FD1FE
:103D3000B6EE007A7AEE087A67EE877A9FED567AC9
:103D4000C7FEA97AC7FEC87A67EE877AC5ED2E7AD4
:103D5000D5ED2ECA17F018F809EE100AD5ED2E7A17
:103D600004F6AC53BAEEE09AB4EEE79AF1EE10FA2C
:103D70004ABFC8EE2C7A9FED469A27EE899AD3ED7A
:103D8000007A94F8553D29EE279A002B7BD17BEEE3
:103D90008CBA3BEE899A04F63C539FED407A05F5C8
:103DA0008E7093ED000A04F5546303902BEE00BA75
:103DB000D3ED007A94F8FC3CB3EE040AEBEE077AFC
:103DC000022B94F80C3D08BFEAEE877A022B08BF5D
:103DD000EAEE077AC7FE807A9FED310A87FEC00AB5
:103DE00015F024FD0398B0EE490A15F029FC04F6FD
:103DF000285328EE800A05AAD3ED008A04F6485419
:103E000014F84C3C114620EE280A05F5BC70012B35
:103E100014F83C3CCDED069A8DED050A08BF20EE66
:103E20002A0ACDED079A08BF8DED050A012B07ABD5
:103E300008BF9DED050A009306AB04BF20EE0AAA59
:103E40008DED05AA16F064F8D4ED007A9DED067AA2
:103E500038EE678ADDED056A27EE877AA8EE267AC6
:103E600087ED007A9DED077A67EE877AE8EE267A8D
:103E7000C6ED007A08B0BDEC0A8BBDE8F081042BDA
:103E80007FF41DAF10E7ABEE8C9A84E717B7D138FB
:103E900000000000000048429A99993E00401C46EC
:103EA00000409C46054B1422002110B5044640F802
:103EB000043B16F07DFE204610BD00BF0000C84246
:103EC0007047002343608360C360036143617047B0
:103ED0000369024630B5436187B0C368043201AC60
:103EE00003618368C360436880ED010A836000F169
:103EF00014031068083252F8041C25469A4203C580
:103F00002C46F6D1106802A900222860F1EC017A53
:103F10001346084610ED027AB4EEE77AF1EE10FA95
:103F200003DD013B20ED017AF4D206A8013200EB5B
:103F30008303042A43ED047AE8D19DED030A07B018
:103F400030BD00002DE9F8432A4C0546031D4FF013
:103F5000000804F1180705F124064FF0100994E851
:103F6000070083E8070004F10C0205F1100307CAFB
:103F700083E807000FCFC5F81C80C5F820800FC666
:103F80003B6804F12C07336005F138060FCF0FC6EC
:103F90003B684A46002105F14C00336004F15807A4
:103FA00016F006FE04F1400205F15C0305F17C0603
:103FB00007CA83E8070004F14C0205F168036C347A
:103FC00007CA83E807000FCFC5F87480C5F878806A
:103FD0000FC63B68336005F190060FCC0FC623680F
:103FE0004A46002105F1A400336016F0E1FD2846A1
:103FF000BDE8F8830CC30108704738B500250346B7
:104000000446102203F81C1B4C3040F8305C294653
:104010005D6016F0CDFD294604F1A4006567A56733
:104020001022BDE8384016F0C3BD00000378032B12
:1040300000F2B080DFE803F058770221D0ED086A83
:10404000D0ED067A90ED077A66EEA77A90ED056AD4
:1040500080ED087AE6EE077A90ED016A70EE677AF5
:1040600090ED020A27EE000AC0ED077AA6EE270AB5
:1040700090ED036AA6EE860A704790ED146AD0EDC3
:10408000107AD0ED136A66EE277A90ED0F7AD0EDB4
:10409000155A90ED165AE7EE267A90ED117AD0ED8A
:1040A000124AC0ED165A80ED156AC0ED146AE7EEAB
:1040B000257A90ED097AE4EE857A70EE677A90EDD4
:1040C0000A0A26EE800AC0ED137AA7EE270A90EDC1
:1040D0000B7AA6EE070A90ED0C7AA5EE870A90ED12
:1040E0000D7AA5EE070A7047D0ED1E6AD0ED1C7A56
:1040F00090ED1D7A66EEA77A90ED1B6A80ED1E7A30
:10410000E6EE077A90ED176A70EE677A90ED180A7E
:1041100027EE000AC0ED1D7AA6EE270A90ED196A77
:10412000A6EE860A7047D0ED2A6AD0ED267A90ED89
:10413000297A66EEA77A90ED256AD0ED275A90EDA0
:10414000285AE6EE077A90ED2B6A80ED2A7AC0EDC8
:104150002B6AE5EE867AD0ED2C5A80ED2C6AE5EEDE
:10416000257A90ED1F5A70EE677A90ED200A27EEBF
:10417000000AC0ED297AA5EE270A90ED215AA6EE95
:10418000850A90ED225AA6EE050A90ED235AA5EE77
:10419000850A70479FED010A704700BF00000000CC
:1041A000B4EEE00AF7EE007AF1EE10FA0ADD80EEE6
:1041B000807AF0EE006A27EE470AA7EE260A30EE74
:1041C000670A704737EEC07AB4EEE07AF1EE10FA83
:1041D00041BF70EEE70A80EE807AB0EE470AA7EEA4
:1041E000070A46BF37EE000A30EE270A9FED010AA4
:1041F000704700BF00000000037810B504462DEDA5
:10420000048BB6EE008AD0ED089AF7EE008A90EDA6
:10421000079A072B00F2F580DFE803F004357A5F98
:10422000738DBDCE9FED790A29EE000A16F020FBB2
:1042300039EE899AB4EEE89A84ED079AF1EE10FA15
:10424000C5BF39EE689A0123002384ED079AD4EDA7
:10425000077A84F82D3077EEE99AF4EEC89AF1EEF9
:1042600010FA40F1D180F4EEC87AF1EE10FAACBF4A
:1042700001230023D4ED017A84F82C3020EE270AA4
:10428000BDEC048B10BDFFEE007AD0ED035AB0EE0A
:10429000007A9FED5F6AF0EE686AB0EE670AE5EEBD
:1042A000866AA9EE070AB0EEC00A30EE480A30EE80
:1042B000000A20EE260AB4EEE80AF1EE10FA02DD5A
:1042C00037EE400AB4E7B4EEE70AF1EE10FAAFD5E4
:1042D000F8EE007A37EEC00AAAE7B4EEC89A90ED7D
:1042E000030A30EE287AF1EE10FA53BF79EE487ADD
:1042F00079EE097AB0EE680A77EEA77AA7EEC70AD8
:1043000096E7F0EE007ABFEE000AA9EE270A8FE7E3
:10431000F0EE487AD0ED036A9FED3E7AB7EE000AE0
:10432000E6EEC77AF4EEC97AFFEE007AF1EE10FA03
:1043300030FE270A7CE7B4EEC89AB7EE006AFFEEBB
:10434000005AF1EE10FAF0EE490AB0EE690A58BFD1
:10435000B0EE656AFFF724FF79EE087A36EE006A60
:10436000FBFE670AB0EE690A77EEE00AFFF718FF76
:1043700078EEE97A36EE406A90ED090A27EE800A77
:10438000F0EE407AB1EE000AE6EE297AC0ED097A45
:1043900020EE270A4CE7F0EE007ABFEE006AF0EE5E
:1043A000490AB0EE690AA9EE276AFFF7F9FE36EE70
:1043B000400AB1EE400A3BE790ED035AB7EE006ABF
:1043C000FFEE005AB4EEC95A38EEC55AF0EE490A6B
:1043D000F1EE10FA35EE095AB0EE690A76FE255A6A
:1043E000FFF7DEFE75EE805AFBFE450AB0EE690A65
:1043F00075EE600AFFF7D4FEDFED077A35EEC00AEE
:10440000C6E79FED060A13E7002333E7DB0FC94039
:104410006666663F6666E63EF4FD343F00000000D7
:10442000D0ED067A20EE270A7047000006494FF6C5
:10443000FF0C0002054BCA6800F4E06002EA0C02BF
:1044400010430343CB60704700ED00E00000FA0525
:104450001B4BDB68C3F3022300B5C3F1070E03F166
:10446000040CBEF1040F28BF4FF0040EBCF1060F80
:104470001AD9033B4FF0FF3C0CFA03FC22EA0C0272
:104480004FF0FF3C00280CFA0EFC21EA0C0101FA67
:1044900003F141EA02010ADB09010A4BC9B20344F4
:1044A00083F800135DF804FB00221346E8E700F0F0
:1044B0000F000901044BC9B2034419765DF804FBEF
:1044C00000ED00E000E100E0FCEC00E0002807DB8C
:1044D000012300F01F01034A40098B4042F82030BD
:1044E000704700BF00E100E000280DDB4309012216
:1044F00000F01F000549203302FA00F041F82300C4
:10450000BFF34F8FBFF36F8F704700BF00E100E034
:10451000BFF34F8F0549064BCA6802F4E0621343AC
:10452000CB60BFF34F8F00BFFDE700BF00ED00E0A1
:104530000400FA05431EB3F1807F0CD24FF0E02255
:10454000002006494FF0F00C5361072381F823C087
:104550009061136170470120704700BF00ED00E0DB
:10456000BFF35F8F044B00215A6A22F480325A62F3
:10457000C3F89410704700BF00ED00E0064B40F018
:104580000100C3F894005A6A42F480325A62BFF3C1
:104590004F8FBFF36F8F704700ED00E0174A4378ED
:1045A000C2F89830017821B3436800B5C2F89C3056
:1045B000C37A90F80CC01B0690F80FE043EA0C7326
:1045C00090F80AC00B43817B43EACC4390F80DC0BE
:1045D00043EA8C4390F809C043EA4143017A43EA35
:1045E0000E4343EA0C2343EA4103C2F8A0305DF8CE
:1045F00004FBC2F89C10C2F8A010704700ED00E068
:10460000704700BF08B5FFF7FBFF08BD202882B048
:1046100009D8084B03EB400213F81030507843EAF6
:10462000002002B0704701230C2043EA002002B0B2
:10463000704700BFDCC60108084604F07FBC00BF1D
:10464000143001F0E7B900BF143001F005BA00BF23
:10465000143001F0DBB900BF283001F07FBE00BF8D
:1046600010B540F203338EB000244FF60B7240F2C7
:104670000341ADF8083009A80123ADF81020ADF8CA
:1046800024202246ADF80C100094029907940C9453
:10469000CDE90544CDE90A4401F06EFD04A80123EB
:1046A00022460399009401F067FD09A801F04AFE33
:1046B00010B901200EB010BD04A801F043FEA042C5
:1046C0000CBF022020460EB010BD00BF2DE9F04106
:1046D00003239AB04FF0010800254FF60B740746EC
:1046E000CDE91438394BADF84C40CDE91053A3F166
:1046F0009F63A3F57D43CDE916581293FFF7B0FFF2
:104700004045064623D0022842D040F60132304BC5
:1047100007F158000BACADF82C200B991895CDF88B
:104720006480CDF84A3000F0DBF810A907F1700082
:1047300003F052FF274B0FCB84E80F003A6F21465E
:1047400007F1140001F026F91AB0BDE8F08110233A
:104750001F4A06A906908DF828300BAC1E4BCDF8E9
:104760004A2007930295CDE91805CDE9080502A86E
:1047700002F0D4F90823029A03A92046ADF80C6090
:104780008DF80E50049605930B9500F0E9F8CCE7F0
:1047900040F60133ADF82C4000200BACADF81830DA
:1047A00001210B4B42460095CDF84A302B460E9521
:1047B000CDE9180106992046CDE90C5501F0DCFC45
:1047C0002946204601F0CAFDAFE700BF04020404F9
:1047D000040604038CC301080704010B2DE9F0470C
:1047E00004462DED028B82B0002949D0012140F210
:1047F000011200230091ADF804208DF80630354AEF
:104800000127354B04F10409344904F13C08626086
:1048100040F20272A36040F60663E16004F1280AE8
:104820002285A3872782E762276404F081FD05467D
:1048300004F0D4FB6946064650BB4DB304F150006A
:104840008DF8067004F0F4FC072D3ED104F1140538
:104850002046FFF73BFF284601F0D8F82846B0EE87
:10486000408A01F0CFF8D0ED007AF8EE677A88EE52
:10487000277A84ED1B7A02B0BDEC028BBDE8F0878D
:1048800040F2011300918DF80610ADF80430B6E740
:1048900004F1500004F0CCFC072D13D0494620460B
:1048A00003F0AEF90EB9002DD0D15146504601F0BB
:1048B0007DFB4046414601F079FB04F1120000F017
:1048C00079F9C3E7002EF0D1C0E74946204603F04E
:1048D00097F9BBE70508050905070506050A060659
:1048E00030B585B0002504460122ADF80C102B46EA
:1048F0000399009501F040FC0121204601F02EFDB6
:10490000012004F01BFB2946204601F027FD012071
:1049100004F014FB0121204605B0BDE8304001F051
:104920001DBD00BF10B5C2F3002384B00C46017C4E
:104930008DF80D2043EA4402FA2402238DF80C205E
:1049400003AA009402F082F918B10124204604B0B1
:1049500010BD04460A2004F0F1FA204604B010BD50
:10496000034670B543F8042B044684B007C983E8B6
:104970000700A37983B91A210B461E22FA25237456
:104980002046ADF80C20022303AA009502F05EF940
:1049900028B1012004B070BD1B210B46EDE70A20B1
:1049A00004F0CCFA4FF4B85200950223ADF80C2075
:1049B000204603AA217C02F049F90028E9D10A2007
:1049C00004F0BCFA41F2027200950223ADF80C200B
:1049D000204603AA217C02F039F90028D9D10A2007
:1049E00004F0ACFA042200950223ADF80C20204616
:1049F00003AA217C02F02AF90028CAD10A2004F077
:104A00009DFA062200950223ADF80C20204603AA49
:104A1000217C02F01BF90028BBD10A2004F08EFA99
:104A200041F2082200950223ADF80C20204603AA8B
:104A3000217C02F00BF90028ABD10A20064604F0D5
:104A40007DFA0095022303AA217C2046ADF80C6074
:104A500002F0FCF800289CD1304604F06FFA009573
:104A600022790C232046002A8DF80C3003AA4FF03F
:104A7000020314BF622142218DF80D10217C02F047
:104A8000E5F8002885D1304604F058FA2279D4E9B7
:104A900002310B43DBB20AB943F0400362790AB139
:104AA00043F020030E22FA258DF80D3020460095A4
:104AB00002238DF80C2003AA217C02F0C7F80028FD
:104AC0007FF467AF0A2004F039FA10220095022320
:104AD000ADF80C20204603AA217C02F0B7F800288C
:104AE0007FF457AF0A2004F029FA1221009502231F
:104AF000ADF80C1003AA217C204602F0A7F800288C
:104B00007FF447AF0A2004F019FA01220921204658
:104B1000FFF708FF003818BF01203BE7F0B510236E
:104B200087B0234C012200250126002702A9204638
:104B30000195CDE902234FF48052CDE904670DF0D1
:104B40004FFD642004F016FF02A94FF48052204666
:104B5000CDE9046702261027CDE902670DF040FD7C
:104B60000322102302A92046CDE9022300230422B8
:104B7000CDE904234FF480520DF032FD40F2322390
:104B8000042202A9019310232046CDE90223019AB1
:104B9000012305924FF4805204930DF021FD40F65D
:104BA000060120460DF03CFD284607B0F0BD00BFD1
:104BB000ACCF06241C4B00221C494FF0400C30B5F2
:104BC000054689B00220596007219A601A620124C3
:104BD000DA620A224FF4006EDC6006922022CDE9F0
:104BE000000104200821CDE9020103201021CDE9B4
:104BF000040108206946C3E904024FF4C072181D7D
:104C0000C3E906C24FF48052C3E909E20DF0BEFCCD
:104C100038B92846FFF782FF003818BF012009B0D5
:104C200030BD204609B030BDA8CF06244041005217
:104C3000614A0021D0B513688EB00A91002B40F074
:104C4000B9805E4B01214FF683700C241160022164
:104C5000D3F8D4200026032742F48052C3F8D4208E
:104C6000D3F8D42002F480520092009AD3F8E020C6
:104C700042F01002C3F8E020D3F8E02002F0100266
:104C80000192019AD3F8E02042F04002C3F8E020FC
:104C9000D3F8E02002F040020292029AD3F8E0201A
:104CA00042F00802C3F8E020D3F8E02002F0080246
:104CB0000392039AD3F8E02042F48072C3F8E02014
:104CC000D3F8E02002F480720492049AD3F8E02032
:104CD00042F08002C3F8E020D3F8E02002F0800226
:104CE0000592059AD3F8E02042F02002C3F8E020B4
:104CF000D3F8E02002F020020692069AD3F8E020D2
:104D000042F00402C3F8E020D3F8E0300C9403F042
:104D1000040307930323079A0B93CDE9080108A91D
:104D2000274806F0CDF848F23712022308A9254893
:104D30000C94CDE90823CDE90A6706F0C1F84CF2DE
:104D40000372022308A920480C94CDE90823CDE979
:104D50000A6706F0B5F840F2FF62022308A91B4873
:104D60000C94CDE90823CDE90A6706F0A9F84FF6BF
:104D70000C72022308A916480C94CDE90823CDE94A
:104D80000A6706F09DF84FF63F02022308A9114872
:104D90000C94CDE90823CDE90A6706F091F82022AA
:104DA000022308A90A480C94CDE90A67CDE9082333
:104DB00006F086F80EB0D0BDA4CF062400440258F9
:104DC0000010025800180258000C02580020025827
:104DD000001C0258001402582DE9F04FDFF810842F
:104DE00006460D46144608F118002DED028B89B0D9
:104DF00000AF03F0E9FCD8F8183073B3D8F81C30D2
:104E0000D8F80490002B43690BBF4FF0080A4FF00D
:104E1000100A4FF0020B4FF0040BB9F1000F2AD02B
:104E2000A200EA46012B02F1070222F00702ADEBD5
:104E3000020D6846ADEB020D694600F03F81022B82
:104E400000F0D680002B6FD02246C847D5462437C5
:104E5000BD46BDEC028BBDE8F08FD8F81C30002BAE
:104E6000F5D0D8F804904FF0080A4FF0020B4369D0
:104E7000B9F1000FD4D1FB61D8F80030BB61002B31
:104E8000E5D0D54803F01EFD6B46BBF1020F7861FB
:104E900008EE103AFB6900F083816A465146A2EBA6
:104EA000C40295466200EA46B2FBFBF2AAEBC400DC
:104EB00085460AEB8200EE46F861ADEB010DF8691C
:104EC0000EEB820CC7F810C0EC46ADEB010D00EB09
:104ED0008201CCF80400CCF8081001EB820138699B
:104EE000E946CCF80C1000EB8201CCF800A001EBF5
:104EF0008202C9E900E0C9E90212012B00F06483D3
:104F0000022B00F06C82002B00F080816208494681
:104F10006046BB69984718EE103A24379D46BD4657
:104F2000BDEC028BBDE8F08F002C8DD01A46D8ED79
:104F30000C6A9FEDB27A8446331D36F922E00CF1FB
:104F4000080C07EE90EA33F922E00232F8EEE77A35
:104F5000944267EE877A67EEA67A4CED027A07EE06
:104F600090EAF8EEE77A67EE877A67EEA67A4CED7C
:104F7000017AE2D8F9612246C847984ED8ED0D6A09
:104F80000020F9692B1D9FED9E7A9FED9E6ADFED53
:104F90009E5A22E0F4EEC67AF1EE10FAC0F2C8840E
:104FA00047F6FE72D1ED017A45F8202066EEA77A29
:104FB000F4EEC77AF1EE10FA40F2F080F4EEC67A21
:104FC000F1EE10FAC0F2D58447F6FE7243F82020C5
:104FD0000230083184427FF639AFD1ED007A66EEB7
:104FE000A77AF4EEC77AF1EE10FAD3D83246D9E7B1
:104FF000002C3FF429AFD8ED0C6A84469FED787AF7
:105000000022331D8E4656F822100CF1080C07EED4
:10501000901A53F822100232F8EEE77A944267EEC3
:10502000877A67EEA67A4CED027A07EE901AF8EED0
:10503000E77A67EE877A67EEA67A4CED017AE2D8D6
:1050400071462246C7F81CE0C847664ED8ED0D6A87
:105050000020F9692B1D9FED6A7A9FED6A6ADFF8DF
:1050600094C120E0F4EEC67AF1EE10FAC0F2798431
:105070003246D1ED017A45F8202066EEA77AF4EEAB
:10508000C77AF1EE10FA40F28780F4EEC67AF1EEBC
:1050900010FAC0F25E84324643F820200230083114
:1050A00084427FF6D3AED1ED007A66EEA77AF4EEB5
:1050B000C77AF1EE10FAD5D86246DAE7002C3FF451
:1050C000C3AED8ED0C6A86469FED477A4FF0000CD0
:1050D000331D56F82C200EF1080E82F40002A2F5C2
:1050E000000207EE902A53F82C200CF1020CF8EE87
:1050F000E77A82F400026445A2F5000267EE877A3F
:1051000067EEA67A4EED027A07EE902AF8EEE77A7D
:1051100067EE877A67EEA67A4EED017AD9D8F96103
:105120002246C847314ED8ED0D6A0020F9692B1D83
:105130009FED337A9FED336ADFF8BCC01FE0F4EED9
:10514000C67AF1EE10FAC0F2FC833246D1ED017A54
:1051500045F8202066EEA77AF4EEC77AF1EE10FA51
:1051600018D9F4EEC67AF1EE10FAC0F2DA833246BC
:1051700043F820200230083184427FF667AED1ED3B
:10518000007A66EEA77AF4EEC77AF1EE10FAD6D876
:105190006246DBE76246EBE762467DE7324615E7AB
:1051A000A100D6466208073121F00701ADEB010DE1
:1051B000EA46ADEB010D6946ADEB0E0D0AEB820040
:1051C000EC46ADEB0E0D01EB8202F861E946CCE94D
:1051D00000A0C9E9001290E6FCCF06240280FFFF80
:1051E000000000300082FF7F0000003482FF7F005B
:1051F000E0CF0624007E00807E0080FF00000038A3
:1052000004FF7FBF04FF7F3F00FEFF46002C00F03D
:10521000C982BBF1020FD8F8242000F0FA82796924
:10522000C7F8049002EB810E5FED0C5A8A00DCF89F
:1052300008100EF104007A611A46DCF80C303B616C
:10524000331DD7F810903D61FD69C7E902CB8C464C
:10525000834636F92210D8ED0C7A06EE101A33F98F
:10526000221006EE901A3EF92210B8EEC66A07EE3A
:10527000101AF8EEE66A3BF92210B8EEC77A26EE6D
:10528000256A66EEA56A27EE257A26EE276A66EE7F
:10529000A76A27EE277A07EE901A51080232F8EE35
:1052A000E77A0AEB8100944280ED006A05EB810009
:1052B00067EEA57AC0ED006A0CEB810009EB810175
:1052C00080ED007A98ED0C7A67EE877AC1ED007A6E
:1052D000BFD8D7F804903D69D7E902CB6046620891
:1052E000BB6949469847D8F82C307A69D8ED0D6AE1
:1052F0001A441FED3D7A1FED3D6A2B1D904602F1C9
:10530000040A5FED3F5A0022A84ED9E900EC51E0B3
:10531000F4EEC67AF1EE10FAC0F2C78247F6FE70DC
:1053200045F822000CEB0100D0ED007A66EEA77A7A
:10533000F4EEC77AF1EE10FA4BD9F4EEC67AF1EE3C
:1053400010FAC0F2BA8247F6FE70BBF1020F43F8C2
:1053500022002BD0D9F808000844D0ED007A66EE80
:10536000A77AF4EEC77AF1EE10FA36D9F4EEC67ADF
:10537000F1EE10FAC0F2CD8247F6FE7048F8220036
:10538000D9F80C000144D1ED007A66EEA77AF4EE6C
:10539000C77AF1EE10FA1ED9F4EEC67AF1EE10FAE1
:1053A000C0F2AF8247F6FE714AF8221002329442F0
:1053B0007FF6B1AD51080EEB81008900D0ED007A87
:1053C00066EEA77AF4EEC77AF1EE10FAA0D830466E
:1053D000A6E73046B9E73146E6E73046CEE7002C8F
:1053E00000F0E081BBF1020FD8F8243000F0E18139
:1053F0007A69DCF8081003EB820EC7F8049093007A
:10540000DFED6B5A0EF1040000227B61DCF80C30FA
:105410003B61331DD7F810903D61FD69C7E902CBB0
:105420008C46834656F82210D8ED0C7A07EE101AF7
:1054300053F82210B8EEC76A07EE101A5EF8221071
:10544000F8EEC76A07EE101A26EE256A5BF82210FE
:10545000B8EEC77A66EEA56A26EE276A27EE257AA9
:1054600066EEA76A27EE277A07EE901A51080232F5
:10547000F8EEE77A0AEB8100944280ED006A05EBD2
:10548000810067EEA57AC0ED006A0CEB810009EBA4
:10549000810180ED007A98ED0C7A67EE877AC1ED94
:1054A000007ABFD8D7F804903D69D7E902CB6046AF
:1054B0006208BB6949469847D8F82C307A69D8ED1C
:1054C0000D6A1A449FED3E7A9FED3E6A131D924687
:1054D000DFF8E4C00022FB612B1D364ED9E9008EB7
:1054E0004EE0F4EEC67AF1EE10FAC0F2FC813046DE
:1054F00045F822000EEB0100D0ED007A66EEA77AA7
:10550000F4EEC77AF1EE10FA49D9F4EEC67AF1EE6C
:1055100010FAC0F2EF813046BBF1020F43F82200CF
:105520002AD0D9F808000844D0ED007A66EEA77AB0
:10553000F4EEC77AF1EE10FA35D9F4EEC67AF1EE50
:1055400010FAC0F2C98130464AF82200D9F80C009E
:105550000144D1ED007A66EEA77AF4EEC77AF1EE57
:1055600010FA1ED9F4EEC67AF1EE10FAC0F2AD814F
:105570003146F86940F82210023294427FF6CBACF3
:10558000510808EB81008900D0ED007A66EEA77A19
:10559000F4EEC77AF1EE10FAA3D86046A8E76046A9
:1055A000BAE76146E5E76046CEE700BF0280FFFF4D
:1055B000000000300082FF7F007E00800000003489
:1055C00004FF7FBF04FF7F3F002C00F0EB807A696F
:1055D0000021D8F82430C7F8109003EB820ED7F8DA
:1055E0001C909300FD610EF104021FED0C6A7B61BB
:1055F000331D154656F821204808D8ED0C6ABBF13A
:10560000020F82F40002A2F5000207EE902A53F87E
:10561000212082F40002B8EEE77AA2F5000227EE1C
:10562000067A07EE902A0AEB8002F8EEE77A27EE78
:10563000267A67EE867A82ED007A09EB80024FEADD
:10564000800067EEA67AC2ED007A27D05EF82120AE
:1056500082F40002A2F5000207EE902A55F82120FC
:1056600082F40002B8EEE77AA2F5000227EE067A8D
:1056700007EE902ADCF80820F8EEE77A024427EEDD
:10568000267A67EE867A82ED007A98ED0C7ADCF85D
:105690000C2067EE877A0244C2ED007A02318C4218
:1056A000A8D8D7F8109060466208BB694946FD69E2
:1056B0009847D8F82C307A69D8ED0D6A1A441FED56
:1056C000407A1FED406A131D9246DFF8C4C20022E3
:1056D000FB612B1DAB4ED9E9008E4EE0F4EEC67A8D
:1056E000F1EE10FAC0F2C580304645F822000EEB0C
:1056F0000100D0ED007A66EEA77AF4EEC77AF1EEFB
:1057000010FA49D9F4EEC67AF1EE10FAC0F2BF8071
:105710003046BBF1020F43F822002AD0D9F8080026
:105720000844D0ED007A66EEA77AF4EEC77AF1EE7F
:1057300010FA35D9F4EEC67AF1EE10FAC0F2AE8066
:1057400030464AF82200D9F80C000144D1ED007A25
:1057500066EEA77AF4EEC77AF1EE10FA1ED9F4EEEF
:10576000C67AF1EE10FAC0F28B803146F86940F843
:105770002210023294427FF6CEAB510808EB810032
:105780008900D0ED007A66EEA77AF4EEC77AF1EEE2
:1057900010FAA3D86046A8E76046BAE76146E5E795
:1057A0006046CEE7224649466046BB699847FFF708
:1057B000B2BBC7F810B0002298ED0C6A331DDFEDC4
:1057C000726AD7F81CB0786956F8221007EE901A62
:1057D00053F82210B8EEE77A07EE901A5108023219
:1057E000F8EEE77A27EE267A0AEB810E94420BEB6D
:1057F000810167EEA67A27EE067A67EE867A8EED4D
:10580000007AC1ED007ADFD88300D7F810B07B6151
:105810004DE61A46C7F810B098ED0C6A331DDFED5F
:105820005B6AD7F81CB0786936F9221007EE101AB7
:1058300033F9221007EE901AB8EEC77A51080232F7
:10584000F8EEE77A27EE267A0AEB810E94420BEB0C
:10585000810167EEA67A27EE067A67EE867A8EEDEC
:10586000007AC1ED007ADFD88300D7F810B07B61F1
:1058700034E5F0EE675AFEEEE45A15EE900A34E78E
:10588000F0EE675AFEEEE45A15EE901A6EE7F0EE6F
:10589000675AFEEEE45A15EE900A3AE7F0EE675AC0
:1058A000FEEEE45A15EE900A4BE767EEA57AFDEEA0
:1058B000E77A17EE900A00B232E567EEA57AFDEEC0
:1058C000E77A17EE900A00B23FE5F0EE675AFEEE77
:1058D000E05A15EE901A4CE6F0EE675AFEEEE05AEA
:1058E00015EE900A30E6F0EE675AFEEEE05A15EE3D
:1058F000900AFDE5F0EE675AFEEEE05A15EE900ACA
:105900000AE667EEA57AFDEEE77A17EE901A09B27D
:105910004AE567EEA57AFDEEE77A17EE900A00B247
:105920002CE5F0EE675AFEEEE45A15EE902A1FE4DD
:1059300067EEA57AFDEEE77A17EE902A12B2FFF72E
:1059400031BBF0EE675AFEEEE45A15EE902AFFF7EF
:10595000FDBBF0EE675AFEEEE05A15EE902AFFF717
:105960009BBBF0EE675AFEEEE05A15EE902AFFF769
:1059700080BB67EEA57AFDEEE77A17EE902A12B2A9
:10598000FFF724BB82FF7F000000003000000038DA
:105990007E0080FF30B5184C154685B0046004F1D8
:1059A000080EEC460FC98EE80F00D4ED047AF5EE30
:1059B000C07A8CE80F00F1EE10FA1ADDB7EE006A3B
:1059C00094ED057A27EE277AC6EE276A84ED0D7AE4
:1059D000C4ED0C6A6DB1204640F8185F02F0F4FE89
:1059E000064903690020064A2162A262E36005B00D
:1059F00030BD012005B030BDE0CF062400200030CE
:105A00000000003000680830704700BF00681830A0
:105A100002F046BF30B5046883B00D46E3694BB170
:105A2000A3680020E26A616A9B00009004F11C00F8
:105A300002F0CCFEA3680748A26A9B00216A00908E
:105A400004F1180002F0C2FE0020C4E9005003B0C7
:105A500030BD00BFD94D000810B50468A3691BB163
:105A600004F1180002F010FFE3691BB104F11C00FF
:105A700002F00AFF002010BD10B4074B4FF07E511A
:105A800030240022032019619C60D8605DF8044B2B
:105A90005961C3E906227047E0CF062430B50446B9
:105AA00087B00025ADF81410ADF81020ADF80C301B
:105AB00003F042FA2A462060059904F12C00257172
:105AC0000123009500F058FB01232A46049904F1B4
:105AD0004000009500F050FB9FED060A039904F189
