:020000040800F2
:1000000000000220190A00080D0A0008F55A00082D
:100010000D0A00080D0A00080D0A00080000000083
:100020000000000000000000000000000D0A0008B1
:100030000D0A0008000000000D0A0008795A0008A7
:100040000D0A00080D0A00080D0A00080D0A000834
:100050000D0A00080D0A00080D0A00080D0A000824
:100060000D0A00080D0A00080D0A00086156000874
:100070006D5600080D0A00087956000885560008DC
:1000800055290108ED4600080D0A00080D0A000870
:100090000D0A00080D0A00080D0A00080D0A0008E4
:1000A0000D0A00080D0A00080D0A00080D0A0008D4
:1000B000D51A0108E11A0108ED1A010821470008C4
:1000C0000D0A00082D4700080D0A00081D1301083D
:1000D0002913010889270108B5270108E927010824
:1000E0000D0A00080D0A0008000000000D0A0008B3
:1000F0000D0A00080D0A00080D0A00080D0A000884
:100100000D0A00080D0A0008F91A01083513010844
:100110001D280108512801080D0A00080D0A0008D1
:100120000D0A00080D0A0008591301088D13010873
:10013000892901080D0A00080D0A00080D0A0008A7
:1001400000000000000000000000000000000000AF
:100150000D0A00080D0A00080D0A0008852801088C
:10016000394700080D0A0008895A0008AD5A0008EE
:100170000D0A0008D15A00080D0A00080D0A0008EF
:100180000D0A00080D0A0008B9280108ED28010829
:10019000411301084D1301080D0A00080D0A00085B
:1001A0000D0A00080D0A00080D0A00080D0A0008D3
:1001B000555300080D0A00080D0A00080D0A000832
:1001C0000D0A00080D0A0008694000087540000883
:1001D0000D0A0008814000080D0A00080D0A0008F9
:1001E0000D0A00080D0A00080D0A00080D0A000893
:1001F0000D0A00080D0A00080D0A00080D0A000883
:100200000D0A00080D0A00080D0A00080D0A000872
:100210000D0A00080D0A00080D0A00080D0A000862
:100220000D0A00080D0A00080D0A00080000000071
:100230000D0A00080D0A0008000000000D0A000861
:100240000D0A00080D0A00080D0A00080D0A000832
:100250000D0A00080D0A00080D0A00080D0A000822
:100260000D0A00080D0A00080D0A00080D0A000812
:100270000D0A00080D0A00082129010800000000ED
:100280000D0A00080D0A00080D0A00080000000011
:08029000000000000D0A000847
:1002A00010B5054C237833B9044B13B10448AFF3B0
:1002B00000800123237010BD780700240000000097
:1002C00044A8010808B5034B1BB103490348AFF329
:1002D000008008BD000000007C07002444A801083D
:1002E000034613F8012B002AFBD1181A0138704776
:1002F00001F0FF01102A2BDB10F0070F08D010F8D7
:10030000013B013A8B422DD010F0070F42B3F6D1DA
:10031000F0B441EA012141EA014122F007047FF0F3
:1003200000070023F0E80256083C85EA010586EA4A
:10033000010685FA47F5A3FA87F586FA47F6A5FA86
:1003400087F68EB9EED1F0BC01F0FF0102F0070292
:1003500032B110F8013B013A83EA010313B1F8D13D
:100360000020704701387047002D06BF354603381E
:10037000073815F0010F07D1013015F4807F02BF57
:10038000013015F4C03F0130F0BC0138704700BFA8
:1003900081F0004102E000BF83F0004330B54FEA36
:1003A00041044FEA430594EA050F08BF90EA020FA3
:1003B0001FBF54EA000C55EA020C7FEA645C7FEA36
:1003C000655C00F0E2804FEA5454D4EB5555B8BF59
:1003D0006D420CDD2C4480EA020281EA030382EACA
:1003E000000083EA010180EA020281EA0303362D5C
:1003F00088BF30BD11F0004F4FEA01314FF4801C2F
:100400004CEA113102D0404261EB410113F0004F40
:100410004FEA03334CEA133302D0524263EB4303F7
:1004200094EA050F00F0A780A4F10104D5F1200E95
:100430000DDB02FA0EFC22FA05F2801841F10001F0
:1004400003FA0EF2801843FA05F359410EE0A5F1C4
:1004500020050EF1200E012A03FA0EFC28BF4CF0F5
:10046000020C43FA05F3C01851EBE37101F00045AB
:1004700007D54FF0000EDCF1000C7EEB00006EEBB8
:100480000101B1F5801F1BD3B1F5001F0CD3490842
:100490005FEA30004FEA3C0C04F101044FEA445299
:1004A00012F5800F80F09A80BCF1004F08BF5FEA20
:1004B000500C50F1000041EB045141EA050130BD00
:1004C0005FEA4C0C404141EB0101013C28BFB1F512
:1004D000801FE9D291F0000F04BF01460020B1FA5D
:1004E00081F308BF2033A3F10B03B3F120020CDA30
:1004F0000C3208DD02F1140CC2F10C0201FA0CF00E
:1005000021FA02F10CE002F11402D8BFC2F1200C72
:1005100001FA02F120FA0CFCDCBF41EA0C01904028
:10052000E41AA2BF01EB0451294330BD6FEA040471
:100530001F3C1CDA0C340EDC04F11404C4F120025C
:1005400020FA04F001FA02F340EA030021FA04F36E
:1005500045EA030130BDC4F10C04C4F1200220FAC5
:1005600002F001FA04F340EA0300294630BD21FA03
:1005700004F0294630BD94F0000F83F4801306BFC9
:1005800081F480110134013D4EE77FEA645C18BFBD
:100590007FEA655C29D094EA050F08BF90EA020F54
:1005A00005D054EA000C04BF1946104630BD91EA4C
:1005B000030F1EBF0021002030BD5FEA545C05D14F
:1005C0004000494128BF41F0004130BD14F580048E
:1005D0003CBF01F5801130BD01F0004545F0FE4102
:1005E00041F470014FF0000030BD7FEA645C1ABF37
:1005F000194610467FEA655C1CBF0B46024650EA6E
:10060000013406BF52EA033591EA030F41F4002199
:1006100030BD00BF90F0000F04BF0021704730B51F
:100620004FF4806404F132044FF000054FF00001F4
:1006300050E700BF90F0000F04BF0021704730B5B5
:100640004FF4806404F1320410F0004548BF40428A
:100650004FF000013EE700BF42004FEAE2014FEADF
:1006600031014FEA02701FBF12F07F4393F07F4FBA
:1006700081F06051704732F07F4208BF704793F0BD
:100680007F4F04BF41F40021704730B54FF46074D0
:1006900001F0004521F000411CE700BF50EA0102D3
:1006A00008BF704730B54FF000050AE050EA01027C
:1006B00008BF704730B511F0004502D5404261EBEC
:1006C00041014FF4806404F132045FEA915C3FF42D
:1006D000D8AE4FF003025FEADC0C18BF03325FEACA
:1006E000DC0C18BF033202EBDC02C2F1200300FA7B
:1006F00003FC20FA02F001FA03FE40EA0E0021FAA0
:1007000002F11444BDE600BF53B94AB9002908BF3D
:1007100000281CBF4FF0FF314FF0FF3000F074B9DC
:10072000ADF1080C6DE904CE00F006F8DDF804E048
:10073000DDE9022304B070472DE9F047089D044627
:100740008E46002B4DD18A42944669D9B2FA82F284
:1007500052B101FA02F3C2F1200120FA01F10CFAC0
:1007600002FC41EA030E94404FEA1C48210CBEFBF8
:10077000F8F61FFA8CF708FB16E341EA034306FB81
:1007800007F199420AD91CEB030306F1FF3080F010
:100790001F81994240F21C81023E63445B1AA4B25D
:1007A000B3FBF8F008FB103344EA034400FB07F7FF
:1007B000A7420AD91CEB040400F1FF3380F00A8140
:1007C000A74240F207816444023840EA0640E41B35
:1007D00000261DB1D4400023C5E900433146BDE8E1
:1007E000F0878B4209D9002D00F0EF800026C5E983
:1007F000000130463146BDE8F087B3FA83F6002E9B
:100800004AD18B4202D3824200F2F980841A61EB12
:10081000030301209E46002DE0D0C5E9004EDDE730
:1008200002B9FFDEB2FA82F2002A40F09280A1EB18
:100830000C014FEA1C471FFA8CFE0126200CB1FB6D
:10084000F7F307FB131140EA01410EFB03F0884266
:1008500008D91CEB010103F1FF3802D2884200F2F3
:10086000CB804346091AA4B2B1FBF7F007FB101185
:1008700044EA01440EFB00FEA64508D91CEB040423
:1008800000F1FF3102D2A64500F2BB800846A4EB7E
:100890000E0440EA03409CE7C6F12007B34022FA69
:1008A00007FC4CEA030C20FA07F401FA06F31C4398
:1008B000F9404FEA1C4900FA06F3B1FBF9F8200CA5
:1008C0001FFA8CFE09FB181140EA014108FB0EF0EB
:1008D000884202FA06F20BD91CEB010108F1FF3A3B
:1008E00080F08880884240F28580A8F10208614447
:1008F000091AA4B2B1FBF9F009FB101144EA014155
:1009000000FB0EFE8E4508D91CEB010100F1FF34FF
:100910006CD28E456AD90238614440EA0840A0FB97
:100920000294A1EB0E01A142C846A64656D353D06D
:100930005DB1B3EB080261EB0E0101FA07F722FA91
:1009400006F3F1401F43C5E9007100263146BDE8BA
:10095000F087C2F12003D8400CFA02FC21FA03F31D
:10096000914001434FEA1C471FFA8CFEB3FBF7F09E
:1009700007FB10360B0C43EA064300FB0EF69E42C3
:1009800004FA02F408D91CEB030300F1FF382FD25C
:100990009E422DD9023863449B1B89B2B3FBF7F604
:1009A00007FB163341EA034106FB0EF38B4208D9DD
:1009B0001CEB010106F1FF3816D28B4214D9023E1E
:1009C0006144C91A46EA004638E72E46284605E73C
:1009D0000646E3E61846F8E64B45A9D2B9EB02080D
:1009E00064EB0C0E0138A3E74646EAE7204694E79D
:1009F0004046D1E7D0467BE7023B614432E73046D0
:100A000009E76444023842E7704700BF684620F0B7
:100A100007018D46FEE700BF0B480C4A904208B51F
:100A200003D0121A0A4915F0E9FF0A480A4A90420F
:100A300003D0121A002116F009F805F0C1FA15F0DA
:100A4000A9FF00F075F8FEE70000002478070024F5
:100A50007CA8010878070024486C0024704700BF78
:100A6000704700BF704700BF704700BF002A49D0E1
:100A7000013A2DE9F047DFF8A4A00D4600274FEA20
:100A80005208214CAAF67419204EDAED007A94ED42
:100A9000007A94ED020A94ED016AA7EE870A237B9F
:100AA0001A48DFED1B6A20EE060A77EEC07AB0EE38
:100AB000406AA7EE276A84ED026A13B1012B07FE94
:100AC000A60A86ED020A14F0ABFD99F878191148D0
:100AD00086ED070A14F096FBDFED0F7A0B4820EE47
:100AE000270A86ED010A14F0E5FB2A467B1C4745E0
:100AF00085ED010A1F4605F1080582ED000AC4D103
:100B0000BDE8F087704700BF94070024D407002495
:100B100000000000A40700249A99593F7411002492
:100B200010B50446643000F067FC204610BD00BFDD
:100B300080B54748B6EE008A01F044FE00214448E3
:100B4000002701F041FF30214148002601F05EFE00
:100B5000002003F07FF93E493E4800F017F93C4879
:100B600001F050FEF7EE006AF0EE407A3A4C9FED4D
:100B70003B7A204684ED018A84ED027AB0EE470A82
:100B800086EEA77AC4ED047A84ED038AA761344D1A
:100B900084ED057A14F044FD40F20113F0EE407A42
:100BA0009FED300A20462385C4ED077A267084ED38
:100BB000020A14F035FD2C4B2548636084ED070ACA
:100BC00001F020FE0121284614F024FA9FED270AA7
:100BD0000121284614F08EFA9FED250A02212846AD
:100BE00014F088FA234B0421234CB0EE480A28461F
:100BF0002B6014F07FFA1648A760267301F002FEFE
:100C0000B2EE046A9FED1D7ADFED1D6AC6EE007A32
:100C1000F4EEC77AF1EE10FA58BFF0EE477A27EEFD
:100C2000A60A14F011FFF7EE007A1649084870EE94
:100C3000276A84ED000A87EEA67A84ED017A01F036
:100C4000DDFD044800F05EF9052004F0C5FFF8E77B
:100C50008811002400080024D40700240000C842A2
:100C6000A40700240000DC439A99593FCDCC4C3DA9
:100C7000CDCCCC3D3333333F94070024C976FE3EC0
:100C8000DB0F49406D0A000870B5314800244FF66B
:100C90000B766FF0F4132F4D2F4A3049C360046078
:100CA000446104620467C0E90133C0E90A64C0E931
:100CB0000C44C0E90F64C0E91144C0E91664C0E9FE
:100CC000184414F0B3FC05F164002C70C5E9066407
:100CD000C5E90844C5E90D64C5E90F44C5E91264D6
:100CE000C5E9144400F0CCFA05F674131C492846F3
:100CF000194A196005F67C131A4985F87849196074
:100D000005F51863184985F884491960174914F0E6
:100D10008DFC114A1649174814F088FC1648002328
:100D200016490D4A848581600161416181610360DA
:100D300013494360C360C3610362436214F076FCED
:100D4000054A10491048BDE8704014F06FBC00BF60
:100D50008811002400080024000000245D0A000817
:100D60000000DC4300004842CDCC8C3F210B000842
:100D7000650A0008D4070024A4070024000080BFEF
:100D8000610A0008690A00089407002410B50A46A1
:100D9000044686B0643062600121009000F040FBA0
:100DA00004F67C1204F518630098D2ED007A93EDF6
:100DB000000AFCEEE77A0190CDED007A9DF8001074
:100DC00001F0D0FC002201981146009001F09AFA3F
:100DD0000421009801F09AFB0D2001F0F5FC034678
:100DE0000E20ADF80C3001F0EFFC03460A20ADF800
:100DF000103001F0E9FCADF8140004F108009FED9B
:100E0000050A059BDDE9031206B0BDE8104002F0BB
:100E10002DBF00BF00000000037BEBB1027D036E1D
:100E200072BB63B390F88429002A47D0012A39D1D4
:100E300007EE903A00F51860DFED2F6AF8EEE77ADA
:100E400090ED007AA7EEA67AB4EEE67AF1EE10FA0B
:100E500029D5C0ED006A7047037D83B190F82C302E
:100E60007F2B0CD190F88439244A0133A2FB031262
:100E700002F4FF7101EB52029B1A80F8843970472B
:100E800090F82C207F2ACCD190F884291B4901327C
:100E9000A1FB02C101F4FF7C0CEB5101521A80F856
:100EA0008429BEE77047F0EE007AB4EEE77AF1EEFF
:100EB00010FA77FE877AC0ED007A704707EE903A15
:100EC00000F67C10B1EE046AF8EEE77A90ED007A55
:100ED000F7EE006AA7EE867AB4EEE67AF1EE10FA43
:100EE000B7D4DFED077AB4EEE77AF1EE10FA77FEC9
:100EF000877AC0ED007A7047CDCCCC3DABAAAAAAC8
:100F00000000C84210B52DED028B86B00446643057
:100F100001F000FB0A2102220DF116000123B0EEC0
:100F2000408ACDE90121002294F89010009004F14C
:100F30007C0003F0EFFC94F89420BDF816300028F4
:100F400018BF42F0010213F0010384F8942012D07C
:100F500094F87839B3B104F6741383ED008A04F180
:100F6000080002F0B1FE204606B0BDEC028BBDE8E1
:100F70001040FFF751BF94F87829002AEFD084F889
:100F80007839ECE7012384F87839E4E738B5134D74
:100F9000044600F5E27CAE46BEE80F00ACE80F0068
:100FA000BEE80F00ACE80F00BEE80F00ACE80F0091
:100FB0009EE80F008CE80F0005F14001802204F547
:100FC000017015F01BFD4FF4807205F1C00104F5AE
:100FD000217015F013FD204638BD00BFA49701080D
:100FE000704700BF0129017003D002290AD029B13E
:100FF000704780220021443015F028BD4022043083
:1010000015F024BD4FF480720021C43015F01EBDD0
:101010000378012B10B504462DED028BB0EE408A0B
:1010200007D0022B3AD0FBB19FED2A0ABDEC028B10
:1010300010BD00F148037C2200F14401184615F070
:10104000EBFC04F1C40203469FED220A84ED118AF1
:1010500001E0B3EC018AD3ED6F7A9A42A7EE880AD9
:10106000F7D1BDEC028B10BD00F108033C22011D3D
:10107000184615F0D1FC04F1440203469FED150A11
:1010800084ED018A01E0B3EC018AD3ED6F7A9A42D4
:10109000A7EE880AF7D1BDEC028B10BD00F1C803A2
:1010A000FC2200F1C401184615F0B6FC04F5E2720A
:1010B00003469FED080A84ED318A01E0B3EC018A12
:1010C000D3ED6F7A9A42A7EE880AF7D1BDEC028B76
:1010D00010BD00BF00000000154A0346154900F18D
:1010E000080C2DE9F047416002F10C0800F11407EB
:1010F00002F1180600F1280502F1240E002407CAA7
:101100008CE8070098E8070087E8070096E80700E2
:10111000C3E9084403F1340C85E807009EE80700A2
:101120008CE8070018461C645C64BDE8F08700BFCB
:10113000649901080000C842704700BF0023017095
:101140000364436403624362704700BF03782BB3B8
:10115000012B20D190ED096A90ED077AD0ED086A55
:1011600026EE077AD0ED064AD0ED037A90ED025ACA
:10117000A4EEA67AD0ED045A66EEA77AC0ED096A0D
:1011800030EE477AE5EE077A80ED087AB0EE670A2E
:10119000A6EE250A70479FED120A704790ED116A7E
:1011A00090ED0F7AD0ED106A26EE077AD0ED0E4A58
:1011B000D0ED0B7A90ED0A5AA4EEA67AD0ED0C5A37
:1011C00066EEA77AC0ED116A30EE477AE5EE077A4F
:1011D00080ED107AB0EE670AA6EE250A704700BFD0
:1011E0000000000000220346DFF810C043F804CBE3
:1011F0004260C3E90122C3E9032270470000C842EC
:10120000704700BF002343608360C3600361436194
:10121000704700BF86B041680369C268D0F808C053
:10122000436181600261C0F80CC080ED010A02A830
:10123000029100218DED010ACDF80CC004920593B6
:10124000B0EC017A0B46024652ED027AF4EEC77A10
:10125000F1EE10FA12DD013B62ED017AB3F1FF3FCE
:10126000F2D1002306AA013102EB8303042903ED26
:10127000057AE5D19DED030A06B070470133F1E729
:101280002DE9F04F00230124054657495A224363B4
:10129000816087B0027405F6440A80F82C2005F5B9
:1012A000066805F67C06C0E90034C0E9063303236E
:1012B000C0E90841C0E90E4185F8503040F20323EF
:1012C00085F844205430AB82A5F84830FFF704FF7E
:1012D00005F19C00FFF786FF05F1B400FFF756FE0D
:1012E00005F58760FFF752FE05F2BC724FF08040B3
:1012F00000234FF07E513D4C10604FF0FF3204F15F
:10130000B40004F11C09C5F8C02705F2C4720590A9
:1013100004F13807136005F5F96204F1700B04F16C
:10132000840E136040F2047205F6C80CA5F8CC27B1
:1013300005F5FA62116005F2D4722D49116005F5C8
:10134000FB622C49116005F2DC7205F6B4011360F2
:1013500005F5FC620391136005F6980204F154034D
:10136000019205F6F802029304920FCCAAE80F004E
:1013700094E807008AE80700B9E80F00A8E80F0022
:1013800099E8070088E807000FCF0FC697E8070025
:10139000029B019C86E807001E4627460FCE0FC71A
:1013A00096E80700039C87E80700BBE80F000FC41E
:1013B000DBF800302360BEE80F00ACE80F00BEE8A9
:1013C0000F00ACE80F009EE80F008CE80F000598B6
:1013D000049C06460FCE0FC496E8030084E8030081
:1013E000284607B0BDE8F08F01080109949901086B
:1013F000000048420000C64210B5044600F5876070
:10140000FFF7EEFD04F1B400FFF7EAFD04F19C00E4
:10141000FFF7F6FE04F15400FFF78EFE204610BDE4
:101420002DE9F04F044695B04FF00108C2640391D6
:101430000EADC0F838800DF1380B406BA646A16B9D
:101440000DF1100CE26B0A27236CE2464FF05E09A7
:1014500041260FC5B4F84830606CAB80AB8828607B
:1014600004F118052061A382BBE80F0020606160D1
:10147000A260E360BEE80F00ACE80F004FF010037D
:1014800009908DF83430DEF80030CCF8003084F864
:101490002C3000230490CDE90B83BDF81830ADF853
:1014A0002830BDF81A30ADF82A30BAE80F00E061F4
:1014B0002846216209A962624FF0000AA36203F084
:1014C00041F9009794F8303009AA94F82C100028BC
:1014D00018BF43F0010328468DF825A084F830306A
:1014E00043468DF8249003F0C5F9009704AA94F8B8
:1014F000303094F82C10002818BF43F00103284620
:1015000084F83030434603F0DDF9009794F830302A
:1015100009AA94F82C10002818BF43F001032846AC
:1015200084F83030022303F0A5F9009794F83030A6
:1015300009AA94F82C10002818BF43F0010328468C
:1015400084F8303080238DF8243063238DF82530E3
:10155000022303F08FF9009794F8303009AA94F829
:101560002C10002818BF43F0010328468DF8249062
:1015700084F830309DF810308DF82530022303F0C8
:1015800079F994F83030002818BF43F00103404641
:1015900084F8303004F020FB434609AA009728461F
:1015A00094F82C108DF825A08DF8249003F062F9A2
:1015B0000097434694F8302094F82C10002818BF68
:1015C00042F00102284684F8302004AA03F07AF998
:1015D000009794F8303009AA94F82C10002818BF0E
:1015E00043F0010328468DF825A084F8303002230B
:1015F0008DF8249003F03EF994F8303094F814B04C
:10160000002818BF43F0010394F815A084F8303087
:101610000A274FF000094FF05E08012309AA00973E
:10162000284694F82C108DF825908DF8248003F02E
:1016300021F994F8302001230097484518BF42F063
:10164000010294F82C10284684F8302004AA03F0F4
:1016500039F994F8302002230097484518BF42F02A
:10166000010294F82C10284684F8302009AA03F0CF
:1016700001F994F8302002230097484518BF42F042
:10168000010294F82C1028468DF8246084F830204C
:1016900009AA8DF825B003F0EDF894F830309DF8E4
:1016A0001020484518BF43F0010300978DF825200E
:1016B000284609AA94F82C1084F8303002238DF8BB
:1016C000248003F0D7F894F8302001230097484590
:1016D00018BF42F0010294F82C1028468DF825908E
:1016E00084F8302009AA8DF8248003F0C3F894F818
:1016F000302001230097484518BF42F0010294F8BA
:101700002C10284684F8302004AA03F0DBF894F863
:10171000302002230097484518BF42F0010294F898
:101720002C10284684F8302009AA03F0A3F894F876
:101730003030721C0097484518BF43F0010394F8FD
:101740002C108DF82420284609AA84F83030022372
:101750008DF825A003F08EF894F830309DF8102015
:101760000236484518BF43F0010300978DF8252045
:10177000284684F8303009AA022394F82C10F6B2D7
:101780008DF8248003F076F894F83030484518BF7F
:1017900043F00103592E84F830307FF439AF012330
:1017A00009AA0097284694F82C1001268DF8259058
:1017B0008DF8248003F05EF8009704AA94F8303086
:1017C00094F82C10484518BF43F00103284684F8CC
:1017D0003030012303F076F8009794F8303009AAEE
:1017E00094F82C10484518BF43F00103284684F8AC
:1017F0003030022303F03EF8009794F8303009AA05
:1018000094F82C10484518BF43F0010328468DF882
:10181000256084F830302B238DF82430022303F028
:1018200029F8009794F8303009AA94F82C1048450C
:1018300018BF43F0010328468DF8248084F8303027
:101840009DF810308DF82530022303F013F800972F
:1018500094F8303009AA94F82C10484518BF43F08A
:10186000010328468DF8259084F8303033468DF8F2
:10187000248002F0FFFF009704AA94F8303094F817
:101880002C10484518BF43F00103284684F8303037
:10189000334603F017F8009794F8303009AA94F80B
:1018A0002C10484518BF43F00103284684F8303017
:1018B000022302F0DFFF009794F8303009AA94F871
:1018C0002C10484518BF43F0010328468DF82560C9
:1018D00084F830302C238DF82430022302F0CAFF24
:1018E000009794F8303009AA94F82C10484518BF96
:1018F00043F0010328468DF8248084F830309DF8A9
:1019000010308DF82530022302F0B4FF009794F8D0
:10191000303009AA94F82C10484518BF43F0010351
:1019200028468DF8259084F8303033468DF8248091
:1019300002F0A0FF009704AA94F8303094F82C101D
:10194000484518BF43F00103284684F83030334639
:1019500002F0B8FF009794F8303009AA94F82C10E0
:10196000484518BF43F00103284684F8303002236D
:1019700002F080FF009794F8303009AA94F82C10F8
:10198000484518BF43F00103284684F830302D2322
:101990008DF824300E238DF82530022302F06AFFE3
:1019A000009794F8303009AA94F82C10484518BFD5
:1019B00043F0010328468DF8248084F830309DF8E8
:1019C00010308DF82530022302F054FF009794F870
:1019D000303009AA94F82C10484518BF43F0010391
:1019E00028468DF8259084F8303033468DF82480D1
:1019F00002F040FF009704AA94F8303094F82C10BD
:101A0000484518BF43F00103284684F83030334678
:101A100002F058FF009794F8303009AA94F82C107F
:101A2000484518BF43F00103284684F830300223AC
:101A300002F020FF009794F8303009AA94F82C1097
:101A4000484518BF43F0010328468DF8259084F8D7
:101A500030302E238DF82430022302F00BFF009744
:101A600094F8303009AA94F82C10484518BF43F078
:101A7000010328468DF8248084F830309DF810301A
:101A80008DF82530022302F0F5FE009794F83030EF
:101A900009AA94F82C10484518BF43F001032846C2
:101AA0008DF8259084F8303033468DF8248002F08C
:101AB000E1FE009704AA94F8303094F82C104845C1
:101AC00018BF43F00103284684F83030334602F053
:101AD000F9FE009794F8303009AA94F82C10484584
:101AE00018BF43F00103284684F83030022302F087
:101AF000C1FE009794F8303009AA94F82C1048459C
:101B000018BF43F0010328468DF8256084F8303073
:101B10002F238DF82430022302F0ACFE009794F8B6
:101B2000303009AA94F82C10484518BF43F001033F
:101B300028468DF8248084F830309DF810308DF8D8
:101B40002530022302F096FE009794F8303009AA5F
:101B500094F82C10484518BF43F0010328468DF82F
:101B6000259084F8303033468DF8248002F082FED0
:101B7000009704AA94F8303094F82C10484518BF08
:101B800043F00103284684F83030334602F09AFED1
:101B9000009794F8303009AA94F82C10484518BFE3
:101BA00043F00103284684F83030022302F062FE3D
:101BB000009794F8303009AA94F82C10484518BFC3
:101BC00043F00103284684F8303030238DF8243068
:101BD00005238DF82530022302F04CFE009794F87F
:101BE000303009AA94F82C10484518BF43F001037F
:101BF00028468DF8248084F830309DF810308DF818
:101C00002530022302F036FE009794F8303009AAFE
:101C100094F82C10484518BF43F0010328468DF86E
:101C2000259084F8303033468DF8248002F022FE6F
:101C3000009704AA94F8303094F82C10484518BF47
:101C400043F00103284684F83030334602F03AFE70
:101C5000009794F8303009AA94F82C10484518BF22
:101C600043F00103284684F83030022302F002FEDC
:101C7000009794F8303009AA94F82C10484518BF02
:101C800043F0010328468DF8256084F83030312375
:101C90008DF82430022302F0EDFD009794F83030E7
:101CA00009AA94F82C10484518BF43F001032846B0
:101CB0008DF8248084F830309DF810308DF8253070
:101CC000022302F0D7FD009794F8303009AA94F867
:101CD0002C10484518BF43F0010328468DF8259085
:101CE00084F8303033468DF8248002F0C3FD00972D
:101CF00004AA94F8303094F82C10484518BF43F0EB
:101D00000103284684F83030334602F0DBFD0097AB
:101D100094F8303009AA94F82C10484518BF43F0C5
:101D20000103284684F83030022302F0A3FD009717
:101D300094F8303009AA94F82C10484518BF43F0A5
:101D4000010328468DF8259084F8303032238DF831
:101D50002430022302F08EFD009794F8303009AA57
:101D600094F82C10484518BF43F0010328468DF81D
:101D7000248084F830309DF810308DF8253002230F
:101D800002F078FD009794F8303009AA94F82C10EE
:101D9000484518BF43F0010328468DF8259084F884
:101DA000303033468DF8248002F064FD009704AA99
:101DB00094F8303094F82C10484518BF43F00103D4
:101DC000284684F83030334602F07CFD009794F8C2
:101DD000303009AA94F82C10484518BF43F001038D
:101DE000284684F83030022302F044FD009794F82E
:101DF000303009AA94F82C10484518BF43F001036D
:101E000028468DF8259084F8303033238DF824301F
:101E1000022302F02FFD009794F8303009AA94F8BD
:101E20002C10484518BF43F0010328468DF8248044
:101E300084F830309DF810308DF82530022302F000
:101E400019FD009794F8303009AA94F82C104845F1
:101E500018BF43F0010328468DF8259084F83030F0
:101E600033468DF8248002F005FD009704AA94F80B
:101E7000303094F82C10484518BF43F00103284631
:101E800084F83030334602F01DFD009794F830306E
:101E900009AA94F82C10484518BF43F001032846BE
:101EA00084F83030022302F0E5FC009794F83030DB
:101EB00009AA94F82C10484518BF43F0010328469E
:101EC0008DF8259084F8303034238DF824300223A7
:101ED00002F0D0FC009794F8303009AA94F82C1046
:101EE000484518BF43F0010328468DF8248084F844
:101EF00030309DF810308DF82530022302F0BAFC06
:101F0000009794F8303009AA94F82C10484518BF6F
:101F100043F0010328468DF8259084F8303033468D
:101F20008DF8248002F0A6FC0097334694F8302008
:101F300094F82C10484518BF42F00102284684F856
:101F4000302004AA02F0BEFC009794F8303009AAB1
:101F500094F82C10484518BF43F00103284684F834
:101F60003030022302F086FC009794F8303009AA42
:101F700094F82C10484518BF43F0010328468DF80B
:101F8000259084F8303035238DF82430022302F078
:101F900071FC009794F8303009AA94F82C10484549
:101FA00018BF43F0010328468DF8248084F83030B0
:101FB0009DF810308DF82530022302F05BFC00976D
:101FC00094F8303009AA94F82C10484518BF43F013
:101FD000010328468DF8259084F8303033468DF87B
:101FE000248002F047FC009704AA94F8303094F85B
:101FF0002C10484518BF43F00103284684F83030C0
:10200000334602F05FFC009794F8303009AA94F848
:102010002C10484518BF43F00103284684F830309F
:10202000022302F027FC009794F8303009AA94F8B4
:102030002C10484518BF43F0010328468DF8259021
:1020400084F830305B238DF82430022302F012FC38
:10205000009794F8303009AA94F82C10484518BF1E
:1020600043F0010328468DF8248084F830309DF831
:1020700010308DF82530022302F0FCFB009794F815
:10208000303009AA94F82C10484518BF43F00103DA
:1020900028468DF8259084F8303033468DF824801A
:1020A00002F0E8FB009704AA94F8303094F82C1062
:1020B000484518BF43F00103284684F830303346C2
:1020C00002F000FC009794F8303009AA94F82C1024
:1020D000484518BF43F00103284684F830300223F6
:1020E00002F0C8FB009794F8303009AA94F82C103D
:1020F000484518BF43F00103284684F830305C237C
:102100008DF8243010238DF82530022302F0B2FB25
:10211000009794F8303009AA94F82C10484518BF5D
:1021200043F0010328468DF8248084F830309DF870
:1021300010308DF82530022302F09CFB009794F8B4
:10214000303009AA94F82C10484518BF43F0010319
:1021500028468DF8259084F8303033468DF8248059
:1021600002F088FB009704AA94F8303094F82C1001
:10217000484518BF43F00103284684F83030334601
:1021800002F0A0FB009794F8303009AA94F82C10C4
:10219000484518BF43F00103284684F83030022335
:1021A00002F068FB009794F8303009AA94F82C10DC
:1021B000484518BF43F00103284684F830305D23BA
:1021C0008DF8243020238DF82530022302F052FBB5
:1021D000009794F8303009AA94F82C10484518BF9D
:1021E00043F0010328468DF8248084F830309DF8B0
:1021F00010308DF82530022302F03CFB009794F854
:10220000303009AA94F82C10484518BF43F0010358
:1022100028468DF8259084F8303033468DF8248098
:1022200002F028FB009704AA94F8303094F82C10A0
:10223000484518BF43F00103284684F83030334640
:1022400002F040FB0097014694F8303009AA284676
:10225000494518BF43F0010394F82C108DF82480F1
:1022600084F830308C238DF82530022302F002FBF5
:1022700094F83030484518BF43F0010393B184F817
:102280003090E06C012100F0DDFAE06C642100F098
:10229000B1FAE06C002100F0D5FA6421E06C00F0A6
:1022A000A9FAEEE784F830300121E06C00F0CAFAB8
:1022B000039904F15400FEF741FF04F19C00FEF77E
:1022C000A1FF04F1B4000221FEF78CFE04F5876043
:1022D0000221FEF787FE002304F2DC7104F5FC62A4
:1022E00004200B60136004F2C47205494FF0FF3301
:1022F00084F8CC071160C4F8C03715B0BDE8F08F82
:102300000000DC4370B507EE901A0546062A24D873
:10231000DFE802F0237B9DBFE1045D0000F61404BA
:102320000C2100F6C80300F6F806224680F8CD1707
:10233000D3F800E0103353F80CCC103253F8080CEB
:1023400053F8041CB34242F810EC42F80CCC42F8AB
:10235000080C42F8041CEBD120E0D0F84C3805F60C
:102360001404D0F84418D0F848280720C5F81C38C1
:10237000D5F85038C5F81418C5F81828D5F85418E9
:10238000D5F85828C5F82038D5F85C3885F8CD0739
:10239000C5F82418C5F82828C5F82C38F8EE677A4F
:1023A000F2EE080AB0EE000AC7EEA00A13F0B8F980
:1023B00095F8CD2752B1234604EB8202D3ED007A83
:1023C00067EE807AE3EC017A9A42F7D170BDD0F8DB
:1023D000F82805F61404D0F8FC380620D5F8006972
:1023E000D5F80419C5F81428C5F81838D5F80829FF
:1023F000D5F80C39C5F82428C5F81C6885F8CD0730
:10240000C5F82018C5F82838C8E7D0F8683805F6A8
:102410001404D0F86018D0F864280720C5F81C38D8
:10242000D5F86C38C5F81418C5F81828D5F8701800
:10243000D5F87428C5F82038D5F8783885F8CD0750
:10244000C5F82418C5F82828C5F82C38A6E7D0F810
:10245000843805F61404D0F87C18D0F880280720BA
:10246000C5F81C38D5F88838C5F81418C5F81828E8
:10247000D5F88C18D5F89028C5F82038D5F89438B8
:1024800085F8CD07C5F82418C5F82828C5F82C38D4
:1024900084E7D0F8A03805F61404D0F89818D0F8DE
:1024A0009C280720C5F81C38D5F8A438C5F814189E
:1024B000C5F81828D5F8A818D5F8AC28C5F82038DC
:1024C000D5F8B03885F8CD07C5F82418C5F8282800
:1024D000C5F82C3862E7D0F8B438052105F61404A5
:1024E000C0F81438D5F8BC38D0F8B808D5F8C028EA
:1024F000C5F81C38D5F8C438C5F8180885F8CD17C4
:10250000C5F82028C5F8243848E700BF80F8CC1764
:10251000704700BF2DE9F04F2DED068B87B00123EA
:1025200000F118060A270DF11604054600F2C47AD8
:102530001E22009405F5FC69CDE9013790F82C10B6
:1025400030469AED00AA02F0E5F9009401460297A0
:10255000012395F8302030469DF8164005F5FA66BF
:10256000002918BF42F0010285F8302002220192B2
:10257000042295F82C1002F0CDF995F85020A30014
:1025800007EE102ABDF8162000EE103A95F830300C
:10259000B8EE477AF8EE407A00EE102A002818BF0D
:1025A00043F0010305F2DC72B8EE400A05F19C002D
:1025B00085F8303037EEC00A30EE470A82ED000A67
:1025C000FEF728FE05F15400FEF7C0FD05F2D473B6
:1025D000D5F8C027D3ED007A9FED607A002A96EDFA
:1025E000008A77EEC77A80FE080A80FE670A89EDC6
:1025F000000A95F8CD3701DB9A4261DBF3B3DFEDDA
:10260000588A002405F5FB6805F5F96707EE903A4E
:10261000A3460134D7ED000AB8EEE70A98ED009A18
:1026200096ED008A88EE800A13F07AF895F8CD3797
:1026300007EE904AD7ED000AD8ED009AF8EEE78A47
:1026400007EE903AA9EE008A96ED009AB8EEE70AF6
:1026500088EE800A13F064F8D9ED007AF4EEC87AB7
:10266000F1EE10FA06DBA9EE809AF4EEC97AF1EEEB
:1026700010FA0AD495F8CD37A342C7DCB0EE4A0A67
:1026800007B0BDEC068BBDE8F08F95F8CC27012391
:1026900093400AEE103A0BF5017305EB8303B8EE95
:1026A000CAAAD3ED017AC5F8C0B72AEE27AAB0EEC0
:1026B0004A0A8AED00AA07B0BDEC068BBDE8F08F90
:1026C00007EE102A013207EE903A05F5FB68B8EEE6
:1026D000C70A07EE102AF8EEE77A05F5F967B8EEB3
:1026E000C77A98ED009AD7ED000A80EE270AC7EE68
:1026F000278A13F015F8D7ED000AD8ED00AAA9EE45
:10270000008A96ED009AB0EE680A13F009F805F217
:10271000BC73F0EE409AD7ED000AB0EE680AD3ED34
:10272000008A12F0FDFF99ED007A68EE807A38EEAB
:10273000678AB4EEC87AF1EE10FA08DBAAEEA99A1D
:1027400079EE277AB4EEE77AF1EE10FA02D495F832
:10275000CD3753E79AED00AA90E700BF6F12833A96
:102760000000000010B5044600F587602DED028BD7
:1027700008EE101AFEF74CFCF0EE407A04F5F9630F
:10278000B8EE480A04F1B400C3ED007AFEF740FC4D
:1027900004F5FA63D3ED007AF4EEC07AF1EE10FAA4
:1027A00003DBB7EE000A37EE800A70EE677A04F2B8
:1027B000D47304F5FB6483ED000AC4ED007ABDEC2C
:1027C000028B10BD704700BF202882B009D8084B8B
:1027D00003EB400213F81030507843EA002002B0B7
:1027E000704701230C2043EA002002B0704700BF6D
:1027F000A49A0108084603F0EFB900BF143001F0B5
:102800000DBA00BF143001F005BA00BF38B500F1B1
:10281000140504462DED028B284601F0EDF92846FB
:1028200001F0F8F92846B0EE408A01F0E1F9D0ED68
:10283000007AF8EE677A88EE277ABDEC028B84ED99
:102840001B7A38BD283001F0F9BD00BF10B540F249
:1028500003338EB000244FF60B7240F20341ADF803
:10286000083009A80123ADF81020ADF82420224635
:10287000ADF80C100094029907940C94CDE905442E
:10288000CDE90A4401F0E8FC04A80123224603999B
:10289000009401F0E1FC09A801F0C4FD10B9012089
:1028A0000EB010BD04A801F0BDFDA0420CBF022077
:1028B00020460EB010BD00BF2DE9F04103239AB0B1
:1028C0004FF0010800254FF60B740746CDE9143888
:1028D000394BADF84C40CDE91053A3F19F63A3F5FC
:1028E0007D43CDE916581293FFF7B0FF40450646E9
:1028F00023D0022842D040F60132304B07F1580075
:102900000BACADF82C200B991895CDF86480CDF860
:102910004A3000F0DBF810A907F1700002F02CFF3C
:10292000274B0FCB84E80F003A6F214607F11400C4
:1029300001F026F91AB0BDE8F08110231F4A06A95C
:1029400006908DF828300BAC1E4BCDF84A2007932B
:102950000295CDE91805CDE9080502A801F0F2FEBF
:102960000823029A03A92046ADF80C608DF80E509A
:10297000049605930B9500F0E9F8CCE740F6013397
:10298000ADF82C4000200BACADF8183001210B4BFA
:1029900042460095CDF84A302B460E95CDE91801F8
:1029A00006992046CDE90C5501F056FC29462046F3
:1029B00001F044FDAFE700BF040204040406040371
:1029C000609A01080704010B2DE9F04704462DED3C
:1029D000028B82B0002949D0012140F2011200236C
:1029E0000091ADF804208DF80630354A0127354BAB
:1029F00004F10409344904F13C08626040F20272B7
:102A0000A36040F60663E16004F1280A2285A387EB
:102A10002782E762276403F089FA054603F0DEF8AF
:102A20006946064650BB4DB304F150008DF8067060
:102A300003F0FEF9072D3ED104F114052046FFF7FF
:102A40003BFF284601F0E6F82846B0EE408A01F048
:102A5000CFF8D0ED007AF8EE677A88EE277A84ED29
:102A60001B7A02B0BDEC028BBDE8F08740F2011387
:102A700000918DF80610ADF80430B6E704F150006F
:102A800003F0D6F9072D13D04946204602F080FA0C
:102A90000EB9002DD0D15146504601F0F7FA40460C
:102AA000414601F0F3FA04F1120000F079F9C3E7AE
:102AB000002EF0D1C0E74946204602F069FABBE794
:102AC0000508050905070506050A060630B585B09F
:102AD000002504460122ADF80C102B460399009501
:102AE00001F0BAFB0121204601F0A8FC012003F00F
:102AF00073F82946204601F0A1FC012003F06CF890
:102B00000121204605B0BDE8304001F097BC00BF70
:102B100010B5C2F3002384B00C46017C8DF80D2063
:102B200043EA4402FA2402238DF80C2003AA0094FD
:102B300001F0A0FE18B10124204604B010BD0446E7
:102B40000A2003F049F8204604B010BD034670B5D2
:102B500043F8042B044684B007C983E80700A3792F
:102B600083B91A210B461E22FA2523742046ADF89C
:102B70000C20022303AA009501F07CFE28B101205D
:102B800004B070BD1B210B46EDE70A2003F024F8CA
:102B90004FF4B85200950223ADF80C20204603AA4A
:102BA000217C01F067FE0028E9D10A2003F014F827
:102BB00041F2027200950223ADF80C20204603AAD0
:102BC000217C01F057FE0028D9D10A2003F004F837
:102BD000042200950223ADF80C20204603AA217C94
:102BE00001F048FE0028CAD10A2002F0F5FF0622B3
:102BF00000950223ADF80C20204603AA217C01F0A9
:102C000039FE0028BBD10A2002F0E6FF41F208227B
:102C100000950223ADF80C20204603AA217C01F088
:102C200029FE0028ABD10A20064602F0D5FF009508
:102C3000022303AA217C2046ADF80C6001F01AFEA5
:102C400000289CD1304602F0C7FF009522790C2362
:102C50002046002A8DF80C3003AA4FF0020314BF5F
:102C6000622142218DF80D10217C01F003FE002825
:102C700085D1304602F0B0FF2279D4E902310B430E
:102C8000DBB20AB943F0400362790AB143F0200392
:102C90000E22FA258DF80D302046009502238DF87E
:102CA0000C2003AA217C01F0E5FD00287FF467AF2A
:102CB0000A2002F091FF102200950223ADF80C20AB
:102CC000204603AA217C01F0D5FD00287FF457AFF0
:102CD0000A2002F081FF122100950223ADF80C10AA
:102CE00003AA217C204601F0C5FD00287FF447AFF0
:102CF0000A2002F071FF012209212046FFF708FF98
:102D0000003818BF01203BE7F0B5102387B0234CF3
:102D1000012200250126002702A920460195CDE9C0
:102D200002234FF48052CDE904670BF01BFC6420B2
:102D300003F082FE02A94FF480522046CDE90467D9
:102D400002261027CDE902670BF00CFC03221023AA
:102D500002A92046CDE9022300230422CDE9042361
:102D60004FF480520BF0FEFB40F23223042202A902
:102D7000019310232046CDE90223019A01230592F5
:102D80004FF4805204930BF0EDFB40F60601204611
:102D90000BF008FC284607B0F0BD00BF0412002469
:102DA0001C4B00221C494FF0400C30B5054689B041
:102DB0000220596007219A601A620124DA620A220D
:102DC0004FF4006EDC6006922022CDE90001042061
:102DD0000821CDE9020103201021CDE904010820DA
:102DE0006946C3E904024FF4C072181DC3E906C264
:102DF0004FF48052C3E909E20BF08AFB38B9284648
:102E0000FFF782FF003818BF012009B030BD20460F
:102E100009B030BD0012002440410052614A002137
:102E2000D0B513688EB00A91002B40F0B9805E4B8C
:102E300001214FF683700C2411600221D3F8D420B5
:102E40000026032742F48052C3F8D420D3F8D420BC
:102E500002F480520092009AD3F8E02042F010026F
:102E6000C3F8E020D3F8E02002F010020192019AAA
:102E7000D3F8E02042F04002C3F8E020D3F8E0208D
:102E800002F040020292029AD3F8E02042F00802D7
:102E9000C3F8E020D3F8E02002F008020392039A7E
:102EA000D3F8E02042F48072C3F8E020D3F8E020A9
:102EB00002F480720492049AD3F8E02042F0800277
:102EC000C3F8E020D3F8E02002F080020592059AD2
:102ED000D3F8E02042F02002C3F8E020D3F8E0204D
:102EE00002F020020692069AD3F8E02042F0040293
:102EF000C3F8E020D3F8E0300C9403F00403079308
:102F00000323079A0B93CDE9080108A9274805F088
:102F100013F948F23712022308A925480C94CDE989
:102F20000823CDE90A6705F007F94CF20372022382
:102F300008A920480C94CDE90823CDE90A6705F0DB
:102F4000FBF840F2FF62022308A91B480C94CDE96C
:102F50000823CDE90A6705F0EFF84FF60C7202235B
:102F600008A916480C94CDE90823CDE90A6705F0B5
:102F7000E3F84FF63F02022308A911480C94CDE96B
:102F80000823CDE90A6705F0D7F82022022308A913
:102F90000A480C94CDE90A67CDE9082305F0CCF87E
:102FA0000EB0D0BDFC11002400440258001002589D
:102FB00000180258000C025800200258001C025849
:102FC000001402582DE9F04FDFF8108406460D4634
:102FD000144608F118002DED028B89B000AF02F005
:102FE000C3FCD8F8183073B3D8F81C30D8F8049064
:102FF000002B43690BBF4FF0080A4FF0100A4FF047
:10300000020B4FF0040BB9F1000F2AD0A200EA46E0
:10301000012B02F1070222F00702ADEB020D684618
:10302000ADEB020D694600F03F81022B00F0D68027
:10303000002B6FD02246C847D5462437BD46BDEC8D
:10304000028BBDE8F08FD8F81C30002BF5D0D8F8F3
:1030500004904FF0080A4FF0020B4369B9F1000FDA
:10306000D4D1FB61D8F80030BB61002BE5D0D54846
:1030700002F0ECFC6B46BBF1020F786108EE103AEF
:10308000FB6900F083816A465146A2EBC402954673
:103090006200EA46B2FBFBF2AAEBC40085460AEBEB
:1030A0008200EE46F861ADEB010DF8690EEB820C83
:1030B000C7F810C0EC46ADEB010D00EB8201CCF877
:1030C0000400CCF8081001EB82013869E946CCF81D
:1030D0000C1000EB8201CCF800A001EB8202C9E9E0
:1030E00000E0C9E90212012B00F06483022B00F01A
:1030F0006C82002B00F08081620849466046BB6903
:10310000984718EE103A24379D46BD46BDEC028B19
:10311000BDE8F08F002C8DD01A46D8ED0C6A9FEDDB
:10312000B27A8446331D36F922E00CF1080C07EE22
:1031300090EA33F922E00232F8EEE77A944267EE41
:10314000877A67EEA67A4CED027A07EE90EAF8EEFF
:10315000E77A67EE877A67EEA67A4CED017AE2D8D5
:10316000F9612246C847984ED8ED0D6A0020F969EA
:103170002B1D9FED9E7A9FED9E6ADFED9E5A22E009
:10318000F4EEC67AF1EE10FAC0F2C88447F6FE7289
:10319000D1ED017A45F8202066EEA77AF4EEC77AE1
:1031A000F1EE10FA40F2F080F4EEC67AF1EE10FA89
:1031B000C0F2D58447F6FE7243F820200230083171
:1031C00084427FF639AFD1ED007A66EEA77AF4EE4D
:1031D000C77AF1EE10FAD3D83246D9E7002C3FF483
:1031E00029AFD8ED0C6A84469FED787A0022331D12
:1031F0008E4656F822100CF1080C07EE901A53F880
:1032000022100232F8EEE77A944267EE877A67EE90
:10321000A67A4CED027A07EE901AF8EEE77A67EE9E
:10322000877A67EEA67A4CED017AE2D8714622469B
:10323000C7F81CE0C847664ED8ED0D6A0020F96952
:103240002B1D9FED6A7A9FED6A6ADFF894C120E03A
:10325000F4EEC67AF1EE10FAC0F279843246D1ED7E
:10326000017A45F8202066EEA77AF4EEC77AF1EEEF
:1032700010FA40F28780F4EEC67AF1EE10FAC0F24E
:103280005E84324643F820200230083184427FF6C3
:10329000D3AED1ED007A66EEA77AF4EEC77AF1EEFE
:1032A00010FAD5D86246DAE7002C3FF4C3AED8ED69
:1032B0000C6A86469FED477A4FF0000C331D56F896
:1032C0002C200EF1080E82F40002A2F5000207EE97
:1032D000902A53F82C200CF1020CF8EEE77A82F4D5
:1032E00000026445A2F5000267EE877A67EEA67ACF
:1032F0004EED027A07EE902AF8EEE77A67EE877ACB
:1033000067EEA67A4EED017AD9D8F9612246C84710
:10331000314ED8ED0D6A0020F9692B1D9FED337AEF
:103320009FED336ADFF8BCC01FE0F4EEC67AF1EE21
:1033300010FAC0F2FC833246D1ED017A45F8202024
:1033400066EEA77AF4EEC77AF1EE10FA18D9F4EE29
:10335000C67AF1EE10FAC0F2DA83324643F8202042
:103360000230083184427FF667AED1ED007A66EE16
:10337000A77AF4EEC77AF1EE10FAD6D86246DBE708
:103380006246EBE762467DE7324615E7A100D64686
:103390006208073121F00701ADEB010DEA46ADEB04
:1033A000010D6946ADEB0E0D0AEB8200EC46ADEB6C
:1033B0000E0D01EB8202F861E946CCE900A0C9E9F3
:1033C000001290E6541200240280FFFF000000303B
:1033D0000082FF7F0000003482FF7F00381200244B
:1033E000007E00807E0080FF0000003804FF7FBF69
:1033F00004FF7F3F00FEFF46002C00F0C982BBF1B6
:10340000020FD8F8242000F0FA827969C7F80490F6
:1034100002EB810E5FED0C5A8A00DCF808100EF109
:1034200004007A611A46DCF80C303B61331DD7F892
:1034300010903D61FD69C7E902CB8C46834636F9A1
:103440002210D8ED0C7A06EE101A33F9221006EE8F
:10345000901A3EF92210B8EEC66A07EE101AF8EE7E
:10346000E66A3BF92210B8EEC77A26EE256A66EEC8
:10347000A56A27EE257A26EE276A66EEA76A27EE6A
:10348000277A07EE901A51080232F8EEE77A0AEB33
:103490008100944280ED006A05EB810067EEA57A19
:1034A000C0ED006A0CEB810009EB810180ED007A30
:1034B00098ED0C7A67EE877AC1ED007ABFD8D7F81D
:1034C00004903D69D7E902CB60466208BB69494672
:1034D0009847D8F82C307A69D8ED0D6A1A441FED58
:1034E0003D7A1FED3D6A2B1D904602F1040A5FED07
:1034F0003F5A0022A84ED9E900EC51E0F4EEC67A1A
:10350000F1EE10FAC0F2C78247F6FE7045F82200CD
:103510000CEB0100D0ED007A66EEA77AF4EEC77AE4
:10352000F1EE10FA4BD9F4EEC67AF1EE10FAC0F2D1
:10353000BA8247F6FE70BBF1020F43F822002BD08F
:10354000D9F808000844D0ED007A66EEA77AF4EEC8
:10355000C77AF1EE10FA36D9F4EEC67AF1EE10FA27
:10356000C0F2CD8247F6FE7048F82200D9F80C0070
:103570000144D1ED007A66EEA77AF4EEC77AF1EE57
:1035800010FA1ED9F4EEC67AF1EE10FAC0F2AF824C
:1035900047F6FE714AF82210023294427FF6B1AD2E
:1035A00051080EEB81008900D0ED007A66EEA77A13
:1035B000F4EEC77AF1EE10FAA0D83046A6E730460E
:1035C000B9E73146E6E73046CEE7002C00F0E0816F
:1035D000BBF1020FD8F8243000F0E1817A69DCF801
:1035E000081003EB820EC7F804909300DFED6B5ACE
:1035F0000EF1040000227B61DCF80C303B61331DCE
:10360000D7F810903D61FD69C7E902CB8C4683462F
:1036100056F82210D8ED0C7A07EE101A53F8221043
:10362000B8EEC76A07EE101A5EF82210F8EEC76A05
:1036300007EE101A26EE256A5BF82210B8EEC77A5C
:1036400066EEA56A26EE276A27EE257A66EEA76A59
:1036500027EE277A07EE901A51080232F8EEE77A41
:103660000AEB8100944280ED006A05EB810067EE71
:10367000A57AC0ED006A0CEB810009EB810180EDB9
:10368000007A98ED0C7A67EE877AC1ED007ABFD8A0
:10369000D7F804903D69D7E902CB60466208BB6960
:1036A00049469847D8F82C307A69D8ED0D6A1A4403
:1036B0009FED3E7A9FED3E6A131D9246DFF8E4C00F
:1036C0000022FB612B1D364ED9E9008E4EE0F4EE50
:1036D000C67AF1EE10FAC0F2FC81304645F82200BD
:1036E0000EEB0100D0ED007A66EEA77AF4EEC77A11
:1036F000F1EE10FA49D9F4EEC67AF1EE10FAC0F202
:10370000EF813046BBF1020F43F822002AD0D9F8EE
:1037100008000844D0ED007A66EEA77AF4EEC77A86
:10372000F1EE10FA35D9F4EEC67AF1EE10FAC0F2E5
:10373000C98130464AF82200D9F80C000144D1ED85
:10374000007A66EEA77AF4EEC77AF1EE10FA1ED987
:10375000F4EEC67AF1EE10FAC0F2AD813146F869A6
:1037600040F82210023294427FF6CBAC510808EBAD
:1037700081008900D0ED007A66EEA77AF4EEC77A70
:10378000F1EE10FAA3D86046A8E76046BAE76146B2
:10379000E5E76046CEE700BF0280FFFF0000003093
:1037A0000082FF7F007E00800000003404FF7FBFA6
:1037B00004FF7F3F002C00F0EB807A690021D8F8ED
:1037C0002430C7F8109003EB820ED7F81C909300BA
:1037D000FD610EF104021FED0C6A7B61331D15467D
:1037E00056F821204808D8ED0C6ABBF1020F82F48C
:1037F0000002A2F5000207EE902A53F8212082F47D
:103800000002B8EEE77AA2F5000227EE067A07EE8C
:10381000902A0AEB8002F8EEE77A27EE267A67EE26
:10382000867A82ED007A09EB80024FEA800067EE2B
:10383000A67AC2ED007A27D05EF8212082F4000239
:10384000A2F5000207EE902A55F8212082F400022A
:10385000B8EEE77AA2F5000227EE067A07EE902A84
:10386000DCF80820F8EEE77A024427EE267A67EEC5
:10387000867A82ED007A98ED0C7ADCF80C2067EEFF
:10388000877A0244C2ED007A02318C42A8D8D7F878
:10389000109060466208BB694946FD699847D8F8B0
:1038A0002C307A69D8ED0D6A1A441FED407A1FED6D
:1038B000406A131D9246DFF8C4C20022FB612B1D33
:1038C000AB4ED9E9008E4EE0F4EEC67AF1EE10FA76
:1038D000C0F2C580304645F822000EEB0100D0ED65
:1038E000007A66EEA77AF4EEC77AF1EE10FA49D9BB
:1038F000F4EEC67AF1EE10FAC0F2BF803046BBF1AA
:10390000020F43F822002AD0D9F808000844D0ED6D
:10391000007A66EEA77AF4EEC77AF1EE10FA35D99E
:10392000F4EEC67AF1EE10FAC0F2AE8030464AF8F4
:103930002200D9F80C000144D1ED007A66EEA77A96
:10394000F4EEC77AF1EE10FA1ED9F4EEC67AF1EE73
:1039500010FAC0F28B803146F86940F8221002322A
:1039600094427FF6CEAB510808EB81008900D0ED80
:10397000007A66EEA77AF4EEC77AF1EE10FAA3D8D1
:103980006046A8E76046BAE76146E5E76046CEE7ED
:10399000224649466046BB699847FFF7B2BBC7F865
:1039A00010B0002298ED0C6A331DDFED726AD7F873
:1039B0001CB0786956F8221007EE901A53F82210BE
:1039C000B8EEE77A07EE901A51080232F8EEE77A7D
:1039D00027EE267A0AEB810E94420BEB810167EE0B
:1039E000A67A27EE067A67EE867A8EED007AC1ED2A
:1039F000007ADFD88300D7F810B07B614DE61A4615
:103A0000C7F810B098ED0C6A331DDFED5B6AD7F88C
:103A10001CB0786936F9221007EE101A33F922101B
:103A200007EE901AB8EEC77A51080232F8EEE77A3C
:103A300027EE267A0AEB810E94420BEB810167EEAA
:103A4000A67A27EE067A67EE867A8EED007AC1EDC9
:103A5000007ADFD88300D7F810B07B6134E5F0EE50
:103A6000675AFEEEE45A15EE900A34E7F0EE675A14
:103A7000FEEEE45A15EE901A6EE7F0EE675AFEEE8F
:103A8000E45A15EE900A3AE7F0EE675AFEEEE45A71
:103A900015EE900A4BE767EEA57AFDEEE77A17EE92
:103AA000900A00B232E567EEA57AFDEEE77A17EEEE
:103AB000900A00B23FE5F0EE675AFEEEE05A15EECE
:103AC000901A4CE6F0EE675AFEEEE05A15EE900AB8
:103AD00030E6F0EE675AFEEEE05A15EE900AFDE58C
:103AE000F0EE675AFEEEE05A15EE900A0AE667EE2F
:103AF000A57AFDEEE77A17EE901A09B24AE567EE6D
:103B0000A57AFDEEE77A17EE900A00B22CE5F0EE0A
:103B1000675AFEEEE45A15EE902A1FE467EEA57A86
:103B2000FDEEE77A17EE902A12B2FFF731BBF0EE06
:103B3000675AFEEEE45A15EE902AFFF7FDBBF0EE51
:103B4000675AFEEEE05A15EE902AFFF79BBBF0EEA7
:103B5000675AFEEEE05A15EE902AFFF780BB67EE3B
:103B6000A57AFDEEE77A17EE902A12B2FFF724BB92
:103B700082FF7F0000000030000000387E0080FFE0
:103B800030B5184C154685B0046004F1080EEC46BB
:103B90000FC98EE80F00D4ED047AF5EEC07A8CE8F8
:103BA0000F00F1EE10FA1ADDB7EE006A94ED057A17
:103BB00027EE277AC6EE276A84ED0D7AC4ED0C6AEB
:103BC0006DB1204640F8185F01F0CEFE064903694A
:103BD0000020064A2162A262E36005B030BD0120E8
:103BE00005B030BD38120024002000300000003045
:103BF00000680830704700BFB1F5807F03680A464F
:103C000028BF4FF48072B1F5807F9A6094BF002086
:103C1000012070470068183001F006BF30B5046815
:103C200083B008480D46A368A26A216A9B000090F1
:103C300004F1180001F09AFE0020C4E9000503B069
:103C400030BD00BFC52F000810B4074B4FF07E51A8
:103C500030240022032019619C60D8605DF8044B79
:103C60005961C3E9062270473812002430B5044672
:103C700087B00025ADF81410ADF81020ADF80C3069
:103C800001F0A8FF2A462060059904F12C00257157
:103C90000123009500F0E0FA01232A46049904F17B
:103CA0004000009500F0D8FA9FED060A039904F150
:103CB000080000F005F94FF6FF73A565A4F854302D
:103CC00007B030BD00000000F8B5044601F082FFE7
:103CD000002623682671834205D104F10800BDE85F
:103CE000F84000F005B9012794F85450206004F121
:103CF0002C00BD40277100F095FB6DB2284394F86D
:103D00005550BD4084F8540004F1400000F08AFB97
:103D100094F854306DB2A66503F003032843022BD8
:103D2000C0B284F8550009D000F003000228D4D1B5
:103D3000002BD2D14FF0FF33A365CEE78307CCD160
:103D4000A765CAE7704700BFF8B5134F3C687F2CE2
:103D500007D98023114A42F224411C463B60A2F855
:103D60007E100F4D2B68012B0AD90C4E0D4D2246AB
:103D70003146284600F06EF90028F8D13860F8BDC9
:103D800022460649074800F065F90028F7D12B685C
:103D9000386001332B60F8BD7412002478120024BF
:103DA00070120024F812002430B4154C2168F1B1CF
:103DB0004B1E144DE81810F801298C4619460A2AA2
:103DC00001D00D2A02D14BB1013BF4E70CF1020303
:103DD0007F2B10D98023236030BC7047012202233F
:103DE00023600D200A236854AB5430BC7047012275
:103DF0000223044DF4E70CF101026146F0E700BF35
:103E0000741200247812002410B5094C02460B46A7
:103E1000084821680844C1F1800113F081FB236840
:103E200018442060FFF7C0FFFFF78EFF10BD00BFF2
:103E300074120024781200240FB400B583B004A9D2
:103E400051F8040B0191FFF7DFFF03B05DF804EBBD
:103E500004B0704710B5044600210A4800F074F819
:103E6000002C094B14BF0222002208481A60FFF7F9
:103E7000E3FF0748FFF7E0FF0A20BDE8104001F02C
:103E8000ABBE00BFF812002470120024E89A0108AB
:103E9000F89A0108064A0749074808B511F0C6FB19
:103EA000034A04490548BDE8084011F0BFBB00BF04
:103EB00000000024453D0008F8120024FC120024F4
:103EC00010B586B00446ADF80C10ADF8141001F032
:103ED00081FE4FF48071002220600123A18004F153
:103EE0000800A1830599009200F0B6F906B010BD54
:103EF00010B5044601F06EFE002122682171824255
:103F000000D110BD0346012204F108002360227194
:103F100000F088FA227F617F53005BB281B180F0AC
:103F2000010252B21343DBB27F2B2377E9D101F0B8
:103F300051FE07EE900AF8EE677AC4ED087A10BDDC
:103F400042B2EFE7704700BF012910B506D0022941
:103F500015D051B1BDE8104007F0D4B80A46344836
:103F600034490BF0F9FDE8B1FEE7334B0A46334C18
:103F7000334934481C600BF0EFFD68B1FEE70122C5
:103F80002C492B480BF0E8FD00B1FEE72E492848EC
:103F90000BF006FEC0B1FEE72B492A480BF000FEED
:103FA00060B1FEE7284922480BF0FAFD00B1FEE7B8
:103FB00026491F480BF070FD08B3FEE7244921484D
:103FC0000BF06AFDA8B1FEE7204919480BF064FD2B
:103FD00000B1FEE716480BF00BFE024640B9164B47
:103FE000164C174917481C600BF0B6FD68B1FEE788
:103FF000FEE714480BF0FCFD0028ABD0FEE70C48B0
:104000000BF0F6FD0028A5D0FEE70F490D480BF098
:10401000C7FD00B1FEE70E490A480BF03DFD00B1B7
:10402000FEE708480BF0E4FD002893D0FEE700BF50
:10403000DC150024A8000024B8180024453F00081F
:104040008C000024001300241001002468000024C8
:1040500054000024084691B208B502F0A1F80038D7
:1040600018BF012008BD00BF014806F0E1B800BF3D
:1040700098410024014806F0DBB800BF98410024B5
:10408000014806F0D5B800BF9841002484460FC906
:104090008CE80F009CF800300B2B30D09CF80120EE
:1040A0000F2A2CD8022900B591B041D0032902D0A3
:1040B000012900D000210C91DCF80810012902D060
:1040C000022918BF00210D91DCF80C10022904D040
:1040D000032902D0012918BF00210A2B0E910FD805
:1040E0005B4800EB8320CCF810000A2B17D8DFE8E0
:1040F00003F0A0928476685A4C3E30220900704743
:104100000020F0E7534BD3F8E01041F48061C3F88E
:10411000E010D3F8E03003F480630A930A9B012394
:104120000BA993400B9304F007F811B05DF804FB62
:1041300011210C91C0E7474BD3F8E01041F4007116
:10414000C3F8E010D3F8E03003F400730993099B3F
:10415000E5E7404BD3F8E01041F48071C3F8E0107C
:10416000D3F8E03003F480730893089BD7E7394B0A
:10417000D3F8E01041F08001C3F8E010D3F8E0304C
:1041800003F080030793079BC9E7324BD3F8E01095
:1041900041F04001C3F8E010D3F8E03003F04003F1
:1041A0000693069BBBE72B4BD3F8E01041F02001B0
:1041B000C3F8E010D3F8E03003F020030593059B2B
:1041C000ADE7244BD3F8E01041F01001C3F8E01044
:1041D000D3F8E03003F010030493049B9FE71D4BDA
:1041E000D3F8E01041F00801C3F8E010D3F8E03054
:1041F00003F008030393039B91E7164BD3F8E010F9
:1042000041F00401C3F8E010D3F8E03003F00403F8
:104210000293029B83E70F4BD3F8E01041F00201B9
:10422000C3F8E010D3F8E03003F002030193019BE0
:1042300075E7084BD3F8E01041F00101C3F8E01036
:10424000D3F8E03003F001030093009B67E700BF61
:10425000000002580044025810B592B0ADF80410A6
:104260000180C9B2149C0B29C460C0E901233FD06E
:1042700090F801C0BCF10F0F3AD8022A3FD0032AB0
:1042800002D0012A00D000220E92012B02D0022B74
:1042900018BF0023022C0F932CD0032C2AD0012C02
:1042A00028D000230A29109327D85C4A02EB8122E8
:1042B00002610A2914D8DFE801F0A39587796B5DC4
:1042C0004F4133250600564BD3F8E01041F480618E
:1042D000C3F8E010D3F8E03003F480630C930C9B38
:1042E00001230DA9104603FA0CF30D9303F024FFEC
:1042F00012B010BD0A291094D7D90022D8E7112294
:104300000E92C2E7464BD3F8E01041F40071C3F8B7
:10431000E010D3F8E03003F400730B930B9BDFE75E
:104320003F4BD3F8E01041F48071C3F8E010D3F8AC
:10433000E03003F480730A930A9BD1E7384BD3F83B
:10434000E01041F08001C3F8E010D3F8E03003F052
:1043500080030993099BC3E7314BD3F8E01041F088
:104360004001C3F8E010D3F8E03003F040030893B5
:10437000089BB5E72A4BD3F8E01041F02001C3F8C1
:10438000E010D3F8E03003F020030793079BA7E782
:10439000234BD3F8E01041F01001C3F8E010D3F83C
:1043A000E03003F010030693069B99E71C4BD3F80B
:1043B000E01041F00801C3F8E010D3F8E03003F05A
:1043C00008030593059B8BE7154BD3F8E01041F0EC
:1043D0000401C3F8E010D3F8E03003F004030493C1
:1043E000049B7DE70E4BD3F8E01041F00201C3F8C7
:1043F000E010D3F8E03003F002030393039B6FE770
:10440000074BD3F8E01041F00101C3F8E010D3F8F6
:10441000E03003F001030293029B61E700000258C1
:104420000044025808B5012143780069994089B2D7
:1044300004F084F8003818BF012008BD01230A46A3
:104440004178006903FA01F189B204F07DB800BF38
:1044500010B5002386B0122204460493CDE902234E
:104460000368022B1FDC002B01DB04230593237957
:104470000A2B1FD8114800EB83206279012301A980
:104480009340019303F058FEA3790A2B14D80B48EC
:1044900000EB8320E279012301A99340019303F00B
:1044A0004BFE06B010BD032BE1D106230593237903
:1044B0000A2BDFD90020E0E70020EBE700000258DC
:1044C000634A0368934210B58CB028D0614A934286
:1044D00058D0614A934200F09480604A934201D0E0
:1044E0000CB010BD5E4C5F48D4F8E03043F00203DE
:1044F000C4F8E030D4F8E03003F002030A930A9BDA
:10450000FFF7A6FFD4F8F43043F08003C4F8F4308A
:10451000D4F8F43003F080030B930B9BE0E7504C8E
:104520005148D4F8E03043F00203C4F8E030D4F846
:10453000E03003F002030193019BFFF789FFD4F8F9
:10454000E83000221F2043F400131146C4F8E8307D
:10455000D4F8E83003F400130293029BD4F8D83067
:1045600043F00103C4F8D830D4F8D83003F0010385
:104570000393039B02F08AFA1F200CB0BDE81040A1
:1045800002F0C2BA364C3948D4F8E03043F0800328
:10459000C4F8E030D4F8E03003F080030493049BC7
:1045A000D4F8E03043F00203C4F8E030D4F8E0304F
:1045B00003F002030593059BFFF74AFFD4F8E830A8
:1045C0000022212043F480031146C4F8E830D4F8D7
:1045D000E83003F480030693069BD4F8D83043F008
:1045E0000103C4F8D830D4F8D83003F0010307939E
:1045F000079B02F04BFA21200CB0BDE8104002F0FE
:1046000083BA1B48FFF724FF154B00224820D3F83C
:10461000E840114644F40004C3F8E840D3F8E84009
:1046200004F400040894089CD3F8D84044F0010432
:10463000C3F8D840D3F8D83003F001030993099B9D
:1046400002F024FA48200CB0BDE8104002F05CBA39
:104650000054004000580040005C0040001C00581E
:1046600000440258601B0024C0180024A019002434
:10467000801A00242DE9F0431A4B87B000254FF033
:1046800010099E46EC46184BFF22E04667461A701A
:104690000EF118060EF13004CDE90055CDE90255B2
:1046A000ADF80090BCE80F00CDE90455AEE80F006E
:1046B0009CE803000095ADF800908EE80300B8E890
:1046C0000F000FC69CE803000095ADF8009086E847
:1046D00003000FCF0FC49CE8030084E8030007B079
:1046E000BDE8F08304000024BD18002410B5EFF3EA
:1046F000108472B6084B1A78120602D504B962B655
:1047000010BD1878054B40B2C0EBC00003EB401061
:10471000143003F0BFF9F1E7BD180024C0180024DD
:10472000014805F073BC00BF4C190024014805F096
:104730006DBC00BF2C1A0024014805F067BC00BF07
:104740000C1B00242DE9F0430D6885B0404EC5EBED
:10475000C503032D4FEA431706EB4313036041DC07
:10476000CA680C46012A3DD84FEAC5084CD02068DB
:104770009C466168A8EB0509A2680DF1100EE3687C
:1047800006EB4919ACE80F00324B227C8CF8002074
:10479000D9F808C00FCB0EE90F000EEB8503BCF172
:1047A000010F53F8103CC9F88C3032D0BCF1020F25
:1047B00043D0BCF1000F36D0227C8C37A8EB050526
:1047C00000233744520006EB451601213846C6F84F
:1047D000AC30C6E92521C6E92733C6E9293304F000
:1047E00089FD18B1012005B0BDE8F08301463846C7
:1047F00005F018FC0028F5D10146384605F03CFCD0
:10480000003818BF0120EEE70A7C103A672AAED9BB
:10481000E8E701F089FB104B98420CBF0F4B104B9F
:10482000C9F89030C8E701F07FFB0B4B98420CBFF2
:104830000C4B0D4BC9F89030BEE701F075FB064BF1
:1048400098420CBF094B0A4BC9F89030B4E700BF3F
:10485000C0180024709A0108000E27072D0FB030F1
:104860003211D0205F4390608A62E030200BA010AC
:104870001A0980102DE9F041D0F8008082B00D4671
:1048800017461E4608F18C04204605F0C7FB202879
:10489000FAD1D8F80C3073B96D002046089C334625
:1048A0003A46A9B2009404F07BFD003818BF0120FD
:1048B00002B0BDE8F081089B32463946204605F03B
:1048C00013F8F2E72DE9F041D0F8008082B00D46F0
:1048D00017461E4608F18C04204605F09FFB202851
:1048E000FAD1D8F80C3073B96D002046089C3346D5
:1048F0003A46A9B2009404F011FF003818BF012015
:1049000002B0BDE8F081089B32463946204605F0EA
:1049100015F9F2E72DE9F047066884B00D46904698
:104920009A46BDF83490002706F18C04204605F025
:1049300075FB2028FAD1F3682BB1381E18BF01206F
:1049400004B0BDE8F08720460E9C690053464246FD
:1049500089B2CDE901940C9C009405F0F1F9074669
:10496000EBE700BF094B6FF0F41110225960C3F858
:10497000E4101A7483F8F020C3F8C41183F8D0212E
:10498000C3F8A41283F8B022704700BFC0180024F7
:1049900030B5002395B04FF48071062204460B9386
:1049A00006921393CDE90C13CDE90E33CDE9113303
:1049B00001F0BCFA07282BD004F1100541F288322F
:1049C00006A9284606F0CEFC28B10123184684F833
:1049D0005C3015B030BD0222022306A92846CDE97D
:1049E000002310220123CDE9022300224FF480038B
:1049F000CDE9042305224FF0807306926A460F9397
:104A000041F2883306F01AFE0028DED115B030BD21
:104A10000323012084F85C3015B030BD0000000095
:104A200070B50023A4B04FF080724FF48075044637
:104A3000ADF806300D93CDE910320122CDE90E53C9
:104A4000CDE91223CDE91433002943D0F02300F13E
:104A5000100508AEADF80630C02341F28832314669
:104A60002846089306F07EFC28B10123184684F8F6
:104A70005C3024B070BD41F288320DF10601284649
:104A800006F0DAFC03460028EFD105224FF48071CE
:104A90001E93284616924FF080721B9321931F920B
:104AA00002AA9FED1F7BCDE91C13CDE922338DEDCA
:104AB000027B9FED1D7B41F2883316A98DED047BAF
:104AC0009FED1B7B8DED067B06F0B8FD0028CCD159
:104AD00024B070BD00F1100508AE612341F28832A8
:104AE00031462846089306F03DFC0028BDD141F22E
:104AF00088320DF10601284606F01CFD0028B4D1CD
:104B0000BDF80630204623F0780343F04003ADF8AB
:104B10000630FFF73DFF00289ED0A6E7AFF30080E8
:104B20000000000001000000100000000100000073
:104B300000000000000040002DE9F04F00234FF47A
:104B4000807501264FF0807804462DED028BABB0C6
:104B50008DF8073013932193299314950E96CDF871
:104B60005C80CDE91533CDE91863CDE91A33CDE981
:104B70002253CDE92433CDE9273306231C9301F0DA
:104B8000D5F9072808D004F1100741F288321CA992
:104B9000384606F0E7FB40B10123184684F85C3044
:104BA0002BB0BDEC028BBDE8F08F4FF0020A4FF046
:104BB000020B4FF0050941F2883308AA1CA93846B8
:104BC000CDF89480CDF870909FED2F8BCDE908AB98
:104BD0004FF0000A4FF4800B8DED0A8BCDE90CAB42
:104BE00006F02CFD0028D7D141F2883238460EA9B4
:104BF00006F0B8FB0028CFD1402341F288320DF1F6
:104C0000070138468DF8073006F016FC0028C3D19E
:104C100041F288330EA902AA3846CDF83890CDF873
:104C20005C809FED1B7BCDE906AB8DED027B9FED9C
:104C30001A7B8DED047B06F001FD03460028ABD105
:104C4000CDF870904FF00109CDF894804FF0000836
:104C5000219308AA29931CA938462295CDE923332C
:104C6000CDE9273341F288338DED0A8BCDE90CABCA
:104C7000CDE9088906F0E2FC002891D0304684F89E
:104C80005C608DE7AFF300801000000001000000C1
:104C90004000000043000000008000000100000010
:104CA0002DE9F04F00234FF4807601254FF08078F6
:104CB00004462DED028BABB0CDE915331393219350
:104CC000299314960E95CDF85C80CDE91853CDE963
:104CD0001A33CDE92263CDE92433CDE92733062306
:104CE0001C9301F023F9072808D004F1100741F2C2
:104CF00088321CA9384606F035FB40B1012318461E
:104D000084F85C302BB0BDEC028BBDE8F08F4FF027
:104D1000020A4FF0020B4FF0050941F2883308AA4E
:104D20001CA93846CDF89480CDF870909FED308B5B
:104D3000CDE908AB4FF0000A4FF4800B8DED0A8BE4
:104D4000CDE90CAB06F07AFC0028D7D141F28832CD
:104D500038460EA906F006FB0028CFD1402341F2C9
:104D600088320DF1070138468DF8073006F064FBF4
:104D70000028C3D19DF8073008AA0C90FF200893A3
:104D80004FF400430EA90B95CDF83890CDF85C8018
:104D9000CDE909034FF4800338460D9341F288337F
:104DA00006F04CFC03460028A8D100222193299349
:104DB0001CA938462296CDF87090CDF89480CDE9A4
:104DC0002333CDE927330123CDE9022341F2883390
:104DD00002AA8DED048BCDE906AB06F02FFC00286E
:104DE00090D0284684F85C508CE700BFAFF3008079
:104DF000100000000100000070B50122AAB00446B6
:104E00000D465F48C02103F09FFB00265D4B0696D0
:104E10005B4895FAA5F5CDE90466D3F8E02042F0A9
:104E20002002C3F8E020C022D3F8E03003F02003D2
:104E300001930123019902A9CDE9022303F07CF932
:104E4000142001F0F9FD3246C0214D4803F07CFBEF
:104E5000142001F0F1FD0122C021494803F074FB48
:104E6000142001F0E9FD0123474AE6612261C4E90B
:104E70000533002D77D0B5FA85F1013900234FF4C1
:104E8000807604F11005C4E908162846C4E90B33FE
:104E900006F0FAF930B101231D4684F85C3028464B
:104EA0002AB070BD66231690179041F28832139095
:104EB0000EA91B900E93CDE91460CDE91900284688
:104EC00006F050FA0028E6D199230EA941F2883263
:104ED00028460E9306F046FA0028DCD1052301216E
:104EE000249008AA219027901C934FF08073CDE95D
:104EF0002260CDE928001020259341F28833CDE9C6
:104F00000A019FED1D7B00204FF48001CDE90C01CB
:104F10001CA928468DED087B06F090FB0028BAD12D
:104F20002046FFF7BDFE0028B5D1284606F008FA56
:104F300005460028AFD123790A2B18D963790121BE
:104F4000994003F033FAA3790A2B0ED80F4800EBEF
:104F500083200126E17906FA01F103F027FA26669B
:104F600084F864609BE71F2188E70020F1E7074889
:104F700000EB8320E2E700BF00000000010000001A
:104F80000014025800440258005000520000025819
:104F90002DE9F041684CA2B00D46046000F0C6FF58
:104FA00007284BD028682346AA68696807C3AA89DE
:104FB000184620F8042B267B677B06F0C1F90028F1
:104FC00034D1012E94F8643014BF4FF480154FF49F
:104FD00000052366002B39D0584B95FAA5F52361BF
:104FE0000123C4E905330023E361002D6ED0B5FA37
:104FF00085F1013900234FF480785148C4E908183D
:10500000C4E90B3306F040F980B966230B90139086
:1050100041F2883206A90693CDE90C80CDE90E0055
:10502000CDE91100464806F09DF9A0B101231D46C7
:1050300084F85C30284622B0BDE8F08101250323C6
:10504000284684F85C3022B0BDE8F081294620462D
:10505000FFF7D2FEC0E7992341F2883206A938480B
:10506000069306F07FF90028E0D105231C901990E3
:105070006A4614934FF08073219014A91D9341F256
:1050800088339FED277BCDE91A80CDE91F008DED98
:10509000007B9FED257B2A488DED027B9FED247BD5
:1050A0008DED047B06F0CAFA0028BFD131462248B4
:1050B000FFF7B6FC0028B9D11F48FFF73DFD0546B4
:1050C0000028B3D127B102232366B3E71F2191E75C
:1050D000EB2300260027189014934FF440631F9091
:1050E00006AA1B934FF40053209014A917934FF472
:1050F000404313481C93A023CDF8688016930623E1
:1051000019934FF0805321934FF04073CDE9066718
:105110001D9306F00BFB0028D5D087E7AFF3008086
:10512000000000000100000010000000010000006D
:105130000000000000004000401C0024005000520D
:10514000501C00245E4B02682DE9F0419A428CB05D
:105150004FF00004CDE90744CDE909440B9402D097
:105160000CB0BDE8F081574B574DD3F8D420574FC2
:1051700042F48042564EDFF85C81C3F8D420D3F865
:10518000D42002F480420092009ADA6F42F4804206
:10519000DA67DA6F22F48042DA67D3F8E02042F06F
:1051A0004002C3F8E020D3F8E02002F04002019270
:1051B000019AD3F8E02042F02002C3F8E020D3F8AF
:1051C000E02002F020020292029AD3F8E02042F09E
:1051D0001002C3F8E020D3F8E02002F0100203929E
:1051E000039AD3F8E02042F00202C3F8E020D3F89B
:1051F000E03003F002030493049B22E014F0FC026D
:1052000052D103F1200155F8211008780A2839D825
:1052100091F801C00121099207EB802201FA0CF1FB
:1052200007910221CDF81480089103210A910CA95D
:105230000B4413F81C3C07A9104601340B9302F0F1
:105240007BFF2A6EE3B2002AD8D0052B2CD803F1BD
:105250001A0255F822100A780A2A18D94978012228
:105260008A40022107920022CDE9081203210A9107
:105270000CA90B4496E803000590ADF8181013F83C
:105280001C3CD8E74878012109928140C8E748785A
:10529000012107EB82228140022007910021CDE904
:1052A000080103210A91E3E700225C20114601F086
:1052B000EDFB5C2001F028FC0CB0BDE8F08100BFE4
:1052C0000050005200440258401C002400000258C4
:1052D000089B01080A0A090A0268F8B5194B9A42A4
:1052E00000D0F8BD184A0024184F0125D2F8D43058
:1052F000174E23F48043C2F8D43011E014F0FC0FB1
:105300001BD157F821301A780020597801340A2A25
:1053100005FA01F198BF06EB822089B203F046F846
:10532000E3B23A6E03F12001002AE7D0052B03F126
:105330001A0202D857F82230E5E75C20BDE8F840B1
:1053400001F0F0BB0050005200440258401C002401
:1053500000000258014806F075BA00BF501C002436
:105360000E4B6FF0F4120021981C30B41C1D9D1DD3
:105370009A605D671C67C3E90022C3E9181103F155
:105380000A0203F1080130BCC3E91A30C3E91E1256
:10539000C3E92030C3E92212704700BF401C00243B
:1053A00038B5036871B9026A00F1280500F5AC74DC
:1053B000012A0CBF002140218BBB1D4B5722C0F896
:1053C00058310DE0426A00F1C00500F5E874012A89
:1053D0000CBF00214021EBB1164B5A22C0F8D0314E
:1053E00000232046C4E901214FF480524FF480612C
:1053F000636262614FF48042C4E903314FF4807309
:10540000C4E906234FF40033236201F0F1FC58B1E4
:10541000FFBEFEE7084B5822C0F8D031E0E7074B4B
:105420005922C0F85831DBE7C5E92044A56338BDEF
:105430001000024070000240280002405800024064
:105440002DE9F043C28889B081468388ADF80020F9
:105450000089B9F80A10B9F80C20ADF80230D9F873
:105460001830ADF80400ADF80610ADF80820002B98
:105470003FD0D9F81C70B7FA87F77F0901250223BE
:105480006C460DF10A06DFF870800695CDE904350B
:1054900099F8042020788242627818D0D9F8001058
:1054A000F9B1012902D1F8B10A2107910A2805FAB8
:1054B00002F203A994BF08EB80200020039202F0BF
:1054C0003BFE0234A642E3D109B0BDE8F08399F86F
:1054D00005109142E2D1002FF3D0D9F80010002935
:1054E000DFD106210791E1E7022A0CBF08210A213A
:1054F000DBE70127C2E700BF00000258534A0368F8
:10550000934230B505468BB055D02032934252D0ED
:105510004F4A934204D02032934201D00BB030BDA9
:105520004C4C4D48D4F8E03043F00103C4F8E0306F
:10553000D4F8E03003F001030593059BD4F8E03084
:1055400043F00803C4F8E030D4F8E03003F0080377
:105550000693069BD4F8E03043F04003C4F8E030F3
:10556000D4F8E03003F040030793079BD4F8F03001
:1055700043F40003C4F8F030D4F8F03003F400032F
:105580000893089BFFF75CFFD4F8D830296843F0F4
:1055900001032F4A3048C4F8D830891AD4F8D830DB
:1055A00018BF012103F001030993099B0BB0BDE86B
:1055B0003040FFF7F5BE274C2848D4F8E03043F0E0
:1055C0000103C4F8E030D4F8E03003F001030093A5
:1055D000009BD4F8E03043F01003C4F8E030D4F876
:1055E000E03003F010030193019BD4F8E03043F066
:1055F0004003C4F8E030D4F8E03003F040030293F5
:10560000029BD4F8F03043F48003C4F8F030D4F8AF
:10561000F03003F480030393039BFFF711FFD4F8EA
:10562000D830296843F00103084A0C48C4F8D83040
:10563000891AD4F8D83018BF012103F0010304936C
:10564000049B0BB0BDE83040FFF7AABE04580140F0
:10565000045C0140004402582C1F0024D01C00248C
:10566000014802F017BA00BF281E0024014802F0CA
:1056700011BA00BFA01E0024014802F00BBA00BFFF
:1056800084200024014802F005BA00BFFC20002459
:105690001A4A0368934210B40BD02032934208D0C8
:1056A000174A934216D02032934213D05DF8044B30
:1056B0007047144B0022D3F85442C3F85822002CF0
:1056C000F4D0D3F84802D3E9931223465DF8044B93
:1056D000520818470B4B0022D3F8B044C3F8B42447
:1056E000002CE3D0D3F8AC24D3F8A814D3F8A40446
:1056F000520823465DF8044B184700BF0458014088
:10570000045C0140D01C0024184A0368934210B482
:105710000BD02032934208D0154A934217D0203242
:10572000934214D05DF8044B7047124BD3E9942494
:105730005208C3F85822002CF4D0D3E99201234632
:1057400001EB820100EB82005DF8044B1847094B26
:10575000D3F8AC24D3F8B0445208C3F8B424002CD6
:10576000E0D0D3F8A814D3F8A404E8E70458014023
:10577000045C0140D01C00242DE9F0470C684FF474
:105780001776774F86B004FB06F6012C07EB060868
:10579000C0F8008000F39F8000230D468E46C4466B
:1057A000C8F85032C8E9923369A3D3E900236AA14B
:1057B000D1E90001CDE9022306AB03EB8403CDE977
:1057C000040153F810AC53F8089CBEE80F00ACE895
:1057D0000F00BEE80F00ACE80F009EE80300C8F819
:1057E00028A0C8F8C0908CE803002B69042B0CD8C3
:1057F000DFE803F078828C9603004FF41773594A60
:1058000003FB04739A64C3F8E020AA692B6A002A98
:1058100042D0002B4FF4177308BF022203FB04731E
:1058200018BF0322DA6201221A63EA696B6A002A4E
:105830003FD1191E4FF4177318BF012103FB0473E6
:10584000C3E931126969012943D0022947D10325EF
:1058500000214FF4177306F128002A46019103FB3B
:105860000473002438445C645C63DC65C3F8DC408A
:10587000C3F8CC40C3F8F440C3E90F44C3E915446E
:10588000C3E93544C3E93B44022308F0E1FB019935
:1058900000284FD0FFBEFEE7191E4FF4177318BF44
:1058A000012103FB0473C3E90B12EA696B6A002A46
:1058B000BFD0002B4FF417730CBF0222032203FB4F
:1058C0000473C3F8C4200122C3F8C8206969012900
:1058D000BBD10225BDE7012006B0BDE8F087002559
:1058E0002946B6E74FF417734FF4FA5203FB0473DB
:1058F0009A64C3F8E02088E74FF417734FF47A52A4
:1059000003FB04739A64C3F8E0207EE74FF4177337
:105910004FF4FA4203FB04739A64C3F8E02074E77F
:105920004FF417734BF6803203FB04739A64C3F889
:10593000E0206AE706F1C00002232A46384408F056
:1059400087FB0028C8D0FFBEFEE700BFAFF3008092
:1059500004580140045C014024580140245C01408B
:10596000D01C0024007701000068704770B50468FF
:1059700082B015460E46C4F85032C4E99212069A17
:10598000C4F85422A269012A26D0626A012A9AB276
:1059900011D0294604F1C000019208F013FC236ADB
:1059A000019A012B10D0294604F1280008F00AFCC6
:1059B000002002B070BD04F1C000019208F094FC18
:1059C000236A019A012BEED1314604F1280008F038
:1059D0008BFC002002B070BD226A012A9AB211D05D
:1059E000294604F12800019208F0ECFB636A019A51
:1059F000012B10D0294604F1C00008F0E3FB002081
:105A000002B070BD04F12800019208F06DFC636AD9
:105A1000019A012BEED1314604F1C00008F064FC7C
:105A2000002002B070BD00BF03681B69042B05D8BD
:105A3000044A02EB830393ED000A70479FED020ACC
:105A4000704700BF109B010800803B470368D3F8F4
:105A500058027047064B6FF0F4124FF60B71C3E912
:105A600001229981A3F86812C3E99822704700BF08
:105A7000D01C0024704700BF08B500F0CBFFBDE884
:105A8000084001F0CBB800BF064808B503680BB169
:105A900002F05EFD044803681BB1BDE8084004F055
:105AA000C7BB08BDB84D0024A8460024064808B569
:105AB00003680BB102F04CFD044803681BB1BDE85C
:105AC000084004F0B5BB08BDB84D0024A84600242A
:105AD000064808B503680BB102F03AFD04480368B4
