:020000040800F2
:1000000000000220A106000895060008A933000898
:1000100095060008950600089506000800000000F7
:10002000000000000000000000000000950600082D
:100030009506000800000000950600082D33000812
:100040009506000895060008950600089506000824
:100050009506000895060008950600089506000814
:10006000950600089506000895060008C1300008AE
:10007000CD30000895060008D9300008E5300008AA
:10008000B9FE0008512100089506000895060008F1
:1000900095060008950600089506000895060008D4
:1000A00095060008950600089506000895060008C4
:1000B00039F0000845F0000851F0000885210008DB
:1000C00095060008912100089506000881E80008BF
:1000D0008DE80008EDFC000819FD00084DFD000842
:1000E0009506000895060008000000009506000827
:1000F0009506000895060008950600089506000874
:1001000095060008950600085DF0000899E80008CB
:1001100081FD0008B5FD0008950600089506000859
:100120009506000895060008BDE80008F1E80008FB
:10013000EDFE0008950600089506000895060008E3
:1001400000000000000000000000000000000000AF
:10015000950600089506000895060008E9FD0008C8
:100160009D210008950600083D3300086133000812
:1001700095060008853300089506000895060008D6
:1001800095060008950600081DFE000851FE0008AF
:10019000A5E80008B1E800089506000895060008E3
:1001A00095060008950600089506000895060008C3
:1001B000B52D00089506000895060008950600086C
:1001C0009506000895060008CD1A0008D91A0008FF
:1001D00095060008E51A000895060008950600082F
:1001E0009506000895060008950600089506000883
:1001F0009506000895060008950600089506000873
:100200009506000895060008950600089506000862
:100210009506000895060008950600089506000852
:1002200095060008950600089506000800000000E5
:1002300095060008950600080000000095060008D5
:100240009506000895060008950600089506000822
:100250009506000895060008950600089506000812
:100260009506000895060008950600089506000802
:10027000950600089506000885FE000800000000AD
:100280009506000895060008950600080000000085
:080290000000000095060008C3
:1002A00010B5054C237833B9044B13B10448AFF3B0
:1002B00000800123237010BD780700240000000097
:1002C000EC5C010808B5034B1BB103490348AFF3CD
:1002D000008008BD000000007C070024EC5C0108E1
:1002E000034613F8012B002AFBD1181A0138704776
:1002F00001F0FF01102A2BDB10F0070F08D010F8D7
:10030000013B013A8B422DD010F0070F42B3F6D1DA
:10031000F0B441EA012141EA014122F007047FF0F3
:1003200000070023F0E80256083C85EA010586EA4A
:10033000010685FA47F5A3FA87F586FA47F6A5FA86
:1003400087F68EB9EED1F0BC01F0FF0102F0070292
:1003500032B110F8013B013A83EA010313B1F8D13D
:100360000020704701387047002D06BF354603381E
:10037000073815F0010F07D1013015F4807F02BF57
:10038000013015F4C03F0130F0BC0138704700BFA8
:1003900053B94AB9002908BF00281CBF4FF0FF31EC
:1003A0004FF0FF3000F074B9ADF1080C6DE904CEE8
:1003B00000F006F8DDF804E0DDE9022304B0704740
:1003C0002DE9F047089D04468E46002B4DD18A4208
:1003D000944669D9B2FA82F252B101FA02F3C2F13B
:1003E000200120FA01F10CFA02FC41EA030E9440CC
:1003F0004FEA1C48210CBEFBF8F61FFA8CF708FBED
:1004000016E341EA034306FB07F199420AD91CEBC4
:10041000030306F1FF3080F01F81994240F21C81F6
:10042000023E63445B1AA4B2B3FBF8F008FB10333E
:1004300044EA034400FB07F7A7420AD91CEB040473
:1004400000F1FF3380F00A81A74240F20781644443
:10045000023840EA0640E41B00261DB1D4400023C8
:10046000C5E900433146BDE8F0878B4209D9002D2C
:1004700000F0EF800026C5E9000130463146BDE8B6
:10048000F087B3FA83F6002E4AD18B4202D3824220
:1004900000F2F980841A61EB030301209E46002DCF
:1004A000E0D0C5E9004EDDE702B9FFDEB2FA82F224
:1004B000002A40F09280A1EB0C014FEA1C471FFA82
:1004C0008CFE0126200CB1FBF7F307FB131140EA69
:1004D00001410EFB03F0884208D91CEB010103F136
:1004E000FF3802D2884200F2CB804346091AA4B2F8
:1004F000B1FBF7F007FB101144EA01440EFB00FECC
:10050000A64508D91CEB040400F1FF3102D2A64530
:1005100000F2BB800846A4EB0E0440EA03409CE7CF
:10052000C6F12007B34022FA07FC4CEA030C20FA7C
:1005300007F401FA06F31C43F9404FEA1C4900FA9C
:1005400006F3B1FBF9F8200C1FFA8CFE09FB181119
:1005500040EA014108FB0EF0884202FA06F20BD98C
:100560001CEB010108F1FF3A80F08880884240F2DC
:100570008580A8F102086144091AA4B2B1FBF9F020
:1005800009FB101144EA014100FB0EFE8E4508D91B
:100590001CEB010100F1FF346CD28E456AD90238A0
:1005A000614440EA0840A0FB0294A1EB0E01A14285
:1005B000C846A64656D353D05DB1B3EB080261EBF3
:1005C0000E0101FA07F722FA06F3F1401F43C5E9CD
:1005D000007100263146BDE8F087C2F12003D84003
:1005E0000CFA02FC21FA03F3914001434FEA1C4745
:1005F0001FFA8CFEB3FBF7F007FB10360B0C43EA37
:10060000064300FB0EF69E4204FA02F408D91CEBE6
:10061000030300F1FF382FD29E422DD902386344E4
:100620009B1B89B2B3FBF7F607FB163341EA034184
:1006300006FB0EF38B4208D91CEB010106F1FF38D3
:1006400016D28B4214D9023E6144C91A46EA0046CA
:1006500038E72E46284605E70646E3E61846F8E65C
:100660004B45A9D2B9EB020864EB0C0E0138A3E7A5
:100670004646EAE7204694E74046D1E7D0467BE786
:10068000023B614432E7304609E76444023842E7FE
:10069000704700BF684620F007018D46FEE700BFA7
:1006A0000B480C4A904208B503D0121A0A4911F0BF
:1006B000B3FF0A480A4A904203D0121A002111F0EF
:1006C000D3FF03F0D5F811F073FF00F095F8FEE7C3
:1006D0000000002478070024245D01087807002426
:1006E00030660024704700BF704700BF2DE9F0431B
:1006F000002385B000F118064FF00A0804464FF0B9
:100700005E090D468DF80D30CDF80080012390F87C
:100710002C101746304603AA8DF80C9001F0DCFD32
:10072000CDF800800DF10B0294F8303094F82C10C5
:10073000002818BF43F00103304684F8303001230D
:1007400001F0F2FD94F83030002818BF43F00103A7
:1007500084F83030A5F17303072B01D94D4517D12B
:100760000A2303AA30468DF80C50009302238DF81B
:100770000D7094F82C1001F0AFFD94F83030002883
:1007800018BF43F0010384F8303005B0BDE8F083B2
:10079000022303AACDF80080304694F82C1001F013
:1007A0009BFDCDF8008094F8303003AA94F82C100B
:1007B000002818BF43F0010330468DF80C5084F830
:1007C000303002238DF80D7001F086FDCDF80080E9
:1007D000054694F8301003AA9DF80B303046002DE2
:1007E00018BF41F001018DF80C908DF80D300223F7
:1007F00084F83010BDE700BF2DE98048CA4895B0A5
:1008000000F0FCFBC94C0021C74800F0BFFC0120F0
:1008100001F094F80EAE0DF110084FF00009B64645
:100820003546C2460FCC0FC694E80300C04C46F8CC
:10083000040BA4463180A34604F11C074126BEE800
:100840000F00ACE80F009EE803004CF8040BACF876
:1008500000108446BBE80F00A8E80F004FF010031B
:10086000C8F800C004908DF83430BDF818300990F5
:10087000ADF82830BDF81A3005910B91ADF82A304B
:10088000CDF83090BAE80F000FC709A987F800C06B
:1008900004F1180001F088FC94F8303080216322C4
:1008A000484518BF43F00103204684F83030FFF775
:1008B0001DFF012002F0E8FD4A465E212046FFF7B9
:1008C00015FF94F814B094F815A00A274FF000090A
:1008D0004FF05E0894F82C10012309AA0097954860
:1008E0008DF825908DF8248001F0F6FC94F83020E6
:1008F00001230097484518BF42F0010294F82C10DC
:100900008C4884F8302004AA01F00EFD94F83020C1
:1009100002230097484518BF42F0010294F82C10BA
:10092000844884F8302009AA01F0D6FC94F83020DD
:1009300002230097484518BF42F0010294F82C109A
:100940007C4884F8302009AA8DF824608DF825B001
:1009500001F0C2FC94F8301009AA9DF81030484507
:1009600018BF41F0010100978DF82530022384F86B
:100970003010704894F82C108DF8248001F0ACFCF5
:1009800094F8302001230097484518BF42F0010237
:1009900094F82C10674884F8302009AA8DF8259027
:1009A0008DF8248001F098FC94F830200123009702
:1009B000484518BF42F0010294F82C105D4884F8B5
:1009C000302004AA01F0B0FC94F8302002230097F4
:1009D000484518BF42F0010294F82C10554884F89D
:1009E000302009AA01F078FC94F83010731C0097AD
:1009F000484518BF41F0010109AA8DF824300223AF
:100A000084F83010023694F82C104A48F6B28DF86B
:100A100025A001F061FC94F83020022300979DF896
:100A2000101048450CBF174642F0010709AA41487B
:100A30008DF8251084F8307094F82C108DF82480EF
:100A400001F04AFC94F83030484518BF43F00103E8
:100A5000592E84F830307FF438AF01222B213448EE
:100A6000FFF744FE01222C213148FFF73FFE0E2202
:100A70002D212F48FFF73AFE4A462E212C48FFF73A
:100A800035FE01222F212A48FFF730FE05223021B2
:100A90002748FFF72BFE012231212548FFF726FECC
:100AA0004A4632212248FFF721FE4A463321204898
:100AB000FFF71CFE4A4634211D48FFF717FE4A4641
:100AC00035211B48FFF712FE4A465B211848FFF705
:100AD0000DFE10225C211648FFF708FE20225D2142
:100AE0001348FFF703FE8C2241461148FFF7FEFD35
:100AF00094F8306016B3104884F8309000F010FF7E
:100B00000121094800F080FA4FF4FA71064800F01C
:100B100077FA0021044800F077FA4FF4FA7102489E
:100B200000F06EFAECE700BF500B0024C80B002465
:100B300094070024AC070024C8550108A24800F01F
:100B4000EFFE3146A148A24F00F0DEF9DFF8B08297
:100B5000DFF8B0B27FE0D80700F1B1809BF8003039
:100B6000002B00F0B8809B480A2600F0D9FE012334
:100B700094F82C101E2298484FF002090095CDE9F8
:100B8000013601F0F9FB94F830C094F82C100123E1
:100B9000002818BF4CF0010C042200958E489DF8E7
:100BA00038A0CDE9019684F830C001F0E5FB94F857
:100BB00030208446BDF838108848BCF1000F18BFBB
:100BC00042F00102C1EB8A0184F8302000F0A8FE57
:100BD000012394F82C101E227F480095CDE90136A0
:100BE00001F0CAFB94F830C094F82C1001230028BF
:100BF00018BF4CF0010C042200957748CDE901960E
:100C000084F830C09DF8386001F0B6FBBDF838209C
:100C1000014694F83030C2EB86026C48002918BFB8
:100C200043F0010300EE102A84F83030B8EEC00A19
:100C300000F080F9B7EEC07A694853EC172B00F04A
:100C40006FFE644800F06CFE3B8864216548A8F89C
:100C5000003000F0D5F94FF00A0C022694F82C1061
:100C6000012300225C480095CDE9016C01F084FB72
:100C700094F83030BDF83820002818BF43F0010345
:100C8000C2F30B01D60784F830303980B8F8003051
:100C90007FF561AFD9073FF561AF534800F040FEE3
:100CA000524800F03DFE01223B888BF80020DA0715
:100CB0003FF559AFB8F80030DB077FF554AF4C482B
:100CC00000F02EFE484800F02BFE4A4800F028FEB7
:100CD00000238BF8003047480A2600F021FE4548E3
:100CE00000F01EFE012394F82C101E2200954FF0F8
:100CF00002093948CDE9013601F03EFB94F830C0D5
:100D000094F82C100123002818BF4CF0010C00951A
:100D1000042231489DF838A0CDE9019684F830C00E
:100D200001F02AFB94F830208446BDF83810324890
:100D3000BCF1000F18BF42F00102C1EB8A0184F838
:100D4000302000F0EDFD012394F82C101E220095B8
:100D50002148CDE9013601F00FFB94F830C094F83A
:100D60002C100123002818BF4CF0010C0095042220
:100D70001948CDE9019684F830C09DF8386001F03B
:100D8000FBFABDF83820014694F83030C2EB8602F9
:100D90000E48002918BF43F0010300EE102A84F822
:100DA0003030B8EEC00A00F0C5F8B7EEC07A13488C
:100DB00053EC172B00F0B4FD0E4800F0B1FD0D48C8
:100DC00000F0AEFD40E700BFE8550108CC07002465
:100DD000C80700245C560108AC07002460560108CF
:100DE00084560108500B0024F85501084C560108A0
:100DF000B0560108C0560108C4560108E45601085F
:100E0000C40B0024E00B002410B521480024214B22
:100E10000121214A59609982416041611C6004604E
:100E20008461C0E9074101F1106101F584319960E5
:100E3000816041625A2119610161C162174911F053
:100E40009BFB17484FF60B736FF0F411046044617D
:100E5000046244660467104AC1608365C0E90A34CD
:100E6000C0E90F34C0E90C44C0E91144C0E917449B
:100E70000C4CC0E901110C4911F07EFB204600F03A
:100E800017F82046044A0949BDE8104011F074BB28
:100E900094070024C80B002400000024E906000881
:100EA000500B0024CC070024E5060008050F0008BD
:100EB00038B5134D044600F5E27CAE46BEE80F009F
:100EC000ACE80F00BEE80F00ACE80F00BEE80F0072
:100ED000ACE80F009EE80F008CE80F0005F1400120
:100EE000802204F5017011F097FB4FF4807205F138
:100EF000C00104F5217011F08FFB204638BD00BF02
:100F0000C4530108704700BF0129017003D00229B2
:100F10000AD029B1704780220021443011F0A4BBCF
:100F20004022043011F0A0BB4FF480720021C43085
:100F300011F09ABB0378012B10B504462DED028BFE
:100F4000B0EE408A07D0022B3AD0FBB19FED2A0ABF
:100F5000BDEC028B10BD00F148037C2200F144017E
:100F6000184611F067FB04F1C40203469FED220A04
:100F700084ED118A01E0B3EC018AD3ED6F7A9A42D5
:100F8000A7EE880AF7D1BDEC028B10BD00F1080373
:100F90003C22011D184611F04DFB04F144020346AA
:100FA0009FED150A84ED018A01E0B3EC018AD3EDCF
:100FB0006F7A9A42A7EE880AF7D1BDEC028B10BD7A
:100FC00000F1C803FC2200F1C401184611F032FB05
:100FD00004F5E27203469FED080A84ED318A01E0D0
:100FE000B3EC018AD3ED6F7A9A42A7EE880AF7D163
:100FF000BDEC028B10BD00BF00000000704700BFB9
:10100000084602F041BA00BF283000F049BF00BFD7
:1010100010B540F203338EB000244FF60B7240F24D
:101020000341ADF8083009A80123ADF81020ADF850
:1010300024202246ADF80C100094029907940C94D9
:10104000CDE90544CDE90A4400F038FE04A80123A7
:1010500022460399009400F031FE09A800F014FF25
:1010600010B901200EB010BD04A800F00DFFA04281
:101070000CBF022020460EB010BD00BF2DE9F0418C
:1010800003239AB04FF0010800254FF60B74074672
:10109000CDE91438394BADF84C40CDE91053A3F1EC
:1010A0009F63A3F57D43CDE916581293FFF7B0FF78
:1010B0004045064623D0022842D040F60132304B4C
:1010C00007F158000BACADF82C200B991895CDF812
:1010D0006480CDF84A3000F0DBF810A907F1700009
:1010E00002F006F8274B0FCB84E80F003A6F214639
:1010F00007F1140000F048FB1AB0BDE8F08110239E
:101100001F4A06A906908DF828300BAC1E4BCDF86F
:101110004A2007930295CDE91805CDE9080502A8F4
:1011200001F042F80823029A03A92046ADF80C60AA
:101130008DF80E50049605930B9500F0E9F8CCE776
:1011400040F60133ADF82C4000200BACADF8183060
:1011500001210B4B42460095CDF84A302B460E95A7
:10116000CDE9180106992046CDE90C5500F0A6FD01
:101170002946204600F094FEAFE700BF04020404B5
:1011800004060403845501080704010B2DE9F04708
:1011900004462DED028B82B0002949D0012140F296
:1011A000011200230091ADF804208DF80630354A75
:1011B0000127354B04F10409344904F13C0862600D
:1011C00040F20272A36040F60663E16004F1280A6F
:1011D0002285A3872782E762276402F0FFFA05468B
:1011E00002F054F96946064650BB4DB304F1500075
:1011F0008DF8067002F074FA072D3ED104F1140543
:101200002046FFF73BFF284600F0FAFA2846B0EEEA
:10121000408A00F0F1FAD0ED007AF8EE677A88EEB5
:10122000277A84ED1B7A02B0BDEC028BBDE8F08713
:1012300040F2011300918DF80610ADF80430B6E7C6
:1012400004F1500002F04CFA072D13D04946204615
:1012500001F0CEFB0EB9002DD0D15146504600F022
:1012600047FC4046414600F043FC04F1120000F008
:1012700079F9C3E7002EF0D1C0E74946204601F0D6
:10128000B7FBBBE70508050905070506050A0606BD
:1012900030B585B0002504460122ADF80C102B4670
:1012A0000399009500F00AFD0121204600F0F8FDA9
:1012B000012002F0E9F82946204600F0F1FD012066
:1012C00002F0E2F80121204605B0BDE8304000F010
:1012D000E7BD00BF10B5C2F3002384B00C46017C0B
:1012E0008DF80D2043EA4402FA2402238DF80C20E5
:1012F00003AA009400F0F0FF18B10124204604B0C6
:1013000010BD04460A2002F0BFF8204604B010BD0C
:10131000034670B543F8042B044684B007C983E83C
:101320000700A37983B91A210B461E22FA252374DC
:101330002046ADF80C20022303AA009500F0CCFF54
:1013400028B1012004B070BD1B210B46EDE70A2037
:1013500002F09AF84FF4B85200950223ADF80C2031
:10136000204603AA217C00F0B7FF0028E9D10A201B
:1013700002F08AF841F2027200950223ADF80C20C7
:10138000204603AA217C00F0A7FF0028D9D10A201B
:1013900002F07AF8042200950223ADF80C202046D2
:1013A00003AA217C00F098FF0028CAD10A2002F08D
:1013B0006BF8062200950223ADF80C20204603AA04
:1013C000217C00F089FF0028BBD10A2002F05CF8E4
:1013D00041F2082200950223ADF80C20204603AA12
:1013E000217C00F079FF0028ABD10A20064602F0EC
:1013F0004BF80095022303AA217C2046ADF80C602F
:1014000000F06AFF00289CD1304602F03DF80095BC
:1014100022790C232046002A8DF80C3003AA4FF0C5
:10142000020314BF622142218DF80D10217C00F0CF
:1014300053FF002885D1304602F026F82279D4E9FE
:1014400002310B43DBB20AB943F0400362790AB1BF
:1014500043F020030E22FA258DF80D30204600952A
:1014600002238DF80C2003AA217C00F035FF002810
:101470007FF467AF0A2002F007F8102200950223DC
:10148000ADF80C20204603AA217C00F025FF00289F
:101490007FF457AF0A2001F0F7FF122100950223D5
:1014A000ADF80C1003AA217C204600F015FF00289F
:1014B0007FF447AF0A2001F0E7FF0122092120460F
:1014C000FFF708FF003818BF01203BE7F0B51023F5
:1014D00087B0234C012200250126002702A92046BF
:1014E0000195CDE902234FF48052CDE904670AF05B
:1014F000EBFA642002F0F8FE02A94FF48052204675
:10150000CDE9046702261027CDE902670AF0DCFA6C
:101510000322102302A92046CDE90223002304223E
:10152000CDE904234FF480520AF0CEFA40F2322380
:10153000042202A9019310232046CDE90223019A37
:10154000012305924FF4805204930AF0BDFA40F64D
:10155000060120460AF0D8FA284607B0F0BD00BFC1
:10156000EC0B00241C4B00221C494FF0400C30B502
:10157000054689B00220596007219A601A62012449
:10158000DA620A224FF4006EDC6006922022CDE976
:10159000000104200821CDE9020103201021CDE93A
:1015A000040108206946C3E904024FF4C072181D03
:1015B000C3E906C24FF48052C3E909E20AF05AFABD
:1015C00038B92846FFF782FF003818BF012009B05C
:1015D00030BD204609B030BDE80B00244041005228
:1015E000614A0021D0B513688EB00A91002B40F0FB
:1015F000B9805E4B01214FF683700C2411600221EB
:10160000D3F8D4200026032742F48052C3F8D42014
:10161000D3F8D42002F480520092009AD3F8E0204C
:1016200042F01002C3F8E020D3F8E02002F01002EC
:101630000192019AD3F8E02042F04002C3F8E02082
:10164000D3F8E02002F040020292029AD3F8E020A0
:1016500042F00802C3F8E020D3F8E02002F00802CC
:101660000392039AD3F8E02042F48072C3F8E0209A
:10167000D3F8E02002F480720492049AD3F8E020B8
:1016800042F08002C3F8E020D3F8E02002F08002AC
:101690000592059AD3F8E02042F02002C3F8E0203A
:1016A000D3F8E02002F020020692069AD3F8E02058
:1016B00042F00402C3F8E020D3F8E0300C9403F0C9
:1016C000040307930323079A0B93CDE9080108A9A4
:1016D000274804F089F948F23712022308A925485F
:1016E0000C94CDE90823CDE90A6704F07DF94CF2AA
:1016F0000372022308A920480C94CDE90823CDE900
:101700000A6704F071F940F2FF62022308A91B483E
:101710000C94CDE90823CDE90A6704F065F94FF68A
:101720000C72022308A916480C94CDE90823CDE9D0
:101730000A6704F059F94FF63F02022308A911483D
:101740000C94CDE90823CDE90A6704F04DF9202275
:10175000022308A90A480C94CDE90A67CDE90823B9
:1017600004F042F90EB0D0BDE40B0024004402584E
:101770000010025800180258000C025800200258AD
:10178000001C02580014025830B5184C154685B09C
:10179000046004F1080EEC460FC98EE80F00D4ED8A
:1017A000047AF5EEC07A8CE80F00F1EE10FA1ADD3B
:1017B000B7EE006A94ED057A27EE277AC6EE276A1F
:1017C00084ED0D7AC4ED0C6A6DB1204640F8185FC7
:1017D00001F086FD064903690020064A2162A262E3
:1017E000E36005B030BD012005B030BD200C002401
:1017F000002000300000003000680830704700BF53
:101800000068183001F06EBD10B4074B4FF07E51E8
:1018100030240022032019619C60D8605DF8044BDD
:101820005961C3E906227047200C0024704700BFAD
:10183000F8B5134F3C687F2C07D98023114A42F238
:1018400024411C463B60A2F87E100F4D2B68012BF3
:101850000AD90C4E0D4D22463146284600F02CF98F
:101860000028F8D13860F8BD22460649074800F044
:1018700023F90028F7D12B68386001332B60F8BDBD
:101880005C0C0024600C0024580C0024E00C0024A4
:1018900030B4154C2168F1B14B1E144DE81810F806
:1018A00001298C4619460A2A01D00D2A02D14BB1D2
:1018B000013BF4E70CF102037F2B10D98023236056
:1018C00030BC70470122022323600D200A23685494
:1018D000AB5430BC704701220223044DF4E70CF1F5
:1018E00001026146F0E700BF5C0C0024600C00249C
:1018F00010B5094C02460B46084821680844C1F15E
:10190000800111F01DFC236818442060FFF7C0FF20
:10191000FFF78EFF10BD00BF5C0C0024600C00249C
:101920000FB400B583B004A951F8040B0191FFF77F
:10193000DFFF03B05DF804EB04B0704710B5044658
:1019400000210A4800F032F8002C094B14BF022293
:10195000002208481A60FFF7E3FF0748FFF7E0FF9F
:101960000A20BDE8104001F08FBD00BFE00C00244C
:10197000580C00241057010820570108064A07494F
:10198000074808B510F0F8FD034A04490548BDE8CA
:10199000084010F0F1BD00BF000000242D18000821
:1019A000E00C0024E40C0024704700BF012910B5AE
:1019B00006D0022915D051B1BDE8104006F0FABF9B
:1019C0000A46344834490BF079FBE8B1FEE7334B63
:1019D0000A46334C334934481C600BF06FFB68B146
:1019E000FEE701222C492B480BF068FB00B1FEE713
:1019F0002E4928480BF086FBC0B1FEE72B492A4848
:101A00000BF080FB60B1FEE7284922480BF07AFB1F
:101A100000B1FEE726491F480BF0F0FA08B3FEE7D5
:101A2000244921480BF0EAFAA8B1FEE720491948F9
:101A30000BF0E4FA00B1FEE716480BF08BFB024610
:101A400040B9164B164C174917481C600BF036FB73
:101A500068B1FEE7FEE714480BF07CFB0028ABD032
:101A6000FEE70C480BF076FB0028A5D0FEE70F49F7
:101A70000D480BF047FB00B1FEE70E490A480BF09A
:101A8000BDFA00B1FEE708480BF064FB002893D0D4
:101A9000FEE700BFC40F0024A8000024A012002409
:101AA000A91900088C000024E80C0024100100246F
:101AB0006800002454000024084691B208B501F0E3
:101AC000C7FF003818BF012008BD00BF014806F05D
:101AD00007B800BF803B0024014806F001B800BFF2
:101AE000803B0024014805F0FBBF00BF803B002481
:101AF00084460FC98CE80F009CF800300B2B30D0C7
:101B00009CF801200F2A2CD8022900B591B041D0B1
:101B1000032902D0012900D000210C91DCF8081023
:101B2000012902D0022918BF00210D91DCF80C1008
:101B3000022904D0032902D0012918BF00210A2B51
:101B40000E910FD85B4800EB8320CCF810000A2BD5
:101B500017D8DFE803F0A0928476685A4C3E302212
:101B6000090070470020F0E7534BD3F8E01041F430
:101B70008061C3F8E010D3F8E03003F480630A9387
:101B80000A9B01230BA993400B9303F02DFF11B087
:101B90005DF804FB11210C91C0E7474BD3F8E0102E
:101BA00041F40071C3F8E010D3F8E03003F400739F
:101BB0000993099BE5E7404BD3F8E01041F48071AD
:101BC000C3F8E010D3F8E03003F480730893089B67
:101BD000D7E7394BD3F8E01041F08001C3F8E010AB
:101BE000D3F8E03003F080030793079BC9E7324B3B
:101BF000D3F8E01041F04001C3F8E010D3F8E03032
:101C000003F040030693069BBBE72B4BD3F8E01091
:101C100041F02001C3F8E010D3F8E03003F02003D6
:101C20000593059BADE7244BD3F8E01041F010017C
:101C3000C3F8E010D3F8E03003F010030493049BE2
:101C40009FE71D4BD3F8E01041F00801C3F8E01006
:101C5000D3F8E03003F008030393039B91E7164B9E
:101C6000D3F8E01041F00401C3F8E010D3F8E030FD
:101C700003F004030293029B83E70F4BD3F8E010B9
:101C800041F00201C3F8E010D3F8E03003F00203A2
:101C90000193019B75E7084BD3F8E01041F0010177
:101CA000C3F8E010D3F8E03003F001030093009B89
:101CB00067E700BF000002580044025810B592B018
:101CC000ADF804100180C9B2149C0B29C460C0E9AE
:101CD00001233FD090F801C0BCF10F0F3AD8022A7F
:101CE0003FD0032A02D0012A00D000220E92012BFD
:101CF00002D0022B18BF0023022C0F932CD0032CF0
:101D00002AD0012C28D000230A29109327D85C4A16
:101D100002EB812202610A2914D8DFE801F0A395C1
:101D200087796B5D4F4133250600564BD3F8E010A1
:101D300041F48061C3F8E010D3F8E03003F480632D
:101D40000C930C9B01230DA9104603FA0CF30D9381
:101D500003F04AFE12B010BD0A291094D7D9002210
:101D6000D8E711220E92C2E7464BD3F8E01041F4B7
:101D70000071C3F8E010D3F8E03003F400730B9364
:101D80000B9BDFE73F4BD3F8E01041F48071C3F8C1
:101D9000E010D3F8E03003F480730A930A9BD1E794
:101DA000384BD3F8E01041F08001C3F8E010D3F8CD
:101DB000E03003F080030993099BC3E7314BD3F86C
:101DC000E01041F04001C3F8E010D3F8E03003F038
:101DD00040030893089BB5E72A4BD3F8E01041F085
:101DE0002001C3F8E010D3F8E03003F0200307939C
:101DF000079BA7E7234BD3F8E01041F01001C3F88D
:101E0000E010D3F8E03003F010030693069B99E747
:101E10001C4BD3F8E01041F00801C3F8E010D3F8F0
:101E2000E03003F008030593059B8BE7154BD3F8CF
:101E3000E01041F00401C3F8E010D3F8E03003F003
:101E400004030493049B7DE70E4BD3F8E01041F0AC
:101E50000201C3F8E010D3F8E03003F0020303936B
:101E6000039B6FE7074BD3F8E01041F00101C3F883
:101E7000E010D3F8E03003F001030293029B61E726
:101E8000000002580044025808B501214378006957
:101E9000994089B203F0AAFF003818BF012008BD9D
:101EA00001230A464178006903FA01F189B203F07F
:101EB000A3BF00BF10B5002386B0122204460493CE
:101EC000CDE902230368022B1FDC002B01DB042376
:101ED000059323790A2B1FD8114800EB83206279E0
:101EE000012301A99340019303F07EFDA3790A2BFE
:101EF00014D80B4800EB8320E279012301A9934019
:101F0000019303F071FD06B010BD032BE1D1062350
:101F1000059323790A2BDFD90020E0E70020EBE7C7
:101F200000000258634A0368934210B58CB028D071
:101F3000614A934258D0614A934200F09480604ACB
:101F4000934201D00CB010BD5E4C5F48D4F8E03035
:101F500043F00203C4F8E030D4F8E03003F00203A9
:101F60000A930A9BFFF7A6FFD4F8F43043F08003EE
:101F7000C4F8F430D4F8F43003F080030B930B9BD7
:101F8000E0E7504C5148D4F8E03043F00203C4F885
:101F9000E030D4F8E03003F002030193019BFFF737
:101FA00089FFD4F8E83000221F2043F400131146C3
:101FB000C4F8E830D4F8E83003F400130293029B2D
:101FC000D4F8D83043F00103C4F8D830D4F8D8306E
:101FD00003F001030393039B02F0B0F91F200CB040
:101FE000BDE8104002F0E8B9364C3948D4F8E0308A
:101FF00043F08003C4F8E030D4F8E03003F080030D
:102000000493049BD4F8E03043F00203C4F8E030BA
:10201000D4F8E03003F002030593059BFFF74AFF75
:10202000D4F8E8300022212043F480031146C4F89C
:10203000E830D4F8E83003F480030693069BD4F824
:10204000D83043F00103C4F8D830D4F8D83003F0C6
:1020500001030793079B02F071F921200CB0BDE842
:10206000104002F0A9B91B48FFF724FF154B0022CE
:102070004820D3F8E840114644F40004C3F8E8408F
:10208000D3F8E84004F400040894089CD3F8D8403E
:1020900044F00104C3F8D840D3F8D83003F001036A
:1020A0000993099B02F04AF948200CB0BDE81040A2
:1020B00002F082B90054004000580040005C00402B
:1020C000001C00580044025848150024A81200249F
:1020D00088130024681400242DE9F0431A4B87B0BC
:1020E00000254FF010099E46EC46184BFF22E046B3
:1020F00067461A700EF118060EF13004CDE900554E
:10210000CDE90255ADF80090BCE80F00CDE90455CB
:10211000AEE80F009CE803000095ADF800908EE853
:102120000300B8E80F000FC69CE803000095ADF867
:10213000009086E803000FCF0FC49CE8030084E8FA
:10214000030007B0BDE8F08304000024A5120024BA
:1021500010B5EFF3108472B6084B1A78120602D548
:1021600004B962B610BD1878054B40B2C0EBC00090
:1021700003EB4010143003F0E5F8F1E7A51200245A
:10218000A8120024014805F099BB00BF34130024B5
:10219000014805F093BB00BF14140024014805F06A
:1021A0008DBB00BFF41400242DE9F0430D6885B009
:1021B000404EC5EBC503032D4FEA431706EB43130F
:1021C000036041DCCA680C46012A3DD84FEAC508C5
:1021D0004CD020689C466168A8EB0509A2680DF107
:1021E000100EE36806EB4919ACE80F00324B227C75
:1021F0008CF80020D9F808C00FCB0EE90F000EEBC9
:102200008503BCF1010F53F8103CC9F88C3032D073
:10221000BCF1020F43D0BCF1000F36D0227C8C37CA
:10222000A8EB050500233744520006EB45160121B3
:102230003846C6F8AC30C6E92521C6E92733C6E9D9
:10224000293304F0AFFC18B1012005B0BDE8F083DC
:102250000146384605F03EFB0028F5D101463846D8
:1022600005F062FB003818BF0120EEE70A7C103A47
:10227000672AAED9E8E701F0AFFA104B98420CBFDD
:102280000F4B104BC9F89030C8E701F0A5FA0B4B83
:1022900098420CBF0C4B0D4BC9F89030BEE701F0D3
:1022A0009BFA064B98420CBF094B0A4BC9F8903079
:1022B000B4E700BFA812002494550108000E2707B8
:1022C0002D0FB0303211D0205F4390608A62E03031
:1022D000200BA0101A0980102DE9F041D0F80080E1
:1022E00082B00D4617461E4608F18C04204605F0C4
:1022F000EDFA2028FAD1D8F80C3073B96D002046D9
:10230000089C33463A46A9B2009404F0A1FC003878
:1023100018BF012002B0BDE8F081089B3246394663
:10232000204604F039FFF2E72DE9F041D0F80080B3
:1023300082B00D4617461E4608F18C04204605F073
:10234000C5FA2028FAD1D8F80C3073B96D002046B0
:10235000089C33463A46A9B2009404F037FE003890
:1023600018BF012002B0BDE8F081089B3246394613
:10237000204605F03BF8F2E72DE9F047066884B007
:102380000D4690469A46BDF83490002706F18C041D
:10239000204605F09BFA2028FAD1F3682BB1381EAD
:1023A00018BF012004B0BDE8F08720460E9C6900EC
:1023B0005346424689B2CDE901940C9C009405F045
:1023C00017F90746EBE700BF094B6FF0F411102235
:1023D0005960C3F8E4101A7483F8F020C3F8C411EC
:1023E00083F8D021C3F8A41283F8B022704700BF4D
:1023F000A812002430B5002395B04FF48071062256
:1024000004460B9306921393CDE90C13CDE90E33DA
:10241000CDE9113301F0E2F907282BD004F11005C2
:1024200041F2883206A9284606F0F4FB28B10123C0
:10243000184684F85C3015B030BD0222022306A98C
:102440002846CDE9002310220123CDE902230022F2
:102450004FF48003CDE9042305224FF080730692E8
:102460006A460F9341F2883306F040FD0028DED122
:1024700015B030BD0323012084F85C3015B030BDA9
:1024800070B50023A4B04FF080724FF480750446FD
:10249000ADF806300D93CDE910320122CDE90E538F
:1024A000CDE91223CDE91433002943D0F02300F104
:1024B000100508AEADF80630C02341F2883231462F
:1024C0002846089306F0A6FB28B10123184684F895
:1024D0005C3024B070BD41F288320DF1060128460F
:1024E00006F002FC03460028EFD105224FF480716C
:1024F0001E93284616924FF080721B9321931F92D1
:1025000002AA9FED1F7BCDE91C13CDE922338DED8F
:10251000027B9FED1D7B41F2883316A98DED047B74
:102520009FED1B7B8DED067B06F0E0FC0028CCD1F7
:1025300024B070BD00F1100508AE612341F288326D
:1025400031462846089306F065FB0028BDD141F2CC
:1025500088320DF10601284606F044FC0028B4D16B
:10256000BDF80630204623F0780343F04003ADF871
:102570000630FFF73FFF00289ED0A6E7AFF30080AC
:102580000000000001000000100000000100000039
:1025900000000000000040002DE9F04F00234FF440
:1025A000807501264FF0807804462DED028BABB08C
:1025B0008DF8073013932193299314950E96CDF837
:1025C0005C80CDE91533CDE91863CDE91A33CDE947
:1025D0002253CDE92433CDE9273306231C9301F0A0
:1025E000FDF8072808D004F1100741F288321CA931
:1025F000384606F00FFB40B10123184684F85C30E2
:102600002BB0BDEC028BBDE8F08F4FF0020A4FF00B
:10261000020B4FF0050941F2883308AA1CA938467D
:10262000CDF89480CDF870909FED2F8BCDE908AB5D
:102630004FF0000A4FF4800B8DED0A8BCDE90CAB07
:1026400006F054FC0028D7D141F2883238460EA952
:1026500006F0E0FA0028CFD1402341F288320DF194
:10266000070138468DF8073006F03EFB0028C3D13D
:1026700041F288330EA902AA3846CDF83890CDF839
:102680005C809FED1B7BCDE906AB8DED027B9FED62
:102690001A7B8DED047B06F029FC03460028ABD1A4
:1026A000CDF870904FF00109CDF894804FF00008FC
:1026B000219308AA29931CA938462295CDE92333F2
:1026C000CDE9273341F288338DED0A8BCDE90CAB90
:1026D000CDE9088906F00AFC002891D0304684F83C
:1026E0005C608DE7AFF30080100000000100000087
:1026F00040000000430000000080000001000000D6
:102700002DE9F04F00234FF4807601254FF08078BB
:1027100004462DED028BABB0CDE915331393219315
:10272000299314960E95CDF85C80CDE91853CDE928
:102730001A33CDE92263CDE92433CDE927330623CB
:102740001C9301F04BF8072808D004F1100741F260
:1027500088321CA9384606F05DFA40B101231846BC
:1027600084F85C302BB0BDEC028BBDE8F08F4FF0ED
:10277000020A4FF0020B4FF0050941F2883308AA14
:102780001CA93846CDF89480CDF870909FED308B21
:10279000CDE908AB4FF0000A4FF4800B8DED0A8BAA
:1027A000CDE90CAB06F0A2FB0028D7D141F288326C
:1027B00038460EA906F02EFA0028CFD1402341F268
:1027C00088320DF1070138468DF8073006F08CFA93
:1027D0000028C3D19DF8073008AA0C90FF20089369
:1027E0004FF400430EA90B95CDF83890CDF85C80DE
:1027F000CDE909034FF4800338460D9341F2883345
:1028000006F074FB03460028A8D1002221932993E7
:102810001CA938462296CDF87090CDF89480CDE969
:102820002333CDE927330123CDE9022341F2883355
:1028300002AA8DED048BCDE906AB06F057FB00280C
:1028400090D0284684F85C508CE700BFAFF300803E
:10285000100000000100000070B50122AAB004467B
:102860000D465F48C02103F0C7FA00265D4B06966F
:102870005B4895FAA5F5CDE90466D3F8E02042F06F
:102880002002C3F8E020C022D3F8E03003F0200398
:1028900001930123019902A9CDE9022303F0A4F8D1
:1028A000142001F021FD3246C0214D4803F0A4FA66
:1028B000142001F019FD0122C021494803F09CFABF
:1028C000142001F011FD0123474AE6612261C4E9A9
:1028D0000533002D77D0B5FA85F1013900234FF487
:1028E000807604F11005C4E908162846C4E90B33C4
:1028F00006F022F930B101231D4684F85C302846E9
:102900002AB070BD66231690179041F2883213905A
:102910000EA91B900E93CDE91460CDE9190028464D
:1029200006F078F90028E6D199230EA941F2883201
:1029300028460E9306F06EF90028DCD1052301210C
:10294000249008AA219027901C934FF08073CDE922
:102950002260CDE928001020259341F28833CDE98B
:102960000A019FED1D7B00204FF48001CDE90C0191
:102970001CA928468DED087B06F0B8FA0028BAD1CC
:102980002046FFF7BDFE0028B5D1284606F030F9F5
:1029900005460028AFD123790A2B18D96379012184
:1029A000994003F05BF9A3790A2B0ED80F4800EB8E
:1029B00083200126E17906FA01F103F04FF926663A
:1029C00084F864609BE71F2188E70020F1E707484F
:1029D00000EB8320E2E700BF0000000001000000E0
:1029E00000140258004402580050005200000258DF
:1029F0002DE9F041684CA2B00D46046000F0EEFEF7
:102A000007284BD028682346AA68696807C3AA89A3
:102A1000184620F8042B267B677B06F0E9F800288F
:102A200034D1012E94F8643014BF4FF480154FF464
:102A300000052366002B39D0584B95FAA5F5236184
:102A40000123C4E905330023E361002D6ED0B5FAFC
:102A500085F1013900234FF480785148C4E9081802
:102A6000C4E90B3306F068F880B966230B90139025
:102A700041F2883206A90693CDE90C80CDE90E001B
:102A8000CDE91100464806F0C5F8A0B101231D4666
:102A900084F85C30284622B0BDE8F081012503238C
:102AA000284684F85C3022B0BDE8F08129462046F3
:102AB000FFF7D2FEC0E7992341F2883206A93848D1
:102AC000069306F0A7F80028E0D105231C90199082
:102AD0006A4614934FF08073219014A91D9341F21C
:102AE00088339FED277BCDE91A80CDE91F008DED5E
:102AF000007B9FED257B2A488DED027B9FED247B9B
:102B00008DED047B06F0F2F90028BFD13146224852
:102B1000FFF7B6FC0028B9D11F48FFF73DFD054679
:102B20000028B3D127B102232366B3E71F2191E721
:102B3000EB2300260027189014934FF440631F9056
:102B400006AA1B934FF40053209014A917934FF437
:102B5000404313481C93A023CDF8688016930623A6
:102B600019934FF0805321934FF04073CDE90667DE
:102B70001D9306F033FA0028D5D087E7AFF3008025
:102B80000000000001000000100000000100000033
:102B900000000000000040002816002400500052F1
:102BA000381600245E4B02682DE9F0419A428CB041
:102BB0004FF00004CDE90744CDE909440B9402D05D
:102BC0000CB0BDE8F081574B574DD3F8D420574F88
:102BD00042F48042564EDFF85C81C3F8D420D3F82B
:102BE000D42002F480420092009ADA6F42F48042CC
:102BF000DA67DA6F22F48042DA67D3F8E02042F035
:102C00004002C3F8E020D3F8E02002F04002019235
:102C1000019AD3F8E02042F02002C3F8E020D3F874
:102C2000E02002F020020292029AD3F8E02042F063
:102C30001002C3F8E020D3F8E02002F01002039263
:102C4000039AD3F8E02042F00202C3F8E020D3F860
:102C5000E03003F002030493049B22E014F0FC0232
:102C600052D103F1200155F8211008780A2839D8EB
:102C700091F801C00121099207EB802201FA0CF1C1
:102C800007910221CDF81480089103210A910CA923
:102C90000B4413F81C3C07A9104601340B9302F0B7
:102CA000A3FE2A6EE3B2002AD8D0052B2CD803F15C
:102CB0001A0255F822100A780A2A18D949780122EE
:102CC0008A40022107920022CDE9081203210A91CD
:102CD0000CA90B4496E803000590ADF8181013F802
:102CE0001C3CD8E74878012109928140C8E7487820
:102CF000012107EB82228140022007910021CDE9CA
:102D0000080103210A91E3E700225C20114601F04B
:102D100015FB5C2001F050FB0CB0BDE8F08100BF5A
:102D200000500052004402582816002400000258A7
:102D3000305701080A0A090A0268F8B5194B9A4285
:102D400000D0F8BD184A0024184F0125D2F8D4301D
:102D5000174E23F48043C2F8D43011E014F0FC0F76
:102D60001BD157F821301A780020597801340A2AEB
:102D700005FA01F198BF06EB822089B202F06EFFDE
:102D8000E3B23A6E03F12001002AE7D0052B03F1EC
:102D90001A0202D857F82230E5E75C20BDE8F84077
:102DA00001F018BB005000520044025828160024BD
:102DB00000000258014806F09DB900BF38160024F3
:102DC0000E4B6FF0F4120021981C30B41C1D9D1D99
:102DD0009A605D671C67C3E90022C3E9181103F11B
:102DE0000A0203F1080130BCC3E91A30C3E91E121C
:102DF000C3E92030C3E92212704700BF281600241F
:102E000038B5036871B9026A00F1280500F5AC74A1
:102E1000012A0CBF002140218BBB1D4B5722C0F85B
:102E200058310DE0426A00F1C00500F5E874012A4E
:102E30000CBF00214021EBB1164B5A22C0F8D03113
:102E400000232046C4E901214FF480524FF48061F1
:102E5000636262614FF48042C4E903314FF48073CE
:102E6000C4E906234FF40033236201F019FC58B182
:102E7000FFBEFEE7084B5822C0F8D031E0E7074B11
:102E80005922C0F85831DBE7C5E92044A56338BDB5
:102E9000100002407000024028000240580002402A
:102EA0002DE9F043C28889B081468388ADF80020BF
:102EB0000089B9F80A10B9F80C20ADF80230D9F839
:102EC0001830ADF80400ADF80610ADF80820002B5E
:102ED0003FD0D9F81C70B7FA87F77F090125022384
:102EE0006C460DF10A06DFF870800695CDE90435D1
:102EF00099F8042020788242627818D0D9F800101E
:102F0000F9B1012902D1F8B10A2107910A2805FA7D
:102F100002F203A994BF08EB80200020039202F084
:102F200063FD0234A642E3D109B0BDE8F08399F80D
:102F300005109142E2D1002FF3D0D9F800100029FA
:102F4000DFD106210791E1E7022A0CBF08210A21FF
:102F5000DBE70127C2E700BF00000258534A0368BD
:102F6000934230B505468BB055D02032934252D0B3
:102F70004F4A934204D02032934201D00BB030BD6F
:102F80004C4C4D48D4F8E03043F00103C4F8E03035
:102F9000D4F8E03003F001030593059BD4F8E0304A
:102FA00043F00803C4F8E030D4F8E03003F008033D
:102FB0000693069BD4F8E03043F04003C4F8E030B9
:102FC000D4F8E03003F040030793079BD4F8F030C7
:102FD00043F40003C4F8F030D4F8F03003F40003F5
:102FE0000893089BFFF75CFFD4F8D830296843F0BA
:102FF00001032F4A3048C4F8D830891AD4F8D830A1
:1030000018BF012103F001030993099B0BB0BDE830
:103010003040FFF7F5BE274C2848D4F8E03043F0A5
:103020000103C4F8E030D4F8E03003F0010300936A
:10303000009BD4F8E03043F01003C4F8E030D4F83B
:10304000E03003F010030193019BD4F8E03043F02B
:103050004003C4F8E030D4F8E03003F040030293BA
:10306000029BD4F8F03043F48003C4F8F030D4F875
:10307000F03003F480030393039BFFF711FFD4F8B0
:10308000D830296843F00103084A0C48C4F8D83006
:10309000891AD4F8D83018BF012103F00103049332
:1030A000049B0BB0BDE83040FFF7AABE04580140B6
:1030B000045C01400044025814190024B81600248E
:1030C000014802F03FB900BF10180024014802F087
:1030D00039B900BF88180024014802F033B900BF95
:1030E0006C1A0024014802F02DB900BFE41A002434
:1030F0002DE9F0470C684FF41776774F86B004FB44
:1031000006F6012C07EB0608C0F8008000F39F804C
:1031100000230D468E46C446C8F85032C8E99233A3
:1031200069A3D3E900236AA1D1E90001CDE9022313
:1031300006AB03EB8403CDE9040153F810AC53F85C
:10314000089CBEE80F00ACE80F00BEE80F00ACE83A
:103150000F009EE80300C8F828A0C8F8C0908CE8CB
:1031600003002B69042B0CD8DFE803F078828C96DF
:1031700003004FF41773594A03FB04739A64C3F8AE
:10318000E020AA692B6A002A42D0002B4FF4177363
:1031900008BF022203FB047318BF0322DA62012274
:1031A0001A63EA696B6A002A3FD1191E4FF417733C
:1031B00018BF012103FB0473C3E9311269690129B6
:1031C00043D0022947D1032500214FF4177306F19C
:1031D00028002A46019103FB0473002438445C64F0
:1031E0005C63DC65C3F8DC40C3F8CC40C3F8F44052
:1031F000C3E90F44C3E91544C3E93544C3E93B447B
:10320000022308F07DFB019900284FD0FFBEFEE7A6
:10321000191E4FF4177318BF012103FB0473C3E990
:103220000B12EA696B6A002ABFD0002B4FF41773A8
:103230000CBF0222032203FB0473C3F8C420012243
:10324000C3F8C82069690129BBD10225BDE7012067
:1032500006B0BDE8F08700252946B6E74FF417739E
:103260004FF4FA5203FB04739A64C3F8E02088E732
:103270004FF417734FF47A5203FB04739A64C3F844
:10328000E0207EE74FF417734FF4FA4203FB047318
:103290009A64C3F8E02074E74FF417734BF680325A
:1032A00003FB04739A64C3F8E0206AE706F1C000E8
:1032B00002232A46384408F023FB0028C8D0FFBE6A
:1032C000FEE700BFAFF3008004580140045C0140FA
:1032D00024580140245C0140B81600240077010006
:1032E0000068704703681B69042B05D8044A02EB89
:1032F000830393ED000A70479FED020A704700BFF9
:103300003857010800803B47064B6FF0F4124FF628
:103310000B71C3E901229981A3F86812C3E99822CD
:10332000704700BFB8160024704700BF08B500F012
:10333000C9FFBDE8084001F0C9B800BF064808B59C
:1033400003680BB102F05CFD044803681BB1BDE8E3
:10335000084004F0C5BB08BDA047002490400024ED
:10336000064808B503680BB102F04AFD044803683B
:103370001BB1BDE8084004F0B3BB08BDA047002462
:1033800090400024064808B503680BB102F038FDF0
:10339000044803681BB1BDE8084004F0A1BB08BDA8
:1033A000A047002490400024364BDA6A520062D5D0
:1033B0009A6A9A6A9A6A9B6A180600D500BE314BCF
:1033C0009B6A990600D500BE2E4B9B6ADA0600D593
:1033D00000BE2C4B9B6A1B0700D500BE294B9B6A85
:1033E000980700D500BE274B9B6AD90700D500BEC1
:1033F000244B9B6A1A0400D500BE224B9B6A9B0497
:1034000000D500BE1F4B9B6AD80400D500BE1D4BE3
:103410009B6A190500D500BE1A4B9B6A5A0500D558
:1034200000BE184B9B6A9B0500D500BE154B9B6ADE
:10343000D80500D500BE134B9B6A990100D500BE8C
:10344000104B9B6ADA0100D500BE0E4B9B6A1B0332
:1034500000D500BE0B4B9B6A580300D500BE094B3C
:103460009B6A990300D500BE064B9B6ADA0306D41B
:1034700000BE00BEFEE7DB6A9B07FAD5F8E700BE98
:10348000F6E700BF00ED00E000F02EBF0A4B9B689E
:1034900003F17843B3F5003F0BD3084B986848B16C
:1034A0009868012806D09868022803D09B680320FA
:1034B00070470120704700BF00ED00E00000803839
:1034C0002DE9F041CEB004464C2200210AA80FF0AD
:1034D000CBF82022002102A80FF0C6F8C02200215C
:1034E0001EA80FF0C1F8022005F040FA2368012B56
:1034F0004FF0000354D0584A02250193C820D16AE6
:10350000564B21F00101D162D26A02F00102019210
:103510009A6942F440429A619B6903F440430193E3
:10352000019B4E4A93699B04FCD54D49022400221D
:1035300001268B6A04274FF0080823F00303234376
:103540008B62052316900AA818934FF480331096C7
:10355000179419941597CDF86880CDE91B22212284
:10356000CDE91344CDE90A2305F064FF00B1FEE77D
:103570003F220323294602A8CDE902230022082383
:10358000CDE9042340224023CDE9062340234FF414
:103590008062CDE9082306F0E7FA0346B8B1FEE7FA
:1035A0002E4A04250093F02091692B4B41F44041B1
:1035B0009161926902F440420092DA6A42F001029B
:1035C000DA62DB6A03F001030093009BA9E7202283
:1035D00026932E9380212C924FF48052319306250E
:1035E0003F931EA8279236924FF4803225914FF4D4
:1035F0004011329247920022289580254091102157
:10360000CDF888802B9720962A91CDE92F3440F26F
:10361000271329934FF480632D930023CDE923468C
:10362000CDE93C234FF480740C234494022421936D
:1036300007A3D3E90023CDE93445CDE91E2306F0E5
:103640007FFD00B1FEE705F0B5F94EB0BDE8F081B1
:103650000F130F0300000000000400580048025838
:103660000044025870B584B0012400F0DDFE4FF430
:1036700080764FF04052194B68460025ADF8004067
:103680000396CDE9012300F0EDFE19224FF04043EF
:1036900068468DF8082001938DF80F40ADF80D6055
:1036A0008DF801408DF80A5000F0DCFE02230B2259
:1036B00068468DF80F508DF801304FF062538DF849
:1036C00008200193ADF80D408DF80A4000F0CAFEC5
:1036D000042000F0B7FE04B070BD00BF0E0001036F
:1036E00030B50D46044685B0D1E9000184E80300F9
:1036F00000F0B8FDAB79002B63D00CF0CBFDFEF7EA
:10370000EBFC0BF07DF80CF069FA2B795BB3304CD5
:10371000636913F4803326D1C4F88430BFF34F8F2C
:10372000D4F8801043F6E07EC1F34E3CC1F3C901EA
:103730004FEA4C1C0CEA0E000B4640EA8372013B38
:10374000C4F860225A1CF8D1ACF1200C1CF1200FF7
:10375000F0D1BFF34F8F636943F480336361BFF3EC
:103760004F8FBFF36F8F6B79B3B1194A536913F45D
:10377000003311D1BFF34F8FBFF36F8FC2F85032B8
:10378000BFF34F8FBFF36F8F536943F4003353611F
:10379000BFF34F8FBFF36F8F4FF0FF320023002432
:1037A000002569460B4802928DF80C30CDE90045A2
:1037B0000BF05AFC07480BF0BFFC0AF0BDF905B04E
:1037C00030BD2046FFF77CFE2046FFF74BFF94E715
:1037D00000ED00E0701B002406F02EBB1C4B9B6824
:1037E00003F17842B2F5003F25D3B3F5803F20D3F3
:1037F00003F16042B2F5003F1FD303F15C42B2F522
:10380000002F1CD303F17042B2F5902F19D303F1AE
:103810004842B2F5803F16D303F18042B2F1806F87
:1038200013D303F1E043B3F5000F2CBF08200720AA
:103830007047012070470020704702207047032026
:10384000704704207047052070470620704700BF6E
:1038500000ED00E003480023034A044903600EF032
:103860008BBE00BF701B0024000000242933000819
:1038700010B4204C0022204B83B0D4F888101F488D
:1038800041F47001C4F8881019681D4C41F0010121
:1038900019601A61196808401A4918609A61DA615A
:1038A0001A629A62DA621A635A639A63DA631A6472
:1038B0005A64186820F4802018601A66D3F8DC2057
:1038C00042F06042C3F8DC20D3F8DC300193019B66
:1038D00023681940B1F1005F03D20B4B0122C3F8FA
:1038E0000821044B4FF000629A6003B05DF8044B6E
:1038F000704700BF00ED00E0004402587FEDF6EA9B
:103900000010005C0000FFFF00800051704700BF06
:103910000020704770B50446074E0D4630462146DC
:1039200009F086FB304609F0ABFB044B20462946E4
:103930001B689847002070BDE80C0024743B0024ED
:1039400070B50446074E0D463046214609F070FB1F
:10395000304609F095FB044B204629461B689847E2
:10396000002070BDC40F0024783B002400220949C8
:10397000094808B509F04EFB0849074809F058FB0B
:10398000074B1A680AB1002008BD064A00201A60D9
:1039900008BD00BF742B0024E80C0024741B002415
:1039A000743B00240D39000800220949094808B574
:1039B00009F030FB0849074809F03AFB074B1A6841
:1039C0000AB1002008BD064A00201A6008BD00BFE9
:1039D00074330024C40F002474230024783B002493
:1039E0000D39000820280AD0212806D1094B186873
:1039F0009A889B7908608A808B7100207047054BFC
:103A00000868B1F804C08A7918600020A3F804C0DF
:103A10009A7170477C00002420280AD0212806D102
:103A2000094B18689A889B7908608A808B710020FE
:103A30007047054B0868B1F804C08A791860002007
:103A4000A3F804C09A7170478400002400207047D6
:103A500010B5094CD4F8BC32D3F814320BB10120A4
:103A600010BD0A460146204609F0D4FA2046BDE8BA
:103A7000104009F0E9BA00BFE80C00244B4A036883
:103A800030B593428BB04FF00004CDE90444CDE94A
:103A90000644089404D0464A934249D00BB030BD46
:103AA000444D4FF4C0524448D5F8E03043F0010390
:103AB000C5F8E030D5F8E03003F0010300930223AD
:103AC000009904A9CDE904230A23089301F08CFF8F
:103AD0004FF40072002304A937480694CDE904236B
:103AE00001F082FFD5F8D8302246214643F000632A
:103AF0006220C5F8D830D5F8D83003F000630193C0
:103B0000019B00F01BFC622000F056FC224621467F
:103B1000632000F013FC632000F04EFC2246214697
:103B2000652000F00BFC652000F046FC0BB030BDBA
:103B3000204D4FF4404204A9D5F8E03043F0020391
:103B4000C5F8E030D5F8E03003F002030293022319
:103B500002981A48CDE904230C23089301F044FF8E
:103B6000D5F8D830224621464A2043F00073C5F8E4
:103B7000D830D5F8D83003F000730393039B00F0DE
:103B8000DDFB4A2000F018FC224621464B2000F0C5
:103B9000D5FB4B2000F010FC224621464D2000F0C2
:103BA000CDFB4D2000F008FC0BB030BD00000840FC
:103BB000000004400044025800000258000402586B
:103BC00000F2C441D0F8080509F0D8BA01EBC103EE
:103BD00000EB8303D0F80805D3F8882209F0FEBA79
:103BE00001EBC10300EB8303D0F808059A6C09F0E0
:103BF0002FBB00BFD0F8080509F0D8BB016910B58C
:103C0000044619B1022900D0FEE70121D4F80805C5
:103C100009F0ACFBD4F80805BDE8104009F078BB0A
:103C200010B50446D0F8080509F0A4FB2268D2F8C4
:103C3000003E43F00103C2F8003E236A23B1034A69
:103C4000136943F00603136110BD00BF00ED00E0EF
:103C5000D0F8080509F09EBBD0F8080509F0CCBBE8
:103C6000D0F8080509F0B2BBD0F8080509F0DABBB6
:103C7000D0F8080509F0D8BB70B5067804461EB127
:103C8000012E30D0002070BD304D0923304AC5F8D8
:103C90000805C0F8C8522846EE602E63C5E9002327
:103CA000022302222B610023C5E906230022002300
:103CB000C5E9082301220123C5E90A2303F060FEB8
:103CC00000B1FEE78021284604F030FE3146402254
:103CD000284604F001FE80220121284604F0FCFD64
:103CE0002678012ECED11B4D09221B4B00216A6084
:103CF00002222B600223C5F8084528462B610023C9
:103D0000C4F8C852E960C5E9062300220023C5E9CA
:103D10000823C5E90C2301220023C5E90A2303F087
:103D20002FFE044600B1FEE74FF40071284604F070
:103D3000FDFD21468022284604F0CEFD4FF4BA72E4
:103D40003146284604F0C8FD9CE700BF803B0024B4
:103D5000000008409040002400000440D0F8C80251
:103D600008B503F09BFE032802D8024B185C08BD7F
:103D7000032008BD5C5701089446D0F8C8021A46D3
:103D800008B5634604F066FC032802D8024B185CB1
:103D900008BD032008BD00BF5C570108D0F8C80269
:103DA00008B504F095FC032802D8024B185C08BD46
:103DB000032008BD5C570108D0F8C80208B504F01C
:103DC0000BFD032802D8024B185C08BD032008BD78
:103DD0005C570108D0F8C80208B504F041FD03287B
:103DE00002D8024B185C08BD032008BD5C570108CF
:103DF0000A06D0F8C83206D401EBC10103EB8101F9
:103E000091F87E02704701F07F0101EBC10103EBE5
:103E1000810191F83E007047D0F8C80208B504F05F
:103E200003FC032802D8024B185C08BD032008BD20
:103E30005C570108D0F8C80208B504F0ABFC0328B1
:103E400002D8024B185C08BD032008BD5C5701086E
:103E5000D0F8C80208B504F071FC032802D8024B60
:103E6000185C08BD032008BD5C570108D0F8C802E3
:103E700004F086BC122301480B807047D800002450
:103E8000122301480B807047C4000024042301481A
:103E90000B807047EC00002410B5044C0A4604481F
:103EA000214609F091FD204610BD00BF9C4500242D
:103EB0006057010810B5044C0A460448214609F031
:103EC00083FD204610BD00BF9C45002470570108AB
:103ED00010B5044C0A460448214609F075FD2046F9
:103EE00010BD00BF9C4500248457010810B5044C48
:103EF0000A460448214609F067FD204610BD00BF70
:103F00009C4500249057010810B5044C0A4604480B
:103F1000214609F059FD204610BD00BF9C450024F4
:103F2000A0570108042301480B807047EC000024CF
:103F300010B5044C0A460448214609F045FD2046C8
:103F400010BD00BF9C45002460570108464A4FF051
:103F50001A0CD2F80008D2F80838A1F800C0C3182B
:103F600001D142487047180FB3F1204FD2F804181E
:103F70004FF0000C3D4A2CBF3730303082F803C080
:103F80004FF0000C9070C3F3036082F805C04FF04F
:103F9000000C092882F807C04FF0000C8CBF3730A6
:103FA000303082F809C04FF0000C1071C3F3035099
:103FB00082F80BC04FF0000C092882F80DC08CBFAE
:103FC000373030309071C3F3034009288CBF37304D
:103FD00030301072C3F3033009288CBF37303030D3
:103FE0009072C3F3032009288CBF37303030107330
:103FF000C3F3031003F00F0309288CBF37303030B0
:10400000092B90734FF0000094BF30333733B1F178
:10401000204FD07313744FEA11734FF000002CBF80
:1040200037333033507400209374C1F30363D0747A
:104030000020092B50754FF000008CBF3733303310
:10404000D0751375C1F303530848092B8CBF373360
:1040500030339375C1F30343092B94BF30333733A7
:10406000137600235376704700E0F11FF000002420
:10407000464A4FF01A0CD2F80008D2F80838A1F8D6
:1040800000C0C31801D142487047180FB3F1204F48
:10409000D2F804184FF0000C3D4A2CBF37303030B6
:1040A00082F803C04FF0000C9070C3F3036082F8F5
:1040B00005C04FF0000C092882F807C04FF0000C33
:1040C0008CBF3730303082F809C04FF0000C1071CF
:1040D000C3F3035082F80BC04FF0000C092882F89C
:1040E0000DC08CBF373030309071C3F303400928C6
:1040F0008CBF373030301072C3F3033009288CBFC7
:10410000373030309072C3F3032009288CBF37302A
:1041100030301073C3F3031003F00F0309288CBF72
:1041200037303030092B90734FF0000094BF30339C
:104130003733B1F1204FD07313744FEA11734FF03E
:1041400000002CBF37333033507400209374C1F318
:104150000363D0740020092B50754FF000008CBF12
:1041600037333033D0751375C1F303530848092B27
:104170008CBF373330339375C1F30343092B94BF9E
:1041800030333733137600235376704700E0F11F46
:10419000F000002410B5044C0A460448214609F0FA
:1041A00013FC204610BD00BF9C4500249057010819
:1041B00010B5044C0A460448214609F005FC204687
:1041C00010BD00BF9C45002484570108D0F80003AF
:1041D00009F06CBCD0F8000309F080BCD0F80003F3
:1041E00009F088BC704700BFD0F8000309F06EBC2E
:1041F000D0F8000309F06EBCD0F8D40308B502F083
:1042000079FA032802D8024B185C08BD022008BDC9
:10421000B4570108704700BF0F4B1B780BB9012042
:10422000704710B504464FF47A700C4AB0FBF3F3B4
:104230001068B0FBF3F000F0E1F80F2C00D808B1E3
:10424000012010BD002221464FF0FF3000F076F82B
:10425000034B00201C6010BD0A0100244C00002408
:104260000C01002410B50320124C00F055F805F0A5
:10427000DBFB114B11499A699B69C2F3032203F0DE
:104280000F038A5CCB5C02F01F020D4903F01F0391
:10429000D04020FA03F308600E202360FFF7BCFF34
:1042A00010B10124204610BD0446FFF7B3FF20469D
:1042B00010BD00BF50000024004402584C570108B4
:1042C0004C000024034A044B11681B780B44136014
:1042D000704700BFA44A00240A010024014B18685B
:1042E000704700BFA44A002438B50446FFF7F6FF24
:1042F0000546631C02D0044B1B781C44FFF7EEFFFD
:10430000431BA342FAD338BD0A010024014B1868AD
:10431000000C70470010005C06494FF6FF0C0002CD
:10432000054BCA6800F4E06002EA0C021043034344
:10433000CB60704700ED00E00000FA051B4BDB6826
:10434000C3F3022300B5C3F1070E03F1040CBEF161
:10435000040F28BF4FF0040EBCF1060F1AD9033B1F
:104360004FF0FF3C0CFA03FC22EA0C024FF0FF3C3A
:1043700000280CFA0EFC21EA0C0101FA03F141EAD3
:1043800002010ADB09010A4BC9B2034483F8001396
:104390005DF804FB00221346E8E700F00F00090176
:1043A000044BC9B2034419765DF804FB00ED00E04C
:1043B00000E100E0FCEC00E0002807DB012300F056
:1043C0001F01034A40098B4042F82030704700BF6C
:1043D00000E100E000280DDB4309012200F01F008E
:1043E0000549203302FA00F041F82300BFF34F8F54
:1043F000BFF36F8F704700BF00E100E0431EB3F1D1
:10440000807F0CD24FF0E022002006494FF0F00CE4
:104410005361072381F823C0906113617047012025
:10442000704700BF00ED00E0BFF35F8F044B002139
:104430005A6A22F480325A62C3F89410704700BF5F
:1044400000ED00E0064B40F00100C3F894005A6A0A
:1044500042F480325A62BFF34F8FBFF36F8F7047C1
:1044600000ED00E0174A4378C2F89830017821B394
:10447000436800B5C2F89C30C37A90F80CC01B06A4
:1044800090F80FE043EA0C7390F80AC00B43817B6D
:1044900043EACC4390F80DC043EA8C4390F809C03E
:1044A00043EA4143017A43EA0E4343EA0C2343EAD9
:1044B0004103C2F8A0305DF804FBC2F89C10C2F8BA
:1044C000A010704700ED00E0704700BF08B5FFF78F
:1044D000FBFF08BD0268344B344930B4344D354CD1
:1044E000AA4218BF9A420CBF012300238A4208BF88
:1044F00043F001033031A24208BF43F001033034DE
:104500008A4208BF43F001033031A24208BF43F0A2
:10451000010330348A4208BF43F0010301F55C71A6
:10452000A24208BF43F0010304F55C748A4208BF4D
:1045300043F001033031A24208BF43F0010330349D
:104540008A4208BF43F001033031A24208BF43F062
:10455000010330348A4208BF43F001033031A242E4
:1045600008BF43F001038A4208BF43F0010313B9B7
:10457000114B9A4213D1D3B21049114C103BA1FBFD
:1045800003515F2B0F4BC1F3021103EA0203615C7D
:1045900088BF0433C1658365184630BC704722F07C
:1045A000FF038365F8E700BF1000024040000240AF
:1045B0002800024058000240B8040240ABAAAAAA50
:1045C000B857010800FCFFFF0368294A294930B4A5
:1045D000294D2A4CAB4218BF93420CBF0122002246
:1045E0008B4208BF42F001022831A34208BF42F0CB
:1045F000010228348B4208BF42F001022831A34255
:1046000008BF42F001028B4208BF42F0010212B91A
:104610001B4A934213D1DBB21A4C1B4A0121083BBF
:104620001A4DA4FB0343456602EB1312C3F30413B4
:10463000920001FA03F30266836630BC7047DAB277
:104640001349144C1944103AA829A4FB02234FEA39
:10465000131300D80833104A03F01F0501210F4C33
:104660001A44A9404466920081660266E5E700BFED
:1046700008540258305402581C54025844540258EA
:1046800094540258CDCCCCCC0096001680580258D9
:10469000F0FBFDBFABAAAAAA00820010800802406E
:1046A000F8B50446FFF71AFE002C00F07781236866
:1046B0000546924A934248D01832934245D0303250
:1046C0008F498B4218BF934201F130010CBF012288
:1046D00000228B4208BF42F0010218318B4208BF12
:1046E00042F0010218318B4208BF42F0010218313A
:1046F0008B4208BF42F0010201F556718B4208BFA0
:1047000042F0010218318B4208BF42F00102183119
:104710008B4208BF42F0010218318B4208BF42F0C1
:10472000010218318B4208BF42F0010218318B425E
:1047300008BF42F0010218318B4208BF42F001026B
:104740001AB9704A934240F098810022022184F8FD
:10475000342084F835101A6822F001021A6006E04D
:10476000FFF7BCFD431B052B00F2FF8023681A688E
:10477000D607F5D4D4E9022520692A43A1691D682A
:10478000024360690243E0690A4302435E482840ED
:10479000256A2A435D4D0243606A042800F00081C7
:1047A0002E685B4D3540B5F1005F80F0BB801A602C
:1047B0005A6922F0070202435A612046FFF78AFE37
:1047C000E26D3F2302F01F029340836022684B4B4F
:1047D00050484B49824218BF9A4200F130000CBF4A
:1047E000012300238A4208BF43F001033031824293
:1047F00008BF43F0010330308A4208BF43F0010391
:104800003031824208BF43F0010330308A4208BF92
:1048100043F0010301F55C71824208BF43F00103DC
:1048200000F55C708A4208BF43F0010330318242D8
:1048300008BF43F0010330308A4208BF43F0010350
:104840003031824208BF43F0010330308A4208BF52
:1048500043F001033031824208BF43F0010330309E
:104860008A4208BF43F001032B49824208BF43F04C
:1048700001032A488A4208BF43F0010328318242DB
:1048800008BF43F0010328308A4208BF43F0010308
:104890002831824208BF43F0010328308A4208BF12
:1048A00043F001032831824208BF43F001038A42EA
:1048B00008BF43F0010313B9194B9A4218D120469F
:1048C000FFF782FEA368802B5CD06368A06EDAB22B
:1048D000013BD4E91851072B2A60486059D8501E73
:1048E00007286ED9626FD4E91B31002018604A6036
:1048F00000200123606584F83530F8BD10000240C7
:1049000040000240B80402403F8010FE0010005CEE
:104910000000FFFF28000240085402581C540258AF
:10492000945402586568A5F129061F2E24D94F3DDD
:10493000032D01D842F480121A6004285A6922F02B
:10494000070242EA00027FF437AFE56AA06A024339
:10495000002D3FF431AF002969D1012800F0888093
:1049600030F002017FF428AF69E020220323012008
:10497000626584F83530F8BD734D25FA06F6F50703
:10498000DAD5D7E70023A16ED4E91802636003608B
:1049900051600023C4E91B336367A9E70120F8BD18
:1049A0002F68D4E90B562E433243684E3E40B6F191
:1049B000005FB7D21A605A6922F0070242F004027F
:1049C000C4E72168624B634DA94218BF994205F1C3
:1049D00014050CBF01230023A94208BF43F00103C3
:1049E0001435A94208BF43F001031435A94208BF9A
:1049F00043F001031435A94208BF43F00103143505
:104A0000A94208BF43F001033BB9534B994204D07C
:104A1000524B534913449B0003E0524B52491344F9
:104A20009B0001228240C4E91B3162675DE7B1F55A
:104A3000005F0ED0022805D903287FF4BDAEE9013E
:104A40007FF5BAAE012340221846626584F83530FE
:104A5000F8BD03283FF6B0AE01A151F820F000BF29
:104A6000454A00083F4A0008454A0008714A0008C4
:104A7000B5F1C07F7FF4A0AEE4E7354A35483B4945
:104A8000834218BF934200F128000CBF012200228C
:104A90008B4208BF42F001022831834208BF42F036
:104AA000010228308B4208BF42F0010228318342C4
:104AB00008BF42F001028B4208BF42F0010212B966
:104AC000254A934238D100220221294D84F835101D
:104AD00084F834201A681540A268402A2AD0802A17
:104AE0000CBF4FF480400020266AD4E90312D2089C
:104AF00042EAD102616942EAD102A16942EAD102E5
:104B0000E16942EAD1021B4942EA161219442A43DA
:104B100002431948A0FB010120461A600B099B00C3
:104B2000E365FFF7D7FCE26D012302F01F0293401B
:104B300043604BE61020D7E7402203230120626543
:104B400084F83530F8BD00BF3F00C0C30000FFFF50
:104B5000085402581C540258945402583F820010C2
:104B6000400902403F9600164059025830540258FE
:104B70000F00FEFFF8ABFDA7CDCCCCCC002800F099
:104B80008281844690F83400012800F07E81012063
:104B90002DE9F0439CF835408CF83400844208D06D
:104BA0004FF400620023CCF854208CF83430BDE878
:104BB000F0830220DCF80040554D8CF835000020D1
:104BC000544ECCF854005448AC4218BF844205F10E
:104BD00018050CBF01200020AC4208BF40F00100C6
:104BE0001835AC4208BF40F001001835AC4208BF90
:104BF00040F001001835AC4208BF40F0010005F557
:104C00005675AC4208BF40F001001835AC4208BFF1
:104C100040F001001835AC4208BF40F001001835E3
:104C2000AC4208BF40F001001835AC4208BF40F06C
:104C300001001835AC4208BF40F001001835AC4205
:104C400008BF40F001001835AC4208BF40F0010039
:104C5000A5F59265AC4218BFB4420CBF01250025F2
:104C600001D000285AD02668DCF8589026F00106BA
:104C70002660002D7ED0DCF864603746DCF8686082
:104C80007E60DCF86C7037B1DCF87060B646DCF83A
:104C90007460CEF80460DCF85C604FF03F0E06F004
:104CA0001F080EFA08FEC9F808E0266826F48026D8
:104CB00026606360DCF80830402B00F0E880A160DB
:104CC000E26015B9002800F0E880236823F01E0395
:104CD00043F016032360DCF840301BB1236843F037
:104CE00008032360DCF860301A68D20303D51A6821
:104CF00042F480721A601FB13B6843F480733B60DA
:104D00002368002043F001032360BDE8F08300BF67
:104D1000580002401000024040000240644F654EBF
:104D2000DCF85890B44218BFBC4206F128060CBF0C
:104D300001270027B44208BF47F001071436B442E8
:104D400008BF47F001071436B44208BF47F0010717
:104D50001436B44208BF47F00107266826F0010662
:104D60002660554EB44208BF47F0010717B9534FAC
:104D7000BC4212D1DCF864603746DCF868607E60C3
:104D8000DCF86C7037B1DCF87060B646DCF8746043
:104D9000CEF8046000287FF47EAF464FDFF810E1C4
:104DA000744518BFBC420EF1140E0CBF012700273A
:104DB000744508BF47F001070EF1140E744508BF93
:104DC00047F001070EF1140E744508BF47F00107C4
:104DD0000EF1140E744508BF47F001070EF1140ED2
:104DE000744508BF47F0010717B9344FBC4254D18E
:104DF000DCF85C60012706F01F0E07FA0EF7C9F811
:104E000004706360DCF80830402B43D0A160E2609E
:104E1000236823F00E0343F00A032360DCF84030DC
:104E2000002B2DD0236843F004032360204B214A3C
:104E3000944218BF9C4202F128020CBF01230023B8
:104E4000944208BF43F001031432944208BF43F078
:104E500001031432944208BF43F001031432944218
:104E600008BF43F001031432944208BF43F001032A
:104E70001432944208BF43F00103002B3FF440AFCB
:104E8000DCF86C702EE70120704702207047A260AA
:104E9000E16016E7A260E160BAE7236823F00E0341
:104EA00043F00A032360DCF84030002BBAD1BDE7A1
:104EB0001C54025808540258805402589454025802
:104EC00070B50546FFF70AFA002D00F0248195F829
:104ED0003530022B40F0DD802C6806468F4B904821
:104EE000904A844218BF9C4200F130008E490CBFAA
:104EF00001230023844208BF43F001031830844299
:104F000008BF43F001031830844208BF43F0010397
:104F10001830844208BF43F0010300F55670844204
:104F200008BF43F001031830844208BF43F0010377
:104F30001830844208BF43F001031830844208BF90
:104F400043F001031830844208BF43F001031830D6
:104F5000844208BF43F001031830844208BF43F085
:104F600001031830844208BF43F001038C4218BF8C
:104F700094420CBF0122002202D0002B00F090804E
:104F8000216821F01E012160616921F080016161C9
:104F9000002A00F0B0802A6E136823F48073136037
:104FA000236823F00103236005E0FFF797F9831BD3
:104FB000052B00F2A6802368DB07F6D42A68574B3E
:104FC00057485A49824218BF9A4200F148000CBF24
:104FD000012300238A4208BF43F00103303182429B
:104FE00008BF43F0010330308A4208BF43F0010399
:104FF00001F55C71824208BF43F0010300F55C706B
:105000008A4208BF43F001033031824208BF43F0B7
:10501000010330308A4208BF43F00103303182423D
:1050200008BF43F0010330308A4208BF43F0010358
:105030003031824208BF43F001038A4208BF43F087
:10504000010318318A4208BF43F0010333B9A1F5C7
:105050009561354B9A4218BF8A426FD1EA6D3F2362
:10506000A96D02F01F0293408B60EB6ED5E9192108
:10507000516033B11A68D5E91C1022F480721A60AD
:10508000486000230122184685F8352085F8343021
:1050900070BD8022002301206A6585F8343070BD20
:1050A0002268234922F00E022260224A8C4218BF55
:1050B000944201F128010CBF012200228C4208BF5A
:1050C00042F0010214318C4208BF42F00102143157
:1050D0008C4208BF42F0010214318C4208BF42F0FA
:1050E000010214318C4208BF42F001021AB9124A7F
:1050F00094427FF455AF296E0A6822F480720A60E8
:105100004EE72021032200230120696585F8343011
:1051100085F8352070BD012070BD00BF58000240E9
:10512000400002401000024028000240700002408F
:10513000085402581C54025894540258E86D012136
:10514000164B00F01F00164C8140A24218BF9A4235
:10515000A86D0CBF0123002341601248124982420E
:1051600008BF43F0010328308A4208BF43F001031F
:105170002831824208BF43F001038A4208BF43F04E
:10518000010314318A4208BF43F00103002B7FF46E
:105190006CAF064B9A423FF468AF72E71C5402585A
:1051A0000854025830540258445402589454025837
:1051B00000285FD038B590F835200346022A55D133
:1051C0000168574A914248D01832914245D0303256
:1051D000544C5548A14218BF914204F148040CBFF9
:1051E00001220022814208BF42F001023030A14278
:1051F00008BF42F001023034814208BF42F0010290
:1052000000F55C70A14208BF42F0010204F55C7435
:10521000814208BF42F001023030A14208BF42F093
:1052200001023034814208BF42F001023030A14215
:1052300008BF42F001023034814208BF42F001024F
:105240003030A14208BF42F00102814208BF42F063
:10525000010212B9354A91420ED10422002083F88E
:1052600035200B6823F001030B6038BD802201203C
:105270005A6538BD012070472D4A2E4D0868A94255
:1052800018BF91422C4C20F00E0005F13C050CBFDC
:10529000012200220860A14208BF42F00102086812
:1052A0002834A94208BF42F0010220F00100A142C7
:1052B00008BF42F0010214340860A14208BF42F066
:1052C00001021E48814208BF42F0010212B91C4A85
:1052D000914217D101229D6DD3E91704216800F096
:1052E0001F0021F48071824021606A60DA6ED3E988
:1052F0001910486032B11168D3E91C0421F480719F
:1053000011604460012100241A6D83F8351083F880
:1053100034401AB118469047204638BD104638BD73
:10532000100002404000024070000240B8040240F9
:105330001C540258085402583054025880540258E1
:10534000945402582DE9F04300229C4B83B09C4EAC
:105350001D688146019203689A4A846D934218BF82
:10536000B342276808BF0126216818BF002645D030
:1053700018329548834218BF934200F118000CBFC1
:1053800001220022834208BF42F00102183083420A
:1053900008BF42F001021830834208BF42F0010208
:1053A0001830834208BF42F0010200F55670834274
:1053B00008BF42F001021830834208BF42F00102E8
:1053C0001830834208BF42F001021830834208BF00
:1053D00042F001021830834208BF42F00102183047
:1053E000834208BF42F001021830834208BF42F0F6
:1053F00001021AB9754A934240F05082D9F85C1004
:10540000082201F01F0C02FA0CF2174240F08881CA
:1054100027FA0CF2D2070CD55A69100609D50122D9
:1054200002FA0CF2A260D9F8542042F00202C9F844
:1054300054204FF0040E0EFA0CF038425BD0002ED0
:105440004FD1614ADFF88881434518BF934208F184
:1054500030080CBF01220022434508BF42F0010280
:1054600008F11808434508BF42F0010208F1180886
:10547000434508BF42F0010208F11808434508BF40
:1054800042F0010208F55678434508BF42F0010298
:1054900008F11808434508BF42F0010208F1180856
:1054A000434508BF42F0010208F11808434508BF10
:1054B00042F0010208F11808434508BF42F001021A
:1054C00008F11808434508BF42F0010208F1180826
:1054D000434508BF42F001021AB93C4A934240F0EA
:1054E00019821A68920706D5A060D9F8542042F0B4
:1054F0000402C9F85420102202FA0CFC1CEA070F1F
:105500006CD0002E45D1304A314EB34218BF934281
:1055100006F130060CBF01220022B34208BF42F060
:1055200001021836B34208BF42F001021836B342F6
:1055300008BF42F001021836B34208BF42F0010230
:1055400006F55676B34208BF42F001021836B34260
:1055500008BF42F001021836B34208BF42F0010210
:105560001836B34208BF42F001021836B34208BFF2
:1055700042F001021836B34208BF42F00102183669
:10558000B34208BF42F001021AB9104A934240F0F8
:10559000C9811A68100721D5C4F808C01A685603D3
:1055A00000F14C811A68D20503D41A6822F008026F
:1055B0001A60D9F840308BB10CE000BF4C000024D9
:1055C000100002402800024058000240B804024087
:1055D0004000024048469847D9F85C1001F01F018E
:1055E00020268E403E4268D0D9F80020A54BA64F19
:1055F000BA4218BF9A4207F118070CBF01230023D3
:10560000BA4208BF43F001031837BA4208BF43F05B
:1056100001031837BA4208BF43F001031837BA42F2
:1056200008BF43F001031837BA4208BF43F0010333
:105630001837BA4208BF43F0010307F55677BA425C
:1056400008BF43F001031837BA4208BF43F0010313
:105650001837BA4208BF43F001031837BA4208BFEF
:1056600043F001031837BA4208BF43F0010318376B
:10567000BA4208BF43F001031837BA4208BF43F0EB
:1056800001031BB9814B9A4240F062811368DB062B
:1056900013D5A66099F83530042B136800F0AE805E
:1056A00013F4802F136800F0D3801C0340F1DE80D8
:1056B000D9F83C300BB148469847D9F85430002B04
:1056C00000F0B980D9F85430D8071FD5D9F8002098
:1056D000042189F83510136823F0010313606C4B23
:1056E000A3FB0535AD0A02E01368D90704D5019B79
:1056F0000133AB420193F7D91368DB074CBF032397
:10570000012389F83530002389F83430D9F84C303A
:10571000002B00F09080484603B0BDE8F0431847E6
:10572000186840070AD5186820F004001860A260C5
:10573000D9F8542042F00102C9F8542027FA0CF29B
:10574000D2077FF576AE534A5348834218BF93423F
:1057500000F130000CBF01220022834208BF42F05A
:1057600001021830834208BF42F001021830834220
:1057700008BF42F001021830834208BF42F0010224
:1057800000F55670834208BF42F001021830834290
:1057900008BF42F001021830834208BF42F0010204
:1057A0001830834208BF42F001021830834208BF1C
:1057B00042F001021830834208BF42F00102183063
:1057C000834208BF42F001021830834208BF42F012
:1057D0000102002A7FF420AE002E7FF41DAE1A686D
:1057E000042202FA0CF23A4240F09480102202FAAB
:1057F0000CFC17EA0C0F3FF4F1AE84E623F016031D
:105800001360536923F080035361D9F840309BB390
:10581000136823F0080313603F230125002203FAD5
:1058200001F1D9F85030A16089F8355089F8342059
:10583000002B7FF470AF03B0BDE8F0831B68180342
:105840007FF5B7AED9F84830002B7FF4C3AEC5E67C
:1058500013F480737FF42CAF116821F010011160F4
:10586000012289F8343089F8352021E7D9F844300D
:10587000002B7FF420AF20E7D9F84830002BC7D1A8
:10588000CAE700BF1000024028000240B8040240EE
:10589000B5814E1B58000240400002404E4A4F4D19
:1058A000AB4218BF934205F114050CBF0122002240
:1058B000AB4208BF42F001021435AB4208BF42F0D0
:1058C00001021435AB4208BF42F001021435AB426D
:1058D00008BF42F001021435AB4208BF42F001029A
:1058E00012B93F4A9342A6D1D9F85C5004261A68EF
:1058F00005F01F05AE400E4219D0570717D510040A
:1059000066604BD5D1034FD4D9F84830002B7FF4D3
:1059100002AF90E71A68102202FA0CFC17EA0C0F8B
:105920003FF45CAE1A6852077FF558AE34E60226A3
:10593000AE400E4211D097070FD56660140439D5DA
:10594000D00343D4D9F84430002B7FF4E4AE72E79F
:1059500013689F077FF5B1AE9BE60826AE400E4266
:105960003FF469AF11077FF566AF1A68002122F096
:105970000E021A600123D9F84C2003FA05F5656080
:10598000C9F8543089F8341089F83530002A3FF4CA
:1059900052AF484603B0BDE8F0431047920603D427
:1059A0001A6822F004021A60D9F84030002B7FF404
:1059B000B2AE40E712F0200208D11968012421F0AC
:1059C0000A01196089F8354089F83420D9F83C304B
:1059D000002B7FF4A0AE2EE7085402581C54025846
:1059E00094540258406D70472DE9F04F0C6883B015
:1059F000002C00F0A6804FF0000C8E4F6346012271
:105A00009A4012EA040E00F095804D6805F00309F3
:105A100009F1FF36012E40F29780B9F1030F40F0F3
:105A2000D18009FA0CF26FEA0208066815F4403FCB
:105A300006EA080842EA080202607BD0D7F8F420A0
:105A400023F0030803F0030942F0020208F1B04812
:105A50004FEA8909C7F8F42008F58068D7F8F420E0
:105A600002F002020192019A0F22D8F8086002FAAD
:105A700009F226EA0202704EB04229D006F580668D
:105A8000B04200F0AC806D4EB04200F0AE806C4E83
:105A9000B04200F09E806B4EB04200F0B2806A4E81
:105AA000B04200F0B480694EB04200F0A480684E6D
:105AB000B04200F0B280674EB04200F0B480664E53
:105AC000B0420CBF09260A2606FA09F942EA090281
:105AD000C8F808204FF0B042EE026FEA0E081268D4
